{
	"contracts/EnglishAuction.sol": {
		"EnglishAuction": {
			"abi": [
				{
					"inputs": [
						{
							"internalType": "address",
							"name": "_nft",
							"type": "address"
						},
						{
							"internalType": "uint256",
							"name": "_nftId",
							"type": "uint256"
						},
						{
							"internalType": "uint256",
							"name": "_startingBid",
							"type": "uint256"
						}
					],
					"stateMutability": "nonpayable",
					"type": "constructor"
				},
				{
					"anonymous": false,
					"inputs": [
						{
							"indexed": true,
							"internalType": "address",
							"name": "sender",
							"type": "address"
						},
						{
							"indexed": false,
							"internalType": "uint256",
							"name": "amount",
							"type": "uint256"
						}
					],
					"name": "Bid",
					"type": "event"
				},
				{
					"anonymous": false,
					"inputs": [
						{
							"indexed": false,
							"internalType": "address",
							"name": "highestBidder",
							"type": "address"
						},
						{
							"indexed": false,
							"internalType": "uint256",
							"name": "highestBid",
							"type": "uint256"
						}
					],
					"name": "End",
					"type": "event"
				},
				{
					"anonymous": false,
					"inputs": [],
					"name": "Start",
					"type": "event"
				},
				{
					"anonymous": false,
					"inputs": [
						{
							"indexed": true,
							"internalType": "address",
							"name": "bidder",
							"type": "address"
						},
						{
							"indexed": false,
							"internalType": "uint256",
							"name": "amount",
							"type": "uint256"
						}
					],
					"name": "Withdraw",
					"type": "event"
				},
				{
					"inputs": [],
					"name": "bid",
					"outputs": [],
					"stateMutability": "payable",
					"type": "function"
				},
				{
					"inputs": [
						{
							"internalType": "address",
							"name": "",
							"type": "address"
						}
					],
					"name": "bids",
					"outputs": [
						{
							"internalType": "uint256",
							"name": "",
							"type": "uint256"
						}
					],
					"stateMutability": "view",
					"type": "function"
				},
				{
					"inputs": [],
					"name": "end",
					"outputs": [],
					"stateMutability": "nonpayable",
					"type": "function"
				},
				{
					"inputs": [],
					"name": "endAt",
					"outputs": [
						{
							"internalType": "uint32",
							"name": "",
							"type": "uint32"
						}
					],
					"stateMutability": "view",
					"type": "function"
				},
				{
					"inputs": [],
					"name": "ended",
					"outputs": [
						{
							"internalType": "bool",
							"name": "",
							"type": "bool"
						}
					],
					"stateMutability": "view",
					"type": "function"
				},
				{
					"inputs": [],
					"name": "highestBid",
					"outputs": [
						{
							"internalType": "uint256",
							"name": "",
							"type": "uint256"
						}
					],
					"stateMutability": "view",
					"type": "function"
				},
				{
					"inputs": [],
					"name": "highestBidder",
					"outputs": [
						{
							"internalType": "address",
							"name": "",
							"type": "address"
						}
					],
					"stateMutability": "view",
					"type": "function"
				},
				{
					"inputs": [],
					"name": "nft",
					"outputs": [
						{
							"internalType": "contract IERC721",
							"name": "",
							"type": "address"
						}
					],
					"stateMutability": "view",
					"type": "function"
				},
				{
					"inputs": [],
					"name": "nftId",
					"outputs": [
						{
							"internalType": "uint256",
							"name": "",
							"type": "uint256"
						}
					],
					"stateMutability": "view",
					"type": "function"
				},
				{
					"inputs": [],
					"name": "seller",
					"outputs": [
						{
							"internalType": "address payable",
							"name": "",
							"type": "address"
						}
					],
					"stateMutability": "view",
					"type": "function"
				},
				{
					"inputs": [],
					"name": "start",
					"outputs": [],
					"stateMutability": "nonpayable",
					"type": "function"
				},
				{
					"inputs": [],
					"name": "started",
					"outputs": [
						{
							"internalType": "bool",
							"name": "",
							"type": "bool"
						}
					],
					"stateMutability": "view",
					"type": "function"
				},
				{
					"inputs": [],
					"name": "withdraw",
					"outputs": [],
					"stateMutability": "nonpayable",
					"type": "function"
				}
			],
			"devdoc": {
				"kind": "dev",
				"methods": {},
				"version": 1
			},
			"evm": {
				"assembly": "    /* \"contracts/EnglishAuction.sol\":157:2732  contract EnglishAuction {... */\n  mstore(0x40, 0xe0)\n    /* \"contracts/EnglishAuction.sol\":719:910  constructor(address _nft, uint _nftId, uint _startingBid) {... */\n  callvalue\n  dup1\n  iszero\n  tag_1\n  jumpi\n  0x00\n  dup1\n  revert\ntag_1:\n  pop\n  mload(0x40)\n  sub(codesize, bytecodeSize)\n  dup1\n  bytecodeSize\n  dup4\n  codecopy\n  dup2\n  dup2\n  add\n  0x40\n  mstore\n  dup2\n  add\n  swap1\n  tag_2\n  swap2\n  swap1\n  tag_3\n  jump\t// in\ntag_2:\n    /* \"contracts/EnglishAuction.sol\":801:805  _nft */\n  dup3\n    /* \"contracts/EnglishAuction.sol\":787:806  nft = IERC721(_nft) */\n  0xffffffffffffffffffffffffffffffffffffffff\n  and\n  0x80\n  dup2\n  0xffffffffffffffffffffffffffffffffffffffff\n  and\n  dup2\n  mstore\n  pop\n  pop\n    /* \"contracts/EnglishAuction.sol\":824:830  _nftId */\n  dup2\n    /* \"contracts/EnglishAuction.sol\":816:830  nftId = _nftId */\n  0xa0\n  dup2\n  dup2\n  mstore\n  pop\n  pop\n    /* \"contracts/EnglishAuction.sol\":857:867  msg.sender */\n  caller\n    /* \"contracts/EnglishAuction.sol\":840:868  seller = payable(msg.sender) */\n  0xffffffffffffffffffffffffffffffffffffffff\n  and\n  0xc0\n  dup2\n  0xffffffffffffffffffffffffffffffffffffffff\n  and\n  dup2\n  mstore\n  pop\n  pop\n    /* \"contracts/EnglishAuction.sol\":891:903  _startingBid */\n  dup1\n    /* \"contracts/EnglishAuction.sol\":878:888  highestBid */\n  0x01\n    /* \"contracts/EnglishAuction.sol\":878:903  highestBid = _startingBid */\n  dup2\n  swap1\n  sstore\n  pop\n    /* \"contracts/EnglishAuction.sol\":719:910  constructor(address _nft, uint _nftId, uint _startingBid) {... */\n  pop\n  pop\n  pop\n    /* \"contracts/EnglishAuction.sol\":157:2732  contract EnglishAuction {... */\n  jump(tag_6)\n    /* \"#utility.yul\":88:205   */\ntag_8:\n    /* \"#utility.yul\":197:198   */\n  0x00\n    /* \"#utility.yul\":194:195   */\n  dup1\n    /* \"#utility.yul\":187:199   */\n  revert\n    /* \"#utility.yul\":334:460   */\ntag_10:\n    /* \"#utility.yul\":371:378   */\n  0x00\n    /* \"#utility.yul\":411:453   */\n  0xffffffffffffffffffffffffffffffffffffffff\n    /* \"#utility.yul\":404:409   */\n  dup3\n    /* \"#utility.yul\":400:454   */\n  and\n    /* \"#utility.yul\":389:454   */\n  swap1\n  pop\n    /* \"#utility.yul\":334:460   */\n  swap2\n  swap1\n  pop\n  jump\t// out\n    /* \"#utility.yul\":466:562   */\ntag_11:\n    /* \"#utility.yul\":503:510   */\n  0x00\n    /* \"#utility.yul\":532:556   */\n  tag_23\n    /* \"#utility.yul\":550:555   */\n  dup3\n    /* \"#utility.yul\":532:556   */\n  tag_10\n  jump\t// in\ntag_23:\n    /* \"#utility.yul\":521:556   */\n  swap1\n  pop\n    /* \"#utility.yul\":466:562   */\n  swap2\n  swap1\n  pop\n  jump\t// out\n    /* \"#utility.yul\":568:690   */\ntag_12:\n    /* \"#utility.yul\":641:665   */\n  tag_25\n    /* \"#utility.yul\":659:664   */\n  dup2\n    /* \"#utility.yul\":641:665   */\n  tag_11\n  jump\t// in\ntag_25:\n    /* \"#utility.yul\":634:639   */\n  dup2\n    /* \"#utility.yul\":631:666   */\n  eq\n    /* \"#utility.yul\":621:684   */\n  tag_26\n  jumpi\n    /* \"#utility.yul\":680:681   */\n  0x00\n    /* \"#utility.yul\":677:678   */\n  dup1\n    /* \"#utility.yul\":670:682   */\n  revert\n    /* \"#utility.yul\":621:684   */\ntag_26:\n    /* \"#utility.yul\":568:690   */\n  pop\n  jump\t// out\n    /* \"#utility.yul\":696:839   */\ntag_13:\n    /* \"#utility.yul\":753:758   */\n  0x00\n    /* \"#utility.yul\":784:790   */\n  dup2\n    /* \"#utility.yul\":778:791   */\n  mload\n    /* \"#utility.yul\":769:791   */\n  swap1\n  pop\n    /* \"#utility.yul\":800:833   */\n  tag_28\n    /* \"#utility.yul\":827:832   */\n  dup2\n    /* \"#utility.yul\":800:833   */\n  tag_12\n  jump\t// in\ntag_28:\n    /* \"#utility.yul\":696:839   */\n  swap3\n  swap2\n  pop\n  pop\n  jump\t// out\n    /* \"#utility.yul\":845:922   */\ntag_14:\n    /* \"#utility.yul\":882:889   */\n  0x00\n    /* \"#utility.yul\":911:916   */\n  dup2\n    /* \"#utility.yul\":900:916   */\n  swap1\n  pop\n    /* \"#utility.yul\":845:922   */\n  swap2\n  swap1\n  pop\n  jump\t// out\n    /* \"#utility.yul\":928:1050   */\ntag_15:\n    /* \"#utility.yul\":1001:1025   */\n  tag_31\n    /* \"#utility.yul\":1019:1024   */\n  dup2\n    /* \"#utility.yul\":1001:1025   */\n  tag_14\n  jump\t// in\ntag_31:\n    /* \"#utility.yul\":994:999   */\n  dup2\n    /* \"#utility.yul\":991:1026   */\n  eq\n    /* \"#utility.yul\":981:1044   */\n  tag_32\n  jumpi\n    /* \"#utility.yul\":1040:1041   */\n  0x00\n    /* \"#utility.yul\":1037:1038   */\n  dup1\n    /* \"#utility.yul\":1030:1042   */\n  revert\n    /* \"#utility.yul\":981:1044   */\ntag_32:\n    /* \"#utility.yul\":928:1050   */\n  pop\n  jump\t// out\n    /* \"#utility.yul\":1056:1199   */\ntag_16:\n    /* \"#utility.yul\":1113:1118   */\n  0x00\n    /* \"#utility.yul\":1144:1150   */\n  dup2\n    /* \"#utility.yul\":1138:1151   */\n  mload\n    /* \"#utility.yul\":1129:1151   */\n  swap1\n  pop\n    /* \"#utility.yul\":1160:1193   */\n  tag_34\n    /* \"#utility.yul\":1187:1192   */\n  dup2\n    /* \"#utility.yul\":1160:1193   */\n  tag_15\n  jump\t// in\ntag_34:\n    /* \"#utility.yul\":1056:1199   */\n  swap3\n  swap2\n  pop\n  pop\n  jump\t// out\n    /* \"#utility.yul\":1205:1868   */\ntag_3:\n    /* \"#utility.yul\":1293:1299   */\n  0x00\n    /* \"#utility.yul\":1301:1307   */\n  dup1\n    /* \"#utility.yul\":1309:1315   */\n  0x00\n    /* \"#utility.yul\":1358:1360   */\n  0x60\n    /* \"#utility.yul\":1346:1355   */\n  dup5\n    /* \"#utility.yul\":1337:1344   */\n  dup7\n    /* \"#utility.yul\":1333:1356   */\n  sub\n    /* \"#utility.yul\":1329:1361   */\n  slt\n    /* \"#utility.yul\":1326:1445   */\n  iszero\n  tag_36\n  jumpi\n    /* \"#utility.yul\":1364:1443   */\n  tag_37\n  tag_8\n  jump\t// in\ntag_37:\n    /* \"#utility.yul\":1326:1445   */\ntag_36:\n    /* \"#utility.yul\":1484:1485   */\n  0x00\n    /* \"#utility.yul\":1509:1573   */\n  tag_38\n    /* \"#utility.yul\":1565:1572   */\n  dup7\n    /* \"#utility.yul\":1556:1562   */\n  dup3\n    /* \"#utility.yul\":1545:1554   */\n  dup8\n    /* \"#utility.yul\":1541:1563   */\n  add\n    /* \"#utility.yul\":1509:1573   */\n  tag_13\n  jump\t// in\ntag_38:\n    /* \"#utility.yul\":1499:1573   */\n  swap4\n  pop\n    /* \"#utility.yul\":1455:1583   */\n  pop\n    /* \"#utility.yul\":1622:1624   */\n  0x20\n    /* \"#utility.yul\":1648:1712   */\n  tag_39\n    /* \"#utility.yul\":1704:1711   */\n  dup7\n    /* \"#utility.yul\":1695:1701   */\n  dup3\n    /* \"#utility.yul\":1684:1693   */\n  dup8\n    /* \"#utility.yul\":1680:1702   */\n  add\n    /* \"#utility.yul\":1648:1712   */\n  tag_16\n  jump\t// in\ntag_39:\n    /* \"#utility.yul\":1638:1712   */\n  swap3\n  pop\n    /* \"#utility.yul\":1593:1722   */\n  pop\n    /* \"#utility.yul\":1761:1763   */\n  0x40\n    /* \"#utility.yul\":1787:1851   */\n  tag_40\n    /* \"#utility.yul\":1843:1850   */\n  dup7\n    /* \"#utility.yul\":1834:1840   */\n  dup3\n    /* \"#utility.yul\":1823:1832   */\n  dup8\n    /* \"#utility.yul\":1819:1841   */\n  add\n    /* \"#utility.yul\":1787:1851   */\n  tag_16\n  jump\t// in\ntag_40:\n    /* \"#utility.yul\":1777:1851   */\n  swap2\n  pop\n    /* \"#utility.yul\":1732:1861   */\n  pop\n    /* \"#utility.yul\":1205:1868   */\n  swap3\n  pop\n  swap3\n  pop\n  swap3\n  jump\t// out\n    /* \"contracts/EnglishAuction.sol\":157:2732  contract EnglishAuction {... */\ntag_6:\n  mload(0x80)\n  mload(0xa0)\n  mload(0xc0)\n  codecopy(0x00, dataOffset(sub_0), dataSize(sub_0))\n  0x00\n  assignImmutable(\"0xd67d834462ca31eaef1f30157e31659f60355143b7441e6fc7d9eae1fa79f3f8\")\n  0x00\n  assignImmutable(\"0x3b4066bd7b7960752225af105d3beafb5c47a26c5aae7e6798a437b7c0bb33e6\")\n  0x00\n  assignImmutable(\"0x77c32b454bb61eb9df9e3848d0ded3e59753acda90ae58befe564733aec82e4c\")\n  return(0x00, dataSize(sub_0))\nstop\n\nsub_0: assembly {\n        /* \"contracts/EnglishAuction.sol\":157:2732  contract EnglishAuction {... */\n      mstore(0x40, 0x80)\n      jumpi(tag_1, lt(calldatasize, 0x04))\n      shr(0xe0, calldataload(0x00))\n      dup1\n      0x62ea82db\n      gt\n      tag_15\n      jumpi\n      dup1\n      0xbe9a6555\n      gt\n      tag_16\n      jumpi\n      dup1\n      0xbe9a6555\n      eq\n      tag_11\n      jumpi\n      dup1\n      0xc6bc5182\n      eq\n      tag_12\n      jumpi\n      dup1\n      0xd57bde79\n      eq\n      tag_13\n      jumpi\n      dup1\n      0xefbe1c1c\n      eq\n      tag_14\n      jumpi\n      jump(tag_1)\n    tag_16:\n      dup1\n      0x62ea82db\n      eq\n      tag_8\n      jumpi\n      dup1\n      0x7cc3ae8c\n      eq\n      tag_9\n      jumpi\n      dup1\n      0x91f90157\n      eq\n      tag_10\n      jumpi\n      jump(tag_1)\n    tag_15:\n      dup1\n      0x08551a53\n      eq\n      tag_2\n      jumpi\n      dup1\n      0x12fa6feb\n      eq\n      tag_3\n      jumpi\n      dup1\n      0x1998aeef\n      eq\n      tag_4\n      jumpi\n      dup1\n      0x1f2698ab\n      eq\n      tag_5\n      jumpi\n      dup1\n      0x3ccfd60b\n      eq\n      tag_6\n      jumpi\n      dup1\n      0x47ccca02\n      eq\n      tag_7\n      jumpi\n    tag_1:\n      0x00\n      dup1\n      revert\n        /* \"contracts/EnglishAuction.sol\":479:518  address payable public immutable seller */\n    tag_2:\n      callvalue\n      dup1\n      iszero\n      tag_17\n      jumpi\n      0x00\n      dup1\n      revert\n    tag_17:\n      pop\n      tag_18\n      tag_19\n      jump\t// in\n    tag_18:\n      mload(0x40)\n      tag_20\n      swap2\n      swap1\n      tag_21\n      jump\t// in\n    tag_20:\n      mload(0x40)\n      dup1\n      swap2\n      sub\n      swap1\n      return\n        /* \"contracts/EnglishAuction.sol\":574:591  bool public ended */\n    tag_3:\n      callvalue\n      dup1\n      iszero\n      tag_22\n      jumpi\n      0x00\n      dup1\n      revert\n    tag_22:\n      pop\n      tag_23\n      tag_24\n      jump\t// in\n    tag_23:\n      mload(0x40)\n      tag_25\n      swap2\n      swap1\n      tag_26\n      jump\t// in\n    tag_25:\n      mload(0x40)\n      dup1\n      swap2\n      sub\n      swap1\n      return\n        /* \"contracts/EnglishAuction.sol\":1305:1964  function bid() external payable {... */\n    tag_4:\n      tag_27\n      tag_28\n      jump\t// in\n    tag_27:\n      stop\n        /* \"contracts/EnglishAuction.sol\":549:568  bool public started */\n    tag_5:\n      callvalue\n      dup1\n      iszero\n      tag_29\n      jumpi\n      0x00\n      dup1\n      revert\n    tag_29:\n      pop\n      tag_30\n      tag_31\n      jump\t// in\n    tag_30:\n      mload(0x40)\n      tag_32\n      swap2\n      swap1\n      tag_26\n      jump\t// in\n    tag_32:\n      mload(0x40)\n      dup1\n      swap2\n      sub\n      swap1\n      return\n        /* \"contracts/EnglishAuction.sol\":1989:2175  function withdraw() external {... */\n    tag_6:\n      callvalue\n      dup1\n      iszero\n      tag_33\n      jumpi\n      0x00\n      dup1\n      revert\n    tag_33:\n      pop\n      tag_34\n      tag_35\n      jump\t// in\n    tag_34:\n      stop\n        /* \"contracts/EnglishAuction.sol\":392:420  IERC721 public immutable nft */\n    tag_7:\n      callvalue\n      dup1\n      iszero\n      tag_36\n      jumpi\n      0x00\n      dup1\n      revert\n    tag_36:\n      pop\n      tag_37\n      tag_38\n      jump\t// in\n    tag_37:\n      mload(0x40)\n      tag_39\n      swap2\n      swap1\n      tag_40\n      jump\t// in\n    tag_39:\n      mload(0x40)\n      dup1\n      swap2\n      sub\n      swap1\n      return\n        /* \"contracts/EnglishAuction.sol\":660:696  mapping(address => uint) public bids */\n    tag_8:\n      callvalue\n      dup1\n      iszero\n      tag_41\n      jumpi\n      0x00\n      dup1\n      revert\n    tag_41:\n      pop\n      tag_42\n      0x04\n      dup1\n      calldatasize\n      sub\n      dup2\n      add\n      swap1\n      tag_43\n      swap2\n      swap1\n      tag_44\n      jump\t// in\n    tag_43:\n      tag_45\n      jump\t// in\n    tag_42:\n      mload(0x40)\n      tag_46\n      swap2\n      swap1\n      tag_47\n      jump\t// in\n    tag_46:\n      mload(0x40)\n      dup1\n      swap2\n      sub\n      swap1\n      return\n        /* \"contracts/EnglishAuction.sol\":524:543  uint32 public endAt */\n    tag_9:\n      callvalue\n      dup1\n      iszero\n      tag_48\n      jumpi\n      0x00\n      dup1\n      revert\n    tag_48:\n      pop\n      tag_49\n      tag_50\n      jump\t// in\n    tag_49:\n      mload(0x40)\n      tag_51\n      swap2\n      swap1\n      tag_52\n      jump\t// in\n    tag_51:\n      mload(0x40)\n      dup1\n      swap2\n      sub\n      swap1\n      return\n        /* \"contracts/EnglishAuction.sol\":598:626  address public highestBidder */\n    tag_10:\n      callvalue\n      dup1\n      iszero\n      tag_53\n      jumpi\n      0x00\n      dup1\n      revert\n    tag_53:\n      pop\n      tag_54\n      tag_55\n      jump\t// in\n    tag_54:\n      mload(0x40)\n      tag_56\n      swap2\n      swap1\n      tag_57\n      jump\t// in\n    tag_56:\n      mload(0x40)\n      dup1\n      swap2\n      sub\n      swap1\n      return\n        /* \"contracts/EnglishAuction.sol\":941:1280  function start() external {... */\n    tag_11:\n      callvalue\n      dup1\n      iszero\n      tag_58\n      jumpi\n      0x00\n      dup1\n      revert\n    tag_58:\n      pop\n      tag_59\n      tag_60\n      jump\t// in\n    tag_59:\n      stop\n        /* \"contracts/EnglishAuction.sol\":426:453  uint public immutable nftId */\n    tag_12:\n      callvalue\n      dup1\n      iszero\n      tag_61\n      jumpi\n      0x00\n      dup1\n      revert\n    tag_61:\n      pop\n      tag_62\n      tag_63\n      jump\t// in\n    tag_62:\n      mload(0x40)\n      tag_64\n      swap2\n      swap1\n      tag_47\n      jump\t// in\n    tag_64:\n      mload(0x40)\n      dup1\n      swap2\n      sub\n      swap1\n      return\n        /* \"contracts/EnglishAuction.sol\":632:654  uint public highestBid */\n    tag_13:\n      callvalue\n      dup1\n      iszero\n      tag_65\n      jumpi\n      0x00\n      dup1\n      revert\n    tag_65:\n      pop\n      tag_66\n      tag_67\n      jump\t// in\n    tag_66:\n      mload(0x40)\n      tag_68\n      swap2\n      swap1\n      tag_47\n      jump\t// in\n    tag_68:\n      mload(0x40)\n      dup1\n      swap2\n      sub\n      swap1\n      return\n        /* \"contracts/EnglishAuction.sol\":2261:2730  function end() external {... */\n    tag_14:\n      callvalue\n      dup1\n      iszero\n      tag_69\n      jumpi\n      0x00\n      dup1\n      revert\n    tag_69:\n      pop\n      tag_70\n      tag_71\n      jump\t// in\n    tag_70:\n      stop\n        /* \"contracts/EnglishAuction.sol\":479:518  address payable public immutable seller */\n    tag_19:\n      immutable(\"0xd67d834462ca31eaef1f30157e31659f60355143b7441e6fc7d9eae1fa79f3f8\")\n      dup2\n      jump\t// out\n        /* \"contracts/EnglishAuction.sol\":574:591  bool public ended */\n    tag_24:\n      0x00\n      0x05\n      swap1\n      sload\n      swap1\n      0x0100\n      exp\n      swap1\n      div\n      0xff\n      and\n      dup2\n      jump\t// out\n        /* \"contracts/EnglishAuction.sol\":1305:1964  function bid() external payable {... */\n    tag_28:\n        /* \"contracts/EnglishAuction.sol\":1355:1362  started */\n      0x00\n      0x04\n      swap1\n      sload\n      swap1\n      0x0100\n      exp\n      swap1\n      div\n      0xff\n      and\n        /* \"contracts/EnglishAuction.sol\":1347:1378  require(started, \"not started\") */\n      tag_73\n      jumpi\n      mload(0x40)\n      0x08c379a000000000000000000000000000000000000000000000000000000000\n      dup2\n      mstore\n      0x04\n      add\n      tag_74\n      swap1\n      tag_75\n      jump\t// in\n    tag_74:\n      mload(0x40)\n      dup1\n      swap2\n      sub\n      swap1\n      revert\n    tag_73:\n        /* \"contracts/EnglishAuction.sol\":1414:1419  endAt */\n      0x00\n      dup1\n      sload\n      swap1\n      0x0100\n      exp\n      swap1\n      div\n      0xffffffff\n      and\n        /* \"contracts/EnglishAuction.sol\":1396:1419  block.timestamp < endAt */\n      0xffffffff\n      and\n        /* \"contracts/EnglishAuction.sol\":1396:1411  block.timestamp */\n      timestamp\n        /* \"contracts/EnglishAuction.sol\":1396:1419  block.timestamp < endAt */\n      lt\n        /* \"contracts/EnglishAuction.sol\":1388:1429  require(block.timestamp < endAt, \"ended\") */\n      tag_76\n      jumpi\n      mload(0x40)\n      0x08c379a000000000000000000000000000000000000000000000000000000000\n      dup2\n      mstore\n      0x04\n      add\n      tag_77\n      swap1\n      tag_78\n      jump\t// in\n    tag_77:\n      mload(0x40)\n      dup1\n      swap2\n      sub\n      swap1\n      revert\n    tag_76:\n        /* \"contracts/EnglishAuction.sol\":1459:1469  highestBid */\n      sload(0x01)\n        /* \"contracts/EnglishAuction.sol\":1447:1456  msg.value */\n      callvalue\n        /* \"contracts/EnglishAuction.sol\":1447:1469  msg.value > highestBid */\n      gt\n        /* \"contracts/EnglishAuction.sol\":1439:1490  require(msg.value > highestBid, \"value<highestBid\") */\n      tag_79\n      jumpi\n      mload(0x40)\n      0x08c379a000000000000000000000000000000000000000000000000000000000\n      dup2\n      mstore\n      0x04\n      add\n      tag_80\n      swap1\n      tag_81\n      jump\t// in\n    tag_80:\n      mload(0x40)\n      dup1\n      swap2\n      sub\n      swap1\n      revert\n    tag_79:\n        /* \"contracts/EnglishAuction.sol\":1530:1531  0 */\n      0x00\n        /* \"contracts/EnglishAuction.sol\":1505:1532  highestBidder != address(0) */\n      0xffffffffffffffffffffffffffffffffffffffff\n      and\n        /* \"contracts/EnglishAuction.sol\":1505:1518  highestBidder */\n      0x00\n      0x06\n      swap1\n      sload\n      swap1\n      0x0100\n      exp\n      swap1\n      div\n      0xffffffffffffffffffffffffffffffffffffffff\n      and\n        /* \"contracts/EnglishAuction.sol\":1505:1532  highestBidder != address(0) */\n      0xffffffffffffffffffffffffffffffffffffffff\n      and\n      eq\n        /* \"contracts/EnglishAuction.sol\":1501:1847  if (highestBidder != address(0)) {... */\n      tag_82\n      jumpi\n        /* \"contracts/EnglishAuction.sol\":1826:1836  highestBid */\n      sload(0x01)\n        /* \"contracts/EnglishAuction.sol\":1803:1807  bids */\n      0x02\n        /* \"contracts/EnglishAuction.sol\":1803:1822  bids[highestBidder] */\n      0x00\n        /* \"contracts/EnglishAuction.sol\":1808:1821  highestBidder */\n      dup1\n      0x06\n      swap1\n      sload\n      swap1\n      0x0100\n      exp\n      swap1\n      div\n      0xffffffffffffffffffffffffffffffffffffffff\n      and\n        /* \"contracts/EnglishAuction.sol\":1803:1822  bids[highestBidder] */\n      0xffffffffffffffffffffffffffffffffffffffff\n      and\n      0xffffffffffffffffffffffffffffffffffffffff\n      and\n      dup2\n      mstore\n      0x20\n      add\n      swap1\n      dup2\n      mstore\n      0x20\n      add\n      0x00\n      keccak256\n      0x00\n        /* \"contracts/EnglishAuction.sol\":1803:1836  bids[highestBidder] += highestBid */\n      dup3\n      dup3\n      sload\n      tag_83\n      swap2\n      swap1\n      tag_84\n      jump\t// in\n    tag_83:\n      swap3\n      pop\n      pop\n      dup2\n      swap1\n      sstore\n      pop\n        /* \"contracts/EnglishAuction.sol\":1501:1847  if (highestBidder != address(0)) {... */\n    tag_82:\n        /* \"contracts/EnglishAuction.sol\":1870:1879  msg.value */\n      callvalue\n        /* \"contracts/EnglishAuction.sol\":1857:1867  highestBid */\n      0x01\n        /* \"contracts/EnglishAuction.sol\":1857:1879  highestBid = msg.value */\n      dup2\n      swap1\n      sstore\n      pop\n        /* \"contracts/EnglishAuction.sol\":1905:1915  msg.sender */\n      caller\n        /* \"contracts/EnglishAuction.sol\":1889:1902  highestBidder */\n      0x00\n      0x06\n        /* \"contracts/EnglishAuction.sol\":1889:1915  highestBidder = msg.sender */\n      0x0100\n      exp\n      dup2\n      sload\n      dup2\n      0xffffffffffffffffffffffffffffffffffffffff\n      mul\n      not\n      and\n      swap1\n      dup4\n      0xffffffffffffffffffffffffffffffffffffffff\n      and\n      mul\n      or\n      swap1\n      sstore\n      pop\n        /* \"contracts/EnglishAuction.sol\":1935:1945  msg.sender */\n      caller\n        /* \"contracts/EnglishAuction.sol\":1931:1957  Bid(msg.sender, msg.value) */\n      0xffffffffffffffffffffffffffffffffffffffff\n      and\n      0xe684a55f31b79eca403df938249029212a5925ec6be8012e099b45bc1019e5d2\n        /* \"contracts/EnglishAuction.sol\":1947:1956  msg.value */\n      callvalue\n        /* \"contracts/EnglishAuction.sol\":1931:1957  Bid(msg.sender, msg.value) */\n      mload(0x40)\n      tag_85\n      swap2\n      swap1\n      tag_47\n      jump\t// in\n    tag_85:\n      mload(0x40)\n      dup1\n      swap2\n      sub\n      swap1\n      log2\n        /* \"contracts/EnglishAuction.sol\":1305:1964  function bid() external payable {... */\n      jump\t// out\n        /* \"contracts/EnglishAuction.sol\":549:568  bool public started */\n    tag_31:\n      0x00\n      0x04\n      swap1\n      sload\n      swap1\n      0x0100\n      exp\n      swap1\n      div\n      0xff\n      and\n      dup2\n      jump\t// out\n        /* \"contracts/EnglishAuction.sol\":1989:2175  function withdraw() external {... */\n    tag_35:\n        /* \"contracts/EnglishAuction.sol\":2028:2036  uint bal */\n      0x00\n        /* \"contracts/EnglishAuction.sol\":2039:2043  bids */\n      0x02\n        /* \"contracts/EnglishAuction.sol\":2039:2055  bids[msg.sender] */\n      0x00\n        /* \"contracts/EnglishAuction.sol\":2044:2054  msg.sender */\n      caller\n        /* \"contracts/EnglishAuction.sol\":2039:2055  bids[msg.sender] */\n      0xffffffffffffffffffffffffffffffffffffffff\n      and\n      0xffffffffffffffffffffffffffffffffffffffff\n      and\n      dup2\n      mstore\n      0x20\n      add\n      swap1\n      dup2\n      mstore\n      0x20\n      add\n      0x00\n      keccak256\n      sload\n        /* \"contracts/EnglishAuction.sol\":2028:2055  uint bal = bids[msg.sender] */\n      swap1\n      pop\n        /* \"contracts/EnglishAuction.sol\":2084:2085  0 */\n      0x00\n        /* \"contracts/EnglishAuction.sol\":2065:2069  bids */\n      0x02\n        /* \"contracts/EnglishAuction.sol\":2065:2081  bids[msg.sender] */\n      0x00\n        /* \"contracts/EnglishAuction.sol\":2070:2080  msg.sender */\n      caller\n        /* \"contracts/EnglishAuction.sol\":2065:2081  bids[msg.sender] */\n      0xffffffffffffffffffffffffffffffffffffffff\n      and\n      0xffffffffffffffffffffffffffffffffffffffff\n      and\n      dup2\n      mstore\n      0x20\n      add\n      swap1\n      dup2\n      mstore\n      0x20\n      add\n      0x00\n      keccak256\n        /* \"contracts/EnglishAuction.sol\":2065:2085  bids[msg.sender] = 0 */\n      dup2\n      swap1\n      sstore\n      pop\n        /* \"contracts/EnglishAuction.sol\":2103:2113  msg.sender */\n      caller\n        /* \"contracts/EnglishAuction.sol\":2095:2123  payable(msg.sender).transfer */\n      0xffffffffffffffffffffffffffffffffffffffff\n      and\n        /* \"contracts/EnglishAuction.sol\":2095:2128  payable(msg.sender).transfer(bal) */\n      0x08fc\n        /* \"contracts/EnglishAuction.sol\":2124:2127  bal */\n      dup3\n        /* \"contracts/EnglishAuction.sol\":2095:2128  payable(msg.sender).transfer(bal) */\n      swap1\n      dup2\n      iszero\n      mul\n      swap1\n      mload(0x40)\n      0x00\n      mload(0x40)\n      dup1\n      dup4\n      sub\n      dup2\n      dup6\n      dup9\n      dup9\n      call\n      swap4\n      pop\n      pop\n      pop\n      pop\n      iszero\n      dup1\n      iszero\n      tag_88\n      jumpi\n      returndatasize\n      0x00\n      dup1\n      returndatacopy\n      revert(0x00, returndatasize)\n    tag_88:\n      pop\n        /* \"contracts/EnglishAuction.sol\":2152:2162  msg.sender */\n      caller\n        /* \"contracts/EnglishAuction.sol\":2143:2168  Withdraw(msg.sender, bal) */\n      0xffffffffffffffffffffffffffffffffffffffff\n      and\n      0x884edad9ce6fa2440d8a54cc123490eb96d2768479d49ff9c7366125a9424364\n        /* \"contracts/EnglishAuction.sol\":2164:2167  bal */\n      dup3\n        /* \"contracts/EnglishAuction.sol\":2143:2168  Withdraw(msg.sender, bal) */\n      mload(0x40)\n      tag_89\n      swap2\n      swap1\n      tag_47\n      jump\t// in\n    tag_89:\n      mload(0x40)\n      dup1\n      swap2\n      sub\n      swap1\n      log2\n        /* \"contracts/EnglishAuction.sol\":2018:2175  {... */\n      pop\n        /* \"contracts/EnglishAuction.sol\":1989:2175  function withdraw() external {... */\n      jump\t// out\n        /* \"contracts/EnglishAuction.sol\":392:420  IERC721 public immutable nft */\n    tag_38:\n      immutable(\"0x77c32b454bb61eb9df9e3848d0ded3e59753acda90ae58befe564733aec82e4c\")\n      dup2\n      jump\t// out\n        /* \"contracts/EnglishAuction.sol\":660:696  mapping(address => uint) public bids */\n    tag_45:\n      mstore(0x20, 0x02)\n      dup1\n      0x00\n      mstore\n      keccak256(0x00, 0x40)\n      0x00\n      swap2\n      pop\n      swap1\n      pop\n      sload\n      dup2\n      jump\t// out\n        /* \"contracts/EnglishAuction.sol\":524:543  uint32 public endAt */\n    tag_50:\n      0x00\n      dup1\n      sload\n      swap1\n      0x0100\n      exp\n      swap1\n      div\n      0xffffffff\n      and\n      dup2\n      jump\t// out\n        /* \"contracts/EnglishAuction.sol\":598:626  address public highestBidder */\n    tag_55:\n      0x00\n      0x06\n      swap1\n      sload\n      swap1\n      0x0100\n      exp\n      swap1\n      div\n      0xffffffffffffffffffffffffffffffffffffffff\n      and\n      dup2\n      jump\t// out\n        /* \"contracts/EnglishAuction.sol\":941:1280  function start() external {... */\n    tag_60:\n        /* \"contracts/EnglishAuction.sol\":999:1005  seller */\n      immutable(\"0xd67d834462ca31eaef1f30157e31659f60355143b7441e6fc7d9eae1fa79f3f8\")\n        /* \"contracts/EnglishAuction.sol\":985:1005  msg.sender == seller */\n      0xffffffffffffffffffffffffffffffffffffffff\n      and\n        /* \"contracts/EnglishAuction.sol\":985:995  msg.sender */\n      caller\n        /* \"contracts/EnglishAuction.sol\":985:1005  msg.sender == seller */\n      0xffffffffffffffffffffffffffffffffffffffff\n      and\n      eq\n        /* \"contracts/EnglishAuction.sol\":977:1020  require(msg.sender == seller, \"not seller\") */\n      tag_91\n      jumpi\n      mload(0x40)\n      0x08c379a000000000000000000000000000000000000000000000000000000000\n      dup2\n      mstore\n      0x04\n      add\n      tag_92\n      swap1\n      tag_93\n      jump\t// in\n    tag_92:\n      mload(0x40)\n      dup1\n      swap2\n      sub\n      swap1\n      revert\n    tag_91:\n        /* \"contracts/EnglishAuction.sol\":1039:1046  started */\n      0x00\n      0x04\n      swap1\n      sload\n      swap1\n      0x0100\n      exp\n      swap1\n      div\n      0xff\n      and\n        /* \"contracts/EnglishAuction.sol\":1038:1046  !started */\n      iszero\n        /* \"contracts/EnglishAuction.sol\":1030:1058  require(!started, \"started\") */\n      tag_94\n      jumpi\n      mload(0x40)\n      0x08c379a000000000000000000000000000000000000000000000000000000000\n      dup2\n      mstore\n      0x04\n      add\n      tag_95\n      swap1\n      tag_96\n      jump\t// in\n    tag_95:\n      mload(0x40)\n      dup1\n      swap2\n      sub\n      swap1\n      revert\n    tag_94:\n        /* \"contracts/EnglishAuction.sol\":1079:1083  true */\n      0x01\n        /* \"contracts/EnglishAuction.sol\":1069:1076  started */\n      0x00\n      0x04\n        /* \"contracts/EnglishAuction.sol\":1069:1083  started = true */\n      0x0100\n      exp\n      dup2\n      sload\n      dup2\n      0xff\n      mul\n      not\n      and\n      swap1\n      dup4\n      iszero\n      iszero\n      mul\n      or\n      swap1\n      sstore\n      pop\n        /* \"contracts/EnglishAuction.sol\":1191:1194  180 */\n      0xb4\n        /* \"contracts/EnglishAuction.sol\":1173:1188  block.timestamp */\n      timestamp\n        /* \"contracts/EnglishAuction.sol\":1173:1194  block.timestamp + 180 */\n      tag_97\n      swap2\n      swap1\n      tag_84\n      jump\t// in\n    tag_97:\n        /* \"contracts/EnglishAuction.sol\":1158:1163  endAt */\n      0x00\n      dup1\n        /* \"contracts/EnglishAuction.sol\":1158:1195  endAt = uint32(block.timestamp + 180) */\n      0x0100\n      exp\n      dup2\n      sload\n      dup2\n      0xffffffff\n      mul\n      not\n      and\n      swap1\n      dup4\n      0xffffffff\n      and\n      mul\n      or\n      swap1\n      sstore\n      pop\n        /* \"contracts/EnglishAuction.sol\":1205:1208  nft */\n      immutable(\"0x77c32b454bb61eb9df9e3848d0ded3e59753acda90ae58befe564733aec82e4c\")\n        /* \"contracts/EnglishAuction.sol\":1205:1221  nft.transferFrom */\n      0xffffffffffffffffffffffffffffffffffffffff\n      and\n      0x23b872dd\n        /* \"contracts/EnglishAuction.sol\":1222:1228  seller */\n      immutable(\"0xd67d834462ca31eaef1f30157e31659f60355143b7441e6fc7d9eae1fa79f3f8\")\n        /* \"contracts/EnglishAuction.sol\":1238:1242  this */\n      address\n        /* \"contracts/EnglishAuction.sol\":1245:1250  nftId */\n      immutable(\"0x3b4066bd7b7960752225af105d3beafb5c47a26c5aae7e6798a437b7c0bb33e6\")\n        /* \"contracts/EnglishAuction.sol\":1205:1251  nft.transferFrom(seller, address(this), nftId) */\n      mload(0x40)\n      dup5\n      0xffffffff\n      and\n      0xe0\n      shl\n      dup2\n      mstore\n      0x04\n      add\n      tag_98\n      swap4\n      swap3\n      swap2\n      swap1\n      tag_99\n      jump\t// in\n    tag_98:\n      0x00\n      mload(0x40)\n      dup1\n      dup4\n      sub\n      dup2\n      0x00\n      dup8\n      dup1\n      extcodesize\n      iszero\n      dup1\n      iszero\n      tag_100\n      jumpi\n      0x00\n      dup1\n      revert\n    tag_100:\n      pop\n      gas\n      call\n      iszero\n      dup1\n      iszero\n      tag_102\n      jumpi\n      returndatasize\n      0x00\n      dup1\n      returndatacopy\n      revert(0x00, returndatasize)\n    tag_102:\n      pop\n      pop\n      pop\n      pop\n        /* \"contracts/EnglishAuction.sol\":1266:1273  Start() */\n      0x1b55ba3aa851a46be3b365aee5b5c140edd620d578922f3e8466d2cbd96f954b\n      mload(0x40)\n      mload(0x40)\n      dup1\n      swap2\n      sub\n      swap1\n      log1\n        /* \"contracts/EnglishAuction.sol\":941:1280  function start() external {... */\n      jump\t// out\n        /* \"contracts/EnglishAuction.sol\":426:453  uint public immutable nftId */\n    tag_63:\n      immutable(\"0x3b4066bd7b7960752225af105d3beafb5c47a26c5aae7e6798a437b7c0bb33e6\")\n      dup2\n      jump\t// out\n        /* \"contracts/EnglishAuction.sol\":632:654  uint public highestBid */\n    tag_67:\n      sload(0x01)\n      dup2\n      jump\t// out\n        /* \"contracts/EnglishAuction.sol\":2261:2730  function end() external {... */\n    tag_71:\n        /* \"contracts/EnglishAuction.sol\":2303:2310  started */\n      0x00\n      0x04\n      swap1\n      sload\n      swap1\n      0x0100\n      exp\n      swap1\n      div\n      0xff\n      and\n        /* \"contracts/EnglishAuction.sol\":2295:2326  require(started, \"not started\") */\n      tag_104\n      jumpi\n      mload(0x40)\n      0x08c379a000000000000000000000000000000000000000000000000000000000\n      dup2\n      mstore\n      0x04\n      add\n      tag_105\n      swap1\n      tag_75\n      jump\t// in\n    tag_105:\n      mload(0x40)\n      dup1\n      swap2\n      sub\n      swap1\n      revert\n    tag_104:\n        /* \"contracts/EnglishAuction.sol\":2345:2350  ended */\n      0x00\n      0x05\n      swap1\n      sload\n      swap1\n      0x0100\n      exp\n      swap1\n      div\n      0xff\n      and\n        /* \"contracts/EnglishAuction.sol\":2344:2350  !ended */\n      iszero\n        /* \"contracts/EnglishAuction.sol\":2336:2360  require(!ended, \"ended\") */\n      tag_106\n      jumpi\n      mload(0x40)\n      0x08c379a000000000000000000000000000000000000000000000000000000000\n      dup2\n      mstore\n      0x04\n      add\n      tag_107\n      swap1\n      tag_78\n      jump\t// in\n    tag_107:\n      mload(0x40)\n      dup1\n      swap2\n      sub\n      swap1\n      revert\n    tag_106:\n        /* \"contracts/EnglishAuction.sol\":2397:2402  endAt */\n      0x00\n      dup1\n      sload\n      swap1\n      0x0100\n      exp\n      swap1\n      div\n      0xffffffff\n      and\n        /* \"contracts/EnglishAuction.sol\":2378:2402  block.timestamp >= endAt */\n      0xffffffff\n      and\n        /* \"contracts/EnglishAuction.sol\":2378:2393  block.timestamp */\n      timestamp\n        /* \"contracts/EnglishAuction.sol\":2378:2402  block.timestamp >= endAt */\n      lt\n      iszero\n        /* \"contracts/EnglishAuction.sol\":2370:2416  require(block.timestamp >= endAt, \"not ended\") */\n      tag_108\n      jumpi\n      mload(0x40)\n      0x08c379a000000000000000000000000000000000000000000000000000000000\n      dup2\n      mstore\n      0x04\n      add\n      tag_109\n      swap1\n      tag_110\n      jump\t// in\n    tag_109:\n      mload(0x40)\n      dup1\n      swap2\n      sub\n      swap1\n      revert\n    tag_108:\n        /* \"contracts/EnglishAuction.sol\":2435:2439  true */\n      0x01\n        /* \"contracts/EnglishAuction.sol\":2427:2432  ended */\n      0x00\n      0x05\n        /* \"contracts/EnglishAuction.sol\":2427:2439  ended = true */\n      0x0100\n      exp\n      dup2\n      sload\n      dup2\n      0xff\n      mul\n      not\n      and\n      swap1\n      dup4\n      iszero\n      iszero\n      mul\n      or\n      swap1\n      sstore\n      pop\n        /* \"contracts/EnglishAuction.sol\":2478:2479  0 */\n      0x00\n        /* \"contracts/EnglishAuction.sol\":2453:2480  highestBidder != address(0) */\n      0xffffffffffffffffffffffffffffffffffffffff\n      and\n        /* \"contracts/EnglishAuction.sol\":2453:2466  highestBidder */\n      0x00\n      0x06\n      swap1\n      sload\n      swap1\n      0x0100\n      exp\n      swap1\n      div\n      0xffffffffffffffffffffffffffffffffffffffff\n      and\n        /* \"contracts/EnglishAuction.sol\":2453:2480  highestBidder != address(0) */\n      0xffffffffffffffffffffffffffffffffffffffff\n      and\n      eq\n        /* \"contracts/EnglishAuction.sol\":2449:2678  if (highestBidder != address(0)) {... */\n      tag_111\n      jumpi\n        /* \"contracts/EnglishAuction.sol\":2496:2499  nft */\n      immutable(\"0x77c32b454bb61eb9df9e3848d0ded3e59753acda90ae58befe564733aec82e4c\")\n        /* \"contracts/EnglishAuction.sol\":2496:2512  nft.transferFrom */\n      0xffffffffffffffffffffffffffffffffffffffff\n      and\n      0x23b872dd\n        /* \"contracts/EnglishAuction.sol\":2521:2525  this */\n      address\n        /* \"contracts/EnglishAuction.sol\":2528:2541  highestBidder */\n      0x00\n      0x06\n      swap1\n      sload\n      swap1\n      0x0100\n      exp\n      swap1\n      div\n      0xffffffffffffffffffffffffffffffffffffffff\n      and\n        /* \"contracts/EnglishAuction.sol\":2543:2548  nftId */\n      immutable(\"0x3b4066bd7b7960752225af105d3beafb5c47a26c5aae7e6798a437b7c0bb33e6\")\n        /* \"contracts/EnglishAuction.sol\":2496:2549  nft.transferFrom(address(this), highestBidder, nftId) */\n      mload(0x40)\n      dup5\n      0xffffffff\n      and\n      0xe0\n      shl\n      dup2\n      mstore\n      0x04\n      add\n      tag_112\n      swap4\n      swap3\n      swap2\n      swap1\n      tag_113\n      jump\t// in\n    tag_112:\n      0x00\n      mload(0x40)\n      dup1\n      dup4\n      sub\n      dup2\n      0x00\n      dup8\n      dup1\n      extcodesize\n      iszero\n      dup1\n      iszero\n      tag_114\n      jumpi\n      0x00\n      dup1\n      revert\n    tag_114:\n      pop\n      gas\n      call\n      iszero\n      dup1\n      iszero\n      tag_116\n      jumpi\n      returndatasize\n      0x00\n      dup1\n      returndatacopy\n      revert(0x00, returndatasize)\n    tag_116:\n      pop\n      pop\n      pop\n      pop\n        /* \"contracts/EnglishAuction.sol\":2563:2569  seller */\n      immutable(\"0xd67d834462ca31eaef1f30157e31659f60355143b7441e6fc7d9eae1fa79f3f8\")\n        /* \"contracts/EnglishAuction.sol\":2563:2578  seller.transfer */\n      0xffffffffffffffffffffffffffffffffffffffff\n      and\n        /* \"contracts/EnglishAuction.sol\":2563:2590  seller.transfer(highestBid) */\n      0x08fc\n        /* \"contracts/EnglishAuction.sol\":2579:2589  highestBid */\n      sload(0x01)\n        /* \"contracts/EnglishAuction.sol\":2563:2590  seller.transfer(highestBid) */\n      swap1\n      dup2\n      iszero\n      mul\n      swap1\n      mload(0x40)\n      0x00\n      mload(0x40)\n      dup1\n      dup4\n      sub\n      dup2\n      dup6\n      dup9\n      dup9\n      call\n      swap4\n      pop\n      pop\n      pop\n      pop\n      iszero\n      dup1\n      iszero\n      tag_118\n      jumpi\n      returndatasize\n      0x00\n      dup1\n      returndatacopy\n      revert(0x00, returndatasize)\n    tag_118:\n      pop\n        /* \"contracts/EnglishAuction.sol\":2449:2678  if (highestBidder != address(0)) {... */\n      jump(tag_119)\n    tag_111:\n        /* \"contracts/EnglishAuction.sol\":2621:2624  nft */\n      immutable(\"0x77c32b454bb61eb9df9e3848d0ded3e59753acda90ae58befe564733aec82e4c\")\n        /* \"contracts/EnglishAuction.sol\":2621:2637  nft.transferFrom */\n      0xffffffffffffffffffffffffffffffffffffffff\n      and\n      0x23b872dd\n        /* \"contracts/EnglishAuction.sol\":2646:2650  this */\n      address\n        /* \"contracts/EnglishAuction.sol\":2653:2659  seller */\n      immutable(\"0xd67d834462ca31eaef1f30157e31659f60355143b7441e6fc7d9eae1fa79f3f8\")\n        /* \"contracts/EnglishAuction.sol\":2661:2666  nftId */\n      immutable(\"0x3b4066bd7b7960752225af105d3beafb5c47a26c5aae7e6798a437b7c0bb33e6\")\n        /* \"contracts/EnglishAuction.sol\":2621:2667  nft.transferFrom(address(this), seller, nftId) */\n      mload(0x40)\n      dup5\n      0xffffffff\n      and\n      0xe0\n      shl\n      dup2\n      mstore\n      0x04\n      add\n      tag_120\n      swap4\n      swap3\n      swap2\n      swap1\n      tag_121\n      jump\t// in\n    tag_120:\n      0x00\n      mload(0x40)\n      dup1\n      dup4\n      sub\n      dup2\n      0x00\n      dup8\n      dup1\n      extcodesize\n      iszero\n      dup1\n      iszero\n      tag_122\n      jumpi\n      0x00\n      dup1\n      revert\n    tag_122:\n      pop\n      gas\n      call\n      iszero\n      dup1\n      iszero\n      tag_124\n      jumpi\n      returndatasize\n      0x00\n      dup1\n      returndatacopy\n      revert(0x00, returndatasize)\n    tag_124:\n      pop\n      pop\n      pop\n      pop\n        /* \"contracts/EnglishAuction.sol\":2449:2678  if (highestBidder != address(0)) {... */\n    tag_119:\n        /* \"contracts/EnglishAuction.sol\":2693:2723  End(highestBidder, highestBid) */\n      0x7d7570b046e5ead3a4f3fbc9fa2445113625a1e79823776146316bafed6b8cc5\n        /* \"contracts/EnglishAuction.sol\":2697:2710  highestBidder */\n      0x00\n      0x06\n      swap1\n      sload\n      swap1\n      0x0100\n      exp\n      swap1\n      div\n      0xffffffffffffffffffffffffffffffffffffffff\n      and\n        /* \"contracts/EnglishAuction.sol\":2712:2722  highestBid */\n      sload(0x01)\n        /* \"contracts/EnglishAuction.sol\":2693:2723  End(highestBidder, highestBid) */\n      mload(0x40)\n      tag_125\n      swap3\n      swap2\n      swap1\n      tag_126\n      jump\t// in\n    tag_125:\n      mload(0x40)\n      dup1\n      swap2\n      sub\n      swap1\n      log1\n        /* \"contracts/EnglishAuction.sol\":2261:2730  function end() external {... */\n      jump\t// out\n        /* \"#utility.yul\":7:133   */\n    tag_127:\n        /* \"#utility.yul\":44:51   */\n      0x00\n        /* \"#utility.yul\":84:126   */\n      0xffffffffffffffffffffffffffffffffffffffff\n        /* \"#utility.yul\":77:82   */\n      dup3\n        /* \"#utility.yul\":73:127   */\n      and\n        /* \"#utility.yul\":62:127   */\n      swap1\n      pop\n        /* \"#utility.yul\":7:133   */\n      swap2\n      swap1\n      pop\n      jump\t// out\n        /* \"#utility.yul\":139:243   */\n    tag_128:\n        /* \"#utility.yul\":184:191   */\n      0x00\n        /* \"#utility.yul\":213:237   */\n      tag_167\n        /* \"#utility.yul\":231:236   */\n      dup3\n        /* \"#utility.yul\":213:237   */\n      tag_127\n      jump\t// in\n    tag_167:\n        /* \"#utility.yul\":202:237   */\n      swap1\n      pop\n        /* \"#utility.yul\":139:243   */\n      swap2\n      swap1\n      pop\n      jump\t// out\n        /* \"#utility.yul\":249:391   */\n    tag_129:\n        /* \"#utility.yul\":352:384   */\n      tag_169\n        /* \"#utility.yul\":378:383   */\n      dup2\n        /* \"#utility.yul\":352:384   */\n      tag_128\n      jump\t// in\n    tag_169:\n        /* \"#utility.yul\":347:350   */\n      dup3\n        /* \"#utility.yul\":340:385   */\n      mstore\n        /* \"#utility.yul\":249:391   */\n      pop\n      pop\n      jump\t// out\n        /* \"#utility.yul\":397:651   */\n    tag_21:\n        /* \"#utility.yul\":506:510   */\n      0x00\n        /* \"#utility.yul\":544:546   */\n      0x20\n        /* \"#utility.yul\":533:542   */\n      dup3\n        /* \"#utility.yul\":529:547   */\n      add\n        /* \"#utility.yul\":521:547   */\n      swap1\n      pop\n        /* \"#utility.yul\":557:644   */\n      tag_171\n        /* \"#utility.yul\":641:642   */\n      0x00\n        /* \"#utility.yul\":630:639   */\n      dup4\n        /* \"#utility.yul\":626:643   */\n      add\n        /* \"#utility.yul\":617:623   */\n      dup5\n        /* \"#utility.yul\":557:644   */\n      tag_129\n      jump\t// in\n    tag_171:\n        /* \"#utility.yul\":397:651   */\n      swap3\n      swap2\n      pop\n      pop\n      jump\t// out\n        /* \"#utility.yul\":657:747   */\n    tag_130:\n        /* \"#utility.yul\":691:698   */\n      0x00\n        /* \"#utility.yul\":734:739   */\n      dup2\n        /* \"#utility.yul\":727:740   */\n      iszero\n        /* \"#utility.yul\":720:741   */\n      iszero\n        /* \"#utility.yul\":709:741   */\n      swap1\n      pop\n        /* \"#utility.yul\":657:747   */\n      swap2\n      swap1\n      pop\n      jump\t// out\n        /* \"#utility.yul\":753:862   */\n    tag_131:\n        /* \"#utility.yul\":834:855   */\n      tag_174\n        /* \"#utility.yul\":849:854   */\n      dup2\n        /* \"#utility.yul\":834:855   */\n      tag_130\n      jump\t// in\n    tag_174:\n        /* \"#utility.yul\":829:832   */\n      dup3\n        /* \"#utility.yul\":822:856   */\n      mstore\n        /* \"#utility.yul\":753:862   */\n      pop\n      pop\n      jump\t// out\n        /* \"#utility.yul\":868:1078   */\n    tag_26:\n        /* \"#utility.yul\":955:959   */\n      0x00\n        /* \"#utility.yul\":993:995   */\n      0x20\n        /* \"#utility.yul\":982:991   */\n      dup3\n        /* \"#utility.yul\":978:996   */\n      add\n        /* \"#utility.yul\":970:996   */\n      swap1\n      pop\n        /* \"#utility.yul\":1006:1071   */\n      tag_176\n        /* \"#utility.yul\":1068:1069   */\n      0x00\n        /* \"#utility.yul\":1057:1066   */\n      dup4\n        /* \"#utility.yul\":1053:1070   */\n      add\n        /* \"#utility.yul\":1044:1050   */\n      dup5\n        /* \"#utility.yul\":1006:1071   */\n      tag_131\n      jump\t// in\n    tag_176:\n        /* \"#utility.yul\":868:1078   */\n      swap3\n      swap2\n      pop\n      pop\n      jump\t// out\n        /* \"#utility.yul\":1084:1144   */\n    tag_132:\n        /* \"#utility.yul\":1112:1115   */\n      0x00\n        /* \"#utility.yul\":1133:1138   */\n      dup2\n        /* \"#utility.yul\":1126:1138   */\n      swap1\n      pop\n        /* \"#utility.yul\":1084:1144   */\n      swap2\n      swap1\n      pop\n      jump\t// out\n        /* \"#utility.yul\":1150:1292   */\n    tag_133:\n        /* \"#utility.yul\":1200:1209   */\n      0x00\n        /* \"#utility.yul\":1233:1286   */\n      tag_179\n        /* \"#utility.yul\":1251:1285   */\n      tag_180\n        /* \"#utility.yul\":1260:1284   */\n      tag_181\n        /* \"#utility.yul\":1278:1283   */\n      dup5\n        /* \"#utility.yul\":1260:1284   */\n      tag_127\n      jump\t// in\n    tag_181:\n        /* \"#utility.yul\":1251:1285   */\n      tag_132\n      jump\t// in\n    tag_180:\n        /* \"#utility.yul\":1233:1286   */\n      tag_127\n      jump\t// in\n    tag_179:\n        /* \"#utility.yul\":1220:1286   */\n      swap1\n      pop\n        /* \"#utility.yul\":1150:1292   */\n      swap2\n      swap1\n      pop\n      jump\t// out\n        /* \"#utility.yul\":1298:1424   */\n    tag_134:\n        /* \"#utility.yul\":1348:1357   */\n      0x00\n        /* \"#utility.yul\":1381:1418   */\n      tag_183\n        /* \"#utility.yul\":1412:1417   */\n      dup3\n        /* \"#utility.yul\":1381:1418   */\n      tag_133\n      jump\t// in\n    tag_183:\n        /* \"#utility.yul\":1368:1418   */\n      swap1\n      pop\n        /* \"#utility.yul\":1298:1424   */\n      swap2\n      swap1\n      pop\n      jump\t// out\n        /* \"#utility.yul\":1430:1570   */\n    tag_135:\n        /* \"#utility.yul\":1494:1503   */\n      0x00\n        /* \"#utility.yul\":1527:1564   */\n      tag_185\n        /* \"#utility.yul\":1558:1563   */\n      dup3\n        /* \"#utility.yul\":1527:1564   */\n      tag_134\n      jump\t// in\n    tag_185:\n        /* \"#utility.yul\":1514:1564   */\n      swap1\n      pop\n        /* \"#utility.yul\":1430:1570   */\n      swap2\n      swap1\n      pop\n      jump\t// out\n        /* \"#utility.yul\":1576:1735   */\n    tag_136:\n        /* \"#utility.yul\":1677:1728   */\n      tag_187\n        /* \"#utility.yul\":1722:1727   */\n      dup2\n        /* \"#utility.yul\":1677:1728   */\n      tag_135\n      jump\t// in\n    tag_187:\n        /* \"#utility.yul\":1672:1675   */\n      dup3\n        /* \"#utility.yul\":1665:1729   */\n      mstore\n        /* \"#utility.yul\":1576:1735   */\n      pop\n      pop\n      jump\t// out\n        /* \"#utility.yul\":1741:1991   */\n    tag_40:\n        /* \"#utility.yul\":1848:1852   */\n      0x00\n        /* \"#utility.yul\":1886:1888   */\n      0x20\n        /* \"#utility.yul\":1875:1884   */\n      dup3\n        /* \"#utility.yul\":1871:1889   */\n      add\n        /* \"#utility.yul\":1863:1889   */\n      swap1\n      pop\n        /* \"#utility.yul\":1899:1984   */\n      tag_189\n        /* \"#utility.yul\":1981:1982   */\n      0x00\n        /* \"#utility.yul\":1970:1979   */\n      dup4\n        /* \"#utility.yul\":1966:1983   */\n      add\n        /* \"#utility.yul\":1957:1963   */\n      dup5\n        /* \"#utility.yul\":1899:1984   */\n      tag_136\n      jump\t// in\n    tag_189:\n        /* \"#utility.yul\":1741:1991   */\n      swap3\n      swap2\n      pop\n      pop\n      jump\t// out\n        /* \"#utility.yul\":2078:2195   */\n    tag_138:\n        /* \"#utility.yul\":2187:2188   */\n      0x00\n        /* \"#utility.yul\":2184:2185   */\n      dup1\n        /* \"#utility.yul\":2177:2189   */\n      revert\n        /* \"#utility.yul\":2324:2420   */\n    tag_140:\n        /* \"#utility.yul\":2361:2368   */\n      0x00\n        /* \"#utility.yul\":2390:2414   */\n      tag_194\n        /* \"#utility.yul\":2408:2413   */\n      dup3\n        /* \"#utility.yul\":2390:2414   */\n      tag_127\n      jump\t// in\n    tag_194:\n        /* \"#utility.yul\":2379:2414   */\n      swap1\n      pop\n        /* \"#utility.yul\":2324:2420   */\n      swap2\n      swap1\n      pop\n      jump\t// out\n        /* \"#utility.yul\":2426:2548   */\n    tag_141:\n        /* \"#utility.yul\":2499:2523   */\n      tag_196\n        /* \"#utility.yul\":2517:2522   */\n      dup2\n        /* \"#utility.yul\":2499:2523   */\n      tag_140\n      jump\t// in\n    tag_196:\n        /* \"#utility.yul\":2492:2497   */\n      dup2\n        /* \"#utility.yul\":2489:2524   */\n      eq\n        /* \"#utility.yul\":2479:2542   */\n      tag_197\n      jumpi\n        /* \"#utility.yul\":2538:2539   */\n      0x00\n        /* \"#utility.yul\":2535:2536   */\n      dup1\n        /* \"#utility.yul\":2528:2540   */\n      revert\n        /* \"#utility.yul\":2479:2542   */\n    tag_197:\n        /* \"#utility.yul\":2426:2548   */\n      pop\n      jump\t// out\n        /* \"#utility.yul\":2554:2693   */\n    tag_142:\n        /* \"#utility.yul\":2600:2605   */\n      0x00\n        /* \"#utility.yul\":2638:2644   */\n      dup2\n        /* \"#utility.yul\":2625:2645   */\n      calldataload\n        /* \"#utility.yul\":2616:2645   */\n      swap1\n      pop\n        /* \"#utility.yul\":2654:2687   */\n      tag_199\n        /* \"#utility.yul\":2681:2686   */\n      dup2\n        /* \"#utility.yul\":2654:2687   */\n      tag_141\n      jump\t// in\n    tag_199:\n        /* \"#utility.yul\":2554:2693   */\n      swap3\n      swap2\n      pop\n      pop\n      jump\t// out\n        /* \"#utility.yul\":2699:3028   */\n    tag_44:\n        /* \"#utility.yul\":2758:2764   */\n      0x00\n        /* \"#utility.yul\":2807:2809   */\n      0x20\n        /* \"#utility.yul\":2795:2804   */\n      dup3\n        /* \"#utility.yul\":2786:2793   */\n      dup5\n        /* \"#utility.yul\":2782:2805   */\n      sub\n        /* \"#utility.yul\":2778:2810   */\n      slt\n        /* \"#utility.yul\":2775:2894   */\n      iszero\n      tag_201\n      jumpi\n        /* \"#utility.yul\":2813:2892   */\n      tag_202\n      tag_138\n      jump\t// in\n    tag_202:\n        /* \"#utility.yul\":2775:2894   */\n    tag_201:\n        /* \"#utility.yul\":2933:2934   */\n      0x00\n        /* \"#utility.yul\":2958:3011   */\n      tag_203\n        /* \"#utility.yul\":3003:3010   */\n      dup5\n        /* \"#utility.yul\":2994:3000   */\n      dup3\n        /* \"#utility.yul\":2983:2992   */\n      dup6\n        /* \"#utility.yul\":2979:3001   */\n      add\n        /* \"#utility.yul\":2958:3011   */\n      tag_142\n      jump\t// in\n    tag_203:\n        /* \"#utility.yul\":2948:3011   */\n      swap2\n      pop\n        /* \"#utility.yul\":2904:3021   */\n      pop\n        /* \"#utility.yul\":2699:3028   */\n      swap3\n      swap2\n      pop\n      pop\n      jump\t// out\n        /* \"#utility.yul\":3034:3111   */\n    tag_143:\n        /* \"#utility.yul\":3071:3078   */\n      0x00\n        /* \"#utility.yul\":3100:3105   */\n      dup2\n        /* \"#utility.yul\":3089:3105   */\n      swap1\n      pop\n        /* \"#utility.yul\":3034:3111   */\n      swap2\n      swap1\n      pop\n      jump\t// out\n        /* \"#utility.yul\":3117:3235   */\n    tag_144:\n        /* \"#utility.yul\":3204:3228   */\n      tag_206\n        /* \"#utility.yul\":3222:3227   */\n      dup2\n        /* \"#utility.yul\":3204:3228   */\n      tag_143\n      jump\t// in\n    tag_206:\n        /* \"#utility.yul\":3199:3202   */\n      dup3\n        /* \"#utility.yul\":3192:3229   */\n      mstore\n        /* \"#utility.yul\":3117:3235   */\n      pop\n      pop\n      jump\t// out\n        /* \"#utility.yul\":3241:3463   */\n    tag_47:\n        /* \"#utility.yul\":3334:3338   */\n      0x00\n        /* \"#utility.yul\":3372:3374   */\n      0x20\n        /* \"#utility.yul\":3361:3370   */\n      dup3\n        /* \"#utility.yul\":3357:3375   */\n      add\n        /* \"#utility.yul\":3349:3375   */\n      swap1\n      pop\n        /* \"#utility.yul\":3385:3456   */\n      tag_208\n        /* \"#utility.yul\":3453:3454   */\n      0x00\n        /* \"#utility.yul\":3442:3451   */\n      dup4\n        /* \"#utility.yul\":3438:3455   */\n      add\n        /* \"#utility.yul\":3429:3435   */\n      dup5\n        /* \"#utility.yul\":3385:3456   */\n      tag_144\n      jump\t// in\n    tag_208:\n        /* \"#utility.yul\":3241:3463   */\n      swap3\n      swap2\n      pop\n      pop\n      jump\t// out\n        /* \"#utility.yul\":3469:3562   */\n    tag_145:\n        /* \"#utility.yul\":3505:3512   */\n      0x00\n        /* \"#utility.yul\":3545:3555   */\n      0xffffffff\n        /* \"#utility.yul\":3538:3543   */\n      dup3\n        /* \"#utility.yul\":3534:3556   */\n      and\n        /* \"#utility.yul\":3523:3556   */\n      swap1\n      pop\n        /* \"#utility.yul\":3469:3562   */\n      swap2\n      swap1\n      pop\n      jump\t// out\n        /* \"#utility.yul\":3568:3683   */\n    tag_146:\n        /* \"#utility.yul\":3653:3676   */\n      tag_211\n        /* \"#utility.yul\":3670:3675   */\n      dup2\n        /* \"#utility.yul\":3653:3676   */\n      tag_145\n      jump\t// in\n    tag_211:\n        /* \"#utility.yul\":3648:3651   */\n      dup3\n        /* \"#utility.yul\":3641:3677   */\n      mstore\n        /* \"#utility.yul\":3568:3683   */\n      pop\n      pop\n      jump\t// out\n        /* \"#utility.yul\":3689:3907   */\n    tag_52:\n        /* \"#utility.yul\":3780:3784   */\n      0x00\n        /* \"#utility.yul\":3818:3820   */\n      0x20\n        /* \"#utility.yul\":3807:3816   */\n      dup3\n        /* \"#utility.yul\":3803:3821   */\n      add\n        /* \"#utility.yul\":3795:3821   */\n      swap1\n      pop\n        /* \"#utility.yul\":3831:3900   */\n      tag_213\n        /* \"#utility.yul\":3897:3898   */\n      0x00\n        /* \"#utility.yul\":3886:3895   */\n      dup4\n        /* \"#utility.yul\":3882:3899   */\n      add\n        /* \"#utility.yul\":3873:3879   */\n      dup5\n        /* \"#utility.yul\":3831:3900   */\n      tag_146\n      jump\t// in\n    tag_213:\n        /* \"#utility.yul\":3689:3907   */\n      swap3\n      swap2\n      pop\n      pop\n      jump\t// out\n        /* \"#utility.yul\":3913:4031   */\n    tag_147:\n        /* \"#utility.yul\":4000:4024   */\n      tag_215\n        /* \"#utility.yul\":4018:4023   */\n      dup2\n        /* \"#utility.yul\":4000:4024   */\n      tag_140\n      jump\t// in\n    tag_215:\n        /* \"#utility.yul\":3995:3998   */\n      dup3\n        /* \"#utility.yul\":3988:4025   */\n      mstore\n        /* \"#utility.yul\":3913:4031   */\n      pop\n      pop\n      jump\t// out\n        /* \"#utility.yul\":4037:4259   */\n    tag_57:\n        /* \"#utility.yul\":4130:4134   */\n      0x00\n        /* \"#utility.yul\":4168:4170   */\n      0x20\n        /* \"#utility.yul\":4157:4166   */\n      dup3\n        /* \"#utility.yul\":4153:4171   */\n      add\n        /* \"#utility.yul\":4145:4171   */\n      swap1\n      pop\n        /* \"#utility.yul\":4181:4252   */\n      tag_217\n        /* \"#utility.yul\":4249:4250   */\n      0x00\n        /* \"#utility.yul\":4238:4247   */\n      dup4\n        /* \"#utility.yul\":4234:4251   */\n      add\n        /* \"#utility.yul\":4225:4231   */\n      dup5\n        /* \"#utility.yul\":4181:4252   */\n      tag_147\n      jump\t// in\n    tag_217:\n        /* \"#utility.yul\":4037:4259   */\n      swap3\n      swap2\n      pop\n      pop\n      jump\t// out\n        /* \"#utility.yul\":4265:4434   */\n    tag_148:\n        /* \"#utility.yul\":4349:4360   */\n      0x00\n        /* \"#utility.yul\":4383:4389   */\n      dup3\n        /* \"#utility.yul\":4378:4381   */\n      dup3\n        /* \"#utility.yul\":4371:4390   */\n      mstore\n        /* \"#utility.yul\":4423:4427   */\n      0x20\n        /* \"#utility.yul\":4418:4421   */\n      dup3\n        /* \"#utility.yul\":4414:4428   */\n      add\n        /* \"#utility.yul\":4399:4428   */\n      swap1\n      pop\n        /* \"#utility.yul\":4265:4434   */\n      swap3\n      swap2\n      pop\n      pop\n      jump\t// out\n        /* \"#utility.yul\":4440:4601   */\n    tag_149:\n        /* \"#utility.yul\":4580:4593   */\n      0x6e6f742073746172746564000000000000000000000000000000000000000000\n        /* \"#utility.yul\":4576:4577   */\n      0x00\n        /* \"#utility.yul\":4568:4574   */\n      dup3\n        /* \"#utility.yul\":4564:4578   */\n      add\n        /* \"#utility.yul\":4557:4594   */\n      mstore\n        /* \"#utility.yul\":4440:4601   */\n      pop\n      jump\t// out\n        /* \"#utility.yul\":4607:4973   */\n    tag_150:\n        /* \"#utility.yul\":4749:4752   */\n      0x00\n        /* \"#utility.yul\":4770:4837   */\n      tag_221\n        /* \"#utility.yul\":4834:4836   */\n      0x0b\n        /* \"#utility.yul\":4829:4832   */\n      dup4\n        /* \"#utility.yul\":4770:4837   */\n      tag_148\n      jump\t// in\n    tag_221:\n        /* \"#utility.yul\":4763:4837   */\n      swap2\n      pop\n        /* \"#utility.yul\":4846:4939   */\n      tag_222\n        /* \"#utility.yul\":4935:4938   */\n      dup3\n        /* \"#utility.yul\":4846:4939   */\n      tag_149\n      jump\t// in\n    tag_222:\n        /* \"#utility.yul\":4964:4966   */\n      0x20\n        /* \"#utility.yul\":4959:4962   */\n      dup3\n        /* \"#utility.yul\":4955:4967   */\n      add\n        /* \"#utility.yul\":4948:4967   */\n      swap1\n      pop\n        /* \"#utility.yul\":4607:4973   */\n      swap2\n      swap1\n      pop\n      jump\t// out\n        /* \"#utility.yul\":4979:5398   */\n    tag_75:\n        /* \"#utility.yul\":5145:5149   */\n      0x00\n        /* \"#utility.yul\":5183:5185   */\n      0x20\n        /* \"#utility.yul\":5172:5181   */\n      dup3\n        /* \"#utility.yul\":5168:5186   */\n      add\n        /* \"#utility.yul\":5160:5186   */\n      swap1\n      pop\n        /* \"#utility.yul\":5232:5241   */\n      dup2\n        /* \"#utility.yul\":5226:5230   */\n      dup2\n        /* \"#utility.yul\":5222:5242   */\n      sub\n        /* \"#utility.yul\":5218:5219   */\n      0x00\n        /* \"#utility.yul\":5207:5216   */\n      dup4\n        /* \"#utility.yul\":5203:5220   */\n      add\n        /* \"#utility.yul\":5196:5243   */\n      mstore\n        /* \"#utility.yul\":5260:5391   */\n      tag_224\n        /* \"#utility.yul\":5386:5390   */\n      dup2\n        /* \"#utility.yul\":5260:5391   */\n      tag_150\n      jump\t// in\n    tag_224:\n        /* \"#utility.yul\":5252:5391   */\n      swap1\n      pop\n        /* \"#utility.yul\":4979:5398   */\n      swap2\n      swap1\n      pop\n      jump\t// out\n        /* \"#utility.yul\":5404:5559   */\n    tag_151:\n        /* \"#utility.yul\":5544:5551   */\n      0x656e646564000000000000000000000000000000000000000000000000000000\n        /* \"#utility.yul\":5540:5541   */\n      0x00\n        /* \"#utility.yul\":5532:5538   */\n      dup3\n        /* \"#utility.yul\":5528:5542   */\n      add\n        /* \"#utility.yul\":5521:5552   */\n      mstore\n        /* \"#utility.yul\":5404:5559   */\n      pop\n      jump\t// out\n        /* \"#utility.yul\":5565:5930   */\n    tag_152:\n        /* \"#utility.yul\":5707:5710   */\n      0x00\n        /* \"#utility.yul\":5728:5794   */\n      tag_227\n        /* \"#utility.yul\":5792:5793   */\n      0x05\n        /* \"#utility.yul\":5787:5790   */\n      dup4\n        /* \"#utility.yul\":5728:5794   */\n      tag_148\n      jump\t// in\n    tag_227:\n        /* \"#utility.yul\":5721:5794   */\n      swap2\n      pop\n        /* \"#utility.yul\":5803:5896   */\n      tag_228\n        /* \"#utility.yul\":5892:5895   */\n      dup3\n        /* \"#utility.yul\":5803:5896   */\n      tag_151\n      jump\t// in\n    tag_228:\n        /* \"#utility.yul\":5921:5923   */\n      0x20\n        /* \"#utility.yul\":5916:5919   */\n      dup3\n        /* \"#utility.yul\":5912:5924   */\n      add\n        /* \"#utility.yul\":5905:5924   */\n      swap1\n      pop\n        /* \"#utility.yul\":5565:5930   */\n      swap2\n      swap1\n      pop\n      jump\t// out\n        /* \"#utility.yul\":5936:6355   */\n    tag_78:\n        /* \"#utility.yul\":6102:6106   */\n      0x00\n        /* \"#utility.yul\":6140:6142   */\n      0x20\n        /* \"#utility.yul\":6129:6138   */\n      dup3\n        /* \"#utility.yul\":6125:6143   */\n      add\n        /* \"#utility.yul\":6117:6143   */\n      swap1\n      pop\n        /* \"#utility.yul\":6189:6198   */\n      dup2\n        /* \"#utility.yul\":6183:6187   */\n      dup2\n        /* \"#utility.yul\":6179:6199   */\n      sub\n        /* \"#utility.yul\":6175:6176   */\n      0x00\n        /* \"#utility.yul\":6164:6173   */\n      dup4\n        /* \"#utility.yul\":6160:6177   */\n      add\n        /* \"#utility.yul\":6153:6200   */\n      mstore\n        /* \"#utility.yul\":6217:6348   */\n      tag_230\n        /* \"#utility.yul\":6343:6347   */\n      dup2\n        /* \"#utility.yul\":6217:6348   */\n      tag_152\n      jump\t// in\n    tag_230:\n        /* \"#utility.yul\":6209:6348   */\n      swap1\n      pop\n        /* \"#utility.yul\":5936:6355   */\n      swap2\n      swap1\n      pop\n      jump\t// out\n        /* \"#utility.yul\":6361:6527   */\n    tag_153:\n        /* \"#utility.yul\":6501:6519   */\n      0x76616c75653c6869676865737442696400000000000000000000000000000000\n        /* \"#utility.yul\":6497:6498   */\n      0x00\n        /* \"#utility.yul\":6489:6495   */\n      dup3\n        /* \"#utility.yul\":6485:6499   */\n      add\n        /* \"#utility.yul\":6478:6520   */\n      mstore\n        /* \"#utility.yul\":6361:6527   */\n      pop\n      jump\t// out\n        /* \"#utility.yul\":6533:6899   */\n    tag_154:\n        /* \"#utility.yul\":6675:6678   */\n      0x00\n        /* \"#utility.yul\":6696:6763   */\n      tag_233\n        /* \"#utility.yul\":6760:6762   */\n      0x10\n        /* \"#utility.yul\":6755:6758   */\n      dup4\n        /* \"#utility.yul\":6696:6763   */\n      tag_148\n      jump\t// in\n    tag_233:\n        /* \"#utility.yul\":6689:6763   */\n      swap2\n      pop\n        /* \"#utility.yul\":6772:6865   */\n      tag_234\n        /* \"#utility.yul\":6861:6864   */\n      dup3\n        /* \"#utility.yul\":6772:6865   */\n      tag_153\n      jump\t// in\n    tag_234:\n        /* \"#utility.yul\":6890:6892   */\n      0x20\n        /* \"#utility.yul\":6885:6888   */\n      dup3\n        /* \"#utility.yul\":6881:6893   */\n      add\n        /* \"#utility.yul\":6874:6893   */\n      swap1\n      pop\n        /* \"#utility.yul\":6533:6899   */\n      swap2\n      swap1\n      pop\n      jump\t// out\n        /* \"#utility.yul\":6905:7324   */\n    tag_81:\n        /* \"#utility.yul\":7071:7075   */\n      0x00\n        /* \"#utility.yul\":7109:7111   */\n      0x20\n        /* \"#utility.yul\":7098:7107   */\n      dup3\n        /* \"#utility.yul\":7094:7112   */\n      add\n        /* \"#utility.yul\":7086:7112   */\n      swap1\n      pop\n        /* \"#utility.yul\":7158:7167   */\n      dup2\n        /* \"#utility.yul\":7152:7156   */\n      dup2\n        /* \"#utility.yul\":7148:7168   */\n      sub\n        /* \"#utility.yul\":7144:7145   */\n      0x00\n        /* \"#utility.yul\":7133:7142   */\n      dup4\n        /* \"#utility.yul\":7129:7146   */\n      add\n        /* \"#utility.yul\":7122:7169   */\n      mstore\n        /* \"#utility.yul\":7186:7317   */\n      tag_236\n        /* \"#utility.yul\":7312:7316   */\n      dup2\n        /* \"#utility.yul\":7186:7317   */\n      tag_154\n      jump\t// in\n    tag_236:\n        /* \"#utility.yul\":7178:7317   */\n      swap1\n      pop\n        /* \"#utility.yul\":6905:7324   */\n      swap2\n      swap1\n      pop\n      jump\t// out\n        /* \"#utility.yul\":7330:7510   */\n    tag_155:\n        /* \"#utility.yul\":7378:7455   */\n      0x4e487b7100000000000000000000000000000000000000000000000000000000\n        /* \"#utility.yul\":7375:7376   */\n      0x00\n        /* \"#utility.yul\":7368:7456   */\n      mstore\n        /* \"#utility.yul\":7475:7479   */\n      0x11\n        /* \"#utility.yul\":7472:7473   */\n      0x04\n        /* \"#utility.yul\":7465:7480   */\n      mstore\n        /* \"#utility.yul\":7499:7503   */\n      0x24\n        /* \"#utility.yul\":7496:7497   */\n      0x00\n        /* \"#utility.yul\":7489:7504   */\n      revert\n        /* \"#utility.yul\":7516:7707   */\n    tag_84:\n        /* \"#utility.yul\":7556:7559   */\n      0x00\n        /* \"#utility.yul\":7575:7595   */\n      tag_239\n        /* \"#utility.yul\":7593:7594   */\n      dup3\n        /* \"#utility.yul\":7575:7595   */\n      tag_143\n      jump\t// in\n    tag_239:\n        /* \"#utility.yul\":7570:7595   */\n      swap2\n      pop\n        /* \"#utility.yul\":7609:7629   */\n      tag_240\n        /* \"#utility.yul\":7627:7628   */\n      dup4\n        /* \"#utility.yul\":7609:7629   */\n      tag_143\n      jump\t// in\n    tag_240:\n        /* \"#utility.yul\":7604:7629   */\n      swap3\n      pop\n        /* \"#utility.yul\":7652:7653   */\n      dup3\n        /* \"#utility.yul\":7649:7650   */\n      dup3\n        /* \"#utility.yul\":7645:7654   */\n      add\n        /* \"#utility.yul\":7638:7654   */\n      swap1\n      pop\n        /* \"#utility.yul\":7673:7676   */\n      dup1\n        /* \"#utility.yul\":7670:7671   */\n      dup3\n        /* \"#utility.yul\":7667:7677   */\n      gt\n        /* \"#utility.yul\":7664:7700   */\n      iszero\n      tag_241\n      jumpi\n        /* \"#utility.yul\":7680:7698   */\n      tag_242\n      tag_155\n      jump\t// in\n    tag_242:\n        /* \"#utility.yul\":7664:7700   */\n    tag_241:\n        /* \"#utility.yul\":7516:7707   */\n      swap3\n      swap2\n      pop\n      pop\n      jump\t// out\n        /* \"#utility.yul\":7713:7873   */\n    tag_156:\n        /* \"#utility.yul\":7853:7865   */\n      0x6e6f742073656c6c657200000000000000000000000000000000000000000000\n        /* \"#utility.yul\":7849:7850   */\n      0x00\n        /* \"#utility.yul\":7841:7847   */\n      dup3\n        /* \"#utility.yul\":7837:7851   */\n      add\n        /* \"#utility.yul\":7830:7866   */\n      mstore\n        /* \"#utility.yul\":7713:7873   */\n      pop\n      jump\t// out\n        /* \"#utility.yul\":7879:8245   */\n    tag_157:\n        /* \"#utility.yul\":8021:8024   */\n      0x00\n        /* \"#utility.yul\":8042:8109   */\n      tag_245\n        /* \"#utility.yul\":8106:8108   */\n      0x0a\n        /* \"#utility.yul\":8101:8104   */\n      dup4\n        /* \"#utility.yul\":8042:8109   */\n      tag_148\n      jump\t// in\n    tag_245:\n        /* \"#utility.yul\":8035:8109   */\n      swap2\n      pop\n        /* \"#utility.yul\":8118:8211   */\n      tag_246\n        /* \"#utility.yul\":8207:8210   */\n      dup3\n        /* \"#utility.yul\":8118:8211   */\n      tag_156\n      jump\t// in\n    tag_246:\n        /* \"#utility.yul\":8236:8238   */\n      0x20\n        /* \"#utility.yul\":8231:8234   */\n      dup3\n        /* \"#utility.yul\":8227:8239   */\n      add\n        /* \"#utility.yul\":8220:8239   */\n      swap1\n      pop\n        /* \"#utility.yul\":7879:8245   */\n      swap2\n      swap1\n      pop\n      jump\t// out\n        /* \"#utility.yul\":8251:8670   */\n    tag_93:\n        /* \"#utility.yul\":8417:8421   */\n      0x00\n        /* \"#utility.yul\":8455:8457   */\n      0x20\n        /* \"#utility.yul\":8444:8453   */\n      dup3\n        /* \"#utility.yul\":8440:8458   */\n      add\n        /* \"#utility.yul\":8432:8458   */\n      swap1\n      pop\n        /* \"#utility.yul\":8504:8513   */\n      dup2\n        /* \"#utility.yul\":8498:8502   */\n      dup2\n        /* \"#utility.yul\":8494:8514   */\n      sub\n        /* \"#utility.yul\":8490:8491   */\n      0x00\n        /* \"#utility.yul\":8479:8488   */\n      dup4\n        /* \"#utility.yul\":8475:8492   */\n      add\n        /* \"#utility.yul\":8468:8515   */\n      mstore\n        /* \"#utility.yul\":8532:8663   */\n      tag_248\n        /* \"#utility.yul\":8658:8662   */\n      dup2\n        /* \"#utility.yul\":8532:8663   */\n      tag_157\n      jump\t// in\n    tag_248:\n        /* \"#utility.yul\":8524:8663   */\n      swap1\n      pop\n        /* \"#utility.yul\":8251:8670   */\n      swap2\n      swap1\n      pop\n      jump\t// out\n        /* \"#utility.yul\":8676:8833   */\n    tag_158:\n        /* \"#utility.yul\":8816:8825   */\n      0x7374617274656400000000000000000000000000000000000000000000000000\n        /* \"#utility.yul\":8812:8813   */\n      0x00\n        /* \"#utility.yul\":8804:8810   */\n      dup3\n        /* \"#utility.yul\":8800:8814   */\n      add\n        /* \"#utility.yul\":8793:8826   */\n      mstore\n        /* \"#utility.yul\":8676:8833   */\n      pop\n      jump\t// out\n        /* \"#utility.yul\":8839:9204   */\n    tag_159:\n        /* \"#utility.yul\":8981:8984   */\n      0x00\n        /* \"#utility.yul\":9002:9068   */\n      tag_251\n        /* \"#utility.yul\":9066:9067   */\n      0x07\n        /* \"#utility.yul\":9061:9064   */\n      dup4\n        /* \"#utility.yul\":9002:9068   */\n      tag_148\n      jump\t// in\n    tag_251:\n        /* \"#utility.yul\":8995:9068   */\n      swap2\n      pop\n        /* \"#utility.yul\":9077:9170   */\n      tag_252\n        /* \"#utility.yul\":9166:9169   */\n      dup3\n        /* \"#utility.yul\":9077:9170   */\n      tag_158\n      jump\t// in\n    tag_252:\n        /* \"#utility.yul\":9195:9197   */\n      0x20\n        /* \"#utility.yul\":9190:9193   */\n      dup3\n        /* \"#utility.yul\":9186:9198   */\n      add\n        /* \"#utility.yul\":9179:9198   */\n      swap1\n      pop\n        /* \"#utility.yul\":8839:9204   */\n      swap2\n      swap1\n      pop\n      jump\t// out\n        /* \"#utility.yul\":9210:9629   */\n    tag_96:\n        /* \"#utility.yul\":9376:9380   */\n      0x00\n        /* \"#utility.yul\":9414:9416   */\n      0x20\n        /* \"#utility.yul\":9403:9412   */\n      dup3\n        /* \"#utility.yul\":9399:9417   */\n      add\n        /* \"#utility.yul\":9391:9417   */\n      swap1\n      pop\n        /* \"#utility.yul\":9463:9472   */\n      dup2\n        /* \"#utility.yul\":9457:9461   */\n      dup2\n        /* \"#utility.yul\":9453:9473   */\n      sub\n        /* \"#utility.yul\":9449:9450   */\n      0x00\n        /* \"#utility.yul\":9438:9447   */\n      dup4\n        /* \"#utility.yul\":9434:9451   */\n      add\n        /* \"#utility.yul\":9427:9474   */\n      mstore\n        /* \"#utility.yul\":9491:9622   */\n      tag_254\n        /* \"#utility.yul\":9617:9621   */\n      dup2\n        /* \"#utility.yul\":9491:9622   */\n      tag_159\n      jump\t// in\n    tag_254:\n        /* \"#utility.yul\":9483:9622   */\n      swap1\n      pop\n        /* \"#utility.yul\":9210:9629   */\n      swap2\n      swap1\n      pop\n      jump\t// out\n        /* \"#utility.yul\":9635:9769   */\n    tag_160:\n        /* \"#utility.yul\":9693:9702   */\n      0x00\n        /* \"#utility.yul\":9726:9763   */\n      tag_256\n        /* \"#utility.yul\":9757:9762   */\n      dup3\n        /* \"#utility.yul\":9726:9763   */\n      tag_134\n      jump\t// in\n    tag_256:\n        /* \"#utility.yul\":9713:9763   */\n      swap1\n      pop\n        /* \"#utility.yul\":9635:9769   */\n      swap2\n      swap1\n      pop\n      jump\t// out\n        /* \"#utility.yul\":9775:9922   */\n    tag_161:\n        /* \"#utility.yul\":9870:9915   */\n      tag_258\n        /* \"#utility.yul\":9909:9914   */\n      dup2\n        /* \"#utility.yul\":9870:9915   */\n      tag_160\n      jump\t// in\n    tag_258:\n        /* \"#utility.yul\":9865:9868   */\n      dup3\n        /* \"#utility.yul\":9858:9916   */\n      mstore\n        /* \"#utility.yul\":9775:9922   */\n      pop\n      pop\n      jump\t// out\n        /* \"#utility.yul\":9928:10386   */\n    tag_99:\n        /* \"#utility.yul\":10085:10089   */\n      0x00\n        /* \"#utility.yul\":10123:10125   */\n      0x60\n        /* \"#utility.yul\":10112:10121   */\n      dup3\n        /* \"#utility.yul\":10108:10126   */\n      add\n        /* \"#utility.yul\":10100:10126   */\n      swap1\n      pop\n        /* \"#utility.yul\":10136:10215   */\n      tag_260\n        /* \"#utility.yul\":10212:10213   */\n      0x00\n        /* \"#utility.yul\":10201:10210   */\n      dup4\n        /* \"#utility.yul\":10197:10214   */\n      add\n        /* \"#utility.yul\":10188:10194   */\n      dup7\n        /* \"#utility.yul\":10136:10215   */\n      tag_161\n      jump\t// in\n    tag_260:\n        /* \"#utility.yul\":10225:10297   */\n      tag_261\n        /* \"#utility.yul\":10293:10295   */\n      0x20\n        /* \"#utility.yul\":10282:10291   */\n      dup4\n        /* \"#utility.yul\":10278:10296   */\n      add\n        /* \"#utility.yul\":10269:10275   */\n      dup6\n        /* \"#utility.yul\":10225:10297   */\n      tag_147\n      jump\t// in\n    tag_261:\n        /* \"#utility.yul\":10307:10379   */\n      tag_262\n        /* \"#utility.yul\":10375:10377   */\n      0x40\n        /* \"#utility.yul\":10364:10373   */\n      dup4\n        /* \"#utility.yul\":10360:10378   */\n      add\n        /* \"#utility.yul\":10351:10357   */\n      dup5\n        /* \"#utility.yul\":10307:10379   */\n      tag_144\n      jump\t// in\n    tag_262:\n        /* \"#utility.yul\":9928:10386   */\n      swap5\n      swap4\n      pop\n      pop\n      pop\n      pop\n      jump\t// out\n        /* \"#utility.yul\":10392:10551   */\n    tag_162:\n        /* \"#utility.yul\":10532:10543   */\n      0x6e6f7420656e6465640000000000000000000000000000000000000000000000\n        /* \"#utility.yul\":10528:10529   */\n      0x00\n        /* \"#utility.yul\":10520:10526   */\n      dup3\n        /* \"#utility.yul\":10516:10530   */\n      add\n        /* \"#utility.yul\":10509:10544   */\n      mstore\n        /* \"#utility.yul\":10392:10551   */\n      pop\n      jump\t// out\n        /* \"#utility.yul\":10557:10922   */\n    tag_163:\n        /* \"#utility.yul\":10699:10702   */\n      0x00\n        /* \"#utility.yul\":10720:10786   */\n      tag_265\n        /* \"#utility.yul\":10784:10785   */\n      0x09\n        /* \"#utility.yul\":10779:10782   */\n      dup4\n        /* \"#utility.yul\":10720:10786   */\n      tag_148\n      jump\t// in\n    tag_265:\n        /* \"#utility.yul\":10713:10786   */\n      swap2\n      pop\n        /* \"#utility.yul\":10795:10888   */\n      tag_266\n        /* \"#utility.yul\":10884:10887   */\n      dup3\n        /* \"#utility.yul\":10795:10888   */\n      tag_162\n      jump\t// in\n    tag_266:\n        /* \"#utility.yul\":10913:10915   */\n      0x20\n        /* \"#utility.yul\":10908:10911   */\n      dup3\n        /* \"#utility.yul\":10904:10916   */\n      add\n        /* \"#utility.yul\":10897:10916   */\n      swap1\n      pop\n        /* \"#utility.yul\":10557:10922   */\n      swap2\n      swap1\n      pop\n      jump\t// out\n        /* \"#utility.yul\":10928:11347   */\n    tag_110:\n        /* \"#utility.yul\":11094:11098   */\n      0x00\n        /* \"#utility.yul\":11132:11134   */\n      0x20\n        /* \"#utility.yul\":11121:11130   */\n      dup3\n        /* \"#utility.yul\":11117:11135   */\n      add\n        /* \"#utility.yul\":11109:11135   */\n      swap1\n      pop\n        /* \"#utility.yul\":11181:11190   */\n      dup2\n        /* \"#utility.yul\":11175:11179   */\n      dup2\n        /* \"#utility.yul\":11171:11191   */\n      sub\n        /* \"#utility.yul\":11167:11168   */\n      0x00\n        /* \"#utility.yul\":11156:11165   */\n      dup4\n        /* \"#utility.yul\":11152:11169   */\n      add\n        /* \"#utility.yul\":11145:11192   */\n      mstore\n        /* \"#utility.yul\":11209:11340   */\n      tag_268\n        /* \"#utility.yul\":11335:11339   */\n      dup2\n        /* \"#utility.yul\":11209:11340   */\n      tag_163\n      jump\t// in\n    tag_268:\n        /* \"#utility.yul\":11201:11340   */\n      swap1\n      pop\n        /* \"#utility.yul\":10928:11347   */\n      swap2\n      swap1\n      pop\n      jump\t// out\n        /* \"#utility.yul\":11353:11795   */\n    tag_113:\n        /* \"#utility.yul\":11502:11506   */\n      0x00\n        /* \"#utility.yul\":11540:11542   */\n      0x60\n        /* \"#utility.yul\":11529:11538   */\n      dup3\n        /* \"#utility.yul\":11525:11543   */\n      add\n        /* \"#utility.yul\":11517:11543   */\n      swap1\n      pop\n        /* \"#utility.yul\":11553:11624   */\n      tag_270\n        /* \"#utility.yul\":11621:11622   */\n      0x00\n        /* \"#utility.yul\":11610:11619   */\n      dup4\n        /* \"#utility.yul\":11606:11623   */\n      add\n        /* \"#utility.yul\":11597:11603   */\n      dup7\n        /* \"#utility.yul\":11553:11624   */\n      tag_147\n      jump\t// in\n    tag_270:\n        /* \"#utility.yul\":11634:11706   */\n      tag_271\n        /* \"#utility.yul\":11702:11704   */\n      0x20\n        /* \"#utility.yul\":11691:11700   */\n      dup4\n        /* \"#utility.yul\":11687:11705   */\n      add\n        /* \"#utility.yul\":11678:11684   */\n      dup6\n        /* \"#utility.yul\":11634:11706   */\n      tag_147\n      jump\t// in\n    tag_271:\n        /* \"#utility.yul\":11716:11788   */\n      tag_272\n        /* \"#utility.yul\":11784:11786   */\n      0x40\n        /* \"#utility.yul\":11773:11782   */\n      dup4\n        /* \"#utility.yul\":11769:11787   */\n      add\n        /* \"#utility.yul\":11760:11766   */\n      dup5\n        /* \"#utility.yul\":11716:11788   */\n      tag_144\n      jump\t// in\n    tag_272:\n        /* \"#utility.yul\":11353:11795   */\n      swap5\n      swap4\n      pop\n      pop\n      pop\n      pop\n      jump\t// out\n        /* \"#utility.yul\":11801:12259   */\n    tag_121:\n        /* \"#utility.yul\":11958:11962   */\n      0x00\n        /* \"#utility.yul\":11996:11998   */\n      0x60\n        /* \"#utility.yul\":11985:11994   */\n      dup3\n        /* \"#utility.yul\":11981:11999   */\n      add\n        /* \"#utility.yul\":11973:11999   */\n      swap1\n      pop\n        /* \"#utility.yul\":12009:12080   */\n      tag_274\n        /* \"#utility.yul\":12077:12078   */\n      0x00\n        /* \"#utility.yul\":12066:12075   */\n      dup4\n        /* \"#utility.yul\":12062:12079   */\n      add\n        /* \"#utility.yul\":12053:12059   */\n      dup7\n        /* \"#utility.yul\":12009:12080   */\n      tag_147\n      jump\t// in\n    tag_274:\n        /* \"#utility.yul\":12090:12170   */\n      tag_275\n        /* \"#utility.yul\":12166:12168   */\n      0x20\n        /* \"#utility.yul\":12155:12164   */\n      dup4\n        /* \"#utility.yul\":12151:12169   */\n      add\n        /* \"#utility.yul\":12142:12148   */\n      dup6\n        /* \"#utility.yul\":12090:12170   */\n      tag_161\n      jump\t// in\n    tag_275:\n        /* \"#utility.yul\":12180:12252   */\n      tag_276\n        /* \"#utility.yul\":12248:12250   */\n      0x40\n        /* \"#utility.yul\":12237:12246   */\n      dup4\n        /* \"#utility.yul\":12233:12251   */\n      add\n        /* \"#utility.yul\":12224:12230   */\n      dup5\n        /* \"#utility.yul\":12180:12252   */\n      tag_144\n      jump\t// in\n    tag_276:\n        /* \"#utility.yul\":11801:12259   */\n      swap5\n      swap4\n      pop\n      pop\n      pop\n      pop\n      jump\t// out\n        /* \"#utility.yul\":12265:12597   */\n    tag_126:\n        /* \"#utility.yul\":12386:12390   */\n      0x00\n        /* \"#utility.yul\":12424:12426   */\n      0x40\n        /* \"#utility.yul\":12413:12422   */\n      dup3\n        /* \"#utility.yul\":12409:12427   */\n      add\n        /* \"#utility.yul\":12401:12427   */\n      swap1\n      pop\n        /* \"#utility.yul\":12437:12508   */\n      tag_278\n        /* \"#utility.yul\":12505:12506   */\n      0x00\n        /* \"#utility.yul\":12494:12503   */\n      dup4\n        /* \"#utility.yul\":12490:12507   */\n      add\n        /* \"#utility.yul\":12481:12487   */\n      dup6\n        /* \"#utility.yul\":12437:12508   */\n      tag_147\n      jump\t// in\n    tag_278:\n        /* \"#utility.yul\":12518:12590   */\n      tag_279\n        /* \"#utility.yul\":12586:12588   */\n      0x20\n        /* \"#utility.yul\":12575:12584   */\n      dup4\n        /* \"#utility.yul\":12571:12589   */\n      add\n        /* \"#utility.yul\":12562:12568   */\n      dup5\n        /* \"#utility.yul\":12518:12590   */\n      tag_144\n      jump\t// in\n    tag_279:\n        /* \"#utility.yul\":12265:12597   */\n      swap4\n      swap3\n      pop\n      pop\n      pop\n      jump\t// out\n\n    auxdata: 0xa2646970667358221220ffdc3bbca94aff370544b3830c3d6bd8f2e65d69c4afc2edcd70a45ccc035d7064736f6c63430008170033\n}\n",
				"bytecode": {
					"linkReferences": {},
					"object": "60e060405234801562000010575f80fd5b50604051620014d1380380620014d1833981810160405281019062000036919062000153565b8273ffffffffffffffffffffffffffffffffffffffff1660808173ffffffffffffffffffffffffffffffffffffffff16815250508160a081815250503373ffffffffffffffffffffffffffffffffffffffff1660c08173ffffffffffffffffffffffffffffffffffffffff168152505080600181905550505050620001ac565b5f80fd5b5f73ffffffffffffffffffffffffffffffffffffffff82169050919050565b5f620000e582620000ba565b9050919050565b620000f781620000d9565b811462000102575f80fd5b50565b5f815190506200011581620000ec565b92915050565b5f819050919050565b6200012f816200011b565b81146200013a575f80fd5b50565b5f815190506200014d8162000124565b92915050565b5f805f606084860312156200016d576200016c620000b6565b5b5f6200017c8682870162000105565b93505060206200018f868287016200013d565b9250506040620001a2868287016200013d565b9150509250925092565b60805160a05160c0516112b46200021d5f395f818161029f015281816106bb0152818161081901528181610b2d0152610bd501525f818161083b015281816108d501528181610ac10152610bf601525f818161064a015281816107dd01528181610a620152610b9801526112b45ff3fe6080604052600436106100c1575f3560e01c806362ea82db1161007e578063be9a655511610058578063be9a65551461021d578063c6bc518214610233578063d57bde791461025d578063efbe1c1c14610287576100c1565b806362ea82db1461018d5780637cc3ae8c146101c957806391f90157146101f3576100c1565b806308551a53146100c557806312fa6feb146100ef5780631998aeef146101195780631f2698ab146101235780633ccfd60b1461014d57806347ccca0214610163575b5f80fd5b3480156100d0575f80fd5b506100d961029d565b6040516100e69190610cfe565b60405180910390f35b3480156100fa575f80fd5b506101036102c1565b6040516101109190610d31565b60405180910390f35b6101216102d3565b005b34801561012e575f80fd5b5061013761051e565b6040516101449190610d31565b60405180910390f35b348015610158575f80fd5b50610161610530565b005b34801561016e575f80fd5b50610177610648565b6040516101849190610da5565b60405180910390f35b348015610198575f80fd5b506101b360048036038101906101ae9190610dfd565b61066c565b6040516101c09190610e40565b60405180910390f35b3480156101d4575f80fd5b506101dd610681565b6040516101ea9190610e77565b60405180910390f35b3480156101fe575f80fd5b50610207610694565b6040516102149190610e9f565b60405180910390f35b348015610228575f80fd5b506102316106b9565b005b34801561023e575f80fd5b506102476108d3565b6040516102549190610e40565b60405180910390f35b348015610268575f80fd5b506102716108f7565b60405161027e9190610e40565b60405180910390f35b348015610292575f80fd5b5061029b6108fd565b005b7f000000000000000000000000000000000000000000000000000000000000000081565b5f60059054906101000a900460ff1681565b5f60049054906101000a900460ff16610321576040517f08c379a000000000000000000000000000000000000000000000000000000000815260040161031890610f12565b60405180910390fd5b5f8054906101000a900463ffffffff1663ffffffff164210610378576040517f08c379a000000000000000000000000000000000000000000000000000000000815260040161036f90610f7a565b60405180910390fd5b60015434116103bc576040517f08c379a00000000000000000000000000000000000000000000000000000000081526004016103b390610fe2565b60405180910390fd5b5f73ffffffffffffffffffffffffffffffffffffffff165f60069054906101000a900473ffffffffffffffffffffffffffffffffffffffff1673ffffffffffffffffffffffffffffffffffffffff16146104875760015460025f8060069054906101000a900473ffffffffffffffffffffffffffffffffffffffff1673ffffffffffffffffffffffffffffffffffffffff1673ffffffffffffffffffffffffffffffffffffffff1681526020019081526020015f205f82825461047f919061102d565b925050819055505b34600181905550335f60066101000a81548173ffffffffffffffffffffffffffffffffffffffff021916908373ffffffffffffffffffffffffffffffffffffffff1602179055503373ffffffffffffffffffffffffffffffffffffffff167fe684a55f31b79eca403df938249029212a5925ec6be8012e099b45bc1019e5d2346040516105149190610e40565b60405180910390a2565b5f60049054906101000a900460ff1681565b5f60025f3373ffffffffffffffffffffffffffffffffffffffff1673ffffffffffffffffffffffffffffffffffffffff1681526020019081526020015f205490505f60025f3373ffffffffffffffffffffffffffffffffffffffff1673ffffffffffffffffffffffffffffffffffffffff1681526020019081526020015f20819055503373ffffffffffffffffffffffffffffffffffffffff166108fc8290811502906040515f60405180830381858888f193505050501580156105f6573d5f803e3d5ffd5b503373ffffffffffffffffffffffffffffffffffffffff167f884edad9ce6fa2440d8a54cc123490eb96d2768479d49ff9c7366125a94243648260405161063d9190610e40565b60405180910390a250565b7f000000000000000000000000000000000000000000000000000000000000000081565b6002602052805f5260405f205f915090505481565b5f8054906101000a900463ffffffff1681565b5f60069054906101000a900473ffffffffffffffffffffffffffffffffffffffff1681565b7f000000000000000000000000000000000000000000000000000000000000000073ffffffffffffffffffffffffffffffffffffffff163373ffffffffffffffffffffffffffffffffffffffff1614610747576040517f08c379a000000000000000000000000000000000000000000000000000000000815260040161073e906110aa565b60405180910390fd5b5f60049054906101000a900460ff1615610796576040517f08c379a000000000000000000000000000000000000000000000000000000000815260040161078d90611112565b60405180910390fd5b60015f60046101000a81548160ff02191690831515021790555060b4426107bd919061102d565b5f806101000a81548163ffffffff021916908363ffffffff1602179055507f000000000000000000000000000000000000000000000000000000000000000073ffffffffffffffffffffffffffffffffffffffff166323b872dd7f0000000000000000000000000000000000000000000000000000000000000000307f00000000000000000000000000000000000000000000000000000000000000006040518463ffffffff1660e01b815260040161087893929190611150565b5f604051808303815f87803b15801561088f575f80fd5b505af11580156108a1573d5f803e3d5ffd5b505050507f1b55ba3aa851a46be3b365aee5b5c140edd620d578922f3e8466d2cbd96f954b60405160405180910390a1565b7f000000000000000000000000000000000000000000000000000000000000000081565b60015481565b5f60049054906101000a900460ff1661094b576040517f08c379a000000000000000000000000000000000000000000000000000000000815260040161094290610f12565b60405180910390fd5b5f60059054906101000a900460ff161561099a576040517f08c379a000000000000000000000000000000000000000000000000000000000815260040161099190610f7a565b60405180910390fd5b5f8054906101000a900463ffffffff1663ffffffff164210156109f2576040517f08c379a00000000000000000000000000000000000000000000000000000000081526004016109e9906111cf565b60405180910390fd5b60015f60056101000a81548160ff0219169083151502179055505f73ffffffffffffffffffffffffffffffffffffffff165f60069054906101000a900473ffffffffffffffffffffffffffffffffffffffff1673ffffffffffffffffffffffffffffffffffffffff1614610b96577f000000000000000000000000000000000000000000000000000000000000000073ffffffffffffffffffffffffffffffffffffffff166323b872dd305f60069054906101000a900473ffffffffffffffffffffffffffffffffffffffff167f00000000000000000000000000000000000000000000000000000000000000006040518463ffffffff1660e01b8152600401610afe939291906111ed565b5f604051808303815f87803b158015610b15575f80fd5b505af1158015610b27573d5f803e3d5ffd5b505050507f000000000000000000000000000000000000000000000000000000000000000073ffffffffffffffffffffffffffffffffffffffff166108fc60015490811502906040515f60405180830381858888f19350505050158015610b90573d5f803e3d5ffd5b50610c61565b7f000000000000000000000000000000000000000000000000000000000000000073ffffffffffffffffffffffffffffffffffffffff166323b872dd307f00000000000000000000000000000000000000000000000000000000000000007f00000000000000000000000000000000000000000000000000000000000000006040518463ffffffff1660e01b8152600401610c3393929190611222565b5f604051808303815f87803b158015610c4a575f80fd5b505af1158015610c5c573d5f803e3d5ffd5b505050505b7f7d7570b046e5ead3a4f3fbc9fa2445113625a1e79823776146316bafed6b8cc55f60069054906101000a900473ffffffffffffffffffffffffffffffffffffffff16600154604051610cb5929190611257565b60405180910390a1565b5f73ffffffffffffffffffffffffffffffffffffffff82169050919050565b5f610ce882610cbf565b9050919050565b610cf881610cde565b82525050565b5f602082019050610d115f830184610cef565b92915050565b5f8115159050919050565b610d2b81610d17565b82525050565b5f602082019050610d445f830184610d22565b92915050565b5f819050919050565b5f610d6d610d68610d6384610cbf565b610d4a565b610cbf565b9050919050565b5f610d7e82610d53565b9050919050565b5f610d8f82610d74565b9050919050565b610d9f81610d85565b82525050565b5f602082019050610db85f830184610d96565b92915050565b5f80fd5b5f610dcc82610cbf565b9050919050565b610ddc81610dc2565b8114610de6575f80fd5b50565b5f81359050610df781610dd3565b92915050565b5f60208284031215610e1257610e11610dbe565b5b5f610e1f84828501610de9565b91505092915050565b5f819050919050565b610e3a81610e28565b82525050565b5f602082019050610e535f830184610e31565b92915050565b5f63ffffffff82169050919050565b610e7181610e59565b82525050565b5f602082019050610e8a5f830184610e68565b92915050565b610e9981610dc2565b82525050565b5f602082019050610eb25f830184610e90565b92915050565b5f82825260208201905092915050565b7f6e6f7420737461727465640000000000000000000000000000000000000000005f82015250565b5f610efc600b83610eb8565b9150610f0782610ec8565b602082019050919050565b5f6020820190508181035f830152610f2981610ef0565b9050919050565b7f656e6465640000000000000000000000000000000000000000000000000000005f82015250565b5f610f64600583610eb8565b9150610f6f82610f30565b602082019050919050565b5f6020820190508181035f830152610f9181610f58565b9050919050565b7f76616c75653c68696768657374426964000000000000000000000000000000005f82015250565b5f610fcc601083610eb8565b9150610fd782610f98565b602082019050919050565b5f6020820190508181035f830152610ff981610fc0565b9050919050565b7f4e487b71000000000000000000000000000000000000000000000000000000005f52601160045260245ffd5b5f61103782610e28565b915061104283610e28565b925082820190508082111561105a57611059611000565b5b92915050565b7f6e6f742073656c6c6572000000000000000000000000000000000000000000005f82015250565b5f611094600a83610eb8565b915061109f82611060565b602082019050919050565b5f6020820190508181035f8301526110c181611088565b9050919050565b7f73746172746564000000000000000000000000000000000000000000000000005f82015250565b5f6110fc600783610eb8565b9150611107826110c8565b602082019050919050565b5f6020820190508181035f830152611129816110f0565b9050919050565b5f61113a82610d74565b9050919050565b61114a81611130565b82525050565b5f6060820190506111635f830186611141565b6111706020830185610e90565b61117d6040830184610e31565b949350505050565b7f6e6f7420656e64656400000000000000000000000000000000000000000000005f82015250565b5f6111b9600983610eb8565b91506111c482611185565b602082019050919050565b5f6020820190508181035f8301526111e6816111ad565b9050919050565b5f6060820190506112005f830186610e90565b61120d6020830185610e90565b61121a6040830184610e31565b949350505050565b5f6060820190506112355f830186610e90565b6112426020830185611141565b61124f6040830184610e31565b949350505050565b5f60408201905061126a5f830185610e90565b6112776020830184610e31565b939250505056fea2646970667358221220ffdc3bbca94aff370544b3830c3d6bd8f2e65d69c4afc2edcd70a45ccc035d7064736f6c63430008170033",
					"opcodes": "PUSH1 0xE0 PUSH1 0x40 MSTORE CALLVALUE DUP1 ISZERO PUSH3 0x10 JUMPI PUSH0 DUP1 REVERT JUMPDEST POP PUSH1 0x40 MLOAD PUSH3 0x14D1 CODESIZE SUB DUP1 PUSH3 0x14D1 DUP4 CODECOPY DUP2 DUP2 ADD PUSH1 0x40 MSTORE DUP2 ADD SWAP1 PUSH3 0x36 SWAP2 SWAP1 PUSH3 0x153 JUMP JUMPDEST DUP3 PUSH20 0xFFFFFFFFFFFFFFFFFFFFFFFFFFFFFFFFFFFFFFFF AND PUSH1 0x80 DUP2 PUSH20 0xFFFFFFFFFFFFFFFFFFFFFFFFFFFFFFFFFFFFFFFF AND DUP2 MSTORE POP POP DUP2 PUSH1 0xA0 DUP2 DUP2 MSTORE POP POP CALLER PUSH20 0xFFFFFFFFFFFFFFFFFFFFFFFFFFFFFFFFFFFFFFFF AND PUSH1 0xC0 DUP2 PUSH20 0xFFFFFFFFFFFFFFFFFFFFFFFFFFFFFFFFFFFFFFFF AND DUP2 MSTORE POP POP DUP1 PUSH1 0x1 DUP2 SWAP1 SSTORE POP POP POP POP PUSH3 0x1AC JUMP JUMPDEST PUSH0 DUP1 REVERT JUMPDEST PUSH0 PUSH20 0xFFFFFFFFFFFFFFFFFFFFFFFFFFFFFFFFFFFFFFFF DUP3 AND SWAP1 POP SWAP2 SWAP1 POP JUMP JUMPDEST PUSH0 PUSH3 0xE5 DUP3 PUSH3 0xBA JUMP JUMPDEST SWAP1 POP SWAP2 SWAP1 POP JUMP JUMPDEST PUSH3 0xF7 DUP2 PUSH3 0xD9 JUMP JUMPDEST DUP2 EQ PUSH3 0x102 JUMPI PUSH0 DUP1 REVERT JUMPDEST POP JUMP JUMPDEST PUSH0 DUP2 MLOAD SWAP1 POP PUSH3 0x115 DUP2 PUSH3 0xEC JUMP JUMPDEST SWAP3 SWAP2 POP POP JUMP JUMPDEST PUSH0 DUP2 SWAP1 POP SWAP2 SWAP1 POP JUMP JUMPDEST PUSH3 0x12F DUP2 PUSH3 0x11B JUMP JUMPDEST DUP2 EQ PUSH3 0x13A JUMPI PUSH0 DUP1 REVERT JUMPDEST POP JUMP JUMPDEST PUSH0 DUP2 MLOAD SWAP1 POP PUSH3 0x14D DUP2 PUSH3 0x124 JUMP JUMPDEST SWAP3 SWAP2 POP POP JUMP JUMPDEST PUSH0 DUP1 PUSH0 PUSH1 0x60 DUP5 DUP7 SUB SLT ISZERO PUSH3 0x16D JUMPI PUSH3 0x16C PUSH3 0xB6 JUMP JUMPDEST JUMPDEST PUSH0 PUSH3 0x17C DUP7 DUP3 DUP8 ADD PUSH3 0x105 JUMP JUMPDEST SWAP4 POP POP PUSH1 0x20 PUSH3 0x18F DUP7 DUP3 DUP8 ADD PUSH3 0x13D JUMP JUMPDEST SWAP3 POP POP PUSH1 0x40 PUSH3 0x1A2 DUP7 DUP3 DUP8 ADD PUSH3 0x13D JUMP JUMPDEST SWAP2 POP POP SWAP3 POP SWAP3 POP SWAP3 JUMP JUMPDEST PUSH1 0x80 MLOAD PUSH1 0xA0 MLOAD PUSH1 0xC0 MLOAD PUSH2 0x12B4 PUSH3 0x21D PUSH0 CODECOPY PUSH0 DUP2 DUP2 PUSH2 0x29F ADD MSTORE DUP2 DUP2 PUSH2 0x6BB ADD MSTORE DUP2 DUP2 PUSH2 0x819 ADD MSTORE DUP2 DUP2 PUSH2 0xB2D ADD MSTORE PUSH2 0xBD5 ADD MSTORE PUSH0 DUP2 DUP2 PUSH2 0x83B ADD MSTORE DUP2 DUP2 PUSH2 0x8D5 ADD MSTORE DUP2 DUP2 PUSH2 0xAC1 ADD MSTORE PUSH2 0xBF6 ADD MSTORE PUSH0 DUP2 DUP2 PUSH2 0x64A ADD MSTORE DUP2 DUP2 PUSH2 0x7DD ADD MSTORE DUP2 DUP2 PUSH2 0xA62 ADD MSTORE PUSH2 0xB98 ADD MSTORE PUSH2 0x12B4 PUSH0 RETURN INVALID PUSH1 0x80 PUSH1 0x40 MSTORE PUSH1 0x4 CALLDATASIZE LT PUSH2 0xC1 JUMPI PUSH0 CALLDATALOAD PUSH1 0xE0 SHR DUP1 PUSH4 0x62EA82DB GT PUSH2 0x7E JUMPI DUP1 PUSH4 0xBE9A6555 GT PUSH2 0x58 JUMPI DUP1 PUSH4 0xBE9A6555 EQ PUSH2 0x21D JUMPI DUP1 PUSH4 0xC6BC5182 EQ PUSH2 0x233 JUMPI DUP1 PUSH4 0xD57BDE79 EQ PUSH2 0x25D JUMPI DUP1 PUSH4 0xEFBE1C1C EQ PUSH2 0x287 JUMPI PUSH2 0xC1 JUMP JUMPDEST DUP1 PUSH4 0x62EA82DB EQ PUSH2 0x18D JUMPI DUP1 PUSH4 0x7CC3AE8C EQ PUSH2 0x1C9 JUMPI DUP1 PUSH4 0x91F90157 EQ PUSH2 0x1F3 JUMPI PUSH2 0xC1 JUMP JUMPDEST DUP1 PUSH4 0x8551A53 EQ PUSH2 0xC5 JUMPI DUP1 PUSH4 0x12FA6FEB EQ PUSH2 0xEF JUMPI DUP1 PUSH4 0x1998AEEF EQ PUSH2 0x119 JUMPI DUP1 PUSH4 0x1F2698AB EQ PUSH2 0x123 JUMPI DUP1 PUSH4 0x3CCFD60B EQ PUSH2 0x14D JUMPI DUP1 PUSH4 0x47CCCA02 EQ PUSH2 0x163 JUMPI JUMPDEST PUSH0 DUP1 REVERT JUMPDEST CALLVALUE DUP1 ISZERO PUSH2 0xD0 JUMPI PUSH0 DUP1 REVERT JUMPDEST POP PUSH2 0xD9 PUSH2 0x29D JUMP JUMPDEST PUSH1 0x40 MLOAD PUSH2 0xE6 SWAP2 SWAP1 PUSH2 0xCFE JUMP JUMPDEST PUSH1 0x40 MLOAD DUP1 SWAP2 SUB SWAP1 RETURN JUMPDEST CALLVALUE DUP1 ISZERO PUSH2 0xFA JUMPI PUSH0 DUP1 REVERT JUMPDEST POP PUSH2 0x103 PUSH2 0x2C1 JUMP JUMPDEST PUSH1 0x40 MLOAD PUSH2 0x110 SWAP2 SWAP1 PUSH2 0xD31 JUMP JUMPDEST PUSH1 0x40 MLOAD DUP1 SWAP2 SUB SWAP1 RETURN JUMPDEST PUSH2 0x121 PUSH2 0x2D3 JUMP JUMPDEST STOP JUMPDEST CALLVALUE DUP1 ISZERO PUSH2 0x12E JUMPI PUSH0 DUP1 REVERT JUMPDEST POP PUSH2 0x137 PUSH2 0x51E JUMP JUMPDEST PUSH1 0x40 MLOAD PUSH2 0x144 SWAP2 SWAP1 PUSH2 0xD31 JUMP JUMPDEST PUSH1 0x40 MLOAD DUP1 SWAP2 SUB SWAP1 RETURN JUMPDEST CALLVALUE DUP1 ISZERO PUSH2 0x158 JUMPI PUSH0 DUP1 REVERT JUMPDEST POP PUSH2 0x161 PUSH2 0x530 JUMP JUMPDEST STOP JUMPDEST CALLVALUE DUP1 ISZERO PUSH2 0x16E JUMPI PUSH0 DUP1 REVERT JUMPDEST POP PUSH2 0x177 PUSH2 0x648 JUMP JUMPDEST PUSH1 0x40 MLOAD PUSH2 0x184 SWAP2 SWAP1 PUSH2 0xDA5 JUMP JUMPDEST PUSH1 0x40 MLOAD DUP1 SWAP2 SUB SWAP1 RETURN JUMPDEST CALLVALUE DUP1 ISZERO PUSH2 0x198 JUMPI PUSH0 DUP1 REVERT JUMPDEST POP PUSH2 0x1B3 PUSH1 0x4 DUP1 CALLDATASIZE SUB DUP2 ADD SWAP1 PUSH2 0x1AE SWAP2 SWAP1 PUSH2 0xDFD JUMP JUMPDEST PUSH2 0x66C JUMP JUMPDEST PUSH1 0x40 MLOAD PUSH2 0x1C0 SWAP2 SWAP1 PUSH2 0xE40 JUMP JUMPDEST PUSH1 0x40 MLOAD DUP1 SWAP2 SUB SWAP1 RETURN JUMPDEST CALLVALUE DUP1 ISZERO PUSH2 0x1D4 JUMPI PUSH0 DUP1 REVERT JUMPDEST POP PUSH2 0x1DD PUSH2 0x681 JUMP JUMPDEST PUSH1 0x40 MLOAD PUSH2 0x1EA SWAP2 SWAP1 PUSH2 0xE77 JUMP JUMPDEST PUSH1 0x40 MLOAD DUP1 SWAP2 SUB SWAP1 RETURN JUMPDEST CALLVALUE DUP1 ISZERO PUSH2 0x1FE JUMPI PUSH0 DUP1 REVERT JUMPDEST POP PUSH2 0x207 PUSH2 0x694 JUMP JUMPDEST PUSH1 0x40 MLOAD PUSH2 0x214 SWAP2 SWAP1 PUSH2 0xE9F JUMP JUMPDEST PUSH1 0x40 MLOAD DUP1 SWAP2 SUB SWAP1 RETURN JUMPDEST CALLVALUE DUP1 ISZERO PUSH2 0x228 JUMPI PUSH0 DUP1 REVERT JUMPDEST POP PUSH2 0x231 PUSH2 0x6B9 JUMP JUMPDEST STOP JUMPDEST CALLVALUE DUP1 ISZERO PUSH2 0x23E JUMPI PUSH0 DUP1 REVERT JUMPDEST POP PUSH2 0x247 PUSH2 0x8D3 JUMP JUMPDEST PUSH1 0x40 MLOAD PUSH2 0x254 SWAP2 SWAP1 PUSH2 0xE40 JUMP JUMPDEST PUSH1 0x40 MLOAD DUP1 SWAP2 SUB SWAP1 RETURN JUMPDEST CALLVALUE DUP1 ISZERO PUSH2 0x268 JUMPI PUSH0 DUP1 REVERT JUMPDEST POP PUSH2 0x271 PUSH2 0x8F7 JUMP JUMPDEST PUSH1 0x40 MLOAD PUSH2 0x27E SWAP2 SWAP1 PUSH2 0xE40 JUMP JUMPDEST PUSH1 0x40 MLOAD DUP1 SWAP2 SUB SWAP1 RETURN JUMPDEST CALLVALUE DUP1 ISZERO PUSH2 0x292 JUMPI PUSH0 DUP1 REVERT JUMPDEST POP PUSH2 0x29B PUSH2 0x8FD JUMP JUMPDEST STOP JUMPDEST PUSH32 0x0 DUP2 JUMP JUMPDEST PUSH0 PUSH1 0x5 SWAP1 SLOAD SWAP1 PUSH2 0x100 EXP SWAP1 DIV PUSH1 0xFF AND DUP2 JUMP JUMPDEST PUSH0 PUSH1 0x4 SWAP1 SLOAD SWAP1 PUSH2 0x100 EXP SWAP1 DIV PUSH1 0xFF AND PUSH2 0x321 JUMPI PUSH1 0x40 MLOAD PUSH32 0x8C379A000000000000000000000000000000000000000000000000000000000 DUP2 MSTORE PUSH1 0x4 ADD PUSH2 0x318 SWAP1 PUSH2 0xF12 JUMP JUMPDEST PUSH1 0x40 MLOAD DUP1 SWAP2 SUB SWAP1 REVERT JUMPDEST PUSH0 DUP1 SLOAD SWAP1 PUSH2 0x100 EXP SWAP1 DIV PUSH4 0xFFFFFFFF AND PUSH4 0xFFFFFFFF AND TIMESTAMP LT PUSH2 0x378 JUMPI PUSH1 0x40 MLOAD PUSH32 0x8C379A000000000000000000000000000000000000000000000000000000000 DUP2 MSTORE PUSH1 0x4 ADD PUSH2 0x36F SWAP1 PUSH2 0xF7A JUMP JUMPDEST PUSH1 0x40 MLOAD DUP1 SWAP2 SUB SWAP1 REVERT JUMPDEST PUSH1 0x1 SLOAD CALLVALUE GT PUSH2 0x3BC JUMPI PUSH1 0x40 MLOAD PUSH32 0x8C379A000000000000000000000000000000000000000000000000000000000 DUP2 MSTORE PUSH1 0x4 ADD PUSH2 0x3B3 SWAP1 PUSH2 0xFE2 JUMP JUMPDEST PUSH1 0x40 MLOAD DUP1 SWAP2 SUB SWAP1 REVERT JUMPDEST PUSH0 PUSH20 0xFFFFFFFFFFFFFFFFFFFFFFFFFFFFFFFFFFFFFFFF AND PUSH0 PUSH1 0x6 SWAP1 SLOAD SWAP1 PUSH2 0x100 EXP SWAP1 DIV PUSH20 0xFFFFFFFFFFFFFFFFFFFFFFFFFFFFFFFFFFFFFFFF AND PUSH20 0xFFFFFFFFFFFFFFFFFFFFFFFFFFFFFFFFFFFFFFFF AND EQ PUSH2 0x487 JUMPI PUSH1 0x1 SLOAD PUSH1 0x2 PUSH0 DUP1 PUSH1 0x6 SWAP1 SLOAD SWAP1 PUSH2 0x100 EXP SWAP1 DIV PUSH20 0xFFFFFFFFFFFFFFFFFFFFFFFFFFFFFFFFFFFFFFFF AND PUSH20 0xFFFFFFFFFFFFFFFFFFFFFFFFFFFFFFFFFFFFFFFF AND PUSH20 0xFFFFFFFFFFFFFFFFFFFFFFFFFFFFFFFFFFFFFFFF AND DUP2 MSTORE PUSH1 0x20 ADD SWAP1 DUP2 MSTORE PUSH1 0x20 ADD PUSH0 KECCAK256 PUSH0 DUP3 DUP3 SLOAD PUSH2 0x47F SWAP2 SWAP1 PUSH2 0x102D JUMP JUMPDEST SWAP3 POP POP DUP2 SWAP1 SSTORE POP JUMPDEST CALLVALUE PUSH1 0x1 DUP2 SWAP1 SSTORE POP CALLER PUSH0 PUSH1 0x6 PUSH2 0x100 EXP DUP2 SLOAD DUP2 PUSH20 0xFFFFFFFFFFFFFFFFFFFFFFFFFFFFFFFFFFFFFFFF MUL NOT AND SWAP1 DUP4 PUSH20 0xFFFFFFFFFFFFFFFFFFFFFFFFFFFFFFFFFFFFFFFF AND MUL OR SWAP1 SSTORE POP CALLER PUSH20 0xFFFFFFFFFFFFFFFFFFFFFFFFFFFFFFFFFFFFFFFF AND PUSH32 0xE684A55F31B79ECA403DF938249029212A5925EC6BE8012E099B45BC1019E5D2 CALLVALUE PUSH1 0x40 MLOAD PUSH2 0x514 SWAP2 SWAP1 PUSH2 0xE40 JUMP JUMPDEST PUSH1 0x40 MLOAD DUP1 SWAP2 SUB SWAP1 LOG2 JUMP JUMPDEST PUSH0 PUSH1 0x4 SWAP1 SLOAD SWAP1 PUSH2 0x100 EXP SWAP1 DIV PUSH1 0xFF AND DUP2 JUMP JUMPDEST PUSH0 PUSH1 0x2 PUSH0 CALLER PUSH20 0xFFFFFFFFFFFFFFFFFFFFFFFFFFFFFFFFFFFFFFFF AND PUSH20 0xFFFFFFFFFFFFFFFFFFFFFFFFFFFFFFFFFFFFFFFF AND DUP2 MSTORE PUSH1 0x20 ADD SWAP1 DUP2 MSTORE PUSH1 0x20 ADD PUSH0 KECCAK256 SLOAD SWAP1 POP PUSH0 PUSH1 0x2 PUSH0 CALLER PUSH20 0xFFFFFFFFFFFFFFFFFFFFFFFFFFFFFFFFFFFFFFFF AND PUSH20 0xFFFFFFFFFFFFFFFFFFFFFFFFFFFFFFFFFFFFFFFF AND DUP2 MSTORE PUSH1 0x20 ADD SWAP1 DUP2 MSTORE PUSH1 0x20 ADD PUSH0 KECCAK256 DUP2 SWAP1 SSTORE POP CALLER PUSH20 0xFFFFFFFFFFFFFFFFFFFFFFFFFFFFFFFFFFFFFFFF AND PUSH2 0x8FC DUP3 SWAP1 DUP2 ISZERO MUL SWAP1 PUSH1 0x40 MLOAD PUSH0 PUSH1 0x40 MLOAD DUP1 DUP4 SUB DUP2 DUP6 DUP9 DUP9 CALL SWAP4 POP POP POP POP ISZERO DUP1 ISZERO PUSH2 0x5F6 JUMPI RETURNDATASIZE PUSH0 DUP1 RETURNDATACOPY RETURNDATASIZE PUSH0 REVERT JUMPDEST POP CALLER PUSH20 0xFFFFFFFFFFFFFFFFFFFFFFFFFFFFFFFFFFFFFFFF AND PUSH32 0x884EDAD9CE6FA2440D8A54CC123490EB96D2768479D49FF9C7366125A9424364 DUP3 PUSH1 0x40 MLOAD PUSH2 0x63D SWAP2 SWAP1 PUSH2 0xE40 JUMP JUMPDEST PUSH1 0x40 MLOAD DUP1 SWAP2 SUB SWAP1 LOG2 POP JUMP JUMPDEST PUSH32 0x0 DUP2 JUMP JUMPDEST PUSH1 0x2 PUSH1 0x20 MSTORE DUP1 PUSH0 MSTORE PUSH1 0x40 PUSH0 KECCAK256 PUSH0 SWAP2 POP SWAP1 POP SLOAD DUP2 JUMP JUMPDEST PUSH0 DUP1 SLOAD SWAP1 PUSH2 0x100 EXP SWAP1 DIV PUSH4 0xFFFFFFFF AND DUP2 JUMP JUMPDEST PUSH0 PUSH1 0x6 SWAP1 SLOAD SWAP1 PUSH2 0x100 EXP SWAP1 DIV PUSH20 0xFFFFFFFFFFFFFFFFFFFFFFFFFFFFFFFFFFFFFFFF AND DUP2 JUMP JUMPDEST PUSH32 0x0 PUSH20 0xFFFFFFFFFFFFFFFFFFFFFFFFFFFFFFFFFFFFFFFF AND CALLER PUSH20 0xFFFFFFFFFFFFFFFFFFFFFFFFFFFFFFFFFFFFFFFF AND EQ PUSH2 0x747 JUMPI PUSH1 0x40 MLOAD PUSH32 0x8C379A000000000000000000000000000000000000000000000000000000000 DUP2 MSTORE PUSH1 0x4 ADD PUSH2 0x73E SWAP1 PUSH2 0x10AA JUMP JUMPDEST PUSH1 0x40 MLOAD DUP1 SWAP2 SUB SWAP1 REVERT JUMPDEST PUSH0 PUSH1 0x4 SWAP1 SLOAD SWAP1 PUSH2 0x100 EXP SWAP1 DIV PUSH1 0xFF AND ISZERO PUSH2 0x796 JUMPI PUSH1 0x40 MLOAD PUSH32 0x8C379A000000000000000000000000000000000000000000000000000000000 DUP2 MSTORE PUSH1 0x4 ADD PUSH2 0x78D SWAP1 PUSH2 0x1112 JUMP JUMPDEST PUSH1 0x40 MLOAD DUP1 SWAP2 SUB SWAP1 REVERT JUMPDEST PUSH1 0x1 PUSH0 PUSH1 0x4 PUSH2 0x100 EXP DUP2 SLOAD DUP2 PUSH1 0xFF MUL NOT AND SWAP1 DUP4 ISZERO ISZERO MUL OR SWAP1 SSTORE POP PUSH1 0xB4 TIMESTAMP PUSH2 0x7BD SWAP2 SWAP1 PUSH2 0x102D JUMP JUMPDEST PUSH0 DUP1 PUSH2 0x100 EXP DUP2 SLOAD DUP2 PUSH4 0xFFFFFFFF MUL NOT AND SWAP1 DUP4 PUSH4 0xFFFFFFFF AND MUL OR SWAP1 SSTORE POP PUSH32 0x0 PUSH20 0xFFFFFFFFFFFFFFFFFFFFFFFFFFFFFFFFFFFFFFFF AND PUSH4 0x23B872DD PUSH32 0x0 ADDRESS PUSH32 0x0 PUSH1 0x40 MLOAD DUP5 PUSH4 0xFFFFFFFF AND PUSH1 0xE0 SHL DUP2 MSTORE PUSH1 0x4 ADD PUSH2 0x878 SWAP4 SWAP3 SWAP2 SWAP1 PUSH2 0x1150 JUMP JUMPDEST PUSH0 PUSH1 0x40 MLOAD DUP1 DUP4 SUB DUP2 PUSH0 DUP8 DUP1 EXTCODESIZE ISZERO DUP1 ISZERO PUSH2 0x88F JUMPI PUSH0 DUP1 REVERT JUMPDEST POP GAS CALL ISZERO DUP1 ISZERO PUSH2 0x8A1 JUMPI RETURNDATASIZE PUSH0 DUP1 RETURNDATACOPY RETURNDATASIZE PUSH0 REVERT JUMPDEST POP POP POP POP PUSH32 0x1B55BA3AA851A46BE3B365AEE5B5C140EDD620D578922F3E8466D2CBD96F954B PUSH1 0x40 MLOAD PUSH1 0x40 MLOAD DUP1 SWAP2 SUB SWAP1 LOG1 JUMP JUMPDEST PUSH32 0x0 DUP2 JUMP JUMPDEST PUSH1 0x1 SLOAD DUP2 JUMP JUMPDEST PUSH0 PUSH1 0x4 SWAP1 SLOAD SWAP1 PUSH2 0x100 EXP SWAP1 DIV PUSH1 0xFF AND PUSH2 0x94B JUMPI PUSH1 0x40 MLOAD PUSH32 0x8C379A000000000000000000000000000000000000000000000000000000000 DUP2 MSTORE PUSH1 0x4 ADD PUSH2 0x942 SWAP1 PUSH2 0xF12 JUMP JUMPDEST PUSH1 0x40 MLOAD DUP1 SWAP2 SUB SWAP1 REVERT JUMPDEST PUSH0 PUSH1 0x5 SWAP1 SLOAD SWAP1 PUSH2 0x100 EXP SWAP1 DIV PUSH1 0xFF AND ISZERO PUSH2 0x99A JUMPI PUSH1 0x40 MLOAD PUSH32 0x8C379A000000000000000000000000000000000000000000000000000000000 DUP2 MSTORE PUSH1 0x4 ADD PUSH2 0x991 SWAP1 PUSH2 0xF7A JUMP JUMPDEST PUSH1 0x40 MLOAD DUP1 SWAP2 SUB SWAP1 REVERT JUMPDEST PUSH0 DUP1 SLOAD SWAP1 PUSH2 0x100 EXP SWAP1 DIV PUSH4 0xFFFFFFFF AND PUSH4 0xFFFFFFFF AND TIMESTAMP LT ISZERO PUSH2 0x9F2 JUMPI PUSH1 0x40 MLOAD PUSH32 0x8C379A000000000000000000000000000000000000000000000000000000000 DUP2 MSTORE PUSH1 0x4 ADD PUSH2 0x9E9 SWAP1 PUSH2 0x11CF JUMP JUMPDEST PUSH1 0x40 MLOAD DUP1 SWAP2 SUB SWAP1 REVERT JUMPDEST PUSH1 0x1 PUSH0 PUSH1 0x5 PUSH2 0x100 EXP DUP2 SLOAD DUP2 PUSH1 0xFF MUL NOT AND SWAP1 DUP4 ISZERO ISZERO MUL OR SWAP1 SSTORE POP PUSH0 PUSH20 0xFFFFFFFFFFFFFFFFFFFFFFFFFFFFFFFFFFFFFFFF AND PUSH0 PUSH1 0x6 SWAP1 SLOAD SWAP1 PUSH2 0x100 EXP SWAP1 DIV PUSH20 0xFFFFFFFFFFFFFFFFFFFFFFFFFFFFFFFFFFFFFFFF AND PUSH20 0xFFFFFFFFFFFFFFFFFFFFFFFFFFFFFFFFFFFFFFFF AND EQ PUSH2 0xB96 JUMPI PUSH32 0x0 PUSH20 0xFFFFFFFFFFFFFFFFFFFFFFFFFFFFFFFFFFFFFFFF AND PUSH4 0x23B872DD ADDRESS PUSH0 PUSH1 0x6 SWAP1 SLOAD SWAP1 PUSH2 0x100 EXP SWAP1 DIV PUSH20 0xFFFFFFFFFFFFFFFFFFFFFFFFFFFFFFFFFFFFFFFF AND PUSH32 0x0 PUSH1 0x40 MLOAD DUP5 PUSH4 0xFFFFFFFF AND PUSH1 0xE0 SHL DUP2 MSTORE PUSH1 0x4 ADD PUSH2 0xAFE SWAP4 SWAP3 SWAP2 SWAP1 PUSH2 0x11ED JUMP JUMPDEST PUSH0 PUSH1 0x40 MLOAD DUP1 DUP4 SUB DUP2 PUSH0 DUP8 DUP1 EXTCODESIZE ISZERO DUP1 ISZERO PUSH2 0xB15 JUMPI PUSH0 DUP1 REVERT JUMPDEST POP GAS CALL ISZERO DUP1 ISZERO PUSH2 0xB27 JUMPI RETURNDATASIZE PUSH0 DUP1 RETURNDATACOPY RETURNDATASIZE PUSH0 REVERT JUMPDEST POP POP POP POP PUSH32 0x0 PUSH20 0xFFFFFFFFFFFFFFFFFFFFFFFFFFFFFFFFFFFFFFFF AND PUSH2 0x8FC PUSH1 0x1 SLOAD SWAP1 DUP2 ISZERO MUL SWAP1 PUSH1 0x40 MLOAD PUSH0 PUSH1 0x40 MLOAD DUP1 DUP4 SUB DUP2 DUP6 DUP9 DUP9 CALL SWAP4 POP POP POP POP ISZERO DUP1 ISZERO PUSH2 0xB90 JUMPI RETURNDATASIZE PUSH0 DUP1 RETURNDATACOPY RETURNDATASIZE PUSH0 REVERT JUMPDEST POP PUSH2 0xC61 JUMP JUMPDEST PUSH32 0x0 PUSH20 0xFFFFFFFFFFFFFFFFFFFFFFFFFFFFFFFFFFFFFFFF AND PUSH4 0x23B872DD ADDRESS PUSH32 0x0 PUSH32 0x0 PUSH1 0x40 MLOAD DUP5 PUSH4 0xFFFFFFFF AND PUSH1 0xE0 SHL DUP2 MSTORE PUSH1 0x4 ADD PUSH2 0xC33 SWAP4 SWAP3 SWAP2 SWAP1 PUSH2 0x1222 JUMP JUMPDEST PUSH0 PUSH1 0x40 MLOAD DUP1 DUP4 SUB DUP2 PUSH0 DUP8 DUP1 EXTCODESIZE ISZERO DUP1 ISZERO PUSH2 0xC4A JUMPI PUSH0 DUP1 REVERT JUMPDEST POP GAS CALL ISZERO DUP1 ISZERO PUSH2 0xC5C JUMPI RETURNDATASIZE PUSH0 DUP1 RETURNDATACOPY RETURNDATASIZE PUSH0 REVERT JUMPDEST POP POP POP POP JUMPDEST PUSH32 0x7D7570B046E5EAD3A4F3FBC9FA2445113625A1E79823776146316BAFED6B8CC5 PUSH0 PUSH1 0x6 SWAP1 SLOAD SWAP1 PUSH2 0x100 EXP SWAP1 DIV PUSH20 0xFFFFFFFFFFFFFFFFFFFFFFFFFFFFFFFFFFFFFFFF AND PUSH1 0x1 SLOAD PUSH1 0x40 MLOAD PUSH2 0xCB5 SWAP3 SWAP2 SWAP1 PUSH2 0x1257 JUMP JUMPDEST PUSH1 0x40 MLOAD DUP1 SWAP2 SUB SWAP1 LOG1 JUMP JUMPDEST PUSH0 PUSH20 0xFFFFFFFFFFFFFFFFFFFFFFFFFFFFFFFFFFFFFFFF DUP3 AND SWAP1 POP SWAP2 SWAP1 POP JUMP JUMPDEST PUSH0 PUSH2 0xCE8 DUP3 PUSH2 0xCBF JUMP JUMPDEST SWAP1 POP SWAP2 SWAP1 POP JUMP JUMPDEST PUSH2 0xCF8 DUP2 PUSH2 0xCDE JUMP JUMPDEST DUP3 MSTORE POP POP JUMP JUMPDEST PUSH0 PUSH1 0x20 DUP3 ADD SWAP1 POP PUSH2 0xD11 PUSH0 DUP4 ADD DUP5 PUSH2 0xCEF JUMP JUMPDEST SWAP3 SWAP2 POP POP JUMP JUMPDEST PUSH0 DUP2 ISZERO ISZERO SWAP1 POP SWAP2 SWAP1 POP JUMP JUMPDEST PUSH2 0xD2B DUP2 PUSH2 0xD17 JUMP JUMPDEST DUP3 MSTORE POP POP JUMP JUMPDEST PUSH0 PUSH1 0x20 DUP3 ADD SWAP1 POP PUSH2 0xD44 PUSH0 DUP4 ADD DUP5 PUSH2 0xD22 JUMP JUMPDEST SWAP3 SWAP2 POP POP JUMP JUMPDEST PUSH0 DUP2 SWAP1 POP SWAP2 SWAP1 POP JUMP JUMPDEST PUSH0 PUSH2 0xD6D PUSH2 0xD68 PUSH2 0xD63 DUP5 PUSH2 0xCBF JUMP JUMPDEST PUSH2 0xD4A JUMP JUMPDEST PUSH2 0xCBF JUMP JUMPDEST SWAP1 POP SWAP2 SWAP1 POP JUMP JUMPDEST PUSH0 PUSH2 0xD7E DUP3 PUSH2 0xD53 JUMP JUMPDEST SWAP1 POP SWAP2 SWAP1 POP JUMP JUMPDEST PUSH0 PUSH2 0xD8F DUP3 PUSH2 0xD74 JUMP JUMPDEST SWAP1 POP SWAP2 SWAP1 POP JUMP JUMPDEST PUSH2 0xD9F DUP2 PUSH2 0xD85 JUMP JUMPDEST DUP3 MSTORE POP POP JUMP JUMPDEST PUSH0 PUSH1 0x20 DUP3 ADD SWAP1 POP PUSH2 0xDB8 PUSH0 DUP4 ADD DUP5 PUSH2 0xD96 JUMP JUMPDEST SWAP3 SWAP2 POP POP JUMP JUMPDEST PUSH0 DUP1 REVERT JUMPDEST PUSH0 PUSH2 0xDCC DUP3 PUSH2 0xCBF JUMP JUMPDEST SWAP1 POP SWAP2 SWAP1 POP JUMP JUMPDEST PUSH2 0xDDC DUP2 PUSH2 0xDC2 JUMP JUMPDEST DUP2 EQ PUSH2 0xDE6 JUMPI PUSH0 DUP1 REVERT JUMPDEST POP JUMP JUMPDEST PUSH0 DUP2 CALLDATALOAD SWAP1 POP PUSH2 0xDF7 DUP2 PUSH2 0xDD3 JUMP JUMPDEST SWAP3 SWAP2 POP POP JUMP JUMPDEST PUSH0 PUSH1 0x20 DUP3 DUP5 SUB SLT ISZERO PUSH2 0xE12 JUMPI PUSH2 0xE11 PUSH2 0xDBE JUMP JUMPDEST JUMPDEST PUSH0 PUSH2 0xE1F DUP5 DUP3 DUP6 ADD PUSH2 0xDE9 JUMP JUMPDEST SWAP2 POP POP SWAP3 SWAP2 POP POP JUMP JUMPDEST PUSH0 DUP2 SWAP1 POP SWAP2 SWAP1 POP JUMP JUMPDEST PUSH2 0xE3A DUP2 PUSH2 0xE28 JUMP JUMPDEST DUP3 MSTORE POP POP JUMP JUMPDEST PUSH0 PUSH1 0x20 DUP3 ADD SWAP1 POP PUSH2 0xE53 PUSH0 DUP4 ADD DUP5 PUSH2 0xE31 JUMP JUMPDEST SWAP3 SWAP2 POP POP JUMP JUMPDEST PUSH0 PUSH4 0xFFFFFFFF DUP3 AND SWAP1 POP SWAP2 SWAP1 POP JUMP JUMPDEST PUSH2 0xE71 DUP2 PUSH2 0xE59 JUMP JUMPDEST DUP3 MSTORE POP POP JUMP JUMPDEST PUSH0 PUSH1 0x20 DUP3 ADD SWAP1 POP PUSH2 0xE8A PUSH0 DUP4 ADD DUP5 PUSH2 0xE68 JUMP JUMPDEST SWAP3 SWAP2 POP POP JUMP JUMPDEST PUSH2 0xE99 DUP2 PUSH2 0xDC2 JUMP JUMPDEST DUP3 MSTORE POP POP JUMP JUMPDEST PUSH0 PUSH1 0x20 DUP3 ADD SWAP1 POP PUSH2 0xEB2 PUSH0 DUP4 ADD DUP5 PUSH2 0xE90 JUMP JUMPDEST SWAP3 SWAP2 POP POP JUMP JUMPDEST PUSH0 DUP3 DUP3 MSTORE PUSH1 0x20 DUP3 ADD SWAP1 POP SWAP3 SWAP2 POP POP JUMP JUMPDEST PUSH32 0x6E6F742073746172746564000000000000000000000000000000000000000000 PUSH0 DUP3 ADD MSTORE POP JUMP JUMPDEST PUSH0 PUSH2 0xEFC PUSH1 0xB DUP4 PUSH2 0xEB8 JUMP JUMPDEST SWAP2 POP PUSH2 0xF07 DUP3 PUSH2 0xEC8 JUMP JUMPDEST PUSH1 0x20 DUP3 ADD SWAP1 POP SWAP2 SWAP1 POP JUMP JUMPDEST PUSH0 PUSH1 0x20 DUP3 ADD SWAP1 POP DUP2 DUP2 SUB PUSH0 DUP4 ADD MSTORE PUSH2 0xF29 DUP2 PUSH2 0xEF0 JUMP JUMPDEST SWAP1 POP SWAP2 SWAP1 POP JUMP JUMPDEST PUSH32 0x656E646564000000000000000000000000000000000000000000000000000000 PUSH0 DUP3 ADD MSTORE POP JUMP JUMPDEST PUSH0 PUSH2 0xF64 PUSH1 0x5 DUP4 PUSH2 0xEB8 JUMP JUMPDEST SWAP2 POP PUSH2 0xF6F DUP3 PUSH2 0xF30 JUMP JUMPDEST PUSH1 0x20 DUP3 ADD SWAP1 POP SWAP2 SWAP1 POP JUMP JUMPDEST PUSH0 PUSH1 0x20 DUP3 ADD SWAP1 POP DUP2 DUP2 SUB PUSH0 DUP4 ADD MSTORE PUSH2 0xF91 DUP2 PUSH2 0xF58 JUMP JUMPDEST SWAP1 POP SWAP2 SWAP1 POP JUMP JUMPDEST PUSH32 0x76616C75653C6869676865737442696400000000000000000000000000000000 PUSH0 DUP3 ADD MSTORE POP JUMP JUMPDEST PUSH0 PUSH2 0xFCC PUSH1 0x10 DUP4 PUSH2 0xEB8 JUMP JUMPDEST SWAP2 POP PUSH2 0xFD7 DUP3 PUSH2 0xF98 JUMP JUMPDEST PUSH1 0x20 DUP3 ADD SWAP1 POP SWAP2 SWAP1 POP JUMP JUMPDEST PUSH0 PUSH1 0x20 DUP3 ADD SWAP1 POP DUP2 DUP2 SUB PUSH0 DUP4 ADD MSTORE PUSH2 0xFF9 DUP2 PUSH2 0xFC0 JUMP JUMPDEST SWAP1 POP SWAP2 SWAP1 POP JUMP JUMPDEST PUSH32 0x4E487B7100000000000000000000000000000000000000000000000000000000 PUSH0 MSTORE PUSH1 0x11 PUSH1 0x4 MSTORE PUSH1 0x24 PUSH0 REVERT JUMPDEST PUSH0 PUSH2 0x1037 DUP3 PUSH2 0xE28 JUMP JUMPDEST SWAP2 POP PUSH2 0x1042 DUP4 PUSH2 0xE28 JUMP JUMPDEST SWAP3 POP DUP3 DUP3 ADD SWAP1 POP DUP1 DUP3 GT ISZERO PUSH2 0x105A JUMPI PUSH2 0x1059 PUSH2 0x1000 JUMP JUMPDEST JUMPDEST SWAP3 SWAP2 POP POP JUMP JUMPDEST PUSH32 0x6E6F742073656C6C657200000000000000000000000000000000000000000000 PUSH0 DUP3 ADD MSTORE POP JUMP JUMPDEST PUSH0 PUSH2 0x1094 PUSH1 0xA DUP4 PUSH2 0xEB8 JUMP JUMPDEST SWAP2 POP PUSH2 0x109F DUP3 PUSH2 0x1060 JUMP JUMPDEST PUSH1 0x20 DUP3 ADD SWAP1 POP SWAP2 SWAP1 POP JUMP JUMPDEST PUSH0 PUSH1 0x20 DUP3 ADD SWAP1 POP DUP2 DUP2 SUB PUSH0 DUP4 ADD MSTORE PUSH2 0x10C1 DUP2 PUSH2 0x1088 JUMP JUMPDEST SWAP1 POP SWAP2 SWAP1 POP JUMP JUMPDEST PUSH32 0x7374617274656400000000000000000000000000000000000000000000000000 PUSH0 DUP3 ADD MSTORE POP JUMP JUMPDEST PUSH0 PUSH2 0x10FC PUSH1 0x7 DUP4 PUSH2 0xEB8 JUMP JUMPDEST SWAP2 POP PUSH2 0x1107 DUP3 PUSH2 0x10C8 JUMP JUMPDEST PUSH1 0x20 DUP3 ADD SWAP1 POP SWAP2 SWAP1 POP JUMP JUMPDEST PUSH0 PUSH1 0x20 DUP3 ADD SWAP1 POP DUP2 DUP2 SUB PUSH0 DUP4 ADD MSTORE PUSH2 0x1129 DUP2 PUSH2 0x10F0 JUMP JUMPDEST SWAP1 POP SWAP2 SWAP1 POP JUMP JUMPDEST PUSH0 PUSH2 0x113A DUP3 PUSH2 0xD74 JUMP JUMPDEST SWAP1 POP SWAP2 SWAP1 POP JUMP JUMPDEST PUSH2 0x114A DUP2 PUSH2 0x1130 JUMP JUMPDEST DUP3 MSTORE POP POP JUMP JUMPDEST PUSH0 PUSH1 0x60 DUP3 ADD SWAP1 POP PUSH2 0x1163 PUSH0 DUP4 ADD DUP7 PUSH2 0x1141 JUMP JUMPDEST PUSH2 0x1170 PUSH1 0x20 DUP4 ADD DUP6 PUSH2 0xE90 JUMP JUMPDEST PUSH2 0x117D PUSH1 0x40 DUP4 ADD DUP5 PUSH2 0xE31 JUMP JUMPDEST SWAP5 SWAP4 POP POP POP POP JUMP JUMPDEST PUSH32 0x6E6F7420656E6465640000000000000000000000000000000000000000000000 PUSH0 DUP3 ADD MSTORE POP JUMP JUMPDEST PUSH0 PUSH2 0x11B9 PUSH1 0x9 DUP4 PUSH2 0xEB8 JUMP JUMPDEST SWAP2 POP PUSH2 0x11C4 DUP3 PUSH2 0x1185 JUMP JUMPDEST PUSH1 0x20 DUP3 ADD SWAP1 POP SWAP2 SWAP1 POP JUMP JUMPDEST PUSH0 PUSH1 0x20 DUP3 ADD SWAP1 POP DUP2 DUP2 SUB PUSH0 DUP4 ADD MSTORE PUSH2 0x11E6 DUP2 PUSH2 0x11AD JUMP JUMPDEST SWAP1 POP SWAP2 SWAP1 POP JUMP JUMPDEST PUSH0 PUSH1 0x60 DUP3 ADD SWAP1 POP PUSH2 0x1200 PUSH0 DUP4 ADD DUP7 PUSH2 0xE90 JUMP JUMPDEST PUSH2 0x120D PUSH1 0x20 DUP4 ADD DUP6 PUSH2 0xE90 JUMP JUMPDEST PUSH2 0x121A PUSH1 0x40 DUP4 ADD DUP5 PUSH2 0xE31 JUMP JUMPDEST SWAP5 SWAP4 POP POP POP POP JUMP JUMPDEST PUSH0 PUSH1 0x60 DUP3 ADD SWAP1 POP PUSH2 0x1235 PUSH0 DUP4 ADD DUP7 PUSH2 0xE90 JUMP JUMPDEST PUSH2 0x1242 PUSH1 0x20 DUP4 ADD DUP6 PUSH2 0x1141 JUMP JUMPDEST PUSH2 0x124F PUSH1 0x40 DUP4 ADD DUP5 PUSH2 0xE31 JUMP JUMPDEST SWAP5 SWAP4 POP POP POP POP JUMP JUMPDEST PUSH0 PUSH1 0x40 DUP3 ADD SWAP1 POP PUSH2 0x126A PUSH0 DUP4 ADD DUP6 PUSH2 0xE90 JUMP JUMPDEST PUSH2 0x1277 PUSH1 0x20 DUP4 ADD DUP5 PUSH2 0xE31 JUMP JUMPDEST SWAP4 SWAP3 POP POP POP JUMP INVALID LOG2 PUSH5 0x6970667358 0x22 SLT KECCAK256 SELFDESTRUCT 0xDC EXTCODESIZE 0xBC 0xA9 0x4A SELFDESTRUCT CALLDATACOPY SDIV PREVRANDAO 0xB3 DUP4 0xC RETURNDATASIZE PUSH12 0xD8F2E65D69C4AFC2EDCD70A4 0x5C 0xCC SUB 0x5D PUSH17 0x64736F6C63430008170033000000000000 "
				},
				"gasEstimates": {
					"creation": {
						"codeDepositCost": "957600",
						"executionCost": "infinite",
						"totalCost": "infinite"
					},
					"external": {
						"bid()": "infinite",
						"bids(address)": "2825",
						"end()": "infinite",
						"endAt()": "2508",
						"ended()": "2539",
						"highestBid()": "2491",
						"highestBidder()": "2625",
						"nft()": "infinite",
						"nftId()": "infinite",
						"seller()": "infinite",
						"start()": "infinite",
						"started()": "2583",
						"withdraw()": "infinite"
					}
				},
				"methodIdentifiers": {
					"bid()": "1998aeef",
					"bids(address)": "62ea82db",
					"end()": "efbe1c1c",
					"endAt()": "7cc3ae8c",
					"ended()": "12fa6feb",
					"highestBid()": "d57bde79",
					"highestBidder()": "91f90157",
					"nft()": "47ccca02",
					"nftId()": "c6bc5182",
					"seller()": "08551a53",
					"start()": "be9a6555",
					"started()": "1f2698ab",
					"withdraw()": "3ccfd60b"
				}
			},
			"storageLayout": {
				"storage": [
					{
						"astId": 40,
						"contract": "contracts/EnglishAuction.sol:EnglishAuction",
						"label": "endAt",
						"offset": 0,
						"slot": "0",
						"type": "t_uint32"
					},
					{
						"astId": 42,
						"contract": "contracts/EnglishAuction.sol:EnglishAuction",
						"label": "started",
						"offset": 4,
						"slot": "0",
						"type": "t_bool"
					},
					{
						"astId": 44,
						"contract": "contracts/EnglishAuction.sol:EnglishAuction",
						"label": "ended",
						"offset": 5,
						"slot": "0",
						"type": "t_bool"
					},
					{
						"astId": 46,
						"contract": "contracts/EnglishAuction.sol:EnglishAuction",
						"label": "highestBidder",
						"offset": 6,
						"slot": "0",
						"type": "t_address"
					},
					{
						"astId": 48,
						"contract": "contracts/EnglishAuction.sol:EnglishAuction",
						"label": "highestBid",
						"offset": 0,
						"slot": "1",
						"type": "t_uint256"
					},
					{
						"astId": 52,
						"contract": "contracts/EnglishAuction.sol:EnglishAuction",
						"label": "bids",
						"offset": 0,
						"slot": "2",
						"type": "t_mapping(t_address,t_uint256)"
					}
				],
				"types": {
					"t_address": {
						"encoding": "inplace",
						"label": "address",
						"numberOfBytes": "20"
					},
					"t_bool": {
						"encoding": "inplace",
						"label": "bool",
						"numberOfBytes": "1"
					},
					"t_mapping(t_address,t_uint256)": {
						"encoding": "mapping",
						"key": "t_address",
						"label": "mapping(address => uint256)",
						"numberOfBytes": "32",
						"value": "t_uint256"
					},
					"t_uint256": {
						"encoding": "inplace",
						"label": "uint256",
						"numberOfBytes": "32"
					},
					"t_uint32": {
						"encoding": "inplace",
						"label": "uint32",
						"numberOfBytes": "4"
					}
				}
			},
			"userdoc": {
				"kind": "user",
				"methods": {},
				"version": 1
			}
		}
	}
}