{
	"contracts/Create2.sol": {
		"Factory": {
			"abi": [
				{
					"anonymous": false,
					"inputs": [
						{
							"indexed": true,
							"internalType": "address",
							"name": "addr",
							"type": "address"
						}
					],
					"name": "Deploy",
					"type": "event"
				},
				{
					"inputs": [
						{
							"internalType": "bytes32",
							"name": "salt",
							"type": "bytes32"
						}
					],
					"name": "deploy",
					"outputs": [],
					"stateMutability": "nonpayable",
					"type": "function"
				},
				{
					"inputs": [
						{
							"internalType": "bytes32",
							"name": "salt",
							"type": "bytes32"
						}
					],
					"name": "getAddress",
					"outputs": [
						{
							"internalType": "address",
							"name": "",
							"type": "address"
						}
					],
					"stateMutability": "view",
					"type": "function"
				}
			],
			"devdoc": {
				"kind": "dev",
				"methods": {},
				"version": 1
			},
			"evm": {
				"assembly": "    /* \"contracts/Create2.sol\":57:931  contract Factory {... */\n  mstore(0x40, 0x80)\n  callvalue\n  dup1\n  iszero\n  tag_1\n  jumpi\n  0x00\n  dup1\n  revert\ntag_1:\n  pop\n  dataSize(sub_0)\n  dup1\n  dataOffset(sub_0)\n  0x00\n  codecopy\n  0x00\n  return\nstop\n\nsub_0: assembly {\n        /* \"contracts/Create2.sol\":57:931  contract Factory {... */\n      mstore(0x40, 0x80)\n      callvalue\n      dup1\n      iszero\n      tag_1\n      jumpi\n      0x00\n      dup1\n      revert\n    tag_1:\n      pop\n      jumpi(tag_2, lt(calldatasize, 0x04))\n      shr(0xe0, calldataload(0x00))\n      dup1\n      0x21f8a721\n      eq\n      tag_3\n      jumpi\n      dup1\n      0x2b85ba38\n      eq\n      tag_4\n      jumpi\n    tag_2:\n      0x00\n      dup1\n      revert\n        /* \"contracts/Create2.sol\":418:929  function getAddress(bytes32 salt) public view returns (address) {... */\n    tag_3:\n      tag_5\n      0x04\n      dup1\n      calldatasize\n      sub\n      dup2\n      add\n      swap1\n      tag_6\n      swap2\n      swap1\n      tag_7\n      jump\t// in\n    tag_6:\n      tag_8\n      jump\t// in\n    tag_5:\n      mload(0x40)\n      tag_9\n      swap2\n      swap1\n      tag_10\n      jump\t// in\n    tag_9:\n      mload(0x40)\n      dup1\n      swap2\n      sub\n      swap1\n      return\n        /* \"contracts/Create2.sol\":121:412  function deploy(bytes32 salt) public {... */\n    tag_4:\n      tag_11\n      0x04\n      dup1\n      calldatasize\n      sub\n      dup2\n      add\n      swap1\n      tag_12\n      swap2\n      swap1\n      tag_7\n      jump\t// in\n    tag_12:\n      tag_13\n      jump\t// in\n    tag_11:\n      stop\n        /* \"contracts/Create2.sol\":418:929  function getAddress(bytes32 salt) public view returns (address) {... */\n    tag_8:\n        /* \"contracts/Create2.sol\":473:480  address */\n      0x00\n        /* \"contracts/Create2.sol\":492:512  bytes32 bytecodeHash */\n      dup1\n        /* \"contracts/Create2.sol\":579:583  0xff */\n      0xff\n        /* \"contracts/Create2.sol\":572:584  bytes1(0xff) */\n      0xf8\n      shl\n        /* \"contracts/Create2.sol\":610:614  this */\n      address\n        /* \"contracts/Create2.sol\":633:637  salt */\n      dup5\n        /* \"contracts/Create2.sol\":728:757  type(MyContract).creationCode */\n      mload(0x40)\n      dup1\n      0x20\n      add\n      tag_15\n      swap1\n      tag_16\n      jump\t// in\n    tag_15:\n      0x20\n      dup3\n      add\n      dup2\n      sub\n      dup3\n      mstore\n      not(0x1f)\n      0x1f\n      dup3\n      add\n      and\n      0x40\n      mstore\n      pop\n        /* \"contracts/Create2.sol\":794:804  msg.sender */\n      caller\n        /* \"contracts/Create2.sol\":783:805  abi.encode(msg.sender) */\n      add(0x20, mload(0x40))\n      tag_17\n      swap2\n      swap1\n      tag_10\n      jump\t// in\n    tag_17:\n      mload(0x40)\n      0x20\n      dup2\n      dup4\n      sub\n      sub\n      dup2\n      mstore\n      swap1\n      0x40\n      mstore\n        /* \"contracts/Create2.sol\":686:827  abi.encodePacked(... */\n      add(0x20, mload(0x40))\n      tag_18\n      swap3\n      swap2\n      swap1\n      tag_19\n      jump\t// in\n    tag_18:\n      mload(0x40)\n      0x20\n      dup2\n      dup4\n      sub\n      sub\n      dup2\n      mstore\n      swap1\n      0x40\n      mstore\n        /* \"contracts/Create2.sol\":655:845  keccak256(... */\n      dup1\n      mload\n      swap1\n      0x20\n      add\n      keccak256\n        /* \"contracts/Create2.sol\":538:859  abi.encodePacked(... */\n      add(0x20, mload(0x40))\n      tag_20\n      swap5\n      swap4\n      swap3\n      swap2\n      swap1\n      tag_21\n      jump\t// in\n    tag_20:\n      mload(0x40)\n      0x20\n      dup2\n      dup4\n      sub\n      sub\n      dup2\n      mstore\n      swap1\n      0x40\n      mstore\n        /* \"contracts/Create2.sol\":515:869  keccak256(... */\n      dup1\n      mload\n      swap1\n      0x20\n      add\n      keccak256\n        /* \"contracts/Create2.sol\":492:869  bytes32 bytecodeHash = keccak256(... */\n      swap1\n      pop\n        /* \"contracts/Create2.sol\":907:919  bytecodeHash */\n      dup1\n        /* \"contracts/Create2.sol\":902:920  uint(bytecodeHash) */\n      0x00\n      shr\n        /* \"contracts/Create2.sol\":879:922  return address(uint160(uint(bytecodeHash))) */\n      swap2\n      pop\n      pop\n        /* \"contracts/Create2.sol\":418:929  function getAddress(bytes32 salt) public view returns (address) {... */\n      swap2\n      swap1\n      pop\n      jump\t// out\n        /* \"contracts/Create2.sol\":121:412  function deploy(bytes32 salt) public {... */\n    tag_13:\n        /* \"contracts/Create2.sol\":168:194  address precomputedAddress */\n      0x00\n        /* \"contracts/Create2.sol\":197:213  getAddress(salt) */\n      tag_23\n        /* \"contracts/Create2.sol\":208:212  salt */\n      dup3\n        /* \"contracts/Create2.sol\":197:207  getAddress */\n      tag_8\n        /* \"contracts/Create2.sol\":197:213  getAddress(salt) */\n      jump\t// in\n    tag_23:\n        /* \"contracts/Create2.sol\":168:213  address precomputedAddress = getAddress(salt) */\n      swap1\n      pop\n        /* \"contracts/Create2.sol\":223:243  MyContract _contract */\n      0x00\n        /* \"contracts/Create2.sol\":267:271  salt */\n      dup3\n        /* \"contracts/Create2.sol\":273:283  msg.sender */\n      caller\n        /* \"contracts/Create2.sol\":246:284  new MyContract{salt: salt}(msg.sender) */\n      mload(0x40)\n      tag_24\n      swap1\n      tag_16\n      jump\t// in\n    tag_24:\n      tag_25\n      swap2\n      swap1\n      tag_10\n      jump\t// in\n    tag_25:\n      dup2\n      swap1\n      mload(0x40)\n      dup1\n      swap2\n      sub\n      swap1\n      0x00\n      create2\n      swap1\n      pop\n      dup1\n      iszero\n      dup1\n      iszero\n      tag_26\n      jumpi\n      returndatasize\n      0x00\n      dup1\n      returndatacopy\n      revert(0x00, returndatasize)\n    tag_26:\n      pop\n        /* \"contracts/Create2.sol\":223:284  MyContract _contract = new MyContract{salt: salt}(msg.sender) */\n      swap1\n      pop\n        /* \"contracts/Create2.sol\":314:323  _contract */\n      dup1\n        /* \"contracts/Create2.sol\":299:325  Deploy(address(_contract)) */\n      0xffffffffffffffffffffffffffffffffffffffff\n      and\n      0x55ea6c6b31543d8e2ec6a72f71a79c0f4b72ed0d4757172b043d8f4f4cd84848\n      mload(0x40)\n      mload(0x40)\n      dup1\n      swap2\n      sub\n      swap1\n      log2\n        /* \"contracts/Create2.sol\":365:383  precomputedAddress */\n      dup2\n        /* \"contracts/Create2.sol\":343:383  address(_contract) == precomputedAddress */\n      0xffffffffffffffffffffffffffffffffffffffff\n      and\n        /* \"contracts/Create2.sol\":351:360  _contract */\n      dup2\n        /* \"contracts/Create2.sol\":343:383  address(_contract) == precomputedAddress */\n      0xffffffffffffffffffffffffffffffffffffffff\n      and\n      eq\n        /* \"contracts/Create2.sol\":335:405  require(address(_contract) == precomputedAddress, \"Address mismatch!\") */\n      tag_27\n      jumpi\n      mload(0x40)\n      0x08c379a000000000000000000000000000000000000000000000000000000000\n      dup2\n      mstore\n      0x04\n      add\n      tag_28\n      swap1\n      tag_29\n      jump\t// in\n    tag_28:\n      mload(0x40)\n      dup1\n      swap2\n      sub\n      swap1\n      revert\n    tag_27:\n        /* \"contracts/Create2.sol\":158:412  {... */\n      pop\n      pop\n        /* \"contracts/Create2.sol\":121:412  function deploy(bytes32 salt) public {... */\n      pop\n      jump\t// out\n    tag_16:\n      dataSize(sub_0)\n      dup1\n      dataOffset(sub_0)\n      dup4\n      codecopy\n      add\n      swap1\n      jump\t// out\n        /* \"#utility.yul\":88:205   */\n    tag_31:\n        /* \"#utility.yul\":197:198   */\n      0x00\n        /* \"#utility.yul\":194:195   */\n      dup1\n        /* \"#utility.yul\":187:199   */\n      revert\n        /* \"#utility.yul\":334:411   */\n    tag_33:\n        /* \"#utility.yul\":371:378   */\n      0x00\n        /* \"#utility.yul\":400:405   */\n      dup2\n        /* \"#utility.yul\":389:405   */\n      swap1\n      pop\n        /* \"#utility.yul\":334:411   */\n      swap2\n      swap1\n      pop\n      jump\t// out\n        /* \"#utility.yul\":417:539   */\n    tag_34:\n        /* \"#utility.yul\":490:514   */\n      tag_61\n        /* \"#utility.yul\":508:513   */\n      dup2\n        /* \"#utility.yul\":490:514   */\n      tag_33\n      jump\t// in\n    tag_61:\n        /* \"#utility.yul\":483:488   */\n      dup2\n        /* \"#utility.yul\":480:515   */\n      eq\n        /* \"#utility.yul\":470:533   */\n      tag_62\n      jumpi\n        /* \"#utility.yul\":529:530   */\n      0x00\n        /* \"#utility.yul\":526:527   */\n      dup1\n        /* \"#utility.yul\":519:531   */\n      revert\n        /* \"#utility.yul\":470:533   */\n    tag_62:\n        /* \"#utility.yul\":417:539   */\n      pop\n      jump\t// out\n        /* \"#utility.yul\":545:684   */\n    tag_35:\n        /* \"#utility.yul\":591:596   */\n      0x00\n        /* \"#utility.yul\":629:635   */\n      dup2\n        /* \"#utility.yul\":616:636   */\n      calldataload\n        /* \"#utility.yul\":607:636   */\n      swap1\n      pop\n        /* \"#utility.yul\":645:678   */\n      tag_64\n        /* \"#utility.yul\":672:677   */\n      dup2\n        /* \"#utility.yul\":645:678   */\n      tag_34\n      jump\t// in\n    tag_64:\n        /* \"#utility.yul\":545:684   */\n      swap3\n      swap2\n      pop\n      pop\n      jump\t// out\n        /* \"#utility.yul\":690:1019   */\n    tag_7:\n        /* \"#utility.yul\":749:755   */\n      0x00\n        /* \"#utility.yul\":798:800   */\n      0x20\n        /* \"#utility.yul\":786:795   */\n      dup3\n        /* \"#utility.yul\":777:784   */\n      dup5\n        /* \"#utility.yul\":773:796   */\n      sub\n        /* \"#utility.yul\":769:801   */\n      slt\n        /* \"#utility.yul\":766:885   */\n      iszero\n      tag_66\n      jumpi\n        /* \"#utility.yul\":804:883   */\n      tag_67\n      tag_31\n      jump\t// in\n    tag_67:\n        /* \"#utility.yul\":766:885   */\n    tag_66:\n        /* \"#utility.yul\":924:925   */\n      0x00\n        /* \"#utility.yul\":949:1002   */\n      tag_68\n        /* \"#utility.yul\":994:1001   */\n      dup5\n        /* \"#utility.yul\":985:991   */\n      dup3\n        /* \"#utility.yul\":974:983   */\n      dup6\n        /* \"#utility.yul\":970:992   */\n      add\n        /* \"#utility.yul\":949:1002   */\n      tag_35\n      jump\t// in\n    tag_68:\n        /* \"#utility.yul\":939:1002   */\n      swap2\n      pop\n        /* \"#utility.yul\":895:1012   */\n      pop\n        /* \"#utility.yul\":690:1019   */\n      swap3\n      swap2\n      pop\n      pop\n      jump\t// out\n        /* \"#utility.yul\":1025:1151   */\n    tag_36:\n        /* \"#utility.yul\":1062:1069   */\n      0x00\n        /* \"#utility.yul\":1102:1144   */\n      0xffffffffffffffffffffffffffffffffffffffff\n        /* \"#utility.yul\":1095:1100   */\n      dup3\n        /* \"#utility.yul\":1091:1145   */\n      and\n        /* \"#utility.yul\":1080:1145   */\n      swap1\n      pop\n        /* \"#utility.yul\":1025:1151   */\n      swap2\n      swap1\n      pop\n      jump\t// out\n        /* \"#utility.yul\":1157:1253   */\n    tag_37:\n        /* \"#utility.yul\":1194:1201   */\n      0x00\n        /* \"#utility.yul\":1223:1247   */\n      tag_71\n        /* \"#utility.yul\":1241:1246   */\n      dup3\n        /* \"#utility.yul\":1223:1247   */\n      tag_36\n      jump\t// in\n    tag_71:\n        /* \"#utility.yul\":1212:1247   */\n      swap1\n      pop\n        /* \"#utility.yul\":1157:1253   */\n      swap2\n      swap1\n      pop\n      jump\t// out\n        /* \"#utility.yul\":1259:1377   */\n    tag_38:\n        /* \"#utility.yul\":1346:1370   */\n      tag_73\n        /* \"#utility.yul\":1364:1369   */\n      dup2\n        /* \"#utility.yul\":1346:1370   */\n      tag_37\n      jump\t// in\n    tag_73:\n        /* \"#utility.yul\":1341:1344   */\n      dup3\n        /* \"#utility.yul\":1334:1371   */\n      mstore\n        /* \"#utility.yul\":1259:1377   */\n      pop\n      pop\n      jump\t// out\n        /* \"#utility.yul\":1383:1605   */\n    tag_10:\n        /* \"#utility.yul\":1476:1480   */\n      0x00\n        /* \"#utility.yul\":1514:1516   */\n      0x20\n        /* \"#utility.yul\":1503:1512   */\n      dup3\n        /* \"#utility.yul\":1499:1517   */\n      add\n        /* \"#utility.yul\":1491:1517   */\n      swap1\n      pop\n        /* \"#utility.yul\":1527:1598   */\n      tag_75\n        /* \"#utility.yul\":1595:1596   */\n      0x00\n        /* \"#utility.yul\":1584:1593   */\n      dup4\n        /* \"#utility.yul\":1580:1597   */\n      add\n        /* \"#utility.yul\":1571:1577   */\n      dup5\n        /* \"#utility.yul\":1527:1598   */\n      tag_38\n      jump\t// in\n    tag_75:\n        /* \"#utility.yul\":1383:1605   */\n      swap3\n      swap2\n      pop\n      pop\n      jump\t// out\n        /* \"#utility.yul\":1611:1709   */\n    tag_39:\n        /* \"#utility.yul\":1662:1668   */\n      0x00\n        /* \"#utility.yul\":1696:1701   */\n      dup2\n        /* \"#utility.yul\":1690:1702   */\n      mload\n        /* \"#utility.yul\":1680:1702   */\n      swap1\n      pop\n        /* \"#utility.yul\":1611:1709   */\n      swap2\n      swap1\n      pop\n      jump\t// out\n        /* \"#utility.yul\":1715:1862   */\n    tag_40:\n        /* \"#utility.yul\":1816:1827   */\n      0x00\n        /* \"#utility.yul\":1853:1856   */\n      dup2\n        /* \"#utility.yul\":1838:1856   */\n      swap1\n      pop\n        /* \"#utility.yul\":1715:1862   */\n      swap3\n      swap2\n      pop\n      pop\n      jump\t// out\n        /* \"#utility.yul\":1868:2114   */\n    tag_41:\n        /* \"#utility.yul\":1949:1950   */\n      0x00\n        /* \"#utility.yul\":1959:2072   */\n    tag_79:\n        /* \"#utility.yul\":1973:1979   */\n      dup4\n        /* \"#utility.yul\":1970:1971   */\n      dup2\n        /* \"#utility.yul\":1967:1980   */\n      lt\n        /* \"#utility.yul\":1959:2072   */\n      iszero\n      tag_81\n      jumpi\n        /* \"#utility.yul\":2058:2059   */\n      dup1\n        /* \"#utility.yul\":2053:2056   */\n      dup3\n        /* \"#utility.yul\":2049:2060   */\n      add\n        /* \"#utility.yul\":2043:2061   */\n      mload\n        /* \"#utility.yul\":2039:2040   */\n      dup2\n        /* \"#utility.yul\":2034:2037   */\n      dup5\n        /* \"#utility.yul\":2030:2041   */\n      add\n        /* \"#utility.yul\":2023:2062   */\n      mstore\n        /* \"#utility.yul\":1995:1997   */\n      0x20\n        /* \"#utility.yul\":1992:1993   */\n      dup2\n        /* \"#utility.yul\":1988:1998   */\n      add\n        /* \"#utility.yul\":1983:1998   */\n      swap1\n      pop\n        /* \"#utility.yul\":1959:2072   */\n      jump(tag_79)\n    tag_81:\n        /* \"#utility.yul\":2106:2107   */\n      0x00\n        /* \"#utility.yul\":2097:2103   */\n      dup5\n        /* \"#utility.yul\":2092:2095   */\n      dup5\n        /* \"#utility.yul\":2088:2104   */\n      add\n        /* \"#utility.yul\":2081:2108   */\n      mstore\n        /* \"#utility.yul\":1930:2114   */\n      pop\n        /* \"#utility.yul\":1868:2114   */\n      pop\n      pop\n      pop\n      jump\t// out\n        /* \"#utility.yul\":2120:2506   */\n    tag_42:\n        /* \"#utility.yul\":2224:2227   */\n      0x00\n        /* \"#utility.yul\":2252:2290   */\n      tag_83\n        /* \"#utility.yul\":2284:2289   */\n      dup3\n        /* \"#utility.yul\":2252:2290   */\n      tag_39\n      jump\t// in\n    tag_83:\n        /* \"#utility.yul\":2306:2394   */\n      tag_84\n        /* \"#utility.yul\":2387:2393   */\n      dup2\n        /* \"#utility.yul\":2382:2385   */\n      dup6\n        /* \"#utility.yul\":2306:2394   */\n      tag_40\n      jump\t// in\n    tag_84:\n        /* \"#utility.yul\":2299:2394   */\n      swap4\n      pop\n        /* \"#utility.yul\":2403:2468   */\n      tag_85\n        /* \"#utility.yul\":2461:2467   */\n      dup2\n        /* \"#utility.yul\":2456:2459   */\n      dup6\n        /* \"#utility.yul\":2449:2453   */\n      0x20\n        /* \"#utility.yul\":2442:2447   */\n      dup7\n        /* \"#utility.yul\":2438:2454   */\n      add\n        /* \"#utility.yul\":2403:2468   */\n      tag_41\n      jump\t// in\n    tag_85:\n        /* \"#utility.yul\":2493:2499   */\n      dup1\n        /* \"#utility.yul\":2488:2491   */\n      dup5\n        /* \"#utility.yul\":2484:2500   */\n      add\n        /* \"#utility.yul\":2477:2500   */\n      swap2\n      pop\n        /* \"#utility.yul\":2228:2506   */\n      pop\n        /* \"#utility.yul\":2120:2506   */\n      swap3\n      swap2\n      pop\n      pop\n      jump\t// out\n        /* \"#utility.yul\":2512:2939   */\n    tag_19:\n        /* \"#utility.yul\":2688:2691   */\n      0x00\n        /* \"#utility.yul\":2710:2803   */\n      tag_87\n        /* \"#utility.yul\":2799:2802   */\n      dup3\n        /* \"#utility.yul\":2790:2796   */\n      dup6\n        /* \"#utility.yul\":2710:2803   */\n      tag_42\n      jump\t// in\n    tag_87:\n        /* \"#utility.yul\":2703:2803   */\n      swap2\n      pop\n        /* \"#utility.yul\":2820:2913   */\n      tag_88\n        /* \"#utility.yul\":2909:2912   */\n      dup3\n        /* \"#utility.yul\":2900:2906   */\n      dup5\n        /* \"#utility.yul\":2820:2913   */\n      tag_42\n      jump\t// in\n    tag_88:\n        /* \"#utility.yul\":2813:2913   */\n      swap2\n      pop\n        /* \"#utility.yul\":2930:2933   */\n      dup2\n        /* \"#utility.yul\":2923:2933   */\n      swap1\n      pop\n        /* \"#utility.yul\":2512:2939   */\n      swap4\n      swap3\n      pop\n      pop\n      pop\n      jump\t// out\n        /* \"#utility.yul\":2945:3094   */\n    tag_43:\n        /* \"#utility.yul\":2981:2988   */\n      0x00\n        /* \"#utility.yul\":3021:3087   */\n      0xff00000000000000000000000000000000000000000000000000000000000000\n        /* \"#utility.yul\":3014:3019   */\n      dup3\n        /* \"#utility.yul\":3010:3088   */\n      and\n        /* \"#utility.yul\":2999:3088   */\n      swap1\n      pop\n        /* \"#utility.yul\":2945:3094   */\n      swap2\n      swap1\n      pop\n      jump\t// out\n        /* \"#utility.yul\":3100:3178   */\n    tag_44:\n        /* \"#utility.yul\":3138:3145   */\n      0x00\n        /* \"#utility.yul\":3167:3172   */\n      dup2\n        /* \"#utility.yul\":3156:3172   */\n      swap1\n      pop\n        /* \"#utility.yul\":3100:3178   */\n      swap2\n      swap1\n      pop\n      jump\t// out\n        /* \"#utility.yul\":3184:3337   */\n    tag_45:\n        /* \"#utility.yul\":3287:3330   */\n      tag_92\n        /* \"#utility.yul\":3306:3329   */\n      tag_93\n        /* \"#utility.yul\":3323:3328   */\n      dup3\n        /* \"#utility.yul\":3306:3329   */\n      tag_43\n      jump\t// in\n    tag_93:\n        /* \"#utility.yul\":3287:3330   */\n      tag_44\n      jump\t// in\n    tag_92:\n        /* \"#utility.yul\":3282:3285   */\n      dup3\n        /* \"#utility.yul\":3275:3331   */\n      mstore\n        /* \"#utility.yul\":3184:3337   */\n      pop\n      pop\n      jump\t// out\n        /* \"#utility.yul\":3343:3437   */\n    tag_46:\n        /* \"#utility.yul\":3376:3384   */\n      0x00\n        /* \"#utility.yul\":3424:3429   */\n      dup2\n        /* \"#utility.yul\":3420:3422   */\n      0x60\n        /* \"#utility.yul\":3416:3430   */\n      shl\n        /* \"#utility.yul\":3395:3430   */\n      swap1\n      pop\n        /* \"#utility.yul\":3343:3437   */\n      swap2\n      swap1\n      pop\n      jump\t// out\n        /* \"#utility.yul\":3443:3537   */\n    tag_47:\n        /* \"#utility.yul\":3482:3489   */\n      0x00\n        /* \"#utility.yul\":3511:3531   */\n      tag_96\n        /* \"#utility.yul\":3525:3530   */\n      dup3\n        /* \"#utility.yul\":3511:3531   */\n      tag_46\n      jump\t// in\n    tag_96:\n        /* \"#utility.yul\":3500:3531   */\n      swap1\n      pop\n        /* \"#utility.yul\":3443:3537   */\n      swap2\n      swap1\n      pop\n      jump\t// out\n        /* \"#utility.yul\":3543:3643   */\n    tag_48:\n        /* \"#utility.yul\":3582:3589   */\n      0x00\n        /* \"#utility.yul\":3611:3637   */\n      tag_98\n        /* \"#utility.yul\":3631:3636   */\n      dup3\n        /* \"#utility.yul\":3611:3637   */\n      tag_47\n      jump\t// in\n    tag_98:\n        /* \"#utility.yul\":3600:3637   */\n      swap1\n      pop\n        /* \"#utility.yul\":3543:3643   */\n      swap2\n      swap1\n      pop\n      jump\t// out\n        /* \"#utility.yul\":3649:3806   */\n    tag_49:\n        /* \"#utility.yul\":3754:3799   */\n      tag_100\n        /* \"#utility.yul\":3774:3798   */\n      tag_101\n        /* \"#utility.yul\":3792:3797   */\n      dup3\n        /* \"#utility.yul\":3774:3798   */\n      tag_37\n      jump\t// in\n    tag_101:\n        /* \"#utility.yul\":3754:3799   */\n      tag_48\n      jump\t// in\n    tag_100:\n        /* \"#utility.yul\":3749:3752   */\n      dup3\n        /* \"#utility.yul\":3742:3800   */\n      mstore\n        /* \"#utility.yul\":3649:3806   */\n      pop\n      pop\n      jump\t// out\n        /* \"#utility.yul\":3812:3891   */\n    tag_50:\n        /* \"#utility.yul\":3851:3858   */\n      0x00\n        /* \"#utility.yul\":3880:3885   */\n      dup2\n        /* \"#utility.yul\":3869:3885   */\n      swap1\n      pop\n        /* \"#utility.yul\":3812:3891   */\n      swap2\n      swap1\n      pop\n      jump\t// out\n        /* \"#utility.yul\":3897:4054   */\n    tag_51:\n        /* \"#utility.yul\":4002:4047   */\n      tag_104\n        /* \"#utility.yul\":4022:4046   */\n      tag_105\n        /* \"#utility.yul\":4040:4045   */\n      dup3\n        /* \"#utility.yul\":4022:4046   */\n      tag_33\n      jump\t// in\n    tag_105:\n        /* \"#utility.yul\":4002:4047   */\n      tag_50\n      jump\t// in\n    tag_104:\n        /* \"#utility.yul\":3997:4000   */\n      dup3\n        /* \"#utility.yul\":3990:4048   */\n      mstore\n        /* \"#utility.yul\":3897:4054   */\n      pop\n      pop\n      jump\t// out\n        /* \"#utility.yul\":4060:4734   */\n    tag_21:\n        /* \"#utility.yul\":4254:4257   */\n      0x00\n        /* \"#utility.yul\":4269:4342   */\n      tag_107\n        /* \"#utility.yul\":4338:4341   */\n      dup3\n        /* \"#utility.yul\":4329:4335   */\n      dup8\n        /* \"#utility.yul\":4269:4342   */\n      tag_45\n      jump\t// in\n    tag_107:\n        /* \"#utility.yul\":4367:4368   */\n      0x01\n        /* \"#utility.yul\":4362:4365   */\n      dup3\n        /* \"#utility.yul\":4358:4369   */\n      add\n        /* \"#utility.yul\":4351:4369   */\n      swap2\n      pop\n        /* \"#utility.yul\":4379:4454   */\n      tag_108\n        /* \"#utility.yul\":4450:4453   */\n      dup3\n        /* \"#utility.yul\":4441:4447   */\n      dup7\n        /* \"#utility.yul\":4379:4454   */\n      tag_49\n      jump\t// in\n    tag_108:\n        /* \"#utility.yul\":4479:4481   */\n      0x14\n        /* \"#utility.yul\":4474:4477   */\n      dup3\n        /* \"#utility.yul\":4470:4482   */\n      add\n        /* \"#utility.yul\":4463:4482   */\n      swap2\n      pop\n        /* \"#utility.yul\":4492:4567   */\n      tag_109\n        /* \"#utility.yul\":4563:4566   */\n      dup3\n        /* \"#utility.yul\":4554:4560   */\n      dup6\n        /* \"#utility.yul\":4492:4567   */\n      tag_51\n      jump\t// in\n    tag_109:\n        /* \"#utility.yul\":4592:4594   */\n      0x20\n        /* \"#utility.yul\":4587:4590   */\n      dup3\n        /* \"#utility.yul\":4583:4595   */\n      add\n        /* \"#utility.yul\":4576:4595   */\n      swap2\n      pop\n        /* \"#utility.yul\":4605:4680   */\n      tag_110\n        /* \"#utility.yul\":4676:4679   */\n      dup3\n        /* \"#utility.yul\":4667:4673   */\n      dup5\n        /* \"#utility.yul\":4605:4680   */\n      tag_51\n      jump\t// in\n    tag_110:\n        /* \"#utility.yul\":4705:4707   */\n      0x20\n        /* \"#utility.yul\":4700:4703   */\n      dup3\n        /* \"#utility.yul\":4696:4708   */\n      add\n        /* \"#utility.yul\":4689:4708   */\n      swap2\n      pop\n        /* \"#utility.yul\":4725:4728   */\n      dup2\n        /* \"#utility.yul\":4718:4728   */\n      swap1\n      pop\n        /* \"#utility.yul\":4060:4734   */\n      swap6\n      swap5\n      pop\n      pop\n      pop\n      pop\n      pop\n      jump\t// out\n        /* \"#utility.yul\":4740:4909   */\n    tag_52:\n        /* \"#utility.yul\":4824:4835   */\n      0x00\n        /* \"#utility.yul\":4858:4864   */\n      dup3\n        /* \"#utility.yul\":4853:4856   */\n      dup3\n        /* \"#utility.yul\":4846:4865   */\n      mstore\n        /* \"#utility.yul\":4898:4902   */\n      0x20\n        /* \"#utility.yul\":4893:4896   */\n      dup3\n        /* \"#utility.yul\":4889:4903   */\n      add\n        /* \"#utility.yul\":4874:4903   */\n      swap1\n      pop\n        /* \"#utility.yul\":4740:4909   */\n      swap3\n      swap2\n      pop\n      pop\n      jump\t// out\n        /* \"#utility.yul\":4915:5082   */\n    tag_53:\n        /* \"#utility.yul\":5055:5074   */\n      0x41646472657373206d69736d6174636821000000000000000000000000000000\n        /* \"#utility.yul\":5051:5052   */\n      0x00\n        /* \"#utility.yul\":5043:5049   */\n      dup3\n        /* \"#utility.yul\":5039:5053   */\n      add\n        /* \"#utility.yul\":5032:5075   */\n      mstore\n        /* \"#utility.yul\":4915:5082   */\n      pop\n      jump\t// out\n        /* \"#utility.yul\":5088:5454   */\n    tag_54:\n        /* \"#utility.yul\":5230:5233   */\n      0x00\n        /* \"#utility.yul\":5251:5318   */\n      tag_114\n        /* \"#utility.yul\":5315:5317   */\n      0x11\n        /* \"#utility.yul\":5310:5313   */\n      dup4\n        /* \"#utility.yul\":5251:5318   */\n      tag_52\n      jump\t// in\n    tag_114:\n        /* \"#utility.yul\":5244:5318   */\n      swap2\n      pop\n        /* \"#utility.yul\":5327:5420   */\n      tag_115\n        /* \"#utility.yul\":5416:5419   */\n      dup3\n        /* \"#utility.yul\":5327:5420   */\n      tag_53\n      jump\t// in\n    tag_115:\n        /* \"#utility.yul\":5445:5447   */\n      0x20\n        /* \"#utility.yul\":5440:5443   */\n      dup3\n        /* \"#utility.yul\":5436:5448   */\n      add\n        /* \"#utility.yul\":5429:5448   */\n      swap1\n      pop\n        /* \"#utility.yul\":5088:5454   */\n      swap2\n      swap1\n      pop\n      jump\t// out\n        /* \"#utility.yul\":5460:5879   */\n    tag_29:\n        /* \"#utility.yul\":5626:5630   */\n      0x00\n        /* \"#utility.yul\":5664:5666   */\n      0x20\n        /* \"#utility.yul\":5653:5662   */\n      dup3\n        /* \"#utility.yul\":5649:5667   */\n      add\n        /* \"#utility.yul\":5641:5667   */\n      swap1\n      pop\n        /* \"#utility.yul\":5713:5722   */\n      dup2\n        /* \"#utility.yul\":5707:5711   */\n      dup2\n        /* \"#utility.yul\":5703:5723   */\n      sub\n        /* \"#utility.yul\":5699:5700   */\n      0x00\n        /* \"#utility.yul\":5688:5697   */\n      dup4\n        /* \"#utility.yul\":5684:5701   */\n      add\n        /* \"#utility.yul\":5677:5724   */\n      mstore\n        /* \"#utility.yul\":5741:5872   */\n      tag_117\n        /* \"#utility.yul\":5867:5871   */\n      dup2\n        /* \"#utility.yul\":5741:5872   */\n      tag_54\n      jump\t// in\n    tag_117:\n        /* \"#utility.yul\":5733:5872   */\n      swap1\n      pop\n        /* \"#utility.yul\":5460:5879   */\n      swap2\n      swap1\n      pop\n      jump\t// out\n    stop\n\n    sub_0: assembly {\n            /* \"contracts/Create2.sol\":933:1046  contract MyContract {... */\n          mstore(0x40, 0x80)\n            /* \"contracts/Create2.sol\":985:1044  constructor(address _owner) {... */\n          callvalue\n          dup1\n          iszero\n          tag_1\n          jumpi\n          0x00\n          dup1\n          revert\n        tag_1:\n          pop\n          mload(0x40)\n          sub(codesize, bytecodeSize)\n          dup1\n          bytecodeSize\n          dup4\n          codecopy\n          dup2\n          dup2\n          add\n          0x40\n          mstore\n          dup2\n          add\n          swap1\n          tag_2\n          swap2\n          swap1\n          tag_3\n          jump\t// in\n        tag_2:\n            /* \"contracts/Create2.sol\":1031:1037  _owner */\n          dup1\n            /* \"contracts/Create2.sol\":1023:1028  owner */\n          0x00\n          dup1\n            /* \"contracts/Create2.sol\":1023:1037  owner = _owner */\n          0x0100\n          exp\n          dup2\n          sload\n          dup2\n          0xffffffffffffffffffffffffffffffffffffffff\n          mul\n          not\n          and\n          swap1\n          dup4\n          0xffffffffffffffffffffffffffffffffffffffff\n          and\n          mul\n          or\n          swap1\n          sstore\n          pop\n            /* \"contracts/Create2.sol\":985:1044  constructor(address _owner) {... */\n          pop\n            /* \"contracts/Create2.sol\":933:1046  contract MyContract {... */\n          jump(tag_6)\n            /* \"#utility.yul\":88:205   */\n        tag_8:\n            /* \"#utility.yul\":197:198   */\n          0x00\n            /* \"#utility.yul\":194:195   */\n          dup1\n            /* \"#utility.yul\":187:199   */\n          revert\n            /* \"#utility.yul\":334:460   */\n        tag_10:\n            /* \"#utility.yul\":371:378   */\n          0x00\n            /* \"#utility.yul\":411:453   */\n          0xffffffffffffffffffffffffffffffffffffffff\n            /* \"#utility.yul\":404:409   */\n          dup3\n            /* \"#utility.yul\":400:454   */\n          and\n            /* \"#utility.yul\":389:454   */\n          swap1\n          pop\n            /* \"#utility.yul\":334:460   */\n          swap2\n          swap1\n          pop\n          jump\t// out\n            /* \"#utility.yul\":466:562   */\n        tag_11:\n            /* \"#utility.yul\":503:510   */\n          0x00\n            /* \"#utility.yul\":532:556   */\n          tag_20\n            /* \"#utility.yul\":550:555   */\n          dup3\n            /* \"#utility.yul\":532:556   */\n          tag_10\n          jump\t// in\n        tag_20:\n            /* \"#utility.yul\":521:556   */\n          swap1\n          pop\n            /* \"#utility.yul\":466:562   */\n          swap2\n          swap1\n          pop\n          jump\t// out\n            /* \"#utility.yul\":568:690   */\n        tag_12:\n            /* \"#utility.yul\":641:665   */\n          tag_22\n            /* \"#utility.yul\":659:664   */\n          dup2\n            /* \"#utility.yul\":641:665   */\n          tag_11\n          jump\t// in\n        tag_22:\n            /* \"#utility.yul\":634:639   */\n          dup2\n            /* \"#utility.yul\":631:666   */\n          eq\n            /* \"#utility.yul\":621:684   */\n          tag_23\n          jumpi\n            /* \"#utility.yul\":680:681   */\n          0x00\n            /* \"#utility.yul\":677:678   */\n          dup1\n            /* \"#utility.yul\":670:682   */\n          revert\n            /* \"#utility.yul\":621:684   */\n        tag_23:\n            /* \"#utility.yul\":568:690   */\n          pop\n          jump\t// out\n            /* \"#utility.yul\":696:839   */\n        tag_13:\n            /* \"#utility.yul\":753:758   */\n          0x00\n            /* \"#utility.yul\":784:790   */\n          dup2\n            /* \"#utility.yul\":778:791   */\n          mload\n            /* \"#utility.yul\":769:791   */\n          swap1\n          pop\n            /* \"#utility.yul\":800:833   */\n          tag_25\n            /* \"#utility.yul\":827:832   */\n          dup2\n            /* \"#utility.yul\":800:833   */\n          tag_12\n          jump\t// in\n        tag_25:\n            /* \"#utility.yul\":696:839   */\n          swap3\n          swap2\n          pop\n          pop\n          jump\t// out\n            /* \"#utility.yul\":845:1196   */\n        tag_3:\n            /* \"#utility.yul\":915:921   */\n          0x00\n            /* \"#utility.yul\":964:966   */\n          0x20\n            /* \"#utility.yul\":952:961   */\n          dup3\n            /* \"#utility.yul\":943:950   */\n          dup5\n            /* \"#utility.yul\":939:962   */\n          sub\n            /* \"#utility.yul\":935:967   */\n          slt\n            /* \"#utility.yul\":932:1051   */\n          iszero\n          tag_27\n          jumpi\n            /* \"#utility.yul\":970:1049   */\n          tag_28\n          tag_8\n          jump\t// in\n        tag_28:\n            /* \"#utility.yul\":932:1051   */\n        tag_27:\n            /* \"#utility.yul\":1090:1091   */\n          0x00\n            /* \"#utility.yul\":1115:1179   */\n          tag_29\n            /* \"#utility.yul\":1171:1178   */\n          dup5\n            /* \"#utility.yul\":1162:1168   */\n          dup3\n            /* \"#utility.yul\":1151:1160   */\n          dup6\n            /* \"#utility.yul\":1147:1169   */\n          add\n            /* \"#utility.yul\":1115:1179   */\n          tag_13\n          jump\t// in\n        tag_29:\n            /* \"#utility.yul\":1105:1179   */\n          swap2\n          pop\n            /* \"#utility.yul\":1061:1189   */\n          pop\n            /* \"#utility.yul\":845:1196   */\n          swap3\n          swap2\n          pop\n          pop\n          jump\t// out\n            /* \"contracts/Create2.sol\":933:1046  contract MyContract {... */\n        tag_6:\n          dataSize(sub_0)\n          dup1\n          dataOffset(sub_0)\n          0x00\n          codecopy\n          0x00\n          return\n        stop\n\n        sub_0: assembly {\n                /* \"contracts/Create2.sol\":933:1046  contract MyContract {... */\n              mstore(0x40, 0x80)\n              callvalue\n              dup1\n              iszero\n              tag_1\n              jumpi\n              0x00\n              dup1\n              revert\n            tag_1:\n              pop\n              jumpi(tag_2, lt(calldatasize, 0x04))\n              shr(0xe0, calldataload(0x00))\n              dup1\n              0x8da5cb5b\n              eq\n              tag_3\n              jumpi\n            tag_2:\n              0x00\n              dup1\n              revert\n                /* \"contracts/Create2.sol\":959:979  address public owner */\n            tag_3:\n              tag_4\n              tag_5\n              jump\t// in\n            tag_4:\n              mload(0x40)\n              tag_6\n              swap2\n              swap1\n              tag_7\n              jump\t// in\n            tag_6:\n              mload(0x40)\n              dup1\n              swap2\n              sub\n              swap1\n              return\n            tag_5:\n              0x00\n              dup1\n              sload\n              swap1\n              0x0100\n              exp\n              swap1\n              div\n              0xffffffffffffffffffffffffffffffffffffffff\n              and\n              dup2\n              jump\t// out\n                /* \"#utility.yul\":7:133   */\n            tag_8:\n                /* \"#utility.yul\":44:51   */\n              0x00\n                /* \"#utility.yul\":84:126   */\n              0xffffffffffffffffffffffffffffffffffffffff\n                /* \"#utility.yul\":77:82   */\n              dup3\n                /* \"#utility.yul\":73:127   */\n              and\n                /* \"#utility.yul\":62:127   */\n              swap1\n              pop\n                /* \"#utility.yul\":7:133   */\n              swap2\n              swap1\n              pop\n              jump\t// out\n                /* \"#utility.yul\":139:235   */\n            tag_9:\n                /* \"#utility.yul\":176:183   */\n              0x00\n                /* \"#utility.yul\":205:229   */\n              tag_14\n                /* \"#utility.yul\":223:228   */\n              dup3\n                /* \"#utility.yul\":205:229   */\n              tag_8\n              jump\t// in\n            tag_14:\n                /* \"#utility.yul\":194:229   */\n              swap1\n              pop\n                /* \"#utility.yul\":139:235   */\n              swap2\n              swap1\n              pop\n              jump\t// out\n                /* \"#utility.yul\":241:359   */\n            tag_10:\n                /* \"#utility.yul\":328:352   */\n              tag_16\n                /* \"#utility.yul\":346:351   */\n              dup2\n                /* \"#utility.yul\":328:352   */\n              tag_9\n              jump\t// in\n            tag_16:\n                /* \"#utility.yul\":323:326   */\n              dup3\n                /* \"#utility.yul\":316:353   */\n              mstore\n                /* \"#utility.yul\":241:359   */\n              pop\n              pop\n              jump\t// out\n                /* \"#utility.yul\":365:587   */\n            tag_7:\n                /* \"#utility.yul\":458:462   */\n              0x00\n                /* \"#utility.yul\":496:498   */\n              0x20\n                /* \"#utility.yul\":485:494   */\n              dup3\n                /* \"#utility.yul\":481:499   */\n              add\n                /* \"#utility.yul\":473:499   */\n              swap1\n              pop\n                /* \"#utility.yul\":509:580   */\n              tag_18\n                /* \"#utility.yul\":577:578   */\n              0x00\n                /* \"#utility.yul\":566:575   */\n              dup4\n                /* \"#utility.yul\":562:579   */\n              add\n                /* \"#utility.yul\":553:559   */\n              dup5\n                /* \"#utility.yul\":509:580   */\n              tag_10\n              jump\t// in\n            tag_18:\n                /* \"#utility.yul\":365:587   */\n              swap3\n              swap2\n              pop\n              pop\n              jump\t// out\n\n            auxdata: 0xa2646970667358221220b471d20a2501416c98020e18c569236a1ed8cb2e208b74b5f4ba37f05185474264736f6c63430008170033\n        }\n    }\n\n    auxdata: 0xa26469706673582212209bc2d7d5a2b10fb4943c726c1689129e3370548b4925ca32b15da22127dd538364736f6c63430008170033\n}\n",
				"bytecode": {
					"linkReferences": {},
					"object": "608060405234801561000f575f80fd5b506107248061001d5f395ff3fe608060405234801561000f575f80fd5b5060043610610034575f3560e01c806321f8a721146100385780632b85ba3814610068575b5f80fd5b610052600480360381019061004d919061026d565b610084565b60405161005f91906102d7565b60405180910390f35b610082600480360381019061007d919061026d565b61012e565b005b5f8060ff60f81b30846040518060200161009d90610229565b6020820181038252601f19601f82011660405250336040516020016100c291906102d7565b6040516020818303038152906040526040516020016100e292919061035c565b6040516020818303038152906040528051906020012060405160200161010b949392919061042f565b604051602081830303815290604052805190602001209050805f1c915050919050565b5f61013882610084565b90505f823360405161014990610229565b61015391906102d7565b8190604051809103905ff5905080158015610170573d5f803e3d5ffd5b5090508073ffffffffffffffffffffffffffffffffffffffff167f55ea6c6b31543d8e2ec6a72f71a79c0f4b72ed0d4757172b043d8f4f4cd8484860405160405180910390a28173ffffffffffffffffffffffffffffffffffffffff168173ffffffffffffffffffffffffffffffffffffffff1614610224576040517f08c379a000000000000000000000000000000000000000000000000000000000815260040161021b906104d6565b60405180910390fd5b505050565b6101fa806104f583390190565b5f80fd5b5f819050919050565b61024c8161023a565b8114610256575f80fd5b50565b5f8135905061026781610243565b92915050565b5f6020828403121561028257610281610236565b5b5f61028f84828501610259565b91505092915050565b5f73ffffffffffffffffffffffffffffffffffffffff82169050919050565b5f6102c182610298565b9050919050565b6102d1816102b7565b82525050565b5f6020820190506102ea5f8301846102c8565b92915050565b5f81519050919050565b5f81905092915050565b5f5b83811015610321578082015181840152602081019050610306565b5f8484015250505050565b5f610336826102f0565b61034081856102fa565b9350610350818560208601610304565b80840191505092915050565b5f610367828561032c565b9150610373828461032c565b91508190509392505050565b5f7fff0000000000000000000000000000000000000000000000000000000000000082169050919050565b5f819050919050565b6103c46103bf8261037f565b6103aa565b82525050565b5f8160601b9050919050565b5f6103e0826103ca565b9050919050565b5f6103f1826103d6565b9050919050565b610409610404826102b7565b6103e7565b82525050565b5f819050919050565b6104296104248261023a565b61040f565b82525050565b5f61043a82876103b3565b60018201915061044a82866103f8565b60148201915061045a8285610418565b60208201915061046a8284610418565b60208201915081905095945050505050565b5f82825260208201905092915050565b7f41646472657373206d69736d61746368210000000000000000000000000000005f82015250565b5f6104c060118361047c565b91506104cb8261048c565b602082019050919050565b5f6020820190508181035f8301526104ed816104b4565b905091905056fe608060405234801561000f575f80fd5b506040516101fa3803806101fa833981810160405281019061003191906100d4565b805f806101000a81548173ffffffffffffffffffffffffffffffffffffffff021916908373ffffffffffffffffffffffffffffffffffffffff160217905550506100ff565b5f80fd5b5f73ffffffffffffffffffffffffffffffffffffffff82169050919050565b5f6100a38261007a565b9050919050565b6100b381610099565b81146100bd575f80fd5b50565b5f815190506100ce816100aa565b92915050565b5f602082840312156100e9576100e8610076565b5b5f6100f6848285016100c0565b91505092915050565b60ef8061010b5f395ff3fe6080604052348015600e575f80fd5b50600436106026575f3560e01c80638da5cb5b14602a575b5f80fd5b60306044565b604051603b919060a2565b60405180910390f35b5f8054906101000a900473ffffffffffffffffffffffffffffffffffffffff1681565b5f73ffffffffffffffffffffffffffffffffffffffff82169050919050565b5f608e826067565b9050919050565b609c816086565b82525050565b5f60208201905060b35f8301846095565b9291505056fea2646970667358221220b471d20a2501416c98020e18c569236a1ed8cb2e208b74b5f4ba37f05185474264736f6c63430008170033a26469706673582212209bc2d7d5a2b10fb4943c726c1689129e3370548b4925ca32b15da22127dd538364736f6c63430008170033",
					"opcodes": "PUSH1 0x80 PUSH1 0x40 MSTORE CALLVALUE DUP1 ISZERO PUSH2 0xF JUMPI PUSH0 DUP1 REVERT JUMPDEST POP PUSH2 0x724 DUP1 PUSH2 0x1D PUSH0 CODECOPY PUSH0 RETURN INVALID PUSH1 0x80 PUSH1 0x40 MSTORE CALLVALUE DUP1 ISZERO PUSH2 0xF JUMPI PUSH0 DUP1 REVERT JUMPDEST POP PUSH1 0x4 CALLDATASIZE LT PUSH2 0x34 JUMPI PUSH0 CALLDATALOAD PUSH1 0xE0 SHR DUP1 PUSH4 0x21F8A721 EQ PUSH2 0x38 JUMPI DUP1 PUSH4 0x2B85BA38 EQ PUSH2 0x68 JUMPI JUMPDEST PUSH0 DUP1 REVERT JUMPDEST PUSH2 0x52 PUSH1 0x4 DUP1 CALLDATASIZE SUB DUP2 ADD SWAP1 PUSH2 0x4D SWAP2 SWAP1 PUSH2 0x26D JUMP JUMPDEST PUSH2 0x84 JUMP JUMPDEST PUSH1 0x40 MLOAD PUSH2 0x5F SWAP2 SWAP1 PUSH2 0x2D7 JUMP JUMPDEST PUSH1 0x40 MLOAD DUP1 SWAP2 SUB SWAP1 RETURN JUMPDEST PUSH2 0x82 PUSH1 0x4 DUP1 CALLDATASIZE SUB DUP2 ADD SWAP1 PUSH2 0x7D SWAP2 SWAP1 PUSH2 0x26D JUMP JUMPDEST PUSH2 0x12E JUMP JUMPDEST STOP JUMPDEST PUSH0 DUP1 PUSH1 0xFF PUSH1 0xF8 SHL ADDRESS DUP5 PUSH1 0x40 MLOAD DUP1 PUSH1 0x20 ADD PUSH2 0x9D SWAP1 PUSH2 0x229 JUMP JUMPDEST PUSH1 0x20 DUP3 ADD DUP2 SUB DUP3 MSTORE PUSH1 0x1F NOT PUSH1 0x1F DUP3 ADD AND PUSH1 0x40 MSTORE POP CALLER PUSH1 0x40 MLOAD PUSH1 0x20 ADD PUSH2 0xC2 SWAP2 SWAP1 PUSH2 0x2D7 JUMP JUMPDEST PUSH1 0x40 MLOAD PUSH1 0x20 DUP2 DUP4 SUB SUB DUP2 MSTORE SWAP1 PUSH1 0x40 MSTORE PUSH1 0x40 MLOAD PUSH1 0x20 ADD PUSH2 0xE2 SWAP3 SWAP2 SWAP1 PUSH2 0x35C JUMP JUMPDEST PUSH1 0x40 MLOAD PUSH1 0x20 DUP2 DUP4 SUB SUB DUP2 MSTORE SWAP1 PUSH1 0x40 MSTORE DUP1 MLOAD SWAP1 PUSH1 0x20 ADD KECCAK256 PUSH1 0x40 MLOAD PUSH1 0x20 ADD PUSH2 0x10B SWAP5 SWAP4 SWAP3 SWAP2 SWAP1 PUSH2 0x42F JUMP JUMPDEST PUSH1 0x40 MLOAD PUSH1 0x20 DUP2 DUP4 SUB SUB DUP2 MSTORE SWAP1 PUSH1 0x40 MSTORE DUP1 MLOAD SWAP1 PUSH1 0x20 ADD KECCAK256 SWAP1 POP DUP1 PUSH0 SHR SWAP2 POP POP SWAP2 SWAP1 POP JUMP JUMPDEST PUSH0 PUSH2 0x138 DUP3 PUSH2 0x84 JUMP JUMPDEST SWAP1 POP PUSH0 DUP3 CALLER PUSH1 0x40 MLOAD PUSH2 0x149 SWAP1 PUSH2 0x229 JUMP JUMPDEST PUSH2 0x153 SWAP2 SWAP1 PUSH2 0x2D7 JUMP JUMPDEST DUP2 SWAP1 PUSH1 0x40 MLOAD DUP1 SWAP2 SUB SWAP1 PUSH0 CREATE2 SWAP1 POP DUP1 ISZERO DUP1 ISZERO PUSH2 0x170 JUMPI RETURNDATASIZE PUSH0 DUP1 RETURNDATACOPY RETURNDATASIZE PUSH0 REVERT JUMPDEST POP SWAP1 POP DUP1 PUSH20 0xFFFFFFFFFFFFFFFFFFFFFFFFFFFFFFFFFFFFFFFF AND PUSH32 0x55EA6C6B31543D8E2EC6A72F71A79C0F4B72ED0D4757172B043D8F4F4CD84848 PUSH1 0x40 MLOAD PUSH1 0x40 MLOAD DUP1 SWAP2 SUB SWAP1 LOG2 DUP2 PUSH20 0xFFFFFFFFFFFFFFFFFFFFFFFFFFFFFFFFFFFFFFFF AND DUP2 PUSH20 0xFFFFFFFFFFFFFFFFFFFFFFFFFFFFFFFFFFFFFFFF AND EQ PUSH2 0x224 JUMPI PUSH1 0x40 MLOAD PUSH32 0x8C379A000000000000000000000000000000000000000000000000000000000 DUP2 MSTORE PUSH1 0x4 ADD PUSH2 0x21B SWAP1 PUSH2 0x4D6 JUMP JUMPDEST PUSH1 0x40 MLOAD DUP1 SWAP2 SUB SWAP1 REVERT JUMPDEST POP POP POP JUMP JUMPDEST PUSH2 0x1FA DUP1 PUSH2 0x4F5 DUP4 CODECOPY ADD SWAP1 JUMP JUMPDEST PUSH0 DUP1 REVERT JUMPDEST PUSH0 DUP2 SWAP1 POP SWAP2 SWAP1 POP JUMP JUMPDEST PUSH2 0x24C DUP2 PUSH2 0x23A JUMP JUMPDEST DUP2 EQ PUSH2 0x256 JUMPI PUSH0 DUP1 REVERT JUMPDEST POP JUMP JUMPDEST PUSH0 DUP2 CALLDATALOAD SWAP1 POP PUSH2 0x267 DUP2 PUSH2 0x243 JUMP JUMPDEST SWAP3 SWAP2 POP POP JUMP JUMPDEST PUSH0 PUSH1 0x20 DUP3 DUP5 SUB SLT ISZERO PUSH2 0x282 JUMPI PUSH2 0x281 PUSH2 0x236 JUMP JUMPDEST JUMPDEST PUSH0 PUSH2 0x28F DUP5 DUP3 DUP6 ADD PUSH2 0x259 JUMP JUMPDEST SWAP2 POP POP SWAP3 SWAP2 POP POP JUMP JUMPDEST PUSH0 PUSH20 0xFFFFFFFFFFFFFFFFFFFFFFFFFFFFFFFFFFFFFFFF DUP3 AND SWAP1 POP SWAP2 SWAP1 POP JUMP JUMPDEST PUSH0 PUSH2 0x2C1 DUP3 PUSH2 0x298 JUMP JUMPDEST SWAP1 POP SWAP2 SWAP1 POP JUMP JUMPDEST PUSH2 0x2D1 DUP2 PUSH2 0x2B7 JUMP JUMPDEST DUP3 MSTORE POP POP JUMP JUMPDEST PUSH0 PUSH1 0x20 DUP3 ADD SWAP1 POP PUSH2 0x2EA PUSH0 DUP4 ADD DUP5 PUSH2 0x2C8 JUMP JUMPDEST SWAP3 SWAP2 POP POP JUMP JUMPDEST PUSH0 DUP2 MLOAD SWAP1 POP SWAP2 SWAP1 POP JUMP JUMPDEST PUSH0 DUP2 SWAP1 POP SWAP3 SWAP2 POP POP JUMP JUMPDEST PUSH0 JUMPDEST DUP4 DUP2 LT ISZERO PUSH2 0x321 JUMPI DUP1 DUP3 ADD MLOAD DUP2 DUP5 ADD MSTORE PUSH1 0x20 DUP2 ADD SWAP1 POP PUSH2 0x306 JUMP JUMPDEST PUSH0 DUP5 DUP5 ADD MSTORE POP POP POP POP JUMP JUMPDEST PUSH0 PUSH2 0x336 DUP3 PUSH2 0x2F0 JUMP JUMPDEST PUSH2 0x340 DUP2 DUP6 PUSH2 0x2FA JUMP JUMPDEST SWAP4 POP PUSH2 0x350 DUP2 DUP6 PUSH1 0x20 DUP7 ADD PUSH2 0x304 JUMP JUMPDEST DUP1 DUP5 ADD SWAP2 POP POP SWAP3 SWAP2 POP POP JUMP JUMPDEST PUSH0 PUSH2 0x367 DUP3 DUP6 PUSH2 0x32C JUMP JUMPDEST SWAP2 POP PUSH2 0x373 DUP3 DUP5 PUSH2 0x32C JUMP JUMPDEST SWAP2 POP DUP2 SWAP1 POP SWAP4 SWAP3 POP POP POP JUMP JUMPDEST PUSH0 PUSH32 0xFF00000000000000000000000000000000000000000000000000000000000000 DUP3 AND SWAP1 POP SWAP2 SWAP1 POP JUMP JUMPDEST PUSH0 DUP2 SWAP1 POP SWAP2 SWAP1 POP JUMP JUMPDEST PUSH2 0x3C4 PUSH2 0x3BF DUP3 PUSH2 0x37F JUMP JUMPDEST PUSH2 0x3AA JUMP JUMPDEST DUP3 MSTORE POP POP JUMP JUMPDEST PUSH0 DUP2 PUSH1 0x60 SHL SWAP1 POP SWAP2 SWAP1 POP JUMP JUMPDEST PUSH0 PUSH2 0x3E0 DUP3 PUSH2 0x3CA JUMP JUMPDEST SWAP1 POP SWAP2 SWAP1 POP JUMP JUMPDEST PUSH0 PUSH2 0x3F1 DUP3 PUSH2 0x3D6 JUMP JUMPDEST SWAP1 POP SWAP2 SWAP1 POP JUMP JUMPDEST PUSH2 0x409 PUSH2 0x404 DUP3 PUSH2 0x2B7 JUMP JUMPDEST PUSH2 0x3E7 JUMP JUMPDEST DUP3 MSTORE POP POP JUMP JUMPDEST PUSH0 DUP2 SWAP1 POP SWAP2 SWAP1 POP JUMP JUMPDEST PUSH2 0x429 PUSH2 0x424 DUP3 PUSH2 0x23A JUMP JUMPDEST PUSH2 0x40F JUMP JUMPDEST DUP3 MSTORE POP POP JUMP JUMPDEST PUSH0 PUSH2 0x43A DUP3 DUP8 PUSH2 0x3B3 JUMP JUMPDEST PUSH1 0x1 DUP3 ADD SWAP2 POP PUSH2 0x44A DUP3 DUP7 PUSH2 0x3F8 JUMP JUMPDEST PUSH1 0x14 DUP3 ADD SWAP2 POP PUSH2 0x45A DUP3 DUP6 PUSH2 0x418 JUMP JUMPDEST PUSH1 0x20 DUP3 ADD SWAP2 POP PUSH2 0x46A DUP3 DUP5 PUSH2 0x418 JUMP JUMPDEST PUSH1 0x20 DUP3 ADD SWAP2 POP DUP2 SWAP1 POP SWAP6 SWAP5 POP POP POP POP POP JUMP JUMPDEST PUSH0 DUP3 DUP3 MSTORE PUSH1 0x20 DUP3 ADD SWAP1 POP SWAP3 SWAP2 POP POP JUMP JUMPDEST PUSH32 0x41646472657373206D69736D6174636821000000000000000000000000000000 PUSH0 DUP3 ADD MSTORE POP JUMP JUMPDEST PUSH0 PUSH2 0x4C0 PUSH1 0x11 DUP4 PUSH2 0x47C JUMP JUMPDEST SWAP2 POP PUSH2 0x4CB DUP3 PUSH2 0x48C JUMP JUMPDEST PUSH1 0x20 DUP3 ADD SWAP1 POP SWAP2 SWAP1 POP JUMP JUMPDEST PUSH0 PUSH1 0x20 DUP3 ADD SWAP1 POP DUP2 DUP2 SUB PUSH0 DUP4 ADD MSTORE PUSH2 0x4ED DUP2 PUSH2 0x4B4 JUMP JUMPDEST SWAP1 POP SWAP2 SWAP1 POP JUMP INVALID PUSH1 0x80 PUSH1 0x40 MSTORE CALLVALUE DUP1 ISZERO PUSH2 0xF JUMPI PUSH0 DUP1 REVERT JUMPDEST POP PUSH1 0x40 MLOAD PUSH2 0x1FA CODESIZE SUB DUP1 PUSH2 0x1FA DUP4 CODECOPY DUP2 DUP2 ADD PUSH1 0x40 MSTORE DUP2 ADD SWAP1 PUSH2 0x31 SWAP2 SWAP1 PUSH2 0xD4 JUMP JUMPDEST DUP1 PUSH0 DUP1 PUSH2 0x100 EXP DUP2 SLOAD DUP2 PUSH20 0xFFFFFFFFFFFFFFFFFFFFFFFFFFFFFFFFFFFFFFFF MUL NOT AND SWAP1 DUP4 PUSH20 0xFFFFFFFFFFFFFFFFFFFFFFFFFFFFFFFFFFFFFFFF AND MUL OR SWAP1 SSTORE POP POP PUSH2 0xFF JUMP JUMPDEST PUSH0 DUP1 REVERT JUMPDEST PUSH0 PUSH20 0xFFFFFFFFFFFFFFFFFFFFFFFFFFFFFFFFFFFFFFFF DUP3 AND SWAP1 POP SWAP2 SWAP1 POP JUMP JUMPDEST PUSH0 PUSH2 0xA3 DUP3 PUSH2 0x7A JUMP JUMPDEST SWAP1 POP SWAP2 SWAP1 POP JUMP JUMPDEST PUSH2 0xB3 DUP2 PUSH2 0x99 JUMP JUMPDEST DUP2 EQ PUSH2 0xBD JUMPI PUSH0 DUP1 REVERT JUMPDEST POP JUMP JUMPDEST PUSH0 DUP2 MLOAD SWAP1 POP PUSH2 0xCE DUP2 PUSH2 0xAA JUMP JUMPDEST SWAP3 SWAP2 POP POP JUMP JUMPDEST PUSH0 PUSH1 0x20 DUP3 DUP5 SUB SLT ISZERO PUSH2 0xE9 JUMPI PUSH2 0xE8 PUSH2 0x76 JUMP JUMPDEST JUMPDEST PUSH0 PUSH2 0xF6 DUP5 DUP3 DUP6 ADD PUSH2 0xC0 JUMP JUMPDEST SWAP2 POP POP SWAP3 SWAP2 POP POP JUMP JUMPDEST PUSH1 0xEF DUP1 PUSH2 0x10B PUSH0 CODECOPY PUSH0 RETURN INVALID PUSH1 0x80 PUSH1 0x40 MSTORE CALLVALUE DUP1 ISZERO PUSH1 0xE JUMPI PUSH0 DUP1 REVERT JUMPDEST POP PUSH1 0x4 CALLDATASIZE LT PUSH1 0x26 JUMPI PUSH0 CALLDATALOAD PUSH1 0xE0 SHR DUP1 PUSH4 0x8DA5CB5B EQ PUSH1 0x2A JUMPI JUMPDEST PUSH0 DUP1 REVERT JUMPDEST PUSH1 0x30 PUSH1 0x44 JUMP JUMPDEST PUSH1 0x40 MLOAD PUSH1 0x3B SWAP2 SWAP1 PUSH1 0xA2 JUMP JUMPDEST PUSH1 0x40 MLOAD DUP1 SWAP2 SUB SWAP1 RETURN JUMPDEST PUSH0 DUP1 SLOAD SWAP1 PUSH2 0x100 EXP SWAP1 DIV PUSH20 0xFFFFFFFFFFFFFFFFFFFFFFFFFFFFFFFFFFFFFFFF AND DUP2 JUMP JUMPDEST PUSH0 PUSH20 0xFFFFFFFFFFFFFFFFFFFFFFFFFFFFFFFFFFFFFFFF DUP3 AND SWAP1 POP SWAP2 SWAP1 POP JUMP JUMPDEST PUSH0 PUSH1 0x8E DUP3 PUSH1 0x67 JUMP JUMPDEST SWAP1 POP SWAP2 SWAP1 POP JUMP JUMPDEST PUSH1 0x9C DUP2 PUSH1 0x86 JUMP JUMPDEST DUP3 MSTORE POP POP JUMP JUMPDEST PUSH0 PUSH1 0x20 DUP3 ADD SWAP1 POP PUSH1 0xB3 PUSH0 DUP4 ADD DUP5 PUSH1 0x95 JUMP JUMPDEST SWAP3 SWAP2 POP POP JUMP INVALID LOG2 PUSH5 0x6970667358 0x22 SLT KECCAK256 0xB4 PUSH18 0xD20A2501416C98020E18C569236A1ED8CB2E KECCAK256 DUP12 PUSH21 0xB5F4BA37F05185474264736F6C63430008170033A2 PUSH5 0x6970667358 0x22 SLT KECCAK256 SWAP12 0xC2 0xD7 0xD5 LOG2 0xB1 0xF 0xB4 SWAP5 EXTCODECOPY PUSH19 0x6C1689129E3370548B4925CA32B15DA22127DD MSTORE8 DUP4 PUSH5 0x736F6C6343 STOP ADDMOD OR STOP CALLER "
				},
				"gasEstimates": {
					"creation": {
						"codeDepositCost": "365600",
						"executionCost": "403",
						"totalCost": "366003"
					},
					"external": {
						"deploy(bytes32)": "infinite",
						"getAddress(bytes32)": "infinite"
					}
				},
				"methodIdentifiers": {
					"deploy(bytes32)": "2b85ba38",
					"getAddress(bytes32)": "21f8a721"
				}
			},
			"storageLayout": {
				"storage": [],
				"types": null
			},
			"userdoc": {
				"kind": "user",
				"methods": {},
				"version": 1
			}
		}
	}
}