{
	"contracts/MyNFT.sol": {
		"MyNFT": {
			"abi": [
				{
					"anonymous": false,
					"inputs": [
						{
							"indexed": true,
							"internalType": "address",
							"name": "owner",
							"type": "address"
						},
						{
							"indexed": true,
							"internalType": "address",
							"name": "spender",
							"type": "address"
						},
						{
							"indexed": true,
							"internalType": "uint256",
							"name": "id",
							"type": "uint256"
						}
					],
					"name": "Approval",
					"type": "event"
				},
				{
					"anonymous": false,
					"inputs": [
						{
							"indexed": true,
							"internalType": "address",
							"name": "owner",
							"type": "address"
						},
						{
							"indexed": true,
							"internalType": "address",
							"name": "operator",
							"type": "address"
						},
						{
							"indexed": false,
							"internalType": "bool",
							"name": "approved",
							"type": "bool"
						}
					],
					"name": "ApprovalForAll",
					"type": "event"
				},
				{
					"anonymous": false,
					"inputs": [
						{
							"indexed": true,
							"internalType": "address",
							"name": "from",
							"type": "address"
						},
						{
							"indexed": true,
							"internalType": "address",
							"name": "to",
							"type": "address"
						},
						{
							"indexed": true,
							"internalType": "uint256",
							"name": "id",
							"type": "uint256"
						}
					],
					"name": "Transfer",
					"type": "event"
				},
				{
					"inputs": [
						{
							"internalType": "address",
							"name": "spender",
							"type": "address"
						},
						{
							"internalType": "uint256",
							"name": "id",
							"type": "uint256"
						}
					],
					"name": "approve",
					"outputs": [],
					"stateMutability": "nonpayable",
					"type": "function"
				},
				{
					"inputs": [
						{
							"internalType": "address",
							"name": "owner",
							"type": "address"
						}
					],
					"name": "balanceOf",
					"outputs": [
						{
							"internalType": "uint256",
							"name": "",
							"type": "uint256"
						}
					],
					"stateMutability": "view",
					"type": "function"
				},
				{
					"inputs": [
						{
							"internalType": "uint256",
							"name": "id",
							"type": "uint256"
						}
					],
					"name": "burn",
					"outputs": [],
					"stateMutability": "nonpayable",
					"type": "function"
				},
				{
					"inputs": [
						{
							"internalType": "uint256",
							"name": "id",
							"type": "uint256"
						}
					],
					"name": "getApproved",
					"outputs": [
						{
							"internalType": "address",
							"name": "",
							"type": "address"
						}
					],
					"stateMutability": "view",
					"type": "function"
				},
				{
					"inputs": [
						{
							"internalType": "address",
							"name": "",
							"type": "address"
						},
						{
							"internalType": "address",
							"name": "",
							"type": "address"
						}
					],
					"name": "isApprovedForAll",
					"outputs": [
						{
							"internalType": "bool",
							"name": "",
							"type": "bool"
						}
					],
					"stateMutability": "view",
					"type": "function"
				},
				{
					"inputs": [
						{
							"internalType": "address",
							"name": "to",
							"type": "address"
						},
						{
							"internalType": "uint256",
							"name": "id",
							"type": "uint256"
						}
					],
					"name": "mint",
					"outputs": [],
					"stateMutability": "nonpayable",
					"type": "function"
				},
				{
					"inputs": [
						{
							"internalType": "uint256",
							"name": "id",
							"type": "uint256"
						}
					],
					"name": "ownerOf",
					"outputs": [
						{
							"internalType": "address",
							"name": "owner",
							"type": "address"
						}
					],
					"stateMutability": "view",
					"type": "function"
				},
				{
					"inputs": [
						{
							"internalType": "address",
							"name": "from",
							"type": "address"
						},
						{
							"internalType": "address",
							"name": "to",
							"type": "address"
						},
						{
							"internalType": "uint256",
							"name": "id",
							"type": "uint256"
						}
					],
					"name": "safeTransferFrom",
					"outputs": [],
					"stateMutability": "nonpayable",
					"type": "function"
				},
				{
					"inputs": [
						{
							"internalType": "address",
							"name": "from",
							"type": "address"
						},
						{
							"internalType": "address",
							"name": "to",
							"type": "address"
						},
						{
							"internalType": "uint256",
							"name": "id",
							"type": "uint256"
						},
						{
							"internalType": "bytes",
							"name": "data",
							"type": "bytes"
						}
					],
					"name": "safeTransferFrom",
					"outputs": [],
					"stateMutability": "nonpayable",
					"type": "function"
				},
				{
					"inputs": [
						{
							"internalType": "address",
							"name": "operator",
							"type": "address"
						},
						{
							"internalType": "bool",
							"name": "approved",
							"type": "bool"
						}
					],
					"name": "setApprovalForAll",
					"outputs": [],
					"stateMutability": "nonpayable",
					"type": "function"
				},
				{
					"inputs": [
						{
							"internalType": "bytes4",
							"name": "interfaceId",
							"type": "bytes4"
						}
					],
					"name": "supportsInterface",
					"outputs": [
						{
							"internalType": "bool",
							"name": "",
							"type": "bool"
						}
					],
					"stateMutability": "pure",
					"type": "function"
				},
				{
					"inputs": [
						{
							"internalType": "address",
							"name": "from",
							"type": "address"
						},
						{
							"internalType": "address",
							"name": "to",
							"type": "address"
						},
						{
							"internalType": "uint256",
							"name": "id",
							"type": "uint256"
						}
					],
					"name": "transferFrom",
					"outputs": [],
					"stateMutability": "nonpayable",
					"type": "function"
				}
			],
			"devdoc": {
				"kind": "dev",
				"methods": {},
				"version": 1
			},
			"evm": {
				"assembly": "    /* \"contracts/MyNFT.sol\":5539:5774  contract MyNFT is ERC721 {... */\n  mstore(0x40, 0x80)\n  callvalue\n  dup1\n  iszero\n  tag_1\n  jumpi\n  0x00\n  dup1\n  revert\ntag_1:\n  pop\n  dataSize(sub_0)\n  dup1\n  dataOffset(sub_0)\n  0x00\n  codecopy\n  0x00\n  return\nstop\n\nsub_0: assembly {\n        /* \"contracts/MyNFT.sol\":5539:5774  contract MyNFT is ERC721 {... */\n      mstore(0x40, 0x80)\n      callvalue\n      dup1\n      iszero\n      tag_1\n      jumpi\n      0x00\n      dup1\n      revert\n    tag_1:\n      pop\n      jumpi(tag_2, lt(calldatasize, 0x04))\n      shr(0xe0, calldataload(0x00))\n      dup1\n      0x42966c68\n      gt\n      tag_15\n      jumpi\n      dup1\n      0x42966c68\n      eq\n      tag_9\n      jumpi\n      dup1\n      0x6352211e\n      eq\n      tag_10\n      jumpi\n      dup1\n      0x70a08231\n      eq\n      tag_11\n      jumpi\n      dup1\n      0xa22cb465\n      eq\n      tag_12\n      jumpi\n      dup1\n      0xb88d4fde\n      eq\n      tag_13\n      jumpi\n      dup1\n      0xe985e9c5\n      eq\n      tag_14\n      jumpi\n      jump(tag_2)\n    tag_15:\n      dup1\n      0x01ffc9a7\n      eq\n      tag_3\n      jumpi\n      dup1\n      0x081812fc\n      eq\n      tag_4\n      jumpi\n      dup1\n      0x095ea7b3\n      eq\n      tag_5\n      jumpi\n      dup1\n      0x23b872dd\n      eq\n      tag_6\n      jumpi\n      dup1\n      0x40c10f19\n      eq\n      tag_7\n      jumpi\n      dup1\n      0x42842e0e\n      eq\n      tag_8\n      jumpi\n    tag_2:\n      0x00\n      dup1\n      revert\n        /* \"contracts/MyNFT.sol\":2035:2257  function supportsInterface(... */\n    tag_3:\n      tag_16\n      0x04\n      dup1\n      calldatasize\n      sub\n      dup2\n      add\n      swap1\n      tag_17\n      swap2\n      swap1\n      tag_18\n      jump\t// in\n    tag_17:\n      tag_19\n      jump\t// in\n    tag_16:\n      mload(0x40)\n      tag_20\n      swap2\n      swap1\n      tag_21\n      jump\t// in\n    tag_20:\n      mload(0x40)\n      dup1\n      swap2\n      sub\n      swap1\n      return\n        /* \"contracts/MyNFT.sol\":3125:3296  function getApproved(uint256 id) external view returns (address) {... */\n    tag_4:\n      tag_22\n      0x04\n      dup1\n      calldatasize\n      sub\n      dup2\n      add\n      swap1\n      tag_23\n      swap2\n      swap1\n      tag_24\n      jump\t// in\n    tag_23:\n      tag_25\n      jump\t// in\n    tag_22:\n      mload(0x40)\n      tag_26\n      swap2\n      swap1\n      tag_27\n      jump\t// in\n    tag_26:\n      mload(0x40)\n      dup1\n      swap2\n      sub\n      swap1\n      return\n        /* \"contracts/MyNFT.sol\":2811:3119  function approve(address spender, uint256 id) external {... */\n    tag_5:\n      tag_28\n      0x04\n      dup1\n      calldatasize\n      sub\n      dup2\n      add\n      swap1\n      tag_29\n      swap2\n      swap1\n      tag_30\n      jump\t// in\n    tag_29:\n      tag_31\n      jump\t// in\n    tag_28:\n      stop\n        /* \"contracts/MyNFT.sol\":3570:3993  function transferFrom(address from, address to, uint256 id) public {... */\n    tag_6:\n      tag_32\n      0x04\n      dup1\n      calldatasize\n      sub\n      dup2\n      add\n      swap1\n      tag_33\n      swap2\n      swap1\n      tag_34\n      jump\t// in\n    tag_33:\n      tag_35\n      jump\t// in\n    tag_32:\n      stop\n        /* \"contracts/MyNFT.sol\":5570:5647  function mint(address to, uint256 id) external {... */\n    tag_7:\n      tag_36\n      0x04\n      dup1\n      calldatasize\n      sub\n      dup2\n      add\n      swap1\n      tag_37\n      swap2\n      swap1\n      tag_30\n      jump\t// in\n    tag_37:\n      tag_38\n      jump\t// in\n    tag_36:\n      stop\n        /* \"contracts/MyNFT.sol\":3999:4453  function safeTransferFrom(address from, address to, uint256 id) external {... */\n    tag_8:\n      tag_39\n      0x04\n      dup1\n      calldatasize\n      sub\n      dup2\n      add\n      swap1\n      tag_40\n      swap2\n      swap1\n      tag_34\n      jump\t// in\n    tag_40:\n      tag_41\n      jump\t// in\n    tag_39:\n      stop\n        /* \"contracts/MyNFT.sol\":5653:5772  function burn(uint256 id) external {... */\n    tag_9:\n      tag_42\n      0x04\n      dup1\n      calldatasize\n      sub\n      dup2\n      add\n      swap1\n      tag_43\n      swap2\n      swap1\n      tag_24\n      jump\t// in\n    tag_43:\n      tag_44\n      jump\t// in\n    tag_42:\n      stop\n        /* \"contracts/MyNFT.sol\":2263:2428  function ownerOf(uint256 id) external view returns (address owner) {... */\n    tag_10:\n      tag_45\n      0x04\n      dup1\n      calldatasize\n      sub\n      dup2\n      add\n      swap1\n      tag_46\n      swap2\n      swap1\n      tag_24\n      jump\t// in\n    tag_46:\n      tag_47\n      jump\t// in\n    tag_45:\n      mload(0x40)\n      tag_48\n      swap2\n      swap1\n      tag_27\n      jump\t// in\n    tag_48:\n      mload(0x40)\n      dup1\n      swap2\n      sub\n      swap1\n      return\n        /* \"contracts/MyNFT.sol\":2434:2603  function balanceOf(address owner) external view returns (uint256) {... */\n    tag_11:\n      tag_49\n      0x04\n      dup1\n      calldatasize\n      sub\n      dup2\n      add\n      swap1\n      tag_50\n      swap2\n      swap1\n      tag_51\n      jump\t// in\n    tag_50:\n      tag_52\n      jump\t// in\n    tag_49:\n      mload(0x40)\n      tag_53\n      swap2\n      swap1\n      tag_54\n      jump\t// in\n    tag_53:\n      mload(0x40)\n      dup1\n      swap2\n      sub\n      swap1\n      return\n        /* \"contracts/MyNFT.sol\":2609:2805  function setApprovalForAll(address operator, bool approved) external {... */\n    tag_12:\n      tag_55\n      0x04\n      dup1\n      calldatasize\n      sub\n      dup2\n      add\n      swap1\n      tag_56\n      swap2\n      swap1\n      tag_57\n      jump\t// in\n    tag_56:\n      tag_58\n      jump\t// in\n    tag_55:\n      stop\n        /* \"contracts/MyNFT.sol\":4459:4974  function safeTransferFrom(... */\n    tag_13:\n      tag_59\n      0x04\n      dup1\n      calldatasize\n      sub\n      dup2\n      add\n      swap1\n      tag_60\n      swap2\n      swap1\n      tag_61\n      jump\t// in\n    tag_60:\n      tag_62\n      jump\t// in\n    tag_59:\n      stop\n        /* \"contracts/MyNFT.sol\":1960:2028  mapping(address => mapping(address => bool)) public isApprovedForAll */\n    tag_14:\n      tag_63\n      0x04\n      dup1\n      calldatasize\n      sub\n      dup2\n      add\n      swap1\n      tag_64\n      swap2\n      swap1\n      tag_65\n      jump\t// in\n    tag_64:\n      tag_66\n      jump\t// in\n    tag_63:\n      mload(0x40)\n      tag_67\n      swap2\n      swap1\n      tag_21\n      jump\t// in\n    tag_67:\n      mload(0x40)\n      dup1\n      swap2\n      sub\n      swap1\n      return\n        /* \"contracts/MyNFT.sol\":2035:2257  function supportsInterface(... */\n    tag_19:\n        /* \"contracts/MyNFT.sol\":2119:2123  bool */\n      0x00\n        /* \"contracts/MyNFT.sol\":2169:2194  type(IERC721).interfaceId */\n      0x80ac58cd00000000000000000000000000000000000000000000000000000000\n        /* \"contracts/MyNFT.sol\":2154:2194  interfaceId == type(IERC721).interfaceId */\n      not(0xffffffffffffffffffffffffffffffffffffffffffffffffffffffff)\n      and\n        /* \"contracts/MyNFT.sol\":2154:2165  interfaceId */\n      dup3\n        /* \"contracts/MyNFT.sol\":2154:2194  interfaceId == type(IERC721).interfaceId */\n      not(0xffffffffffffffffffffffffffffffffffffffffffffffffffffffff)\n      and\n      eq\n        /* \"contracts/MyNFT.sol\":2154:2250  interfaceId == type(IERC721).interfaceId ||... */\n      dup1\n      tag_69\n      jumpi\n      pop\n        /* \"contracts/MyNFT.sol\":2225:2250  type(IERC165).interfaceId */\n      0x01ffc9a700000000000000000000000000000000000000000000000000000000\n        /* \"contracts/MyNFT.sol\":2210:2250  interfaceId == type(IERC165).interfaceId */\n      not(0xffffffffffffffffffffffffffffffffffffffffffffffffffffffff)\n      and\n        /* \"contracts/MyNFT.sol\":2210:2221  interfaceId */\n      dup3\n        /* \"contracts/MyNFT.sol\":2210:2250  interfaceId == type(IERC165).interfaceId */\n      not(0xffffffffffffffffffffffffffffffffffffffffffffffffffffffff)\n      and\n      eq\n        /* \"contracts/MyNFT.sol\":2154:2250  interfaceId == type(IERC721).interfaceId ||... */\n    tag_69:\n        /* \"contracts/MyNFT.sol\":2135:2250  return... */\n      swap1\n      pop\n        /* \"contracts/MyNFT.sol\":2035:2257  function supportsInterface(... */\n      swap2\n      swap1\n      pop\n      jump\t// out\n        /* \"contracts/MyNFT.sol\":3125:3296  function getApproved(uint256 id) external view returns (address) {... */\n    tag_25:\n        /* \"contracts/MyNFT.sol\":3181:3188  address */\n      0x00\n        /* \"contracts/MyNFT.sol\":3232:3233  0 */\n      dup1\n        /* \"contracts/MyNFT.sol\":3208:3234  _ownerOf[id] != address(0) */\n      0xffffffffffffffffffffffffffffffffffffffff\n      and\n        /* \"contracts/MyNFT.sol\":3208:3216  _ownerOf */\n      0x00\n        /* \"contracts/MyNFT.sol\":3208:3220  _ownerOf[id] */\n      dup1\n        /* \"contracts/MyNFT.sol\":3217:3219  id */\n      dup5\n        /* \"contracts/MyNFT.sol\":3208:3220  _ownerOf[id] */\n      dup2\n      mstore\n      0x20\n      add\n      swap1\n      dup2\n      mstore\n      0x20\n      add\n      0x00\n      keccak256\n      0x00\n      swap1\n      sload\n      swap1\n      0x0100\n      exp\n      swap1\n      div\n      0xffffffffffffffffffffffffffffffffffffffff\n      and\n        /* \"contracts/MyNFT.sol\":3208:3234  _ownerOf[id] != address(0) */\n      0xffffffffffffffffffffffffffffffffffffffff\n      and\n      sub\n        /* \"contracts/MyNFT.sol\":3200:3258  require(_ownerOf[id] != address(0), \"token doesn't exist\") */\n      tag_71\n      jumpi\n      mload(0x40)\n      0x08c379a000000000000000000000000000000000000000000000000000000000\n      dup2\n      mstore\n      0x04\n      add\n      tag_72\n      swap1\n      tag_73\n      jump\t// in\n    tag_72:\n      mload(0x40)\n      dup1\n      swap2\n      sub\n      swap1\n      revert\n    tag_71:\n        /* \"contracts/MyNFT.sol\":3275:3285  _approvals */\n      0x02\n        /* \"contracts/MyNFT.sol\":3275:3289  _approvals[id] */\n      0x00\n        /* \"contracts/MyNFT.sol\":3286:3288  id */\n      dup4\n        /* \"contracts/MyNFT.sol\":3275:3289  _approvals[id] */\n      dup2\n      mstore\n      0x20\n      add\n      swap1\n      dup2\n      mstore\n      0x20\n      add\n      0x00\n      keccak256\n      0x00\n      swap1\n      sload\n      swap1\n      0x0100\n      exp\n      swap1\n      div\n      0xffffffffffffffffffffffffffffffffffffffff\n      and\n        /* \"contracts/MyNFT.sol\":3268:3289  return _approvals[id] */\n      swap1\n      pop\n        /* \"contracts/MyNFT.sol\":3125:3296  function getApproved(uint256 id) external view returns (address) {... */\n      swap2\n      swap1\n      pop\n      jump\t// out\n        /* \"contracts/MyNFT.sol\":2811:3119  function approve(address spender, uint256 id) external {... */\n    tag_31:\n        /* \"contracts/MyNFT.sol\":2876:2889  address owner */\n      0x00\n        /* \"contracts/MyNFT.sol\":2892:2900  _ownerOf */\n      dup1\n        /* \"contracts/MyNFT.sol\":2892:2904  _ownerOf[id] */\n      0x00\n        /* \"contracts/MyNFT.sol\":2901:2903  id */\n      dup4\n        /* \"contracts/MyNFT.sol\":2892:2904  _ownerOf[id] */\n      dup2\n      mstore\n      0x20\n      add\n      swap1\n      dup2\n      mstore\n      0x20\n      add\n      0x00\n      keccak256\n      0x00\n      swap1\n      sload\n      swap1\n      0x0100\n      exp\n      swap1\n      div\n      0xffffffffffffffffffffffffffffffffffffffff\n      and\n        /* \"contracts/MyNFT.sol\":2876:2904  address owner = _ownerOf[id] */\n      swap1\n      pop\n        /* \"contracts/MyNFT.sol\":2949:2954  owner */\n      dup1\n        /* \"contracts/MyNFT.sol\":2935:2954  msg.sender == owner */\n      0xffffffffffffffffffffffffffffffffffffffff\n      and\n        /* \"contracts/MyNFT.sol\":2935:2945  msg.sender */\n      caller\n        /* \"contracts/MyNFT.sol\":2935:2954  msg.sender == owner */\n      0xffffffffffffffffffffffffffffffffffffffff\n      and\n      eq\n        /* \"contracts/MyNFT.sol\":2935:2993  msg.sender == owner || isApprovedForAll[owner][msg.sender] */\n      dup1\n      tag_75\n      jumpi\n      pop\n        /* \"contracts/MyNFT.sol\":2958:2974  isApprovedForAll */\n      0x03\n        /* \"contracts/MyNFT.sol\":2958:2981  isApprovedForAll[owner] */\n      0x00\n        /* \"contracts/MyNFT.sol\":2975:2980  owner */\n      dup3\n        /* \"contracts/MyNFT.sol\":2958:2981  isApprovedForAll[owner] */\n      0xffffffffffffffffffffffffffffffffffffffff\n      and\n      0xffffffffffffffffffffffffffffffffffffffff\n      and\n      dup2\n      mstore\n      0x20\n      add\n      swap1\n      dup2\n      mstore\n      0x20\n      add\n      0x00\n      keccak256\n        /* \"contracts/MyNFT.sol\":2958:2993  isApprovedForAll[owner][msg.sender] */\n      0x00\n        /* \"contracts/MyNFT.sol\":2982:2992  msg.sender */\n      caller\n        /* \"contracts/MyNFT.sol\":2958:2993  isApprovedForAll[owner][msg.sender] */\n      0xffffffffffffffffffffffffffffffffffffffff\n      and\n      0xffffffffffffffffffffffffffffffffffffffff\n      and\n      dup2\n      mstore\n      0x20\n      add\n      swap1\n      dup2\n      mstore\n      0x20\n      add\n      0x00\n      keccak256\n      0x00\n      swap1\n      sload\n      swap1\n      0x0100\n      exp\n      swap1\n      div\n      0xff\n      and\n        /* \"contracts/MyNFT.sol\":2935:2993  msg.sender == owner || isApprovedForAll[owner][msg.sender] */\n    tag_75:\n        /* \"contracts/MyNFT.sol\":2914:3033  require(... */\n      tag_76\n      jumpi\n      mload(0x40)\n      0x08c379a000000000000000000000000000000000000000000000000000000000\n      dup2\n      mstore\n      0x04\n      add\n      tag_77\n      swap1\n      tag_78\n      jump\t// in\n    tag_77:\n      mload(0x40)\n      dup1\n      swap2\n      sub\n      swap1\n      revert\n    tag_76:\n        /* \"contracts/MyNFT.sol\":3061:3068  spender */\n      dup3\n        /* \"contracts/MyNFT.sol\":3044:3054  _approvals */\n      0x02\n        /* \"contracts/MyNFT.sol\":3044:3058  _approvals[id] */\n      0x00\n        /* \"contracts/MyNFT.sol\":3055:3057  id */\n      dup5\n        /* \"contracts/MyNFT.sol\":3044:3058  _approvals[id] */\n      dup2\n      mstore\n      0x20\n      add\n      swap1\n      dup2\n      mstore\n      0x20\n      add\n      0x00\n      keccak256\n      0x00\n        /* \"contracts/MyNFT.sol\":3044:3068  _approvals[id] = spender */\n      0x0100\n      exp\n      dup2\n      sload\n      dup2\n      0xffffffffffffffffffffffffffffffffffffffff\n      mul\n      not\n      and\n      swap1\n      dup4\n      0xffffffffffffffffffffffffffffffffffffffff\n      and\n      mul\n      or\n      swap1\n      sstore\n      pop\n        /* \"contracts/MyNFT.sol\":3109:3111  id */\n      dup2\n        /* \"contracts/MyNFT.sol\":3100:3107  spender */\n      dup4\n        /* \"contracts/MyNFT.sol\":3084:3112  Approval(owner, spender, id) */\n      0xffffffffffffffffffffffffffffffffffffffff\n      and\n        /* \"contracts/MyNFT.sol\":3093:3098  owner */\n      dup3\n        /* \"contracts/MyNFT.sol\":3084:3112  Approval(owner, spender, id) */\n      0xffffffffffffffffffffffffffffffffffffffff\n      and\n      0x8c5be1e5ebec7d5bd14f71427d1e84f3dd0314c0f7b2291e5b200ac8c7c3b925\n      mload(0x40)\n      mload(0x40)\n      dup1\n      swap2\n      sub\n      swap1\n      log4\n        /* \"contracts/MyNFT.sol\":2866:3119  {... */\n      pop\n        /* \"contracts/MyNFT.sol\":2811:3119  function approve(address spender, uint256 id) external {... */\n      pop\n      pop\n      jump\t// out\n        /* \"contracts/MyNFT.sol\":3570:3993  function transferFrom(address from, address to, uint256 id) public {... */\n    tag_35:\n        /* \"contracts/MyNFT.sol\":3663:3671  _ownerOf */\n      0x00\n        /* \"contracts/MyNFT.sol\":3663:3675  _ownerOf[id] */\n      dup1\n        /* \"contracts/MyNFT.sol\":3672:3674  id */\n      dup3\n        /* \"contracts/MyNFT.sol\":3663:3675  _ownerOf[id] */\n      dup2\n      mstore\n      0x20\n      add\n      swap1\n      dup2\n      mstore\n      0x20\n      add\n      0x00\n      keccak256\n      0x00\n      swap1\n      sload\n      swap1\n      0x0100\n      exp\n      swap1\n      div\n      0xffffffffffffffffffffffffffffffffffffffff\n      and\n        /* \"contracts/MyNFT.sol\":3655:3675  from == _ownerOf[id] */\n      0xffffffffffffffffffffffffffffffffffffffff\n      and\n        /* \"contracts/MyNFT.sol\":3655:3659  from */\n      dup4\n        /* \"contracts/MyNFT.sol\":3655:3675  from == _ownerOf[id] */\n      0xffffffffffffffffffffffffffffffffffffffff\n      and\n      eq\n        /* \"contracts/MyNFT.sol\":3647:3693  require(from == _ownerOf[id], \"from != owner\") */\n      tag_80\n      jumpi\n      mload(0x40)\n      0x08c379a000000000000000000000000000000000000000000000000000000000\n      dup2\n      mstore\n      0x04\n      add\n      tag_81\n      swap1\n      tag_82\n      jump\t// in\n    tag_81:\n      mload(0x40)\n      dup1\n      swap2\n      sub\n      swap1\n      revert\n    tag_80:\n        /* \"contracts/MyNFT.sol\":3725:3726  0 */\n      0x00\n        /* \"contracts/MyNFT.sol\":3711:3727  to != address(0) */\n      0xffffffffffffffffffffffffffffffffffffffff\n      and\n        /* \"contracts/MyNFT.sol\":3711:3713  to */\n      dup3\n        /* \"contracts/MyNFT.sol\":3711:3727  to != address(0) */\n      0xffffffffffffffffffffffffffffffffffffffff\n      and\n      sub\n        /* \"contracts/MyNFT.sol\":3703:3756  require(to != address(0), \"transfer to zero address\") */\n      tag_83\n      jumpi\n      mload(0x40)\n      0x08c379a000000000000000000000000000000000000000000000000000000000\n      dup2\n      mstore\n      0x04\n      add\n      tag_84\n      swap1\n      tag_85\n      jump\t// in\n    tag_84:\n      mload(0x40)\n      dup1\n      swap2\n      sub\n      swap1\n      revert\n    tag_83:\n        /* \"contracts/MyNFT.sol\":3775:3815  _isApprovedOrOwner(from, msg.sender, id) */\n      tag_86\n        /* \"contracts/MyNFT.sol\":3794:3798  from */\n      dup4\n        /* \"contracts/MyNFT.sol\":3800:3810  msg.sender */\n      caller\n        /* \"contracts/MyNFT.sol\":3812:3814  id */\n      dup4\n        /* \"contracts/MyNFT.sol\":3775:3793  _isApprovedOrOwner */\n      tag_87\n        /* \"contracts/MyNFT.sol\":3775:3815  _isApprovedOrOwner(from, msg.sender, id) */\n      jump\t// in\n    tag_86:\n        /* \"contracts/MyNFT.sol\":3767:3834  require(_isApprovedOrOwner(from, msg.sender, id), \"not authorized\") */\n      tag_88\n      jumpi\n      mload(0x40)\n      0x08c379a000000000000000000000000000000000000000000000000000000000\n      dup2\n      mstore\n      0x04\n      add\n      tag_89\n      swap1\n      tag_78\n      jump\t// in\n    tag_89:\n      mload(0x40)\n      dup1\n      swap2\n      sub\n      swap1\n      revert\n    tag_88:\n        /* \"contracts/MyNFT.sol\":3845:3855  _balanceOf */\n      0x01\n        /* \"contracts/MyNFT.sol\":3845:3861  _balanceOf[from] */\n      0x00\n        /* \"contracts/MyNFT.sol\":3856:3860  from */\n      dup5\n        /* \"contracts/MyNFT.sol\":3845:3861  _balanceOf[from] */\n      0xffffffffffffffffffffffffffffffffffffffff\n      and\n      0xffffffffffffffffffffffffffffffffffffffff\n      and\n      dup2\n      mstore\n      0x20\n      add\n      swap1\n      dup2\n      mstore\n      0x20\n      add\n      0x00\n      keccak256\n      0x00\n        /* \"contracts/MyNFT.sol\":3845:3863  _balanceOf[from]-- */\n      dup2\n      sload\n      dup1\n      swap3\n      swap2\n      swap1\n      tag_90\n      swap1\n      tag_91\n      jump\t// in\n    tag_90:\n      swap2\n      swap1\n      pop\n      sstore\n      pop\n        /* \"contracts/MyNFT.sol\":3873:3883  _balanceOf */\n      0x01\n        /* \"contracts/MyNFT.sol\":3873:3887  _balanceOf[to] */\n      0x00\n        /* \"contracts/MyNFT.sol\":3884:3886  to */\n      dup4\n        /* \"contracts/MyNFT.sol\":3873:3887  _balanceOf[to] */\n      0xffffffffffffffffffffffffffffffffffffffff\n      and\n      0xffffffffffffffffffffffffffffffffffffffff\n      and\n      dup2\n      mstore\n      0x20\n      add\n      swap1\n      dup2\n      mstore\n      0x20\n      add\n      0x00\n      keccak256\n      0x00\n        /* \"contracts/MyNFT.sol\":3873:3889  _balanceOf[to]++ */\n      dup2\n      sload\n      dup1\n      swap3\n      swap2\n      swap1\n      tag_92\n      swap1\n      tag_93\n      jump\t// in\n    tag_92:\n      swap2\n      swap1\n      pop\n      sstore\n      pop\n        /* \"contracts/MyNFT.sol\":3914:3916  to */\n      dup2\n        /* \"contracts/MyNFT.sol\":3899:3907  _ownerOf */\n      0x00\n        /* \"contracts/MyNFT.sol\":3899:3911  _ownerOf[id] */\n      dup1\n        /* \"contracts/MyNFT.sol\":3908:3910  id */\n      dup4\n        /* \"contracts/MyNFT.sol\":3899:3911  _ownerOf[id] */\n      dup2\n      mstore\n      0x20\n      add\n      swap1\n      dup2\n      mstore\n      0x20\n      add\n      0x00\n      keccak256\n      0x00\n        /* \"contracts/MyNFT.sol\":3899:3916  _ownerOf[id] = to */\n      0x0100\n      exp\n      dup2\n      sload\n      dup2\n      0xffffffffffffffffffffffffffffffffffffffff\n      mul\n      not\n      and\n      swap1\n      dup4\n      0xffffffffffffffffffffffffffffffffffffffff\n      and\n      mul\n      or\n      swap1\n      sstore\n      pop\n        /* \"contracts/MyNFT.sol\":3934:3944  _approvals */\n      0x02\n        /* \"contracts/MyNFT.sol\":3934:3948  _approvals[id] */\n      0x00\n        /* \"contracts/MyNFT.sol\":3945:3947  id */\n      dup3\n        /* \"contracts/MyNFT.sol\":3934:3948  _approvals[id] */\n      dup2\n      mstore\n      0x20\n      add\n      swap1\n      dup2\n      mstore\n      0x20\n      add\n      0x00\n      keccak256\n      0x00\n        /* \"contracts/MyNFT.sol\":3927:3948  delete _approvals[id] */\n      0x0100\n      exp\n      dup2\n      sload\n      swap1\n      0xffffffffffffffffffffffffffffffffffffffff\n      mul\n      not\n      and\n      swap1\n      sstore\n        /* \"contracts/MyNFT.sol\":3983:3985  id */\n      dup1\n        /* \"contracts/MyNFT.sol\":3979:3981  to */\n      dup3\n        /* \"contracts/MyNFT.sol\":3964:3986  Transfer(from, to, id) */\n      0xffffffffffffffffffffffffffffffffffffffff\n      and\n        /* \"contracts/MyNFT.sol\":3973:3977  from */\n      dup5\n        /* \"contracts/MyNFT.sol\":3964:3986  Transfer(from, to, id) */\n      0xffffffffffffffffffffffffffffffffffffffff\n      and\n      0xddf252ad1be2c89b69c2b068fc378daa952ba7f163c4a11628f55a4df523b3ef\n      mload(0x40)\n      mload(0x40)\n      dup1\n      swap2\n      sub\n      swap1\n      log4\n        /* \"contracts/MyNFT.sol\":3570:3993  function transferFrom(address from, address to, uint256 id) public {... */\n      pop\n      pop\n      pop\n      jump\t// out\n        /* \"contracts/MyNFT.sol\":5570:5647  function mint(address to, uint256 id) external {... */\n    tag_38:\n        /* \"contracts/MyNFT.sol\":5627:5640  _mint(to, id) */\n      tag_95\n        /* \"contracts/MyNFT.sol\":5633:5635  to */\n      dup3\n        /* \"contracts/MyNFT.sol\":5637:5639  id */\n      dup3\n        /* \"contracts/MyNFT.sol\":5627:5632  _mint */\n      tag_96\n        /* \"contracts/MyNFT.sol\":5627:5640  _mint(to, id) */\n      jump\t// in\n    tag_95:\n        /* \"contracts/MyNFT.sol\":5570:5647  function mint(address to, uint256 id) external {... */\n      pop\n      pop\n      jump\t// out\n        /* \"contracts/MyNFT.sol\":3999:4453  function safeTransferFrom(address from, address to, uint256 id) external {... */\n    tag_41:\n        /* \"contracts/MyNFT.sol\":4082:4108  transferFrom(from, to, id) */\n      tag_98\n        /* \"contracts/MyNFT.sol\":4095:4099  from */\n      dup4\n        /* \"contracts/MyNFT.sol\":4101:4103  to */\n      dup4\n        /* \"contracts/MyNFT.sol\":4105:4107  id */\n      dup4\n        /* \"contracts/MyNFT.sol\":4082:4094  transferFrom */\n      tag_35\n        /* \"contracts/MyNFT.sol\":4082:4108  transferFrom(from, to, id) */\n      jump\t// in\n    tag_98:\n        /* \"contracts/MyNFT.sol\":4158:4159  0 */\n      0x00\n        /* \"contracts/MyNFT.sol\":4140:4142  to */\n      dup3\n        /* \"contracts/MyNFT.sol\":4140:4154  to.code.length */\n      0xffffffffffffffffffffffffffffffffffffffff\n      and\n      extcodesize\n        /* \"contracts/MyNFT.sol\":4140:4159  to.code.length == 0 */\n      eq\n        /* \"contracts/MyNFT.sol\":4140:4404  to.code.length == 0 ||... */\n      dup1\n      tag_99\n      jumpi\n      pop\n        /* \"contracts/MyNFT.sol\":4363:4404  IERC721Receiver.onERC721Received.selector */\n      shl(0xe0, 0x150b7a02)\n        /* \"contracts/MyNFT.sol\":4179:4404  IERC721Receiver(to).onERC721Received(... */\n      not(0xffffffffffffffffffffffffffffffffffffffffffffffffffffffff)\n      and\n        /* \"contracts/MyNFT.sol\":4195:4197  to */\n      dup3\n        /* \"contracts/MyNFT.sol\":4179:4215  IERC721Receiver(to).onERC721Received */\n      0xffffffffffffffffffffffffffffffffffffffff\n      and\n      0x150b7a02\n        /* \"contracts/MyNFT.sol\":4237:4247  msg.sender */\n      caller\n        /* \"contracts/MyNFT.sol\":4269:4273  from */\n      dup7\n        /* \"contracts/MyNFT.sol\":4295:4297  id */\n      dup6\n        /* \"contracts/MyNFT.sol\":4179:4339  IERC721Receiver(to).onERC721Received(... */\n      mload(0x40)\n      dup5\n      0xffffffff\n      and\n      0xe0\n      shl\n      dup2\n      mstore\n      0x04\n      add\n      tag_100\n      swap4\n      swap3\n      swap2\n      swap1\n      tag_101\n      jump\t// in\n    tag_100:\n      0x20\n      mload(0x40)\n      dup1\n      dup4\n      sub\n      dup2\n      0x00\n      dup8\n      gas\n      call\n      iszero\n      dup1\n      iszero\n      tag_103\n      jumpi\n      returndatasize\n      0x00\n      dup1\n      returndatacopy\n      revert(0x00, returndatasize)\n    tag_103:\n      pop\n      pop\n      pop\n      pop\n      mload(0x40)\n      returndatasize\n      not(0x1f)\n      0x1f\n      dup3\n      add\n      and\n      dup3\n      add\n      dup1\n      0x40\n      mstore\n      pop\n      dup2\n      add\n      swap1\n      tag_104\n      swap2\n      swap1\n      tag_105\n      jump\t// in\n    tag_104:\n        /* \"contracts/MyNFT.sol\":4179:4404  IERC721Receiver(to).onERC721Received(... */\n      not(0xffffffffffffffffffffffffffffffffffffffffffffffffffffffff)\n      and\n      eq\n        /* \"contracts/MyNFT.sol\":4140:4404  to.code.length == 0 ||... */\n    tag_99:\n        /* \"contracts/MyNFT.sol\":4119:4446  require(... */\n      tag_106\n      jumpi\n      mload(0x40)\n      0x08c379a000000000000000000000000000000000000000000000000000000000\n      dup2\n      mstore\n      0x04\n      add\n      tag_107\n      swap1\n      tag_108\n      jump\t// in\n    tag_107:\n      mload(0x40)\n      dup1\n      swap2\n      sub\n      swap1\n      revert\n    tag_106:\n        /* \"contracts/MyNFT.sol\":3999:4453  function safeTransferFrom(address from, address to, uint256 id) external {... */\n      pop\n      pop\n      pop\n      jump\t// out\n        /* \"contracts/MyNFT.sol\":5653:5772  function burn(uint256 id) external {... */\n    tag_44:\n        /* \"contracts/MyNFT.sol\":5720:5728  _ownerOf */\n      0x00\n        /* \"contracts/MyNFT.sol\":5720:5732  _ownerOf[id] */\n      dup1\n        /* \"contracts/MyNFT.sol\":5729:5731  id */\n      dup3\n        /* \"contracts/MyNFT.sol\":5720:5732  _ownerOf[id] */\n      dup2\n      mstore\n      0x20\n      add\n      swap1\n      dup2\n      mstore\n      0x20\n      add\n      0x00\n      keccak256\n      0x00\n      swap1\n      sload\n      swap1\n      0x0100\n      exp\n      swap1\n      div\n      0xffffffffffffffffffffffffffffffffffffffff\n      and\n        /* \"contracts/MyNFT.sol\":5706:5732  msg.sender == _ownerOf[id] */\n      0xffffffffffffffffffffffffffffffffffffffff\n      and\n        /* \"contracts/MyNFT.sol\":5706:5716  msg.sender */\n      caller\n        /* \"contracts/MyNFT.sol\":5706:5732  msg.sender == _ownerOf[id] */\n      0xffffffffffffffffffffffffffffffffffffffff\n      and\n      eq\n        /* \"contracts/MyNFT.sol\":5698:5746  require(msg.sender == _ownerOf[id], \"not owner\") */\n      tag_110\n      jumpi\n      mload(0x40)\n      0x08c379a000000000000000000000000000000000000000000000000000000000\n      dup2\n      mstore\n      0x04\n      add\n      tag_111\n      swap1\n      tag_112\n      jump\t// in\n    tag_111:\n      mload(0x40)\n      dup1\n      swap2\n      sub\n      swap1\n      revert\n    tag_110:\n        /* \"contracts/MyNFT.sol\":5756:5765  _burn(id) */\n      tag_113\n        /* \"contracts/MyNFT.sol\":5762:5764  id */\n      dup2\n        /* \"contracts/MyNFT.sol\":5756:5761  _burn */\n      tag_114\n        /* \"contracts/MyNFT.sol\":5756:5765  _burn(id) */\n      jump\t// in\n    tag_113:\n        /* \"contracts/MyNFT.sol\":5653:5772  function burn(uint256 id) external {... */\n      pop\n      jump\t// out\n        /* \"contracts/MyNFT.sol\":2263:2428  function ownerOf(uint256 id) external view returns (address owner) {... */\n    tag_47:\n        /* \"contracts/MyNFT.sol\":2315:2328  address owner */\n      0x00\n        /* \"contracts/MyNFT.sol\":2348:2356  _ownerOf */\n      dup1\n        /* \"contracts/MyNFT.sol\":2348:2360  _ownerOf[id] */\n      0x00\n        /* \"contracts/MyNFT.sol\":2357:2359  id */\n      dup4\n        /* \"contracts/MyNFT.sol\":2348:2360  _ownerOf[id] */\n      dup2\n      mstore\n      0x20\n      add\n      swap1\n      dup2\n      mstore\n      0x20\n      add\n      0x00\n      keccak256\n      0x00\n      swap1\n      sload\n      swap1\n      0x0100\n      exp\n      swap1\n      div\n      0xffffffffffffffffffffffffffffffffffffffff\n      and\n        /* \"contracts/MyNFT.sol\":2340:2360  owner = _ownerOf[id] */\n      swap1\n      pop\n        /* \"contracts/MyNFT.sol\":2395:2396  0 */\n      0x00\n        /* \"contracts/MyNFT.sol\":2378:2397  owner != address(0) */\n      0xffffffffffffffffffffffffffffffffffffffff\n      and\n        /* \"contracts/MyNFT.sol\":2378:2383  owner */\n      dup2\n        /* \"contracts/MyNFT.sol\":2378:2397  owner != address(0) */\n      0xffffffffffffffffffffffffffffffffffffffff\n      and\n      sub\n        /* \"contracts/MyNFT.sol\":2370:2421  require(owner != address(0), \"token doesn't exist\") */\n      tag_116\n      jumpi\n      mload(0x40)\n      0x08c379a000000000000000000000000000000000000000000000000000000000\n      dup2\n      mstore\n      0x04\n      add\n      tag_117\n      swap1\n      tag_73\n      jump\t// in\n    tag_117:\n      mload(0x40)\n      dup1\n      swap2\n      sub\n      swap1\n      revert\n    tag_116:\n        /* \"contracts/MyNFT.sol\":2263:2428  function ownerOf(uint256 id) external view returns (address owner) {... */\n      swap2\n      swap1\n      pop\n      jump\t// out\n        /* \"contracts/MyNFT.sol\":2434:2603  function balanceOf(address owner) external view returns (uint256) {... */\n    tag_52:\n        /* \"contracts/MyNFT.sol\":2491:2498  uint256 */\n      0x00\n        /* \"contracts/MyNFT.sol\":2535:2536  0 */\n      dup1\n        /* \"contracts/MyNFT.sol\":2518:2537  owner != address(0) */\n      0xffffffffffffffffffffffffffffffffffffffff\n      and\n        /* \"contracts/MyNFT.sol\":2518:2523  owner */\n      dup3\n        /* \"contracts/MyNFT.sol\":2518:2537  owner != address(0) */\n      0xffffffffffffffffffffffffffffffffffffffff\n      and\n      sub\n        /* \"contracts/MyNFT.sol\":2510:2562  require(owner != address(0), \"owner = zero address\") */\n      tag_119\n      jumpi\n      mload(0x40)\n      0x08c379a000000000000000000000000000000000000000000000000000000000\n      dup2\n      mstore\n      0x04\n      add\n      tag_120\n      swap1\n      tag_121\n      jump\t// in\n    tag_120:\n      mload(0x40)\n      dup1\n      swap2\n      sub\n      swap1\n      revert\n    tag_119:\n        /* \"contracts/MyNFT.sol\":2579:2589  _balanceOf */\n      0x01\n        /* \"contracts/MyNFT.sol\":2579:2596  _balanceOf[owner] */\n      0x00\n        /* \"contracts/MyNFT.sol\":2590:2595  owner */\n      dup4\n        /* \"contracts/MyNFT.sol\":2579:2596  _balanceOf[owner] */\n      0xffffffffffffffffffffffffffffffffffffffff\n      and\n      0xffffffffffffffffffffffffffffffffffffffff\n      and\n      dup2\n      mstore\n      0x20\n      add\n      swap1\n      dup2\n      mstore\n      0x20\n      add\n      0x00\n      keccak256\n      sload\n        /* \"contracts/MyNFT.sol\":2572:2596  return _balanceOf[owner] */\n      swap1\n      pop\n        /* \"contracts/MyNFT.sol\":2434:2603  function balanceOf(address owner) external view returns (uint256) {... */\n      swap2\n      swap1\n      pop\n      jump\t// out\n        /* \"contracts/MyNFT.sol\":2609:2805  function setApprovalForAll(address operator, bool approved) external {... */\n    tag_58:\n        /* \"contracts/MyNFT.sol\":2729:2737  approved */\n      dup1\n        /* \"contracts/MyNFT.sol\":2688:2704  isApprovedForAll */\n      0x03\n        /* \"contracts/MyNFT.sol\":2688:2716  isApprovedForAll[msg.sender] */\n      0x00\n        /* \"contracts/MyNFT.sol\":2705:2715  msg.sender */\n      caller\n        /* \"contracts/MyNFT.sol\":2688:2716  isApprovedForAll[msg.sender] */\n      0xffffffffffffffffffffffffffffffffffffffff\n      and\n      0xffffffffffffffffffffffffffffffffffffffff\n      and\n      dup2\n      mstore\n      0x20\n      add\n      swap1\n      dup2\n      mstore\n      0x20\n      add\n      0x00\n      keccak256\n        /* \"contracts/MyNFT.sol\":2688:2726  isApprovedForAll[msg.sender][operator] */\n      0x00\n        /* \"contracts/MyNFT.sol\":2717:2725  operator */\n      dup5\n        /* \"contracts/MyNFT.sol\":2688:2726  isApprovedForAll[msg.sender][operator] */\n      0xffffffffffffffffffffffffffffffffffffffff\n      and\n      0xffffffffffffffffffffffffffffffffffffffff\n      and\n      dup2\n      mstore\n      0x20\n      add\n      swap1\n      dup2\n      mstore\n      0x20\n      add\n      0x00\n      keccak256\n      0x00\n        /* \"contracts/MyNFT.sol\":2688:2737  isApprovedForAll[msg.sender][operator] = approved */\n      0x0100\n      exp\n      dup2\n      sload\n      dup2\n      0xff\n      mul\n      not\n      and\n      swap1\n      dup4\n      iszero\n      iszero\n      mul\n      or\n      swap1\n      sstore\n      pop\n        /* \"contracts/MyNFT.sol\":2779:2787  operator */\n      dup2\n        /* \"contracts/MyNFT.sol\":2752:2798  ApprovalForAll(msg.sender, operator, approved) */\n      0xffffffffffffffffffffffffffffffffffffffff\n      and\n        /* \"contracts/MyNFT.sol\":2767:2777  msg.sender */\n      caller\n        /* \"contracts/MyNFT.sol\":2752:2798  ApprovalForAll(msg.sender, operator, approved) */\n      0xffffffffffffffffffffffffffffffffffffffff\n      and\n      0x17307eab39ab6107e8899845ad3d59bd9653f200f220920489ca2b5937696c31\n        /* \"contracts/MyNFT.sol\":2789:2797  approved */\n      dup4\n        /* \"contracts/MyNFT.sol\":2752:2798  ApprovalForAll(msg.sender, operator, approved) */\n      mload(0x40)\n      tag_123\n      swap2\n      swap1\n      tag_21\n      jump\t// in\n    tag_123:\n      mload(0x40)\n      dup1\n      swap2\n      sub\n      swap1\n      log3\n        /* \"contracts/MyNFT.sol\":2609:2805  function setApprovalForAll(address operator, bool approved) external {... */\n      pop\n      pop\n      jump\t// out\n        /* \"contracts/MyNFT.sol\":4459:4974  function safeTransferFrom(... */\n    tag_62:\n        /* \"contracts/MyNFT.sol\":4601:4627  transferFrom(from, to, id) */\n      tag_125\n        /* \"contracts/MyNFT.sol\":4614:4618  from */\n      dup6\n        /* \"contracts/MyNFT.sol\":4620:4622  to */\n      dup6\n        /* \"contracts/MyNFT.sol\":4624:4626  id */\n      dup6\n        /* \"contracts/MyNFT.sol\":4601:4613  transferFrom */\n      tag_35\n        /* \"contracts/MyNFT.sol\":4601:4627  transferFrom(from, to, id) */\n      jump\t// in\n    tag_125:\n        /* \"contracts/MyNFT.sol\":4677:4678  0 */\n      0x00\n        /* \"contracts/MyNFT.sol\":4659:4661  to */\n      dup5\n        /* \"contracts/MyNFT.sol\":4659:4673  to.code.length */\n      0xffffffffffffffffffffffffffffffffffffffff\n      and\n      extcodesize\n        /* \"contracts/MyNFT.sol\":4659:4678  to.code.length == 0 */\n      eq\n        /* \"contracts/MyNFT.sol\":4659:4925  to.code.length == 0 ||... */\n      dup1\n      tag_126\n      jumpi\n      pop\n        /* \"contracts/MyNFT.sol\":4884:4925  IERC721Receiver.onERC721Received.selector */\n      shl(0xe0, 0x150b7a02)\n        /* \"contracts/MyNFT.sol\":4698:4925  IERC721Receiver(to).onERC721Received(... */\n      not(0xffffffffffffffffffffffffffffffffffffffffffffffffffffffff)\n      and\n        /* \"contracts/MyNFT.sol\":4714:4716  to */\n      dup5\n        /* \"contracts/MyNFT.sol\":4698:4734  IERC721Receiver(to).onERC721Received */\n      0xffffffffffffffffffffffffffffffffffffffff\n      and\n      0x150b7a02\n        /* \"contracts/MyNFT.sol\":4756:4766  msg.sender */\n      caller\n        /* \"contracts/MyNFT.sol\":4788:4792  from */\n      dup9\n        /* \"contracts/MyNFT.sol\":4814:4816  id */\n      dup8\n        /* \"contracts/MyNFT.sol\":4838:4842  data */\n      dup8\n      dup8\n        /* \"contracts/MyNFT.sol\":4698:4860  IERC721Receiver(to).onERC721Received(... */\n      mload(0x40)\n      dup7\n      0xffffffff\n      and\n      0xe0\n      shl\n      dup2\n      mstore\n      0x04\n      add\n      tag_127\n      swap6\n      swap5\n      swap4\n      swap3\n      swap2\n      swap1\n      tag_128\n      jump\t// in\n    tag_127:\n      0x20\n      mload(0x40)\n      dup1\n      dup4\n      sub\n      dup2\n      0x00\n      dup8\n      gas\n      call\n      iszero\n      dup1\n      iszero\n      tag_130\n      jumpi\n      returndatasize\n      0x00\n      dup1\n      returndatacopy\n      revert(0x00, returndatasize)\n    tag_130:\n      pop\n      pop\n      pop\n      pop\n      mload(0x40)\n      returndatasize\n      not(0x1f)\n      0x1f\n      dup3\n      add\n      and\n      dup3\n      add\n      dup1\n      0x40\n      mstore\n      pop\n      dup2\n      add\n      swap1\n      tag_131\n      swap2\n      swap1\n      tag_105\n      jump\t// in\n    tag_131:\n        /* \"contracts/MyNFT.sol\":4698:4925  IERC721Receiver(to).onERC721Received(... */\n      not(0xffffffffffffffffffffffffffffffffffffffffffffffffffffffff)\n      and\n      eq\n        /* \"contracts/MyNFT.sol\":4659:4925  to.code.length == 0 ||... */\n    tag_126:\n        /* \"contracts/MyNFT.sol\":4638:4967  require(... */\n      tag_132\n      jumpi\n      mload(0x40)\n      0x08c379a000000000000000000000000000000000000000000000000000000000\n      dup2\n      mstore\n      0x04\n      add\n      tag_133\n      swap1\n      tag_108\n      jump\t// in\n    tag_133:\n      mload(0x40)\n      dup1\n      swap2\n      sub\n      swap1\n      revert\n    tag_132:\n        /* \"contracts/MyNFT.sol\":4459:4974  function safeTransferFrom(... */\n      pop\n      pop\n      pop\n      pop\n      pop\n      jump\t// out\n        /* \"contracts/MyNFT.sol\":1960:2028  mapping(address => mapping(address => bool)) public isApprovedForAll */\n    tag_66:\n      mstore(0x20, 0x03)\n      dup2\n      0x00\n      mstore\n      mstore(0x20, keccak256(0x00, 0x40))\n      dup1\n      0x00\n      mstore\n      keccak256(0x00, 0x40)\n      0x00\n      swap2\n      pop\n      swap2\n      pop\n      swap1\n      sload\n      swap1\n      0x0100\n      exp\n      swap1\n      div\n      0xff\n      and\n      dup2\n      jump\t// out\n        /* \"contracts/MyNFT.sol\":3302:3564  function _isApprovedOrOwner(... */\n    tag_87:\n        /* \"contracts/MyNFT.sol\":3427:3431  bool */\n      0x00\n        /* \"contracts/MyNFT.sol\":3462:3467  owner */\n      dup4\n        /* \"contracts/MyNFT.sol\":3451:3467  spender == owner */\n      0xffffffffffffffffffffffffffffffffffffffff\n      and\n        /* \"contracts/MyNFT.sol\":3451:3458  spender */\n      dup4\n        /* \"contracts/MyNFT.sol\":3451:3467  spender == owner */\n      0xffffffffffffffffffffffffffffffffffffffff\n      and\n      eq\n        /* \"contracts/MyNFT.sol\":3451:3515  spender == owner ||... */\n      dup1\n      tag_135\n      jumpi\n      pop\n        /* \"contracts/MyNFT.sol\":3483:3499  isApprovedForAll */\n      0x03\n        /* \"contracts/MyNFT.sol\":3483:3506  isApprovedForAll[owner] */\n      0x00\n        /* \"contracts/MyNFT.sol\":3500:3505  owner */\n      dup6\n        /* \"contracts/MyNFT.sol\":3483:3506  isApprovedForAll[owner] */\n      0xffffffffffffffffffffffffffffffffffffffff\n      and\n      0xffffffffffffffffffffffffffffffffffffffff\n      and\n      dup2\n      mstore\n      0x20\n      add\n      swap1\n      dup2\n      mstore\n      0x20\n      add\n      0x00\n      keccak256\n        /* \"contracts/MyNFT.sol\":3483:3515  isApprovedForAll[owner][spender] */\n      0x00\n        /* \"contracts/MyNFT.sol\":3507:3514  spender */\n      dup5\n        /* \"contracts/MyNFT.sol\":3483:3515  isApprovedForAll[owner][spender] */\n      0xffffffffffffffffffffffffffffffffffffffff\n      and\n      0xffffffffffffffffffffffffffffffffffffffff\n      and\n      dup2\n      mstore\n      0x20\n      add\n      swap1\n      dup2\n      mstore\n      0x20\n      add\n      0x00\n      keccak256\n      0x00\n      swap1\n      sload\n      swap1\n      0x0100\n      exp\n      swap1\n      div\n      0xff\n      and\n        /* \"contracts/MyNFT.sol\":3451:3515  spender == owner ||... */\n    tag_135:\n        /* \"contracts/MyNFT.sol\":3451:3556  spender == owner ||... */\n      dup1\n      tag_136\n      jumpi\n      pop\n        /* \"contracts/MyNFT.sol\":3542:3552  _approvals */\n      0x02\n        /* \"contracts/MyNFT.sol\":3542:3556  _approvals[id] */\n      0x00\n        /* \"contracts/MyNFT.sol\":3553:3555  id */\n      dup4\n        /* \"contracts/MyNFT.sol\":3542:3556  _approvals[id] */\n      dup2\n      mstore\n      0x20\n      add\n      swap1\n      dup2\n      mstore\n      0x20\n      add\n      0x00\n      keccak256\n      0x00\n      swap1\n      sload\n      swap1\n      0x0100\n      exp\n      swap1\n      div\n      0xffffffffffffffffffffffffffffffffffffffff\n      and\n        /* \"contracts/MyNFT.sol\":3531:3556  spender == _approvals[id] */\n      0xffffffffffffffffffffffffffffffffffffffff\n      and\n        /* \"contracts/MyNFT.sol\":3531:3538  spender */\n      dup4\n        /* \"contracts/MyNFT.sol\":3531:3556  spender == _approvals[id] */\n      0xffffffffffffffffffffffffffffffffffffffff\n      and\n      eq\n        /* \"contracts/MyNFT.sol\":3451:3556  spender == owner ||... */\n    tag_136:\n        /* \"contracts/MyNFT.sol\":3443:3557  return (spender == owner ||... */\n      swap1\n      pop\n        /* \"contracts/MyNFT.sol\":3302:3564  function _isApprovedOrOwner(... */\n      swap4\n      swap3\n      pop\n      pop\n      pop\n      jump\t// out\n        /* \"contracts/MyNFT.sol\":4980:5255  function _mint(address to, uint256 id) internal {... */\n    tag_96:\n        /* \"contracts/MyNFT.sol\":5060:5061  0 */\n      0x00\n        /* \"contracts/MyNFT.sol\":5046:5062  to != address(0) */\n      0xffffffffffffffffffffffffffffffffffffffff\n      and\n        /* \"contracts/MyNFT.sol\":5046:5048  to */\n      dup3\n        /* \"contracts/MyNFT.sol\":5046:5062  to != address(0) */\n      0xffffffffffffffffffffffffffffffffffffffff\n      and\n      sub\n        /* \"contracts/MyNFT.sol\":5038:5087  require(to != address(0), \"mint to zero address\") */\n      tag_138\n      jumpi\n      mload(0x40)\n      0x08c379a000000000000000000000000000000000000000000000000000000000\n      dup2\n      mstore\n      0x04\n      add\n      tag_139\n      swap1\n      tag_140\n      jump\t// in\n    tag_139:\n      mload(0x40)\n      dup1\n      swap2\n      sub\n      swap1\n      revert\n    tag_138:\n        /* \"contracts/MyNFT.sol\":5129:5130  0 */\n      0x00\n        /* \"contracts/MyNFT.sol\":5105:5131  _ownerOf[id] == address(0) */\n      0xffffffffffffffffffffffffffffffffffffffff\n      and\n        /* \"contracts/MyNFT.sol\":5105:5113  _ownerOf */\n      0x00\n        /* \"contracts/MyNFT.sol\":5105:5117  _ownerOf[id] */\n      dup1\n        /* \"contracts/MyNFT.sol\":5114:5116  id */\n      dup4\n        /* \"contracts/MyNFT.sol\":5105:5117  _ownerOf[id] */\n      dup2\n      mstore\n      0x20\n      add\n      swap1\n      dup2\n      mstore\n      0x20\n      add\n      0x00\n      keccak256\n      0x00\n      swap1\n      sload\n      swap1\n      0x0100\n      exp\n      swap1\n      div\n      0xffffffffffffffffffffffffffffffffffffffff\n      and\n        /* \"contracts/MyNFT.sol\":5105:5131  _ownerOf[id] == address(0) */\n      0xffffffffffffffffffffffffffffffffffffffff\n      and\n      eq\n        /* \"contracts/MyNFT.sol\":5097:5150  require(_ownerOf[id] == address(0), \"already minted\") */\n      tag_141\n      jumpi\n      mload(0x40)\n      0x08c379a000000000000000000000000000000000000000000000000000000000\n      dup2\n      mstore\n      0x04\n      add\n      tag_142\n      swap1\n      tag_143\n      jump\t// in\n    tag_142:\n      mload(0x40)\n      dup1\n      swap2\n      sub\n      swap1\n      revert\n    tag_141:\n        /* \"contracts/MyNFT.sol\":5161:5171  _balanceOf */\n      0x01\n        /* \"contracts/MyNFT.sol\":5161:5175  _balanceOf[to] */\n      0x00\n        /* \"contracts/MyNFT.sol\":5172:5174  to */\n      dup4\n        /* \"contracts/MyNFT.sol\":5161:5175  _balanceOf[to] */\n      0xffffffffffffffffffffffffffffffffffffffff\n      and\n      0xffffffffffffffffffffffffffffffffffffffff\n      and\n      dup2\n      mstore\n      0x20\n      add\n      swap1\n      dup2\n      mstore\n      0x20\n      add\n      0x00\n      keccak256\n      0x00\n        /* \"contracts/MyNFT.sol\":5161:5177  _balanceOf[to]++ */\n      dup2\n      sload\n      dup1\n      swap3\n      swap2\n      swap1\n      tag_144\n      swap1\n      tag_93\n      jump\t// in\n    tag_144:\n      swap2\n      swap1\n      pop\n      sstore\n      pop\n        /* \"contracts/MyNFT.sol\":5202:5204  to */\n      dup2\n        /* \"contracts/MyNFT.sol\":5187:5195  _ownerOf */\n      0x00\n        /* \"contracts/MyNFT.sol\":5187:5199  _ownerOf[id] */\n      dup1\n        /* \"contracts/MyNFT.sol\":5196:5198  id */\n      dup4\n        /* \"contracts/MyNFT.sol\":5187:5199  _ownerOf[id] */\n      dup2\n      mstore\n      0x20\n      add\n      swap1\n      dup2\n      mstore\n      0x20\n      add\n      0x00\n      keccak256\n      0x00\n        /* \"contracts/MyNFT.sol\":5187:5204  _ownerOf[id] = to */\n      0x0100\n      exp\n      dup2\n      sload\n      dup2\n      0xffffffffffffffffffffffffffffffffffffffff\n      mul\n      not\n      and\n      swap1\n      dup4\n      0xffffffffffffffffffffffffffffffffffffffff\n      and\n      mul\n      or\n      swap1\n      sstore\n      pop\n        /* \"contracts/MyNFT.sol\":5245:5247  id */\n      dup1\n        /* \"contracts/MyNFT.sol\":5241:5243  to */\n      dup3\n        /* \"contracts/MyNFT.sol\":5220:5248  Transfer(address(0), to, id) */\n      0xffffffffffffffffffffffffffffffffffffffff\n      and\n        /* \"contracts/MyNFT.sol\":5237:5238  0 */\n      0x00\n        /* \"contracts/MyNFT.sol\":5220:5248  Transfer(address(0), to, id) */\n      0xffffffffffffffffffffffffffffffffffffffff\n      and\n      0xddf252ad1be2c89b69c2b068fc378daa952ba7f163c4a11628f55a4df523b3ef\n      mload(0x40)\n      mload(0x40)\n      dup1\n      swap2\n      sub\n      swap1\n      log4\n        /* \"contracts/MyNFT.sol\":4980:5255  function _mint(address to, uint256 id) internal {... */\n      pop\n      pop\n      jump\t// out\n        /* \"contracts/MyNFT.sol\":5261:5535  function _burn(uint256 id) internal {... */\n    tag_114:\n        /* \"contracts/MyNFT.sol\":5307:5320  address owner */\n      0x00\n        /* \"contracts/MyNFT.sol\":5323:5331  _ownerOf */\n      dup1\n        /* \"contracts/MyNFT.sol\":5323:5335  _ownerOf[id] */\n      0x00\n        /* \"contracts/MyNFT.sol\":5332:5334  id */\n      dup4\n        /* \"contracts/MyNFT.sol\":5323:5335  _ownerOf[id] */\n      dup2\n      mstore\n      0x20\n      add\n      swap1\n      dup2\n      mstore\n      0x20\n      add\n      0x00\n      keccak256\n      0x00\n      swap1\n      sload\n      swap1\n      0x0100\n      exp\n      swap1\n      div\n      0xffffffffffffffffffffffffffffffffffffffff\n      and\n        /* \"contracts/MyNFT.sol\":5307:5335  address owner = _ownerOf[id] */\n      swap1\n      pop\n        /* \"contracts/MyNFT.sol\":5370:5371  0 */\n      0x00\n        /* \"contracts/MyNFT.sol\":5353:5372  owner != address(0) */\n      0xffffffffffffffffffffffffffffffffffffffff\n      and\n        /* \"contracts/MyNFT.sol\":5353:5358  owner */\n      dup2\n        /* \"contracts/MyNFT.sol\":5353:5372  owner != address(0) */\n      0xffffffffffffffffffffffffffffffffffffffff\n      and\n      sub\n        /* \"contracts/MyNFT.sol\":5345:5387  require(owner != address(0), \"not minted\") */\n      tag_146\n      jumpi\n      mload(0x40)\n      0x08c379a000000000000000000000000000000000000000000000000000000000\n      dup2\n      mstore\n      0x04\n      add\n      tag_147\n      swap1\n      tag_148\n      jump\t// in\n    tag_147:\n      mload(0x40)\n      dup1\n      swap2\n      sub\n      swap1\n      revert\n    tag_146:\n        /* \"contracts/MyNFT.sol\":5419:5420  1 */\n      0x01\n        /* \"contracts/MyNFT.sol\":5398:5408  _balanceOf */\n      dup1\n        /* \"contracts/MyNFT.sol\":5398:5415  _balanceOf[owner] */\n      0x00\n        /* \"contracts/MyNFT.sol\":5409:5414  owner */\n      dup4\n        /* \"contracts/MyNFT.sol\":5398:5415  _balanceOf[owner] */\n      0xffffffffffffffffffffffffffffffffffffffff\n      and\n      0xffffffffffffffffffffffffffffffffffffffff\n      and\n      dup2\n      mstore\n      0x20\n      add\n      swap1\n      dup2\n      mstore\n      0x20\n      add\n      0x00\n      keccak256\n      0x00\n        /* \"contracts/MyNFT.sol\":5398:5420  _balanceOf[owner] -= 1 */\n      dup3\n      dup3\n      sload\n      tag_149\n      swap2\n      swap1\n      tag_150\n      jump\t// in\n    tag_149:\n      swap3\n      pop\n      pop\n      dup2\n      swap1\n      sstore\n      pop\n        /* \"contracts/MyNFT.sol\":5438:5446  _ownerOf */\n      0x00\n        /* \"contracts/MyNFT.sol\":5438:5450  _ownerOf[id] */\n      dup1\n        /* \"contracts/MyNFT.sol\":5447:5449  id */\n      dup4\n        /* \"contracts/MyNFT.sol\":5438:5450  _ownerOf[id] */\n      dup2\n      mstore\n      0x20\n      add\n      swap1\n      dup2\n      mstore\n      0x20\n      add\n      0x00\n      keccak256\n      0x00\n        /* \"contracts/MyNFT.sol\":5431:5450  delete _ownerOf[id] */\n      0x0100\n      exp\n      dup2\n      sload\n      swap1\n      0xffffffffffffffffffffffffffffffffffffffff\n      mul\n      not\n      and\n      swap1\n      sstore\n        /* \"contracts/MyNFT.sol\":5467:5477  _approvals */\n      0x02\n        /* \"contracts/MyNFT.sol\":5467:5481  _approvals[id] */\n      0x00\n        /* \"contracts/MyNFT.sol\":5478:5480  id */\n      dup4\n        /* \"contracts/MyNFT.sol\":5467:5481  _approvals[id] */\n      dup2\n      mstore\n      0x20\n      add\n      swap1\n      dup2\n      mstore\n      0x20\n      add\n      0x00\n      keccak256\n      0x00\n        /* \"contracts/MyNFT.sol\":5460:5481  delete _approvals[id] */\n      0x0100\n      exp\n      dup2\n      sload\n      swap1\n      0xffffffffffffffffffffffffffffffffffffffff\n      mul\n      not\n      and\n      swap1\n      sstore\n        /* \"contracts/MyNFT.sol\":5525:5527  id */\n      dup2\n        /* \"contracts/MyNFT.sol\":5521:5522  0 */\n      0x00\n        /* \"contracts/MyNFT.sol\":5497:5528  Transfer(owner, address(0), id) */\n      0xffffffffffffffffffffffffffffffffffffffff\n      and\n        /* \"contracts/MyNFT.sol\":5506:5511  owner */\n      dup3\n        /* \"contracts/MyNFT.sol\":5497:5528  Transfer(owner, address(0), id) */\n      0xffffffffffffffffffffffffffffffffffffffff\n      and\n      0xddf252ad1be2c89b69c2b068fc378daa952ba7f163c4a11628f55a4df523b3ef\n      mload(0x40)\n      mload(0x40)\n      dup1\n      swap2\n      sub\n      swap1\n      log4\n        /* \"contracts/MyNFT.sol\":5297:5535  {... */\n      pop\n        /* \"contracts/MyNFT.sol\":5261:5535  function _burn(uint256 id) internal {... */\n      pop\n      jump\t// out\n        /* \"#utility.yul\":88:205   */\n    tag_152:\n        /* \"#utility.yul\":197:198   */\n      0x00\n        /* \"#utility.yul\":194:195   */\n      dup1\n        /* \"#utility.yul\":187:199   */\n      revert\n        /* \"#utility.yul\":211:328   */\n    tag_153:\n        /* \"#utility.yul\":320:321   */\n      0x00\n        /* \"#utility.yul\":317:318   */\n      dup1\n        /* \"#utility.yul\":310:322   */\n      revert\n        /* \"#utility.yul\":334:483   */\n    tag_154:\n        /* \"#utility.yul\":370:377   */\n      0x00\n        /* \"#utility.yul\":410:476   */\n      0xffffffff00000000000000000000000000000000000000000000000000000000\n        /* \"#utility.yul\":403:408   */\n      dup3\n        /* \"#utility.yul\":399:477   */\n      and\n        /* \"#utility.yul\":388:477   */\n      swap1\n      pop\n        /* \"#utility.yul\":334:483   */\n      swap2\n      swap1\n      pop\n      jump\t// out\n        /* \"#utility.yul\":489:609   */\n    tag_155:\n        /* \"#utility.yul\":561:584   */\n      tag_209\n        /* \"#utility.yul\":578:583   */\n      dup2\n        /* \"#utility.yul\":561:584   */\n      tag_154\n      jump\t// in\n    tag_209:\n        /* \"#utility.yul\":554:559   */\n      dup2\n        /* \"#utility.yul\":551:585   */\n      eq\n        /* \"#utility.yul\":541:603   */\n      tag_210\n      jumpi\n        /* \"#utility.yul\":599:600   */\n      0x00\n        /* \"#utility.yul\":596:597   */\n      dup1\n        /* \"#utility.yul\":589:601   */\n      revert\n        /* \"#utility.yul\":541:603   */\n    tag_210:\n        /* \"#utility.yul\":489:609   */\n      pop\n      jump\t// out\n        /* \"#utility.yul\":615:752   */\n    tag_156:\n        /* \"#utility.yul\":660:665   */\n      0x00\n        /* \"#utility.yul\":698:704   */\n      dup2\n        /* \"#utility.yul\":685:705   */\n      calldataload\n        /* \"#utility.yul\":676:705   */\n      swap1\n      pop\n        /* \"#utility.yul\":714:746   */\n      tag_212\n        /* \"#utility.yul\":740:745   */\n      dup2\n        /* \"#utility.yul\":714:746   */\n      tag_155\n      jump\t// in\n    tag_212:\n        /* \"#utility.yul\":615:752   */\n      swap3\n      swap2\n      pop\n      pop\n      jump\t// out\n        /* \"#utility.yul\":758:1085   */\n    tag_18:\n        /* \"#utility.yul\":816:822   */\n      0x00\n        /* \"#utility.yul\":865:867   */\n      0x20\n        /* \"#utility.yul\":853:862   */\n      dup3\n        /* \"#utility.yul\":844:851   */\n      dup5\n        /* \"#utility.yul\":840:863   */\n      sub\n        /* \"#utility.yul\":836:868   */\n      slt\n        /* \"#utility.yul\":833:952   */\n      iszero\n      tag_214\n      jumpi\n        /* \"#utility.yul\":871:950   */\n      tag_215\n      tag_152\n      jump\t// in\n    tag_215:\n        /* \"#utility.yul\":833:952   */\n    tag_214:\n        /* \"#utility.yul\":991:992   */\n      0x00\n        /* \"#utility.yul\":1016:1068   */\n      tag_216\n        /* \"#utility.yul\":1060:1067   */\n      dup5\n        /* \"#utility.yul\":1051:1057   */\n      dup3\n        /* \"#utility.yul\":1040:1049   */\n      dup6\n        /* \"#utility.yul\":1036:1058   */\n      add\n        /* \"#utility.yul\":1016:1068   */\n      tag_156\n      jump\t// in\n    tag_216:\n        /* \"#utility.yul\":1006:1068   */\n      swap2\n      pop\n        /* \"#utility.yul\":962:1078   */\n      pop\n        /* \"#utility.yul\":758:1085   */\n      swap3\n      swap2\n      pop\n      pop\n      jump\t// out\n        /* \"#utility.yul\":1091:1181   */\n    tag_157:\n        /* \"#utility.yul\":1125:1132   */\n      0x00\n        /* \"#utility.yul\":1168:1173   */\n      dup2\n        /* \"#utility.yul\":1161:1174   */\n      iszero\n        /* \"#utility.yul\":1154:1175   */\n      iszero\n        /* \"#utility.yul\":1143:1175   */\n      swap1\n      pop\n        /* \"#utility.yul\":1091:1181   */\n      swap2\n      swap1\n      pop\n      jump\t// out\n        /* \"#utility.yul\":1187:1296   */\n    tag_158:\n        /* \"#utility.yul\":1268:1289   */\n      tag_219\n        /* \"#utility.yul\":1283:1288   */\n      dup2\n        /* \"#utility.yul\":1268:1289   */\n      tag_157\n      jump\t// in\n    tag_219:\n        /* \"#utility.yul\":1263:1266   */\n      dup3\n        /* \"#utility.yul\":1256:1290   */\n      mstore\n        /* \"#utility.yul\":1187:1296   */\n      pop\n      pop\n      jump\t// out\n        /* \"#utility.yul\":1302:1512   */\n    tag_21:\n        /* \"#utility.yul\":1389:1393   */\n      0x00\n        /* \"#utility.yul\":1427:1429   */\n      0x20\n        /* \"#utility.yul\":1416:1425   */\n      dup3\n        /* \"#utility.yul\":1412:1430   */\n      add\n        /* \"#utility.yul\":1404:1430   */\n      swap1\n      pop\n        /* \"#utility.yul\":1440:1505   */\n      tag_221\n        /* \"#utility.yul\":1502:1503   */\n      0x00\n        /* \"#utility.yul\":1491:1500   */\n      dup4\n        /* \"#utility.yul\":1487:1504   */\n      add\n        /* \"#utility.yul\":1478:1484   */\n      dup5\n        /* \"#utility.yul\":1440:1505   */\n      tag_158\n      jump\t// in\n    tag_221:\n        /* \"#utility.yul\":1302:1512   */\n      swap3\n      swap2\n      pop\n      pop\n      jump\t// out\n        /* \"#utility.yul\":1518:1595   */\n    tag_159:\n        /* \"#utility.yul\":1555:1562   */\n      0x00\n        /* \"#utility.yul\":1584:1589   */\n      dup2\n        /* \"#utility.yul\":1573:1589   */\n      swap1\n      pop\n        /* \"#utility.yul\":1518:1595   */\n      swap2\n      swap1\n      pop\n      jump\t// out\n        /* \"#utility.yul\":1601:1723   */\n    tag_160:\n        /* \"#utility.yul\":1674:1698   */\n      tag_224\n        /* \"#utility.yul\":1692:1697   */\n      dup2\n        /* \"#utility.yul\":1674:1698   */\n      tag_159\n      jump\t// in\n    tag_224:\n        /* \"#utility.yul\":1667:1672   */\n      dup2\n        /* \"#utility.yul\":1664:1699   */\n      eq\n        /* \"#utility.yul\":1654:1717   */\n      tag_225\n      jumpi\n        /* \"#utility.yul\":1713:1714   */\n      0x00\n        /* \"#utility.yul\":1710:1711   */\n      dup1\n        /* \"#utility.yul\":1703:1715   */\n      revert\n        /* \"#utility.yul\":1654:1717   */\n    tag_225:\n        /* \"#utility.yul\":1601:1723   */\n      pop\n      jump\t// out\n        /* \"#utility.yul\":1729:1868   */\n    tag_161:\n        /* \"#utility.yul\":1775:1780   */\n      0x00\n        /* \"#utility.yul\":1813:1819   */\n      dup2\n        /* \"#utility.yul\":1800:1820   */\n      calldataload\n        /* \"#utility.yul\":1791:1820   */\n      swap1\n      pop\n        /* \"#utility.yul\":1829:1862   */\n      tag_227\n        /* \"#utility.yul\":1856:1861   */\n      dup2\n        /* \"#utility.yul\":1829:1862   */\n      tag_160\n      jump\t// in\n    tag_227:\n        /* \"#utility.yul\":1729:1868   */\n      swap3\n      swap2\n      pop\n      pop\n      jump\t// out\n        /* \"#utility.yul\":1874:2203   */\n    tag_24:\n        /* \"#utility.yul\":1933:1939   */\n      0x00\n        /* \"#utility.yul\":1982:1984   */\n      0x20\n        /* \"#utility.yul\":1970:1979   */\n      dup3\n        /* \"#utility.yul\":1961:1968   */\n      dup5\n        /* \"#utility.yul\":1957:1980   */\n      sub\n        /* \"#utility.yul\":1953:1985   */\n      slt\n        /* \"#utility.yul\":1950:2069   */\n      iszero\n      tag_229\n      jumpi\n        /* \"#utility.yul\":1988:2067   */\n      tag_230\n      tag_152\n      jump\t// in\n    tag_230:\n        /* \"#utility.yul\":1950:2069   */\n    tag_229:\n        /* \"#utility.yul\":2108:2109   */\n      0x00\n        /* \"#utility.yul\":2133:2186   */\n      tag_231\n        /* \"#utility.yul\":2178:2185   */\n      dup5\n        /* \"#utility.yul\":2169:2175   */\n      dup3\n        /* \"#utility.yul\":2158:2167   */\n      dup6\n        /* \"#utility.yul\":2154:2176   */\n      add\n        /* \"#utility.yul\":2133:2186   */\n      tag_161\n      jump\t// in\n    tag_231:\n        /* \"#utility.yul\":2123:2186   */\n      swap2\n      pop\n        /* \"#utility.yul\":2079:2196   */\n      pop\n        /* \"#utility.yul\":1874:2203   */\n      swap3\n      swap2\n      pop\n      pop\n      jump\t// out\n        /* \"#utility.yul\":2209:2335   */\n    tag_162:\n        /* \"#utility.yul\":2246:2253   */\n      0x00\n        /* \"#utility.yul\":2286:2328   */\n      0xffffffffffffffffffffffffffffffffffffffff\n        /* \"#utility.yul\":2279:2284   */\n      dup3\n        /* \"#utility.yul\":2275:2329   */\n      and\n        /* \"#utility.yul\":2264:2329   */\n      swap1\n      pop\n        /* \"#utility.yul\":2209:2335   */\n      swap2\n      swap1\n      pop\n      jump\t// out\n        /* \"#utility.yul\":2341:2437   */\n    tag_163:\n        /* \"#utility.yul\":2378:2385   */\n      0x00\n        /* \"#utility.yul\":2407:2431   */\n      tag_234\n        /* \"#utility.yul\":2425:2430   */\n      dup3\n        /* \"#utility.yul\":2407:2431   */\n      tag_162\n      jump\t// in\n    tag_234:\n        /* \"#utility.yul\":2396:2431   */\n      swap1\n      pop\n        /* \"#utility.yul\":2341:2437   */\n      swap2\n      swap1\n      pop\n      jump\t// out\n        /* \"#utility.yul\":2443:2561   */\n    tag_164:\n        /* \"#utility.yul\":2530:2554   */\n      tag_236\n        /* \"#utility.yul\":2548:2553   */\n      dup2\n        /* \"#utility.yul\":2530:2554   */\n      tag_163\n      jump\t// in\n    tag_236:\n        /* \"#utility.yul\":2525:2528   */\n      dup3\n        /* \"#utility.yul\":2518:2555   */\n      mstore\n        /* \"#utility.yul\":2443:2561   */\n      pop\n      pop\n      jump\t// out\n        /* \"#utility.yul\":2567:2789   */\n    tag_27:\n        /* \"#utility.yul\":2660:2664   */\n      0x00\n        /* \"#utility.yul\":2698:2700   */\n      0x20\n        /* \"#utility.yul\":2687:2696   */\n      dup3\n        /* \"#utility.yul\":2683:2701   */\n      add\n        /* \"#utility.yul\":2675:2701   */\n      swap1\n      pop\n        /* \"#utility.yul\":2711:2782   */\n      tag_238\n        /* \"#utility.yul\":2779:2780   */\n      0x00\n        /* \"#utility.yul\":2768:2777   */\n      dup4\n        /* \"#utility.yul\":2764:2781   */\n      add\n        /* \"#utility.yul\":2755:2761   */\n      dup5\n        /* \"#utility.yul\":2711:2782   */\n      tag_164\n      jump\t// in\n    tag_238:\n        /* \"#utility.yul\":2567:2789   */\n      swap3\n      swap2\n      pop\n      pop\n      jump\t// out\n        /* \"#utility.yul\":2795:2917   */\n    tag_165:\n        /* \"#utility.yul\":2868:2892   */\n      tag_240\n        /* \"#utility.yul\":2886:2891   */\n      dup2\n        /* \"#utility.yul\":2868:2892   */\n      tag_163\n      jump\t// in\n    tag_240:\n        /* \"#utility.yul\":2861:2866   */\n      dup2\n        /* \"#utility.yul\":2858:2893   */\n      eq\n        /* \"#utility.yul\":2848:2911   */\n      tag_241\n      jumpi\n        /* \"#utility.yul\":2907:2908   */\n      0x00\n        /* \"#utility.yul\":2904:2905   */\n      dup1\n        /* \"#utility.yul\":2897:2909   */\n      revert\n        /* \"#utility.yul\":2848:2911   */\n    tag_241:\n        /* \"#utility.yul\":2795:2917   */\n      pop\n      jump\t// out\n        /* \"#utility.yul\":2923:3062   */\n    tag_166:\n        /* \"#utility.yul\":2969:2974   */\n      0x00\n        /* \"#utility.yul\":3007:3013   */\n      dup2\n        /* \"#utility.yul\":2994:3014   */\n      calldataload\n        /* \"#utility.yul\":2985:3014   */\n      swap1\n      pop\n        /* \"#utility.yul\":3023:3056   */\n      tag_243\n        /* \"#utility.yul\":3050:3055   */\n      dup2\n        /* \"#utility.yul\":3023:3056   */\n      tag_165\n      jump\t// in\n    tag_243:\n        /* \"#utility.yul\":2923:3062   */\n      swap3\n      swap2\n      pop\n      pop\n      jump\t// out\n        /* \"#utility.yul\":3068:3542   */\n    tag_30:\n        /* \"#utility.yul\":3136:3142   */\n      0x00\n        /* \"#utility.yul\":3144:3150   */\n      dup1\n        /* \"#utility.yul\":3193:3195   */\n      0x40\n        /* \"#utility.yul\":3181:3190   */\n      dup4\n        /* \"#utility.yul\":3172:3179   */\n      dup6\n        /* \"#utility.yul\":3168:3191   */\n      sub\n        /* \"#utility.yul\":3164:3196   */\n      slt\n        /* \"#utility.yul\":3161:3280   */\n      iszero\n      tag_245\n      jumpi\n        /* \"#utility.yul\":3199:3278   */\n      tag_246\n      tag_152\n      jump\t// in\n    tag_246:\n        /* \"#utility.yul\":3161:3280   */\n    tag_245:\n        /* \"#utility.yul\":3319:3320   */\n      0x00\n        /* \"#utility.yul\":3344:3397   */\n      tag_247\n        /* \"#utility.yul\":3389:3396   */\n      dup6\n        /* \"#utility.yul\":3380:3386   */\n      dup3\n        /* \"#utility.yul\":3369:3378   */\n      dup7\n        /* \"#utility.yul\":3365:3387   */\n      add\n        /* \"#utility.yul\":3344:3397   */\n      tag_166\n      jump\t// in\n    tag_247:\n        /* \"#utility.yul\":3334:3397   */\n      swap3\n      pop\n        /* \"#utility.yul\":3290:3407   */\n      pop\n        /* \"#utility.yul\":3446:3448   */\n      0x20\n        /* \"#utility.yul\":3472:3525   */\n      tag_248\n        /* \"#utility.yul\":3517:3524   */\n      dup6\n        /* \"#utility.yul\":3508:3514   */\n      dup3\n        /* \"#utility.yul\":3497:3506   */\n      dup7\n        /* \"#utility.yul\":3493:3515   */\n      add\n        /* \"#utility.yul\":3472:3525   */\n      tag_161\n      jump\t// in\n    tag_248:\n        /* \"#utility.yul\":3462:3525   */\n      swap2\n      pop\n        /* \"#utility.yul\":3417:3535   */\n      pop\n        /* \"#utility.yul\":3068:3542   */\n      swap3\n      pop\n      swap3\n      swap1\n      pop\n      jump\t// out\n        /* \"#utility.yul\":3548:4167   */\n    tag_34:\n        /* \"#utility.yul\":3625:3631   */\n      0x00\n        /* \"#utility.yul\":3633:3639   */\n      dup1\n        /* \"#utility.yul\":3641:3647   */\n      0x00\n        /* \"#utility.yul\":3690:3692   */\n      0x60\n        /* \"#utility.yul\":3678:3687   */\n      dup5\n        /* \"#utility.yul\":3669:3676   */\n      dup7\n        /* \"#utility.yul\":3665:3688   */\n      sub\n        /* \"#utility.yul\":3661:3693   */\n      slt\n        /* \"#utility.yul\":3658:3777   */\n      iszero\n      tag_250\n      jumpi\n        /* \"#utility.yul\":3696:3775   */\n      tag_251\n      tag_152\n      jump\t// in\n    tag_251:\n        /* \"#utility.yul\":3658:3777   */\n    tag_250:\n        /* \"#utility.yul\":3816:3817   */\n      0x00\n        /* \"#utility.yul\":3841:3894   */\n      tag_252\n        /* \"#utility.yul\":3886:3893   */\n      dup7\n        /* \"#utility.yul\":3877:3883   */\n      dup3\n        /* \"#utility.yul\":3866:3875   */\n      dup8\n        /* \"#utility.yul\":3862:3884   */\n      add\n        /* \"#utility.yul\":3841:3894   */\n      tag_166\n      jump\t// in\n    tag_252:\n        /* \"#utility.yul\":3831:3894   */\n      swap4\n      pop\n        /* \"#utility.yul\":3787:3904   */\n      pop\n        /* \"#utility.yul\":3943:3945   */\n      0x20\n        /* \"#utility.yul\":3969:4022   */\n      tag_253\n        /* \"#utility.yul\":4014:4021   */\n      dup7\n        /* \"#utility.yul\":4005:4011   */\n      dup3\n        /* \"#utility.yul\":3994:4003   */\n      dup8\n        /* \"#utility.yul\":3990:4012   */\n      add\n        /* \"#utility.yul\":3969:4022   */\n      tag_166\n      jump\t// in\n    tag_253:\n        /* \"#utility.yul\":3959:4022   */\n      swap3\n      pop\n        /* \"#utility.yul\":3914:4032   */\n      pop\n        /* \"#utility.yul\":4071:4073   */\n      0x40\n        /* \"#utility.yul\":4097:4150   */\n      tag_254\n        /* \"#utility.yul\":4142:4149   */\n      dup7\n        /* \"#utility.yul\":4133:4139   */\n      dup3\n        /* \"#utility.yul\":4122:4131   */\n      dup8\n        /* \"#utility.yul\":4118:4140   */\n      add\n        /* \"#utility.yul\":4097:4150   */\n      tag_161\n      jump\t// in\n    tag_254:\n        /* \"#utility.yul\":4087:4150   */\n      swap2\n      pop\n        /* \"#utility.yul\":4042:4160   */\n      pop\n        /* \"#utility.yul\":3548:4167   */\n      swap3\n      pop\n      swap3\n      pop\n      swap3\n      jump\t// out\n        /* \"#utility.yul\":4173:4502   */\n    tag_51:\n        /* \"#utility.yul\":4232:4238   */\n      0x00\n        /* \"#utility.yul\":4281:4283   */\n      0x20\n        /* \"#utility.yul\":4269:4278   */\n      dup3\n        /* \"#utility.yul\":4260:4267   */\n      dup5\n        /* \"#utility.yul\":4256:4279   */\n      sub\n        /* \"#utility.yul\":4252:4284   */\n      slt\n        /* \"#utility.yul\":4249:4368   */\n      iszero\n      tag_256\n      jumpi\n        /* \"#utility.yul\":4287:4366   */\n      tag_257\n      tag_152\n      jump\t// in\n    tag_257:\n        /* \"#utility.yul\":4249:4368   */\n    tag_256:\n        /* \"#utility.yul\":4407:4408   */\n      0x00\n        /* \"#utility.yul\":4432:4485   */\n      tag_258\n        /* \"#utility.yul\":4477:4484   */\n      dup5\n        /* \"#utility.yul\":4468:4474   */\n      dup3\n        /* \"#utility.yul\":4457:4466   */\n      dup6\n        /* \"#utility.yul\":4453:4475   */\n      add\n        /* \"#utility.yul\":4432:4485   */\n      tag_166\n      jump\t// in\n    tag_258:\n        /* \"#utility.yul\":4422:4485   */\n      swap2\n      pop\n        /* \"#utility.yul\":4378:4495   */\n      pop\n        /* \"#utility.yul\":4173:4502   */\n      swap3\n      swap2\n      pop\n      pop\n      jump\t// out\n        /* \"#utility.yul\":4508:4626   */\n    tag_167:\n        /* \"#utility.yul\":4595:4619   */\n      tag_260\n        /* \"#utility.yul\":4613:4618   */\n      dup2\n        /* \"#utility.yul\":4595:4619   */\n      tag_159\n      jump\t// in\n    tag_260:\n        /* \"#utility.yul\":4590:4593   */\n      dup3\n        /* \"#utility.yul\":4583:4620   */\n      mstore\n        /* \"#utility.yul\":4508:4626   */\n      pop\n      pop\n      jump\t// out\n        /* \"#utility.yul\":4632:4854   */\n    tag_54:\n        /* \"#utility.yul\":4725:4729   */\n      0x00\n        /* \"#utility.yul\":4763:4765   */\n      0x20\n        /* \"#utility.yul\":4752:4761   */\n      dup3\n        /* \"#utility.yul\":4748:4766   */\n      add\n        /* \"#utility.yul\":4740:4766   */\n      swap1\n      pop\n        /* \"#utility.yul\":4776:4847   */\n      tag_262\n        /* \"#utility.yul\":4844:4845   */\n      0x00\n        /* \"#utility.yul\":4833:4842   */\n      dup4\n        /* \"#utility.yul\":4829:4846   */\n      add\n        /* \"#utility.yul\":4820:4826   */\n      dup5\n        /* \"#utility.yul\":4776:4847   */\n      tag_167\n      jump\t// in\n    tag_262:\n        /* \"#utility.yul\":4632:4854   */\n      swap3\n      swap2\n      pop\n      pop\n      jump\t// out\n        /* \"#utility.yul\":4860:4976   */\n    tag_168:\n        /* \"#utility.yul\":4930:4951   */\n      tag_264\n        /* \"#utility.yul\":4945:4950   */\n      dup2\n        /* \"#utility.yul\":4930:4951   */\n      tag_157\n      jump\t// in\n    tag_264:\n        /* \"#utility.yul\":4923:4928   */\n      dup2\n        /* \"#utility.yul\":4920:4952   */\n      eq\n        /* \"#utility.yul\":4910:4970   */\n      tag_265\n      jumpi\n        /* \"#utility.yul\":4966:4967   */\n      0x00\n        /* \"#utility.yul\":4963:4964   */\n      dup1\n        /* \"#utility.yul\":4956:4968   */\n      revert\n        /* \"#utility.yul\":4910:4970   */\n    tag_265:\n        /* \"#utility.yul\":4860:4976   */\n      pop\n      jump\t// out\n        /* \"#utility.yul\":4982:5115   */\n    tag_169:\n        /* \"#utility.yul\":5025:5030   */\n      0x00\n        /* \"#utility.yul\":5063:5069   */\n      dup2\n        /* \"#utility.yul\":5050:5070   */\n      calldataload\n        /* \"#utility.yul\":5041:5070   */\n      swap1\n      pop\n        /* \"#utility.yul\":5079:5109   */\n      tag_267\n        /* \"#utility.yul\":5103:5108   */\n      dup2\n        /* \"#utility.yul\":5079:5109   */\n      tag_168\n      jump\t// in\n    tag_267:\n        /* \"#utility.yul\":4982:5115   */\n      swap3\n      swap2\n      pop\n      pop\n      jump\t// out\n        /* \"#utility.yul\":5121:5589   */\n    tag_57:\n        /* \"#utility.yul\":5186:5192   */\n      0x00\n        /* \"#utility.yul\":5194:5200   */\n      dup1\n        /* \"#utility.yul\":5243:5245   */\n      0x40\n        /* \"#utility.yul\":5231:5240   */\n      dup4\n        /* \"#utility.yul\":5222:5229   */\n      dup6\n        /* \"#utility.yul\":5218:5241   */\n      sub\n        /* \"#utility.yul\":5214:5246   */\n      slt\n        /* \"#utility.yul\":5211:5330   */\n      iszero\n      tag_269\n      jumpi\n        /* \"#utility.yul\":5249:5328   */\n      tag_270\n      tag_152\n      jump\t// in\n    tag_270:\n        /* \"#utility.yul\":5211:5330   */\n    tag_269:\n        /* \"#utility.yul\":5369:5370   */\n      0x00\n        /* \"#utility.yul\":5394:5447   */\n      tag_271\n        /* \"#utility.yul\":5439:5446   */\n      dup6\n        /* \"#utility.yul\":5430:5436   */\n      dup3\n        /* \"#utility.yul\":5419:5428   */\n      dup7\n        /* \"#utility.yul\":5415:5437   */\n      add\n        /* \"#utility.yul\":5394:5447   */\n      tag_166\n      jump\t// in\n    tag_271:\n        /* \"#utility.yul\":5384:5447   */\n      swap3\n      pop\n        /* \"#utility.yul\":5340:5457   */\n      pop\n        /* \"#utility.yul\":5496:5498   */\n      0x20\n        /* \"#utility.yul\":5522:5572   */\n      tag_272\n        /* \"#utility.yul\":5564:5571   */\n      dup6\n        /* \"#utility.yul\":5555:5561   */\n      dup3\n        /* \"#utility.yul\":5544:5553   */\n      dup7\n        /* \"#utility.yul\":5540:5562   */\n      add\n        /* \"#utility.yul\":5522:5572   */\n      tag_169\n      jump\t// in\n    tag_272:\n        /* \"#utility.yul\":5512:5572   */\n      swap2\n      pop\n        /* \"#utility.yul\":5467:5582   */\n      pop\n        /* \"#utility.yul\":5121:5589   */\n      swap3\n      pop\n      swap3\n      swap1\n      pop\n      jump\t// out\n        /* \"#utility.yul\":5595:5712   */\n    tag_170:\n        /* \"#utility.yul\":5704:5705   */\n      0x00\n        /* \"#utility.yul\":5701:5702   */\n      dup1\n        /* \"#utility.yul\":5694:5706   */\n      revert\n        /* \"#utility.yul\":5718:5835   */\n    tag_171:\n        /* \"#utility.yul\":5827:5828   */\n      0x00\n        /* \"#utility.yul\":5824:5825   */\n      dup1\n        /* \"#utility.yul\":5817:5829   */\n      revert\n        /* \"#utility.yul\":5841:5958   */\n    tag_172:\n        /* \"#utility.yul\":5950:5951   */\n      0x00\n        /* \"#utility.yul\":5947:5948   */\n      dup1\n        /* \"#utility.yul\":5940:5952   */\n      revert\n        /* \"#utility.yul\":5977:6529   */\n    tag_173:\n        /* \"#utility.yul\":6034:6042   */\n      0x00\n        /* \"#utility.yul\":6044:6050   */\n      dup1\n        /* \"#utility.yul\":6094:6097   */\n      dup4\n        /* \"#utility.yul\":6087:6091   */\n      0x1f\n        /* \"#utility.yul\":6079:6085   */\n      dup5\n        /* \"#utility.yul\":6075:6092   */\n      add\n        /* \"#utility.yul\":6071:6098   */\n      slt\n        /* \"#utility.yul\":6061:6183   */\n      tag_277\n      jumpi\n        /* \"#utility.yul\":6102:6181   */\n      tag_278\n      tag_170\n      jump\t// in\n    tag_278:\n        /* \"#utility.yul\":6061:6183   */\n    tag_277:\n        /* \"#utility.yul\":6215:6221   */\n      dup3\n        /* \"#utility.yul\":6202:6222   */\n      calldataload\n        /* \"#utility.yul\":6192:6222   */\n      swap1\n      pop\n        /* \"#utility.yul\":6245:6263   */\n      0xffffffffffffffff\n        /* \"#utility.yul\":6237:6243   */\n      dup2\n        /* \"#utility.yul\":6234:6264   */\n      gt\n        /* \"#utility.yul\":6231:6348   */\n      iszero\n      tag_279\n      jumpi\n        /* \"#utility.yul\":6267:6346   */\n      tag_280\n      tag_171\n      jump\t// in\n    tag_280:\n        /* \"#utility.yul\":6231:6348   */\n    tag_279:\n        /* \"#utility.yul\":6381:6385   */\n      0x20\n        /* \"#utility.yul\":6373:6379   */\n      dup4\n        /* \"#utility.yul\":6369:6386   */\n      add\n        /* \"#utility.yul\":6357:6386   */\n      swap2\n      pop\n        /* \"#utility.yul\":6435:6438   */\n      dup4\n        /* \"#utility.yul\":6427:6431   */\n      0x01\n        /* \"#utility.yul\":6419:6425   */\n      dup3\n        /* \"#utility.yul\":6415:6432   */\n      mul\n        /* \"#utility.yul\":6405:6413   */\n      dup4\n        /* \"#utility.yul\":6401:6433   */\n      add\n        /* \"#utility.yul\":6398:6439   */\n      gt\n        /* \"#utility.yul\":6395:6523   */\n      iszero\n      tag_281\n      jumpi\n        /* \"#utility.yul\":6442:6521   */\n      tag_282\n      tag_172\n      jump\t// in\n    tag_282:\n        /* \"#utility.yul\":6395:6523   */\n    tag_281:\n        /* \"#utility.yul\":5977:6529   */\n      swap3\n      pop\n      swap3\n      swap1\n      pop\n      jump\t// out\n        /* \"#utility.yul\":6535:7498   */\n    tag_61:\n        /* \"#utility.yul\":6632:6638   */\n      0x00\n        /* \"#utility.yul\":6640:6646   */\n      dup1\n        /* \"#utility.yul\":6648:6654   */\n      0x00\n        /* \"#utility.yul\":6656:6662   */\n      dup1\n        /* \"#utility.yul\":6664:6670   */\n      0x00\n        /* \"#utility.yul\":6713:6716   */\n      0x80\n        /* \"#utility.yul\":6701:6710   */\n      dup7\n        /* \"#utility.yul\":6692:6699   */\n      dup9\n        /* \"#utility.yul\":6688:6711   */\n      sub\n        /* \"#utility.yul\":6684:6717   */\n      slt\n        /* \"#utility.yul\":6681:6801   */\n      iszero\n      tag_284\n      jumpi\n        /* \"#utility.yul\":6720:6799   */\n      tag_285\n      tag_152\n      jump\t// in\n    tag_285:\n        /* \"#utility.yul\":6681:6801   */\n    tag_284:\n        /* \"#utility.yul\":6840:6841   */\n      0x00\n        /* \"#utility.yul\":6865:6918   */\n      tag_286\n        /* \"#utility.yul\":6910:6917   */\n      dup9\n        /* \"#utility.yul\":6901:6907   */\n      dup3\n        /* \"#utility.yul\":6890:6899   */\n      dup10\n        /* \"#utility.yul\":6886:6908   */\n      add\n        /* \"#utility.yul\":6865:6918   */\n      tag_166\n      jump\t// in\n    tag_286:\n        /* \"#utility.yul\":6855:6918   */\n      swap6\n      pop\n        /* \"#utility.yul\":6811:6928   */\n      pop\n        /* \"#utility.yul\":6967:6969   */\n      0x20\n        /* \"#utility.yul\":6993:7046   */\n      tag_287\n        /* \"#utility.yul\":7038:7045   */\n      dup9\n        /* \"#utility.yul\":7029:7035   */\n      dup3\n        /* \"#utility.yul\":7018:7027   */\n      dup10\n        /* \"#utility.yul\":7014:7036   */\n      add\n        /* \"#utility.yul\":6993:7046   */\n      tag_166\n      jump\t// in\n    tag_287:\n        /* \"#utility.yul\":6983:7046   */\n      swap5\n      pop\n        /* \"#utility.yul\":6938:7056   */\n      pop\n        /* \"#utility.yul\":7095:7097   */\n      0x40\n        /* \"#utility.yul\":7121:7174   */\n      tag_288\n        /* \"#utility.yul\":7166:7173   */\n      dup9\n        /* \"#utility.yul\":7157:7163   */\n      dup3\n        /* \"#utility.yul\":7146:7155   */\n      dup10\n        /* \"#utility.yul\":7142:7164   */\n      add\n        /* \"#utility.yul\":7121:7174   */\n      tag_161\n      jump\t// in\n    tag_288:\n        /* \"#utility.yul\":7111:7174   */\n      swap4\n      pop\n        /* \"#utility.yul\":7066:7184   */\n      pop\n        /* \"#utility.yul\":7251:7253   */\n      0x60\n        /* \"#utility.yul\":7240:7249   */\n      dup7\n        /* \"#utility.yul\":7236:7254   */\n      add\n        /* \"#utility.yul\":7223:7255   */\n      calldataload\n        /* \"#utility.yul\":7282:7300   */\n      0xffffffffffffffff\n        /* \"#utility.yul\":7274:7280   */\n      dup2\n        /* \"#utility.yul\":7271:7301   */\n      gt\n        /* \"#utility.yul\":7268:7385   */\n      iszero\n      tag_289\n      jumpi\n        /* \"#utility.yul\":7304:7383   */\n      tag_290\n      tag_153\n      jump\t// in\n    tag_290:\n        /* \"#utility.yul\":7268:7385   */\n    tag_289:\n        /* \"#utility.yul\":7417:7481   */\n      tag_291\n        /* \"#utility.yul\":7473:7480   */\n      dup9\n        /* \"#utility.yul\":7464:7470   */\n      dup3\n        /* \"#utility.yul\":7453:7462   */\n      dup10\n        /* \"#utility.yul\":7449:7471   */\n      add\n        /* \"#utility.yul\":7417:7481   */\n      tag_173\n      jump\t// in\n    tag_291:\n        /* \"#utility.yul\":7399:7481   */\n      swap3\n      pop\n      swap3\n      pop\n        /* \"#utility.yul\":7194:7491   */\n      pop\n        /* \"#utility.yul\":6535:7498   */\n      swap3\n      swap6\n      pop\n      swap3\n      swap6\n      swap1\n      swap4\n      pop\n      jump\t// out\n        /* \"#utility.yul\":7504:7978   */\n    tag_65:\n        /* \"#utility.yul\":7572:7578   */\n      0x00\n        /* \"#utility.yul\":7580:7586   */\n      dup1\n        /* \"#utility.yul\":7629:7631   */\n      0x40\n        /* \"#utility.yul\":7617:7626   */\n      dup4\n        /* \"#utility.yul\":7608:7615   */\n      dup6\n        /* \"#utility.yul\":7604:7627   */\n      sub\n        /* \"#utility.yul\":7600:7632   */\n      slt\n        /* \"#utility.yul\":7597:7716   */\n      iszero\n      tag_293\n      jumpi\n        /* \"#utility.yul\":7635:7714   */\n      tag_294\n      tag_152\n      jump\t// in\n    tag_294:\n        /* \"#utility.yul\":7597:7716   */\n    tag_293:\n        /* \"#utility.yul\":7755:7756   */\n      0x00\n        /* \"#utility.yul\":7780:7833   */\n      tag_295\n        /* \"#utility.yul\":7825:7832   */\n      dup6\n        /* \"#utility.yul\":7816:7822   */\n      dup3\n        /* \"#utility.yul\":7805:7814   */\n      dup7\n        /* \"#utility.yul\":7801:7823   */\n      add\n        /* \"#utility.yul\":7780:7833   */\n      tag_166\n      jump\t// in\n    tag_295:\n        /* \"#utility.yul\":7770:7833   */\n      swap3\n      pop\n        /* \"#utility.yul\":7726:7843   */\n      pop\n        /* \"#utility.yul\":7882:7884   */\n      0x20\n        /* \"#utility.yul\":7908:7961   */\n      tag_296\n        /* \"#utility.yul\":7953:7960   */\n      dup6\n        /* \"#utility.yul\":7944:7950   */\n      dup3\n        /* \"#utility.yul\":7933:7942   */\n      dup7\n        /* \"#utility.yul\":7929:7951   */\n      add\n        /* \"#utility.yul\":7908:7961   */\n      tag_166\n      jump\t// in\n    tag_296:\n        /* \"#utility.yul\":7898:7961   */\n      swap2\n      pop\n        /* \"#utility.yul\":7853:7971   */\n      pop\n        /* \"#utility.yul\":7504:7978   */\n      swap3\n      pop\n      swap3\n      swap1\n      pop\n      jump\t// out\n        /* \"#utility.yul\":7984:8153   */\n    tag_174:\n        /* \"#utility.yul\":8068:8079   */\n      0x00\n        /* \"#utility.yul\":8102:8108   */\n      dup3\n        /* \"#utility.yul\":8097:8100   */\n      dup3\n        /* \"#utility.yul\":8090:8109   */\n      mstore\n        /* \"#utility.yul\":8142:8146   */\n      0x20\n        /* \"#utility.yul\":8137:8140   */\n      dup3\n        /* \"#utility.yul\":8133:8147   */\n      add\n        /* \"#utility.yul\":8118:8147   */\n      swap1\n      pop\n        /* \"#utility.yul\":7984:8153   */\n      swap3\n      swap2\n      pop\n      pop\n      jump\t// out\n        /* \"#utility.yul\":8159:8328   */\n    tag_175:\n        /* \"#utility.yul\":8299:8320   */\n      0x746f6b656e20646f65736e277420657869737400000000000000000000000000\n        /* \"#utility.yul\":8295:8296   */\n      0x00\n        /* \"#utility.yul\":8287:8293   */\n      dup3\n        /* \"#utility.yul\":8283:8297   */\n      add\n        /* \"#utility.yul\":8276:8321   */\n      mstore\n        /* \"#utility.yul\":8159:8328   */\n      pop\n      jump\t// out\n        /* \"#utility.yul\":8334:8700   */\n    tag_176:\n        /* \"#utility.yul\":8476:8479   */\n      0x00\n        /* \"#utility.yul\":8497:8564   */\n      tag_300\n        /* \"#utility.yul\":8561:8563   */\n      0x13\n        /* \"#utility.yul\":8556:8559   */\n      dup4\n        /* \"#utility.yul\":8497:8564   */\n      tag_174\n      jump\t// in\n    tag_300:\n        /* \"#utility.yul\":8490:8564   */\n      swap2\n      pop\n        /* \"#utility.yul\":8573:8666   */\n      tag_301\n        /* \"#utility.yul\":8662:8665   */\n      dup3\n        /* \"#utility.yul\":8573:8666   */\n      tag_175\n      jump\t// in\n    tag_301:\n        /* \"#utility.yul\":8691:8693   */\n      0x20\n        /* \"#utility.yul\":8686:8689   */\n      dup3\n        /* \"#utility.yul\":8682:8694   */\n      add\n        /* \"#utility.yul\":8675:8694   */\n      swap1\n      pop\n        /* \"#utility.yul\":8334:8700   */\n      swap2\n      swap1\n      pop\n      jump\t// out\n        /* \"#utility.yul\":8706:9125   */\n    tag_73:\n        /* \"#utility.yul\":8872:8876   */\n      0x00\n        /* \"#utility.yul\":8910:8912   */\n      0x20\n        /* \"#utility.yul\":8899:8908   */\n      dup3\n        /* \"#utility.yul\":8895:8913   */\n      add\n        /* \"#utility.yul\":8887:8913   */\n      swap1\n      pop\n        /* \"#utility.yul\":8959:8968   */\n      dup2\n        /* \"#utility.yul\":8953:8957   */\n      dup2\n        /* \"#utility.yul\":8949:8969   */\n      sub\n        /* \"#utility.yul\":8945:8946   */\n      0x00\n        /* \"#utility.yul\":8934:8943   */\n      dup4\n        /* \"#utility.yul\":8930:8947   */\n      add\n        /* \"#utility.yul\":8923:8970   */\n      mstore\n        /* \"#utility.yul\":8987:9118   */\n      tag_303\n        /* \"#utility.yul\":9113:9117   */\n      dup2\n        /* \"#utility.yul\":8987:9118   */\n      tag_176\n      jump\t// in\n    tag_303:\n        /* \"#utility.yul\":8979:9118   */\n      swap1\n      pop\n        /* \"#utility.yul\":8706:9125   */\n      swap2\n      swap1\n      pop\n      jump\t// out\n        /* \"#utility.yul\":9131:9295   */\n    tag_177:\n        /* \"#utility.yul\":9271:9287   */\n      0x6e6f7420617574686f72697a6564000000000000000000000000000000000000\n        /* \"#utility.yul\":9267:9268   */\n      0x00\n        /* \"#utility.yul\":9259:9265   */\n      dup3\n        /* \"#utility.yul\":9255:9269   */\n      add\n        /* \"#utility.yul\":9248:9288   */\n      mstore\n        /* \"#utility.yul\":9131:9295   */\n      pop\n      jump\t// out\n        /* \"#utility.yul\":9301:9667   */\n    tag_178:\n        /* \"#utility.yul\":9443:9446   */\n      0x00\n        /* \"#utility.yul\":9464:9531   */\n      tag_306\n        /* \"#utility.yul\":9528:9530   */\n      0x0e\n        /* \"#utility.yul\":9523:9526   */\n      dup4\n        /* \"#utility.yul\":9464:9531   */\n      tag_174\n      jump\t// in\n    tag_306:\n        /* \"#utility.yul\":9457:9531   */\n      swap2\n      pop\n        /* \"#utility.yul\":9540:9633   */\n      tag_307\n        /* \"#utility.yul\":9629:9632   */\n      dup3\n        /* \"#utility.yul\":9540:9633   */\n      tag_177\n      jump\t// in\n    tag_307:\n        /* \"#utility.yul\":9658:9660   */\n      0x20\n        /* \"#utility.yul\":9653:9656   */\n      dup3\n        /* \"#utility.yul\":9649:9661   */\n      add\n        /* \"#utility.yul\":9642:9661   */\n      swap1\n      pop\n        /* \"#utility.yul\":9301:9667   */\n      swap2\n      swap1\n      pop\n      jump\t// out\n        /* \"#utility.yul\":9673:10092   */\n    tag_78:\n        /* \"#utility.yul\":9839:9843   */\n      0x00\n        /* \"#utility.yul\":9877:9879   */\n      0x20\n        /* \"#utility.yul\":9866:9875   */\n      dup3\n        /* \"#utility.yul\":9862:9880   */\n      add\n        /* \"#utility.yul\":9854:9880   */\n      swap1\n      pop\n        /* \"#utility.yul\":9926:9935   */\n      dup2\n        /* \"#utility.yul\":9920:9924   */\n      dup2\n        /* \"#utility.yul\":9916:9936   */\n      sub\n        /* \"#utility.yul\":9912:9913   */\n      0x00\n        /* \"#utility.yul\":9901:9910   */\n      dup4\n        /* \"#utility.yul\":9897:9914   */\n      add\n        /* \"#utility.yul\":9890:9937   */\n      mstore\n        /* \"#utility.yul\":9954:10085   */\n      tag_309\n        /* \"#utility.yul\":10080:10084   */\n      dup2\n        /* \"#utility.yul\":9954:10085   */\n      tag_178\n      jump\t// in\n    tag_309:\n        /* \"#utility.yul\":9946:10085   */\n      swap1\n      pop\n        /* \"#utility.yul\":9673:10092   */\n      swap2\n      swap1\n      pop\n      jump\t// out\n        /* \"#utility.yul\":10098:10261   */\n    tag_179:\n        /* \"#utility.yul\":10238:10253   */\n      0x66726f6d20213d206f776e657200000000000000000000000000000000000000\n        /* \"#utility.yul\":10234:10235   */\n      0x00\n        /* \"#utility.yul\":10226:10232   */\n      dup3\n        /* \"#utility.yul\":10222:10236   */\n      add\n        /* \"#utility.yul\":10215:10254   */\n      mstore\n        /* \"#utility.yul\":10098:10261   */\n      pop\n      jump\t// out\n        /* \"#utility.yul\":10267:10633   */\n    tag_180:\n        /* \"#utility.yul\":10409:10412   */\n      0x00\n        /* \"#utility.yul\":10430:10497   */\n      tag_312\n        /* \"#utility.yul\":10494:10496   */\n      0x0d\n        /* \"#utility.yul\":10489:10492   */\n      dup4\n        /* \"#utility.yul\":10430:10497   */\n      tag_174\n      jump\t// in\n    tag_312:\n        /* \"#utility.yul\":10423:10497   */\n      swap2\n      pop\n        /* \"#utility.yul\":10506:10599   */\n      tag_313\n        /* \"#utility.yul\":10595:10598   */\n      dup3\n        /* \"#utility.yul\":10506:10599   */\n      tag_179\n      jump\t// in\n    tag_313:\n        /* \"#utility.yul\":10624:10626   */\n      0x20\n        /* \"#utility.yul\":10619:10622   */\n      dup3\n        /* \"#utility.yul\":10615:10627   */\n      add\n        /* \"#utility.yul\":10608:10627   */\n      swap1\n      pop\n        /* \"#utility.yul\":10267:10633   */\n      swap2\n      swap1\n      pop\n      jump\t// out\n        /* \"#utility.yul\":10639:11058   */\n    tag_82:\n        /* \"#utility.yul\":10805:10809   */\n      0x00\n        /* \"#utility.yul\":10843:10845   */\n      0x20\n        /* \"#utility.yul\":10832:10841   */\n      dup3\n        /* \"#utility.yul\":10828:10846   */\n      add\n        /* \"#utility.yul\":10820:10846   */\n      swap1\n      pop\n        /* \"#utility.yul\":10892:10901   */\n      dup2\n        /* \"#utility.yul\":10886:10890   */\n      dup2\n        /* \"#utility.yul\":10882:10902   */\n      sub\n        /* \"#utility.yul\":10878:10879   */\n      0x00\n        /* \"#utility.yul\":10867:10876   */\n      dup4\n        /* \"#utility.yul\":10863:10880   */\n      add\n        /* \"#utility.yul\":10856:10903   */\n      mstore\n        /* \"#utility.yul\":10920:11051   */\n      tag_315\n        /* \"#utility.yul\":11046:11050   */\n      dup2\n        /* \"#utility.yul\":10920:11051   */\n      tag_180\n      jump\t// in\n    tag_315:\n        /* \"#utility.yul\":10912:11051   */\n      swap1\n      pop\n        /* \"#utility.yul\":10639:11058   */\n      swap2\n      swap1\n      pop\n      jump\t// out\n        /* \"#utility.yul\":11064:11238   */\n    tag_181:\n        /* \"#utility.yul\":11204:11230   */\n      0x7472616e7366657220746f207a65726f20616464726573730000000000000000\n        /* \"#utility.yul\":11200:11201   */\n      0x00\n        /* \"#utility.yul\":11192:11198   */\n      dup3\n        /* \"#utility.yul\":11188:11202   */\n      add\n        /* \"#utility.yul\":11181:11231   */\n      mstore\n        /* \"#utility.yul\":11064:11238   */\n      pop\n      jump\t// out\n        /* \"#utility.yul\":11244:11610   */\n    tag_182:\n        /* \"#utility.yul\":11386:11389   */\n      0x00\n        /* \"#utility.yul\":11407:11474   */\n      tag_318\n        /* \"#utility.yul\":11471:11473   */\n      0x18\n        /* \"#utility.yul\":11466:11469   */\n      dup4\n        /* \"#utility.yul\":11407:11474   */\n      tag_174\n      jump\t// in\n    tag_318:\n        /* \"#utility.yul\":11400:11474   */\n      swap2\n      pop\n        /* \"#utility.yul\":11483:11576   */\n      tag_319\n        /* \"#utility.yul\":11572:11575   */\n      dup3\n        /* \"#utility.yul\":11483:11576   */\n      tag_181\n      jump\t// in\n    tag_319:\n        /* \"#utility.yul\":11601:11603   */\n      0x20\n        /* \"#utility.yul\":11596:11599   */\n      dup3\n        /* \"#utility.yul\":11592:11604   */\n      add\n        /* \"#utility.yul\":11585:11604   */\n      swap1\n      pop\n        /* \"#utility.yul\":11244:11610   */\n      swap2\n      swap1\n      pop\n      jump\t// out\n        /* \"#utility.yul\":11616:12035   */\n    tag_85:\n        /* \"#utility.yul\":11782:11786   */\n      0x00\n        /* \"#utility.yul\":11820:11822   */\n      0x20\n        /* \"#utility.yul\":11809:11818   */\n      dup3\n        /* \"#utility.yul\":11805:11823   */\n      add\n        /* \"#utility.yul\":11797:11823   */\n      swap1\n      pop\n        /* \"#utility.yul\":11869:11878   */\n      dup2\n        /* \"#utility.yul\":11863:11867   */\n      dup2\n        /* \"#utility.yul\":11859:11879   */\n      sub\n        /* \"#utility.yul\":11855:11856   */\n      0x00\n        /* \"#utility.yul\":11844:11853   */\n      dup4\n        /* \"#utility.yul\":11840:11857   */\n      add\n        /* \"#utility.yul\":11833:11880   */\n      mstore\n        /* \"#utility.yul\":11897:12028   */\n      tag_321\n        /* \"#utility.yul\":12023:12027   */\n      dup2\n        /* \"#utility.yul\":11897:12028   */\n      tag_182\n      jump\t// in\n    tag_321:\n        /* \"#utility.yul\":11889:12028   */\n      swap1\n      pop\n        /* \"#utility.yul\":11616:12035   */\n      swap2\n      swap1\n      pop\n      jump\t// out\n        /* \"#utility.yul\":12041:12221   */\n    tag_183:\n        /* \"#utility.yul\":12089:12166   */\n      0x4e487b7100000000000000000000000000000000000000000000000000000000\n        /* \"#utility.yul\":12086:12087   */\n      0x00\n        /* \"#utility.yul\":12079:12167   */\n      mstore\n        /* \"#utility.yul\":12186:12190   */\n      0x11\n        /* \"#utility.yul\":12183:12184   */\n      0x04\n        /* \"#utility.yul\":12176:12191   */\n      mstore\n        /* \"#utility.yul\":12210:12214   */\n      0x24\n        /* \"#utility.yul\":12207:12208   */\n      0x00\n        /* \"#utility.yul\":12200:12215   */\n      revert\n        /* \"#utility.yul\":12227:12398   */\n    tag_91:\n        /* \"#utility.yul\":12266:12269   */\n      0x00\n        /* \"#utility.yul\":12289:12313   */\n      tag_324\n        /* \"#utility.yul\":12307:12312   */\n      dup3\n        /* \"#utility.yul\":12289:12313   */\n      tag_159\n      jump\t// in\n    tag_324:\n        /* \"#utility.yul\":12280:12313   */\n      swap2\n      pop\n        /* \"#utility.yul\":12335:12339   */\n      0x00\n        /* \"#utility.yul\":12328:12333   */\n      dup3\n        /* \"#utility.yul\":12325:12340   */\n      sub\n        /* \"#utility.yul\":12322:12363   */\n      tag_325\n      jumpi\n        /* \"#utility.yul\":12343:12361   */\n      tag_326\n      tag_183\n      jump\t// in\n    tag_326:\n        /* \"#utility.yul\":12322:12363   */\n    tag_325:\n        /* \"#utility.yul\":12390:12391   */\n      0x01\n        /* \"#utility.yul\":12383:12388   */\n      dup3\n        /* \"#utility.yul\":12379:12392   */\n      sub\n        /* \"#utility.yul\":12372:12392   */\n      swap1\n      pop\n        /* \"#utility.yul\":12227:12398   */\n      swap2\n      swap1\n      pop\n      jump\t// out\n        /* \"#utility.yul\":12404:12637   */\n    tag_93:\n        /* \"#utility.yul\":12443:12446   */\n      0x00\n        /* \"#utility.yul\":12466:12490   */\n      tag_328\n        /* \"#utility.yul\":12484:12489   */\n      dup3\n        /* \"#utility.yul\":12466:12490   */\n      tag_159\n      jump\t// in\n    tag_328:\n        /* \"#utility.yul\":12457:12490   */\n      swap2\n      pop\n        /* \"#utility.yul\":12512:12578   */\n      0xffffffffffffffffffffffffffffffffffffffffffffffffffffffffffffffff\n        /* \"#utility.yul\":12505:12510   */\n      dup3\n        /* \"#utility.yul\":12502:12579   */\n      sub\n        /* \"#utility.yul\":12499:12602   */\n      tag_329\n      jumpi\n        /* \"#utility.yul\":12582:12600   */\n      tag_330\n      tag_183\n      jump\t// in\n    tag_330:\n        /* \"#utility.yul\":12499:12602   */\n    tag_329:\n        /* \"#utility.yul\":12629:12630   */\n      0x01\n        /* \"#utility.yul\":12622:12627   */\n      dup3\n        /* \"#utility.yul\":12618:12631   */\n      add\n        /* \"#utility.yul\":12611:12631   */\n      swap1\n      pop\n        /* \"#utility.yul\":12404:12637   */\n      swap2\n      swap1\n      pop\n      jump\t// out\n        /* \"#utility.yul\":12643:12811   */\n    tag_184:\n        /* \"#utility.yul\":12726:12737   */\n      0x00\n        /* \"#utility.yul\":12760:12766   */\n      dup3\n        /* \"#utility.yul\":12755:12758   */\n      dup3\n        /* \"#utility.yul\":12748:12767   */\n      mstore\n        /* \"#utility.yul\":12800:12804   */\n      0x20\n        /* \"#utility.yul\":12795:12798   */\n      dup3\n        /* \"#utility.yul\":12791:12805   */\n      add\n        /* \"#utility.yul\":12776:12805   */\n      swap1\n      pop\n        /* \"#utility.yul\":12643:12811   */\n      swap3\n      swap2\n      pop\n      pop\n      jump\t// out\n        /* \"#utility.yul\":12817:12931   */\n    tag_185:\n      pop\n      jump\t// out\n        /* \"#utility.yul\":12937:13299   */\n    tag_186:\n        /* \"#utility.yul\":13078:13081   */\n      0x00\n        /* \"#utility.yul\":13099:13164   */\n      tag_334\n        /* \"#utility.yul\":13162:13163   */\n      0x00\n        /* \"#utility.yul\":13157:13160   */\n      dup4\n        /* \"#utility.yul\":13099:13164   */\n      tag_184\n      jump\t// in\n    tag_334:\n        /* \"#utility.yul\":13092:13164   */\n      swap2\n      pop\n        /* \"#utility.yul\":13173:13266   */\n      tag_335\n        /* \"#utility.yul\":13262:13265   */\n      dup3\n        /* \"#utility.yul\":13173:13266   */\n      tag_185\n      jump\t// in\n    tag_335:\n        /* \"#utility.yul\":13291:13292   */\n      0x00\n        /* \"#utility.yul\":13286:13289   */\n      dup3\n        /* \"#utility.yul\":13282:13293   */\n      add\n        /* \"#utility.yul\":13275:13293   */\n      swap1\n      pop\n        /* \"#utility.yul\":12937:13299   */\n      swap2\n      swap1\n      pop\n      jump\t// out\n        /* \"#utility.yul\":13305:14053   */\n    tag_101:\n        /* \"#utility.yul\":13554:13558   */\n      0x00\n        /* \"#utility.yul\":13592:13595   */\n      0x80\n        /* \"#utility.yul\":13581:13590   */\n      dup3\n        /* \"#utility.yul\":13577:13596   */\n      add\n        /* \"#utility.yul\":13569:13596   */\n      swap1\n      pop\n        /* \"#utility.yul\":13606:13677   */\n      tag_337\n        /* \"#utility.yul\":13674:13675   */\n      0x00\n        /* \"#utility.yul\":13663:13672   */\n      dup4\n        /* \"#utility.yul\":13659:13676   */\n      add\n        /* \"#utility.yul\":13650:13656   */\n      dup7\n        /* \"#utility.yul\":13606:13677   */\n      tag_164\n      jump\t// in\n    tag_337:\n        /* \"#utility.yul\":13687:13759   */\n      tag_338\n        /* \"#utility.yul\":13755:13757   */\n      0x20\n        /* \"#utility.yul\":13744:13753   */\n      dup4\n        /* \"#utility.yul\":13740:13758   */\n      add\n        /* \"#utility.yul\":13731:13737   */\n      dup6\n        /* \"#utility.yul\":13687:13759   */\n      tag_164\n      jump\t// in\n    tag_338:\n        /* \"#utility.yul\":13769:13841   */\n      tag_339\n        /* \"#utility.yul\":13837:13839   */\n      0x40\n        /* \"#utility.yul\":13826:13835   */\n      dup4\n        /* \"#utility.yul\":13822:13840   */\n      add\n        /* \"#utility.yul\":13813:13819   */\n      dup5\n        /* \"#utility.yul\":13769:13841   */\n      tag_167\n      jump\t// in\n    tag_339:\n        /* \"#utility.yul\":13888:13897   */\n      dup2\n        /* \"#utility.yul\":13882:13886   */\n      dup2\n        /* \"#utility.yul\":13878:13898   */\n      sub\n        /* \"#utility.yul\":13873:13875   */\n      0x60\n        /* \"#utility.yul\":13862:13871   */\n      dup4\n        /* \"#utility.yul\":13858:13876   */\n      add\n        /* \"#utility.yul\":13851:13899   */\n      mstore\n        /* \"#utility.yul\":13916:14046   */\n      tag_340\n        /* \"#utility.yul\":14041:14045   */\n      dup2\n        /* \"#utility.yul\":13916:14046   */\n      tag_186\n      jump\t// in\n    tag_340:\n        /* \"#utility.yul\":13908:14046   */\n      swap1\n      pop\n        /* \"#utility.yul\":13305:14053   */\n      swap5\n      swap4\n      pop\n      pop\n      pop\n      pop\n      jump\t// out\n        /* \"#utility.yul\":14059:14200   */\n    tag_187:\n        /* \"#utility.yul\":14115:14120   */\n      0x00\n        /* \"#utility.yul\":14146:14152   */\n      dup2\n        /* \"#utility.yul\":14140:14153   */\n      mload\n        /* \"#utility.yul\":14131:14153   */\n      swap1\n      pop\n        /* \"#utility.yul\":14162:14194   */\n      tag_342\n        /* \"#utility.yul\":14188:14193   */\n      dup2\n        /* \"#utility.yul\":14162:14194   */\n      tag_155\n      jump\t// in\n    tag_342:\n        /* \"#utility.yul\":14059:14200   */\n      swap3\n      swap2\n      pop\n      pop\n      jump\t// out\n        /* \"#utility.yul\":14206:14555   */\n    tag_105:\n        /* \"#utility.yul\":14275:14281   */\n      0x00\n        /* \"#utility.yul\":14324:14326   */\n      0x20\n        /* \"#utility.yul\":14312:14321   */\n      dup3\n        /* \"#utility.yul\":14303:14310   */\n      dup5\n        /* \"#utility.yul\":14299:14322   */\n      sub\n        /* \"#utility.yul\":14295:14327   */\n      slt\n        /* \"#utility.yul\":14292:14411   */\n      iszero\n      tag_344\n      jumpi\n        /* \"#utility.yul\":14330:14409   */\n      tag_345\n      tag_152\n      jump\t// in\n    tag_345:\n        /* \"#utility.yul\":14292:14411   */\n    tag_344:\n        /* \"#utility.yul\":14450:14451   */\n      0x00\n        /* \"#utility.yul\":14475:14538   */\n      tag_346\n        /* \"#utility.yul\":14530:14537   */\n      dup5\n        /* \"#utility.yul\":14521:14527   */\n      dup3\n        /* \"#utility.yul\":14510:14519   */\n      dup6\n        /* \"#utility.yul\":14506:14528   */\n      add\n        /* \"#utility.yul\":14475:14538   */\n      tag_187\n      jump\t// in\n    tag_346:\n        /* \"#utility.yul\":14465:14538   */\n      swap2\n      pop\n        /* \"#utility.yul\":14421:14548   */\n      pop\n        /* \"#utility.yul\":14206:14555   */\n      swap3\n      swap2\n      pop\n      pop\n      jump\t// out\n        /* \"#utility.yul\":14561:14727   */\n    tag_188:\n        /* \"#utility.yul\":14701:14719   */\n      0x756e7361666520726563697069656e7400000000000000000000000000000000\n        /* \"#utility.yul\":14697:14698   */\n      0x00\n        /* \"#utility.yul\":14689:14695   */\n      dup3\n        /* \"#utility.yul\":14685:14699   */\n      add\n        /* \"#utility.yul\":14678:14720   */\n      mstore\n        /* \"#utility.yul\":14561:14727   */\n      pop\n      jump\t// out\n        /* \"#utility.yul\":14733:15099   */\n    tag_189:\n        /* \"#utility.yul\":14875:14878   */\n      0x00\n        /* \"#utility.yul\":14896:14963   */\n      tag_349\n        /* \"#utility.yul\":14960:14962   */\n      0x10\n        /* \"#utility.yul\":14955:14958   */\n      dup4\n        /* \"#utility.yul\":14896:14963   */\n      tag_174\n      jump\t// in\n    tag_349:\n        /* \"#utility.yul\":14889:14963   */\n      swap2\n      pop\n        /* \"#utility.yul\":14972:15065   */\n      tag_350\n        /* \"#utility.yul\":15061:15064   */\n      dup3\n        /* \"#utility.yul\":14972:15065   */\n      tag_188\n      jump\t// in\n    tag_350:\n        /* \"#utility.yul\":15090:15092   */\n      0x20\n        /* \"#utility.yul\":15085:15088   */\n      dup3\n        /* \"#utility.yul\":15081:15093   */\n      add\n        /* \"#utility.yul\":15074:15093   */\n      swap1\n      pop\n        /* \"#utility.yul\":14733:15099   */\n      swap2\n      swap1\n      pop\n      jump\t// out\n        /* \"#utility.yul\":15105:15524   */\n    tag_108:\n        /* \"#utility.yul\":15271:15275   */\n      0x00\n        /* \"#utility.yul\":15309:15311   */\n      0x20\n        /* \"#utility.yul\":15298:15307   */\n      dup3\n        /* \"#utility.yul\":15294:15312   */\n      add\n        /* \"#utility.yul\":15286:15312   */\n      swap1\n      pop\n        /* \"#utility.yul\":15358:15367   */\n      dup2\n        /* \"#utility.yul\":15352:15356   */\n      dup2\n        /* \"#utility.yul\":15348:15368   */\n      sub\n        /* \"#utility.yul\":15344:15345   */\n      0x00\n        /* \"#utility.yul\":15333:15342   */\n      dup4\n        /* \"#utility.yul\":15329:15346   */\n      add\n        /* \"#utility.yul\":15322:15369   */\n      mstore\n        /* \"#utility.yul\":15386:15517   */\n      tag_352\n        /* \"#utility.yul\":15512:15516   */\n      dup2\n        /* \"#utility.yul\":15386:15517   */\n      tag_189\n      jump\t// in\n    tag_352:\n        /* \"#utility.yul\":15378:15517   */\n      swap1\n      pop\n        /* \"#utility.yul\":15105:15524   */\n      swap2\n      swap1\n      pop\n      jump\t// out\n        /* \"#utility.yul\":15530:15689   */\n    tag_190:\n        /* \"#utility.yul\":15670:15681   */\n      0x6e6f74206f776e65720000000000000000000000000000000000000000000000\n        /* \"#utility.yul\":15666:15667   */\n      0x00\n        /* \"#utility.yul\":15658:15664   */\n      dup3\n        /* \"#utility.yul\":15654:15668   */\n      add\n        /* \"#utility.yul\":15647:15682   */\n      mstore\n        /* \"#utility.yul\":15530:15689   */\n      pop\n      jump\t// out\n        /* \"#utility.yul\":15695:16060   */\n    tag_191:\n        /* \"#utility.yul\":15837:15840   */\n      0x00\n        /* \"#utility.yul\":15858:15924   */\n      tag_355\n        /* \"#utility.yul\":15922:15923   */\n      0x09\n        /* \"#utility.yul\":15917:15920   */\n      dup4\n        /* \"#utility.yul\":15858:15924   */\n      tag_174\n      jump\t// in\n    tag_355:\n        /* \"#utility.yul\":15851:15924   */\n      swap2\n      pop\n        /* \"#utility.yul\":15933:16026   */\n      tag_356\n        /* \"#utility.yul\":16022:16025   */\n      dup3\n        /* \"#utility.yul\":15933:16026   */\n      tag_190\n      jump\t// in\n    tag_356:\n        /* \"#utility.yul\":16051:16053   */\n      0x20\n        /* \"#utility.yul\":16046:16049   */\n      dup3\n        /* \"#utility.yul\":16042:16054   */\n      add\n        /* \"#utility.yul\":16035:16054   */\n      swap1\n      pop\n        /* \"#utility.yul\":15695:16060   */\n      swap2\n      swap1\n      pop\n      jump\t// out\n        /* \"#utility.yul\":16066:16485   */\n    tag_112:\n        /* \"#utility.yul\":16232:16236   */\n      0x00\n        /* \"#utility.yul\":16270:16272   */\n      0x20\n        /* \"#utility.yul\":16259:16268   */\n      dup3\n        /* \"#utility.yul\":16255:16273   */\n      add\n        /* \"#utility.yul\":16247:16273   */\n      swap1\n      pop\n        /* \"#utility.yul\":16319:16328   */\n      dup2\n        /* \"#utility.yul\":16313:16317   */\n      dup2\n        /* \"#utility.yul\":16309:16329   */\n      sub\n        /* \"#utility.yul\":16305:16306   */\n      0x00\n        /* \"#utility.yul\":16294:16303   */\n      dup4\n        /* \"#utility.yul\":16290:16307   */\n      add\n        /* \"#utility.yul\":16283:16330   */\n      mstore\n        /* \"#utility.yul\":16347:16478   */\n      tag_358\n        /* \"#utility.yul\":16473:16477   */\n      dup2\n        /* \"#utility.yul\":16347:16478   */\n      tag_191\n      jump\t// in\n    tag_358:\n        /* \"#utility.yul\":16339:16478   */\n      swap1\n      pop\n        /* \"#utility.yul\":16066:16485   */\n      swap2\n      swap1\n      pop\n      jump\t// out\n        /* \"#utility.yul\":16491:16661   */\n    tag_192:\n        /* \"#utility.yul\":16631:16653   */\n      0x6f776e6572203d207a65726f2061646472657373000000000000000000000000\n        /* \"#utility.yul\":16627:16628   */\n      0x00\n        /* \"#utility.yul\":16619:16625   */\n      dup3\n        /* \"#utility.yul\":16615:16629   */\n      add\n        /* \"#utility.yul\":16608:16654   */\n      mstore\n        /* \"#utility.yul\":16491:16661   */\n      pop\n      jump\t// out\n        /* \"#utility.yul\":16667:17033   */\n    tag_193:\n        /* \"#utility.yul\":16809:16812   */\n      0x00\n        /* \"#utility.yul\":16830:16897   */\n      tag_361\n        /* \"#utility.yul\":16894:16896   */\n      0x14\n        /* \"#utility.yul\":16889:16892   */\n      dup4\n        /* \"#utility.yul\":16830:16897   */\n      tag_174\n      jump\t// in\n    tag_361:\n        /* \"#utility.yul\":16823:16897   */\n      swap2\n      pop\n        /* \"#utility.yul\":16906:16999   */\n      tag_362\n        /* \"#utility.yul\":16995:16998   */\n      dup3\n        /* \"#utility.yul\":16906:16999   */\n      tag_192\n      jump\t// in\n    tag_362:\n        /* \"#utility.yul\":17024:17026   */\n      0x20\n        /* \"#utility.yul\":17019:17022   */\n      dup3\n        /* \"#utility.yul\":17015:17027   */\n      add\n        /* \"#utility.yul\":17008:17027   */\n      swap1\n      pop\n        /* \"#utility.yul\":16667:17033   */\n      swap2\n      swap1\n      pop\n      jump\t// out\n        /* \"#utility.yul\":17039:17458   */\n    tag_121:\n        /* \"#utility.yul\":17205:17209   */\n      0x00\n        /* \"#utility.yul\":17243:17245   */\n      0x20\n        /* \"#utility.yul\":17232:17241   */\n      dup3\n        /* \"#utility.yul\":17228:17246   */\n      add\n        /* \"#utility.yul\":17220:17246   */\n      swap1\n      pop\n        /* \"#utility.yul\":17292:17301   */\n      dup2\n        /* \"#utility.yul\":17286:17290   */\n      dup2\n        /* \"#utility.yul\":17282:17302   */\n      sub\n        /* \"#utility.yul\":17278:17279   */\n      0x00\n        /* \"#utility.yul\":17267:17276   */\n      dup4\n        /* \"#utility.yul\":17263:17280   */\n      add\n        /* \"#utility.yul\":17256:17303   */\n      mstore\n        /* \"#utility.yul\":17320:17451   */\n      tag_364\n        /* \"#utility.yul\":17446:17450   */\n      dup2\n        /* \"#utility.yul\":17320:17451   */\n      tag_193\n      jump\t// in\n    tag_364:\n        /* \"#utility.yul\":17312:17451   */\n      swap1\n      pop\n        /* \"#utility.yul\":17039:17458   */\n      swap2\n      swap1\n      pop\n      jump\t// out\n        /* \"#utility.yul\":17464:17610   */\n    tag_194:\n        /* \"#utility.yul\":17561:17567   */\n      dup3\n        /* \"#utility.yul\":17556:17559   */\n      dup2\n        /* \"#utility.yul\":17551:17554   */\n      dup4\n        /* \"#utility.yul\":17538:17568   */\n      calldatacopy\n        /* \"#utility.yul\":17602:17603   */\n      0x00\n        /* \"#utility.yul\":17593:17599   */\n      dup4\n        /* \"#utility.yul\":17588:17591   */\n      dup4\n        /* \"#utility.yul\":17584:17600   */\n      add\n        /* \"#utility.yul\":17577:17604   */\n      mstore\n        /* \"#utility.yul\":17464:17610   */\n      pop\n      pop\n      pop\n      jump\t// out\n        /* \"#utility.yul\":17616:17718   */\n    tag_195:\n        /* \"#utility.yul\":17657:17663   */\n      0x00\n        /* \"#utility.yul\":17708:17710   */\n      0x1f\n        /* \"#utility.yul\":17704:17711   */\n      not\n        /* \"#utility.yul\":17699:17701   */\n      0x1f\n        /* \"#utility.yul\":17692:17697   */\n      dup4\n        /* \"#utility.yul\":17688:17702   */\n      add\n        /* \"#utility.yul\":17684:17712   */\n      and\n        /* \"#utility.yul\":17674:17712   */\n      swap1\n      pop\n        /* \"#utility.yul\":17616:17718   */\n      swap2\n      swap1\n      pop\n      jump\t// out\n        /* \"#utility.yul\":17746:18060   */\n    tag_196:\n        /* \"#utility.yul\":17842:17845   */\n      0x00\n        /* \"#utility.yul\":17863:17933   */\n      tag_368\n        /* \"#utility.yul\":17926:17932   */\n      dup4\n        /* \"#utility.yul\":17921:17924   */\n      dup6\n        /* \"#utility.yul\":17863:17933   */\n      tag_184\n      jump\t// in\n    tag_368:\n        /* \"#utility.yul\":17856:17933   */\n      swap4\n      pop\n        /* \"#utility.yul\":17943:17999   */\n      tag_369\n        /* \"#utility.yul\":17992:17998   */\n      dup4\n        /* \"#utility.yul\":17987:17990   */\n      dup6\n        /* \"#utility.yul\":17980:17985   */\n      dup5\n        /* \"#utility.yul\":17943:17999   */\n      tag_194\n      jump\t// in\n    tag_369:\n        /* \"#utility.yul\":18024:18053   */\n      tag_370\n        /* \"#utility.yul\":18046:18052   */\n      dup4\n        /* \"#utility.yul\":18024:18053   */\n      tag_195\n      jump\t// in\n    tag_370:\n        /* \"#utility.yul\":18019:18022   */\n      dup5\n        /* \"#utility.yul\":18015:18054   */\n      add\n        /* \"#utility.yul\":18008:18054   */\n      swap1\n      pop\n        /* \"#utility.yul\":17746:18060   */\n      swap4\n      swap3\n      pop\n      pop\n      pop\n      jump\t// out\n        /* \"#utility.yul\":18066:18726   */\n    tag_128:\n        /* \"#utility.yul\":18271:18275   */\n      0x00\n        /* \"#utility.yul\":18309:18312   */\n      0x80\n        /* \"#utility.yul\":18298:18307   */\n      dup3\n        /* \"#utility.yul\":18294:18313   */\n      add\n        /* \"#utility.yul\":18286:18313   */\n      swap1\n      pop\n        /* \"#utility.yul\":18323:18394   */\n      tag_372\n        /* \"#utility.yul\":18391:18392   */\n      0x00\n        /* \"#utility.yul\":18380:18389   */\n      dup4\n        /* \"#utility.yul\":18376:18393   */\n      add\n        /* \"#utility.yul\":18367:18373   */\n      dup9\n        /* \"#utility.yul\":18323:18394   */\n      tag_164\n      jump\t// in\n    tag_372:\n        /* \"#utility.yul\":18404:18476   */\n      tag_373\n        /* \"#utility.yul\":18472:18474   */\n      0x20\n        /* \"#utility.yul\":18461:18470   */\n      dup4\n        /* \"#utility.yul\":18457:18475   */\n      add\n        /* \"#utility.yul\":18448:18454   */\n      dup8\n        /* \"#utility.yul\":18404:18476   */\n      tag_164\n      jump\t// in\n    tag_373:\n        /* \"#utility.yul\":18486:18558   */\n      tag_374\n        /* \"#utility.yul\":18554:18556   */\n      0x40\n        /* \"#utility.yul\":18543:18552   */\n      dup4\n        /* \"#utility.yul\":18539:18557   */\n      add\n        /* \"#utility.yul\":18530:18536   */\n      dup7\n        /* \"#utility.yul\":18486:18558   */\n      tag_167\n      jump\t// in\n    tag_374:\n        /* \"#utility.yul\":18605:18614   */\n      dup2\n        /* \"#utility.yul\":18599:18603   */\n      dup2\n        /* \"#utility.yul\":18595:18615   */\n      sub\n        /* \"#utility.yul\":18590:18592   */\n      0x60\n        /* \"#utility.yul\":18579:18588   */\n      dup4\n        /* \"#utility.yul\":18575:18593   */\n      add\n        /* \"#utility.yul\":18568:18616   */\n      mstore\n        /* \"#utility.yul\":18633:18719   */\n      tag_375\n        /* \"#utility.yul\":18714:18718   */\n      dup2\n        /* \"#utility.yul\":18705:18711   */\n      dup5\n        /* \"#utility.yul\":18697:18703   */\n      dup7\n        /* \"#utility.yul\":18633:18719   */\n      tag_196\n      jump\t// in\n    tag_375:\n        /* \"#utility.yul\":18625:18719   */\n      swap1\n      pop\n        /* \"#utility.yul\":18066:18726   */\n      swap7\n      swap6\n      pop\n      pop\n      pop\n      pop\n      pop\n      pop\n      jump\t// out\n        /* \"#utility.yul\":18732:18902   */\n    tag_197:\n        /* \"#utility.yul\":18872:18894   */\n      0x6d696e7420746f207a65726f2061646472657373000000000000000000000000\n        /* \"#utility.yul\":18868:18869   */\n      0x00\n        /* \"#utility.yul\":18860:18866   */\n      dup3\n        /* \"#utility.yul\":18856:18870   */\n      add\n        /* \"#utility.yul\":18849:18895   */\n      mstore\n        /* \"#utility.yul\":18732:18902   */\n      pop\n      jump\t// out\n        /* \"#utility.yul\":18908:19274   */\n    tag_198:\n        /* \"#utility.yul\":19050:19053   */\n      0x00\n        /* \"#utility.yul\":19071:19138   */\n      tag_378\n        /* \"#utility.yul\":19135:19137   */\n      0x14\n        /* \"#utility.yul\":19130:19133   */\n      dup4\n        /* \"#utility.yul\":19071:19138   */\n      tag_174\n      jump\t// in\n    tag_378:\n        /* \"#utility.yul\":19064:19138   */\n      swap2\n      pop\n        /* \"#utility.yul\":19147:19240   */\n      tag_379\n        /* \"#utility.yul\":19236:19239   */\n      dup3\n        /* \"#utility.yul\":19147:19240   */\n      tag_197\n      jump\t// in\n    tag_379:\n        /* \"#utility.yul\":19265:19267   */\n      0x20\n        /* \"#utility.yul\":19260:19263   */\n      dup3\n        /* \"#utility.yul\":19256:19268   */\n      add\n        /* \"#utility.yul\":19249:19268   */\n      swap1\n      pop\n        /* \"#utility.yul\":18908:19274   */\n      swap2\n      swap1\n      pop\n      jump\t// out\n        /* \"#utility.yul\":19280:19699   */\n    tag_140:\n        /* \"#utility.yul\":19446:19450   */\n      0x00\n        /* \"#utility.yul\":19484:19486   */\n      0x20\n        /* \"#utility.yul\":19473:19482   */\n      dup3\n        /* \"#utility.yul\":19469:19487   */\n      add\n        /* \"#utility.yul\":19461:19487   */\n      swap1\n      pop\n        /* \"#utility.yul\":19533:19542   */\n      dup2\n        /* \"#utility.yul\":19527:19531   */\n      dup2\n        /* \"#utility.yul\":19523:19543   */\n      sub\n        /* \"#utility.yul\":19519:19520   */\n      0x00\n        /* \"#utility.yul\":19508:19517   */\n      dup4\n        /* \"#utility.yul\":19504:19521   */\n      add\n        /* \"#utility.yul\":19497:19544   */\n      mstore\n        /* \"#utility.yul\":19561:19692   */\n      tag_381\n        /* \"#utility.yul\":19687:19691   */\n      dup2\n        /* \"#utility.yul\":19561:19692   */\n      tag_198\n      jump\t// in\n    tag_381:\n        /* \"#utility.yul\":19553:19692   */\n      swap1\n      pop\n        /* \"#utility.yul\":19280:19699   */\n      swap2\n      swap1\n      pop\n      jump\t// out\n        /* \"#utility.yul\":19705:19869   */\n    tag_199:\n        /* \"#utility.yul\":19845:19861   */\n      0x616c7265616479206d696e746564000000000000000000000000000000000000\n        /* \"#utility.yul\":19841:19842   */\n      0x00\n        /* \"#utility.yul\":19833:19839   */\n      dup3\n        /* \"#utility.yul\":19829:19843   */\n      add\n        /* \"#utility.yul\":19822:19862   */\n      mstore\n        /* \"#utility.yul\":19705:19869   */\n      pop\n      jump\t// out\n        /* \"#utility.yul\":19875:20241   */\n    tag_200:\n        /* \"#utility.yul\":20017:20020   */\n      0x00\n        /* \"#utility.yul\":20038:20105   */\n      tag_384\n        /* \"#utility.yul\":20102:20104   */\n      0x0e\n        /* \"#utility.yul\":20097:20100   */\n      dup4\n        /* \"#utility.yul\":20038:20105   */\n      tag_174\n      jump\t// in\n    tag_384:\n        /* \"#utility.yul\":20031:20105   */\n      swap2\n      pop\n        /* \"#utility.yul\":20114:20207   */\n      tag_385\n        /* \"#utility.yul\":20203:20206   */\n      dup3\n        /* \"#utility.yul\":20114:20207   */\n      tag_199\n      jump\t// in\n    tag_385:\n        /* \"#utility.yul\":20232:20234   */\n      0x20\n        /* \"#utility.yul\":20227:20230   */\n      dup3\n        /* \"#utility.yul\":20223:20235   */\n      add\n        /* \"#utility.yul\":20216:20235   */\n      swap1\n      pop\n        /* \"#utility.yul\":19875:20241   */\n      swap2\n      swap1\n      pop\n      jump\t// out\n        /* \"#utility.yul\":20247:20666   */\n    tag_143:\n        /* \"#utility.yul\":20413:20417   */\n      0x00\n        /* \"#utility.yul\":20451:20453   */\n      0x20\n        /* \"#utility.yul\":20440:20449   */\n      dup3\n        /* \"#utility.yul\":20436:20454   */\n      add\n        /* \"#utility.yul\":20428:20454   */\n      swap1\n      pop\n        /* \"#utility.yul\":20500:20509   */\n      dup2\n        /* \"#utility.yul\":20494:20498   */\n      dup2\n        /* \"#utility.yul\":20490:20510   */\n      sub\n        /* \"#utility.yul\":20486:20487   */\n      0x00\n        /* \"#utility.yul\":20475:20484   */\n      dup4\n        /* \"#utility.yul\":20471:20488   */\n      add\n        /* \"#utility.yul\":20464:20511   */\n      mstore\n        /* \"#utility.yul\":20528:20659   */\n      tag_387\n        /* \"#utility.yul\":20654:20658   */\n      dup2\n        /* \"#utility.yul\":20528:20659   */\n      tag_200\n      jump\t// in\n    tag_387:\n        /* \"#utility.yul\":20520:20659   */\n      swap1\n      pop\n        /* \"#utility.yul\":20247:20666   */\n      swap2\n      swap1\n      pop\n      jump\t// out\n        /* \"#utility.yul\":20672:20832   */\n    tag_201:\n        /* \"#utility.yul\":20812:20824   */\n      0x6e6f74206d696e74656400000000000000000000000000000000000000000000\n        /* \"#utility.yul\":20808:20809   */\n      0x00\n        /* \"#utility.yul\":20800:20806   */\n      dup3\n        /* \"#utility.yul\":20796:20810   */\n      add\n        /* \"#utility.yul\":20789:20825   */\n      mstore\n        /* \"#utility.yul\":20672:20832   */\n      pop\n      jump\t// out\n        /* \"#utility.yul\":20838:21204   */\n    tag_202:\n        /* \"#utility.yul\":20980:20983   */\n      0x00\n        /* \"#utility.yul\":21001:21068   */\n      tag_390\n        /* \"#utility.yul\":21065:21067   */\n      0x0a\n        /* \"#utility.yul\":21060:21063   */\n      dup4\n        /* \"#utility.yul\":21001:21068   */\n      tag_174\n      jump\t// in\n    tag_390:\n        /* \"#utility.yul\":20994:21068   */\n      swap2\n      pop\n        /* \"#utility.yul\":21077:21170   */\n      tag_391\n        /* \"#utility.yul\":21166:21169   */\n      dup3\n        /* \"#utility.yul\":21077:21170   */\n      tag_201\n      jump\t// in\n    tag_391:\n        /* \"#utility.yul\":21195:21197   */\n      0x20\n        /* \"#utility.yul\":21190:21193   */\n      dup3\n        /* \"#utility.yul\":21186:21198   */\n      add\n        /* \"#utility.yul\":21179:21198   */\n      swap1\n      pop\n        /* \"#utility.yul\":20838:21204   */\n      swap2\n      swap1\n      pop\n      jump\t// out\n        /* \"#utility.yul\":21210:21629   */\n    tag_148:\n        /* \"#utility.yul\":21376:21380   */\n      0x00\n        /* \"#utility.yul\":21414:21416   */\n      0x20\n        /* \"#utility.yul\":21403:21412   */\n      dup3\n        /* \"#utility.yul\":21399:21417   */\n      add\n        /* \"#utility.yul\":21391:21417   */\n      swap1\n      pop\n        /* \"#utility.yul\":21463:21472   */\n      dup2\n        /* \"#utility.yul\":21457:21461   */\n      dup2\n        /* \"#utility.yul\":21453:21473   */\n      sub\n        /* \"#utility.yul\":21449:21450   */\n      0x00\n        /* \"#utility.yul\":21438:21447   */\n      dup4\n        /* \"#utility.yul\":21434:21451   */\n      add\n        /* \"#utility.yul\":21427:21474   */\n      mstore\n        /* \"#utility.yul\":21491:21622   */\n      tag_393\n        /* \"#utility.yul\":21617:21621   */\n      dup2\n        /* \"#utility.yul\":21491:21622   */\n      tag_202\n      jump\t// in\n    tag_393:\n        /* \"#utility.yul\":21483:21622   */\n      swap1\n      pop\n        /* \"#utility.yul\":21210:21629   */\n      swap2\n      swap1\n      pop\n      jump\t// out\n        /* \"#utility.yul\":21635:21829   */\n    tag_150:\n        /* \"#utility.yul\":21675:21679   */\n      0x00\n        /* \"#utility.yul\":21695:21715   */\n      tag_395\n        /* \"#utility.yul\":21713:21714   */\n      dup3\n        /* \"#utility.yul\":21695:21715   */\n      tag_159\n      jump\t// in\n    tag_395:\n        /* \"#utility.yul\":21690:21715   */\n      swap2\n      pop\n        /* \"#utility.yul\":21729:21749   */\n      tag_396\n        /* \"#utility.yul\":21747:21748   */\n      dup4\n        /* \"#utility.yul\":21729:21749   */\n      tag_159\n      jump\t// in\n    tag_396:\n        /* \"#utility.yul\":21724:21749   */\n      swap3\n      pop\n        /* \"#utility.yul\":21773:21774   */\n      dup3\n        /* \"#utility.yul\":21770:21771   */\n      dup3\n        /* \"#utility.yul\":21766:21775   */\n      sub\n        /* \"#utility.yul\":21758:21775   */\n      swap1\n      pop\n        /* \"#utility.yul\":21797:21798   */\n      dup2\n        /* \"#utility.yul\":21791:21795   */\n      dup2\n        /* \"#utility.yul\":21788:21799   */\n      gt\n        /* \"#utility.yul\":21785:21822   */\n      iszero\n      tag_397\n      jumpi\n        /* \"#utility.yul\":21802:21820   */\n      tag_398\n      tag_183\n      jump\t// in\n    tag_398:\n        /* \"#utility.yul\":21785:21822   */\n    tag_397:\n        /* \"#utility.yul\":21635:21829   */\n      swap3\n      swap2\n      pop\n      pop\n      jump\t// out\n\n    auxdata: 0xa26469706673582212205f1bc6e2901e22e742ed10b7b597e2d4567e7f9266c5c0ee506777039b26bbd764736f6c63430008170033\n}\n",
				"bytecode": {
					"linkReferences": {},
					"object": "608060405234801561000f575f80fd5b50611dd08061001d5f395ff3fe608060405234801561000f575f80fd5b50600436106100b2575f3560e01c806342966c681161006f57806342966c68146101865780636352211e146101a257806370a08231146101d2578063a22cb46514610202578063b88d4fde1461021e578063e985e9c51461023a576100b2565b806301ffc9a7146100b6578063081812fc146100e6578063095ea7b31461011657806323b872dd1461013257806340c10f191461014e57806342842e0e1461016a575b5f80fd5b6100d060048036038101906100cb91906113b2565b61026a565b6040516100dd91906113f7565b60405180910390f35b61010060048036038101906100fb9190611443565b61033b565b60405161010d91906114ad565b60405180910390f35b610130600480360381019061012b91906114f0565b610411565b005b61014c6004803603810190610147919061152e565b6105ed565b005b610168600480360381019061016391906114f0565b6108c7565b005b610184600480360381019061017f919061152e565b6108d5565b005b6101a0600480360381019061019b9190611443565b610a09565b005b6101bc60048036038101906101b79190611443565b610ab2565b6040516101c991906114ad565b60405180910390f35b6101ec60048036038101906101e7919061157e565b610b58565b6040516101f991906115b8565b60405180910390f35b61021c600480360381019061021791906115fb565b610c0c565b005b6102386004803603810190610233919061169a565b610d04565b005b610254600480360381019061024f919061171e565b610e3e565b60405161026191906113f7565b60405180910390f35b5f7f80ac58cd000000000000000000000000000000000000000000000000000000007bffffffffffffffffffffffffffffffffffffffffffffffffffffffff1916827bffffffffffffffffffffffffffffffffffffffffffffffffffffffff1916148061033457507f01ffc9a7000000000000000000000000000000000000000000000000000000007bffffffffffffffffffffffffffffffffffffffffffffffffffffffff1916827bffffffffffffffffffffffffffffffffffffffffffffffffffffffff1916145b9050919050565b5f8073ffffffffffffffffffffffffffffffffffffffff165f808481526020019081526020015f205f9054906101000a900473ffffffffffffffffffffffffffffffffffffffff1673ffffffffffffffffffffffffffffffffffffffff16036103d9576040517f08c379a00000000000000000000000000000000000000000000000000000000081526004016103d0906117b6565b60405180910390fd5b60025f8381526020019081526020015f205f9054906101000a900473ffffffffffffffffffffffffffffffffffffffff169050919050565b5f805f8381526020019081526020015f205f9054906101000a900473ffffffffffffffffffffffffffffffffffffffff1690508073ffffffffffffffffffffffffffffffffffffffff163373ffffffffffffffffffffffffffffffffffffffff1614806104ff575060035f8273ffffffffffffffffffffffffffffffffffffffff1673ffffffffffffffffffffffffffffffffffffffff1681526020019081526020015f205f3373ffffffffffffffffffffffffffffffffffffffff1673ffffffffffffffffffffffffffffffffffffffff1681526020019081526020015f205f9054906101000a900460ff165b61053e576040517f08c379a00000000000000000000000000000000000000000000000000000000081526004016105359061181e565b60405180910390fd5b8260025f8481526020019081526020015f205f6101000a81548173ffffffffffffffffffffffffffffffffffffffff021916908373ffffffffffffffffffffffffffffffffffffffff160217905550818373ffffffffffffffffffffffffffffffffffffffff168273ffffffffffffffffffffffffffffffffffffffff167f8c5be1e5ebec7d5bd14f71427d1e84f3dd0314c0f7b2291e5b200ac8c7c3b92560405160405180910390a4505050565b5f808281526020019081526020015f205f9054906101000a900473ffffffffffffffffffffffffffffffffffffffff1673ffffffffffffffffffffffffffffffffffffffff168373ffffffffffffffffffffffffffffffffffffffff161461068a576040517f08c379a000000000000000000000000000000000000000000000000000000000815260040161068190611886565b60405180910390fd5b5f73ffffffffffffffffffffffffffffffffffffffff168273ffffffffffffffffffffffffffffffffffffffff16036106f8576040517f08c379a00000000000000000000000000000000000000000000000000000000081526004016106ef906118ee565b60405180910390fd5b610703833383610e68565b610742576040517f08c379a00000000000000000000000000000000000000000000000000000000081526004016107399061181e565b60405180910390fd5b60015f8473ffffffffffffffffffffffffffffffffffffffff1673ffffffffffffffffffffffffffffffffffffffff1681526020019081526020015f205f81548092919061078f90611939565b919050555060015f8373ffffffffffffffffffffffffffffffffffffffff1673ffffffffffffffffffffffffffffffffffffffff1681526020019081526020015f205f8154809291906107e190611960565b9190505550815f808381526020019081526020015f205f6101000a81548173ffffffffffffffffffffffffffffffffffffffff021916908373ffffffffffffffffffffffffffffffffffffffff16021790555060025f8281526020019081526020015f205f6101000a81549073ffffffffffffffffffffffffffffffffffffffff0219169055808273ffffffffffffffffffffffffffffffffffffffff168473ffffffffffffffffffffffffffffffffffffffff167fddf252ad1be2c89b69c2b068fc378daa952ba7f163c4a11628f55a4df523b3ef60405160405180910390a4505050565b6108d18282610f93565b5050565b6108e08383836105ed565b5f8273ffffffffffffffffffffffffffffffffffffffff163b14806109c5575063150b7a0260e01b7bffffffffffffffffffffffffffffffffffffffffffffffffffffffff19168273ffffffffffffffffffffffffffffffffffffffff1663150b7a023386856040518463ffffffff1660e01b8152600401610964939291906119da565b6020604051808303815f875af1158015610980573d5f803e3d5ffd5b505050506040513d601f19601f820116820180604052508101906109a49190611a36565b7bffffffffffffffffffffffffffffffffffffffffffffffffffffffff1916145b610a04576040517f08c379a00000000000000000000000000000000000000000000000000000000081526004016109fb90611aab565b60405180910390fd5b505050565b5f808281526020019081526020015f205f9054906101000a900473ffffffffffffffffffffffffffffffffffffffff1673ffffffffffffffffffffffffffffffffffffffff163373ffffffffffffffffffffffffffffffffffffffff1614610aa6576040517f08c379a0000000000000000000000000000000000000000000000000000000008152600401610a9d90611b13565b60405180910390fd5b610aaf8161119d565b50565b5f805f8381526020019081526020015f205f9054906101000a900473ffffffffffffffffffffffffffffffffffffffff1690505f73ffffffffffffffffffffffffffffffffffffffff168173ffffffffffffffffffffffffffffffffffffffff1603610b53576040517f08c379a0000000000000000000000000000000000000000000000000000000008152600401610b4a906117b6565b60405180910390fd5b919050565b5f8073ffffffffffffffffffffffffffffffffffffffff168273ffffffffffffffffffffffffffffffffffffffff1603610bc7576040517f08c379a0000000000000000000000000000000000000000000000000000000008152600401610bbe90611b7b565b60405180910390fd5b60015f8373ffffffffffffffffffffffffffffffffffffffff1673ffffffffffffffffffffffffffffffffffffffff1681526020019081526020015f20549050919050565b8060035f3373ffffffffffffffffffffffffffffffffffffffff1673ffffffffffffffffffffffffffffffffffffffff1681526020019081526020015f205f8473ffffffffffffffffffffffffffffffffffffffff1673ffffffffffffffffffffffffffffffffffffffff1681526020019081526020015f205f6101000a81548160ff0219169083151502179055508173ffffffffffffffffffffffffffffffffffffffff163373ffffffffffffffffffffffffffffffffffffffff167f17307eab39ab6107e8899845ad3d59bd9653f200f220920489ca2b5937696c3183604051610cf891906113f7565b60405180910390a35050565b610d0f8585856105ed565b5f8473ffffffffffffffffffffffffffffffffffffffff163b1480610df8575063150b7a0260e01b7bffffffffffffffffffffffffffffffffffffffffffffffffffffffff19168473ffffffffffffffffffffffffffffffffffffffff1663150b7a0233888787876040518663ffffffff1660e01b8152600401610d97959493929190611be3565b6020604051808303815f875af1158015610db3573d5f803e3d5ffd5b505050506040513d601f19601f82011682018060405250810190610dd79190611a36565b7bffffffffffffffffffffffffffffffffffffffffffffffffffffffff1916145b610e37576040517f08c379a0000000000000000000000000000000000000000000000000000000008152600401610e2e90611aab565b60405180910390fd5b5050505050565b6003602052815f5260405f20602052805f5260405f205f915091509054906101000a900460ff1681565b5f8373ffffffffffffffffffffffffffffffffffffffff168373ffffffffffffffffffffffffffffffffffffffff161480610f24575060035f8573ffffffffffffffffffffffffffffffffffffffff1673ffffffffffffffffffffffffffffffffffffffff1681526020019081526020015f205f8473ffffffffffffffffffffffffffffffffffffffff1673ffffffffffffffffffffffffffffffffffffffff1681526020019081526020015f205f9054906101000a900460ff165b80610f8a575060025f8381526020019081526020015f205f9054906101000a900473ffffffffffffffffffffffffffffffffffffffff1673ffffffffffffffffffffffffffffffffffffffff168373ffffffffffffffffffffffffffffffffffffffff16145b90509392505050565b5f73ffffffffffffffffffffffffffffffffffffffff168273ffffffffffffffffffffffffffffffffffffffff1603611001576040517f08c379a0000000000000000000000000000000000000000000000000000000008152600401610ff890611c79565b60405180910390fd5b5f73ffffffffffffffffffffffffffffffffffffffff165f808381526020019081526020015f205f9054906101000a900473ffffffffffffffffffffffffffffffffffffffff1673ffffffffffffffffffffffffffffffffffffffff161461109e576040517f08c379a000000000000000000000000000000000000000000000000000000000815260040161109590611ce1565b60405180910390fd5b60015f8373ffffffffffffffffffffffffffffffffffffffff1673ffffffffffffffffffffffffffffffffffffffff1681526020019081526020015f205f8154809291906110eb90611960565b9190505550815f808381526020019081526020015f205f6101000a81548173ffffffffffffffffffffffffffffffffffffffff021916908373ffffffffffffffffffffffffffffffffffffffff160217905550808273ffffffffffffffffffffffffffffffffffffffff165f73ffffffffffffffffffffffffffffffffffffffff167fddf252ad1be2c89b69c2b068fc378daa952ba7f163c4a11628f55a4df523b3ef60405160405180910390a45050565b5f805f8381526020019081526020015f205f9054906101000a900473ffffffffffffffffffffffffffffffffffffffff1690505f73ffffffffffffffffffffffffffffffffffffffff168173ffffffffffffffffffffffffffffffffffffffff160361123e576040517f08c379a000000000000000000000000000000000000000000000000000000000815260040161123590611d49565b60405180910390fd5b6001805f8373ffffffffffffffffffffffffffffffffffffffff1673ffffffffffffffffffffffffffffffffffffffff1681526020019081526020015f205f82825461128a9190611d67565b925050819055505f808381526020019081526020015f205f6101000a81549073ffffffffffffffffffffffffffffffffffffffff021916905560025f8381526020019081526020015f205f6101000a81549073ffffffffffffffffffffffffffffffffffffffff0219169055815f73ffffffffffffffffffffffffffffffffffffffff168273ffffffffffffffffffffffffffffffffffffffff167fddf252ad1be2c89b69c2b068fc378daa952ba7f163c4a11628f55a4df523b3ef60405160405180910390a45050565b5f80fd5b5f80fd5b5f7fffffffff0000000000000000000000000000000000000000000000000000000082169050919050565b6113918161135d565b811461139b575f80fd5b50565b5f813590506113ac81611388565b92915050565b5f602082840312156113c7576113c6611355565b5b5f6113d48482850161139e565b91505092915050565b5f8115159050919050565b6113f1816113dd565b82525050565b5f60208201905061140a5f8301846113e8565b92915050565b5f819050919050565b61142281611410565b811461142c575f80fd5b50565b5f8135905061143d81611419565b92915050565b5f6020828403121561145857611457611355565b5b5f6114658482850161142f565b91505092915050565b5f73ffffffffffffffffffffffffffffffffffffffff82169050919050565b5f6114978261146e565b9050919050565b6114a78161148d565b82525050565b5f6020820190506114c05f83018461149e565b92915050565b6114cf8161148d565b81146114d9575f80fd5b50565b5f813590506114ea816114c6565b92915050565b5f806040838503121561150657611505611355565b5b5f611513858286016114dc565b92505060206115248582860161142f565b9150509250929050565b5f805f6060848603121561154557611544611355565b5b5f611552868287016114dc565b9350506020611563868287016114dc565b92505060406115748682870161142f565b9150509250925092565b5f6020828403121561159357611592611355565b5b5f6115a0848285016114dc565b91505092915050565b6115b281611410565b82525050565b5f6020820190506115cb5f8301846115a9565b92915050565b6115da816113dd565b81146115e4575f80fd5b50565b5f813590506115f5816115d1565b92915050565b5f806040838503121561161157611610611355565b5b5f61161e858286016114dc565b925050602061162f858286016115e7565b9150509250929050565b5f80fd5b5f80fd5b5f80fd5b5f8083601f84011261165a57611659611639565b5b8235905067ffffffffffffffff8111156116775761167661163d565b5b60208301915083600182028301111561169357611692611641565b5b9250929050565b5f805f805f608086880312156116b3576116b2611355565b5b5f6116c0888289016114dc565b95505060206116d1888289016114dc565b94505060406116e28882890161142f565b935050606086013567ffffffffffffffff81111561170357611702611359565b5b61170f88828901611645565b92509250509295509295909350565b5f806040838503121561173457611733611355565b5b5f611741858286016114dc565b9250506020611752858286016114dc565b9150509250929050565b5f82825260208201905092915050565b7f746f6b656e20646f65736e2774206578697374000000000000000000000000005f82015250565b5f6117a060138361175c565b91506117ab8261176c565b602082019050919050565b5f6020820190508181035f8301526117cd81611794565b9050919050565b7f6e6f7420617574686f72697a65640000000000000000000000000000000000005f82015250565b5f611808600e8361175c565b9150611813826117d4565b602082019050919050565b5f6020820190508181035f830152611835816117fc565b9050919050565b7f66726f6d20213d206f776e6572000000000000000000000000000000000000005f82015250565b5f611870600d8361175c565b915061187b8261183c565b602082019050919050565b5f6020820190508181035f83015261189d81611864565b9050919050565b7f7472616e7366657220746f207a65726f206164647265737300000000000000005f82015250565b5f6118d860188361175c565b91506118e3826118a4565b602082019050919050565b5f6020820190508181035f830152611905816118cc565b9050919050565b7f4e487b71000000000000000000000000000000000000000000000000000000005f52601160045260245ffd5b5f61194382611410565b91505f82036119555761195461190c565b5b600182039050919050565b5f61196a82611410565b91507fffffffffffffffffffffffffffffffffffffffffffffffffffffffffffffffff820361199c5761199b61190c565b5b600182019050919050565b5f82825260208201905092915050565b50565b5f6119c55f836119a7565b91506119d0826119b7565b5f82019050919050565b5f6080820190506119ed5f83018661149e565b6119fa602083018561149e565b611a0760408301846115a9565b8181036060830152611a18816119ba565b9050949350505050565b5f81519050611a3081611388565b92915050565b5f60208284031215611a4b57611a4a611355565b5b5f611a5884828501611a22565b91505092915050565b7f756e7361666520726563697069656e74000000000000000000000000000000005f82015250565b5f611a9560108361175c565b9150611aa082611a61565b602082019050919050565b5f6020820190508181035f830152611ac281611a89565b9050919050565b7f6e6f74206f776e657200000000000000000000000000000000000000000000005f82015250565b5f611afd60098361175c565b9150611b0882611ac9565b602082019050919050565b5f6020820190508181035f830152611b2a81611af1565b9050919050565b7f6f776e6572203d207a65726f20616464726573730000000000000000000000005f82015250565b5f611b6560148361175c565b9150611b7082611b31565b602082019050919050565b5f6020820190508181035f830152611b9281611b59565b9050919050565b828183375f83830152505050565b5f601f19601f8301169050919050565b5f611bc283856119a7565b9350611bcf838584611b99565b611bd883611ba7565b840190509392505050565b5f608082019050611bf65f83018861149e565b611c03602083018761149e565b611c1060408301866115a9565b8181036060830152611c23818486611bb7565b90509695505050505050565b7f6d696e7420746f207a65726f20616464726573730000000000000000000000005f82015250565b5f611c6360148361175c565b9150611c6e82611c2f565b602082019050919050565b5f6020820190508181035f830152611c9081611c57565b9050919050565b7f616c7265616479206d696e7465640000000000000000000000000000000000005f82015250565b5f611ccb600e8361175c565b9150611cd682611c97565b602082019050919050565b5f6020820190508181035f830152611cf881611cbf565b9050919050565b7f6e6f74206d696e746564000000000000000000000000000000000000000000005f82015250565b5f611d33600a8361175c565b9150611d3e82611cff565b602082019050919050565b5f6020820190508181035f830152611d6081611d27565b9050919050565b5f611d7182611410565b9150611d7c83611410565b9250828203905081811115611d9457611d9361190c565b5b9291505056fea26469706673582212205f1bc6e2901e22e742ed10b7b597e2d4567e7f9266c5c0ee506777039b26bbd764736f6c63430008170033",
					"opcodes": "PUSH1 0x80 PUSH1 0x40 MSTORE CALLVALUE DUP1 ISZERO PUSH2 0xF JUMPI PUSH0 DUP1 REVERT JUMPDEST POP PUSH2 0x1DD0 DUP1 PUSH2 0x1D PUSH0 CODECOPY PUSH0 RETURN INVALID PUSH1 0x80 PUSH1 0x40 MSTORE CALLVALUE DUP1 ISZERO PUSH2 0xF JUMPI PUSH0 DUP1 REVERT JUMPDEST POP PUSH1 0x4 CALLDATASIZE LT PUSH2 0xB2 JUMPI PUSH0 CALLDATALOAD PUSH1 0xE0 SHR DUP1 PUSH4 0x42966C68 GT PUSH2 0x6F JUMPI DUP1 PUSH4 0x42966C68 EQ PUSH2 0x186 JUMPI DUP1 PUSH4 0x6352211E EQ PUSH2 0x1A2 JUMPI DUP1 PUSH4 0x70A08231 EQ PUSH2 0x1D2 JUMPI DUP1 PUSH4 0xA22CB465 EQ PUSH2 0x202 JUMPI DUP1 PUSH4 0xB88D4FDE EQ PUSH2 0x21E JUMPI DUP1 PUSH4 0xE985E9C5 EQ PUSH2 0x23A JUMPI PUSH2 0xB2 JUMP JUMPDEST DUP1 PUSH4 0x1FFC9A7 EQ PUSH2 0xB6 JUMPI DUP1 PUSH4 0x81812FC EQ PUSH2 0xE6 JUMPI DUP1 PUSH4 0x95EA7B3 EQ PUSH2 0x116 JUMPI DUP1 PUSH4 0x23B872DD EQ PUSH2 0x132 JUMPI DUP1 PUSH4 0x40C10F19 EQ PUSH2 0x14E JUMPI DUP1 PUSH4 0x42842E0E EQ PUSH2 0x16A JUMPI JUMPDEST PUSH0 DUP1 REVERT JUMPDEST PUSH2 0xD0 PUSH1 0x4 DUP1 CALLDATASIZE SUB DUP2 ADD SWAP1 PUSH2 0xCB SWAP2 SWAP1 PUSH2 0x13B2 JUMP JUMPDEST PUSH2 0x26A JUMP JUMPDEST PUSH1 0x40 MLOAD PUSH2 0xDD SWAP2 SWAP1 PUSH2 0x13F7 JUMP JUMPDEST PUSH1 0x40 MLOAD DUP1 SWAP2 SUB SWAP1 RETURN JUMPDEST PUSH2 0x100 PUSH1 0x4 DUP1 CALLDATASIZE SUB DUP2 ADD SWAP1 PUSH2 0xFB SWAP2 SWAP1 PUSH2 0x1443 JUMP JUMPDEST PUSH2 0x33B JUMP JUMPDEST PUSH1 0x40 MLOAD PUSH2 0x10D SWAP2 SWAP1 PUSH2 0x14AD JUMP JUMPDEST PUSH1 0x40 MLOAD DUP1 SWAP2 SUB SWAP1 RETURN JUMPDEST PUSH2 0x130 PUSH1 0x4 DUP1 CALLDATASIZE SUB DUP2 ADD SWAP1 PUSH2 0x12B SWAP2 SWAP1 PUSH2 0x14F0 JUMP JUMPDEST PUSH2 0x411 JUMP JUMPDEST STOP JUMPDEST PUSH2 0x14C PUSH1 0x4 DUP1 CALLDATASIZE SUB DUP2 ADD SWAP1 PUSH2 0x147 SWAP2 SWAP1 PUSH2 0x152E JUMP JUMPDEST PUSH2 0x5ED JUMP JUMPDEST STOP JUMPDEST PUSH2 0x168 PUSH1 0x4 DUP1 CALLDATASIZE SUB DUP2 ADD SWAP1 PUSH2 0x163 SWAP2 SWAP1 PUSH2 0x14F0 JUMP JUMPDEST PUSH2 0x8C7 JUMP JUMPDEST STOP JUMPDEST PUSH2 0x184 PUSH1 0x4 DUP1 CALLDATASIZE SUB DUP2 ADD SWAP1 PUSH2 0x17F SWAP2 SWAP1 PUSH2 0x152E JUMP JUMPDEST PUSH2 0x8D5 JUMP JUMPDEST STOP JUMPDEST PUSH2 0x1A0 PUSH1 0x4 DUP1 CALLDATASIZE SUB DUP2 ADD SWAP1 PUSH2 0x19B SWAP2 SWAP1 PUSH2 0x1443 JUMP JUMPDEST PUSH2 0xA09 JUMP JUMPDEST STOP JUMPDEST PUSH2 0x1BC PUSH1 0x4 DUP1 CALLDATASIZE SUB DUP2 ADD SWAP1 PUSH2 0x1B7 SWAP2 SWAP1 PUSH2 0x1443 JUMP JUMPDEST PUSH2 0xAB2 JUMP JUMPDEST PUSH1 0x40 MLOAD PUSH2 0x1C9 SWAP2 SWAP1 PUSH2 0x14AD JUMP JUMPDEST PUSH1 0x40 MLOAD DUP1 SWAP2 SUB SWAP1 RETURN JUMPDEST PUSH2 0x1EC PUSH1 0x4 DUP1 CALLDATASIZE SUB DUP2 ADD SWAP1 PUSH2 0x1E7 SWAP2 SWAP1 PUSH2 0x157E JUMP JUMPDEST PUSH2 0xB58 JUMP JUMPDEST PUSH1 0x40 MLOAD PUSH2 0x1F9 SWAP2 SWAP1 PUSH2 0x15B8 JUMP JUMPDEST PUSH1 0x40 MLOAD DUP1 SWAP2 SUB SWAP1 RETURN JUMPDEST PUSH2 0x21C PUSH1 0x4 DUP1 CALLDATASIZE SUB DUP2 ADD SWAP1 PUSH2 0x217 SWAP2 SWAP1 PUSH2 0x15FB JUMP JUMPDEST PUSH2 0xC0C JUMP JUMPDEST STOP JUMPDEST PUSH2 0x238 PUSH1 0x4 DUP1 CALLDATASIZE SUB DUP2 ADD SWAP1 PUSH2 0x233 SWAP2 SWAP1 PUSH2 0x169A JUMP JUMPDEST PUSH2 0xD04 JUMP JUMPDEST STOP JUMPDEST PUSH2 0x254 PUSH1 0x4 DUP1 CALLDATASIZE SUB DUP2 ADD SWAP1 PUSH2 0x24F SWAP2 SWAP1 PUSH2 0x171E JUMP JUMPDEST PUSH2 0xE3E JUMP JUMPDEST PUSH1 0x40 MLOAD PUSH2 0x261 SWAP2 SWAP1 PUSH2 0x13F7 JUMP JUMPDEST PUSH1 0x40 MLOAD DUP1 SWAP2 SUB SWAP1 RETURN JUMPDEST PUSH0 PUSH32 0x80AC58CD00000000000000000000000000000000000000000000000000000000 PUSH28 0xFFFFFFFFFFFFFFFFFFFFFFFFFFFFFFFFFFFFFFFFFFFFFFFFFFFFFFFF NOT AND DUP3 PUSH28 0xFFFFFFFFFFFFFFFFFFFFFFFFFFFFFFFFFFFFFFFFFFFFFFFFFFFFFFFF NOT AND EQ DUP1 PUSH2 0x334 JUMPI POP PUSH32 0x1FFC9A700000000000000000000000000000000000000000000000000000000 PUSH28 0xFFFFFFFFFFFFFFFFFFFFFFFFFFFFFFFFFFFFFFFFFFFFFFFFFFFFFFFF NOT AND DUP3 PUSH28 0xFFFFFFFFFFFFFFFFFFFFFFFFFFFFFFFFFFFFFFFFFFFFFFFFFFFFFFFF NOT AND EQ JUMPDEST SWAP1 POP SWAP2 SWAP1 POP JUMP JUMPDEST PUSH0 DUP1 PUSH20 0xFFFFFFFFFFFFFFFFFFFFFFFFFFFFFFFFFFFFFFFF AND PUSH0 DUP1 DUP5 DUP2 MSTORE PUSH1 0x20 ADD SWAP1 DUP2 MSTORE PUSH1 0x20 ADD PUSH0 KECCAK256 PUSH0 SWAP1 SLOAD SWAP1 PUSH2 0x100 EXP SWAP1 DIV PUSH20 0xFFFFFFFFFFFFFFFFFFFFFFFFFFFFFFFFFFFFFFFF AND PUSH20 0xFFFFFFFFFFFFFFFFFFFFFFFFFFFFFFFFFFFFFFFF AND SUB PUSH2 0x3D9 JUMPI PUSH1 0x40 MLOAD PUSH32 0x8C379A000000000000000000000000000000000000000000000000000000000 DUP2 MSTORE PUSH1 0x4 ADD PUSH2 0x3D0 SWAP1 PUSH2 0x17B6 JUMP JUMPDEST PUSH1 0x40 MLOAD DUP1 SWAP2 SUB SWAP1 REVERT JUMPDEST PUSH1 0x2 PUSH0 DUP4 DUP2 MSTORE PUSH1 0x20 ADD SWAP1 DUP2 MSTORE PUSH1 0x20 ADD PUSH0 KECCAK256 PUSH0 SWAP1 SLOAD SWAP1 PUSH2 0x100 EXP SWAP1 DIV PUSH20 0xFFFFFFFFFFFFFFFFFFFFFFFFFFFFFFFFFFFFFFFF AND SWAP1 POP SWAP2 SWAP1 POP JUMP JUMPDEST PUSH0 DUP1 PUSH0 DUP4 DUP2 MSTORE PUSH1 0x20 ADD SWAP1 DUP2 MSTORE PUSH1 0x20 ADD PUSH0 KECCAK256 PUSH0 SWAP1 SLOAD SWAP1 PUSH2 0x100 EXP SWAP1 DIV PUSH20 0xFFFFFFFFFFFFFFFFFFFFFFFFFFFFFFFFFFFFFFFF AND SWAP1 POP DUP1 PUSH20 0xFFFFFFFFFFFFFFFFFFFFFFFFFFFFFFFFFFFFFFFF AND CALLER PUSH20 0xFFFFFFFFFFFFFFFFFFFFFFFFFFFFFFFFFFFFFFFF AND EQ DUP1 PUSH2 0x4FF JUMPI POP PUSH1 0x3 PUSH0 DUP3 PUSH20 0xFFFFFFFFFFFFFFFFFFFFFFFFFFFFFFFFFFFFFFFF AND PUSH20 0xFFFFFFFFFFFFFFFFFFFFFFFFFFFFFFFFFFFFFFFF AND DUP2 MSTORE PUSH1 0x20 ADD SWAP1 DUP2 MSTORE PUSH1 0x20 ADD PUSH0 KECCAK256 PUSH0 CALLER PUSH20 0xFFFFFFFFFFFFFFFFFFFFFFFFFFFFFFFFFFFFFFFF AND PUSH20 0xFFFFFFFFFFFFFFFFFFFFFFFFFFFFFFFFFFFFFFFF AND DUP2 MSTORE PUSH1 0x20 ADD SWAP1 DUP2 MSTORE PUSH1 0x20 ADD PUSH0 KECCAK256 PUSH0 SWAP1 SLOAD SWAP1 PUSH2 0x100 EXP SWAP1 DIV PUSH1 0xFF AND JUMPDEST PUSH2 0x53E JUMPI PUSH1 0x40 MLOAD PUSH32 0x8C379A000000000000000000000000000000000000000000000000000000000 DUP2 MSTORE PUSH1 0x4 ADD PUSH2 0x535 SWAP1 PUSH2 0x181E JUMP JUMPDEST PUSH1 0x40 MLOAD DUP1 SWAP2 SUB SWAP1 REVERT JUMPDEST DUP3 PUSH1 0x2 PUSH0 DUP5 DUP2 MSTORE PUSH1 0x20 ADD SWAP1 DUP2 MSTORE PUSH1 0x20 ADD PUSH0 KECCAK256 PUSH0 PUSH2 0x100 EXP DUP2 SLOAD DUP2 PUSH20 0xFFFFFFFFFFFFFFFFFFFFFFFFFFFFFFFFFFFFFFFF MUL NOT AND SWAP1 DUP4 PUSH20 0xFFFFFFFFFFFFFFFFFFFFFFFFFFFFFFFFFFFFFFFF AND MUL OR SWAP1 SSTORE POP DUP2 DUP4 PUSH20 0xFFFFFFFFFFFFFFFFFFFFFFFFFFFFFFFFFFFFFFFF AND DUP3 PUSH20 0xFFFFFFFFFFFFFFFFFFFFFFFFFFFFFFFFFFFFFFFF AND PUSH32 0x8C5BE1E5EBEC7D5BD14F71427D1E84F3DD0314C0F7B2291E5B200AC8C7C3B925 PUSH1 0x40 MLOAD PUSH1 0x40 MLOAD DUP1 SWAP2 SUB SWAP1 LOG4 POP POP POP JUMP JUMPDEST PUSH0 DUP1 DUP3 DUP2 MSTORE PUSH1 0x20 ADD SWAP1 DUP2 MSTORE PUSH1 0x20 ADD PUSH0 KECCAK256 PUSH0 SWAP1 SLOAD SWAP1 PUSH2 0x100 EXP SWAP1 DIV PUSH20 0xFFFFFFFFFFFFFFFFFFFFFFFFFFFFFFFFFFFFFFFF AND PUSH20 0xFFFFFFFFFFFFFFFFFFFFFFFFFFFFFFFFFFFFFFFF AND DUP4 PUSH20 0xFFFFFFFFFFFFFFFFFFFFFFFFFFFFFFFFFFFFFFFF AND EQ PUSH2 0x68A JUMPI PUSH1 0x40 MLOAD PUSH32 0x8C379A000000000000000000000000000000000000000000000000000000000 DUP2 MSTORE PUSH1 0x4 ADD PUSH2 0x681 SWAP1 PUSH2 0x1886 JUMP JUMPDEST PUSH1 0x40 MLOAD DUP1 SWAP2 SUB SWAP1 REVERT JUMPDEST PUSH0 PUSH20 0xFFFFFFFFFFFFFFFFFFFFFFFFFFFFFFFFFFFFFFFF AND DUP3 PUSH20 0xFFFFFFFFFFFFFFFFFFFFFFFFFFFFFFFFFFFFFFFF AND SUB PUSH2 0x6F8 JUMPI PUSH1 0x40 MLOAD PUSH32 0x8C379A000000000000000000000000000000000000000000000000000000000 DUP2 MSTORE PUSH1 0x4 ADD PUSH2 0x6EF SWAP1 PUSH2 0x18EE JUMP JUMPDEST PUSH1 0x40 MLOAD DUP1 SWAP2 SUB SWAP1 REVERT JUMPDEST PUSH2 0x703 DUP4 CALLER DUP4 PUSH2 0xE68 JUMP JUMPDEST PUSH2 0x742 JUMPI PUSH1 0x40 MLOAD PUSH32 0x8C379A000000000000000000000000000000000000000000000000000000000 DUP2 MSTORE PUSH1 0x4 ADD PUSH2 0x739 SWAP1 PUSH2 0x181E JUMP JUMPDEST PUSH1 0x40 MLOAD DUP1 SWAP2 SUB SWAP1 REVERT JUMPDEST PUSH1 0x1 PUSH0 DUP5 PUSH20 0xFFFFFFFFFFFFFFFFFFFFFFFFFFFFFFFFFFFFFFFF AND PUSH20 0xFFFFFFFFFFFFFFFFFFFFFFFFFFFFFFFFFFFFFFFF AND DUP2 MSTORE PUSH1 0x20 ADD SWAP1 DUP2 MSTORE PUSH1 0x20 ADD PUSH0 KECCAK256 PUSH0 DUP2 SLOAD DUP1 SWAP3 SWAP2 SWAP1 PUSH2 0x78F SWAP1 PUSH2 0x1939 JUMP JUMPDEST SWAP2 SWAP1 POP SSTORE POP PUSH1 0x1 PUSH0 DUP4 PUSH20 0xFFFFFFFFFFFFFFFFFFFFFFFFFFFFFFFFFFFFFFFF AND PUSH20 0xFFFFFFFFFFFFFFFFFFFFFFFFFFFFFFFFFFFFFFFF AND DUP2 MSTORE PUSH1 0x20 ADD SWAP1 DUP2 MSTORE PUSH1 0x20 ADD PUSH0 KECCAK256 PUSH0 DUP2 SLOAD DUP1 SWAP3 SWAP2 SWAP1 PUSH2 0x7E1 SWAP1 PUSH2 0x1960 JUMP JUMPDEST SWAP2 SWAP1 POP SSTORE POP DUP2 PUSH0 DUP1 DUP4 DUP2 MSTORE PUSH1 0x20 ADD SWAP1 DUP2 MSTORE PUSH1 0x20 ADD PUSH0 KECCAK256 PUSH0 PUSH2 0x100 EXP DUP2 SLOAD DUP2 PUSH20 0xFFFFFFFFFFFFFFFFFFFFFFFFFFFFFFFFFFFFFFFF MUL NOT AND SWAP1 DUP4 PUSH20 0xFFFFFFFFFFFFFFFFFFFFFFFFFFFFFFFFFFFFFFFF AND MUL OR SWAP1 SSTORE POP PUSH1 0x2 PUSH0 DUP3 DUP2 MSTORE PUSH1 0x20 ADD SWAP1 DUP2 MSTORE PUSH1 0x20 ADD PUSH0 KECCAK256 PUSH0 PUSH2 0x100 EXP DUP2 SLOAD SWAP1 PUSH20 0xFFFFFFFFFFFFFFFFFFFFFFFFFFFFFFFFFFFFFFFF MUL NOT AND SWAP1 SSTORE DUP1 DUP3 PUSH20 0xFFFFFFFFFFFFFFFFFFFFFFFFFFFFFFFFFFFFFFFF AND DUP5 PUSH20 0xFFFFFFFFFFFFFFFFFFFFFFFFFFFFFFFFFFFFFFFF AND PUSH32 0xDDF252AD1BE2C89B69C2B068FC378DAA952BA7F163C4A11628F55A4DF523B3EF PUSH1 0x40 MLOAD PUSH1 0x40 MLOAD DUP1 SWAP2 SUB SWAP1 LOG4 POP POP POP JUMP JUMPDEST PUSH2 0x8D1 DUP3 DUP3 PUSH2 0xF93 JUMP JUMPDEST POP POP JUMP JUMPDEST PUSH2 0x8E0 DUP4 DUP4 DUP4 PUSH2 0x5ED JUMP JUMPDEST PUSH0 DUP3 PUSH20 0xFFFFFFFFFFFFFFFFFFFFFFFFFFFFFFFFFFFFFFFF AND EXTCODESIZE EQ DUP1 PUSH2 0x9C5 JUMPI POP PUSH4 0x150B7A02 PUSH1 0xE0 SHL PUSH28 0xFFFFFFFFFFFFFFFFFFFFFFFFFFFFFFFFFFFFFFFFFFFFFFFFFFFFFFFF NOT AND DUP3 PUSH20 0xFFFFFFFFFFFFFFFFFFFFFFFFFFFFFFFFFFFFFFFF AND PUSH4 0x150B7A02 CALLER DUP7 DUP6 PUSH1 0x40 MLOAD DUP5 PUSH4 0xFFFFFFFF AND PUSH1 0xE0 SHL DUP2 MSTORE PUSH1 0x4 ADD PUSH2 0x964 SWAP4 SWAP3 SWAP2 SWAP1 PUSH2 0x19DA JUMP JUMPDEST PUSH1 0x20 PUSH1 0x40 MLOAD DUP1 DUP4 SUB DUP2 PUSH0 DUP8 GAS CALL ISZERO DUP1 ISZERO PUSH2 0x980 JUMPI RETURNDATASIZE PUSH0 DUP1 RETURNDATACOPY RETURNDATASIZE PUSH0 REVERT JUMPDEST POP POP POP POP PUSH1 0x40 MLOAD RETURNDATASIZE PUSH1 0x1F NOT PUSH1 0x1F DUP3 ADD AND DUP3 ADD DUP1 PUSH1 0x40 MSTORE POP DUP2 ADD SWAP1 PUSH2 0x9A4 SWAP2 SWAP1 PUSH2 0x1A36 JUMP JUMPDEST PUSH28 0xFFFFFFFFFFFFFFFFFFFFFFFFFFFFFFFFFFFFFFFFFFFFFFFFFFFFFFFF NOT AND EQ JUMPDEST PUSH2 0xA04 JUMPI PUSH1 0x40 MLOAD PUSH32 0x8C379A000000000000000000000000000000000000000000000000000000000 DUP2 MSTORE PUSH1 0x4 ADD PUSH2 0x9FB SWAP1 PUSH2 0x1AAB JUMP JUMPDEST PUSH1 0x40 MLOAD DUP1 SWAP2 SUB SWAP1 REVERT JUMPDEST POP POP POP JUMP JUMPDEST PUSH0 DUP1 DUP3 DUP2 MSTORE PUSH1 0x20 ADD SWAP1 DUP2 MSTORE PUSH1 0x20 ADD PUSH0 KECCAK256 PUSH0 SWAP1 SLOAD SWAP1 PUSH2 0x100 EXP SWAP1 DIV PUSH20 0xFFFFFFFFFFFFFFFFFFFFFFFFFFFFFFFFFFFFFFFF AND PUSH20 0xFFFFFFFFFFFFFFFFFFFFFFFFFFFFFFFFFFFFFFFF AND CALLER PUSH20 0xFFFFFFFFFFFFFFFFFFFFFFFFFFFFFFFFFFFFFFFF AND EQ PUSH2 0xAA6 JUMPI PUSH1 0x40 MLOAD PUSH32 0x8C379A000000000000000000000000000000000000000000000000000000000 DUP2 MSTORE PUSH1 0x4 ADD PUSH2 0xA9D SWAP1 PUSH2 0x1B13 JUMP JUMPDEST PUSH1 0x40 MLOAD DUP1 SWAP2 SUB SWAP1 REVERT JUMPDEST PUSH2 0xAAF DUP2 PUSH2 0x119D JUMP JUMPDEST POP JUMP JUMPDEST PUSH0 DUP1 PUSH0 DUP4 DUP2 MSTORE PUSH1 0x20 ADD SWAP1 DUP2 MSTORE PUSH1 0x20 ADD PUSH0 KECCAK256 PUSH0 SWAP1 SLOAD SWAP1 PUSH2 0x100 EXP SWAP1 DIV PUSH20 0xFFFFFFFFFFFFFFFFFFFFFFFFFFFFFFFFFFFFFFFF AND SWAP1 POP PUSH0 PUSH20 0xFFFFFFFFFFFFFFFFFFFFFFFFFFFFFFFFFFFFFFFF AND DUP2 PUSH20 0xFFFFFFFFFFFFFFFFFFFFFFFFFFFFFFFFFFFFFFFF AND SUB PUSH2 0xB53 JUMPI PUSH1 0x40 MLOAD PUSH32 0x8C379A000000000000000000000000000000000000000000000000000000000 DUP2 MSTORE PUSH1 0x4 ADD PUSH2 0xB4A SWAP1 PUSH2 0x17B6 JUMP JUMPDEST PUSH1 0x40 MLOAD DUP1 SWAP2 SUB SWAP1 REVERT JUMPDEST SWAP2 SWAP1 POP JUMP JUMPDEST PUSH0 DUP1 PUSH20 0xFFFFFFFFFFFFFFFFFFFFFFFFFFFFFFFFFFFFFFFF AND DUP3 PUSH20 0xFFFFFFFFFFFFFFFFFFFFFFFFFFFFFFFFFFFFFFFF AND SUB PUSH2 0xBC7 JUMPI PUSH1 0x40 MLOAD PUSH32 0x8C379A000000000000000000000000000000000000000000000000000000000 DUP2 MSTORE PUSH1 0x4 ADD PUSH2 0xBBE SWAP1 PUSH2 0x1B7B JUMP JUMPDEST PUSH1 0x40 MLOAD DUP1 SWAP2 SUB SWAP1 REVERT JUMPDEST PUSH1 0x1 PUSH0 DUP4 PUSH20 0xFFFFFFFFFFFFFFFFFFFFFFFFFFFFFFFFFFFFFFFF AND PUSH20 0xFFFFFFFFFFFFFFFFFFFFFFFFFFFFFFFFFFFFFFFF AND DUP2 MSTORE PUSH1 0x20 ADD SWAP1 DUP2 MSTORE PUSH1 0x20 ADD PUSH0 KECCAK256 SLOAD SWAP1 POP SWAP2 SWAP1 POP JUMP JUMPDEST DUP1 PUSH1 0x3 PUSH0 CALLER PUSH20 0xFFFFFFFFFFFFFFFFFFFFFFFFFFFFFFFFFFFFFFFF AND PUSH20 0xFFFFFFFFFFFFFFFFFFFFFFFFFFFFFFFFFFFFFFFF AND DUP2 MSTORE PUSH1 0x20 ADD SWAP1 DUP2 MSTORE PUSH1 0x20 ADD PUSH0 KECCAK256 PUSH0 DUP5 PUSH20 0xFFFFFFFFFFFFFFFFFFFFFFFFFFFFFFFFFFFFFFFF AND PUSH20 0xFFFFFFFFFFFFFFFFFFFFFFFFFFFFFFFFFFFFFFFF AND DUP2 MSTORE PUSH1 0x20 ADD SWAP1 DUP2 MSTORE PUSH1 0x20 ADD PUSH0 KECCAK256 PUSH0 PUSH2 0x100 EXP DUP2 SLOAD DUP2 PUSH1 0xFF MUL NOT AND SWAP1 DUP4 ISZERO ISZERO MUL OR SWAP1 SSTORE POP DUP2 PUSH20 0xFFFFFFFFFFFFFFFFFFFFFFFFFFFFFFFFFFFFFFFF AND CALLER PUSH20 0xFFFFFFFFFFFFFFFFFFFFFFFFFFFFFFFFFFFFFFFF AND PUSH32 0x17307EAB39AB6107E8899845AD3D59BD9653F200F220920489CA2B5937696C31 DUP4 PUSH1 0x40 MLOAD PUSH2 0xCF8 SWAP2 SWAP1 PUSH2 0x13F7 JUMP JUMPDEST PUSH1 0x40 MLOAD DUP1 SWAP2 SUB SWAP1 LOG3 POP POP JUMP JUMPDEST PUSH2 0xD0F DUP6 DUP6 DUP6 PUSH2 0x5ED JUMP JUMPDEST PUSH0 DUP5 PUSH20 0xFFFFFFFFFFFFFFFFFFFFFFFFFFFFFFFFFFFFFFFF AND EXTCODESIZE EQ DUP1 PUSH2 0xDF8 JUMPI POP PUSH4 0x150B7A02 PUSH1 0xE0 SHL PUSH28 0xFFFFFFFFFFFFFFFFFFFFFFFFFFFFFFFFFFFFFFFFFFFFFFFFFFFFFFFF NOT AND DUP5 PUSH20 0xFFFFFFFFFFFFFFFFFFFFFFFFFFFFFFFFFFFFFFFF AND PUSH4 0x150B7A02 CALLER DUP9 DUP8 DUP8 DUP8 PUSH1 0x40 MLOAD DUP7 PUSH4 0xFFFFFFFF AND PUSH1 0xE0 SHL DUP2 MSTORE PUSH1 0x4 ADD PUSH2 0xD97 SWAP6 SWAP5 SWAP4 SWAP3 SWAP2 SWAP1 PUSH2 0x1BE3 JUMP JUMPDEST PUSH1 0x20 PUSH1 0x40 MLOAD DUP1 DUP4 SUB DUP2 PUSH0 DUP8 GAS CALL ISZERO DUP1 ISZERO PUSH2 0xDB3 JUMPI RETURNDATASIZE PUSH0 DUP1 RETURNDATACOPY RETURNDATASIZE PUSH0 REVERT JUMPDEST POP POP POP POP PUSH1 0x40 MLOAD RETURNDATASIZE PUSH1 0x1F NOT PUSH1 0x1F DUP3 ADD AND DUP3 ADD DUP1 PUSH1 0x40 MSTORE POP DUP2 ADD SWAP1 PUSH2 0xDD7 SWAP2 SWAP1 PUSH2 0x1A36 JUMP JUMPDEST PUSH28 0xFFFFFFFFFFFFFFFFFFFFFFFFFFFFFFFFFFFFFFFFFFFFFFFFFFFFFFFF NOT AND EQ JUMPDEST PUSH2 0xE37 JUMPI PUSH1 0x40 MLOAD PUSH32 0x8C379A000000000000000000000000000000000000000000000000000000000 DUP2 MSTORE PUSH1 0x4 ADD PUSH2 0xE2E SWAP1 PUSH2 0x1AAB JUMP JUMPDEST PUSH1 0x40 MLOAD DUP1 SWAP2 SUB SWAP1 REVERT JUMPDEST POP POP POP POP POP JUMP JUMPDEST PUSH1 0x3 PUSH1 0x20 MSTORE DUP2 PUSH0 MSTORE PUSH1 0x40 PUSH0 KECCAK256 PUSH1 0x20 MSTORE DUP1 PUSH0 MSTORE PUSH1 0x40 PUSH0 KECCAK256 PUSH0 SWAP2 POP SWAP2 POP SWAP1 SLOAD SWAP1 PUSH2 0x100 EXP SWAP1 DIV PUSH1 0xFF AND DUP2 JUMP JUMPDEST PUSH0 DUP4 PUSH20 0xFFFFFFFFFFFFFFFFFFFFFFFFFFFFFFFFFFFFFFFF AND DUP4 PUSH20 0xFFFFFFFFFFFFFFFFFFFFFFFFFFFFFFFFFFFFFFFF AND EQ DUP1 PUSH2 0xF24 JUMPI POP PUSH1 0x3 PUSH0 DUP6 PUSH20 0xFFFFFFFFFFFFFFFFFFFFFFFFFFFFFFFFFFFFFFFF AND PUSH20 0xFFFFFFFFFFFFFFFFFFFFFFFFFFFFFFFFFFFFFFFF AND DUP2 MSTORE PUSH1 0x20 ADD SWAP1 DUP2 MSTORE PUSH1 0x20 ADD PUSH0 KECCAK256 PUSH0 DUP5 PUSH20 0xFFFFFFFFFFFFFFFFFFFFFFFFFFFFFFFFFFFFFFFF AND PUSH20 0xFFFFFFFFFFFFFFFFFFFFFFFFFFFFFFFFFFFFFFFF AND DUP2 MSTORE PUSH1 0x20 ADD SWAP1 DUP2 MSTORE PUSH1 0x20 ADD PUSH0 KECCAK256 PUSH0 SWAP1 SLOAD SWAP1 PUSH2 0x100 EXP SWAP1 DIV PUSH1 0xFF AND JUMPDEST DUP1 PUSH2 0xF8A JUMPI POP PUSH1 0x2 PUSH0 DUP4 DUP2 MSTORE PUSH1 0x20 ADD SWAP1 DUP2 MSTORE PUSH1 0x20 ADD PUSH0 KECCAK256 PUSH0 SWAP1 SLOAD SWAP1 PUSH2 0x100 EXP SWAP1 DIV PUSH20 0xFFFFFFFFFFFFFFFFFFFFFFFFFFFFFFFFFFFFFFFF AND PUSH20 0xFFFFFFFFFFFFFFFFFFFFFFFFFFFFFFFFFFFFFFFF AND DUP4 PUSH20 0xFFFFFFFFFFFFFFFFFFFFFFFFFFFFFFFFFFFFFFFF AND EQ JUMPDEST SWAP1 POP SWAP4 SWAP3 POP POP POP JUMP JUMPDEST PUSH0 PUSH20 0xFFFFFFFFFFFFFFFFFFFFFFFFFFFFFFFFFFFFFFFF AND DUP3 PUSH20 0xFFFFFFFFFFFFFFFFFFFFFFFFFFFFFFFFFFFFFFFF AND SUB PUSH2 0x1001 JUMPI PUSH1 0x40 MLOAD PUSH32 0x8C379A000000000000000000000000000000000000000000000000000000000 DUP2 MSTORE PUSH1 0x4 ADD PUSH2 0xFF8 SWAP1 PUSH2 0x1C79 JUMP JUMPDEST PUSH1 0x40 MLOAD DUP1 SWAP2 SUB SWAP1 REVERT JUMPDEST PUSH0 PUSH20 0xFFFFFFFFFFFFFFFFFFFFFFFFFFFFFFFFFFFFFFFF AND PUSH0 DUP1 DUP4 DUP2 MSTORE PUSH1 0x20 ADD SWAP1 DUP2 MSTORE PUSH1 0x20 ADD PUSH0 KECCAK256 PUSH0 SWAP1 SLOAD SWAP1 PUSH2 0x100 EXP SWAP1 DIV PUSH20 0xFFFFFFFFFFFFFFFFFFFFFFFFFFFFFFFFFFFFFFFF AND PUSH20 0xFFFFFFFFFFFFFFFFFFFFFFFFFFFFFFFFFFFFFFFF AND EQ PUSH2 0x109E JUMPI PUSH1 0x40 MLOAD PUSH32 0x8C379A000000000000000000000000000000000000000000000000000000000 DUP2 MSTORE PUSH1 0x4 ADD PUSH2 0x1095 SWAP1 PUSH2 0x1CE1 JUMP JUMPDEST PUSH1 0x40 MLOAD DUP1 SWAP2 SUB SWAP1 REVERT JUMPDEST PUSH1 0x1 PUSH0 DUP4 PUSH20 0xFFFFFFFFFFFFFFFFFFFFFFFFFFFFFFFFFFFFFFFF AND PUSH20 0xFFFFFFFFFFFFFFFFFFFFFFFFFFFFFFFFFFFFFFFF AND DUP2 MSTORE PUSH1 0x20 ADD SWAP1 DUP2 MSTORE PUSH1 0x20 ADD PUSH0 KECCAK256 PUSH0 DUP2 SLOAD DUP1 SWAP3 SWAP2 SWAP1 PUSH2 0x10EB SWAP1 PUSH2 0x1960 JUMP JUMPDEST SWAP2 SWAP1 POP SSTORE POP DUP2 PUSH0 DUP1 DUP4 DUP2 MSTORE PUSH1 0x20 ADD SWAP1 DUP2 MSTORE PUSH1 0x20 ADD PUSH0 KECCAK256 PUSH0 PUSH2 0x100 EXP DUP2 SLOAD DUP2 PUSH20 0xFFFFFFFFFFFFFFFFFFFFFFFFFFFFFFFFFFFFFFFF MUL NOT AND SWAP1 DUP4 PUSH20 0xFFFFFFFFFFFFFFFFFFFFFFFFFFFFFFFFFFFFFFFF AND MUL OR SWAP1 SSTORE POP DUP1 DUP3 PUSH20 0xFFFFFFFFFFFFFFFFFFFFFFFFFFFFFFFFFFFFFFFF AND PUSH0 PUSH20 0xFFFFFFFFFFFFFFFFFFFFFFFFFFFFFFFFFFFFFFFF AND PUSH32 0xDDF252AD1BE2C89B69C2B068FC378DAA952BA7F163C4A11628F55A4DF523B3EF PUSH1 0x40 MLOAD PUSH1 0x40 MLOAD DUP1 SWAP2 SUB SWAP1 LOG4 POP POP JUMP JUMPDEST PUSH0 DUP1 PUSH0 DUP4 DUP2 MSTORE PUSH1 0x20 ADD SWAP1 DUP2 MSTORE PUSH1 0x20 ADD PUSH0 KECCAK256 PUSH0 SWAP1 SLOAD SWAP1 PUSH2 0x100 EXP SWAP1 DIV PUSH20 0xFFFFFFFFFFFFFFFFFFFFFFFFFFFFFFFFFFFFFFFF AND SWAP1 POP PUSH0 PUSH20 0xFFFFFFFFFFFFFFFFFFFFFFFFFFFFFFFFFFFFFFFF AND DUP2 PUSH20 0xFFFFFFFFFFFFFFFFFFFFFFFFFFFFFFFFFFFFFFFF AND SUB PUSH2 0x123E JUMPI PUSH1 0x40 MLOAD PUSH32 0x8C379A000000000000000000000000000000000000000000000000000000000 DUP2 MSTORE PUSH1 0x4 ADD PUSH2 0x1235 SWAP1 PUSH2 0x1D49 JUMP JUMPDEST PUSH1 0x40 MLOAD DUP1 SWAP2 SUB SWAP1 REVERT JUMPDEST PUSH1 0x1 DUP1 PUSH0 DUP4 PUSH20 0xFFFFFFFFFFFFFFFFFFFFFFFFFFFFFFFFFFFFFFFF AND PUSH20 0xFFFFFFFFFFFFFFFFFFFFFFFFFFFFFFFFFFFFFFFF AND DUP2 MSTORE PUSH1 0x20 ADD SWAP1 DUP2 MSTORE PUSH1 0x20 ADD PUSH0 KECCAK256 PUSH0 DUP3 DUP3 SLOAD PUSH2 0x128A SWAP2 SWAP1 PUSH2 0x1D67 JUMP JUMPDEST SWAP3 POP POP DUP2 SWAP1 SSTORE POP PUSH0 DUP1 DUP4 DUP2 MSTORE PUSH1 0x20 ADD SWAP1 DUP2 MSTORE PUSH1 0x20 ADD PUSH0 KECCAK256 PUSH0 PUSH2 0x100 EXP DUP2 SLOAD SWAP1 PUSH20 0xFFFFFFFFFFFFFFFFFFFFFFFFFFFFFFFFFFFFFFFF MUL NOT AND SWAP1 SSTORE PUSH1 0x2 PUSH0 DUP4 DUP2 MSTORE PUSH1 0x20 ADD SWAP1 DUP2 MSTORE PUSH1 0x20 ADD PUSH0 KECCAK256 PUSH0 PUSH2 0x100 EXP DUP2 SLOAD SWAP1 PUSH20 0xFFFFFFFFFFFFFFFFFFFFFFFFFFFFFFFFFFFFFFFF MUL NOT AND SWAP1 SSTORE DUP2 PUSH0 PUSH20 0xFFFFFFFFFFFFFFFFFFFFFFFFFFFFFFFFFFFFFFFF AND DUP3 PUSH20 0xFFFFFFFFFFFFFFFFFFFFFFFFFFFFFFFFFFFFFFFF AND PUSH32 0xDDF252AD1BE2C89B69C2B068FC378DAA952BA7F163C4A11628F55A4DF523B3EF PUSH1 0x40 MLOAD PUSH1 0x40 MLOAD DUP1 SWAP2 SUB SWAP1 LOG4 POP POP JUMP JUMPDEST PUSH0 DUP1 REVERT JUMPDEST PUSH0 DUP1 REVERT JUMPDEST PUSH0 PUSH32 0xFFFFFFFF00000000000000000000000000000000000000000000000000000000 DUP3 AND SWAP1 POP SWAP2 SWAP1 POP JUMP JUMPDEST PUSH2 0x1391 DUP2 PUSH2 0x135D JUMP JUMPDEST DUP2 EQ PUSH2 0x139B JUMPI PUSH0 DUP1 REVERT JUMPDEST POP JUMP JUMPDEST PUSH0 DUP2 CALLDATALOAD SWAP1 POP PUSH2 0x13AC DUP2 PUSH2 0x1388 JUMP JUMPDEST SWAP3 SWAP2 POP POP JUMP JUMPDEST PUSH0 PUSH1 0x20 DUP3 DUP5 SUB SLT ISZERO PUSH2 0x13C7 JUMPI PUSH2 0x13C6 PUSH2 0x1355 JUMP JUMPDEST JUMPDEST PUSH0 PUSH2 0x13D4 DUP5 DUP3 DUP6 ADD PUSH2 0x139E JUMP JUMPDEST SWAP2 POP POP SWAP3 SWAP2 POP POP JUMP JUMPDEST PUSH0 DUP2 ISZERO ISZERO SWAP1 POP SWAP2 SWAP1 POP JUMP JUMPDEST PUSH2 0x13F1 DUP2 PUSH2 0x13DD JUMP JUMPDEST DUP3 MSTORE POP POP JUMP JUMPDEST PUSH0 PUSH1 0x20 DUP3 ADD SWAP1 POP PUSH2 0x140A PUSH0 DUP4 ADD DUP5 PUSH2 0x13E8 JUMP JUMPDEST SWAP3 SWAP2 POP POP JUMP JUMPDEST PUSH0 DUP2 SWAP1 POP SWAP2 SWAP1 POP JUMP JUMPDEST PUSH2 0x1422 DUP2 PUSH2 0x1410 JUMP JUMPDEST DUP2 EQ PUSH2 0x142C JUMPI PUSH0 DUP1 REVERT JUMPDEST POP JUMP JUMPDEST PUSH0 DUP2 CALLDATALOAD SWAP1 POP PUSH2 0x143D DUP2 PUSH2 0x1419 JUMP JUMPDEST SWAP3 SWAP2 POP POP JUMP JUMPDEST PUSH0 PUSH1 0x20 DUP3 DUP5 SUB SLT ISZERO PUSH2 0x1458 JUMPI PUSH2 0x1457 PUSH2 0x1355 JUMP JUMPDEST JUMPDEST PUSH0 PUSH2 0x1465 DUP5 DUP3 DUP6 ADD PUSH2 0x142F JUMP JUMPDEST SWAP2 POP POP SWAP3 SWAP2 POP POP JUMP JUMPDEST PUSH0 PUSH20 0xFFFFFFFFFFFFFFFFFFFFFFFFFFFFFFFFFFFFFFFF DUP3 AND SWAP1 POP SWAP2 SWAP1 POP JUMP JUMPDEST PUSH0 PUSH2 0x1497 DUP3 PUSH2 0x146E JUMP JUMPDEST SWAP1 POP SWAP2 SWAP1 POP JUMP JUMPDEST PUSH2 0x14A7 DUP2 PUSH2 0x148D JUMP JUMPDEST DUP3 MSTORE POP POP JUMP JUMPDEST PUSH0 PUSH1 0x20 DUP3 ADD SWAP1 POP PUSH2 0x14C0 PUSH0 DUP4 ADD DUP5 PUSH2 0x149E JUMP JUMPDEST SWAP3 SWAP2 POP POP JUMP JUMPDEST PUSH2 0x14CF DUP2 PUSH2 0x148D JUMP JUMPDEST DUP2 EQ PUSH2 0x14D9 JUMPI PUSH0 DUP1 REVERT JUMPDEST POP JUMP JUMPDEST PUSH0 DUP2 CALLDATALOAD SWAP1 POP PUSH2 0x14EA DUP2 PUSH2 0x14C6 JUMP JUMPDEST SWAP3 SWAP2 POP POP JUMP JUMPDEST PUSH0 DUP1 PUSH1 0x40 DUP4 DUP6 SUB SLT ISZERO PUSH2 0x1506 JUMPI PUSH2 0x1505 PUSH2 0x1355 JUMP JUMPDEST JUMPDEST PUSH0 PUSH2 0x1513 DUP6 DUP3 DUP7 ADD PUSH2 0x14DC JUMP JUMPDEST SWAP3 POP POP PUSH1 0x20 PUSH2 0x1524 DUP6 DUP3 DUP7 ADD PUSH2 0x142F JUMP JUMPDEST SWAP2 POP POP SWAP3 POP SWAP3 SWAP1 POP JUMP JUMPDEST PUSH0 DUP1 PUSH0 PUSH1 0x60 DUP5 DUP7 SUB SLT ISZERO PUSH2 0x1545 JUMPI PUSH2 0x1544 PUSH2 0x1355 JUMP JUMPDEST JUMPDEST PUSH0 PUSH2 0x1552 DUP7 DUP3 DUP8 ADD PUSH2 0x14DC JUMP JUMPDEST SWAP4 POP POP PUSH1 0x20 PUSH2 0x1563 DUP7 DUP3 DUP8 ADD PUSH2 0x14DC JUMP JUMPDEST SWAP3 POP POP PUSH1 0x40 PUSH2 0x1574 DUP7 DUP3 DUP8 ADD PUSH2 0x142F JUMP JUMPDEST SWAP2 POP POP SWAP3 POP SWAP3 POP SWAP3 JUMP JUMPDEST PUSH0 PUSH1 0x20 DUP3 DUP5 SUB SLT ISZERO PUSH2 0x1593 JUMPI PUSH2 0x1592 PUSH2 0x1355 JUMP JUMPDEST JUMPDEST PUSH0 PUSH2 0x15A0 DUP5 DUP3 DUP6 ADD PUSH2 0x14DC JUMP JUMPDEST SWAP2 POP POP SWAP3 SWAP2 POP POP JUMP JUMPDEST PUSH2 0x15B2 DUP2 PUSH2 0x1410 JUMP JUMPDEST DUP3 MSTORE POP POP JUMP JUMPDEST PUSH0 PUSH1 0x20 DUP3 ADD SWAP1 POP PUSH2 0x15CB PUSH0 DUP4 ADD DUP5 PUSH2 0x15A9 JUMP JUMPDEST SWAP3 SWAP2 POP POP JUMP JUMPDEST PUSH2 0x15DA DUP2 PUSH2 0x13DD JUMP JUMPDEST DUP2 EQ PUSH2 0x15E4 JUMPI PUSH0 DUP1 REVERT JUMPDEST POP JUMP JUMPDEST PUSH0 DUP2 CALLDATALOAD SWAP1 POP PUSH2 0x15F5 DUP2 PUSH2 0x15D1 JUMP JUMPDEST SWAP3 SWAP2 POP POP JUMP JUMPDEST PUSH0 DUP1 PUSH1 0x40 DUP4 DUP6 SUB SLT ISZERO PUSH2 0x1611 JUMPI PUSH2 0x1610 PUSH2 0x1355 JUMP JUMPDEST JUMPDEST PUSH0 PUSH2 0x161E DUP6 DUP3 DUP7 ADD PUSH2 0x14DC JUMP JUMPDEST SWAP3 POP POP PUSH1 0x20 PUSH2 0x162F DUP6 DUP3 DUP7 ADD PUSH2 0x15E7 JUMP JUMPDEST SWAP2 POP POP SWAP3 POP SWAP3 SWAP1 POP JUMP JUMPDEST PUSH0 DUP1 REVERT JUMPDEST PUSH0 DUP1 REVERT JUMPDEST PUSH0 DUP1 REVERT JUMPDEST PUSH0 DUP1 DUP4 PUSH1 0x1F DUP5 ADD SLT PUSH2 0x165A JUMPI PUSH2 0x1659 PUSH2 0x1639 JUMP JUMPDEST JUMPDEST DUP3 CALLDATALOAD SWAP1 POP PUSH8 0xFFFFFFFFFFFFFFFF DUP2 GT ISZERO PUSH2 0x1677 JUMPI PUSH2 0x1676 PUSH2 0x163D JUMP JUMPDEST JUMPDEST PUSH1 0x20 DUP4 ADD SWAP2 POP DUP4 PUSH1 0x1 DUP3 MUL DUP4 ADD GT ISZERO PUSH2 0x1693 JUMPI PUSH2 0x1692 PUSH2 0x1641 JUMP JUMPDEST JUMPDEST SWAP3 POP SWAP3 SWAP1 POP JUMP JUMPDEST PUSH0 DUP1 PUSH0 DUP1 PUSH0 PUSH1 0x80 DUP7 DUP9 SUB SLT ISZERO PUSH2 0x16B3 JUMPI PUSH2 0x16B2 PUSH2 0x1355 JUMP JUMPDEST JUMPDEST PUSH0 PUSH2 0x16C0 DUP9 DUP3 DUP10 ADD PUSH2 0x14DC JUMP JUMPDEST SWAP6 POP POP PUSH1 0x20 PUSH2 0x16D1 DUP9 DUP3 DUP10 ADD PUSH2 0x14DC JUMP JUMPDEST SWAP5 POP POP PUSH1 0x40 PUSH2 0x16E2 DUP9 DUP3 DUP10 ADD PUSH2 0x142F JUMP JUMPDEST SWAP4 POP POP PUSH1 0x60 DUP7 ADD CALLDATALOAD PUSH8 0xFFFFFFFFFFFFFFFF DUP2 GT ISZERO PUSH2 0x1703 JUMPI PUSH2 0x1702 PUSH2 0x1359 JUMP JUMPDEST JUMPDEST PUSH2 0x170F DUP9 DUP3 DUP10 ADD PUSH2 0x1645 JUMP JUMPDEST SWAP3 POP SWAP3 POP POP SWAP3 SWAP6 POP SWAP3 SWAP6 SWAP1 SWAP4 POP JUMP JUMPDEST PUSH0 DUP1 PUSH1 0x40 DUP4 DUP6 SUB SLT ISZERO PUSH2 0x1734 JUMPI PUSH2 0x1733 PUSH2 0x1355 JUMP JUMPDEST JUMPDEST PUSH0 PUSH2 0x1741 DUP6 DUP3 DUP7 ADD PUSH2 0x14DC JUMP JUMPDEST SWAP3 POP POP PUSH1 0x20 PUSH2 0x1752 DUP6 DUP3 DUP7 ADD PUSH2 0x14DC JUMP JUMPDEST SWAP2 POP POP SWAP3 POP SWAP3 SWAP1 POP JUMP JUMPDEST PUSH0 DUP3 DUP3 MSTORE PUSH1 0x20 DUP3 ADD SWAP1 POP SWAP3 SWAP2 POP POP JUMP JUMPDEST PUSH32 0x746F6B656E20646F65736E277420657869737400000000000000000000000000 PUSH0 DUP3 ADD MSTORE POP JUMP JUMPDEST PUSH0 PUSH2 0x17A0 PUSH1 0x13 DUP4 PUSH2 0x175C JUMP JUMPDEST SWAP2 POP PUSH2 0x17AB DUP3 PUSH2 0x176C JUMP JUMPDEST PUSH1 0x20 DUP3 ADD SWAP1 POP SWAP2 SWAP1 POP JUMP JUMPDEST PUSH0 PUSH1 0x20 DUP3 ADD SWAP1 POP DUP2 DUP2 SUB PUSH0 DUP4 ADD MSTORE PUSH2 0x17CD DUP2 PUSH2 0x1794 JUMP JUMPDEST SWAP1 POP SWAP2 SWAP1 POP JUMP JUMPDEST PUSH32 0x6E6F7420617574686F72697A6564000000000000000000000000000000000000 PUSH0 DUP3 ADD MSTORE POP JUMP JUMPDEST PUSH0 PUSH2 0x1808 PUSH1 0xE DUP4 PUSH2 0x175C JUMP JUMPDEST SWAP2 POP PUSH2 0x1813 DUP3 PUSH2 0x17D4 JUMP JUMPDEST PUSH1 0x20 DUP3 ADD SWAP1 POP SWAP2 SWAP1 POP JUMP JUMPDEST PUSH0 PUSH1 0x20 DUP3 ADD SWAP1 POP DUP2 DUP2 SUB PUSH0 DUP4 ADD MSTORE PUSH2 0x1835 DUP2 PUSH2 0x17FC JUMP JUMPDEST SWAP1 POP SWAP2 SWAP1 POP JUMP JUMPDEST PUSH32 0x66726F6D20213D206F776E657200000000000000000000000000000000000000 PUSH0 DUP3 ADD MSTORE POP JUMP JUMPDEST PUSH0 PUSH2 0x1870 PUSH1 0xD DUP4 PUSH2 0x175C JUMP JUMPDEST SWAP2 POP PUSH2 0x187B DUP3 PUSH2 0x183C JUMP JUMPDEST PUSH1 0x20 DUP3 ADD SWAP1 POP SWAP2 SWAP1 POP JUMP JUMPDEST PUSH0 PUSH1 0x20 DUP3 ADD SWAP1 POP DUP2 DUP2 SUB PUSH0 DUP4 ADD MSTORE PUSH2 0x189D DUP2 PUSH2 0x1864 JUMP JUMPDEST SWAP1 POP SWAP2 SWAP1 POP JUMP JUMPDEST PUSH32 0x7472616E7366657220746F207A65726F20616464726573730000000000000000 PUSH0 DUP3 ADD MSTORE POP JUMP JUMPDEST PUSH0 PUSH2 0x18D8 PUSH1 0x18 DUP4 PUSH2 0x175C JUMP JUMPDEST SWAP2 POP PUSH2 0x18E3 DUP3 PUSH2 0x18A4 JUMP JUMPDEST PUSH1 0x20 DUP3 ADD SWAP1 POP SWAP2 SWAP1 POP JUMP JUMPDEST PUSH0 PUSH1 0x20 DUP3 ADD SWAP1 POP DUP2 DUP2 SUB PUSH0 DUP4 ADD MSTORE PUSH2 0x1905 DUP2 PUSH2 0x18CC JUMP JUMPDEST SWAP1 POP SWAP2 SWAP1 POP JUMP JUMPDEST PUSH32 0x4E487B7100000000000000000000000000000000000000000000000000000000 PUSH0 MSTORE PUSH1 0x11 PUSH1 0x4 MSTORE PUSH1 0x24 PUSH0 REVERT JUMPDEST PUSH0 PUSH2 0x1943 DUP3 PUSH2 0x1410 JUMP JUMPDEST SWAP2 POP PUSH0 DUP3 SUB PUSH2 0x1955 JUMPI PUSH2 0x1954 PUSH2 0x190C JUMP JUMPDEST JUMPDEST PUSH1 0x1 DUP3 SUB SWAP1 POP SWAP2 SWAP1 POP JUMP JUMPDEST PUSH0 PUSH2 0x196A DUP3 PUSH2 0x1410 JUMP JUMPDEST SWAP2 POP PUSH32 0xFFFFFFFFFFFFFFFFFFFFFFFFFFFFFFFFFFFFFFFFFFFFFFFFFFFFFFFFFFFFFFFF DUP3 SUB PUSH2 0x199C JUMPI PUSH2 0x199B PUSH2 0x190C JUMP JUMPDEST JUMPDEST PUSH1 0x1 DUP3 ADD SWAP1 POP SWAP2 SWAP1 POP JUMP JUMPDEST PUSH0 DUP3 DUP3 MSTORE PUSH1 0x20 DUP3 ADD SWAP1 POP SWAP3 SWAP2 POP POP JUMP JUMPDEST POP JUMP JUMPDEST PUSH0 PUSH2 0x19C5 PUSH0 DUP4 PUSH2 0x19A7 JUMP JUMPDEST SWAP2 POP PUSH2 0x19D0 DUP3 PUSH2 0x19B7 JUMP JUMPDEST PUSH0 DUP3 ADD SWAP1 POP SWAP2 SWAP1 POP JUMP JUMPDEST PUSH0 PUSH1 0x80 DUP3 ADD SWAP1 POP PUSH2 0x19ED PUSH0 DUP4 ADD DUP7 PUSH2 0x149E JUMP JUMPDEST PUSH2 0x19FA PUSH1 0x20 DUP4 ADD DUP6 PUSH2 0x149E JUMP JUMPDEST PUSH2 0x1A07 PUSH1 0x40 DUP4 ADD DUP5 PUSH2 0x15A9 JUMP JUMPDEST DUP2 DUP2 SUB PUSH1 0x60 DUP4 ADD MSTORE PUSH2 0x1A18 DUP2 PUSH2 0x19BA JUMP JUMPDEST SWAP1 POP SWAP5 SWAP4 POP POP POP POP JUMP JUMPDEST PUSH0 DUP2 MLOAD SWAP1 POP PUSH2 0x1A30 DUP2 PUSH2 0x1388 JUMP JUMPDEST SWAP3 SWAP2 POP POP JUMP JUMPDEST PUSH0 PUSH1 0x20 DUP3 DUP5 SUB SLT ISZERO PUSH2 0x1A4B JUMPI PUSH2 0x1A4A PUSH2 0x1355 JUMP JUMPDEST JUMPDEST PUSH0 PUSH2 0x1A58 DUP5 DUP3 DUP6 ADD PUSH2 0x1A22 JUMP JUMPDEST SWAP2 POP POP SWAP3 SWAP2 POP POP JUMP JUMPDEST PUSH32 0x756E7361666520726563697069656E7400000000000000000000000000000000 PUSH0 DUP3 ADD MSTORE POP JUMP JUMPDEST PUSH0 PUSH2 0x1A95 PUSH1 0x10 DUP4 PUSH2 0x175C JUMP JUMPDEST SWAP2 POP PUSH2 0x1AA0 DUP3 PUSH2 0x1A61 JUMP JUMPDEST PUSH1 0x20 DUP3 ADD SWAP1 POP SWAP2 SWAP1 POP JUMP JUMPDEST PUSH0 PUSH1 0x20 DUP3 ADD SWAP1 POP DUP2 DUP2 SUB PUSH0 DUP4 ADD MSTORE PUSH2 0x1AC2 DUP2 PUSH2 0x1A89 JUMP JUMPDEST SWAP1 POP SWAP2 SWAP1 POP JUMP JUMPDEST PUSH32 0x6E6F74206F776E65720000000000000000000000000000000000000000000000 PUSH0 DUP3 ADD MSTORE POP JUMP JUMPDEST PUSH0 PUSH2 0x1AFD PUSH1 0x9 DUP4 PUSH2 0x175C JUMP JUMPDEST SWAP2 POP PUSH2 0x1B08 DUP3 PUSH2 0x1AC9 JUMP JUMPDEST PUSH1 0x20 DUP3 ADD SWAP1 POP SWAP2 SWAP1 POP JUMP JUMPDEST PUSH0 PUSH1 0x20 DUP3 ADD SWAP1 POP DUP2 DUP2 SUB PUSH0 DUP4 ADD MSTORE PUSH2 0x1B2A DUP2 PUSH2 0x1AF1 JUMP JUMPDEST SWAP1 POP SWAP2 SWAP1 POP JUMP JUMPDEST PUSH32 0x6F776E6572203D207A65726F2061646472657373000000000000000000000000 PUSH0 DUP3 ADD MSTORE POP JUMP JUMPDEST PUSH0 PUSH2 0x1B65 PUSH1 0x14 DUP4 PUSH2 0x175C JUMP JUMPDEST SWAP2 POP PUSH2 0x1B70 DUP3 PUSH2 0x1B31 JUMP JUMPDEST PUSH1 0x20 DUP3 ADD SWAP1 POP SWAP2 SWAP1 POP JUMP JUMPDEST PUSH0 PUSH1 0x20 DUP3 ADD SWAP1 POP DUP2 DUP2 SUB PUSH0 DUP4 ADD MSTORE PUSH2 0x1B92 DUP2 PUSH2 0x1B59 JUMP JUMPDEST SWAP1 POP SWAP2 SWAP1 POP JUMP JUMPDEST DUP3 DUP2 DUP4 CALLDATACOPY PUSH0 DUP4 DUP4 ADD MSTORE POP POP POP JUMP JUMPDEST PUSH0 PUSH1 0x1F NOT PUSH1 0x1F DUP4 ADD AND SWAP1 POP SWAP2 SWAP1 POP JUMP JUMPDEST PUSH0 PUSH2 0x1BC2 DUP4 DUP6 PUSH2 0x19A7 JUMP JUMPDEST SWAP4 POP PUSH2 0x1BCF DUP4 DUP6 DUP5 PUSH2 0x1B99 JUMP JUMPDEST PUSH2 0x1BD8 DUP4 PUSH2 0x1BA7 JUMP JUMPDEST DUP5 ADD SWAP1 POP SWAP4 SWAP3 POP POP POP JUMP JUMPDEST PUSH0 PUSH1 0x80 DUP3 ADD SWAP1 POP PUSH2 0x1BF6 PUSH0 DUP4 ADD DUP9 PUSH2 0x149E JUMP JUMPDEST PUSH2 0x1C03 PUSH1 0x20 DUP4 ADD DUP8 PUSH2 0x149E JUMP JUMPDEST PUSH2 0x1C10 PUSH1 0x40 DUP4 ADD DUP7 PUSH2 0x15A9 JUMP JUMPDEST DUP2 DUP2 SUB PUSH1 0x60 DUP4 ADD MSTORE PUSH2 0x1C23 DUP2 DUP5 DUP7 PUSH2 0x1BB7 JUMP JUMPDEST SWAP1 POP SWAP7 SWAP6 POP POP POP POP POP POP JUMP JUMPDEST PUSH32 0x6D696E7420746F207A65726F2061646472657373000000000000000000000000 PUSH0 DUP3 ADD MSTORE POP JUMP JUMPDEST PUSH0 PUSH2 0x1C63 PUSH1 0x14 DUP4 PUSH2 0x175C JUMP JUMPDEST SWAP2 POP PUSH2 0x1C6E DUP3 PUSH2 0x1C2F JUMP JUMPDEST PUSH1 0x20 DUP3 ADD SWAP1 POP SWAP2 SWAP1 POP JUMP JUMPDEST PUSH0 PUSH1 0x20 DUP3 ADD SWAP1 POP DUP2 DUP2 SUB PUSH0 DUP4 ADD MSTORE PUSH2 0x1C90 DUP2 PUSH2 0x1C57 JUMP JUMPDEST SWAP1 POP SWAP2 SWAP1 POP JUMP JUMPDEST PUSH32 0x616C7265616479206D696E746564000000000000000000000000000000000000 PUSH0 DUP3 ADD MSTORE POP JUMP JUMPDEST PUSH0 PUSH2 0x1CCB PUSH1 0xE DUP4 PUSH2 0x175C JUMP JUMPDEST SWAP2 POP PUSH2 0x1CD6 DUP3 PUSH2 0x1C97 JUMP JUMPDEST PUSH1 0x20 DUP3 ADD SWAP1 POP SWAP2 SWAP1 POP JUMP JUMPDEST PUSH0 PUSH1 0x20 DUP3 ADD SWAP1 POP DUP2 DUP2 SUB PUSH0 DUP4 ADD MSTORE PUSH2 0x1CF8 DUP2 PUSH2 0x1CBF JUMP JUMPDEST SWAP1 POP SWAP2 SWAP1 POP JUMP JUMPDEST PUSH32 0x6E6F74206D696E74656400000000000000000000000000000000000000000000 PUSH0 DUP3 ADD MSTORE POP JUMP JUMPDEST PUSH0 PUSH2 0x1D33 PUSH1 0xA DUP4 PUSH2 0x175C JUMP JUMPDEST SWAP2 POP PUSH2 0x1D3E DUP3 PUSH2 0x1CFF JUMP JUMPDEST PUSH1 0x20 DUP3 ADD SWAP1 POP SWAP2 SWAP1 POP JUMP JUMPDEST PUSH0 PUSH1 0x20 DUP3 ADD SWAP1 POP DUP2 DUP2 SUB PUSH0 DUP4 ADD MSTORE PUSH2 0x1D60 DUP2 PUSH2 0x1D27 JUMP JUMPDEST SWAP1 POP SWAP2 SWAP1 POP JUMP JUMPDEST PUSH0 PUSH2 0x1D71 DUP3 PUSH2 0x1410 JUMP JUMPDEST SWAP2 POP PUSH2 0x1D7C DUP4 PUSH2 0x1410 JUMP JUMPDEST SWAP3 POP DUP3 DUP3 SUB SWAP1 POP DUP2 DUP2 GT ISZERO PUSH2 0x1D94 JUMPI PUSH2 0x1D93 PUSH2 0x190C JUMP JUMPDEST JUMPDEST SWAP3 SWAP2 POP POP JUMP INVALID LOG2 PUSH5 0x6970667358 0x22 SLT KECCAK256 PUSH0 SHL 0xC6 0xE2 SWAP1 0x1E 0x22 0xE7 TIMESTAMP 0xED LT 0xB7 0xB5 SWAP8 0xE2 0xD4 JUMP PUSH31 0x7F9266C5C0EE506777039B26BBD764736F6C63430008170033000000000000 "
				},
				"gasEstimates": {
					"creation": {
						"codeDepositCost": "1526400",
						"executionCost": "1594",
						"totalCost": "1527994"
					},
					"external": {
						"approve(address,uint256)": "31519",
						"balanceOf(address)": "2908",
						"burn(uint256)": "infinite",
						"getApproved(uint256)": "5121",
						"isApprovedForAll(address,address)": "infinite",
						"mint(address,uint256)": "infinite",
						"ownerOf(uint256)": "2960",
						"safeTransferFrom(address,address,uint256)": "infinite",
						"safeTransferFrom(address,address,uint256,bytes)": "infinite",
						"setApprovalForAll(address,bool)": "infinite",
						"supportsInterface(bytes4)": "676",
						"transferFrom(address,address,uint256)": "infinite"
					}
				},
				"methodIdentifiers": {
					"approve(address,uint256)": "095ea7b3",
					"balanceOf(address)": "70a08231",
					"burn(uint256)": "42966c68",
					"getApproved(uint256)": "081812fc",
					"isApprovedForAll(address,address)": "e985e9c5",
					"mint(address,uint256)": "40c10f19",
					"ownerOf(uint256)": "6352211e",
					"safeTransferFrom(address,address,uint256)": "42842e0e",
					"safeTransferFrom(address,address,uint256,bytes)": "b88d4fde",
					"setApprovalForAll(address,bool)": "a22cb465",
					"supportsInterface(bytes4)": "01ffc9a7",
					"transferFrom(address,address,uint256)": "23b872dd"
				}
			},
			"storageLayout": {
				"storage": [
					{
						"astId": 129,
						"contract": "contracts/MyNFT.sol:MyNFT",
						"label": "_ownerOf",
						"offset": 0,
						"slot": "0",
						"type": "t_mapping(t_uint256,t_address)"
					},
					{
						"astId": 133,
						"contract": "contracts/MyNFT.sol:MyNFT",
						"label": "_balanceOf",
						"offset": 0,
						"slot": "1",
						"type": "t_mapping(t_address,t_uint256)"
					},
					{
						"astId": 137,
						"contract": "contracts/MyNFT.sol:MyNFT",
						"label": "_approvals",
						"offset": 0,
						"slot": "2",
						"type": "t_mapping(t_uint256,t_address)"
					},
					{
						"astId": 143,
						"contract": "contracts/MyNFT.sol:MyNFT",
						"label": "isApprovedForAll",
						"offset": 0,
						"slot": "3",
						"type": "t_mapping(t_address,t_mapping(t_address,t_bool))"
					}
				],
				"types": {
					"t_address": {
						"encoding": "inplace",
						"label": "address",
						"numberOfBytes": "20"
					},
					"t_bool": {
						"encoding": "inplace",
						"label": "bool",
						"numberOfBytes": "1"
					},
					"t_mapping(t_address,t_bool)": {
						"encoding": "mapping",
						"key": "t_address",
						"label": "mapping(address => bool)",
						"numberOfBytes": "32",
						"value": "t_bool"
					},
					"t_mapping(t_address,t_mapping(t_address,t_bool))": {
						"encoding": "mapping",
						"key": "t_address",
						"label": "mapping(address => mapping(address => bool))",
						"numberOfBytes": "32",
						"value": "t_mapping(t_address,t_bool)"
					},
					"t_mapping(t_address,t_uint256)": {
						"encoding": "mapping",
						"key": "t_address",
						"label": "mapping(address => uint256)",
						"numberOfBytes": "32",
						"value": "t_uint256"
					},
					"t_mapping(t_uint256,t_address)": {
						"encoding": "mapping",
						"key": "t_uint256",
						"label": "mapping(uint256 => address)",
						"numberOfBytes": "32",
						"value": "t_address"
					},
					"t_uint256": {
						"encoding": "inplace",
						"label": "uint256",
						"numberOfBytes": "32"
					}
				}
			},
			"userdoc": {
				"kind": "user",
				"methods": {},
				"version": 1
			}
		}
	}
}