{
	"contracts/ArrayReplaceShift.sol": {
		"ArrayReplaceShift": {
			"abi": [
				{
					"inputs": [
						{
							"internalType": "uint256[]",
							"name": "arr",
							"type": "uint256[]"
						},
						{
							"internalType": "uint256",
							"name": "_index",
							"type": "uint256"
						}
					],
					"name": "efficientRemove",
					"outputs": [
						{
							"internalType": "uint256[]",
							"name": "",
							"type": "uint256[]"
						}
					],
					"stateMutability": "pure",
					"type": "function"
				}
			],
			"devdoc": {
				"kind": "dev",
				"methods": {},
				"version": 1
			},
			"evm": {
				"assembly": "    /* \"contracts/ArrayReplaceShift.sol\":456:1344  contract ArrayReplaceShift {... */\n  mstore(0x40, 0x80)\n  callvalue\n  dup1\n  iszero\n  tag_1\n  jumpi\n  0x00\n  dup1\n  revert\ntag_1:\n  pop\n  dataSize(sub_0)\n  dup1\n  dataOffset(sub_0)\n  0x00\n  codecopy\n  0x00\n  return\nstop\n\nsub_0: assembly {\n        /* \"contracts/ArrayReplaceShift.sol\":456:1344  contract ArrayReplaceShift {... */\n      mstore(0x40, 0x80)\n      callvalue\n      dup1\n      iszero\n      tag_1\n      jumpi\n      0x00\n      dup1\n      revert\n    tag_1:\n      pop\n      jumpi(tag_2, lt(calldatasize, 0x04))\n      shr(0xe0, calldataload(0x00))\n      dup1\n      0xaebeb4fa\n      eq\n      tag_3\n      jumpi\n    tag_2:\n      0x00\n      dup1\n      revert\n        /* \"contracts/ArrayReplaceShift.sol\":489:1342  function efficientRemove(... */\n    tag_3:\n      tag_4\n      0x04\n      dup1\n      calldatasize\n      sub\n      dup2\n      add\n      swap1\n      tag_5\n      swap2\n      swap1\n      tag_6\n      jump\t// in\n    tag_5:\n      tag_7\n      jump\t// in\n    tag_4:\n      mload(0x40)\n      tag_8\n      swap2\n      swap1\n      tag_9\n      jump\t// in\n    tag_8:\n      mload(0x40)\n      dup1\n      swap2\n      sub\n      swap1\n      return\n    tag_7:\n        /* \"contracts/ArrayReplaceShift.sol\":589:602  uint[] memory */\n      0x60\n        /* \"contracts/ArrayReplaceShift.sol\":635:636  0 */\n      0x00\n        /* \"contracts/ArrayReplaceShift.sol\":622:625  arr */\n      dup4\n        /* \"contracts/ArrayReplaceShift.sol\":622:632  arr.length */\n      mload\n        /* \"contracts/ArrayReplaceShift.sol\":622:636  arr.length > 0 */\n      gt\n        /* \"contracts/ArrayReplaceShift.sol\":614:659  require(arr.length > 0, \"array is not empty\") */\n      tag_11\n      jumpi\n      mload(0x40)\n      0x08c379a000000000000000000000000000000000000000000000000000000000\n      dup2\n      mstore\n      0x04\n      add\n      tag_12\n      swap1\n      tag_13\n      jump\t// in\n    tag_12:\n      mload(0x40)\n      dup1\n      swap2\n      sub\n      swap1\n      revert\n    tag_11:\n        /* \"contracts/ArrayReplaceShift.sol\":711:712  1 */\n      0x01\n        /* \"contracts/ArrayReplaceShift.sol\":698:701  arr */\n      dup4\n        /* \"contracts/ArrayReplaceShift.sol\":698:708  arr.length */\n      mload\n        /* \"contracts/ArrayReplaceShift.sol\":698:712  arr.length - 1 */\n      tag_14\n      swap2\n      swap1\n      tag_15\n      jump\t// in\n    tag_14:\n        /* \"contracts/ArrayReplaceShift.sol\":688:694  _index */\n      dup3\n        /* \"contracts/ArrayReplaceShift.sol\":688:712  _index <= arr.length - 1 */\n      gt\n      iszero\n        /* \"contracts/ArrayReplaceShift.sol\":680:730  require(_index <= arr.length - 1, \"out of bounds\") */\n      tag_16\n      jumpi\n      mload(0x40)\n      0x08c379a000000000000000000000000000000000000000000000000000000000\n      dup2\n      mstore\n      0x04\n      add\n      tag_17\n      swap1\n      tag_18\n      jump\t// in\n    tag_17:\n      mload(0x40)\n      dup1\n      swap2\n      sub\n      swap1\n      revert\n    tag_16:\n        /* \"contracts/ArrayReplaceShift.sol\":741:761  uint[] memory newArr */\n      0x00\n        /* \"contracts/ArrayReplaceShift.sol\":788:789  1 */\n      0x01\n        /* \"contracts/ArrayReplaceShift.sol\":775:778  arr */\n      dup5\n        /* \"contracts/ArrayReplaceShift.sol\":775:785  arr.length */\n      mload\n        /* \"contracts/ArrayReplaceShift.sol\":775:789  arr.length - 1 */\n      tag_19\n      swap2\n      swap1\n      tag_15\n      jump\t// in\n    tag_19:\n        /* \"contracts/ArrayReplaceShift.sol\":764:790  new uint[](arr.length - 1) */\n      0xffffffffffffffff\n      dup2\n      gt\n      iszero\n      tag_20\n      jumpi\n      tag_21\n      tag_22\n      jump\t// in\n    tag_21:\n    tag_20:\n      mload(0x40)\n      swap1\n      dup1\n      dup3\n      mstore\n      dup1\n      0x20\n      mul\n      0x20\n      add\n      dup3\n      add\n      0x40\n      mstore\n      dup1\n      iszero\n      tag_23\n      jumpi\n      dup2\n      0x20\n      add\n      0x20\n      dup3\n      mul\n      dup1\n      calldatasize\n      dup4\n      calldatacopy\n      dup1\n      dup3\n      add\n      swap2\n      pop\n      pop\n      swap1\n      pop\n    tag_23:\n      pop\n        /* \"contracts/ArrayReplaceShift.sol\":741:790  uint[] memory newArr = new uint[](arr.length - 1) */\n      swap1\n      pop\n        /* \"contracts/ArrayReplaceShift.sol\":1013:1019  uint i */\n      0x00\n        /* \"contracts/ArrayReplaceShift.sol\":1008:1085  for (uint i = 0; i < _index; i++) {... */\n    tag_24:\n        /* \"contracts/ArrayReplaceShift.sol\":1029:1035  _index */\n      dup4\n        /* \"contracts/ArrayReplaceShift.sol\":1025:1026  i */\n      dup2\n        /* \"contracts/ArrayReplaceShift.sol\":1025:1035  i < _index */\n      lt\n        /* \"contracts/ArrayReplaceShift.sol\":1008:1085  for (uint i = 0; i < _index; i++) {... */\n      iszero\n      tag_25\n      jumpi\n        /* \"contracts/ArrayReplaceShift.sol\":1068:1071  arr */\n      dup5\n        /* \"contracts/ArrayReplaceShift.sol\":1072:1073  i */\n      dup2\n        /* \"contracts/ArrayReplaceShift.sol\":1068:1074  arr[i] */\n      dup2\n      mload\n      dup2\n      lt\n      tag_27\n      jumpi\n      tag_28\n      tag_29\n      jump\t// in\n    tag_28:\n    tag_27:\n      0x20\n      mul\n      0x20\n      add\n      add\n      mload\n        /* \"contracts/ArrayReplaceShift.sol\":1056:1062  newArr */\n      dup3\n        /* \"contracts/ArrayReplaceShift.sol\":1063:1064  i */\n      dup3\n        /* \"contracts/ArrayReplaceShift.sol\":1056:1065  newArr[i] */\n      dup2\n      mload\n      dup2\n      lt\n      tag_30\n      jumpi\n      tag_31\n      tag_29\n      jump\t// in\n    tag_31:\n    tag_30:\n      0x20\n      mul\n      0x20\n      add\n      add\n        /* \"contracts/ArrayReplaceShift.sol\":1056:1074  newArr[i] = arr[i] */\n      dup2\n      dup2\n      mstore\n      pop\n      pop\n        /* \"contracts/ArrayReplaceShift.sol\":1037:1040  i++ */\n      dup1\n      dup1\n      tag_32\n      swap1\n      tag_33\n      jump\t// in\n    tag_32:\n      swap2\n      pop\n      pop\n        /* \"contracts/ArrayReplaceShift.sol\":1008:1085  for (uint i = 0; i < _index; i++) {... */\n      jump(tag_24)\n    tag_25:\n      pop\n        /* \"contracts/ArrayReplaceShift.sol\":1224:1230  uint i */\n      0x00\n        /* \"contracts/ArrayReplaceShift.sol\":1233:1239  _index */\n      dup4\n        /* \"contracts/ArrayReplaceShift.sol\":1224:1239  uint i = _index */\n      swap1\n      pop\n        /* \"contracts/ArrayReplaceShift.sol\":1219:1312  for (uint i = _index; i < newArr.length; i++) {... */\n    tag_34:\n        /* \"contracts/ArrayReplaceShift.sol\":1245:1251  newArr */\n      dup2\n        /* \"contracts/ArrayReplaceShift.sol\":1245:1258  newArr.length */\n      mload\n        /* \"contracts/ArrayReplaceShift.sol\":1241:1242  i */\n      dup2\n        /* \"contracts/ArrayReplaceShift.sol\":1241:1258  i < newArr.length */\n      lt\n        /* \"contracts/ArrayReplaceShift.sol\":1219:1312  for (uint i = _index; i < newArr.length; i++) {... */\n      iszero\n      tag_35\n      jumpi\n        /* \"contracts/ArrayReplaceShift.sol\":1291:1294  arr */\n      dup5\n        /* \"contracts/ArrayReplaceShift.sol\":1299:1300  1 */\n      0x01\n        /* \"contracts/ArrayReplaceShift.sol\":1295:1296  i */\n      dup3\n        /* \"contracts/ArrayReplaceShift.sol\":1295:1300  i + 1 */\n      tag_37\n      swap2\n      swap1\n      tag_38\n      jump\t// in\n    tag_37:\n        /* \"contracts/ArrayReplaceShift.sol\":1291:1301  arr[i + 1] */\n      dup2\n      mload\n      dup2\n      lt\n      tag_39\n      jumpi\n      tag_40\n      tag_29\n      jump\t// in\n    tag_40:\n    tag_39:\n      0x20\n      mul\n      0x20\n      add\n      add\n      mload\n        /* \"contracts/ArrayReplaceShift.sol\":1279:1285  newArr */\n      dup3\n        /* \"contracts/ArrayReplaceShift.sol\":1286:1287  i */\n      dup3\n        /* \"contracts/ArrayReplaceShift.sol\":1279:1288  newArr[i] */\n      dup2\n      mload\n      dup2\n      lt\n      tag_41\n      jumpi\n      tag_42\n      tag_29\n      jump\t// in\n    tag_42:\n    tag_41:\n      0x20\n      mul\n      0x20\n      add\n      add\n        /* \"contracts/ArrayReplaceShift.sol\":1279:1301  newArr[i] = arr[i + 1] */\n      dup2\n      dup2\n      mstore\n      pop\n      pop\n        /* \"contracts/ArrayReplaceShift.sol\":1260:1263  i++ */\n      dup1\n      dup1\n      tag_43\n      swap1\n      tag_33\n      jump\t// in\n    tag_43:\n      swap2\n      pop\n      pop\n        /* \"contracts/ArrayReplaceShift.sol\":1219:1312  for (uint i = _index; i < newArr.length; i++) {... */\n      jump(tag_34)\n    tag_35:\n      pop\n        /* \"contracts/ArrayReplaceShift.sol\":1329:1335  newArr */\n      dup1\n        /* \"contracts/ArrayReplaceShift.sol\":1322:1335  return newArr */\n      swap2\n      pop\n      pop\n        /* \"contracts/ArrayReplaceShift.sol\":489:1342  function efficientRemove(... */\n      swap3\n      swap2\n      pop\n      pop\n      jump\t// out\n        /* \"#utility.yul\":24:746   */\n    tag_45:\n        /* \"#utility.yul\":120:125   */\n      0x00\n        /* \"#utility.yul\":145:226   */\n      tag_47\n        /* \"#utility.yul\":161:225   */\n      tag_48\n        /* \"#utility.yul\":218:224   */\n      dup5\n        /* \"#utility.yul\":161:225   */\n      tag_49\n      jump\t// in\n    tag_48:\n        /* \"#utility.yul\":145:226   */\n      tag_50\n      jump\t// in\n    tag_47:\n        /* \"#utility.yul\":136:226   */\n      swap1\n      pop\n        /* \"#utility.yul\":246:251   */\n      dup1\n        /* \"#utility.yul\":275:281   */\n      dup4\n        /* \"#utility.yul\":268:273   */\n      dup3\n        /* \"#utility.yul\":261:282   */\n      mstore\n        /* \"#utility.yul\":309:313   */\n      0x20\n        /* \"#utility.yul\":302:307   */\n      dup3\n        /* \"#utility.yul\":298:314   */\n      add\n        /* \"#utility.yul\":291:314   */\n      swap1\n      pop\n        /* \"#utility.yul\":335:341   */\n      dup3\n        /* \"#utility.yul\":385:388   */\n      dup6\n        /* \"#utility.yul\":377:381   */\n      0x20\n        /* \"#utility.yul\":369:375   */\n      dup7\n        /* \"#utility.yul\":365:382   */\n      mul\n        /* \"#utility.yul\":360:363   */\n      dup3\n        /* \"#utility.yul\":356:383   */\n      add\n        /* \"#utility.yul\":353:389   */\n      gt\n        /* \"#utility.yul\":350:493   */\n      iszero\n      tag_51\n      jumpi\n        /* \"#utility.yul\":404:483   */\n      tag_52\n      tag_53\n      jump\t// in\n    tag_52:\n        /* \"#utility.yul\":350:493   */\n    tag_51:\n        /* \"#utility.yul\":517:518   */\n      0x00\n        /* \"#utility.yul\":502:740   */\n    tag_54:\n        /* \"#utility.yul\":527:533   */\n      dup6\n        /* \"#utility.yul\":524:525   */\n      dup2\n        /* \"#utility.yul\":521:534   */\n      lt\n        /* \"#utility.yul\":502:740   */\n      iszero\n      tag_56\n      jumpi\n        /* \"#utility.yul\":595:598   */\n      dup2\n        /* \"#utility.yul\":624:661   */\n      tag_57\n        /* \"#utility.yul\":657:660   */\n      dup9\n        /* \"#utility.yul\":645:655   */\n      dup3\n        /* \"#utility.yul\":624:661   */\n      tag_58\n      jump\t// in\n    tag_57:\n        /* \"#utility.yul\":619:622   */\n      dup5\n        /* \"#utility.yul\":612:662   */\n      mstore\n        /* \"#utility.yul\":691:695   */\n      0x20\n        /* \"#utility.yul\":686:689   */\n      dup5\n        /* \"#utility.yul\":682:696   */\n      add\n        /* \"#utility.yul\":675:696   */\n      swap4\n      pop\n        /* \"#utility.yul\":725:729   */\n      0x20\n        /* \"#utility.yul\":720:723   */\n      dup4\n        /* \"#utility.yul\":716:730   */\n      add\n        /* \"#utility.yul\":709:730   */\n      swap3\n      pop\n        /* \"#utility.yul\":562:740   */\n      pop\n        /* \"#utility.yul\":549:550   */\n      0x01\n        /* \"#utility.yul\":546:547   */\n      dup2\n        /* \"#utility.yul\":542:551   */\n      add\n        /* \"#utility.yul\":537:551   */\n      swap1\n      pop\n        /* \"#utility.yul\":502:740   */\n      jump(tag_54)\n    tag_56:\n        /* \"#utility.yul\":506:520   */\n      pop\n        /* \"#utility.yul\":126:746   */\n      pop\n      pop\n        /* \"#utility.yul\":24:746   */\n      swap4\n      swap3\n      pop\n      pop\n      pop\n      jump\t// out\n        /* \"#utility.yul\":769:1139   */\n    tag_59:\n        /* \"#utility.yul\":840:845   */\n      0x00\n        /* \"#utility.yul\":889:892   */\n      dup3\n        /* \"#utility.yul\":882:886   */\n      0x1f\n        /* \"#utility.yul\":874:880   */\n      dup4\n        /* \"#utility.yul\":870:887   */\n      add\n        /* \"#utility.yul\":866:893   */\n      slt\n        /* \"#utility.yul\":856:978   */\n      tag_61\n      jumpi\n        /* \"#utility.yul\":897:976   */\n      tag_62\n      tag_63\n      jump\t// in\n    tag_62:\n        /* \"#utility.yul\":856:978   */\n    tag_61:\n        /* \"#utility.yul\":1014:1020   */\n      dup2\n        /* \"#utility.yul\":1001:1021   */\n      calldataload\n        /* \"#utility.yul\":1039:1133   */\n      tag_64\n        /* \"#utility.yul\":1129:1132   */\n      dup5\n        /* \"#utility.yul\":1121:1127   */\n      dup3\n        /* \"#utility.yul\":1114:1118   */\n      0x20\n        /* \"#utility.yul\":1106:1112   */\n      dup7\n        /* \"#utility.yul\":1102:1119   */\n      add\n        /* \"#utility.yul\":1039:1133   */\n      tag_45\n      jump\t// in\n    tag_64:\n        /* \"#utility.yul\":1030:1133   */\n      swap2\n      pop\n        /* \"#utility.yul\":846:1139   */\n      pop\n        /* \"#utility.yul\":769:1139   */\n      swap3\n      swap2\n      pop\n      pop\n      jump\t// out\n        /* \"#utility.yul\":1145:1284   */\n    tag_58:\n        /* \"#utility.yul\":1191:1196   */\n      0x00\n        /* \"#utility.yul\":1229:1235   */\n      dup2\n        /* \"#utility.yul\":1216:1236   */\n      calldataload\n        /* \"#utility.yul\":1207:1236   */\n      swap1\n      pop\n        /* \"#utility.yul\":1245:1278   */\n      tag_66\n        /* \"#utility.yul\":1272:1277   */\n      dup2\n        /* \"#utility.yul\":1245:1278   */\n      tag_67\n      jump\t// in\n    tag_66:\n        /* \"#utility.yul\":1145:1284   */\n      swap3\n      swap2\n      pop\n      pop\n      jump\t// out\n        /* \"#utility.yul\":1290:1974   */\n    tag_6:\n        /* \"#utility.yul\":1383:1389   */\n      0x00\n        /* \"#utility.yul\":1391:1397   */\n      dup1\n        /* \"#utility.yul\":1440:1442   */\n      0x40\n        /* \"#utility.yul\":1428:1437   */\n      dup4\n        /* \"#utility.yul\":1419:1426   */\n      dup6\n        /* \"#utility.yul\":1415:1438   */\n      sub\n        /* \"#utility.yul\":1411:1443   */\n      slt\n        /* \"#utility.yul\":1408:1527   */\n      iszero\n      tag_69\n      jumpi\n        /* \"#utility.yul\":1446:1525   */\n      tag_70\n      tag_71\n      jump\t// in\n    tag_70:\n        /* \"#utility.yul\":1408:1527   */\n    tag_69:\n        /* \"#utility.yul\":1594:1595   */\n      0x00\n        /* \"#utility.yul\":1583:1592   */\n      dup4\n        /* \"#utility.yul\":1579:1596   */\n      add\n        /* \"#utility.yul\":1566:1597   */\n      calldataload\n        /* \"#utility.yul\":1624:1642   */\n      0xffffffffffffffff\n        /* \"#utility.yul\":1616:1622   */\n      dup2\n        /* \"#utility.yul\":1613:1643   */\n      gt\n        /* \"#utility.yul\":1610:1727   */\n      iszero\n      tag_72\n      jumpi\n        /* \"#utility.yul\":1646:1725   */\n      tag_73\n      tag_74\n      jump\t// in\n    tag_73:\n        /* \"#utility.yul\":1610:1727   */\n    tag_72:\n        /* \"#utility.yul\":1751:1829   */\n      tag_75\n        /* \"#utility.yul\":1821:1828   */\n      dup6\n        /* \"#utility.yul\":1812:1818   */\n      dup3\n        /* \"#utility.yul\":1801:1810   */\n      dup7\n        /* \"#utility.yul\":1797:1819   */\n      add\n        /* \"#utility.yul\":1751:1829   */\n      tag_59\n      jump\t// in\n    tag_75:\n        /* \"#utility.yul\":1741:1829   */\n      swap3\n      pop\n        /* \"#utility.yul\":1537:1839   */\n      pop\n        /* \"#utility.yul\":1878:1880   */\n      0x20\n        /* \"#utility.yul\":1904:1957   */\n      tag_76\n        /* \"#utility.yul\":1949:1956   */\n      dup6\n        /* \"#utility.yul\":1940:1946   */\n      dup3\n        /* \"#utility.yul\":1929:1938   */\n      dup7\n        /* \"#utility.yul\":1925:1947   */\n      add\n        /* \"#utility.yul\":1904:1957   */\n      tag_58\n      jump\t// in\n    tag_76:\n        /* \"#utility.yul\":1894:1957   */\n      swap2\n      pop\n        /* \"#utility.yul\":1849:1967   */\n      pop\n        /* \"#utility.yul\":1290:1974   */\n      swap3\n      pop\n      swap3\n      swap1\n      pop\n      jump\t// out\n        /* \"#utility.yul\":1980:2159   */\n    tag_77:\n        /* \"#utility.yul\":2049:2059   */\n      0x00\n        /* \"#utility.yul\":2070:2116   */\n      tag_79\n        /* \"#utility.yul\":2112:2115   */\n      dup4\n        /* \"#utility.yul\":2104:2110   */\n      dup4\n        /* \"#utility.yul\":2070:2116   */\n      tag_80\n      jump\t// in\n    tag_79:\n        /* \"#utility.yul\":2148:2152   */\n      0x20\n        /* \"#utility.yul\":2143:2146   */\n      dup4\n        /* \"#utility.yul\":2139:2153   */\n      add\n        /* \"#utility.yul\":2125:2153   */\n      swap1\n      pop\n        /* \"#utility.yul\":1980:2159   */\n      swap3\n      swap2\n      pop\n      pop\n      jump\t// out\n        /* \"#utility.yul\":2195:2927   */\n    tag_81:\n        /* \"#utility.yul\":2314:2317   */\n      0x00\n        /* \"#utility.yul\":2343:2397   */\n      tag_83\n        /* \"#utility.yul\":2391:2396   */\n      dup3\n        /* \"#utility.yul\":2343:2397   */\n      tag_84\n      jump\t// in\n    tag_83:\n        /* \"#utility.yul\":2413:2499   */\n      tag_85\n        /* \"#utility.yul\":2492:2498   */\n      dup2\n        /* \"#utility.yul\":2487:2490   */\n      dup6\n        /* \"#utility.yul\":2413:2499   */\n      tag_86\n      jump\t// in\n    tag_85:\n        /* \"#utility.yul\":2406:2499   */\n      swap4\n      pop\n        /* \"#utility.yul\":2523:2579   */\n      tag_87\n        /* \"#utility.yul\":2573:2578   */\n      dup4\n        /* \"#utility.yul\":2523:2579   */\n      tag_88\n      jump\t// in\n    tag_87:\n        /* \"#utility.yul\":2602:2609   */\n      dup1\n        /* \"#utility.yul\":2633:2634   */\n      0x00\n        /* \"#utility.yul\":2618:2902   */\n    tag_89:\n        /* \"#utility.yul\":2643:2649   */\n      dup4\n        /* \"#utility.yul\":2640:2641   */\n      dup2\n        /* \"#utility.yul\":2637:2650   */\n      lt\n        /* \"#utility.yul\":2618:2902   */\n      iszero\n      tag_91\n      jumpi\n        /* \"#utility.yul\":2719:2725   */\n      dup2\n        /* \"#utility.yul\":2713:2726   */\n      mload\n        /* \"#utility.yul\":2746:2809   */\n      tag_92\n        /* \"#utility.yul\":2805:2808   */\n      dup9\n        /* \"#utility.yul\":2790:2803   */\n      dup3\n        /* \"#utility.yul\":2746:2809   */\n      tag_77\n      jump\t// in\n    tag_92:\n        /* \"#utility.yul\":2739:2809   */\n      swap8\n      pop\n        /* \"#utility.yul\":2832:2892   */\n      tag_93\n        /* \"#utility.yul\":2885:2891   */\n      dup4\n        /* \"#utility.yul\":2832:2892   */\n      tag_94\n      jump\t// in\n    tag_93:\n        /* \"#utility.yul\":2822:2892   */\n      swap3\n      pop\n        /* \"#utility.yul\":2678:2902   */\n      pop\n        /* \"#utility.yul\":2665:2666   */\n      0x01\n        /* \"#utility.yul\":2662:2663   */\n      dup2\n        /* \"#utility.yul\":2658:2667   */\n      add\n        /* \"#utility.yul\":2653:2667   */\n      swap1\n      pop\n        /* \"#utility.yul\":2618:2902   */\n      jump(tag_89)\n    tag_91:\n        /* \"#utility.yul\":2622:2636   */\n      pop\n        /* \"#utility.yul\":2918:2921   */\n      dup6\n        /* \"#utility.yul\":2911:2921   */\n      swap4\n      pop\n        /* \"#utility.yul\":2319:2927   */\n      pop\n      pop\n      pop\n        /* \"#utility.yul\":2195:2927   */\n      swap3\n      swap2\n      pop\n      pop\n      jump\t// out\n        /* \"#utility.yul\":2933:3299   */\n    tag_95:\n        /* \"#utility.yul\":3075:3078   */\n      0x00\n        /* \"#utility.yul\":3096:3163   */\n      tag_97\n        /* \"#utility.yul\":3160:3162   */\n      0x12\n        /* \"#utility.yul\":3155:3158   */\n      dup4\n        /* \"#utility.yul\":3096:3163   */\n      tag_98\n      jump\t// in\n    tag_97:\n        /* \"#utility.yul\":3089:3163   */\n      swap2\n      pop\n        /* \"#utility.yul\":3172:3265   */\n      tag_99\n        /* \"#utility.yul\":3261:3264   */\n      dup3\n        /* \"#utility.yul\":3172:3265   */\n      tag_100\n      jump\t// in\n    tag_99:\n        /* \"#utility.yul\":3290:3292   */\n      0x20\n        /* \"#utility.yul\":3285:3288   */\n      dup3\n        /* \"#utility.yul\":3281:3293   */\n      add\n        /* \"#utility.yul\":3274:3293   */\n      swap1\n      pop\n        /* \"#utility.yul\":2933:3299   */\n      swap2\n      swap1\n      pop\n      jump\t// out\n        /* \"#utility.yul\":3305:3671   */\n    tag_101:\n        /* \"#utility.yul\":3447:3450   */\n      0x00\n        /* \"#utility.yul\":3468:3535   */\n      tag_103\n        /* \"#utility.yul\":3532:3534   */\n      0x0d\n        /* \"#utility.yul\":3527:3530   */\n      dup4\n        /* \"#utility.yul\":3468:3535   */\n      tag_98\n      jump\t// in\n    tag_103:\n        /* \"#utility.yul\":3461:3535   */\n      swap2\n      pop\n        /* \"#utility.yul\":3544:3637   */\n      tag_104\n        /* \"#utility.yul\":3633:3636   */\n      dup3\n        /* \"#utility.yul\":3544:3637   */\n      tag_105\n      jump\t// in\n    tag_104:\n        /* \"#utility.yul\":3662:3664   */\n      0x20\n        /* \"#utility.yul\":3657:3660   */\n      dup3\n        /* \"#utility.yul\":3653:3665   */\n      add\n        /* \"#utility.yul\":3646:3665   */\n      swap1\n      pop\n        /* \"#utility.yul\":3305:3671   */\n      swap2\n      swap1\n      pop\n      jump\t// out\n        /* \"#utility.yul\":3677:3785   */\n    tag_80:\n        /* \"#utility.yul\":3754:3778   */\n      tag_107\n        /* \"#utility.yul\":3772:3777   */\n      dup2\n        /* \"#utility.yul\":3754:3778   */\n      tag_108\n      jump\t// in\n    tag_107:\n        /* \"#utility.yul\":3749:3752   */\n      dup3\n        /* \"#utility.yul\":3742:3779   */\n      mstore\n        /* \"#utility.yul\":3677:3785   */\n      pop\n      pop\n      jump\t// out\n        /* \"#utility.yul\":3791:4164   */\n    tag_9:\n        /* \"#utility.yul\":3934:3938   */\n      0x00\n        /* \"#utility.yul\":3972:3974   */\n      0x20\n        /* \"#utility.yul\":3961:3970   */\n      dup3\n        /* \"#utility.yul\":3957:3975   */\n      add\n        /* \"#utility.yul\":3949:3975   */\n      swap1\n      pop\n        /* \"#utility.yul\":4021:4030   */\n      dup2\n        /* \"#utility.yul\":4015:4019   */\n      dup2\n        /* \"#utility.yul\":4011:4031   */\n      sub\n        /* \"#utility.yul\":4007:4008   */\n      0x00\n        /* \"#utility.yul\":3996:4005   */\n      dup4\n        /* \"#utility.yul\":3992:4009   */\n      add\n        /* \"#utility.yul\":3985:4032   */\n      mstore\n        /* \"#utility.yul\":4049:4157   */\n      tag_110\n        /* \"#utility.yul\":4152:4156   */\n      dup2\n        /* \"#utility.yul\":4143:4149   */\n      dup5\n        /* \"#utility.yul\":4049:4157   */\n      tag_81\n      jump\t// in\n    tag_110:\n        /* \"#utility.yul\":4041:4157   */\n      swap1\n      pop\n        /* \"#utility.yul\":3791:4164   */\n      swap3\n      swap2\n      pop\n      pop\n      jump\t// out\n        /* \"#utility.yul\":4170:4589   */\n    tag_13:\n        /* \"#utility.yul\":4336:4340   */\n      0x00\n        /* \"#utility.yul\":4374:4376   */\n      0x20\n        /* \"#utility.yul\":4363:4372   */\n      dup3\n        /* \"#utility.yul\":4359:4377   */\n      add\n        /* \"#utility.yul\":4351:4377   */\n      swap1\n      pop\n        /* \"#utility.yul\":4423:4432   */\n      dup2\n        /* \"#utility.yul\":4417:4421   */\n      dup2\n        /* \"#utility.yul\":4413:4433   */\n      sub\n        /* \"#utility.yul\":4409:4410   */\n      0x00\n        /* \"#utility.yul\":4398:4407   */\n      dup4\n        /* \"#utility.yul\":4394:4411   */\n      add\n        /* \"#utility.yul\":4387:4434   */\n      mstore\n        /* \"#utility.yul\":4451:4582   */\n      tag_112\n        /* \"#utility.yul\":4577:4581   */\n      dup2\n        /* \"#utility.yul\":4451:4582   */\n      tag_95\n      jump\t// in\n    tag_112:\n        /* \"#utility.yul\":4443:4582   */\n      swap1\n      pop\n        /* \"#utility.yul\":4170:4589   */\n      swap2\n      swap1\n      pop\n      jump\t// out\n        /* \"#utility.yul\":4595:5014   */\n    tag_18:\n        /* \"#utility.yul\":4761:4765   */\n      0x00\n        /* \"#utility.yul\":4799:4801   */\n      0x20\n        /* \"#utility.yul\":4788:4797   */\n      dup3\n        /* \"#utility.yul\":4784:4802   */\n      add\n        /* \"#utility.yul\":4776:4802   */\n      swap1\n      pop\n        /* \"#utility.yul\":4848:4857   */\n      dup2\n        /* \"#utility.yul\":4842:4846   */\n      dup2\n        /* \"#utility.yul\":4838:4858   */\n      sub\n        /* \"#utility.yul\":4834:4835   */\n      0x00\n        /* \"#utility.yul\":4823:4832   */\n      dup4\n        /* \"#utility.yul\":4819:4836   */\n      add\n        /* \"#utility.yul\":4812:4859   */\n      mstore\n        /* \"#utility.yul\":4876:5007   */\n      tag_114\n        /* \"#utility.yul\":5002:5006   */\n      dup2\n        /* \"#utility.yul\":4876:5007   */\n      tag_101\n      jump\t// in\n    tag_114:\n        /* \"#utility.yul\":4868:5007   */\n      swap1\n      pop\n        /* \"#utility.yul\":4595:5014   */\n      swap2\n      swap1\n      pop\n      jump\t// out\n        /* \"#utility.yul\":5020:5149   */\n    tag_50:\n        /* \"#utility.yul\":5054:5060   */\n      0x00\n        /* \"#utility.yul\":5081:5101   */\n      tag_116\n      tag_117\n      jump\t// in\n    tag_116:\n        /* \"#utility.yul\":5071:5101   */\n      swap1\n      pop\n        /* \"#utility.yul\":5110:5143   */\n      tag_118\n        /* \"#utility.yul\":5138:5142   */\n      dup3\n        /* \"#utility.yul\":5130:5136   */\n      dup3\n        /* \"#utility.yul\":5110:5143   */\n      tag_119\n      jump\t// in\n    tag_118:\n        /* \"#utility.yul\":5020:5149   */\n      swap2\n      swap1\n      pop\n      jump\t// out\n        /* \"#utility.yul\":5155:5230   */\n    tag_117:\n        /* \"#utility.yul\":5188:5194   */\n      0x00\n        /* \"#utility.yul\":5221:5223   */\n      0x40\n        /* \"#utility.yul\":5215:5224   */\n      mload\n        /* \"#utility.yul\":5205:5224   */\n      swap1\n      pop\n        /* \"#utility.yul\":5155:5230   */\n      swap1\n      jump\t// out\n        /* \"#utility.yul\":5236:5547   */\n    tag_49:\n        /* \"#utility.yul\":5313:5317   */\n      0x00\n        /* \"#utility.yul\":5403:5421   */\n      0xffffffffffffffff\n        /* \"#utility.yul\":5395:5401   */\n      dup3\n        /* \"#utility.yul\":5392:5422   */\n      gt\n        /* \"#utility.yul\":5389:5445   */\n      iszero\n      tag_122\n      jumpi\n        /* \"#utility.yul\":5425:5443   */\n      tag_123\n      tag_22\n      jump\t// in\n    tag_123:\n        /* \"#utility.yul\":5389:5445   */\n    tag_122:\n        /* \"#utility.yul\":5475:5479   */\n      0x20\n        /* \"#utility.yul\":5467:5473   */\n      dup3\n        /* \"#utility.yul\":5463:5480   */\n      mul\n        /* \"#utility.yul\":5455:5480   */\n      swap1\n      pop\n        /* \"#utility.yul\":5535:5539   */\n      0x20\n        /* \"#utility.yul\":5529:5533   */\n      dup2\n        /* \"#utility.yul\":5525:5540   */\n      add\n        /* \"#utility.yul\":5517:5540   */\n      swap1\n      pop\n        /* \"#utility.yul\":5236:5547   */\n      swap2\n      swap1\n      pop\n      jump\t// out\n        /* \"#utility.yul\":5553:5685   */\n    tag_88:\n        /* \"#utility.yul\":5620:5624   */\n      0x00\n        /* \"#utility.yul\":5643:5646   */\n      dup2\n        /* \"#utility.yul\":5635:5646   */\n      swap1\n      pop\n        /* \"#utility.yul\":5673:5677   */\n      0x20\n        /* \"#utility.yul\":5668:5671   */\n      dup3\n        /* \"#utility.yul\":5664:5678   */\n      add\n        /* \"#utility.yul\":5656:5678   */\n      swap1\n      pop\n        /* \"#utility.yul\":5553:5685   */\n      swap2\n      swap1\n      pop\n      jump\t// out\n        /* \"#utility.yul\":5691:5805   */\n    tag_84:\n        /* \"#utility.yul\":5758:5764   */\n      0x00\n        /* \"#utility.yul\":5792:5797   */\n      dup2\n        /* \"#utility.yul\":5786:5798   */\n      mload\n        /* \"#utility.yul\":5776:5798   */\n      swap1\n      pop\n        /* \"#utility.yul\":5691:5805   */\n      swap2\n      swap1\n      pop\n      jump\t// out\n        /* \"#utility.yul\":5811:5924   */\n    tag_94:\n        /* \"#utility.yul\":5881:5885   */\n      0x00\n        /* \"#utility.yul\":5913:5917   */\n      0x20\n        /* \"#utility.yul\":5908:5911   */\n      dup3\n        /* \"#utility.yul\":5904:5918   */\n      add\n        /* \"#utility.yul\":5896:5918   */\n      swap1\n      pop\n        /* \"#utility.yul\":5811:5924   */\n      swap2\n      swap1\n      pop\n      jump\t// out\n        /* \"#utility.yul\":5930:6114   */\n    tag_86:\n        /* \"#utility.yul\":6029:6040   */\n      0x00\n        /* \"#utility.yul\":6063:6069   */\n      dup3\n        /* \"#utility.yul\":6058:6061   */\n      dup3\n        /* \"#utility.yul\":6051:6070   */\n      mstore\n        /* \"#utility.yul\":6103:6107   */\n      0x20\n        /* \"#utility.yul\":6098:6101   */\n      dup3\n        /* \"#utility.yul\":6094:6108   */\n      add\n        /* \"#utility.yul\":6079:6108   */\n      swap1\n      pop\n        /* \"#utility.yul\":5930:6114   */\n      swap3\n      swap2\n      pop\n      pop\n      jump\t// out\n        /* \"#utility.yul\":6120:6289   */\n    tag_98:\n        /* \"#utility.yul\":6204:6215   */\n      0x00\n        /* \"#utility.yul\":6238:6244   */\n      dup3\n        /* \"#utility.yul\":6233:6236   */\n      dup3\n        /* \"#utility.yul\":6226:6245   */\n      mstore\n        /* \"#utility.yul\":6278:6282   */\n      0x20\n        /* \"#utility.yul\":6273:6276   */\n      dup3\n        /* \"#utility.yul\":6269:6283   */\n      add\n        /* \"#utility.yul\":6254:6283   */\n      swap1\n      pop\n        /* \"#utility.yul\":6120:6289   */\n      swap3\n      swap2\n      pop\n      pop\n      jump\t// out\n        /* \"#utility.yul\":6295:6600   */\n    tag_38:\n        /* \"#utility.yul\":6335:6338   */\n      0x00\n        /* \"#utility.yul\":6354:6374   */\n      tag_130\n        /* \"#utility.yul\":6372:6373   */\n      dup3\n        /* \"#utility.yul\":6354:6374   */\n      tag_108\n      jump\t// in\n    tag_130:\n        /* \"#utility.yul\":6349:6374   */\n      swap2\n      pop\n        /* \"#utility.yul\":6388:6408   */\n      tag_131\n        /* \"#utility.yul\":6406:6407   */\n      dup4\n        /* \"#utility.yul\":6388:6408   */\n      tag_108\n      jump\t// in\n    tag_131:\n        /* \"#utility.yul\":6383:6408   */\n      swap3\n      pop\n        /* \"#utility.yul\":6542:6543   */\n      dup3\n        /* \"#utility.yul\":6474:6540   */\n      0xffffffffffffffffffffffffffffffffffffffffffffffffffffffffffffffff\n        /* \"#utility.yul\":6470:6544   */\n      sub\n        /* \"#utility.yul\":6467:6468   */\n      dup3\n        /* \"#utility.yul\":6464:6545   */\n      gt\n        /* \"#utility.yul\":6461:6568   */\n      iszero\n      tag_132\n      jumpi\n        /* \"#utility.yul\":6548:6566   */\n      tag_133\n      tag_134\n      jump\t// in\n    tag_133:\n        /* \"#utility.yul\":6461:6568   */\n    tag_132:\n        /* \"#utility.yul\":6592:6593   */\n      dup3\n        /* \"#utility.yul\":6589:6590   */\n      dup3\n        /* \"#utility.yul\":6585:6594   */\n      add\n        /* \"#utility.yul\":6578:6594   */\n      swap1\n      pop\n        /* \"#utility.yul\":6295:6600   */\n      swap3\n      swap2\n      pop\n      pop\n      jump\t// out\n        /* \"#utility.yul\":6606:6797   */\n    tag_15:\n        /* \"#utility.yul\":6646:6650   */\n      0x00\n        /* \"#utility.yul\":6666:6686   */\n      tag_136\n        /* \"#utility.yul\":6684:6685   */\n      dup3\n        /* \"#utility.yul\":6666:6686   */\n      tag_108\n      jump\t// in\n    tag_136:\n        /* \"#utility.yul\":6661:6686   */\n      swap2\n      pop\n        /* \"#utility.yul\":6700:6720   */\n      tag_137\n        /* \"#utility.yul\":6718:6719   */\n      dup4\n        /* \"#utility.yul\":6700:6720   */\n      tag_108\n      jump\t// in\n    tag_137:\n        /* \"#utility.yul\":6695:6720   */\n      swap3\n      pop\n        /* \"#utility.yul\":6739:6740   */\n      dup3\n        /* \"#utility.yul\":6736:6737   */\n      dup3\n        /* \"#utility.yul\":6733:6741   */\n      lt\n        /* \"#utility.yul\":6730:6764   */\n      iszero\n      tag_138\n      jumpi\n        /* \"#utility.yul\":6744:6762   */\n      tag_139\n      tag_134\n      jump\t// in\n    tag_139:\n        /* \"#utility.yul\":6730:6764   */\n    tag_138:\n        /* \"#utility.yul\":6789:6790   */\n      dup3\n        /* \"#utility.yul\":6786:6787   */\n      dup3\n        /* \"#utility.yul\":6782:6791   */\n      sub\n        /* \"#utility.yul\":6774:6791   */\n      swap1\n      pop\n        /* \"#utility.yul\":6606:6797   */\n      swap3\n      swap2\n      pop\n      pop\n      jump\t// out\n        /* \"#utility.yul\":6803:6880   */\n    tag_108:\n        /* \"#utility.yul\":6840:6847   */\n      0x00\n        /* \"#utility.yul\":6869:6874   */\n      dup2\n        /* \"#utility.yul\":6858:6874   */\n      swap1\n      pop\n        /* \"#utility.yul\":6803:6880   */\n      swap2\n      swap1\n      pop\n      jump\t// out\n        /* \"#utility.yul\":6886:7167   */\n    tag_119:\n        /* \"#utility.yul\":6969:6996   */\n      tag_142\n        /* \"#utility.yul\":6991:6995   */\n      dup3\n        /* \"#utility.yul\":6969:6996   */\n      tag_143\n      jump\t// in\n    tag_142:\n        /* \"#utility.yul\":6961:6967   */\n      dup2\n        /* \"#utility.yul\":6957:6997   */\n      add\n        /* \"#utility.yul\":7099:7105   */\n      dup2\n        /* \"#utility.yul\":7087:7097   */\n      dup2\n        /* \"#utility.yul\":7084:7106   */\n      lt\n        /* \"#utility.yul\":7063:7081   */\n      0xffffffffffffffff\n        /* \"#utility.yul\":7051:7061   */\n      dup3\n        /* \"#utility.yul\":7048:7082   */\n      gt\n        /* \"#utility.yul\":7045:7107   */\n      or\n        /* \"#utility.yul\":7042:7130   */\n      iszero\n      tag_144\n      jumpi\n        /* \"#utility.yul\":7110:7128   */\n      tag_145\n      tag_22\n      jump\t// in\n    tag_145:\n        /* \"#utility.yul\":7042:7130   */\n    tag_144:\n        /* \"#utility.yul\":7150:7160   */\n      dup1\n        /* \"#utility.yul\":7146:7148   */\n      0x40\n        /* \"#utility.yul\":7139:7161   */\n      mstore\n        /* \"#utility.yul\":6929:7167   */\n      pop\n        /* \"#utility.yul\":6886:7167   */\n      pop\n      pop\n      jump\t// out\n        /* \"#utility.yul\":7173:7406   */\n    tag_33:\n        /* \"#utility.yul\":7212:7215   */\n      0x00\n        /* \"#utility.yul\":7235:7259   */\n      tag_147\n        /* \"#utility.yul\":7253:7258   */\n      dup3\n        /* \"#utility.yul\":7235:7259   */\n      tag_108\n      jump\t// in\n    tag_147:\n        /* \"#utility.yul\":7226:7259   */\n      swap2\n      pop\n        /* \"#utility.yul\":7281:7347   */\n      0xffffffffffffffffffffffffffffffffffffffffffffffffffffffffffffffff\n        /* \"#utility.yul\":7274:7279   */\n      dup3\n        /* \"#utility.yul\":7271:7348   */\n      eq\n        /* \"#utility.yul\":7268:7371   */\n      iszero\n      tag_148\n      jumpi\n        /* \"#utility.yul\":7351:7369   */\n      tag_149\n      tag_134\n      jump\t// in\n    tag_149:\n        /* \"#utility.yul\":7268:7371   */\n    tag_148:\n        /* \"#utility.yul\":7398:7399   */\n      0x01\n        /* \"#utility.yul\":7391:7396   */\n      dup3\n        /* \"#utility.yul\":7387:7400   */\n      add\n        /* \"#utility.yul\":7380:7400   */\n      swap1\n      pop\n        /* \"#utility.yul\":7173:7406   */\n      swap2\n      swap1\n      pop\n      jump\t// out\n        /* \"#utility.yul\":7412:7592   */\n    tag_134:\n        /* \"#utility.yul\":7460:7537   */\n      0x4e487b7100000000000000000000000000000000000000000000000000000000\n        /* \"#utility.yul\":7457:7458   */\n      0x00\n        /* \"#utility.yul\":7450:7538   */\n      mstore\n        /* \"#utility.yul\":7557:7561   */\n      0x11\n        /* \"#utility.yul\":7554:7555   */\n      0x04\n        /* \"#utility.yul\":7547:7562   */\n      mstore\n        /* \"#utility.yul\":7581:7585   */\n      0x24\n        /* \"#utility.yul\":7578:7579   */\n      0x00\n        /* \"#utility.yul\":7571:7586   */\n      revert\n        /* \"#utility.yul\":7598:7778   */\n    tag_29:\n        /* \"#utility.yul\":7646:7723   */\n      0x4e487b7100000000000000000000000000000000000000000000000000000000\n        /* \"#utility.yul\":7643:7644   */\n      0x00\n        /* \"#utility.yul\":7636:7724   */\n      mstore\n        /* \"#utility.yul\":7743:7747   */\n      0x32\n        /* \"#utility.yul\":7740:7741   */\n      0x04\n        /* \"#utility.yul\":7733:7748   */\n      mstore\n        /* \"#utility.yul\":7767:7771   */\n      0x24\n        /* \"#utility.yul\":7764:7765   */\n      0x00\n        /* \"#utility.yul\":7757:7772   */\n      revert\n        /* \"#utility.yul\":7784:7964   */\n    tag_22:\n        /* \"#utility.yul\":7832:7909   */\n      0x4e487b7100000000000000000000000000000000000000000000000000000000\n        /* \"#utility.yul\":7829:7830   */\n      0x00\n        /* \"#utility.yul\":7822:7910   */\n      mstore\n        /* \"#utility.yul\":7929:7933   */\n      0x41\n        /* \"#utility.yul\":7926:7927   */\n      0x04\n        /* \"#utility.yul\":7919:7934   */\n      mstore\n        /* \"#utility.yul\":7953:7957   */\n      0x24\n        /* \"#utility.yul\":7950:7951   */\n      0x00\n        /* \"#utility.yul\":7943:7958   */\n      revert\n        /* \"#utility.yul\":7970:8087   */\n    tag_63:\n        /* \"#utility.yul\":8079:8080   */\n      0x00\n        /* \"#utility.yul\":8076:8077   */\n      dup1\n        /* \"#utility.yul\":8069:8081   */\n      revert\n        /* \"#utility.yul\":8093:8210   */\n    tag_53:\n        /* \"#utility.yul\":8202:8203   */\n      0x00\n        /* \"#utility.yul\":8199:8200   */\n      dup1\n        /* \"#utility.yul\":8192:8204   */\n      revert\n        /* \"#utility.yul\":8216:8333   */\n    tag_74:\n        /* \"#utility.yul\":8325:8326   */\n      0x00\n        /* \"#utility.yul\":8322:8323   */\n      dup1\n        /* \"#utility.yul\":8315:8327   */\n      revert\n        /* \"#utility.yul\":8339:8456   */\n    tag_71:\n        /* \"#utility.yul\":8448:8449   */\n      0x00\n        /* \"#utility.yul\":8445:8446   */\n      dup1\n        /* \"#utility.yul\":8438:8450   */\n      revert\n        /* \"#utility.yul\":8462:8564   */\n    tag_143:\n        /* \"#utility.yul\":8503:8509   */\n      0x00\n        /* \"#utility.yul\":8554:8556   */\n      0x1f\n        /* \"#utility.yul\":8550:8557   */\n      not\n        /* \"#utility.yul\":8545:8547   */\n      0x1f\n        /* \"#utility.yul\":8538:8543   */\n      dup4\n        /* \"#utility.yul\":8534:8548   */\n      add\n        /* \"#utility.yul\":8530:8558   */\n      and\n        /* \"#utility.yul\":8520:8558   */\n      swap1\n      pop\n        /* \"#utility.yul\":8462:8564   */\n      swap2\n      swap1\n      pop\n      jump\t// out\n        /* \"#utility.yul\":8570:8738   */\n    tag_100:\n        /* \"#utility.yul\":8710:8730   */\n      0x6172726179206973206e6f7420656d7074790000000000000000000000000000\n        /* \"#utility.yul\":8706:8707   */\n      0x00\n        /* \"#utility.yul\":8698:8704   */\n      dup3\n        /* \"#utility.yul\":8694:8708   */\n      add\n        /* \"#utility.yul\":8687:8731   */\n      mstore\n        /* \"#utility.yul\":8570:8738   */\n      pop\n      jump\t// out\n        /* \"#utility.yul\":8744:8907   */\n    tag_105:\n        /* \"#utility.yul\":8884:8899   */\n      0x6f7574206f6620626f756e647300000000000000000000000000000000000000\n        /* \"#utility.yul\":8880:8881   */\n      0x00\n        /* \"#utility.yul\":8872:8878   */\n      dup3\n        /* \"#utility.yul\":8868:8882   */\n      add\n        /* \"#utility.yul\":8861:8900   */\n      mstore\n        /* \"#utility.yul\":8744:8907   */\n      pop\n      jump\t// out\n        /* \"#utility.yul\":8913:9035   */\n    tag_67:\n        /* \"#utility.yul\":8986:9010   */\n      tag_161\n        /* \"#utility.yul\":9004:9009   */\n      dup2\n        /* \"#utility.yul\":8986:9010   */\n      tag_108\n      jump\t// in\n    tag_161:\n        /* \"#utility.yul\":8979:8984   */\n      dup2\n        /* \"#utility.yul\":8976:9011   */\n      eq\n        /* \"#utility.yul\":8966:9029   */\n      tag_162\n      jumpi\n        /* \"#utility.yul\":9025:9026   */\n      0x00\n        /* \"#utility.yul\":9022:9023   */\n      dup1\n        /* \"#utility.yul\":9015:9027   */\n      revert\n        /* \"#utility.yul\":8966:9029   */\n    tag_162:\n        /* \"#utility.yul\":8913:9035   */\n      pop\n      jump\t// out\n\n    auxdata: 0xa2646970667358221220502a4fa38841d014e4419738b42272169fb3b02fccc5a4adfeb30848c4fa812864736f6c63430008070033\n}\n",
				"bytecode": {
					"linkReferences": {},
					"object": "608060405234801561001057600080fd5b50610752806100206000396000f3fe608060405234801561001057600080fd5b506004361061002b5760003560e01c8063aebeb4fa14610030575b600080fd5b61004a600480360381019061004591906102cf565b610060565b60405161005791906103f6565b60405180910390f35b606060008351116100a6576040517f08c379a000000000000000000000000000000000000000000000000000000000815260040161009d90610418565b60405180910390fd5b600183516100b49190610549565b8211156100f6576040517f08c379a00000000000000000000000000000000000000000000000000000000081526004016100ed90610438565b60405180910390fd5b6000600184516101069190610549565b67ffffffffffffffff81111561011f5761011e61065f565b5b60405190808252806020026020018201604052801561014d5781602001602082028036833780820191505090505b50905060005b838110156101a85784818151811061016e5761016d610630565b5b602002602001015182828151811061018957610188610630565b5b60200260200101818152505080806101a0906105b8565b915050610153565b5060008390505b815181101561021157846001826101c691906104f3565b815181106101d7576101d6610630565b5b60200260200101518282815181106101f2576101f1610630565b5b6020026020010181815250508080610209906105b8565b9150506101af565b508091505092915050565b600061022f61022a8461047d565b610458565b9050808382526020820190508285602086028201111561025257610251610693565b5b60005b85811015610282578161026888826102ba565b845260208401935060208301925050600181019050610255565b5050509392505050565b600082601f8301126102a1576102a061068e565b5b81356102b184826020860161021c565b91505092915050565b6000813590506102c981610705565b92915050565b600080604083850312156102e6576102e561069d565b5b600083013567ffffffffffffffff81111561030457610303610698565b5b6103108582860161028c565b9250506020610321858286016102ba565b9150509250929050565b600061033783836103e7565b60208301905092915050565b600061034e826104b9565b61035881856104d1565b9350610363836104a9565b8060005b8381101561039457815161037b888261032b565b9750610386836104c4565b925050600181019050610367565b5085935050505092915050565b60006103ae6012836104e2565b91506103b9826106b3565b602082019050919050565b60006103d1600d836104e2565b91506103dc826106dc565b602082019050919050565b6103f08161057d565b82525050565b600060208201905081810360008301526104108184610343565b905092915050565b60006020820190508181036000830152610431816103a1565b9050919050565b60006020820190508181036000830152610451816103c4565b9050919050565b6000610462610473565b905061046e8282610587565b919050565b6000604051905090565b600067ffffffffffffffff8211156104985761049761065f565b5b602082029050602081019050919050565b6000819050602082019050919050565b600081519050919050565b6000602082019050919050565b600082825260208201905092915050565b600082825260208201905092915050565b60006104fe8261057d565b91506105098361057d565b9250827fffffffffffffffffffffffffffffffffffffffffffffffffffffffffffffffff0382111561053e5761053d610601565b5b828201905092915050565b60006105548261057d565b915061055f8361057d565b92508282101561057257610571610601565b5b828203905092915050565b6000819050919050565b610590826106a2565b810181811067ffffffffffffffff821117156105af576105ae61065f565b5b80604052505050565b60006105c38261057d565b91507fffffffffffffffffffffffffffffffffffffffffffffffffffffffffffffffff8214156105f6576105f5610601565b5b600182019050919050565b7f4e487b7100000000000000000000000000000000000000000000000000000000600052601160045260246000fd5b7f4e487b7100000000000000000000000000000000000000000000000000000000600052603260045260246000fd5b7f4e487b7100000000000000000000000000000000000000000000000000000000600052604160045260246000fd5b600080fd5b600080fd5b600080fd5b600080fd5b6000601f19601f8301169050919050565b7f6172726179206973206e6f7420656d7074790000000000000000000000000000600082015250565b7f6f7574206f6620626f756e647300000000000000000000000000000000000000600082015250565b61070e8161057d565b811461071957600080fd5b5056fea2646970667358221220502a4fa38841d014e4419738b42272169fb3b02fccc5a4adfeb30848c4fa812864736f6c63430008070033",
					"opcodes": "PUSH1 0x80 PUSH1 0x40 MSTORE CALLVALUE DUP1 ISZERO PUSH2 0x10 JUMPI PUSH1 0x0 DUP1 REVERT JUMPDEST POP PUSH2 0x752 DUP1 PUSH2 0x20 PUSH1 0x0 CODECOPY PUSH1 0x0 RETURN INVALID PUSH1 0x80 PUSH1 0x40 MSTORE CALLVALUE DUP1 ISZERO PUSH2 0x10 JUMPI PUSH1 0x0 DUP1 REVERT JUMPDEST POP PUSH1 0x4 CALLDATASIZE LT PUSH2 0x2B JUMPI PUSH1 0x0 CALLDATALOAD PUSH1 0xE0 SHR DUP1 PUSH4 0xAEBEB4FA EQ PUSH2 0x30 JUMPI JUMPDEST PUSH1 0x0 DUP1 REVERT JUMPDEST PUSH2 0x4A PUSH1 0x4 DUP1 CALLDATASIZE SUB DUP2 ADD SWAP1 PUSH2 0x45 SWAP2 SWAP1 PUSH2 0x2CF JUMP JUMPDEST PUSH2 0x60 JUMP JUMPDEST PUSH1 0x40 MLOAD PUSH2 0x57 SWAP2 SWAP1 PUSH2 0x3F6 JUMP JUMPDEST PUSH1 0x40 MLOAD DUP1 SWAP2 SUB SWAP1 RETURN JUMPDEST PUSH1 0x60 PUSH1 0x0 DUP4 MLOAD GT PUSH2 0xA6 JUMPI PUSH1 0x40 MLOAD PUSH32 0x8C379A000000000000000000000000000000000000000000000000000000000 DUP2 MSTORE PUSH1 0x4 ADD PUSH2 0x9D SWAP1 PUSH2 0x418 JUMP JUMPDEST PUSH1 0x40 MLOAD DUP1 SWAP2 SUB SWAP1 REVERT JUMPDEST PUSH1 0x1 DUP4 MLOAD PUSH2 0xB4 SWAP2 SWAP1 PUSH2 0x549 JUMP JUMPDEST DUP3 GT ISZERO PUSH2 0xF6 JUMPI PUSH1 0x40 MLOAD PUSH32 0x8C379A000000000000000000000000000000000000000000000000000000000 DUP2 MSTORE PUSH1 0x4 ADD PUSH2 0xED SWAP1 PUSH2 0x438 JUMP JUMPDEST PUSH1 0x40 MLOAD DUP1 SWAP2 SUB SWAP1 REVERT JUMPDEST PUSH1 0x0 PUSH1 0x1 DUP5 MLOAD PUSH2 0x106 SWAP2 SWAP1 PUSH2 0x549 JUMP JUMPDEST PUSH8 0xFFFFFFFFFFFFFFFF DUP2 GT ISZERO PUSH2 0x11F JUMPI PUSH2 0x11E PUSH2 0x65F JUMP JUMPDEST JUMPDEST PUSH1 0x40 MLOAD SWAP1 DUP1 DUP3 MSTORE DUP1 PUSH1 0x20 MUL PUSH1 0x20 ADD DUP3 ADD PUSH1 0x40 MSTORE DUP1 ISZERO PUSH2 0x14D JUMPI DUP2 PUSH1 0x20 ADD PUSH1 0x20 DUP3 MUL DUP1 CALLDATASIZE DUP4 CALLDATACOPY DUP1 DUP3 ADD SWAP2 POP POP SWAP1 POP JUMPDEST POP SWAP1 POP PUSH1 0x0 JUMPDEST DUP4 DUP2 LT ISZERO PUSH2 0x1A8 JUMPI DUP5 DUP2 DUP2 MLOAD DUP2 LT PUSH2 0x16E JUMPI PUSH2 0x16D PUSH2 0x630 JUMP JUMPDEST JUMPDEST PUSH1 0x20 MUL PUSH1 0x20 ADD ADD MLOAD DUP3 DUP3 DUP2 MLOAD DUP2 LT PUSH2 0x189 JUMPI PUSH2 0x188 PUSH2 0x630 JUMP JUMPDEST JUMPDEST PUSH1 0x20 MUL PUSH1 0x20 ADD ADD DUP2 DUP2 MSTORE POP POP DUP1 DUP1 PUSH2 0x1A0 SWAP1 PUSH2 0x5B8 JUMP JUMPDEST SWAP2 POP POP PUSH2 0x153 JUMP JUMPDEST POP PUSH1 0x0 DUP4 SWAP1 POP JUMPDEST DUP2 MLOAD DUP2 LT ISZERO PUSH2 0x211 JUMPI DUP5 PUSH1 0x1 DUP3 PUSH2 0x1C6 SWAP2 SWAP1 PUSH2 0x4F3 JUMP JUMPDEST DUP2 MLOAD DUP2 LT PUSH2 0x1D7 JUMPI PUSH2 0x1D6 PUSH2 0x630 JUMP JUMPDEST JUMPDEST PUSH1 0x20 MUL PUSH1 0x20 ADD ADD MLOAD DUP3 DUP3 DUP2 MLOAD DUP2 LT PUSH2 0x1F2 JUMPI PUSH2 0x1F1 PUSH2 0x630 JUMP JUMPDEST JUMPDEST PUSH1 0x20 MUL PUSH1 0x20 ADD ADD DUP2 DUP2 MSTORE POP POP DUP1 DUP1 PUSH2 0x209 SWAP1 PUSH2 0x5B8 JUMP JUMPDEST SWAP2 POP POP PUSH2 0x1AF JUMP JUMPDEST POP DUP1 SWAP2 POP POP SWAP3 SWAP2 POP POP JUMP JUMPDEST PUSH1 0x0 PUSH2 0x22F PUSH2 0x22A DUP5 PUSH2 0x47D JUMP JUMPDEST PUSH2 0x458 JUMP JUMPDEST SWAP1 POP DUP1 DUP4 DUP3 MSTORE PUSH1 0x20 DUP3 ADD SWAP1 POP DUP3 DUP6 PUSH1 0x20 DUP7 MUL DUP3 ADD GT ISZERO PUSH2 0x252 JUMPI PUSH2 0x251 PUSH2 0x693 JUMP JUMPDEST JUMPDEST PUSH1 0x0 JUMPDEST DUP6 DUP2 LT ISZERO PUSH2 0x282 JUMPI DUP2 PUSH2 0x268 DUP9 DUP3 PUSH2 0x2BA JUMP JUMPDEST DUP5 MSTORE PUSH1 0x20 DUP5 ADD SWAP4 POP PUSH1 0x20 DUP4 ADD SWAP3 POP POP PUSH1 0x1 DUP2 ADD SWAP1 POP PUSH2 0x255 JUMP JUMPDEST POP POP POP SWAP4 SWAP3 POP POP POP JUMP JUMPDEST PUSH1 0x0 DUP3 PUSH1 0x1F DUP4 ADD SLT PUSH2 0x2A1 JUMPI PUSH2 0x2A0 PUSH2 0x68E JUMP JUMPDEST JUMPDEST DUP2 CALLDATALOAD PUSH2 0x2B1 DUP5 DUP3 PUSH1 0x20 DUP7 ADD PUSH2 0x21C JUMP JUMPDEST SWAP2 POP POP SWAP3 SWAP2 POP POP JUMP JUMPDEST PUSH1 0x0 DUP2 CALLDATALOAD SWAP1 POP PUSH2 0x2C9 DUP2 PUSH2 0x705 JUMP JUMPDEST SWAP3 SWAP2 POP POP JUMP JUMPDEST PUSH1 0x0 DUP1 PUSH1 0x40 DUP4 DUP6 SUB SLT ISZERO PUSH2 0x2E6 JUMPI PUSH2 0x2E5 PUSH2 0x69D JUMP JUMPDEST JUMPDEST PUSH1 0x0 DUP4 ADD CALLDATALOAD PUSH8 0xFFFFFFFFFFFFFFFF DUP2 GT ISZERO PUSH2 0x304 JUMPI PUSH2 0x303 PUSH2 0x698 JUMP JUMPDEST JUMPDEST PUSH2 0x310 DUP6 DUP3 DUP7 ADD PUSH2 0x28C JUMP JUMPDEST SWAP3 POP POP PUSH1 0x20 PUSH2 0x321 DUP6 DUP3 DUP7 ADD PUSH2 0x2BA JUMP JUMPDEST SWAP2 POP POP SWAP3 POP SWAP3 SWAP1 POP JUMP JUMPDEST PUSH1 0x0 PUSH2 0x337 DUP4 DUP4 PUSH2 0x3E7 JUMP JUMPDEST PUSH1 0x20 DUP4 ADD SWAP1 POP SWAP3 SWAP2 POP POP JUMP JUMPDEST PUSH1 0x0 PUSH2 0x34E DUP3 PUSH2 0x4B9 JUMP JUMPDEST PUSH2 0x358 DUP2 DUP6 PUSH2 0x4D1 JUMP JUMPDEST SWAP4 POP PUSH2 0x363 DUP4 PUSH2 0x4A9 JUMP JUMPDEST DUP1 PUSH1 0x0 JUMPDEST DUP4 DUP2 LT ISZERO PUSH2 0x394 JUMPI DUP2 MLOAD PUSH2 0x37B DUP9 DUP3 PUSH2 0x32B JUMP JUMPDEST SWAP8 POP PUSH2 0x386 DUP4 PUSH2 0x4C4 JUMP JUMPDEST SWAP3 POP POP PUSH1 0x1 DUP2 ADD SWAP1 POP PUSH2 0x367 JUMP JUMPDEST POP DUP6 SWAP4 POP POP POP POP SWAP3 SWAP2 POP POP JUMP JUMPDEST PUSH1 0x0 PUSH2 0x3AE PUSH1 0x12 DUP4 PUSH2 0x4E2 JUMP JUMPDEST SWAP2 POP PUSH2 0x3B9 DUP3 PUSH2 0x6B3 JUMP JUMPDEST PUSH1 0x20 DUP3 ADD SWAP1 POP SWAP2 SWAP1 POP JUMP JUMPDEST PUSH1 0x0 PUSH2 0x3D1 PUSH1 0xD DUP4 PUSH2 0x4E2 JUMP JUMPDEST SWAP2 POP PUSH2 0x3DC DUP3 PUSH2 0x6DC JUMP JUMPDEST PUSH1 0x20 DUP3 ADD SWAP1 POP SWAP2 SWAP1 POP JUMP JUMPDEST PUSH2 0x3F0 DUP2 PUSH2 0x57D JUMP JUMPDEST DUP3 MSTORE POP POP JUMP JUMPDEST PUSH1 0x0 PUSH1 0x20 DUP3 ADD SWAP1 POP DUP2 DUP2 SUB PUSH1 0x0 DUP4 ADD MSTORE PUSH2 0x410 DUP2 DUP5 PUSH2 0x343 JUMP JUMPDEST SWAP1 POP SWAP3 SWAP2 POP POP JUMP JUMPDEST PUSH1 0x0 PUSH1 0x20 DUP3 ADD SWAP1 POP DUP2 DUP2 SUB PUSH1 0x0 DUP4 ADD MSTORE PUSH2 0x431 DUP2 PUSH2 0x3A1 JUMP JUMPDEST SWAP1 POP SWAP2 SWAP1 POP JUMP JUMPDEST PUSH1 0x0 PUSH1 0x20 DUP3 ADD SWAP1 POP DUP2 DUP2 SUB PUSH1 0x0 DUP4 ADD MSTORE PUSH2 0x451 DUP2 PUSH2 0x3C4 JUMP JUMPDEST SWAP1 POP SWAP2 SWAP1 POP JUMP JUMPDEST PUSH1 0x0 PUSH2 0x462 PUSH2 0x473 JUMP JUMPDEST SWAP1 POP PUSH2 0x46E DUP3 DUP3 PUSH2 0x587 JUMP JUMPDEST SWAP2 SWAP1 POP JUMP JUMPDEST PUSH1 0x0 PUSH1 0x40 MLOAD SWAP1 POP SWAP1 JUMP JUMPDEST PUSH1 0x0 PUSH8 0xFFFFFFFFFFFFFFFF DUP3 GT ISZERO PUSH2 0x498 JUMPI PUSH2 0x497 PUSH2 0x65F JUMP JUMPDEST JUMPDEST PUSH1 0x20 DUP3 MUL SWAP1 POP PUSH1 0x20 DUP2 ADD SWAP1 POP SWAP2 SWAP1 POP JUMP JUMPDEST PUSH1 0x0 DUP2 SWAP1 POP PUSH1 0x20 DUP3 ADD SWAP1 POP SWAP2 SWAP1 POP JUMP JUMPDEST PUSH1 0x0 DUP2 MLOAD SWAP1 POP SWAP2 SWAP1 POP JUMP JUMPDEST PUSH1 0x0 PUSH1 0x20 DUP3 ADD SWAP1 POP SWAP2 SWAP1 POP JUMP JUMPDEST PUSH1 0x0 DUP3 DUP3 MSTORE PUSH1 0x20 DUP3 ADD SWAP1 POP SWAP3 SWAP2 POP POP JUMP JUMPDEST PUSH1 0x0 DUP3 DUP3 MSTORE PUSH1 0x20 DUP3 ADD SWAP1 POP SWAP3 SWAP2 POP POP JUMP JUMPDEST PUSH1 0x0 PUSH2 0x4FE DUP3 PUSH2 0x57D JUMP JUMPDEST SWAP2 POP PUSH2 0x509 DUP4 PUSH2 0x57D JUMP JUMPDEST SWAP3 POP DUP3 PUSH32 0xFFFFFFFFFFFFFFFFFFFFFFFFFFFFFFFFFFFFFFFFFFFFFFFFFFFFFFFFFFFFFFFF SUB DUP3 GT ISZERO PUSH2 0x53E JUMPI PUSH2 0x53D PUSH2 0x601 JUMP JUMPDEST JUMPDEST DUP3 DUP3 ADD SWAP1 POP SWAP3 SWAP2 POP POP JUMP JUMPDEST PUSH1 0x0 PUSH2 0x554 DUP3 PUSH2 0x57D JUMP JUMPDEST SWAP2 POP PUSH2 0x55F DUP4 PUSH2 0x57D JUMP JUMPDEST SWAP3 POP DUP3 DUP3 LT ISZERO PUSH2 0x572 JUMPI PUSH2 0x571 PUSH2 0x601 JUMP JUMPDEST JUMPDEST DUP3 DUP3 SUB SWAP1 POP SWAP3 SWAP2 POP POP JUMP JUMPDEST PUSH1 0x0 DUP2 SWAP1 POP SWAP2 SWAP1 POP JUMP JUMPDEST PUSH2 0x590 DUP3 PUSH2 0x6A2 JUMP JUMPDEST DUP2 ADD DUP2 DUP2 LT PUSH8 0xFFFFFFFFFFFFFFFF DUP3 GT OR ISZERO PUSH2 0x5AF JUMPI PUSH2 0x5AE PUSH2 0x65F JUMP JUMPDEST JUMPDEST DUP1 PUSH1 0x40 MSTORE POP POP POP JUMP JUMPDEST PUSH1 0x0 PUSH2 0x5C3 DUP3 PUSH2 0x57D JUMP JUMPDEST SWAP2 POP PUSH32 0xFFFFFFFFFFFFFFFFFFFFFFFFFFFFFFFFFFFFFFFFFFFFFFFFFFFFFFFFFFFFFFFF DUP3 EQ ISZERO PUSH2 0x5F6 JUMPI PUSH2 0x5F5 PUSH2 0x601 JUMP JUMPDEST JUMPDEST PUSH1 0x1 DUP3 ADD SWAP1 POP SWAP2 SWAP1 POP JUMP JUMPDEST PUSH32 0x4E487B7100000000000000000000000000000000000000000000000000000000 PUSH1 0x0 MSTORE PUSH1 0x11 PUSH1 0x4 MSTORE PUSH1 0x24 PUSH1 0x0 REVERT JUMPDEST PUSH32 0x4E487B7100000000000000000000000000000000000000000000000000000000 PUSH1 0x0 MSTORE PUSH1 0x32 PUSH1 0x4 MSTORE PUSH1 0x24 PUSH1 0x0 REVERT JUMPDEST PUSH32 0x4E487B7100000000000000000000000000000000000000000000000000000000 PUSH1 0x0 MSTORE PUSH1 0x41 PUSH1 0x4 MSTORE PUSH1 0x24 PUSH1 0x0 REVERT JUMPDEST PUSH1 0x0 DUP1 REVERT JUMPDEST PUSH1 0x0 DUP1 REVERT JUMPDEST PUSH1 0x0 DUP1 REVERT JUMPDEST PUSH1 0x0 DUP1 REVERT JUMPDEST PUSH1 0x0 PUSH1 0x1F NOT PUSH1 0x1F DUP4 ADD AND SWAP1 POP SWAP2 SWAP1 POP JUMP JUMPDEST PUSH32 0x6172726179206973206E6F7420656D7074790000000000000000000000000000 PUSH1 0x0 DUP3 ADD MSTORE POP JUMP JUMPDEST PUSH32 0x6F7574206F6620626F756E647300000000000000000000000000000000000000 PUSH1 0x0 DUP3 ADD MSTORE POP JUMP JUMPDEST PUSH2 0x70E DUP2 PUSH2 0x57D JUMP JUMPDEST DUP2 EQ PUSH2 0x719 JUMPI PUSH1 0x0 DUP1 REVERT JUMPDEST POP JUMP INVALID LOG2 PUSH5 0x6970667358 0x22 SLT KECCAK256 POP 0x2A 0x4F LOG3 DUP9 COINBASE 0xD0 EQ 0xE4 COINBASE SWAP8 CODESIZE 0xB4 0x22 PUSH19 0x169FB3B02FCCC5A4ADFEB30848C4FA81286473 PUSH16 0x6C634300080700330000000000000000 "
				},
				"gasEstimates": {
					"creation": {
						"codeDepositCost": "374800",
						"executionCost": "411",
						"totalCost": "375211"
					},
					"external": {
						"efficientRemove(uint256[],uint256)": "infinite"
					}
				},
				"methodIdentifiers": {
					"efficientRemove(uint256[],uint256)": "aebeb4fa"
				}
			},
			"storageLayout": {
				"storage": [],
				"types": null
			},
			"userdoc": {
				"kind": "user",
				"methods": {},
				"version": 1
			}
		}
	}
}