{
	"contracts/FunctionModifier.sol": {
		"FunctionModifier": {
			"abi": [
				{
					"inputs": [],
					"name": "count",
					"outputs": [
						{
							"internalType": "uint256",
							"name": "",
							"type": "uint256"
						}
					],
					"stateMutability": "view",
					"type": "function"
				},
				{
					"inputs": [],
					"name": "dec",
					"outputs": [],
					"stateMutability": "nonpayable",
					"type": "function"
				},
				{
					"inputs": [],
					"name": "foo",
					"outputs": [],
					"stateMutability": "nonpayable",
					"type": "function"
				},
				{
					"inputs": [],
					"name": "inc",
					"outputs": [],
					"stateMutability": "nonpayable",
					"type": "function"
				},
				{
					"inputs": [
						{
							"internalType": "uint256",
							"name": "_x",
							"type": "uint256"
						}
					],
					"name": "incBy",
					"outputs": [],
					"stateMutability": "nonpayable",
					"type": "function"
				},
				{
					"inputs": [],
					"name": "paused",
					"outputs": [
						{
							"internalType": "bool",
							"name": "",
							"type": "bool"
						}
					],
					"stateMutability": "view",
					"type": "function"
				}
			],
			"devdoc": {
				"kind": "dev",
				"methods": {},
				"version": 1
			},
			"evm": {
				"assembly": "    /* \"contracts/FunctionModifier.sol\":120:856  contract FunctionModifier {... */\n  mstore(0x40, 0x80)\n  callvalue\n  dup1\n  iszero\n  tag_1\n  jumpi\n  0x00\n  dup1\n  revert\ntag_1:\n  pop\n  dataSize(sub_0)\n  dup1\n  dataOffset(sub_0)\n  0x00\n  codecopy\n  0x00\n  return\nstop\n\nsub_0: assembly {\n        /* \"contracts/FunctionModifier.sol\":120:856  contract FunctionModifier {... */\n      mstore(0x40, 0x80)\n      callvalue\n      dup1\n      iszero\n      tag_1\n      jumpi\n      0x00\n      dup1\n      revert\n    tag_1:\n      pop\n      jumpi(tag_2, lt(calldatasize, 0x04))\n      shr(0xe0, calldataload(0x00))\n      dup1\n      0x06661abd\n      eq\n      tag_3\n      jumpi\n      dup1\n      0x371303c0\n      eq\n      tag_4\n      jumpi\n      dup1\n      0x5c975abb\n      eq\n      tag_5\n      jumpi\n      dup1\n      0x70119d06\n      eq\n      tag_6\n      jumpi\n      dup1\n      0xb3bcfa82\n      eq\n      tag_7\n      jumpi\n      dup1\n      0xc2985578\n      eq\n      tag_8\n      jumpi\n    tag_2:\n      0x00\n      dup1\n      revert\n        /* \"contracts/FunctionModifier.sol\":176:193  uint public count */\n    tag_3:\n      tag_9\n      tag_10\n      jump\t// in\n    tag_9:\n      mload(0x40)\n      tag_11\n      swap2\n      swap1\n      tag_12\n      jump\t// in\n    tag_11:\n      mload(0x40)\n      dup1\n      swap2\n      sub\n      swap1\n      return\n        /* \"contracts/FunctionModifier.sol\":297:412  function inc() external whenNotPaused {... */\n    tag_4:\n      tag_13\n      tag_14\n      jump\t// in\n    tag_13:\n      stop\n        /* \"contracts/FunctionModifier.sol\":152:170  bool public paused */\n    tag_5:\n      tag_15\n      tag_16\n      jump\t// in\n    tag_15:\n      mload(0x40)\n      tag_17\n      swap2\n      swap1\n      tag_18\n      jump\t// in\n    tag_17:\n      mload(0x40)\n      dup1\n      swap2\n      sub\n      swap1\n      return\n        /* \"contracts/FunctionModifier.sol\":621:704  function incBy(uint _x) external whenNotPaused cap(_x) {... */\n    tag_6:\n      tag_19\n      0x04\n      dup1\n      calldatasize\n      sub\n      dup2\n      add\n      swap1\n      tag_20\n      swap2\n      swap1\n      tag_21\n      jump\t// in\n    tag_20:\n      tag_22\n      jump\t// in\n    tag_19:\n      stop\n        /* \"contracts/FunctionModifier.sol\":418:533  function dec() external whenNotPaused {... */\n    tag_7:\n      tag_23\n      tag_24\n      jump\t// in\n    tag_23:\n      stop\n        /* \"contracts/FunctionModifier.sol\":794:854  function foo() external sandwich {... */\n    tag_8:\n      tag_25\n      tag_26\n      jump\t// in\n    tag_25:\n      stop\n        /* \"contracts/FunctionModifier.sol\":176:193  uint public count */\n    tag_10:\n      sload(0x01)\n      dup2\n      jump\t// out\n        /* \"contracts/FunctionModifier.sol\":297:412  function inc() external whenNotPaused {... */\n    tag_14:\n        /* \"contracts/FunctionModifier.sol\":244:250  paused */\n      0x00\n      dup1\n      sload\n      swap1\n      0x0100\n      exp\n      swap1\n      div\n      0xff\n      and\n        /* \"contracts/FunctionModifier.sol\":243:250  !paused */\n      iszero\n        /* \"contracts/FunctionModifier.sol\":235:273  require(!paused, \"Contract is paused\") */\n      tag_28\n      jumpi\n      mload(0x40)\n      0x08c379a000000000000000000000000000000000000000000000000000000000\n      dup2\n      mstore\n      0x04\n      add\n      tag_29\n      swap1\n      tag_30\n      jump\t// in\n    tag_29:\n      mload(0x40)\n      dup1\n      swap2\n      sub\n      swap1\n      revert\n    tag_28:\n        /* \"contracts/FunctionModifier.sol\":404:405  1 */\n      0x01\n        /* \"contracts/FunctionModifier.sol\":395:400  count */\n      dup1\n      0x00\n        /* \"contracts/FunctionModifier.sol\":395:405  count += 1 */\n      dup3\n      dup3\n      sload\n      tag_32\n      swap2\n      swap1\n      tag_33\n      jump\t// in\n    tag_32:\n      swap3\n      pop\n      pop\n      dup2\n      swap1\n      sstore\n      pop\n        /* \"contracts/FunctionModifier.sol\":297:412  function inc() external whenNotPaused {... */\n      jump\t// out\n        /* \"contracts/FunctionModifier.sol\":152:170  bool public paused */\n    tag_16:\n      0x00\n      dup1\n      sload\n      swap1\n      0x0100\n      exp\n      swap1\n      div\n      0xff\n      and\n      dup2\n      jump\t// out\n        /* \"contracts/FunctionModifier.sol\":621:704  function incBy(uint _x) external whenNotPaused cap(_x) {... */\n    tag_22:\n        /* \"contracts/FunctionModifier.sol\":244:250  paused */\n      0x00\n      dup1\n      sload\n      swap1\n      0x0100\n      exp\n      swap1\n      div\n      0xff\n      and\n        /* \"contracts/FunctionModifier.sol\":243:250  !paused */\n      iszero\n        /* \"contracts/FunctionModifier.sol\":235:273  require(!paused, \"Contract is paused\") */\n      tag_35\n      jumpi\n      mload(0x40)\n      0x08c379a000000000000000000000000000000000000000000000000000000000\n      dup2\n      mstore\n      0x04\n      add\n      tag_36\n      swap1\n      tag_30\n      jump\t// in\n    tag_36:\n      mload(0x40)\n      dup1\n      swap2\n      sub\n      swap1\n      revert\n    tag_35:\n        /* \"contracts/FunctionModifier.sol\":672:674  _x */\n      dup1\n        /* \"contracts/FunctionModifier.sol\":584:587  100 */\n      0x64\n        /* \"contracts/FunctionModifier.sol\":579:581  _x */\n      dup2\n        /* \"contracts/FunctionModifier.sol\":579:587  _x < 100 */\n      lt\n        /* \"contracts/FunctionModifier.sol\":571:597  require(_x < 100, \"x>100\") */\n      tag_38\n      jumpi\n      mload(0x40)\n      0x08c379a000000000000000000000000000000000000000000000000000000000\n      dup2\n      mstore\n      0x04\n      add\n      tag_39\n      swap1\n      tag_40\n      jump\t// in\n    tag_39:\n      mload(0x40)\n      dup1\n      swap2\n      sub\n      swap1\n      revert\n    tag_38:\n        /* \"contracts/FunctionModifier.sol\":695:697  _x */\n      dup2\n        /* \"contracts/FunctionModifier.sol\":686:691  count */\n      0x01\n      0x00\n        /* \"contracts/FunctionModifier.sol\":686:697  count += _x */\n      dup3\n      dup3\n      sload\n      tag_42\n      swap2\n      swap1\n      tag_33\n      jump\t// in\n    tag_42:\n      swap3\n      pop\n      pop\n      dup2\n      swap1\n      sstore\n      pop\n        /* \"contracts/FunctionModifier.sol\":283:284  _ */\n      pop\n        /* \"contracts/FunctionModifier.sol\":621:704  function incBy(uint _x) external whenNotPaused cap(_x) {... */\n      pop\n      jump\t// out\n        /* \"contracts/FunctionModifier.sol\":418:533  function dec() external whenNotPaused {... */\n    tag_24:\n        /* \"contracts/FunctionModifier.sol\":244:250  paused */\n      0x00\n      dup1\n      sload\n      swap1\n      0x0100\n      exp\n      swap1\n      div\n      0xff\n      and\n        /* \"contracts/FunctionModifier.sol\":243:250  !paused */\n      iszero\n        /* \"contracts/FunctionModifier.sol\":235:273  require(!paused, \"Contract is paused\") */\n      tag_44\n      jumpi\n      mload(0x40)\n      0x08c379a000000000000000000000000000000000000000000000000000000000\n      dup2\n      mstore\n      0x04\n      add\n      tag_45\n      swap1\n      tag_30\n      jump\t// in\n    tag_45:\n      mload(0x40)\n      dup1\n      swap2\n      sub\n      swap1\n      revert\n    tag_44:\n        /* \"contracts/FunctionModifier.sol\":525:526  1 */\n      0x01\n        /* \"contracts/FunctionModifier.sol\":516:521  count */\n      dup1\n      0x00\n        /* \"contracts/FunctionModifier.sol\":516:526  count -= 1 */\n      dup3\n      dup3\n      sload\n      tag_47\n      swap2\n      swap1\n      tag_48\n      jump\t// in\n    tag_47:\n      swap3\n      pop\n      pop\n      dup2\n      swap1\n      sstore\n      pop\n        /* \"contracts/FunctionModifier.sol\":418:533  function dec() external whenNotPaused {... */\n      jump\t// out\n        /* \"contracts/FunctionModifier.sol\":794:854  function foo() external sandwich {... */\n    tag_26:\n        /* \"contracts/FunctionModifier.sol\":749:750  1 */\n      0x01\n        /* \"contracts/FunctionModifier.sol\":740:745  count */\n      dup1\n      0x00\n        /* \"contracts/FunctionModifier.sol\":740:750  count += 1 */\n      dup3\n      dup3\n      sload\n      tag_50\n      swap2\n      swap1\n      tag_33\n      jump\t// in\n    tag_50:\n      swap3\n      pop\n      pop\n      dup2\n      swap1\n      sstore\n      pop\n        /* \"contracts/FunctionModifier.sol\":846:847  1 */\n      0x01\n        /* \"contracts/FunctionModifier.sol\":837:842  count */\n      dup1\n      0x00\n        /* \"contracts/FunctionModifier.sol\":837:847  count += 1 */\n      dup3\n      dup3\n      sload\n      tag_52\n      swap2\n      swap1\n      tag_33\n      jump\t// in\n    tag_52:\n      swap3\n      pop\n      pop\n      dup2\n      swap1\n      sstore\n      pop\n        /* \"contracts/FunctionModifier.sol\":780:781  2 */\n      0x02\n        /* \"contracts/FunctionModifier.sol\":771:776  count */\n      0x01\n      0x00\n        /* \"contracts/FunctionModifier.sol\":771:781  count *= 2 */\n      dup3\n      dup3\n      sload\n      tag_53\n      swap2\n      swap1\n      tag_54\n      jump\t// in\n    tag_53:\n      swap3\n      pop\n      pop\n      dup2\n      swap1\n      sstore\n      pop\n        /* \"contracts/FunctionModifier.sol\":794:854  function foo() external sandwich {... */\n      jump\t// out\n        /* \"#utility.yul\":7:146   */\n    tag_56:\n        /* \"#utility.yul\":53:58   */\n      0x00\n        /* \"#utility.yul\":91:97   */\n      dup2\n        /* \"#utility.yul\":78:98   */\n      calldataload\n        /* \"#utility.yul\":69:98   */\n      swap1\n      pop\n        /* \"#utility.yul\":107:140   */\n      tag_58\n        /* \"#utility.yul\":134:139   */\n      dup2\n        /* \"#utility.yul\":107:140   */\n      tag_59\n      jump\t// in\n    tag_58:\n        /* \"#utility.yul\":7:146   */\n      swap3\n      swap2\n      pop\n      pop\n      jump\t// out\n        /* \"#utility.yul\":152:481   */\n    tag_21:\n        /* \"#utility.yul\":211:217   */\n      0x00\n        /* \"#utility.yul\":260:262   */\n      0x20\n        /* \"#utility.yul\":248:257   */\n      dup3\n        /* \"#utility.yul\":239:246   */\n      dup5\n        /* \"#utility.yul\":235:258   */\n      sub\n        /* \"#utility.yul\":231:263   */\n      slt\n        /* \"#utility.yul\":228:347   */\n      iszero\n      tag_61\n      jumpi\n        /* \"#utility.yul\":266:345   */\n      tag_62\n      tag_63\n      jump\t// in\n    tag_62:\n        /* \"#utility.yul\":228:347   */\n    tag_61:\n        /* \"#utility.yul\":386:387   */\n      0x00\n        /* \"#utility.yul\":411:464   */\n      tag_64\n        /* \"#utility.yul\":456:463   */\n      dup5\n        /* \"#utility.yul\":447:453   */\n      dup3\n        /* \"#utility.yul\":436:445   */\n      dup6\n        /* \"#utility.yul\":432:454   */\n      add\n        /* \"#utility.yul\":411:464   */\n      tag_56\n      jump\t// in\n    tag_64:\n        /* \"#utility.yul\":401:464   */\n      swap2\n      pop\n        /* \"#utility.yul\":357:474   */\n      pop\n        /* \"#utility.yul\":152:481   */\n      swap3\n      swap2\n      pop\n      pop\n      jump\t// out\n        /* \"#utility.yul\":487:596   */\n    tag_65:\n        /* \"#utility.yul\":568:589   */\n      tag_67\n        /* \"#utility.yul\":583:588   */\n      dup2\n        /* \"#utility.yul\":568:589   */\n      tag_68\n      jump\t// in\n    tag_67:\n        /* \"#utility.yul\":563:566   */\n      dup3\n        /* \"#utility.yul\":556:590   */\n      mstore\n        /* \"#utility.yul\":487:596   */\n      pop\n      pop\n      jump\t// out\n        /* \"#utility.yul\":602:967   */\n    tag_69:\n        /* \"#utility.yul\":744:747   */\n      0x00\n        /* \"#utility.yul\":765:831   */\n      tag_71\n        /* \"#utility.yul\":829:830   */\n      0x05\n        /* \"#utility.yul\":824:827   */\n      dup4\n        /* \"#utility.yul\":765:831   */\n      tag_72\n      jump\t// in\n    tag_71:\n        /* \"#utility.yul\":758:831   */\n      swap2\n      pop\n        /* \"#utility.yul\":840:933   */\n      tag_73\n        /* \"#utility.yul\":929:932   */\n      dup3\n        /* \"#utility.yul\":840:933   */\n      tag_74\n      jump\t// in\n    tag_73:\n        /* \"#utility.yul\":958:960   */\n      0x20\n        /* \"#utility.yul\":953:956   */\n      dup3\n        /* \"#utility.yul\":949:961   */\n      add\n        /* \"#utility.yul\":942:961   */\n      swap1\n      pop\n        /* \"#utility.yul\":602:967   */\n      swap2\n      swap1\n      pop\n      jump\t// out\n        /* \"#utility.yul\":973:1339   */\n    tag_75:\n        /* \"#utility.yul\":1115:1118   */\n      0x00\n        /* \"#utility.yul\":1136:1203   */\n      tag_77\n        /* \"#utility.yul\":1200:1202   */\n      0x12\n        /* \"#utility.yul\":1195:1198   */\n      dup4\n        /* \"#utility.yul\":1136:1203   */\n      tag_72\n      jump\t// in\n    tag_77:\n        /* \"#utility.yul\":1129:1203   */\n      swap2\n      pop\n        /* \"#utility.yul\":1212:1305   */\n      tag_78\n        /* \"#utility.yul\":1301:1304   */\n      dup3\n        /* \"#utility.yul\":1212:1305   */\n      tag_79\n      jump\t// in\n    tag_78:\n        /* \"#utility.yul\":1330:1332   */\n      0x20\n        /* \"#utility.yul\":1325:1328   */\n      dup3\n        /* \"#utility.yul\":1321:1333   */\n      add\n        /* \"#utility.yul\":1314:1333   */\n      swap1\n      pop\n        /* \"#utility.yul\":973:1339   */\n      swap2\n      swap1\n      pop\n      jump\t// out\n        /* \"#utility.yul\":1345:1463   */\n    tag_80:\n        /* \"#utility.yul\":1432:1456   */\n      tag_82\n        /* \"#utility.yul\":1450:1455   */\n      dup2\n        /* \"#utility.yul\":1432:1456   */\n      tag_83\n      jump\t// in\n    tag_82:\n        /* \"#utility.yul\":1427:1430   */\n      dup3\n        /* \"#utility.yul\":1420:1457   */\n      mstore\n        /* \"#utility.yul\":1345:1463   */\n      pop\n      pop\n      jump\t// out\n        /* \"#utility.yul\":1469:1679   */\n    tag_18:\n        /* \"#utility.yul\":1556:1560   */\n      0x00\n        /* \"#utility.yul\":1594:1596   */\n      0x20\n        /* \"#utility.yul\":1583:1592   */\n      dup3\n        /* \"#utility.yul\":1579:1597   */\n      add\n        /* \"#utility.yul\":1571:1597   */\n      swap1\n      pop\n        /* \"#utility.yul\":1607:1672   */\n      tag_85\n        /* \"#utility.yul\":1669:1670   */\n      0x00\n        /* \"#utility.yul\":1658:1667   */\n      dup4\n        /* \"#utility.yul\":1654:1671   */\n      add\n        /* \"#utility.yul\":1645:1651   */\n      dup5\n        /* \"#utility.yul\":1607:1672   */\n      tag_65\n      jump\t// in\n    tag_85:\n        /* \"#utility.yul\":1469:1679   */\n      swap3\n      swap2\n      pop\n      pop\n      jump\t// out\n        /* \"#utility.yul\":1685:2104   */\n    tag_40:\n        /* \"#utility.yul\":1851:1855   */\n      0x00\n        /* \"#utility.yul\":1889:1891   */\n      0x20\n        /* \"#utility.yul\":1878:1887   */\n      dup3\n        /* \"#utility.yul\":1874:1892   */\n      add\n        /* \"#utility.yul\":1866:1892   */\n      swap1\n      pop\n        /* \"#utility.yul\":1938:1947   */\n      dup2\n        /* \"#utility.yul\":1932:1936   */\n      dup2\n        /* \"#utility.yul\":1928:1948   */\n      sub\n        /* \"#utility.yul\":1924:1925   */\n      0x00\n        /* \"#utility.yul\":1913:1922   */\n      dup4\n        /* \"#utility.yul\":1909:1926   */\n      add\n        /* \"#utility.yul\":1902:1949   */\n      mstore\n        /* \"#utility.yul\":1966:2097   */\n      tag_87\n        /* \"#utility.yul\":2092:2096   */\n      dup2\n        /* \"#utility.yul\":1966:2097   */\n      tag_69\n      jump\t// in\n    tag_87:\n        /* \"#utility.yul\":1958:2097   */\n      swap1\n      pop\n        /* \"#utility.yul\":1685:2104   */\n      swap2\n      swap1\n      pop\n      jump\t// out\n        /* \"#utility.yul\":2110:2529   */\n    tag_30:\n        /* \"#utility.yul\":2276:2280   */\n      0x00\n        /* \"#utility.yul\":2314:2316   */\n      0x20\n        /* \"#utility.yul\":2303:2312   */\n      dup3\n        /* \"#utility.yul\":2299:2317   */\n      add\n        /* \"#utility.yul\":2291:2317   */\n      swap1\n      pop\n        /* \"#utility.yul\":2363:2372   */\n      dup2\n        /* \"#utility.yul\":2357:2361   */\n      dup2\n        /* \"#utility.yul\":2353:2373   */\n      sub\n        /* \"#utility.yul\":2349:2350   */\n      0x00\n        /* \"#utility.yul\":2338:2347   */\n      dup4\n        /* \"#utility.yul\":2334:2351   */\n      add\n        /* \"#utility.yul\":2327:2374   */\n      mstore\n        /* \"#utility.yul\":2391:2522   */\n      tag_89\n        /* \"#utility.yul\":2517:2521   */\n      dup2\n        /* \"#utility.yul\":2391:2522   */\n      tag_75\n      jump\t// in\n    tag_89:\n        /* \"#utility.yul\":2383:2522   */\n      swap1\n      pop\n        /* \"#utility.yul\":2110:2529   */\n      swap2\n      swap1\n      pop\n      jump\t// out\n        /* \"#utility.yul\":2535:2757   */\n    tag_12:\n        /* \"#utility.yul\":2628:2632   */\n      0x00\n        /* \"#utility.yul\":2666:2668   */\n      0x20\n        /* \"#utility.yul\":2655:2664   */\n      dup3\n        /* \"#utility.yul\":2651:2669   */\n      add\n        /* \"#utility.yul\":2643:2669   */\n      swap1\n      pop\n        /* \"#utility.yul\":2679:2750   */\n      tag_91\n        /* \"#utility.yul\":2747:2748   */\n      0x00\n        /* \"#utility.yul\":2736:2745   */\n      dup4\n        /* \"#utility.yul\":2732:2749   */\n      add\n        /* \"#utility.yul\":2723:2729   */\n      dup5\n        /* \"#utility.yul\":2679:2750   */\n      tag_80\n      jump\t// in\n    tag_91:\n        /* \"#utility.yul\":2535:2757   */\n      swap3\n      swap2\n      pop\n      pop\n      jump\t// out\n        /* \"#utility.yul\":2844:3013   */\n    tag_72:\n        /* \"#utility.yul\":2928:2939   */\n      0x00\n        /* \"#utility.yul\":2962:2968   */\n      dup3\n        /* \"#utility.yul\":2957:2960   */\n      dup3\n        /* \"#utility.yul\":2950:2969   */\n      mstore\n        /* \"#utility.yul\":3002:3006   */\n      0x20\n        /* \"#utility.yul\":2997:3000   */\n      dup3\n        /* \"#utility.yul\":2993:3007   */\n      add\n        /* \"#utility.yul\":2978:3007   */\n      swap1\n      pop\n        /* \"#utility.yul\":2844:3013   */\n      swap3\n      swap2\n      pop\n      pop\n      jump\t// out\n        /* \"#utility.yul\":3019:3324   */\n    tag_33:\n        /* \"#utility.yul\":3059:3062   */\n      0x00\n        /* \"#utility.yul\":3078:3098   */\n      tag_96\n        /* \"#utility.yul\":3096:3097   */\n      dup3\n        /* \"#utility.yul\":3078:3098   */\n      tag_83\n      jump\t// in\n    tag_96:\n        /* \"#utility.yul\":3073:3098   */\n      swap2\n      pop\n        /* \"#utility.yul\":3112:3132   */\n      tag_97\n        /* \"#utility.yul\":3130:3131   */\n      dup4\n        /* \"#utility.yul\":3112:3132   */\n      tag_83\n      jump\t// in\n    tag_97:\n        /* \"#utility.yul\":3107:3132   */\n      swap3\n      pop\n        /* \"#utility.yul\":3266:3267   */\n      dup3\n        /* \"#utility.yul\":3198:3264   */\n      0xffffffffffffffffffffffffffffffffffffffffffffffffffffffffffffffff\n        /* \"#utility.yul\":3194:3268   */\n      sub\n        /* \"#utility.yul\":3191:3192   */\n      dup3\n        /* \"#utility.yul\":3188:3269   */\n      gt\n        /* \"#utility.yul\":3185:3292   */\n      iszero\n      tag_98\n      jumpi\n        /* \"#utility.yul\":3272:3290   */\n      tag_99\n      tag_100\n      jump\t// in\n    tag_99:\n        /* \"#utility.yul\":3185:3292   */\n    tag_98:\n        /* \"#utility.yul\":3316:3317   */\n      dup3\n        /* \"#utility.yul\":3313:3314   */\n      dup3\n        /* \"#utility.yul\":3309:3318   */\n      add\n        /* \"#utility.yul\":3302:3318   */\n      swap1\n      pop\n        /* \"#utility.yul\":3019:3324   */\n      swap3\n      swap2\n      pop\n      pop\n      jump\t// out\n        /* \"#utility.yul\":3330:3678   */\n    tag_54:\n        /* \"#utility.yul\":3370:3377   */\n      0x00\n        /* \"#utility.yul\":3393:3413   */\n      tag_102\n        /* \"#utility.yul\":3411:3412   */\n      dup3\n        /* \"#utility.yul\":3393:3413   */\n      tag_83\n      jump\t// in\n    tag_102:\n        /* \"#utility.yul\":3388:3413   */\n      swap2\n      pop\n        /* \"#utility.yul\":3427:3447   */\n      tag_103\n        /* \"#utility.yul\":3445:3446   */\n      dup4\n        /* \"#utility.yul\":3427:3447   */\n      tag_83\n      jump\t// in\n    tag_103:\n        /* \"#utility.yul\":3422:3447   */\n      swap3\n      pop\n        /* \"#utility.yul\":3615:3616   */\n      dup2\n        /* \"#utility.yul\":3547:3613   */\n      0xffffffffffffffffffffffffffffffffffffffffffffffffffffffffffffffff\n        /* \"#utility.yul\":3543:3617   */\n      div\n        /* \"#utility.yul\":3540:3541   */\n      dup4\n        /* \"#utility.yul\":3537:3618   */\n      gt\n        /* \"#utility.yul\":3532:3533   */\n      dup3\n        /* \"#utility.yul\":3525:3534   */\n      iszero\n        /* \"#utility.yul\":3518:3535   */\n      iszero\n        /* \"#utility.yul\":3514:3619   */\n      and\n        /* \"#utility.yul\":3511:3642   */\n      iszero\n      tag_104\n      jumpi\n        /* \"#utility.yul\":3622:3640   */\n      tag_105\n      tag_100\n      jump\t// in\n    tag_105:\n        /* \"#utility.yul\":3511:3642   */\n    tag_104:\n        /* \"#utility.yul\":3670:3671   */\n      dup3\n        /* \"#utility.yul\":3667:3668   */\n      dup3\n        /* \"#utility.yul\":3663:3672   */\n      mul\n        /* \"#utility.yul\":3652:3672   */\n      swap1\n      pop\n        /* \"#utility.yul\":3330:3678   */\n      swap3\n      swap2\n      pop\n      pop\n      jump\t// out\n        /* \"#utility.yul\":3684:3875   */\n    tag_48:\n        /* \"#utility.yul\":3724:3728   */\n      0x00\n        /* \"#utility.yul\":3744:3764   */\n      tag_107\n        /* \"#utility.yul\":3762:3763   */\n      dup3\n        /* \"#utility.yul\":3744:3764   */\n      tag_83\n      jump\t// in\n    tag_107:\n        /* \"#utility.yul\":3739:3764   */\n      swap2\n      pop\n        /* \"#utility.yul\":3778:3798   */\n      tag_108\n        /* \"#utility.yul\":3796:3797   */\n      dup4\n        /* \"#utility.yul\":3778:3798   */\n      tag_83\n      jump\t// in\n    tag_108:\n        /* \"#utility.yul\":3773:3798   */\n      swap3\n      pop\n        /* \"#utility.yul\":3817:3818   */\n      dup3\n        /* \"#utility.yul\":3814:3815   */\n      dup3\n        /* \"#utility.yul\":3811:3819   */\n      lt\n        /* \"#utility.yul\":3808:3842   */\n      iszero\n      tag_109\n      jumpi\n        /* \"#utility.yul\":3822:3840   */\n      tag_110\n      tag_100\n      jump\t// in\n    tag_110:\n        /* \"#utility.yul\":3808:3842   */\n    tag_109:\n        /* \"#utility.yul\":3867:3868   */\n      dup3\n        /* \"#utility.yul\":3864:3865   */\n      dup3\n        /* \"#utility.yul\":3860:3869   */\n      sub\n        /* \"#utility.yul\":3852:3869   */\n      swap1\n      pop\n        /* \"#utility.yul\":3684:3875   */\n      swap3\n      swap2\n      pop\n      pop\n      jump\t// out\n        /* \"#utility.yul\":3881:3971   */\n    tag_68:\n        /* \"#utility.yul\":3915:3922   */\n      0x00\n        /* \"#utility.yul\":3958:3963   */\n      dup2\n        /* \"#utility.yul\":3951:3964   */\n      iszero\n        /* \"#utility.yul\":3944:3965   */\n      iszero\n        /* \"#utility.yul\":3933:3965   */\n      swap1\n      pop\n        /* \"#utility.yul\":3881:3971   */\n      swap2\n      swap1\n      pop\n      jump\t// out\n        /* \"#utility.yul\":3977:4054   */\n    tag_83:\n        /* \"#utility.yul\":4014:4021   */\n      0x00\n        /* \"#utility.yul\":4043:4048   */\n      dup2\n        /* \"#utility.yul\":4032:4048   */\n      swap1\n      pop\n        /* \"#utility.yul\":3977:4054   */\n      swap2\n      swap1\n      pop\n      jump\t// out\n        /* \"#utility.yul\":4060:4240   */\n    tag_100:\n        /* \"#utility.yul\":4108:4185   */\n      0x4e487b7100000000000000000000000000000000000000000000000000000000\n        /* \"#utility.yul\":4105:4106   */\n      0x00\n        /* \"#utility.yul\":4098:4186   */\n      mstore\n        /* \"#utility.yul\":4205:4209   */\n      0x11\n        /* \"#utility.yul\":4202:4203   */\n      0x04\n        /* \"#utility.yul\":4195:4210   */\n      mstore\n        /* \"#utility.yul\":4229:4233   */\n      0x24\n        /* \"#utility.yul\":4226:4227   */\n      0x00\n        /* \"#utility.yul\":4219:4234   */\n      revert\n        /* \"#utility.yul\":4369:4486   */\n    tag_63:\n        /* \"#utility.yul\":4478:4479   */\n      0x00\n        /* \"#utility.yul\":4475:4476   */\n      dup1\n        /* \"#utility.yul\":4468:4480   */\n      revert\n        /* \"#utility.yul\":4492:4647   */\n    tag_74:\n        /* \"#utility.yul\":4632:4639   */\n      0x783e313030000000000000000000000000000000000000000000000000000000\n        /* \"#utility.yul\":4628:4629   */\n      0x00\n        /* \"#utility.yul\":4620:4626   */\n      dup3\n        /* \"#utility.yul\":4616:4630   */\n      add\n        /* \"#utility.yul\":4609:4640   */\n      mstore\n        /* \"#utility.yul\":4492:4647   */\n      pop\n      jump\t// out\n        /* \"#utility.yul\":4653:4821   */\n    tag_79:\n        /* \"#utility.yul\":4793:4813   */\n      0x436f6e7472616374206973207061757365640000000000000000000000000000\n        /* \"#utility.yul\":4789:4790   */\n      0x00\n        /* \"#utility.yul\":4781:4787   */\n      dup3\n        /* \"#utility.yul\":4777:4791   */\n      add\n        /* \"#utility.yul\":4770:4814   */\n      mstore\n        /* \"#utility.yul\":4653:4821   */\n      pop\n      jump\t// out\n        /* \"#utility.yul\":4827:4949   */\n    tag_59:\n        /* \"#utility.yul\":4900:4924   */\n      tag_120\n        /* \"#utility.yul\":4918:4923   */\n      dup2\n        /* \"#utility.yul\":4900:4924   */\n      tag_83\n      jump\t// in\n    tag_120:\n        /* \"#utility.yul\":4893:4898   */\n      dup2\n        /* \"#utility.yul\":4890:4925   */\n      eq\n        /* \"#utility.yul\":4880:4943   */\n      tag_121\n      jumpi\n        /* \"#utility.yul\":4939:4940   */\n      0x00\n        /* \"#utility.yul\":4936:4937   */\n      dup1\n        /* \"#utility.yul\":4929:4941   */\n      revert\n        /* \"#utility.yul\":4880:4943   */\n    tag_121:\n        /* \"#utility.yul\":4827:4949   */\n      pop\n      jump\t// out\n\n    auxdata: 0xa26469706673582212205f79155f98a288fed628140d714dee3999bd66df5c9012157e4282d4e8d771ed64736f6c63430008070033\n}\n",
				"bytecode": {
					"linkReferences": {},
					"object": "608060405234801561001057600080fd5b506105bd806100206000396000f3fe608060405234801561001057600080fd5b50600436106100625760003560e01c806306661abd14610067578063371303c0146100855780635c975abb1461008f57806370119d06146100ad578063b3bcfa82146100c9578063c2985578146100d3575b600080fd5b61006f6100dd565b60405161007c91906103c4565b60405180910390f35b61008d6100e3565b005b61009761014c565b6040516100a49190610369565b60405180910390f35b6100c760048036038101906100c291906102d8565b61015d565b005b6100d161020c565b005b6100db610275565b005b60015481565b60008054906101000a900460ff1615610131576040517f08c379a0000000000000000000000000000000000000000000000000000000008152600401610128906103a4565b60405180910390fd5b600180600082825461014391906103f0565b92505081905550565b60008054906101000a900460ff1681565b60008054906101000a900460ff16156101ab576040517f08c379a00000000000000000000000000000000000000000000000000000000081526004016101a2906103a4565b60405180910390fd5b80606481106101ef576040517f08c379a00000000000000000000000000000000000000000000000000000000081526004016101e690610384565b60405180910390fd5b816001600082825461020191906103f0565b925050819055505050565b60008054906101000a900460ff161561025a576040517f08c379a0000000000000000000000000000000000000000000000000000000008152600401610251906103a4565b60405180910390fd5b600180600082825461026c91906104a0565b92505081905550565b600180600082825461028791906103f0565b9250508190555060018060008282546102a091906103f0565b925050819055506002600160008282546102ba9190610446565b92505081905550565b6000813590506102d281610570565b92915050565b6000602082840312156102ee576102ed610519565b5b60006102fc848285016102c3565b91505092915050565b61030e816104d4565b82525050565b60006103216005836103df565b915061032c8261051e565b602082019050919050565b60006103446012836103df565b915061034f82610547565b602082019050919050565b610363816104e0565b82525050565b600060208201905061037e6000830184610305565b92915050565b6000602082019050818103600083015261039d81610314565b9050919050565b600060208201905081810360008301526103bd81610337565b9050919050565b60006020820190506103d9600083018461035a565b92915050565b600082825260208201905092915050565b60006103fb826104e0565b9150610406836104e0565b9250827fffffffffffffffffffffffffffffffffffffffffffffffffffffffffffffffff0382111561043b5761043a6104ea565b5b828201905092915050565b6000610451826104e0565b915061045c836104e0565b9250817fffffffffffffffffffffffffffffffffffffffffffffffffffffffffffffffff0483118215151615610495576104946104ea565b5b828202905092915050565b60006104ab826104e0565b91506104b6836104e0565b9250828210156104c9576104c86104ea565b5b828203905092915050565b60008115159050919050565b6000819050919050565b7f4e487b7100000000000000000000000000000000000000000000000000000000600052601160045260246000fd5b600080fd5b7f783e313030000000000000000000000000000000000000000000000000000000600082015250565b7f436f6e7472616374206973207061757365640000000000000000000000000000600082015250565b610579816104e0565b811461058457600080fd5b5056fea26469706673582212205f79155f98a288fed628140d714dee3999bd66df5c9012157e4282d4e8d771ed64736f6c63430008070033",
					"opcodes": "PUSH1 0x80 PUSH1 0x40 MSTORE CALLVALUE DUP1 ISZERO PUSH2 0x10 JUMPI PUSH1 0x0 DUP1 REVERT JUMPDEST POP PUSH2 0x5BD DUP1 PUSH2 0x20 PUSH1 0x0 CODECOPY PUSH1 0x0 RETURN INVALID PUSH1 0x80 PUSH1 0x40 MSTORE CALLVALUE DUP1 ISZERO PUSH2 0x10 JUMPI PUSH1 0x0 DUP1 REVERT JUMPDEST POP PUSH1 0x4 CALLDATASIZE LT PUSH2 0x62 JUMPI PUSH1 0x0 CALLDATALOAD PUSH1 0xE0 SHR DUP1 PUSH4 0x6661ABD EQ PUSH2 0x67 JUMPI DUP1 PUSH4 0x371303C0 EQ PUSH2 0x85 JUMPI DUP1 PUSH4 0x5C975ABB EQ PUSH2 0x8F JUMPI DUP1 PUSH4 0x70119D06 EQ PUSH2 0xAD JUMPI DUP1 PUSH4 0xB3BCFA82 EQ PUSH2 0xC9 JUMPI DUP1 PUSH4 0xC2985578 EQ PUSH2 0xD3 JUMPI JUMPDEST PUSH1 0x0 DUP1 REVERT JUMPDEST PUSH2 0x6F PUSH2 0xDD JUMP JUMPDEST PUSH1 0x40 MLOAD PUSH2 0x7C SWAP2 SWAP1 PUSH2 0x3C4 JUMP JUMPDEST PUSH1 0x40 MLOAD DUP1 SWAP2 SUB SWAP1 RETURN JUMPDEST PUSH2 0x8D PUSH2 0xE3 JUMP JUMPDEST STOP JUMPDEST PUSH2 0x97 PUSH2 0x14C JUMP JUMPDEST PUSH1 0x40 MLOAD PUSH2 0xA4 SWAP2 SWAP1 PUSH2 0x369 JUMP JUMPDEST PUSH1 0x40 MLOAD DUP1 SWAP2 SUB SWAP1 RETURN JUMPDEST PUSH2 0xC7 PUSH1 0x4 DUP1 CALLDATASIZE SUB DUP2 ADD SWAP1 PUSH2 0xC2 SWAP2 SWAP1 PUSH2 0x2D8 JUMP JUMPDEST PUSH2 0x15D JUMP JUMPDEST STOP JUMPDEST PUSH2 0xD1 PUSH2 0x20C JUMP JUMPDEST STOP JUMPDEST PUSH2 0xDB PUSH2 0x275 JUMP JUMPDEST STOP JUMPDEST PUSH1 0x1 SLOAD DUP2 JUMP JUMPDEST PUSH1 0x0 DUP1 SLOAD SWAP1 PUSH2 0x100 EXP SWAP1 DIV PUSH1 0xFF AND ISZERO PUSH2 0x131 JUMPI PUSH1 0x40 MLOAD PUSH32 0x8C379A000000000000000000000000000000000000000000000000000000000 DUP2 MSTORE PUSH1 0x4 ADD PUSH2 0x128 SWAP1 PUSH2 0x3A4 JUMP JUMPDEST PUSH1 0x40 MLOAD DUP1 SWAP2 SUB SWAP1 REVERT JUMPDEST PUSH1 0x1 DUP1 PUSH1 0x0 DUP3 DUP3 SLOAD PUSH2 0x143 SWAP2 SWAP1 PUSH2 0x3F0 JUMP JUMPDEST SWAP3 POP POP DUP2 SWAP1 SSTORE POP JUMP JUMPDEST PUSH1 0x0 DUP1 SLOAD SWAP1 PUSH2 0x100 EXP SWAP1 DIV PUSH1 0xFF AND DUP2 JUMP JUMPDEST PUSH1 0x0 DUP1 SLOAD SWAP1 PUSH2 0x100 EXP SWAP1 DIV PUSH1 0xFF AND ISZERO PUSH2 0x1AB JUMPI PUSH1 0x40 MLOAD PUSH32 0x8C379A000000000000000000000000000000000000000000000000000000000 DUP2 MSTORE PUSH1 0x4 ADD PUSH2 0x1A2 SWAP1 PUSH2 0x3A4 JUMP JUMPDEST PUSH1 0x40 MLOAD DUP1 SWAP2 SUB SWAP1 REVERT JUMPDEST DUP1 PUSH1 0x64 DUP2 LT PUSH2 0x1EF JUMPI PUSH1 0x40 MLOAD PUSH32 0x8C379A000000000000000000000000000000000000000000000000000000000 DUP2 MSTORE PUSH1 0x4 ADD PUSH2 0x1E6 SWAP1 PUSH2 0x384 JUMP JUMPDEST PUSH1 0x40 MLOAD DUP1 SWAP2 SUB SWAP1 REVERT JUMPDEST DUP2 PUSH1 0x1 PUSH1 0x0 DUP3 DUP3 SLOAD PUSH2 0x201 SWAP2 SWAP1 PUSH2 0x3F0 JUMP JUMPDEST SWAP3 POP POP DUP2 SWAP1 SSTORE POP POP POP JUMP JUMPDEST PUSH1 0x0 DUP1 SLOAD SWAP1 PUSH2 0x100 EXP SWAP1 DIV PUSH1 0xFF AND ISZERO PUSH2 0x25A JUMPI PUSH1 0x40 MLOAD PUSH32 0x8C379A000000000000000000000000000000000000000000000000000000000 DUP2 MSTORE PUSH1 0x4 ADD PUSH2 0x251 SWAP1 PUSH2 0x3A4 JUMP JUMPDEST PUSH1 0x40 MLOAD DUP1 SWAP2 SUB SWAP1 REVERT JUMPDEST PUSH1 0x1 DUP1 PUSH1 0x0 DUP3 DUP3 SLOAD PUSH2 0x26C SWAP2 SWAP1 PUSH2 0x4A0 JUMP JUMPDEST SWAP3 POP POP DUP2 SWAP1 SSTORE POP JUMP JUMPDEST PUSH1 0x1 DUP1 PUSH1 0x0 DUP3 DUP3 SLOAD PUSH2 0x287 SWAP2 SWAP1 PUSH2 0x3F0 JUMP JUMPDEST SWAP3 POP POP DUP2 SWAP1 SSTORE POP PUSH1 0x1 DUP1 PUSH1 0x0 DUP3 DUP3 SLOAD PUSH2 0x2A0 SWAP2 SWAP1 PUSH2 0x3F0 JUMP JUMPDEST SWAP3 POP POP DUP2 SWAP1 SSTORE POP PUSH1 0x2 PUSH1 0x1 PUSH1 0x0 DUP3 DUP3 SLOAD PUSH2 0x2BA SWAP2 SWAP1 PUSH2 0x446 JUMP JUMPDEST SWAP3 POP POP DUP2 SWAP1 SSTORE POP JUMP JUMPDEST PUSH1 0x0 DUP2 CALLDATALOAD SWAP1 POP PUSH2 0x2D2 DUP2 PUSH2 0x570 JUMP JUMPDEST SWAP3 SWAP2 POP POP JUMP JUMPDEST PUSH1 0x0 PUSH1 0x20 DUP3 DUP5 SUB SLT ISZERO PUSH2 0x2EE JUMPI PUSH2 0x2ED PUSH2 0x519 JUMP JUMPDEST JUMPDEST PUSH1 0x0 PUSH2 0x2FC DUP5 DUP3 DUP6 ADD PUSH2 0x2C3 JUMP JUMPDEST SWAP2 POP POP SWAP3 SWAP2 POP POP JUMP JUMPDEST PUSH2 0x30E DUP2 PUSH2 0x4D4 JUMP JUMPDEST DUP3 MSTORE POP POP JUMP JUMPDEST PUSH1 0x0 PUSH2 0x321 PUSH1 0x5 DUP4 PUSH2 0x3DF JUMP JUMPDEST SWAP2 POP PUSH2 0x32C DUP3 PUSH2 0x51E JUMP JUMPDEST PUSH1 0x20 DUP3 ADD SWAP1 POP SWAP2 SWAP1 POP JUMP JUMPDEST PUSH1 0x0 PUSH2 0x344 PUSH1 0x12 DUP4 PUSH2 0x3DF JUMP JUMPDEST SWAP2 POP PUSH2 0x34F DUP3 PUSH2 0x547 JUMP JUMPDEST PUSH1 0x20 DUP3 ADD SWAP1 POP SWAP2 SWAP1 POP JUMP JUMPDEST PUSH2 0x363 DUP2 PUSH2 0x4E0 JUMP JUMPDEST DUP3 MSTORE POP POP JUMP JUMPDEST PUSH1 0x0 PUSH1 0x20 DUP3 ADD SWAP1 POP PUSH2 0x37E PUSH1 0x0 DUP4 ADD DUP5 PUSH2 0x305 JUMP JUMPDEST SWAP3 SWAP2 POP POP JUMP JUMPDEST PUSH1 0x0 PUSH1 0x20 DUP3 ADD SWAP1 POP DUP2 DUP2 SUB PUSH1 0x0 DUP4 ADD MSTORE PUSH2 0x39D DUP2 PUSH2 0x314 JUMP JUMPDEST SWAP1 POP SWAP2 SWAP1 POP JUMP JUMPDEST PUSH1 0x0 PUSH1 0x20 DUP3 ADD SWAP1 POP DUP2 DUP2 SUB PUSH1 0x0 DUP4 ADD MSTORE PUSH2 0x3BD DUP2 PUSH2 0x337 JUMP JUMPDEST SWAP1 POP SWAP2 SWAP1 POP JUMP JUMPDEST PUSH1 0x0 PUSH1 0x20 DUP3 ADD SWAP1 POP PUSH2 0x3D9 PUSH1 0x0 DUP4 ADD DUP5 PUSH2 0x35A JUMP JUMPDEST SWAP3 SWAP2 POP POP JUMP JUMPDEST PUSH1 0x0 DUP3 DUP3 MSTORE PUSH1 0x20 DUP3 ADD SWAP1 POP SWAP3 SWAP2 POP POP JUMP JUMPDEST PUSH1 0x0 PUSH2 0x3FB DUP3 PUSH2 0x4E0 JUMP JUMPDEST SWAP2 POP PUSH2 0x406 DUP4 PUSH2 0x4E0 JUMP JUMPDEST SWAP3 POP DUP3 PUSH32 0xFFFFFFFFFFFFFFFFFFFFFFFFFFFFFFFFFFFFFFFFFFFFFFFFFFFFFFFFFFFFFFFF SUB DUP3 GT ISZERO PUSH2 0x43B JUMPI PUSH2 0x43A PUSH2 0x4EA JUMP JUMPDEST JUMPDEST DUP3 DUP3 ADD SWAP1 POP SWAP3 SWAP2 POP POP JUMP JUMPDEST PUSH1 0x0 PUSH2 0x451 DUP3 PUSH2 0x4E0 JUMP JUMPDEST SWAP2 POP PUSH2 0x45C DUP4 PUSH2 0x4E0 JUMP JUMPDEST SWAP3 POP DUP2 PUSH32 0xFFFFFFFFFFFFFFFFFFFFFFFFFFFFFFFFFFFFFFFFFFFFFFFFFFFFFFFFFFFFFFFF DIV DUP4 GT DUP3 ISZERO ISZERO AND ISZERO PUSH2 0x495 JUMPI PUSH2 0x494 PUSH2 0x4EA JUMP JUMPDEST JUMPDEST DUP3 DUP3 MUL SWAP1 POP SWAP3 SWAP2 POP POP JUMP JUMPDEST PUSH1 0x0 PUSH2 0x4AB DUP3 PUSH2 0x4E0 JUMP JUMPDEST SWAP2 POP PUSH2 0x4B6 DUP4 PUSH2 0x4E0 JUMP JUMPDEST SWAP3 POP DUP3 DUP3 LT ISZERO PUSH2 0x4C9 JUMPI PUSH2 0x4C8 PUSH2 0x4EA JUMP JUMPDEST JUMPDEST DUP3 DUP3 SUB SWAP1 POP SWAP3 SWAP2 POP POP JUMP JUMPDEST PUSH1 0x0 DUP2 ISZERO ISZERO SWAP1 POP SWAP2 SWAP1 POP JUMP JUMPDEST PUSH1 0x0 DUP2 SWAP1 POP SWAP2 SWAP1 POP JUMP JUMPDEST PUSH32 0x4E487B7100000000000000000000000000000000000000000000000000000000 PUSH1 0x0 MSTORE PUSH1 0x11 PUSH1 0x4 MSTORE PUSH1 0x24 PUSH1 0x0 REVERT JUMPDEST PUSH1 0x0 DUP1 REVERT JUMPDEST PUSH32 0x783E313030000000000000000000000000000000000000000000000000000000 PUSH1 0x0 DUP3 ADD MSTORE POP JUMP JUMPDEST PUSH32 0x436F6E7472616374206973207061757365640000000000000000000000000000 PUSH1 0x0 DUP3 ADD MSTORE POP JUMP JUMPDEST PUSH2 0x579 DUP2 PUSH2 0x4E0 JUMP JUMPDEST DUP2 EQ PUSH2 0x584 JUMPI PUSH1 0x0 DUP1 REVERT JUMPDEST POP JUMP INVALID LOG2 PUSH5 0x6970667358 0x22 SLT KECCAK256 0x5F PUSH26 0x155F98A288FED628140D714DEE3999BD66DF5C9012157E4282D4 0xE8 0xD7 PUSH18 0xED64736F6C63430008070033000000000000 "
				},
				"gasEstimates": {
					"creation": {
						"codeDepositCost": "293800",
						"executionCost": "331",
						"totalCost": "294131"
					},
					"external": {
						"count()": "2407",
						"dec()": "infinite",
						"foo()": "infinite",
						"inc()": "infinite",
						"incBy(uint256)": "infinite",
						"paused()": "2490"
					}
				},
				"methodIdentifiers": {
					"count()": "06661abd",
					"dec()": "b3bcfa82",
					"foo()": "c2985578",
					"inc()": "371303c0",
					"incBy(uint256)": "70119d06",
					"paused()": "5c975abb"
				}
			},
			"storageLayout": {
				"storage": [
					{
						"astId": 3,
						"contract": "contracts/FunctionModifier.sol:FunctionModifier",
						"label": "paused",
						"offset": 0,
						"slot": "0",
						"type": "t_bool"
					},
					{
						"astId": 5,
						"contract": "contracts/FunctionModifier.sol:FunctionModifier",
						"label": "count",
						"offset": 0,
						"slot": "1",
						"type": "t_uint256"
					}
				],
				"types": {
					"t_bool": {
						"encoding": "inplace",
						"label": "bool",
						"numberOfBytes": "1"
					},
					"t_uint256": {
						"encoding": "inplace",
						"label": "uint256",
						"numberOfBytes": "32"
					}
				}
			},
			"userdoc": {
				"kind": "user",
				"methods": {},
				"version": 1
			}
		}
	}
}