{
	"contracts/ParentConstructors.sol": {
		"B2": {
			"abi": [
				{
					"inputs": [
						{
							"internalType": "string",
							"name": "_name",
							"type": "string"
						},
						{
							"internalType": "string",
							"name": "_text",
							"type": "string"
						}
					],
					"stateMutability": "nonpayable",
					"type": "constructor"
				},
				{
					"anonymous": false,
					"inputs": [
						{
							"indexed": false,
							"internalType": "string",
							"name": "message",
							"type": "string"
						}
					],
					"name": "Log",
					"type": "event"
				},
				{
					"anonymous": false,
					"inputs": [
						{
							"indexed": false,
							"internalType": "string",
							"name": "message",
							"type": "string"
						}
					],
					"name": "Log2",
					"type": "event"
				},
				{
					"inputs": [],
					"name": "name",
					"outputs": [
						{
							"internalType": "string",
							"name": "",
							"type": "string"
						}
					],
					"stateMutability": "view",
					"type": "function"
				},
				{
					"inputs": [],
					"name": "text",
					"outputs": [
						{
							"internalType": "string",
							"name": "",
							"type": "string"
						}
					],
					"stateMutability": "view",
					"type": "function"
				}
			],
			"devdoc": {
				"kind": "dev",
				"methods": {},
				"version": 1
			},
			"evm": {
				"assembly": "    /* \"contracts/ParentConstructors.sol\":1869:2021  contract B2 is T, S {... */\n  mstore(0x40, 0x80)\n    /* \"contracts/ParentConstructors.sol\":1895:2019  constructor(string memory _name, string memory _text) S(_name) T(_text) {... */\n  callvalue\n  dup1\n  iszero\n  tag_1\n  jumpi\n  0x00\n  dup1\n  revert\ntag_1:\n  pop\n  mload(0x40)\n  sub(codesize, bytecodeSize)\n  dup1\n  bytecodeSize\n  dup4\n  codecopy\n  dup2\n  dup2\n  add\n  0x40\n  mstore\n  dup2\n  add\n  swap1\n  tag_2\n  swap2\n  swap1\n  tag_3\n  jump\t// in\ntag_2:\n    /* \"contracts/ParentConstructors.sol\":1951:1956  _name */\n  dup2\n    /* \"contracts/ParentConstructors.sol\":1960:1965  _text */\n  dup2\n    /* \"contracts/ParentConstructors.sol\":1373:1378  _text */\n  dup1\n    /* \"contracts/ParentConstructors.sol\":1366:1370  text */\n  0x00\n    /* \"contracts/ParentConstructors.sol\":1366:1378  text = _text */\n  swap1\n  dup1\n  mload\n  swap1\n  0x20\n  add\n  swap1\n  tag_8\n  swap3\n  swap2\n  swap1\n  tag_9\n  jump\t// in\ntag_8:\n  pop\n    /* \"contracts/ParentConstructors.sol\":1393:1423  Log2(\"Constructor T executed\") */\n  0x16783dda8fe899b47fa72274509d788dc4b657c9628a27189a81f451725e7de2\n  mload(0x40)\n  tag_10\n  swap1\n  tag_11\n  jump\t// in\ntag_10:\n  mload(0x40)\n  dup1\n  swap2\n  sub\n  swap1\n  log1\n    /* \"contracts/ParentConstructors.sol\":1323:1430  constructor(string memory _text) {... */\n  pop\n    /* \"contracts/ParentConstructors.sol\":1190:1195  _name */\n  dup1\n    /* \"contracts/ParentConstructors.sol\":1183:1187  name */\n  0x01\n    /* \"contracts/ParentConstructors.sol\":1183:1195  name = _name */\n  swap1\n  dup1\n  mload\n  swap1\n  0x20\n  add\n  swap1\n  tag_13\n  swap3\n  swap2\n  swap1\n  tag_9\n  jump\t// in\ntag_13:\n  pop\n    /* \"contracts/ParentConstructors.sol\":1210:1239  Log(\"Constructor S executed\") */\n  0xcf34ef537ac33ee1ac626ca1587a0a7e8e51561e5514f8cb36afa1c5102b3bab\n  mload(0x40)\n  tag_14\n  swap1\n  tag_15\n  jump\t// in\ntag_14:\n  mload(0x40)\n  dup1\n  swap2\n  sub\n  swap1\n  log1\n    /* \"contracts/ParentConstructors.sol\":1140:1246  constructor(string memory _name) {... */\n  pop\n    /* \"contracts/ParentConstructors.sol\":1982:2012  Log(\"Constructor B2 executed\") */\n  0xcf34ef537ac33ee1ac626ca1587a0a7e8e51561e5514f8cb36afa1c5102b3bab\n  mload(0x40)\n  tag_17\n  swap1\n  tag_18\n  jump\t// in\ntag_17:\n  mload(0x40)\n  dup1\n  swap2\n  sub\n  swap1\n  log1\n    /* \"contracts/ParentConstructors.sol\":1895:2019  constructor(string memory _name, string memory _text) S(_name) T(_text) {... */\n  pop\n  pop\n    /* \"contracts/ParentConstructors.sol\":1869:2021  contract B2 is T, S {... */\n  jump(tag_19)\ntag_9:\n  dup3\n  dup1\n  sload\n  tag_20\n  swap1\n  tag_21\n  jump\t// in\ntag_20:\n  swap1\n  0x00\n  mstore\n  keccak256(0x00, 0x20)\n  swap1\n  0x1f\n  add\n  0x20\n  swap1\n  div\n  dup2\n  add\n  swap3\n  dup3\n  tag_23\n  jumpi\n  0x00\n  dup6\n  sstore\n  jump(tag_22)\ntag_23:\n  dup3\n  0x1f\n  lt\n  tag_24\n  jumpi\n  dup1\n  mload\n  not(0xff)\n  and\n  dup4\n  dup1\n  add\n  or\n  dup6\n  sstore\n  jump(tag_22)\ntag_24:\n  dup3\n  dup1\n  add\n  0x01\n  add\n  dup6\n  sstore\n  dup3\n  iszero\n  tag_22\n  jumpi\n  swap2\n  dup3\n  add\ntag_25:\n  dup3\n  dup2\n  gt\n  iszero\n  tag_26\n  jumpi\n  dup3\n  mload\n  dup3\n  sstore\n  swap2\n  0x20\n  add\n  swap2\n  swap1\n  0x01\n  add\n  swap1\n  jump(tag_25)\ntag_26:\ntag_22:\n  pop\n  swap1\n  pop\n  tag_27\n  swap2\n  swap1\n  tag_28\n  jump\t// in\ntag_27:\n  pop\n  swap1\n  jump\t// out\ntag_28:\ntag_29:\n  dup1\n  dup3\n  gt\n  iszero\n  tag_30\n  jumpi\n  0x00\n  dup2\n  0x00\n  swap1\n  sstore\n  pop\n  0x01\n  add\n  jump(tag_29)\ntag_30:\n  pop\n  swap1\n  jump\t// out\n    /* \"#utility.yul\":7:428   */\ntag_32:\n    /* \"#utility.yul\":96:101   */\n  0x00\n    /* \"#utility.yul\":121:187   */\n  tag_34\n    /* \"#utility.yul\":137:186   */\n  tag_35\n    /* \"#utility.yul\":179:185   */\n  dup5\n    /* \"#utility.yul\":137:186   */\n  tag_36\n  jump\t// in\ntag_35:\n    /* \"#utility.yul\":121:187   */\n  tag_37\n  jump\t// in\ntag_34:\n    /* \"#utility.yul\":112:187   */\n  swap1\n  pop\n    /* \"#utility.yul\":210:216   */\n  dup3\n    /* \"#utility.yul\":203:208   */\n  dup2\n    /* \"#utility.yul\":196:217   */\n  mstore\n    /* \"#utility.yul\":248:252   */\n  0x20\n    /* \"#utility.yul\":241:246   */\n  dup2\n    /* \"#utility.yul\":237:253   */\n  add\n    /* \"#utility.yul\":286:289   */\n  dup5\n    /* \"#utility.yul\":277:283   */\n  dup5\n    /* \"#utility.yul\":272:275   */\n  dup5\n    /* \"#utility.yul\":268:284   */\n  add\n    /* \"#utility.yul\":265:290   */\n  gt\n    /* \"#utility.yul\":262:374   */\n  iszero\n  tag_38\n  jumpi\n    /* \"#utility.yul\":293:372   */\n  tag_39\n  tag_40\n  jump\t// in\ntag_39:\n    /* \"#utility.yul\":262:374   */\ntag_38:\n    /* \"#utility.yul\":383:422   */\n  tag_41\n    /* \"#utility.yul\":415:421   */\n  dup5\n    /* \"#utility.yul\":410:413   */\n  dup3\n    /* \"#utility.yul\":405:408   */\n  dup6\n    /* \"#utility.yul\":383:422   */\n  tag_42\n  jump\t// in\ntag_41:\n    /* \"#utility.yul\":102:428   */\n  pop\n    /* \"#utility.yul\":7:428   */\n  swap4\n  swap3\n  pop\n  pop\n  pop\n  jump\t// out\n    /* \"#utility.yul\":448:803   */\ntag_43:\n    /* \"#utility.yul\":515:520   */\n  0x00\n    /* \"#utility.yul\":564:567   */\n  dup3\n    /* \"#utility.yul\":557:561   */\n  0x1f\n    /* \"#utility.yul\":549:555   */\n  dup4\n    /* \"#utility.yul\":545:562   */\n  add\n    /* \"#utility.yul\":541:568   */\n  slt\n    /* \"#utility.yul\":531:653   */\n  tag_45\n  jumpi\n    /* \"#utility.yul\":572:651   */\n  tag_46\n  tag_47\n  jump\t// in\ntag_46:\n    /* \"#utility.yul\":531:653   */\ntag_45:\n    /* \"#utility.yul\":682:688   */\n  dup2\n    /* \"#utility.yul\":676:689   */\n  mload\n    /* \"#utility.yul\":707:797   */\n  tag_48\n    /* \"#utility.yul\":793:796   */\n  dup5\n    /* \"#utility.yul\":785:791   */\n  dup3\n    /* \"#utility.yul\":778:782   */\n  0x20\n    /* \"#utility.yul\":770:776   */\n  dup7\n    /* \"#utility.yul\":766:783   */\n  add\n    /* \"#utility.yul\":707:797   */\n  tag_32\n  jump\t// in\ntag_48:\n    /* \"#utility.yul\":698:797   */\n  swap2\n  pop\n    /* \"#utility.yul\":521:803   */\n  pop\n    /* \"#utility.yul\":448:803   */\n  swap3\n  swap2\n  pop\n  pop\n  jump\t// out\n    /* \"#utility.yul\":809:1662   */\ntag_3:\n    /* \"#utility.yul\":908:914   */\n  0x00\n    /* \"#utility.yul\":916:922   */\n  dup1\n    /* \"#utility.yul\":965:967   */\n  0x40\n    /* \"#utility.yul\":953:962   */\n  dup4\n    /* \"#utility.yul\":944:951   */\n  dup6\n    /* \"#utility.yul\":940:963   */\n  sub\n    /* \"#utility.yul\":936:968   */\n  slt\n    /* \"#utility.yul\":933:1052   */\n  iszero\n  tag_50\n  jumpi\n    /* \"#utility.yul\":971:1050   */\n  tag_51\n  tag_52\n  jump\t// in\ntag_51:\n    /* \"#utility.yul\":933:1052   */\ntag_50:\n    /* \"#utility.yul\":1112:1113   */\n  0x00\n    /* \"#utility.yul\":1101:1110   */\n  dup4\n    /* \"#utility.yul\":1097:1114   */\n  add\n    /* \"#utility.yul\":1091:1115   */\n  mload\n    /* \"#utility.yul\":1142:1160   */\n  0xffffffffffffffff\n    /* \"#utility.yul\":1134:1140   */\n  dup2\n    /* \"#utility.yul\":1131:1161   */\n  gt\n    /* \"#utility.yul\":1128:1245   */\n  iszero\n  tag_53\n  jumpi\n    /* \"#utility.yul\":1164:1243   */\n  tag_54\n  tag_55\n  jump\t// in\ntag_54:\n    /* \"#utility.yul\":1128:1245   */\ntag_53:\n    /* \"#utility.yul\":1269:1343   */\n  tag_56\n    /* \"#utility.yul\":1335:1342   */\n  dup6\n    /* \"#utility.yul\":1326:1332   */\n  dup3\n    /* \"#utility.yul\":1315:1324   */\n  dup7\n    /* \"#utility.yul\":1311:1333   */\n  add\n    /* \"#utility.yul\":1269:1343   */\n  tag_43\n  jump\t// in\ntag_56:\n    /* \"#utility.yul\":1259:1343   */\n  swap3\n  pop\n    /* \"#utility.yul\":1062:1353   */\n  pop\n    /* \"#utility.yul\":1413:1415   */\n  0x20\n    /* \"#utility.yul\":1402:1411   */\n  dup4\n    /* \"#utility.yul\":1398:1416   */\n  add\n    /* \"#utility.yul\":1392:1417   */\n  mload\n    /* \"#utility.yul\":1444:1462   */\n  0xffffffffffffffff\n    /* \"#utility.yul\":1436:1442   */\n  dup2\n    /* \"#utility.yul\":1433:1463   */\n  gt\n    /* \"#utility.yul\":1430:1547   */\n  iszero\n  tag_57\n  jumpi\n    /* \"#utility.yul\":1466:1545   */\n  tag_58\n  tag_55\n  jump\t// in\ntag_58:\n    /* \"#utility.yul\":1430:1547   */\ntag_57:\n    /* \"#utility.yul\":1571:1645   */\n  tag_59\n    /* \"#utility.yul\":1637:1644   */\n  dup6\n    /* \"#utility.yul\":1628:1634   */\n  dup3\n    /* \"#utility.yul\":1617:1626   */\n  dup7\n    /* \"#utility.yul\":1613:1635   */\n  add\n    /* \"#utility.yul\":1571:1645   */\n  tag_43\n  jump\t// in\ntag_59:\n    /* \"#utility.yul\":1561:1645   */\n  swap2\n  pop\n    /* \"#utility.yul\":1363:1655   */\n  pop\n    /* \"#utility.yul\":809:1662   */\n  swap3\n  pop\n  swap3\n  swap1\n  pop\n  jump\t// out\n    /* \"#utility.yul\":1668:2034   */\ntag_60:\n    /* \"#utility.yul\":1810:1813   */\n  0x00\n    /* \"#utility.yul\":1831:1898   */\n  tag_62\n    /* \"#utility.yul\":1895:1897   */\n  0x16\n    /* \"#utility.yul\":1890:1893   */\n  dup4\n    /* \"#utility.yul\":1831:1898   */\n  tag_63\n  jump\t// in\ntag_62:\n    /* \"#utility.yul\":1824:1898   */\n  swap2\n  pop\n    /* \"#utility.yul\":1907:2000   */\n  tag_64\n    /* \"#utility.yul\":1996:1999   */\n  dup3\n    /* \"#utility.yul\":1907:2000   */\n  tag_65\n  jump\t// in\ntag_64:\n    /* \"#utility.yul\":2025:2027   */\n  0x20\n    /* \"#utility.yul\":2020:2023   */\n  dup3\n    /* \"#utility.yul\":2016:2028   */\n  add\n    /* \"#utility.yul\":2009:2028   */\n  swap1\n  pop\n    /* \"#utility.yul\":1668:2034   */\n  swap2\n  swap1\n  pop\n  jump\t// out\n    /* \"#utility.yul\":2040:2406   */\ntag_66:\n    /* \"#utility.yul\":2182:2185   */\n  0x00\n    /* \"#utility.yul\":2203:2270   */\n  tag_68\n    /* \"#utility.yul\":2267:2269   */\n  0x17\n    /* \"#utility.yul\":2262:2265   */\n  dup4\n    /* \"#utility.yul\":2203:2270   */\n  tag_63\n  jump\t// in\ntag_68:\n    /* \"#utility.yul\":2196:2270   */\n  swap2\n  pop\n    /* \"#utility.yul\":2279:2372   */\n  tag_69\n    /* \"#utility.yul\":2368:2371   */\n  dup3\n    /* \"#utility.yul\":2279:2372   */\n  tag_70\n  jump\t// in\ntag_69:\n    /* \"#utility.yul\":2397:2399   */\n  0x20\n    /* \"#utility.yul\":2392:2395   */\n  dup3\n    /* \"#utility.yul\":2388:2400   */\n  add\n    /* \"#utility.yul\":2381:2400   */\n  swap1\n  pop\n    /* \"#utility.yul\":2040:2406   */\n  swap2\n  swap1\n  pop\n  jump\t// out\n    /* \"#utility.yul\":2412:2778   */\ntag_71:\n    /* \"#utility.yul\":2554:2557   */\n  0x00\n    /* \"#utility.yul\":2575:2642   */\n  tag_73\n    /* \"#utility.yul\":2639:2641   */\n  0x16\n    /* \"#utility.yul\":2634:2637   */\n  dup4\n    /* \"#utility.yul\":2575:2642   */\n  tag_63\n  jump\t// in\ntag_73:\n    /* \"#utility.yul\":2568:2642   */\n  swap2\n  pop\n    /* \"#utility.yul\":2651:2744   */\n  tag_74\n    /* \"#utility.yul\":2740:2743   */\n  dup3\n    /* \"#utility.yul\":2651:2744   */\n  tag_75\n  jump\t// in\ntag_74:\n    /* \"#utility.yul\":2769:2771   */\n  0x20\n    /* \"#utility.yul\":2764:2767   */\n  dup3\n    /* \"#utility.yul\":2760:2772   */\n  add\n    /* \"#utility.yul\":2753:2772   */\n  swap1\n  pop\n    /* \"#utility.yul\":2412:2778   */\n  swap2\n  swap1\n  pop\n  jump\t// out\n    /* \"#utility.yul\":2784:3203   */\ntag_15:\n    /* \"#utility.yul\":2950:2954   */\n  0x00\n    /* \"#utility.yul\":2988:2990   */\n  0x20\n    /* \"#utility.yul\":2977:2986   */\n  dup3\n    /* \"#utility.yul\":2973:2991   */\n  add\n    /* \"#utility.yul\":2965:2991   */\n  swap1\n  pop\n    /* \"#utility.yul\":3037:3046   */\n  dup2\n    /* \"#utility.yul\":3031:3035   */\n  dup2\n    /* \"#utility.yul\":3027:3047   */\n  sub\n    /* \"#utility.yul\":3023:3024   */\n  0x00\n    /* \"#utility.yul\":3012:3021   */\n  dup4\n    /* \"#utility.yul\":3008:3025   */\n  add\n    /* \"#utility.yul\":3001:3048   */\n  mstore\n    /* \"#utility.yul\":3065:3196   */\n  tag_77\n    /* \"#utility.yul\":3191:3195   */\n  dup2\n    /* \"#utility.yul\":3065:3196   */\n  tag_60\n  jump\t// in\ntag_77:\n    /* \"#utility.yul\":3057:3196   */\n  swap1\n  pop\n    /* \"#utility.yul\":2784:3203   */\n  swap2\n  swap1\n  pop\n  jump\t// out\n    /* \"#utility.yul\":3209:3628   */\ntag_18:\n    /* \"#utility.yul\":3375:3379   */\n  0x00\n    /* \"#utility.yul\":3413:3415   */\n  0x20\n    /* \"#utility.yul\":3402:3411   */\n  dup3\n    /* \"#utility.yul\":3398:3416   */\n  add\n    /* \"#utility.yul\":3390:3416   */\n  swap1\n  pop\n    /* \"#utility.yul\":3462:3471   */\n  dup2\n    /* \"#utility.yul\":3456:3460   */\n  dup2\n    /* \"#utility.yul\":3452:3472   */\n  sub\n    /* \"#utility.yul\":3448:3449   */\n  0x00\n    /* \"#utility.yul\":3437:3446   */\n  dup4\n    /* \"#utility.yul\":3433:3450   */\n  add\n    /* \"#utility.yul\":3426:3473   */\n  mstore\n    /* \"#utility.yul\":3490:3621   */\n  tag_79\n    /* \"#utility.yul\":3616:3620   */\n  dup2\n    /* \"#utility.yul\":3490:3621   */\n  tag_66\n  jump\t// in\ntag_79:\n    /* \"#utility.yul\":3482:3621   */\n  swap1\n  pop\n    /* \"#utility.yul\":3209:3628   */\n  swap2\n  swap1\n  pop\n  jump\t// out\n    /* \"#utility.yul\":3634:4053   */\ntag_11:\n    /* \"#utility.yul\":3800:3804   */\n  0x00\n    /* \"#utility.yul\":3838:3840   */\n  0x20\n    /* \"#utility.yul\":3827:3836   */\n  dup3\n    /* \"#utility.yul\":3823:3841   */\n  add\n    /* \"#utility.yul\":3815:3841   */\n  swap1\n  pop\n    /* \"#utility.yul\":3887:3896   */\n  dup2\n    /* \"#utility.yul\":3881:3885   */\n  dup2\n    /* \"#utility.yul\":3877:3897   */\n  sub\n    /* \"#utility.yul\":3873:3874   */\n  0x00\n    /* \"#utility.yul\":3862:3871   */\n  dup4\n    /* \"#utility.yul\":3858:3875   */\n  add\n    /* \"#utility.yul\":3851:3898   */\n  mstore\n    /* \"#utility.yul\":3915:4046   */\n  tag_81\n    /* \"#utility.yul\":4041:4045   */\n  dup2\n    /* \"#utility.yul\":3915:4046   */\n  tag_71\n  jump\t// in\ntag_81:\n    /* \"#utility.yul\":3907:4046   */\n  swap1\n  pop\n    /* \"#utility.yul\":3634:4053   */\n  swap2\n  swap1\n  pop\n  jump\t// out\n    /* \"#utility.yul\":4059:4188   */\ntag_37:\n    /* \"#utility.yul\":4093:4099   */\n  0x00\n    /* \"#utility.yul\":4120:4140   */\n  tag_83\n  tag_84\n  jump\t// in\ntag_83:\n    /* \"#utility.yul\":4110:4140   */\n  swap1\n  pop\n    /* \"#utility.yul\":4149:4182   */\n  tag_85\n    /* \"#utility.yul\":4177:4181   */\n  dup3\n    /* \"#utility.yul\":4169:4175   */\n  dup3\n    /* \"#utility.yul\":4149:4182   */\n  tag_86\n  jump\t// in\ntag_85:\n    /* \"#utility.yul\":4059:4188   */\n  swap2\n  swap1\n  pop\n  jump\t// out\n    /* \"#utility.yul\":4194:4269   */\ntag_84:\n    /* \"#utility.yul\":4227:4233   */\n  0x00\n    /* \"#utility.yul\":4260:4262   */\n  0x40\n    /* \"#utility.yul\":4254:4263   */\n  mload\n    /* \"#utility.yul\":4244:4263   */\n  swap1\n  pop\n    /* \"#utility.yul\":4194:4269   */\n  swap1\n  jump\t// out\n    /* \"#utility.yul\":4275:4583   */\ntag_36:\n    /* \"#utility.yul\":4337:4341   */\n  0x00\n    /* \"#utility.yul\":4427:4445   */\n  0xffffffffffffffff\n    /* \"#utility.yul\":4419:4425   */\n  dup3\n    /* \"#utility.yul\":4416:4446   */\n  gt\n    /* \"#utility.yul\":4413:4469   */\n  iszero\n  tag_89\n  jumpi\n    /* \"#utility.yul\":4449:4467   */\n  tag_90\n  tag_91\n  jump\t// in\ntag_90:\n    /* \"#utility.yul\":4413:4469   */\ntag_89:\n    /* \"#utility.yul\":4487:4516   */\n  tag_92\n    /* \"#utility.yul\":4509:4515   */\n  dup3\n    /* \"#utility.yul\":4487:4516   */\n  tag_93\n  jump\t// in\ntag_92:\n    /* \"#utility.yul\":4479:4516   */\n  swap1\n  pop\n    /* \"#utility.yul\":4571:4575   */\n  0x20\n    /* \"#utility.yul\":4565:4569   */\n  dup2\n    /* \"#utility.yul\":4561:4576   */\n  add\n    /* \"#utility.yul\":4553:4576   */\n  swap1\n  pop\n    /* \"#utility.yul\":4275:4583   */\n  swap2\n  swap1\n  pop\n  jump\t// out\n    /* \"#utility.yul\":4589:4758   */\ntag_63:\n    /* \"#utility.yul\":4673:4684   */\n  0x00\n    /* \"#utility.yul\":4707:4713   */\n  dup3\n    /* \"#utility.yul\":4702:4705   */\n  dup3\n    /* \"#utility.yul\":4695:4714   */\n  mstore\n    /* \"#utility.yul\":4747:4751   */\n  0x20\n    /* \"#utility.yul\":4742:4745   */\n  dup3\n    /* \"#utility.yul\":4738:4752   */\n  add\n    /* \"#utility.yul\":4723:4752   */\n  swap1\n  pop\n    /* \"#utility.yul\":4589:4758   */\n  swap3\n  swap2\n  pop\n  pop\n  jump\t// out\n    /* \"#utility.yul\":4764:5071   */\ntag_42:\n    /* \"#utility.yul\":4832:4833   */\n  0x00\n    /* \"#utility.yul\":4842:4955   */\ntag_96:\n    /* \"#utility.yul\":4856:4862   */\n  dup4\n    /* \"#utility.yul\":4853:4854   */\n  dup2\n    /* \"#utility.yul\":4850:4863   */\n  lt\n    /* \"#utility.yul\":4842:4955   */\n  iszero\n  tag_98\n  jumpi\n    /* \"#utility.yul\":4941:4942   */\n  dup1\n    /* \"#utility.yul\":4936:4939   */\n  dup3\n    /* \"#utility.yul\":4932:4943   */\n  add\n    /* \"#utility.yul\":4926:4944   */\n  mload\n    /* \"#utility.yul\":4922:4923   */\n  dup2\n    /* \"#utility.yul\":4917:4920   */\n  dup5\n    /* \"#utility.yul\":4913:4924   */\n  add\n    /* \"#utility.yul\":4906:4945   */\n  mstore\n    /* \"#utility.yul\":4878:4880   */\n  0x20\n    /* \"#utility.yul\":4875:4876   */\n  dup2\n    /* \"#utility.yul\":4871:4881   */\n  add\n    /* \"#utility.yul\":4866:4881   */\n  swap1\n  pop\n    /* \"#utility.yul\":4842:4955   */\n  jump(tag_96)\ntag_98:\n    /* \"#utility.yul\":4973:4979   */\n  dup4\n    /* \"#utility.yul\":4970:4971   */\n  dup2\n    /* \"#utility.yul\":4967:4980   */\n  gt\n    /* \"#utility.yul\":4964:5065   */\n  iszero\n  tag_99\n  jumpi\n    /* \"#utility.yul\":5053:5054   */\n  0x00\n    /* \"#utility.yul\":5044:5050   */\n  dup5\n    /* \"#utility.yul\":5039:5042   */\n  dup5\n    /* \"#utility.yul\":5035:5051   */\n  add\n    /* \"#utility.yul\":5028:5055   */\n  mstore\n    /* \"#utility.yul\":4964:5065   */\ntag_99:\n    /* \"#utility.yul\":4813:5071   */\n  pop\n    /* \"#utility.yul\":4764:5071   */\n  pop\n  pop\n  pop\n  jump\t// out\n    /* \"#utility.yul\":5077:5397   */\ntag_21:\n    /* \"#utility.yul\":5121:5127   */\n  0x00\n    /* \"#utility.yul\":5158:5159   */\n  0x02\n    /* \"#utility.yul\":5152:5156   */\n  dup3\n    /* \"#utility.yul\":5148:5160   */\n  div\n    /* \"#utility.yul\":5138:5160   */\n  swap1\n  pop\n    /* \"#utility.yul\":5205:5206   */\n  0x01\n    /* \"#utility.yul\":5199:5203   */\n  dup3\n    /* \"#utility.yul\":5195:5207   */\n  and\n    /* \"#utility.yul\":5226:5244   */\n  dup1\n    /* \"#utility.yul\":5216:5297   */\n  tag_101\n  jumpi\n    /* \"#utility.yul\":5282:5286   */\n  0x7f\n    /* \"#utility.yul\":5274:5280   */\n  dup3\n    /* \"#utility.yul\":5270:5287   */\n  and\n    /* \"#utility.yul\":5260:5287   */\n  swap2\n  pop\n    /* \"#utility.yul\":5216:5297   */\ntag_101:\n    /* \"#utility.yul\":5344:5346   */\n  0x20\n    /* \"#utility.yul\":5336:5342   */\n  dup3\n    /* \"#utility.yul\":5333:5347   */\n  lt\n    /* \"#utility.yul\":5313:5331   */\n  dup2\n    /* \"#utility.yul\":5310:5348   */\n  eq\n    /* \"#utility.yul\":5307:5391   */\n  iszero\n  tag_102\n  jumpi\n    /* \"#utility.yul\":5363:5381   */\n  tag_103\n  tag_104\n  jump\t// in\ntag_103:\n    /* \"#utility.yul\":5307:5391   */\ntag_102:\n    /* \"#utility.yul\":5128:5397   */\n  pop\n    /* \"#utility.yul\":5077:5397   */\n  swap2\n  swap1\n  pop\n  jump\t// out\n    /* \"#utility.yul\":5403:5684   */\ntag_86:\n    /* \"#utility.yul\":5486:5513   */\n  tag_106\n    /* \"#utility.yul\":5508:5512   */\n  dup3\n    /* \"#utility.yul\":5486:5513   */\n  tag_93\n  jump\t// in\ntag_106:\n    /* \"#utility.yul\":5478:5484   */\n  dup2\n    /* \"#utility.yul\":5474:5514   */\n  add\n    /* \"#utility.yul\":5616:5622   */\n  dup2\n    /* \"#utility.yul\":5604:5614   */\n  dup2\n    /* \"#utility.yul\":5601:5623   */\n  lt\n    /* \"#utility.yul\":5580:5598   */\n  0xffffffffffffffff\n    /* \"#utility.yul\":5568:5578   */\n  dup3\n    /* \"#utility.yul\":5565:5599   */\n  gt\n    /* \"#utility.yul\":5562:5624   */\n  or\n    /* \"#utility.yul\":5559:5647   */\n  iszero\n  tag_107\n  jumpi\n    /* \"#utility.yul\":5627:5645   */\n  tag_108\n  tag_91\n  jump\t// in\ntag_108:\n    /* \"#utility.yul\":5559:5647   */\ntag_107:\n    /* \"#utility.yul\":5667:5677   */\n  dup1\n    /* \"#utility.yul\":5663:5665   */\n  0x40\n    /* \"#utility.yul\":5656:5678   */\n  mstore\n    /* \"#utility.yul\":5446:5684   */\n  pop\n    /* \"#utility.yul\":5403:5684   */\n  pop\n  pop\n  jump\t// out\n    /* \"#utility.yul\":5690:5870   */\ntag_104:\n    /* \"#utility.yul\":5738:5815   */\n  0x4e487b7100000000000000000000000000000000000000000000000000000000\n    /* \"#utility.yul\":5735:5736   */\n  0x00\n    /* \"#utility.yul\":5728:5816   */\n  mstore\n    /* \"#utility.yul\":5835:5839   */\n  0x22\n    /* \"#utility.yul\":5832:5833   */\n  0x04\n    /* \"#utility.yul\":5825:5840   */\n  mstore\n    /* \"#utility.yul\":5859:5863   */\n  0x24\n    /* \"#utility.yul\":5856:5857   */\n  0x00\n    /* \"#utility.yul\":5849:5864   */\n  revert\n    /* \"#utility.yul\":5876:6056   */\ntag_91:\n    /* \"#utility.yul\":5924:6001   */\n  0x4e487b7100000000000000000000000000000000000000000000000000000000\n    /* \"#utility.yul\":5921:5922   */\n  0x00\n    /* \"#utility.yul\":5914:6002   */\n  mstore\n    /* \"#utility.yul\":6021:6025   */\n  0x41\n    /* \"#utility.yul\":6018:6019   */\n  0x04\n    /* \"#utility.yul\":6011:6026   */\n  mstore\n    /* \"#utility.yul\":6045:6049   */\n  0x24\n    /* \"#utility.yul\":6042:6043   */\n  0x00\n    /* \"#utility.yul\":6035:6050   */\n  revert\n    /* \"#utility.yul\":6062:6179   */\ntag_47:\n    /* \"#utility.yul\":6171:6172   */\n  0x00\n    /* \"#utility.yul\":6168:6169   */\n  dup1\n    /* \"#utility.yul\":6161:6173   */\n  revert\n    /* \"#utility.yul\":6185:6302   */\ntag_40:\n    /* \"#utility.yul\":6294:6295   */\n  0x00\n    /* \"#utility.yul\":6291:6292   */\n  dup1\n    /* \"#utility.yul\":6284:6296   */\n  revert\n    /* \"#utility.yul\":6308:6425   */\ntag_55:\n    /* \"#utility.yul\":6417:6418   */\n  0x00\n    /* \"#utility.yul\":6414:6415   */\n  dup1\n    /* \"#utility.yul\":6407:6419   */\n  revert\n    /* \"#utility.yul\":6431:6548   */\ntag_52:\n    /* \"#utility.yul\":6540:6541   */\n  0x00\n    /* \"#utility.yul\":6537:6538   */\n  dup1\n    /* \"#utility.yul\":6530:6542   */\n  revert\n    /* \"#utility.yul\":6554:6656   */\ntag_93:\n    /* \"#utility.yul\":6595:6601   */\n  0x00\n    /* \"#utility.yul\":6646:6648   */\n  0x1f\n    /* \"#utility.yul\":6642:6649   */\n  not\n    /* \"#utility.yul\":6637:6639   */\n  0x1f\n    /* \"#utility.yul\":6630:6635   */\n  dup4\n    /* \"#utility.yul\":6626:6640   */\n  add\n    /* \"#utility.yul\":6622:6650   */\n  and\n    /* \"#utility.yul\":6612:6650   */\n  swap1\n  pop\n    /* \"#utility.yul\":6554:6656   */\n  swap2\n  swap1\n  pop\n  jump\t// out\n    /* \"#utility.yul\":6662:6834   */\ntag_65:\n    /* \"#utility.yul\":6802:6826   */\n  0x436f6e7374727563746f72205320657865637574656400000000000000000000\n    /* \"#utility.yul\":6798:6799   */\n  0x00\n    /* \"#utility.yul\":6790:6796   */\n  dup3\n    /* \"#utility.yul\":6786:6800   */\n  add\n    /* \"#utility.yul\":6779:6827   */\n  mstore\n    /* \"#utility.yul\":6662:6834   */\n  pop\n  jump\t// out\n    /* \"#utility.yul\":6840:7013   */\ntag_70:\n    /* \"#utility.yul\":6980:7005   */\n  0x436f6e7374727563746f72204232206578656375746564000000000000000000\n    /* \"#utility.yul\":6976:6977   */\n  0x00\n    /* \"#utility.yul\":6968:6974   */\n  dup3\n    /* \"#utility.yul\":6964:6978   */\n  add\n    /* \"#utility.yul\":6957:7006   */\n  mstore\n    /* \"#utility.yul\":6840:7013   */\n  pop\n  jump\t// out\n    /* \"#utility.yul\":7019:7191   */\ntag_75:\n    /* \"#utility.yul\":7159:7183   */\n  0x436f6e7374727563746f72205420657865637574656400000000000000000000\n    /* \"#utility.yul\":7155:7156   */\n  0x00\n    /* \"#utility.yul\":7147:7153   */\n  dup3\n    /* \"#utility.yul\":7143:7157   */\n  add\n    /* \"#utility.yul\":7136:7184   */\n  mstore\n    /* \"#utility.yul\":7019:7191   */\n  pop\n  jump\t// out\n    /* \"contracts/ParentConstructors.sol\":1869:2021  contract B2 is T, S {... */\ntag_19:\n  dataSize(sub_0)\n  dup1\n  dataOffset(sub_0)\n  0x00\n  codecopy\n  0x00\n  return\nstop\n\nsub_0: assembly {\n        /* \"contracts/ParentConstructors.sol\":1869:2021  contract B2 is T, S {... */\n      mstore(0x40, 0x80)\n      callvalue\n      dup1\n      iszero\n      tag_1\n      jumpi\n      0x00\n      dup1\n      revert\n    tag_1:\n      pop\n      jumpi(tag_2, lt(calldatasize, 0x04))\n      shr(0xe0, calldataload(0x00))\n      dup1\n      0x06fdde03\n      eq\n      tag_3\n      jumpi\n      dup1\n      0x1f1bd692\n      eq\n      tag_4\n      jumpi\n    tag_2:\n      0x00\n      dup1\n      revert\n        /* \"contracts/ParentConstructors.sol\":1085:1103  string public name */\n    tag_3:\n      tag_5\n      tag_6\n      jump\t// in\n    tag_5:\n      mload(0x40)\n      tag_7\n      swap2\n      swap1\n      tag_8\n      jump\t// in\n    tag_7:\n      mload(0x40)\n      dup1\n      swap2\n      sub\n      swap1\n      return\n        /* \"contracts/ParentConstructors.sol\":1267:1285  string public text */\n    tag_4:\n      tag_9\n      tag_10\n      jump\t// in\n    tag_9:\n      mload(0x40)\n      tag_11\n      swap2\n      swap1\n      tag_8\n      jump\t// in\n    tag_11:\n      mload(0x40)\n      dup1\n      swap2\n      sub\n      swap1\n      return\n        /* \"contracts/ParentConstructors.sol\":1085:1103  string public name */\n    tag_6:\n      0x01\n      dup1\n      sload\n      tag_12\n      swap1\n      tag_13\n      jump\t// in\n    tag_12:\n      dup1\n      0x1f\n      add\n      0x20\n      dup1\n      swap2\n      div\n      mul\n      0x20\n      add\n      mload(0x40)\n      swap1\n      dup2\n      add\n      0x40\n      mstore\n      dup1\n      swap3\n      swap2\n      swap1\n      dup2\n      dup2\n      mstore\n      0x20\n      add\n      dup3\n      dup1\n      sload\n      tag_14\n      swap1\n      tag_13\n      jump\t// in\n    tag_14:\n      dup1\n      iszero\n      tag_15\n      jumpi\n      dup1\n      0x1f\n      lt\n      tag_16\n      jumpi\n      0x0100\n      dup1\n      dup4\n      sload\n      div\n      mul\n      dup4\n      mstore\n      swap2\n      0x20\n      add\n      swap2\n      jump(tag_15)\n    tag_16:\n      dup3\n      add\n      swap2\n      swap1\n      0x00\n      mstore\n      keccak256(0x00, 0x20)\n      swap1\n    tag_17:\n      dup2\n      sload\n      dup2\n      mstore\n      swap1\n      0x01\n      add\n      swap1\n      0x20\n      add\n      dup1\n      dup4\n      gt\n      tag_17\n      jumpi\n      dup3\n      swap1\n      sub\n      0x1f\n      and\n      dup3\n      add\n      swap2\n    tag_15:\n      pop\n      pop\n      pop\n      pop\n      pop\n      dup2\n      jump\t// out\n        /* \"contracts/ParentConstructors.sol\":1267:1285  string public text */\n    tag_10:\n      0x00\n      dup1\n      sload\n      tag_18\n      swap1\n      tag_13\n      jump\t// in\n    tag_18:\n      dup1\n      0x1f\n      add\n      0x20\n      dup1\n      swap2\n      div\n      mul\n      0x20\n      add\n      mload(0x40)\n      swap1\n      dup2\n      add\n      0x40\n      mstore\n      dup1\n      swap3\n      swap2\n      swap1\n      dup2\n      dup2\n      mstore\n      0x20\n      add\n      dup3\n      dup1\n      sload\n      tag_19\n      swap1\n      tag_13\n      jump\t// in\n    tag_19:\n      dup1\n      iszero\n      tag_20\n      jumpi\n      dup1\n      0x1f\n      lt\n      tag_21\n      jumpi\n      0x0100\n      dup1\n      dup4\n      sload\n      div\n      mul\n      dup4\n      mstore\n      swap2\n      0x20\n      add\n      swap2\n      jump(tag_20)\n    tag_21:\n      dup3\n      add\n      swap2\n      swap1\n      0x00\n      mstore\n      keccak256(0x00, 0x20)\n      swap1\n    tag_22:\n      dup2\n      sload\n      dup2\n      mstore\n      swap1\n      0x01\n      add\n      swap1\n      0x20\n      add\n      dup1\n      dup4\n      gt\n      tag_22\n      jumpi\n      dup3\n      swap1\n      sub\n      0x1f\n      and\n      dup3\n      add\n      swap2\n    tag_20:\n      pop\n      pop\n      pop\n      pop\n      pop\n      dup2\n      jump\t// out\n        /* \"#utility.yul\":7:371   */\n    tag_24:\n        /* \"#utility.yul\":95:98   */\n      0x00\n        /* \"#utility.yul\":123:162   */\n      tag_26\n        /* \"#utility.yul\":156:161   */\n      dup3\n        /* \"#utility.yul\":123:162   */\n      tag_27\n      jump\t// in\n    tag_26:\n        /* \"#utility.yul\":178:249   */\n      tag_28\n        /* \"#utility.yul\":242:248   */\n      dup2\n        /* \"#utility.yul\":237:240   */\n      dup6\n        /* \"#utility.yul\":178:249   */\n      tag_29\n      jump\t// in\n    tag_28:\n        /* \"#utility.yul\":171:249   */\n      swap4\n      pop\n        /* \"#utility.yul\":258:310   */\n      tag_30\n        /* \"#utility.yul\":303:309   */\n      dup2\n        /* \"#utility.yul\":298:301   */\n      dup6\n        /* \"#utility.yul\":291:295   */\n      0x20\n        /* \"#utility.yul\":284:289   */\n      dup7\n        /* \"#utility.yul\":280:296   */\n      add\n        /* \"#utility.yul\":258:310   */\n      tag_31\n      jump\t// in\n    tag_30:\n        /* \"#utility.yul\":335:364   */\n      tag_32\n        /* \"#utility.yul\":357:363   */\n      dup2\n        /* \"#utility.yul\":335:364   */\n      tag_33\n      jump\t// in\n    tag_32:\n        /* \"#utility.yul\":330:333   */\n      dup5\n        /* \"#utility.yul\":326:365   */\n      add\n        /* \"#utility.yul\":319:365   */\n      swap2\n      pop\n        /* \"#utility.yul\":99:371   */\n      pop\n        /* \"#utility.yul\":7:371   */\n      swap3\n      swap2\n      pop\n      pop\n      jump\t// out\n        /* \"#utility.yul\":377:690   */\n    tag_8:\n        /* \"#utility.yul\":490:494   */\n      0x00\n        /* \"#utility.yul\":528:530   */\n      0x20\n        /* \"#utility.yul\":517:526   */\n      dup3\n        /* \"#utility.yul\":513:531   */\n      add\n        /* \"#utility.yul\":505:531   */\n      swap1\n      pop\n        /* \"#utility.yul\":577:586   */\n      dup2\n        /* \"#utility.yul\":571:575   */\n      dup2\n        /* \"#utility.yul\":567:587   */\n      sub\n        /* \"#utility.yul\":563:564   */\n      0x00\n        /* \"#utility.yul\":552:561   */\n      dup4\n        /* \"#utility.yul\":548:565   */\n      add\n        /* \"#utility.yul\":541:588   */\n      mstore\n        /* \"#utility.yul\":605:683   */\n      tag_35\n        /* \"#utility.yul\":678:682   */\n      dup2\n        /* \"#utility.yul\":669:675   */\n      dup5\n        /* \"#utility.yul\":605:683   */\n      tag_24\n      jump\t// in\n    tag_35:\n        /* \"#utility.yul\":597:683   */\n      swap1\n      pop\n        /* \"#utility.yul\":377:690   */\n      swap3\n      swap2\n      pop\n      pop\n      jump\t// out\n        /* \"#utility.yul\":696:795   */\n    tag_27:\n        /* \"#utility.yul\":748:754   */\n      0x00\n        /* \"#utility.yul\":782:787   */\n      dup2\n        /* \"#utility.yul\":776:788   */\n      mload\n        /* \"#utility.yul\":766:788   */\n      swap1\n      pop\n        /* \"#utility.yul\":696:795   */\n      swap2\n      swap1\n      pop\n      jump\t// out\n        /* \"#utility.yul\":801:970   */\n    tag_29:\n        /* \"#utility.yul\":885:896   */\n      0x00\n        /* \"#utility.yul\":919:925   */\n      dup3\n        /* \"#utility.yul\":914:917   */\n      dup3\n        /* \"#utility.yul\":907:926   */\n      mstore\n        /* \"#utility.yul\":959:963   */\n      0x20\n        /* \"#utility.yul\":954:957   */\n      dup3\n        /* \"#utility.yul\":950:964   */\n      add\n        /* \"#utility.yul\":935:964   */\n      swap1\n      pop\n        /* \"#utility.yul\":801:970   */\n      swap3\n      swap2\n      pop\n      pop\n      jump\t// out\n        /* \"#utility.yul\":976:1283   */\n    tag_31:\n        /* \"#utility.yul\":1044:1045   */\n      0x00\n        /* \"#utility.yul\":1054:1167   */\n    tag_39:\n        /* \"#utility.yul\":1068:1074   */\n      dup4\n        /* \"#utility.yul\":1065:1066   */\n      dup2\n        /* \"#utility.yul\":1062:1075   */\n      lt\n        /* \"#utility.yul\":1054:1167   */\n      iszero\n      tag_41\n      jumpi\n        /* \"#utility.yul\":1153:1154   */\n      dup1\n        /* \"#utility.yul\":1148:1151   */\n      dup3\n        /* \"#utility.yul\":1144:1155   */\n      add\n        /* \"#utility.yul\":1138:1156   */\n      mload\n        /* \"#utility.yul\":1134:1135   */\n      dup2\n        /* \"#utility.yul\":1129:1132   */\n      dup5\n        /* \"#utility.yul\":1125:1136   */\n      add\n        /* \"#utility.yul\":1118:1157   */\n      mstore\n        /* \"#utility.yul\":1090:1092   */\n      0x20\n        /* \"#utility.yul\":1087:1088   */\n      dup2\n        /* \"#utility.yul\":1083:1093   */\n      add\n        /* \"#utility.yul\":1078:1093   */\n      swap1\n      pop\n        /* \"#utility.yul\":1054:1167   */\n      jump(tag_39)\n    tag_41:\n        /* \"#utility.yul\":1185:1191   */\n      dup4\n        /* \"#utility.yul\":1182:1183   */\n      dup2\n        /* \"#utility.yul\":1179:1192   */\n      gt\n        /* \"#utility.yul\":1176:1277   */\n      iszero\n      tag_42\n      jumpi\n        /* \"#utility.yul\":1265:1266   */\n      0x00\n        /* \"#utility.yul\":1256:1262   */\n      dup5\n        /* \"#utility.yul\":1251:1254   */\n      dup5\n        /* \"#utility.yul\":1247:1263   */\n      add\n        /* \"#utility.yul\":1240:1267   */\n      mstore\n        /* \"#utility.yul\":1176:1277   */\n    tag_42:\n        /* \"#utility.yul\":1025:1283   */\n      pop\n        /* \"#utility.yul\":976:1283   */\n      pop\n      pop\n      pop\n      jump\t// out\n        /* \"#utility.yul\":1289:1609   */\n    tag_13:\n        /* \"#utility.yul\":1333:1339   */\n      0x00\n        /* \"#utility.yul\":1370:1371   */\n      0x02\n        /* \"#utility.yul\":1364:1368   */\n      dup3\n        /* \"#utility.yul\":1360:1372   */\n      div\n        /* \"#utility.yul\":1350:1372   */\n      swap1\n      pop\n        /* \"#utility.yul\":1417:1418   */\n      0x01\n        /* \"#utility.yul\":1411:1415   */\n      dup3\n        /* \"#utility.yul\":1407:1419   */\n      and\n        /* \"#utility.yul\":1438:1456   */\n      dup1\n        /* \"#utility.yul\":1428:1509   */\n      tag_44\n      jumpi\n        /* \"#utility.yul\":1494:1498   */\n      0x7f\n        /* \"#utility.yul\":1486:1492   */\n      dup3\n        /* \"#utility.yul\":1482:1499   */\n      and\n        /* \"#utility.yul\":1472:1499   */\n      swap2\n      pop\n        /* \"#utility.yul\":1428:1509   */\n    tag_44:\n        /* \"#utility.yul\":1556:1558   */\n      0x20\n        /* \"#utility.yul\":1548:1554   */\n      dup3\n        /* \"#utility.yul\":1545:1559   */\n      lt\n        /* \"#utility.yul\":1525:1543   */\n      dup2\n        /* \"#utility.yul\":1522:1560   */\n      eq\n        /* \"#utility.yul\":1519:1603   */\n      iszero\n      tag_45\n      jumpi\n        /* \"#utility.yul\":1575:1593   */\n      tag_46\n      tag_47\n      jump\t// in\n    tag_46:\n        /* \"#utility.yul\":1519:1603   */\n    tag_45:\n        /* \"#utility.yul\":1340:1609   */\n      pop\n        /* \"#utility.yul\":1289:1609   */\n      swap2\n      swap1\n      pop\n      jump\t// out\n        /* \"#utility.yul\":1615:1795   */\n    tag_47:\n        /* \"#utility.yul\":1663:1740   */\n      0x4e487b7100000000000000000000000000000000000000000000000000000000\n        /* \"#utility.yul\":1660:1661   */\n      0x00\n        /* \"#utility.yul\":1653:1741   */\n      mstore\n        /* \"#utility.yul\":1760:1764   */\n      0x22\n        /* \"#utility.yul\":1757:1758   */\n      0x04\n        /* \"#utility.yul\":1750:1765   */\n      mstore\n        /* \"#utility.yul\":1784:1788   */\n      0x24\n        /* \"#utility.yul\":1781:1782   */\n      0x00\n        /* \"#utility.yul\":1774:1789   */\n      revert\n        /* \"#utility.yul\":1801:1903   */\n    tag_33:\n        /* \"#utility.yul\":1842:1848   */\n      0x00\n        /* \"#utility.yul\":1893:1895   */\n      0x1f\n        /* \"#utility.yul\":1889:1896   */\n      not\n        /* \"#utility.yul\":1884:1886   */\n      0x1f\n        /* \"#utility.yul\":1877:1882   */\n      dup4\n        /* \"#utility.yul\":1873:1887   */\n      add\n        /* \"#utility.yul\":1869:1897   */\n      and\n        /* \"#utility.yul\":1859:1897   */\n      swap1\n      pop\n        /* \"#utility.yul\":1801:1903   */\n      swap2\n      swap1\n      pop\n      jump\t// out\n\n    auxdata: 0xa264697066735822122067ab8bfc2f74a2f6c3841d24f66f57c8b55ad8eca76154f6029a88438087712564736f6c63430008070033\n}\n",
				"bytecode": {
					"linkReferences": {},
					"object": "608060405234801561001057600080fd5b5060405161084d38038061084d8339818101604052810190610032919061021d565b8181806000908051906020019061004a92919061010a565b507f16783dda8fe899b47fa72274509d788dc4b657c9628a27189a81f451725e7de26040516100789061033e565b60405180910390a150806001908051906020019061009792919061010a565b507fcf34ef537ac33ee1ac626ca1587a0a7e8e51561e5514f8cb36afa1c5102b3bab6040516100c5906102fe565b60405180910390a1507fcf34ef537ac33ee1ac626ca1587a0a7e8e51561e5514f8cb36afa1c5102b3bab6040516100fb9061031e565b60405180910390a15050610559565b828054610116906103f8565b90600052602060002090601f016020900481019282610138576000855561017f565b82601f1061015157805160ff191683800117855561017f565b8280016001018555821561017f579182015b8281111561017e578251825591602001919060010190610163565b5b50905061018c9190610190565b5090565b5b808211156101a9576000816000905550600101610191565b5090565b60006101c06101bb84610383565b61035e565b9050828152602081018484840111156101dc576101db6104be565b5b6101e78482856103c5565b509392505050565b600082601f830112610204576102036104b9565b5b81516102148482602086016101ad565b91505092915050565b60008060408385031215610234576102336104c8565b5b600083015167ffffffffffffffff811115610252576102516104c3565b5b61025e858286016101ef565b925050602083015167ffffffffffffffff81111561027f5761027e6104c3565b5b61028b858286016101ef565b9150509250929050565b60006102a26016836103b4565b91506102ad826104de565b602082019050919050565b60006102c56017836103b4565b91506102d082610507565b602082019050919050565b60006102e86016836103b4565b91506102f382610530565b602082019050919050565b6000602082019050818103600083015261031781610295565b9050919050565b60006020820190508181036000830152610337816102b8565b9050919050565b60006020820190508181036000830152610357816102db565b9050919050565b6000610368610379565b9050610374828261042a565b919050565b6000604051905090565b600067ffffffffffffffff82111561039e5761039d61048a565b5b6103a7826104cd565b9050602081019050919050565b600082825260208201905092915050565b60005b838110156103e35780820151818401526020810190506103c8565b838111156103f2576000848401525b50505050565b6000600282049050600182168061041057607f821691505b602082108114156104245761042361045b565b5b50919050565b610433826104cd565b810181811067ffffffffffffffff821117156104525761045161048a565b5b80604052505050565b7f4e487b7100000000000000000000000000000000000000000000000000000000600052602260045260246000fd5b7f4e487b7100000000000000000000000000000000000000000000000000000000600052604160045260246000fd5b600080fd5b600080fd5b600080fd5b600080fd5b6000601f19601f8301169050919050565b7f436f6e7374727563746f72205320657865637574656400000000000000000000600082015250565b7f436f6e7374727563746f72204232206578656375746564000000000000000000600082015250565b7f436f6e7374727563746f72205420657865637574656400000000000000000000600082015250565b6102e5806105686000396000f3fe608060405234801561001057600080fd5b50600436106100365760003560e01c806306fdde031461003b5780631f1bd69214610059575b600080fd5b610043610077565b60405161005091906101cc565b60405180910390f35b610061610105565b60405161006e91906101cc565b60405180910390f35b600180546100849061023d565b80601f01602080910402602001604051908101604052809291908181526020018280546100b09061023d565b80156100fd5780601f106100d2576101008083540402835291602001916100fd565b820191906000526020600020905b8154815290600101906020018083116100e057829003601f168201915b505050505081565b600080546101129061023d565b80601f016020809104026020016040519081016040528092919081815260200182805461013e9061023d565b801561018b5780601f106101605761010080835404028352916020019161018b565b820191906000526020600020905b81548152906001019060200180831161016e57829003601f168201915b505050505081565b600061019e826101ee565b6101a881856101f9565b93506101b881856020860161020a565b6101c18161029e565b840191505092915050565b600060208201905081810360008301526101e68184610193565b905092915050565b600081519050919050565b600082825260208201905092915050565b60005b8381101561022857808201518184015260208101905061020d565b83811115610237576000848401525b50505050565b6000600282049050600182168061025557607f821691505b602082108114156102695761026861026f565b5b50919050565b7f4e487b7100000000000000000000000000000000000000000000000000000000600052602260045260246000fd5b6000601f19601f830116905091905056fea264697066735822122067ab8bfc2f74a2f6c3841d24f66f57c8b55ad8eca76154f6029a88438087712564736f6c63430008070033",
					"opcodes": "PUSH1 0x80 PUSH1 0x40 MSTORE CALLVALUE DUP1 ISZERO PUSH2 0x10 JUMPI PUSH1 0x0 DUP1 REVERT JUMPDEST POP PUSH1 0x40 MLOAD PUSH2 0x84D CODESIZE SUB DUP1 PUSH2 0x84D DUP4 CODECOPY DUP2 DUP2 ADD PUSH1 0x40 MSTORE DUP2 ADD SWAP1 PUSH2 0x32 SWAP2 SWAP1 PUSH2 0x21D JUMP JUMPDEST DUP2 DUP2 DUP1 PUSH1 0x0 SWAP1 DUP1 MLOAD SWAP1 PUSH1 0x20 ADD SWAP1 PUSH2 0x4A SWAP3 SWAP2 SWAP1 PUSH2 0x10A JUMP JUMPDEST POP PUSH32 0x16783DDA8FE899B47FA72274509D788DC4B657C9628A27189A81F451725E7DE2 PUSH1 0x40 MLOAD PUSH2 0x78 SWAP1 PUSH2 0x33E JUMP JUMPDEST PUSH1 0x40 MLOAD DUP1 SWAP2 SUB SWAP1 LOG1 POP DUP1 PUSH1 0x1 SWAP1 DUP1 MLOAD SWAP1 PUSH1 0x20 ADD SWAP1 PUSH2 0x97 SWAP3 SWAP2 SWAP1 PUSH2 0x10A JUMP JUMPDEST POP PUSH32 0xCF34EF537AC33EE1AC626CA1587A0A7E8E51561E5514F8CB36AFA1C5102B3BAB PUSH1 0x40 MLOAD PUSH2 0xC5 SWAP1 PUSH2 0x2FE JUMP JUMPDEST PUSH1 0x40 MLOAD DUP1 SWAP2 SUB SWAP1 LOG1 POP PUSH32 0xCF34EF537AC33EE1AC626CA1587A0A7E8E51561E5514F8CB36AFA1C5102B3BAB PUSH1 0x40 MLOAD PUSH2 0xFB SWAP1 PUSH2 0x31E JUMP JUMPDEST PUSH1 0x40 MLOAD DUP1 SWAP2 SUB SWAP1 LOG1 POP POP PUSH2 0x559 JUMP JUMPDEST DUP3 DUP1 SLOAD PUSH2 0x116 SWAP1 PUSH2 0x3F8 JUMP JUMPDEST SWAP1 PUSH1 0x0 MSTORE PUSH1 0x20 PUSH1 0x0 KECCAK256 SWAP1 PUSH1 0x1F ADD PUSH1 0x20 SWAP1 DIV DUP2 ADD SWAP3 DUP3 PUSH2 0x138 JUMPI PUSH1 0x0 DUP6 SSTORE PUSH2 0x17F JUMP JUMPDEST DUP3 PUSH1 0x1F LT PUSH2 0x151 JUMPI DUP1 MLOAD PUSH1 0xFF NOT AND DUP4 DUP1 ADD OR DUP6 SSTORE PUSH2 0x17F JUMP JUMPDEST DUP3 DUP1 ADD PUSH1 0x1 ADD DUP6 SSTORE DUP3 ISZERO PUSH2 0x17F JUMPI SWAP2 DUP3 ADD JUMPDEST DUP3 DUP2 GT ISZERO PUSH2 0x17E JUMPI DUP3 MLOAD DUP3 SSTORE SWAP2 PUSH1 0x20 ADD SWAP2 SWAP1 PUSH1 0x1 ADD SWAP1 PUSH2 0x163 JUMP JUMPDEST JUMPDEST POP SWAP1 POP PUSH2 0x18C SWAP2 SWAP1 PUSH2 0x190 JUMP JUMPDEST POP SWAP1 JUMP JUMPDEST JUMPDEST DUP1 DUP3 GT ISZERO PUSH2 0x1A9 JUMPI PUSH1 0x0 DUP2 PUSH1 0x0 SWAP1 SSTORE POP PUSH1 0x1 ADD PUSH2 0x191 JUMP JUMPDEST POP SWAP1 JUMP JUMPDEST PUSH1 0x0 PUSH2 0x1C0 PUSH2 0x1BB DUP5 PUSH2 0x383 JUMP JUMPDEST PUSH2 0x35E JUMP JUMPDEST SWAP1 POP DUP3 DUP2 MSTORE PUSH1 0x20 DUP2 ADD DUP5 DUP5 DUP5 ADD GT ISZERO PUSH2 0x1DC JUMPI PUSH2 0x1DB PUSH2 0x4BE JUMP JUMPDEST JUMPDEST PUSH2 0x1E7 DUP5 DUP3 DUP6 PUSH2 0x3C5 JUMP JUMPDEST POP SWAP4 SWAP3 POP POP POP JUMP JUMPDEST PUSH1 0x0 DUP3 PUSH1 0x1F DUP4 ADD SLT PUSH2 0x204 JUMPI PUSH2 0x203 PUSH2 0x4B9 JUMP JUMPDEST JUMPDEST DUP2 MLOAD PUSH2 0x214 DUP5 DUP3 PUSH1 0x20 DUP7 ADD PUSH2 0x1AD JUMP JUMPDEST SWAP2 POP POP SWAP3 SWAP2 POP POP JUMP JUMPDEST PUSH1 0x0 DUP1 PUSH1 0x40 DUP4 DUP6 SUB SLT ISZERO PUSH2 0x234 JUMPI PUSH2 0x233 PUSH2 0x4C8 JUMP JUMPDEST JUMPDEST PUSH1 0x0 DUP4 ADD MLOAD PUSH8 0xFFFFFFFFFFFFFFFF DUP2 GT ISZERO PUSH2 0x252 JUMPI PUSH2 0x251 PUSH2 0x4C3 JUMP JUMPDEST JUMPDEST PUSH2 0x25E DUP6 DUP3 DUP7 ADD PUSH2 0x1EF JUMP JUMPDEST SWAP3 POP POP PUSH1 0x20 DUP4 ADD MLOAD PUSH8 0xFFFFFFFFFFFFFFFF DUP2 GT ISZERO PUSH2 0x27F JUMPI PUSH2 0x27E PUSH2 0x4C3 JUMP JUMPDEST JUMPDEST PUSH2 0x28B DUP6 DUP3 DUP7 ADD PUSH2 0x1EF JUMP JUMPDEST SWAP2 POP POP SWAP3 POP SWAP3 SWAP1 POP JUMP JUMPDEST PUSH1 0x0 PUSH2 0x2A2 PUSH1 0x16 DUP4 PUSH2 0x3B4 JUMP JUMPDEST SWAP2 POP PUSH2 0x2AD DUP3 PUSH2 0x4DE JUMP JUMPDEST PUSH1 0x20 DUP3 ADD SWAP1 POP SWAP2 SWAP1 POP JUMP JUMPDEST PUSH1 0x0 PUSH2 0x2C5 PUSH1 0x17 DUP4 PUSH2 0x3B4 JUMP JUMPDEST SWAP2 POP PUSH2 0x2D0 DUP3 PUSH2 0x507 JUMP JUMPDEST PUSH1 0x20 DUP3 ADD SWAP1 POP SWAP2 SWAP1 POP JUMP JUMPDEST PUSH1 0x0 PUSH2 0x2E8 PUSH1 0x16 DUP4 PUSH2 0x3B4 JUMP JUMPDEST SWAP2 POP PUSH2 0x2F3 DUP3 PUSH2 0x530 JUMP JUMPDEST PUSH1 0x20 DUP3 ADD SWAP1 POP SWAP2 SWAP1 POP JUMP JUMPDEST PUSH1 0x0 PUSH1 0x20 DUP3 ADD SWAP1 POP DUP2 DUP2 SUB PUSH1 0x0 DUP4 ADD MSTORE PUSH2 0x317 DUP2 PUSH2 0x295 JUMP JUMPDEST SWAP1 POP SWAP2 SWAP1 POP JUMP JUMPDEST PUSH1 0x0 PUSH1 0x20 DUP3 ADD SWAP1 POP DUP2 DUP2 SUB PUSH1 0x0 DUP4 ADD MSTORE PUSH2 0x337 DUP2 PUSH2 0x2B8 JUMP JUMPDEST SWAP1 POP SWAP2 SWAP1 POP JUMP JUMPDEST PUSH1 0x0 PUSH1 0x20 DUP3 ADD SWAP1 POP DUP2 DUP2 SUB PUSH1 0x0 DUP4 ADD MSTORE PUSH2 0x357 DUP2 PUSH2 0x2DB JUMP JUMPDEST SWAP1 POP SWAP2 SWAP1 POP JUMP JUMPDEST PUSH1 0x0 PUSH2 0x368 PUSH2 0x379 JUMP JUMPDEST SWAP1 POP PUSH2 0x374 DUP3 DUP3 PUSH2 0x42A JUMP JUMPDEST SWAP2 SWAP1 POP JUMP JUMPDEST PUSH1 0x0 PUSH1 0x40 MLOAD SWAP1 POP SWAP1 JUMP JUMPDEST PUSH1 0x0 PUSH8 0xFFFFFFFFFFFFFFFF DUP3 GT ISZERO PUSH2 0x39E JUMPI PUSH2 0x39D PUSH2 0x48A JUMP JUMPDEST JUMPDEST PUSH2 0x3A7 DUP3 PUSH2 0x4CD JUMP JUMPDEST SWAP1 POP PUSH1 0x20 DUP2 ADD SWAP1 POP SWAP2 SWAP1 POP JUMP JUMPDEST PUSH1 0x0 DUP3 DUP3 MSTORE PUSH1 0x20 DUP3 ADD SWAP1 POP SWAP3 SWAP2 POP POP JUMP JUMPDEST PUSH1 0x0 JUMPDEST DUP4 DUP2 LT ISZERO PUSH2 0x3E3 JUMPI DUP1 DUP3 ADD MLOAD DUP2 DUP5 ADD MSTORE PUSH1 0x20 DUP2 ADD SWAP1 POP PUSH2 0x3C8 JUMP JUMPDEST DUP4 DUP2 GT ISZERO PUSH2 0x3F2 JUMPI PUSH1 0x0 DUP5 DUP5 ADD MSTORE JUMPDEST POP POP POP POP JUMP JUMPDEST PUSH1 0x0 PUSH1 0x2 DUP3 DIV SWAP1 POP PUSH1 0x1 DUP3 AND DUP1 PUSH2 0x410 JUMPI PUSH1 0x7F DUP3 AND SWAP2 POP JUMPDEST PUSH1 0x20 DUP3 LT DUP2 EQ ISZERO PUSH2 0x424 JUMPI PUSH2 0x423 PUSH2 0x45B JUMP JUMPDEST JUMPDEST POP SWAP2 SWAP1 POP JUMP JUMPDEST PUSH2 0x433 DUP3 PUSH2 0x4CD JUMP JUMPDEST DUP2 ADD DUP2 DUP2 LT PUSH8 0xFFFFFFFFFFFFFFFF DUP3 GT OR ISZERO PUSH2 0x452 JUMPI PUSH2 0x451 PUSH2 0x48A JUMP JUMPDEST JUMPDEST DUP1 PUSH1 0x40 MSTORE POP POP POP JUMP JUMPDEST PUSH32 0x4E487B7100000000000000000000000000000000000000000000000000000000 PUSH1 0x0 MSTORE PUSH1 0x22 PUSH1 0x4 MSTORE PUSH1 0x24 PUSH1 0x0 REVERT JUMPDEST PUSH32 0x4E487B7100000000000000000000000000000000000000000000000000000000 PUSH1 0x0 MSTORE PUSH1 0x41 PUSH1 0x4 MSTORE PUSH1 0x24 PUSH1 0x0 REVERT JUMPDEST PUSH1 0x0 DUP1 REVERT JUMPDEST PUSH1 0x0 DUP1 REVERT JUMPDEST PUSH1 0x0 DUP1 REVERT JUMPDEST PUSH1 0x0 DUP1 REVERT JUMPDEST PUSH1 0x0 PUSH1 0x1F NOT PUSH1 0x1F DUP4 ADD AND SWAP1 POP SWAP2 SWAP1 POP JUMP JUMPDEST PUSH32 0x436F6E7374727563746F72205320657865637574656400000000000000000000 PUSH1 0x0 DUP3 ADD MSTORE POP JUMP JUMPDEST PUSH32 0x436F6E7374727563746F72204232206578656375746564000000000000000000 PUSH1 0x0 DUP3 ADD MSTORE POP JUMP JUMPDEST PUSH32 0x436F6E7374727563746F72205420657865637574656400000000000000000000 PUSH1 0x0 DUP3 ADD MSTORE POP JUMP JUMPDEST PUSH2 0x2E5 DUP1 PUSH2 0x568 PUSH1 0x0 CODECOPY PUSH1 0x0 RETURN INVALID PUSH1 0x80 PUSH1 0x40 MSTORE CALLVALUE DUP1 ISZERO PUSH2 0x10 JUMPI PUSH1 0x0 DUP1 REVERT JUMPDEST POP PUSH1 0x4 CALLDATASIZE LT PUSH2 0x36 JUMPI PUSH1 0x0 CALLDATALOAD PUSH1 0xE0 SHR DUP1 PUSH4 0x6FDDE03 EQ PUSH2 0x3B JUMPI DUP1 PUSH4 0x1F1BD692 EQ PUSH2 0x59 JUMPI JUMPDEST PUSH1 0x0 DUP1 REVERT JUMPDEST PUSH2 0x43 PUSH2 0x77 JUMP JUMPDEST PUSH1 0x40 MLOAD PUSH2 0x50 SWAP2 SWAP1 PUSH2 0x1CC JUMP JUMPDEST PUSH1 0x40 MLOAD DUP1 SWAP2 SUB SWAP1 RETURN JUMPDEST PUSH2 0x61 PUSH2 0x105 JUMP JUMPDEST PUSH1 0x40 MLOAD PUSH2 0x6E SWAP2 SWAP1 PUSH2 0x1CC JUMP JUMPDEST PUSH1 0x40 MLOAD DUP1 SWAP2 SUB SWAP1 RETURN JUMPDEST PUSH1 0x1 DUP1 SLOAD PUSH2 0x84 SWAP1 PUSH2 0x23D JUMP JUMPDEST DUP1 PUSH1 0x1F ADD PUSH1 0x20 DUP1 SWAP2 DIV MUL PUSH1 0x20 ADD PUSH1 0x40 MLOAD SWAP1 DUP2 ADD PUSH1 0x40 MSTORE DUP1 SWAP3 SWAP2 SWAP1 DUP2 DUP2 MSTORE PUSH1 0x20 ADD DUP3 DUP1 SLOAD PUSH2 0xB0 SWAP1 PUSH2 0x23D JUMP JUMPDEST DUP1 ISZERO PUSH2 0xFD JUMPI DUP1 PUSH1 0x1F LT PUSH2 0xD2 JUMPI PUSH2 0x100 DUP1 DUP4 SLOAD DIV MUL DUP4 MSTORE SWAP2 PUSH1 0x20 ADD SWAP2 PUSH2 0xFD JUMP JUMPDEST DUP3 ADD SWAP2 SWAP1 PUSH1 0x0 MSTORE PUSH1 0x20 PUSH1 0x0 KECCAK256 SWAP1 JUMPDEST DUP2 SLOAD DUP2 MSTORE SWAP1 PUSH1 0x1 ADD SWAP1 PUSH1 0x20 ADD DUP1 DUP4 GT PUSH2 0xE0 JUMPI DUP3 SWAP1 SUB PUSH1 0x1F AND DUP3 ADD SWAP2 JUMPDEST POP POP POP POP POP DUP2 JUMP JUMPDEST PUSH1 0x0 DUP1 SLOAD PUSH2 0x112 SWAP1 PUSH2 0x23D JUMP JUMPDEST DUP1 PUSH1 0x1F ADD PUSH1 0x20 DUP1 SWAP2 DIV MUL PUSH1 0x20 ADD PUSH1 0x40 MLOAD SWAP1 DUP2 ADD PUSH1 0x40 MSTORE DUP1 SWAP3 SWAP2 SWAP1 DUP2 DUP2 MSTORE PUSH1 0x20 ADD DUP3 DUP1 SLOAD PUSH2 0x13E SWAP1 PUSH2 0x23D JUMP JUMPDEST DUP1 ISZERO PUSH2 0x18B JUMPI DUP1 PUSH1 0x1F LT PUSH2 0x160 JUMPI PUSH2 0x100 DUP1 DUP4 SLOAD DIV MUL DUP4 MSTORE SWAP2 PUSH1 0x20 ADD SWAP2 PUSH2 0x18B JUMP JUMPDEST DUP3 ADD SWAP2 SWAP1 PUSH1 0x0 MSTORE PUSH1 0x20 PUSH1 0x0 KECCAK256 SWAP1 JUMPDEST DUP2 SLOAD DUP2 MSTORE SWAP1 PUSH1 0x1 ADD SWAP1 PUSH1 0x20 ADD DUP1 DUP4 GT PUSH2 0x16E JUMPI DUP3 SWAP1 SUB PUSH1 0x1F AND DUP3 ADD SWAP2 JUMPDEST POP POP POP POP POP DUP2 JUMP JUMPDEST PUSH1 0x0 PUSH2 0x19E DUP3 PUSH2 0x1EE JUMP JUMPDEST PUSH2 0x1A8 DUP2 DUP6 PUSH2 0x1F9 JUMP JUMPDEST SWAP4 POP PUSH2 0x1B8 DUP2 DUP6 PUSH1 0x20 DUP7 ADD PUSH2 0x20A JUMP JUMPDEST PUSH2 0x1C1 DUP2 PUSH2 0x29E JUMP JUMPDEST DUP5 ADD SWAP2 POP POP SWAP3 SWAP2 POP POP JUMP JUMPDEST PUSH1 0x0 PUSH1 0x20 DUP3 ADD SWAP1 POP DUP2 DUP2 SUB PUSH1 0x0 DUP4 ADD MSTORE PUSH2 0x1E6 DUP2 DUP5 PUSH2 0x193 JUMP JUMPDEST SWAP1 POP SWAP3 SWAP2 POP POP JUMP JUMPDEST PUSH1 0x0 DUP2 MLOAD SWAP1 POP SWAP2 SWAP1 POP JUMP JUMPDEST PUSH1 0x0 DUP3 DUP3 MSTORE PUSH1 0x20 DUP3 ADD SWAP1 POP SWAP3 SWAP2 POP POP JUMP JUMPDEST PUSH1 0x0 JUMPDEST DUP4 DUP2 LT ISZERO PUSH2 0x228 JUMPI DUP1 DUP3 ADD MLOAD DUP2 DUP5 ADD MSTORE PUSH1 0x20 DUP2 ADD SWAP1 POP PUSH2 0x20D JUMP JUMPDEST DUP4 DUP2 GT ISZERO PUSH2 0x237 JUMPI PUSH1 0x0 DUP5 DUP5 ADD MSTORE JUMPDEST POP POP POP POP JUMP JUMPDEST PUSH1 0x0 PUSH1 0x2 DUP3 DIV SWAP1 POP PUSH1 0x1 DUP3 AND DUP1 PUSH2 0x255 JUMPI PUSH1 0x7F DUP3 AND SWAP2 POP JUMPDEST PUSH1 0x20 DUP3 LT DUP2 EQ ISZERO PUSH2 0x269 JUMPI PUSH2 0x268 PUSH2 0x26F JUMP JUMPDEST JUMPDEST POP SWAP2 SWAP1 POP JUMP JUMPDEST PUSH32 0x4E487B7100000000000000000000000000000000000000000000000000000000 PUSH1 0x0 MSTORE PUSH1 0x22 PUSH1 0x4 MSTORE PUSH1 0x24 PUSH1 0x0 REVERT JUMPDEST PUSH1 0x0 PUSH1 0x1F NOT PUSH1 0x1F DUP4 ADD AND SWAP1 POP SWAP2 SWAP1 POP JUMP INVALID LOG2 PUSH5 0x6970667358 0x22 SLT KECCAK256 PUSH8 0xAB8BFC2F74A2F6C3 DUP5 SAR 0x24 0xF6 PUSH16 0x57C8B55AD8ECA76154F6029A88438087 PUSH18 0x2564736F6C63430008070033000000000000 "
				},
				"gasEstimates": {
					"creation": {
						"codeDepositCost": "148200",
						"executionCost": "infinite",
						"totalCost": "infinite"
					},
					"external": {
						"name()": "infinite",
						"text()": "infinite"
					}
				},
				"methodIdentifiers": {
					"name()": "06fdde03",
					"text()": "1f1bd692"
				}
			},
			"storageLayout": {
				"storage": [
					{
						"astId": 24,
						"contract": "contracts/ParentConstructors.sol:B2",
						"label": "text",
						"offset": 0,
						"slot": "0",
						"type": "t_string_storage"
					},
					{
						"astId": 3,
						"contract": "contracts/ParentConstructors.sol:B2",
						"label": "name",
						"offset": 0,
						"slot": "1",
						"type": "t_string_storage"
					}
				],
				"types": {
					"t_string_storage": {
						"encoding": "bytes",
						"label": "string",
						"numberOfBytes": "32"
					}
				}
			},
			"userdoc": {
				"kind": "user",
				"methods": {},
				"version": 1
			}
		}
	}
}