{
	"contracts/ParentConstructors.sol": {
		"T": {
			"abi": [
				{
					"inputs": [
						{
							"internalType": "string",
							"name": "_text",
							"type": "string"
						}
					],
					"stateMutability": "nonpayable",
					"type": "constructor"
				},
				{
					"anonymous": false,
					"inputs": [
						{
							"indexed": false,
							"internalType": "string",
							"name": "message",
							"type": "string"
						}
					],
					"name": "Log2",
					"type": "event"
				},
				{
					"inputs": [],
					"name": "text",
					"outputs": [
						{
							"internalType": "string",
							"name": "",
							"type": "string"
						}
					],
					"stateMutability": "view",
					"type": "function"
				}
			],
			"devdoc": {
				"kind": "dev",
				"methods": {},
				"version": 1
			},
			"evm": {
				"assembly": "    /* \"contracts/ParentConstructors.sol\":1250:1432  contract T {... */\n  mstore(0x40, 0x80)\n    /* \"contracts/ParentConstructors.sol\":1323:1430  constructor(string memory _text) {... */\n  callvalue\n  dup1\n  iszero\n  tag_1\n  jumpi\n  0x00\n  dup1\n  revert\ntag_1:\n  pop\n  mload(0x40)\n  sub(codesize, bytecodeSize)\n  dup1\n  bytecodeSize\n  dup4\n  codecopy\n  dup2\n  dup2\n  add\n  0x40\n  mstore\n  dup2\n  add\n  swap1\n  tag_2\n  swap2\n  swap1\n  tag_3\n  jump\t// in\ntag_2:\n    /* \"contracts/ParentConstructors.sol\":1373:1378  _text */\n  dup1\n    /* \"contracts/ParentConstructors.sol\":1366:1370  text */\n  0x00\n    /* \"contracts/ParentConstructors.sol\":1366:1378  text = _text */\n  swap1\n  dup1\n  mload\n  swap1\n  0x20\n  add\n  swap1\n  tag_6\n  swap3\n  swap2\n  swap1\n  tag_7\n  jump\t// in\ntag_6:\n  pop\n    /* \"contracts/ParentConstructors.sol\":1393:1423  Log2(\"Constructor T executed\") */\n  0x16783dda8fe899b47fa72274509d788dc4b657c9628a27189a81f451725e7de2\n  mload(0x40)\n  tag_8\n  swap1\n  tag_9\n  jump\t// in\ntag_8:\n  mload(0x40)\n  dup1\n  swap2\n  sub\n  swap1\n  log1\n    /* \"contracts/ParentConstructors.sol\":1323:1430  constructor(string memory _text) {... */\n  pop\n    /* \"contracts/ParentConstructors.sol\":1250:1432  contract T {... */\n  jump(tag_10)\ntag_7:\n  dup3\n  dup1\n  sload\n  tag_11\n  swap1\n  tag_12\n  jump\t// in\ntag_11:\n  swap1\n  0x00\n  mstore\n  keccak256(0x00, 0x20)\n  swap1\n  0x1f\n  add\n  0x20\n  swap1\n  div\n  dup2\n  add\n  swap3\n  dup3\n  tag_14\n  jumpi\n  0x00\n  dup6\n  sstore\n  jump(tag_13)\ntag_14:\n  dup3\n  0x1f\n  lt\n  tag_15\n  jumpi\n  dup1\n  mload\n  not(0xff)\n  and\n  dup4\n  dup1\n  add\n  or\n  dup6\n  sstore\n  jump(tag_13)\ntag_15:\n  dup3\n  dup1\n  add\n  0x01\n  add\n  dup6\n  sstore\n  dup3\n  iszero\n  tag_13\n  jumpi\n  swap2\n  dup3\n  add\ntag_16:\n  dup3\n  dup2\n  gt\n  iszero\n  tag_17\n  jumpi\n  dup3\n  mload\n  dup3\n  sstore\n  swap2\n  0x20\n  add\n  swap2\n  swap1\n  0x01\n  add\n  swap1\n  jump(tag_16)\ntag_17:\ntag_13:\n  pop\n  swap1\n  pop\n  tag_18\n  swap2\n  swap1\n  tag_19\n  jump\t// in\ntag_18:\n  pop\n  swap1\n  jump\t// out\ntag_19:\ntag_20:\n  dup1\n  dup3\n  gt\n  iszero\n  tag_21\n  jumpi\n  0x00\n  dup2\n  0x00\n  swap1\n  sstore\n  pop\n  0x01\n  add\n  jump(tag_20)\ntag_21:\n  pop\n  swap1\n  jump\t// out\n    /* \"#utility.yul\":7:428   */\ntag_23:\n    /* \"#utility.yul\":96:101   */\n  0x00\n    /* \"#utility.yul\":121:187   */\n  tag_25\n    /* \"#utility.yul\":137:186   */\n  tag_26\n    /* \"#utility.yul\":179:185   */\n  dup5\n    /* \"#utility.yul\":137:186   */\n  tag_27\n  jump\t// in\ntag_26:\n    /* \"#utility.yul\":121:187   */\n  tag_28\n  jump\t// in\ntag_25:\n    /* \"#utility.yul\":112:187   */\n  swap1\n  pop\n    /* \"#utility.yul\":210:216   */\n  dup3\n    /* \"#utility.yul\":203:208   */\n  dup2\n    /* \"#utility.yul\":196:217   */\n  mstore\n    /* \"#utility.yul\":248:252   */\n  0x20\n    /* \"#utility.yul\":241:246   */\n  dup2\n    /* \"#utility.yul\":237:253   */\n  add\n    /* \"#utility.yul\":286:289   */\n  dup5\n    /* \"#utility.yul\":277:283   */\n  dup5\n    /* \"#utility.yul\":272:275   */\n  dup5\n    /* \"#utility.yul\":268:284   */\n  add\n    /* \"#utility.yul\":265:290   */\n  gt\n    /* \"#utility.yul\":262:374   */\n  iszero\n  tag_29\n  jumpi\n    /* \"#utility.yul\":293:372   */\n  tag_30\n  tag_31\n  jump\t// in\ntag_30:\n    /* \"#utility.yul\":262:374   */\ntag_29:\n    /* \"#utility.yul\":383:422   */\n  tag_32\n    /* \"#utility.yul\":415:421   */\n  dup5\n    /* \"#utility.yul\":410:413   */\n  dup3\n    /* \"#utility.yul\":405:408   */\n  dup6\n    /* \"#utility.yul\":383:422   */\n  tag_33\n  jump\t// in\ntag_32:\n    /* \"#utility.yul\":102:428   */\n  pop\n    /* \"#utility.yul\":7:428   */\n  swap4\n  swap3\n  pop\n  pop\n  pop\n  jump\t// out\n    /* \"#utility.yul\":448:803   */\ntag_34:\n    /* \"#utility.yul\":515:520   */\n  0x00\n    /* \"#utility.yul\":564:567   */\n  dup3\n    /* \"#utility.yul\":557:561   */\n  0x1f\n    /* \"#utility.yul\":549:555   */\n  dup4\n    /* \"#utility.yul\":545:562   */\n  add\n    /* \"#utility.yul\":541:568   */\n  slt\n    /* \"#utility.yul\":531:653   */\n  tag_36\n  jumpi\n    /* \"#utility.yul\":572:651   */\n  tag_37\n  tag_38\n  jump\t// in\ntag_37:\n    /* \"#utility.yul\":531:653   */\ntag_36:\n    /* \"#utility.yul\":682:688   */\n  dup2\n    /* \"#utility.yul\":676:689   */\n  mload\n    /* \"#utility.yul\":707:797   */\n  tag_39\n    /* \"#utility.yul\":793:796   */\n  dup5\n    /* \"#utility.yul\":785:791   */\n  dup3\n    /* \"#utility.yul\":778:782   */\n  0x20\n    /* \"#utility.yul\":770:776   */\n  dup7\n    /* \"#utility.yul\":766:783   */\n  add\n    /* \"#utility.yul\":707:797   */\n  tag_23\n  jump\t// in\ntag_39:\n    /* \"#utility.yul\":698:797   */\n  swap2\n  pop\n    /* \"#utility.yul\":521:803   */\n  pop\n    /* \"#utility.yul\":448:803   */\n  swap3\n  swap2\n  pop\n  pop\n  jump\t// out\n    /* \"#utility.yul\":809:1333   */\ntag_3:\n    /* \"#utility.yul\":889:895   */\n  0x00\n    /* \"#utility.yul\":938:940   */\n  0x20\n    /* \"#utility.yul\":926:935   */\n  dup3\n    /* \"#utility.yul\":917:924   */\n  dup5\n    /* \"#utility.yul\":913:936   */\n  sub\n    /* \"#utility.yul\":909:941   */\n  slt\n    /* \"#utility.yul\":906:1025   */\n  iszero\n  tag_41\n  jumpi\n    /* \"#utility.yul\":944:1023   */\n  tag_42\n  tag_43\n  jump\t// in\ntag_42:\n    /* \"#utility.yul\":906:1025   */\ntag_41:\n    /* \"#utility.yul\":1085:1086   */\n  0x00\n    /* \"#utility.yul\":1074:1083   */\n  dup3\n    /* \"#utility.yul\":1070:1087   */\n  add\n    /* \"#utility.yul\":1064:1088   */\n  mload\n    /* \"#utility.yul\":1115:1133   */\n  0xffffffffffffffff\n    /* \"#utility.yul\":1107:1113   */\n  dup2\n    /* \"#utility.yul\":1104:1134   */\n  gt\n    /* \"#utility.yul\":1101:1218   */\n  iszero\n  tag_44\n  jumpi\n    /* \"#utility.yul\":1137:1216   */\n  tag_45\n  tag_46\n  jump\t// in\ntag_45:\n    /* \"#utility.yul\":1101:1218   */\ntag_44:\n    /* \"#utility.yul\":1242:1316   */\n  tag_47\n    /* \"#utility.yul\":1308:1315   */\n  dup5\n    /* \"#utility.yul\":1299:1305   */\n  dup3\n    /* \"#utility.yul\":1288:1297   */\n  dup6\n    /* \"#utility.yul\":1284:1306   */\n  add\n    /* \"#utility.yul\":1242:1316   */\n  tag_34\n  jump\t// in\ntag_47:\n    /* \"#utility.yul\":1232:1316   */\n  swap2\n  pop\n    /* \"#utility.yul\":1035:1326   */\n  pop\n    /* \"#utility.yul\":809:1333   */\n  swap3\n  swap2\n  pop\n  pop\n  jump\t// out\n    /* \"#utility.yul\":1339:1705   */\ntag_48:\n    /* \"#utility.yul\":1481:1484   */\n  0x00\n    /* \"#utility.yul\":1502:1569   */\n  tag_50\n    /* \"#utility.yul\":1566:1568   */\n  0x16\n    /* \"#utility.yul\":1561:1564   */\n  dup4\n    /* \"#utility.yul\":1502:1569   */\n  tag_51\n  jump\t// in\ntag_50:\n    /* \"#utility.yul\":1495:1569   */\n  swap2\n  pop\n    /* \"#utility.yul\":1578:1671   */\n  tag_52\n    /* \"#utility.yul\":1667:1670   */\n  dup3\n    /* \"#utility.yul\":1578:1671   */\n  tag_53\n  jump\t// in\ntag_52:\n    /* \"#utility.yul\":1696:1698   */\n  0x20\n    /* \"#utility.yul\":1691:1694   */\n  dup3\n    /* \"#utility.yul\":1687:1699   */\n  add\n    /* \"#utility.yul\":1680:1699   */\n  swap1\n  pop\n    /* \"#utility.yul\":1339:1705   */\n  swap2\n  swap1\n  pop\n  jump\t// out\n    /* \"#utility.yul\":1711:2130   */\ntag_9:\n    /* \"#utility.yul\":1877:1881   */\n  0x00\n    /* \"#utility.yul\":1915:1917   */\n  0x20\n    /* \"#utility.yul\":1904:1913   */\n  dup3\n    /* \"#utility.yul\":1900:1918   */\n  add\n    /* \"#utility.yul\":1892:1918   */\n  swap1\n  pop\n    /* \"#utility.yul\":1964:1973   */\n  dup2\n    /* \"#utility.yul\":1958:1962   */\n  dup2\n    /* \"#utility.yul\":1954:1974   */\n  sub\n    /* \"#utility.yul\":1950:1951   */\n  0x00\n    /* \"#utility.yul\":1939:1948   */\n  dup4\n    /* \"#utility.yul\":1935:1952   */\n  add\n    /* \"#utility.yul\":1928:1975   */\n  mstore\n    /* \"#utility.yul\":1992:2123   */\n  tag_55\n    /* \"#utility.yul\":2118:2122   */\n  dup2\n    /* \"#utility.yul\":1992:2123   */\n  tag_48\n  jump\t// in\ntag_55:\n    /* \"#utility.yul\":1984:2123   */\n  swap1\n  pop\n    /* \"#utility.yul\":1711:2130   */\n  swap2\n  swap1\n  pop\n  jump\t// out\n    /* \"#utility.yul\":2136:2265   */\ntag_28:\n    /* \"#utility.yul\":2170:2176   */\n  0x00\n    /* \"#utility.yul\":2197:2217   */\n  tag_57\n  tag_58\n  jump\t// in\ntag_57:\n    /* \"#utility.yul\":2187:2217   */\n  swap1\n  pop\n    /* \"#utility.yul\":2226:2259   */\n  tag_59\n    /* \"#utility.yul\":2254:2258   */\n  dup3\n    /* \"#utility.yul\":2246:2252   */\n  dup3\n    /* \"#utility.yul\":2226:2259   */\n  tag_60\n  jump\t// in\ntag_59:\n    /* \"#utility.yul\":2136:2265   */\n  swap2\n  swap1\n  pop\n  jump\t// out\n    /* \"#utility.yul\":2271:2346   */\ntag_58:\n    /* \"#utility.yul\":2304:2310   */\n  0x00\n    /* \"#utility.yul\":2337:2339   */\n  0x40\n    /* \"#utility.yul\":2331:2340   */\n  mload\n    /* \"#utility.yul\":2321:2340   */\n  swap1\n  pop\n    /* \"#utility.yul\":2271:2346   */\n  swap1\n  jump\t// out\n    /* \"#utility.yul\":2352:2660   */\ntag_27:\n    /* \"#utility.yul\":2414:2418   */\n  0x00\n    /* \"#utility.yul\":2504:2522   */\n  0xffffffffffffffff\n    /* \"#utility.yul\":2496:2502   */\n  dup3\n    /* \"#utility.yul\":2493:2523   */\n  gt\n    /* \"#utility.yul\":2490:2546   */\n  iszero\n  tag_63\n  jumpi\n    /* \"#utility.yul\":2526:2544   */\n  tag_64\n  tag_65\n  jump\t// in\ntag_64:\n    /* \"#utility.yul\":2490:2546   */\ntag_63:\n    /* \"#utility.yul\":2564:2593   */\n  tag_66\n    /* \"#utility.yul\":2586:2592   */\n  dup3\n    /* \"#utility.yul\":2564:2593   */\n  tag_67\n  jump\t// in\ntag_66:\n    /* \"#utility.yul\":2556:2593   */\n  swap1\n  pop\n    /* \"#utility.yul\":2648:2652   */\n  0x20\n    /* \"#utility.yul\":2642:2646   */\n  dup2\n    /* \"#utility.yul\":2638:2653   */\n  add\n    /* \"#utility.yul\":2630:2653   */\n  swap1\n  pop\n    /* \"#utility.yul\":2352:2660   */\n  swap2\n  swap1\n  pop\n  jump\t// out\n    /* \"#utility.yul\":2666:2835   */\ntag_51:\n    /* \"#utility.yul\":2750:2761   */\n  0x00\n    /* \"#utility.yul\":2784:2790   */\n  dup3\n    /* \"#utility.yul\":2779:2782   */\n  dup3\n    /* \"#utility.yul\":2772:2791   */\n  mstore\n    /* \"#utility.yul\":2824:2828   */\n  0x20\n    /* \"#utility.yul\":2819:2822   */\n  dup3\n    /* \"#utility.yul\":2815:2829   */\n  add\n    /* \"#utility.yul\":2800:2829   */\n  swap1\n  pop\n    /* \"#utility.yul\":2666:2835   */\n  swap3\n  swap2\n  pop\n  pop\n  jump\t// out\n    /* \"#utility.yul\":2841:3148   */\ntag_33:\n    /* \"#utility.yul\":2909:2910   */\n  0x00\n    /* \"#utility.yul\":2919:3032   */\ntag_70:\n    /* \"#utility.yul\":2933:2939   */\n  dup4\n    /* \"#utility.yul\":2930:2931   */\n  dup2\n    /* \"#utility.yul\":2927:2940   */\n  lt\n    /* \"#utility.yul\":2919:3032   */\n  iszero\n  tag_72\n  jumpi\n    /* \"#utility.yul\":3018:3019   */\n  dup1\n    /* \"#utility.yul\":3013:3016   */\n  dup3\n    /* \"#utility.yul\":3009:3020   */\n  add\n    /* \"#utility.yul\":3003:3021   */\n  mload\n    /* \"#utility.yul\":2999:3000   */\n  dup2\n    /* \"#utility.yul\":2994:2997   */\n  dup5\n    /* \"#utility.yul\":2990:3001   */\n  add\n    /* \"#utility.yul\":2983:3022   */\n  mstore\n    /* \"#utility.yul\":2955:2957   */\n  0x20\n    /* \"#utility.yul\":2952:2953   */\n  dup2\n    /* \"#utility.yul\":2948:2958   */\n  add\n    /* \"#utility.yul\":2943:2958   */\n  swap1\n  pop\n    /* \"#utility.yul\":2919:3032   */\n  jump(tag_70)\ntag_72:\n    /* \"#utility.yul\":3050:3056   */\n  dup4\n    /* \"#utility.yul\":3047:3048   */\n  dup2\n    /* \"#utility.yul\":3044:3057   */\n  gt\n    /* \"#utility.yul\":3041:3142   */\n  iszero\n  tag_73\n  jumpi\n    /* \"#utility.yul\":3130:3131   */\n  0x00\n    /* \"#utility.yul\":3121:3127   */\n  dup5\n    /* \"#utility.yul\":3116:3119   */\n  dup5\n    /* \"#utility.yul\":3112:3128   */\n  add\n    /* \"#utility.yul\":3105:3132   */\n  mstore\n    /* \"#utility.yul\":3041:3142   */\ntag_73:\n    /* \"#utility.yul\":2890:3148   */\n  pop\n    /* \"#utility.yul\":2841:3148   */\n  pop\n  pop\n  pop\n  jump\t// out\n    /* \"#utility.yul\":3154:3474   */\ntag_12:\n    /* \"#utility.yul\":3198:3204   */\n  0x00\n    /* \"#utility.yul\":3235:3236   */\n  0x02\n    /* \"#utility.yul\":3229:3233   */\n  dup3\n    /* \"#utility.yul\":3225:3237   */\n  div\n    /* \"#utility.yul\":3215:3237   */\n  swap1\n  pop\n    /* \"#utility.yul\":3282:3283   */\n  0x01\n    /* \"#utility.yul\":3276:3280   */\n  dup3\n    /* \"#utility.yul\":3272:3284   */\n  and\n    /* \"#utility.yul\":3303:3321   */\n  dup1\n    /* \"#utility.yul\":3293:3374   */\n  tag_75\n  jumpi\n    /* \"#utility.yul\":3359:3363   */\n  0x7f\n    /* \"#utility.yul\":3351:3357   */\n  dup3\n    /* \"#utility.yul\":3347:3364   */\n  and\n    /* \"#utility.yul\":3337:3364   */\n  swap2\n  pop\n    /* \"#utility.yul\":3293:3374   */\ntag_75:\n    /* \"#utility.yul\":3421:3423   */\n  0x20\n    /* \"#utility.yul\":3413:3419   */\n  dup3\n    /* \"#utility.yul\":3410:3424   */\n  lt\n    /* \"#utility.yul\":3390:3408   */\n  dup2\n    /* \"#utility.yul\":3387:3425   */\n  eq\n    /* \"#utility.yul\":3384:3468   */\n  iszero\n  tag_76\n  jumpi\n    /* \"#utility.yul\":3440:3458   */\n  tag_77\n  tag_78\n  jump\t// in\ntag_77:\n    /* \"#utility.yul\":3384:3468   */\ntag_76:\n    /* \"#utility.yul\":3205:3474   */\n  pop\n    /* \"#utility.yul\":3154:3474   */\n  swap2\n  swap1\n  pop\n  jump\t// out\n    /* \"#utility.yul\":3480:3761   */\ntag_60:\n    /* \"#utility.yul\":3563:3590   */\n  tag_80\n    /* \"#utility.yul\":3585:3589   */\n  dup3\n    /* \"#utility.yul\":3563:3590   */\n  tag_67\n  jump\t// in\ntag_80:\n    /* \"#utility.yul\":3555:3561   */\n  dup2\n    /* \"#utility.yul\":3551:3591   */\n  add\n    /* \"#utility.yul\":3693:3699   */\n  dup2\n    /* \"#utility.yul\":3681:3691   */\n  dup2\n    /* \"#utility.yul\":3678:3700   */\n  lt\n    /* \"#utility.yul\":3657:3675   */\n  0xffffffffffffffff\n    /* \"#utility.yul\":3645:3655   */\n  dup3\n    /* \"#utility.yul\":3642:3676   */\n  gt\n    /* \"#utility.yul\":3639:3701   */\n  or\n    /* \"#utility.yul\":3636:3724   */\n  iszero\n  tag_81\n  jumpi\n    /* \"#utility.yul\":3704:3722   */\n  tag_82\n  tag_65\n  jump\t// in\ntag_82:\n    /* \"#utility.yul\":3636:3724   */\ntag_81:\n    /* \"#utility.yul\":3744:3754   */\n  dup1\n    /* \"#utility.yul\":3740:3742   */\n  0x40\n    /* \"#utility.yul\":3733:3755   */\n  mstore\n    /* \"#utility.yul\":3523:3761   */\n  pop\n    /* \"#utility.yul\":3480:3761   */\n  pop\n  pop\n  jump\t// out\n    /* \"#utility.yul\":3767:3947   */\ntag_78:\n    /* \"#utility.yul\":3815:3892   */\n  0x4e487b7100000000000000000000000000000000000000000000000000000000\n    /* \"#utility.yul\":3812:3813   */\n  0x00\n    /* \"#utility.yul\":3805:3893   */\n  mstore\n    /* \"#utility.yul\":3912:3916   */\n  0x22\n    /* \"#utility.yul\":3909:3910   */\n  0x04\n    /* \"#utility.yul\":3902:3917   */\n  mstore\n    /* \"#utility.yul\":3936:3940   */\n  0x24\n    /* \"#utility.yul\":3933:3934   */\n  0x00\n    /* \"#utility.yul\":3926:3941   */\n  revert\n    /* \"#utility.yul\":3953:4133   */\ntag_65:\n    /* \"#utility.yul\":4001:4078   */\n  0x4e487b7100000000000000000000000000000000000000000000000000000000\n    /* \"#utility.yul\":3998:3999   */\n  0x00\n    /* \"#utility.yul\":3991:4079   */\n  mstore\n    /* \"#utility.yul\":4098:4102   */\n  0x41\n    /* \"#utility.yul\":4095:4096   */\n  0x04\n    /* \"#utility.yul\":4088:4103   */\n  mstore\n    /* \"#utility.yul\":4122:4126   */\n  0x24\n    /* \"#utility.yul\":4119:4120   */\n  0x00\n    /* \"#utility.yul\":4112:4127   */\n  revert\n    /* \"#utility.yul\":4139:4256   */\ntag_38:\n    /* \"#utility.yul\":4248:4249   */\n  0x00\n    /* \"#utility.yul\":4245:4246   */\n  dup1\n    /* \"#utility.yul\":4238:4250   */\n  revert\n    /* \"#utility.yul\":4262:4379   */\ntag_31:\n    /* \"#utility.yul\":4371:4372   */\n  0x00\n    /* \"#utility.yul\":4368:4369   */\n  dup1\n    /* \"#utility.yul\":4361:4373   */\n  revert\n    /* \"#utility.yul\":4385:4502   */\ntag_46:\n    /* \"#utility.yul\":4494:4495   */\n  0x00\n    /* \"#utility.yul\":4491:4492   */\n  dup1\n    /* \"#utility.yul\":4484:4496   */\n  revert\n    /* \"#utility.yul\":4508:4625   */\ntag_43:\n    /* \"#utility.yul\":4617:4618   */\n  0x00\n    /* \"#utility.yul\":4614:4615   */\n  dup1\n    /* \"#utility.yul\":4607:4619   */\n  revert\n    /* \"#utility.yul\":4631:4733   */\ntag_67:\n    /* \"#utility.yul\":4672:4678   */\n  0x00\n    /* \"#utility.yul\":4723:4725   */\n  0x1f\n    /* \"#utility.yul\":4719:4726   */\n  not\n    /* \"#utility.yul\":4714:4716   */\n  0x1f\n    /* \"#utility.yul\":4707:4712   */\n  dup4\n    /* \"#utility.yul\":4703:4717   */\n  add\n    /* \"#utility.yul\":4699:4727   */\n  and\n    /* \"#utility.yul\":4689:4727   */\n  swap1\n  pop\n    /* \"#utility.yul\":4631:4733   */\n  swap2\n  swap1\n  pop\n  jump\t// out\n    /* \"#utility.yul\":4739:4911   */\ntag_53:\n    /* \"#utility.yul\":4879:4903   */\n  0x436f6e7374727563746f72205420657865637574656400000000000000000000\n    /* \"#utility.yul\":4875:4876   */\n  0x00\n    /* \"#utility.yul\":4867:4873   */\n  dup3\n    /* \"#utility.yul\":4863:4877   */\n  add\n    /* \"#utility.yul\":4856:4904   */\n  mstore\n    /* \"#utility.yul\":4739:4911   */\n  pop\n  jump\t// out\n    /* \"contracts/ParentConstructors.sol\":1250:1432  contract T {... */\ntag_10:\n  dataSize(sub_0)\n  dup1\n  dataOffset(sub_0)\n  0x00\n  codecopy\n  0x00\n  return\nstop\n\nsub_0: assembly {\n        /* \"contracts/ParentConstructors.sol\":1250:1432  contract T {... */\n      mstore(0x40, 0x80)\n      callvalue\n      dup1\n      iszero\n      tag_1\n      jumpi\n      0x00\n      dup1\n      revert\n    tag_1:\n      pop\n      jumpi(tag_2, lt(calldatasize, 0x04))\n      shr(0xe0, calldataload(0x00))\n      dup1\n      0x1f1bd692\n      eq\n      tag_3\n      jumpi\n    tag_2:\n      0x00\n      dup1\n      revert\n        /* \"contracts/ParentConstructors.sol\":1267:1285  string public text */\n    tag_3:\n      tag_4\n      tag_5\n      jump\t// in\n    tag_4:\n      mload(0x40)\n      tag_6\n      swap2\n      swap1\n      tag_7\n      jump\t// in\n    tag_6:\n      mload(0x40)\n      dup1\n      swap2\n      sub\n      swap1\n      return\n    tag_5:\n      0x00\n      dup1\n      sload\n      tag_8\n      swap1\n      tag_9\n      jump\t// in\n    tag_8:\n      dup1\n      0x1f\n      add\n      0x20\n      dup1\n      swap2\n      div\n      mul\n      0x20\n      add\n      mload(0x40)\n      swap1\n      dup2\n      add\n      0x40\n      mstore\n      dup1\n      swap3\n      swap2\n      swap1\n      dup2\n      dup2\n      mstore\n      0x20\n      add\n      dup3\n      dup1\n      sload\n      tag_10\n      swap1\n      tag_9\n      jump\t// in\n    tag_10:\n      dup1\n      iszero\n      tag_11\n      jumpi\n      dup1\n      0x1f\n      lt\n      tag_12\n      jumpi\n      0x0100\n      dup1\n      dup4\n      sload\n      div\n      mul\n      dup4\n      mstore\n      swap2\n      0x20\n      add\n      swap2\n      jump(tag_11)\n    tag_12:\n      dup3\n      add\n      swap2\n      swap1\n      0x00\n      mstore\n      keccak256(0x00, 0x20)\n      swap1\n    tag_13:\n      dup2\n      sload\n      dup2\n      mstore\n      swap1\n      0x01\n      add\n      swap1\n      0x20\n      add\n      dup1\n      dup4\n      gt\n      tag_13\n      jumpi\n      dup3\n      swap1\n      sub\n      0x1f\n      and\n      dup3\n      add\n      swap2\n    tag_11:\n      pop\n      pop\n      pop\n      pop\n      pop\n      dup2\n      jump\t// out\n        /* \"#utility.yul\":7:371   */\n    tag_15:\n        /* \"#utility.yul\":95:98   */\n      0x00\n        /* \"#utility.yul\":123:162   */\n      tag_17\n        /* \"#utility.yul\":156:161   */\n      dup3\n        /* \"#utility.yul\":123:162   */\n      tag_18\n      jump\t// in\n    tag_17:\n        /* \"#utility.yul\":178:249   */\n      tag_19\n        /* \"#utility.yul\":242:248   */\n      dup2\n        /* \"#utility.yul\":237:240   */\n      dup6\n        /* \"#utility.yul\":178:249   */\n      tag_20\n      jump\t// in\n    tag_19:\n        /* \"#utility.yul\":171:249   */\n      swap4\n      pop\n        /* \"#utility.yul\":258:310   */\n      tag_21\n        /* \"#utility.yul\":303:309   */\n      dup2\n        /* \"#utility.yul\":298:301   */\n      dup6\n        /* \"#utility.yul\":291:295   */\n      0x20\n        /* \"#utility.yul\":284:289   */\n      dup7\n        /* \"#utility.yul\":280:296   */\n      add\n        /* \"#utility.yul\":258:310   */\n      tag_22\n      jump\t// in\n    tag_21:\n        /* \"#utility.yul\":335:364   */\n      tag_23\n        /* \"#utility.yul\":357:363   */\n      dup2\n        /* \"#utility.yul\":335:364   */\n      tag_24\n      jump\t// in\n    tag_23:\n        /* \"#utility.yul\":330:333   */\n      dup5\n        /* \"#utility.yul\":326:365   */\n      add\n        /* \"#utility.yul\":319:365   */\n      swap2\n      pop\n        /* \"#utility.yul\":99:371   */\n      pop\n        /* \"#utility.yul\":7:371   */\n      swap3\n      swap2\n      pop\n      pop\n      jump\t// out\n        /* \"#utility.yul\":377:690   */\n    tag_7:\n        /* \"#utility.yul\":490:494   */\n      0x00\n        /* \"#utility.yul\":528:530   */\n      0x20\n        /* \"#utility.yul\":517:526   */\n      dup3\n        /* \"#utility.yul\":513:531   */\n      add\n        /* \"#utility.yul\":505:531   */\n      swap1\n      pop\n        /* \"#utility.yul\":577:586   */\n      dup2\n        /* \"#utility.yul\":571:575   */\n      dup2\n        /* \"#utility.yul\":567:587   */\n      sub\n        /* \"#utility.yul\":563:564   */\n      0x00\n        /* \"#utility.yul\":552:561   */\n      dup4\n        /* \"#utility.yul\":548:565   */\n      add\n        /* \"#utility.yul\":541:588   */\n      mstore\n        /* \"#utility.yul\":605:683   */\n      tag_26\n        /* \"#utility.yul\":678:682   */\n      dup2\n        /* \"#utility.yul\":669:675   */\n      dup5\n        /* \"#utility.yul\":605:683   */\n      tag_15\n      jump\t// in\n    tag_26:\n        /* \"#utility.yul\":597:683   */\n      swap1\n      pop\n        /* \"#utility.yul\":377:690   */\n      swap3\n      swap2\n      pop\n      pop\n      jump\t// out\n        /* \"#utility.yul\":696:795   */\n    tag_18:\n        /* \"#utility.yul\":748:754   */\n      0x00\n        /* \"#utility.yul\":782:787   */\n      dup2\n        /* \"#utility.yul\":776:788   */\n      mload\n        /* \"#utility.yul\":766:788   */\n      swap1\n      pop\n        /* \"#utility.yul\":696:795   */\n      swap2\n      swap1\n      pop\n      jump\t// out\n        /* \"#utility.yul\":801:970   */\n    tag_20:\n        /* \"#utility.yul\":885:896   */\n      0x00\n        /* \"#utility.yul\":919:925   */\n      dup3\n        /* \"#utility.yul\":914:917   */\n      dup3\n        /* \"#utility.yul\":907:926   */\n      mstore\n        /* \"#utility.yul\":959:963   */\n      0x20\n        /* \"#utility.yul\":954:957   */\n      dup3\n        /* \"#utility.yul\":950:964   */\n      add\n        /* \"#utility.yul\":935:964   */\n      swap1\n      pop\n        /* \"#utility.yul\":801:970   */\n      swap3\n      swap2\n      pop\n      pop\n      jump\t// out\n        /* \"#utility.yul\":976:1283   */\n    tag_22:\n        /* \"#utility.yul\":1044:1045   */\n      0x00\n        /* \"#utility.yul\":1054:1167   */\n    tag_30:\n        /* \"#utility.yul\":1068:1074   */\n      dup4\n        /* \"#utility.yul\":1065:1066   */\n      dup2\n        /* \"#utility.yul\":1062:1075   */\n      lt\n        /* \"#utility.yul\":1054:1167   */\n      iszero\n      tag_32\n      jumpi\n        /* \"#utility.yul\":1153:1154   */\n      dup1\n        /* \"#utility.yul\":1148:1151   */\n      dup3\n        /* \"#utility.yul\":1144:1155   */\n      add\n        /* \"#utility.yul\":1138:1156   */\n      mload\n        /* \"#utility.yul\":1134:1135   */\n      dup2\n        /* \"#utility.yul\":1129:1132   */\n      dup5\n        /* \"#utility.yul\":1125:1136   */\n      add\n        /* \"#utility.yul\":1118:1157   */\n      mstore\n        /* \"#utility.yul\":1090:1092   */\n      0x20\n        /* \"#utility.yul\":1087:1088   */\n      dup2\n        /* \"#utility.yul\":1083:1093   */\n      add\n        /* \"#utility.yul\":1078:1093   */\n      swap1\n      pop\n        /* \"#utility.yul\":1054:1167   */\n      jump(tag_30)\n    tag_32:\n        /* \"#utility.yul\":1185:1191   */\n      dup4\n        /* \"#utility.yul\":1182:1183   */\n      dup2\n        /* \"#utility.yul\":1179:1192   */\n      gt\n        /* \"#utility.yul\":1176:1277   */\n      iszero\n      tag_33\n      jumpi\n        /* \"#utility.yul\":1265:1266   */\n      0x00\n        /* \"#utility.yul\":1256:1262   */\n      dup5\n        /* \"#utility.yul\":1251:1254   */\n      dup5\n        /* \"#utility.yul\":1247:1263   */\n      add\n        /* \"#utility.yul\":1240:1267   */\n      mstore\n        /* \"#utility.yul\":1176:1277   */\n    tag_33:\n        /* \"#utility.yul\":1025:1283   */\n      pop\n        /* \"#utility.yul\":976:1283   */\n      pop\n      pop\n      pop\n      jump\t// out\n        /* \"#utility.yul\":1289:1609   */\n    tag_9:\n        /* \"#utility.yul\":1333:1339   */\n      0x00\n        /* \"#utility.yul\":1370:1371   */\n      0x02\n        /* \"#utility.yul\":1364:1368   */\n      dup3\n        /* \"#utility.yul\":1360:1372   */\n      div\n        /* \"#utility.yul\":1350:1372   */\n      swap1\n      pop\n        /* \"#utility.yul\":1417:1418   */\n      0x01\n        /* \"#utility.yul\":1411:1415   */\n      dup3\n        /* \"#utility.yul\":1407:1419   */\n      and\n        /* \"#utility.yul\":1438:1456   */\n      dup1\n        /* \"#utility.yul\":1428:1509   */\n      tag_35\n      jumpi\n        /* \"#utility.yul\":1494:1498   */\n      0x7f\n        /* \"#utility.yul\":1486:1492   */\n      dup3\n        /* \"#utility.yul\":1482:1499   */\n      and\n        /* \"#utility.yul\":1472:1499   */\n      swap2\n      pop\n        /* \"#utility.yul\":1428:1509   */\n    tag_35:\n        /* \"#utility.yul\":1556:1558   */\n      0x20\n        /* \"#utility.yul\":1548:1554   */\n      dup3\n        /* \"#utility.yul\":1545:1559   */\n      lt\n        /* \"#utility.yul\":1525:1543   */\n      dup2\n        /* \"#utility.yul\":1522:1560   */\n      eq\n        /* \"#utility.yul\":1519:1603   */\n      iszero\n      tag_36\n      jumpi\n        /* \"#utility.yul\":1575:1593   */\n      tag_37\n      tag_38\n      jump\t// in\n    tag_37:\n        /* \"#utility.yul\":1519:1603   */\n    tag_36:\n        /* \"#utility.yul\":1340:1609   */\n      pop\n        /* \"#utility.yul\":1289:1609   */\n      swap2\n      swap1\n      pop\n      jump\t// out\n        /* \"#utility.yul\":1615:1795   */\n    tag_38:\n        /* \"#utility.yul\":1663:1740   */\n      0x4e487b7100000000000000000000000000000000000000000000000000000000\n        /* \"#utility.yul\":1660:1661   */\n      0x00\n        /* \"#utility.yul\":1653:1741   */\n      mstore\n        /* \"#utility.yul\":1760:1764   */\n      0x22\n        /* \"#utility.yul\":1757:1758   */\n      0x04\n        /* \"#utility.yul\":1750:1765   */\n      mstore\n        /* \"#utility.yul\":1784:1788   */\n      0x24\n        /* \"#utility.yul\":1781:1782   */\n      0x00\n        /* \"#utility.yul\":1774:1789   */\n      revert\n        /* \"#utility.yul\":1801:1903   */\n    tag_24:\n        /* \"#utility.yul\":1842:1848   */\n      0x00\n        /* \"#utility.yul\":1893:1895   */\n      0x1f\n        /* \"#utility.yul\":1889:1896   */\n      not\n        /* \"#utility.yul\":1884:1886   */\n      0x1f\n        /* \"#utility.yul\":1877:1882   */\n      dup4\n        /* \"#utility.yul\":1873:1887   */\n      add\n        /* \"#utility.yul\":1869:1897   */\n      and\n        /* \"#utility.yul\":1859:1897   */\n      swap1\n      pop\n        /* \"#utility.yul\":1801:1903   */\n      swap2\n      swap1\n      pop\n      jump\t// out\n\n    auxdata: 0xa264697066735822122000432c62e26bb178f3d4336ef043ca14cbcc1f68da817d35f417ca198bfb785c64736f6c63430008070033\n}\n",
				"bytecode": {
					"linkReferences": {},
					"object": "608060405234801561001057600080fd5b5060405161060938038061060983398181016040528101906100329190610197565b8060009080519060200190610048929190610084565b507f16783dda8fe899b47fa72274509d788dc4b657c9628a27189a81f451725e7de260405161007690610203565b60405180910390a1506103cc565b828054610090906102bd565b90600052602060002090601f0160209004810192826100b257600085556100f9565b82601f106100cb57805160ff19168380011785556100f9565b828001600101855582156100f9579182015b828111156100f85782518255916020019190600101906100dd565b5b509050610106919061010a565b5090565b5b8082111561012357600081600090555060010161010b565b5090565b600061013a61013584610248565b610223565b90508281526020810184848401111561015657610155610383565b5b61016184828561028a565b509392505050565b600082601f83011261017e5761017d61037e565b5b815161018e848260208601610127565b91505092915050565b6000602082840312156101ad576101ac61038d565b5b600082015167ffffffffffffffff8111156101cb576101ca610388565b5b6101d784828501610169565b91505092915050565b60006101ed601683610279565b91506101f8826103a3565b602082019050919050565b6000602082019050818103600083015261021c816101e0565b9050919050565b600061022d61023e565b905061023982826102ef565b919050565b6000604051905090565b600067ffffffffffffffff8211156102635761026261034f565b5b61026c82610392565b9050602081019050919050565b600082825260208201905092915050565b60005b838110156102a857808201518184015260208101905061028d565b838111156102b7576000848401525b50505050565b600060028204905060018216806102d557607f821691505b602082108114156102e9576102e8610320565b5b50919050565b6102f882610392565b810181811067ffffffffffffffff821117156103175761031661034f565b5b80604052505050565b7f4e487b7100000000000000000000000000000000000000000000000000000000600052602260045260246000fd5b7f4e487b7100000000000000000000000000000000000000000000000000000000600052604160045260246000fd5b600080fd5b600080fd5b600080fd5b600080fd5b6000601f19601f8301169050919050565b7f436f6e7374727563746f72205420657865637574656400000000000000000000600082015250565b61022e806103db6000396000f3fe608060405234801561001057600080fd5b506004361061002b5760003560e01c80631f1bd69214610030575b600080fd5b61003861004e565b6040516100459190610115565b60405180910390f35b6000805461005b90610186565b80601f016020809104026020016040519081016040528092919081815260200182805461008790610186565b80156100d45780601f106100a9576101008083540402835291602001916100d4565b820191906000526020600020905b8154815290600101906020018083116100b757829003601f168201915b505050505081565b60006100e782610137565b6100f18185610142565b9350610101818560208601610153565b61010a816101e7565b840191505092915050565b6000602082019050818103600083015261012f81846100dc565b905092915050565b600081519050919050565b600082825260208201905092915050565b60005b83811015610171578082015181840152602081019050610156565b83811115610180576000848401525b50505050565b6000600282049050600182168061019e57607f821691505b602082108114156101b2576101b16101b8565b5b50919050565b7f4e487b7100000000000000000000000000000000000000000000000000000000600052602260045260246000fd5b6000601f19601f830116905091905056fea264697066735822122000432c62e26bb178f3d4336ef043ca14cbcc1f68da817d35f417ca198bfb785c64736f6c63430008070033",
					"opcodes": "PUSH1 0x80 PUSH1 0x40 MSTORE CALLVALUE DUP1 ISZERO PUSH2 0x10 JUMPI PUSH1 0x0 DUP1 REVERT JUMPDEST POP PUSH1 0x40 MLOAD PUSH2 0x609 CODESIZE SUB DUP1 PUSH2 0x609 DUP4 CODECOPY DUP2 DUP2 ADD PUSH1 0x40 MSTORE DUP2 ADD SWAP1 PUSH2 0x32 SWAP2 SWAP1 PUSH2 0x197 JUMP JUMPDEST DUP1 PUSH1 0x0 SWAP1 DUP1 MLOAD SWAP1 PUSH1 0x20 ADD SWAP1 PUSH2 0x48 SWAP3 SWAP2 SWAP1 PUSH2 0x84 JUMP JUMPDEST POP PUSH32 0x16783DDA8FE899B47FA72274509D788DC4B657C9628A27189A81F451725E7DE2 PUSH1 0x40 MLOAD PUSH2 0x76 SWAP1 PUSH2 0x203 JUMP JUMPDEST PUSH1 0x40 MLOAD DUP1 SWAP2 SUB SWAP1 LOG1 POP PUSH2 0x3CC JUMP JUMPDEST DUP3 DUP1 SLOAD PUSH2 0x90 SWAP1 PUSH2 0x2BD JUMP JUMPDEST SWAP1 PUSH1 0x0 MSTORE PUSH1 0x20 PUSH1 0x0 KECCAK256 SWAP1 PUSH1 0x1F ADD PUSH1 0x20 SWAP1 DIV DUP2 ADD SWAP3 DUP3 PUSH2 0xB2 JUMPI PUSH1 0x0 DUP6 SSTORE PUSH2 0xF9 JUMP JUMPDEST DUP3 PUSH1 0x1F LT PUSH2 0xCB JUMPI DUP1 MLOAD PUSH1 0xFF NOT AND DUP4 DUP1 ADD OR DUP6 SSTORE PUSH2 0xF9 JUMP JUMPDEST DUP3 DUP1 ADD PUSH1 0x1 ADD DUP6 SSTORE DUP3 ISZERO PUSH2 0xF9 JUMPI SWAP2 DUP3 ADD JUMPDEST DUP3 DUP2 GT ISZERO PUSH2 0xF8 JUMPI DUP3 MLOAD DUP3 SSTORE SWAP2 PUSH1 0x20 ADD SWAP2 SWAP1 PUSH1 0x1 ADD SWAP1 PUSH2 0xDD JUMP JUMPDEST JUMPDEST POP SWAP1 POP PUSH2 0x106 SWAP2 SWAP1 PUSH2 0x10A JUMP JUMPDEST POP SWAP1 JUMP JUMPDEST JUMPDEST DUP1 DUP3 GT ISZERO PUSH2 0x123 JUMPI PUSH1 0x0 DUP2 PUSH1 0x0 SWAP1 SSTORE POP PUSH1 0x1 ADD PUSH2 0x10B JUMP JUMPDEST POP SWAP1 JUMP JUMPDEST PUSH1 0x0 PUSH2 0x13A PUSH2 0x135 DUP5 PUSH2 0x248 JUMP JUMPDEST PUSH2 0x223 JUMP JUMPDEST SWAP1 POP DUP3 DUP2 MSTORE PUSH1 0x20 DUP2 ADD DUP5 DUP5 DUP5 ADD GT ISZERO PUSH2 0x156 JUMPI PUSH2 0x155 PUSH2 0x383 JUMP JUMPDEST JUMPDEST PUSH2 0x161 DUP5 DUP3 DUP6 PUSH2 0x28A JUMP JUMPDEST POP SWAP4 SWAP3 POP POP POP JUMP JUMPDEST PUSH1 0x0 DUP3 PUSH1 0x1F DUP4 ADD SLT PUSH2 0x17E JUMPI PUSH2 0x17D PUSH2 0x37E JUMP JUMPDEST JUMPDEST DUP2 MLOAD PUSH2 0x18E DUP5 DUP3 PUSH1 0x20 DUP7 ADD PUSH2 0x127 JUMP JUMPDEST SWAP2 POP POP SWAP3 SWAP2 POP POP JUMP JUMPDEST PUSH1 0x0 PUSH1 0x20 DUP3 DUP5 SUB SLT ISZERO PUSH2 0x1AD JUMPI PUSH2 0x1AC PUSH2 0x38D JUMP JUMPDEST JUMPDEST PUSH1 0x0 DUP3 ADD MLOAD PUSH8 0xFFFFFFFFFFFFFFFF DUP2 GT ISZERO PUSH2 0x1CB JUMPI PUSH2 0x1CA PUSH2 0x388 JUMP JUMPDEST JUMPDEST PUSH2 0x1D7 DUP5 DUP3 DUP6 ADD PUSH2 0x169 JUMP JUMPDEST SWAP2 POP POP SWAP3 SWAP2 POP POP JUMP JUMPDEST PUSH1 0x0 PUSH2 0x1ED PUSH1 0x16 DUP4 PUSH2 0x279 JUMP JUMPDEST SWAP2 POP PUSH2 0x1F8 DUP3 PUSH2 0x3A3 JUMP JUMPDEST PUSH1 0x20 DUP3 ADD SWAP1 POP SWAP2 SWAP1 POP JUMP JUMPDEST PUSH1 0x0 PUSH1 0x20 DUP3 ADD SWAP1 POP DUP2 DUP2 SUB PUSH1 0x0 DUP4 ADD MSTORE PUSH2 0x21C DUP2 PUSH2 0x1E0 JUMP JUMPDEST SWAP1 POP SWAP2 SWAP1 POP JUMP JUMPDEST PUSH1 0x0 PUSH2 0x22D PUSH2 0x23E JUMP JUMPDEST SWAP1 POP PUSH2 0x239 DUP3 DUP3 PUSH2 0x2EF JUMP JUMPDEST SWAP2 SWAP1 POP JUMP JUMPDEST PUSH1 0x0 PUSH1 0x40 MLOAD SWAP1 POP SWAP1 JUMP JUMPDEST PUSH1 0x0 PUSH8 0xFFFFFFFFFFFFFFFF DUP3 GT ISZERO PUSH2 0x263 JUMPI PUSH2 0x262 PUSH2 0x34F JUMP JUMPDEST JUMPDEST PUSH2 0x26C DUP3 PUSH2 0x392 JUMP JUMPDEST SWAP1 POP PUSH1 0x20 DUP2 ADD SWAP1 POP SWAP2 SWAP1 POP JUMP JUMPDEST PUSH1 0x0 DUP3 DUP3 MSTORE PUSH1 0x20 DUP3 ADD SWAP1 POP SWAP3 SWAP2 POP POP JUMP JUMPDEST PUSH1 0x0 JUMPDEST DUP4 DUP2 LT ISZERO PUSH2 0x2A8 JUMPI DUP1 DUP3 ADD MLOAD DUP2 DUP5 ADD MSTORE PUSH1 0x20 DUP2 ADD SWAP1 POP PUSH2 0x28D JUMP JUMPDEST DUP4 DUP2 GT ISZERO PUSH2 0x2B7 JUMPI PUSH1 0x0 DUP5 DUP5 ADD MSTORE JUMPDEST POP POP POP POP JUMP JUMPDEST PUSH1 0x0 PUSH1 0x2 DUP3 DIV SWAP1 POP PUSH1 0x1 DUP3 AND DUP1 PUSH2 0x2D5 JUMPI PUSH1 0x7F DUP3 AND SWAP2 POP JUMPDEST PUSH1 0x20 DUP3 LT DUP2 EQ ISZERO PUSH2 0x2E9 JUMPI PUSH2 0x2E8 PUSH2 0x320 JUMP JUMPDEST JUMPDEST POP SWAP2 SWAP1 POP JUMP JUMPDEST PUSH2 0x2F8 DUP3 PUSH2 0x392 JUMP JUMPDEST DUP2 ADD DUP2 DUP2 LT PUSH8 0xFFFFFFFFFFFFFFFF DUP3 GT OR ISZERO PUSH2 0x317 JUMPI PUSH2 0x316 PUSH2 0x34F JUMP JUMPDEST JUMPDEST DUP1 PUSH1 0x40 MSTORE POP POP POP JUMP JUMPDEST PUSH32 0x4E487B7100000000000000000000000000000000000000000000000000000000 PUSH1 0x0 MSTORE PUSH1 0x22 PUSH1 0x4 MSTORE PUSH1 0x24 PUSH1 0x0 REVERT JUMPDEST PUSH32 0x4E487B7100000000000000000000000000000000000000000000000000000000 PUSH1 0x0 MSTORE PUSH1 0x41 PUSH1 0x4 MSTORE PUSH1 0x24 PUSH1 0x0 REVERT JUMPDEST PUSH1 0x0 DUP1 REVERT JUMPDEST PUSH1 0x0 DUP1 REVERT JUMPDEST PUSH1 0x0 DUP1 REVERT JUMPDEST PUSH1 0x0 DUP1 REVERT JUMPDEST PUSH1 0x0 PUSH1 0x1F NOT PUSH1 0x1F DUP4 ADD AND SWAP1 POP SWAP2 SWAP1 POP JUMP JUMPDEST PUSH32 0x436F6E7374727563746F72205420657865637574656400000000000000000000 PUSH1 0x0 DUP3 ADD MSTORE POP JUMP JUMPDEST PUSH2 0x22E DUP1 PUSH2 0x3DB PUSH1 0x0 CODECOPY PUSH1 0x0 RETURN INVALID PUSH1 0x80 PUSH1 0x40 MSTORE CALLVALUE DUP1 ISZERO PUSH2 0x10 JUMPI PUSH1 0x0 DUP1 REVERT JUMPDEST POP PUSH1 0x4 CALLDATASIZE LT PUSH2 0x2B JUMPI PUSH1 0x0 CALLDATALOAD PUSH1 0xE0 SHR DUP1 PUSH4 0x1F1BD692 EQ PUSH2 0x30 JUMPI JUMPDEST PUSH1 0x0 DUP1 REVERT JUMPDEST PUSH2 0x38 PUSH2 0x4E JUMP JUMPDEST PUSH1 0x40 MLOAD PUSH2 0x45 SWAP2 SWAP1 PUSH2 0x115 JUMP JUMPDEST PUSH1 0x40 MLOAD DUP1 SWAP2 SUB SWAP1 RETURN JUMPDEST PUSH1 0x0 DUP1 SLOAD PUSH2 0x5B SWAP1 PUSH2 0x186 JUMP JUMPDEST DUP1 PUSH1 0x1F ADD PUSH1 0x20 DUP1 SWAP2 DIV MUL PUSH1 0x20 ADD PUSH1 0x40 MLOAD SWAP1 DUP2 ADD PUSH1 0x40 MSTORE DUP1 SWAP3 SWAP2 SWAP1 DUP2 DUP2 MSTORE PUSH1 0x20 ADD DUP3 DUP1 SLOAD PUSH2 0x87 SWAP1 PUSH2 0x186 JUMP JUMPDEST DUP1 ISZERO PUSH2 0xD4 JUMPI DUP1 PUSH1 0x1F LT PUSH2 0xA9 JUMPI PUSH2 0x100 DUP1 DUP4 SLOAD DIV MUL DUP4 MSTORE SWAP2 PUSH1 0x20 ADD SWAP2 PUSH2 0xD4 JUMP JUMPDEST DUP3 ADD SWAP2 SWAP1 PUSH1 0x0 MSTORE PUSH1 0x20 PUSH1 0x0 KECCAK256 SWAP1 JUMPDEST DUP2 SLOAD DUP2 MSTORE SWAP1 PUSH1 0x1 ADD SWAP1 PUSH1 0x20 ADD DUP1 DUP4 GT PUSH2 0xB7 JUMPI DUP3 SWAP1 SUB PUSH1 0x1F AND DUP3 ADD SWAP2 JUMPDEST POP POP POP POP POP DUP2 JUMP JUMPDEST PUSH1 0x0 PUSH2 0xE7 DUP3 PUSH2 0x137 JUMP JUMPDEST PUSH2 0xF1 DUP2 DUP6 PUSH2 0x142 JUMP JUMPDEST SWAP4 POP PUSH2 0x101 DUP2 DUP6 PUSH1 0x20 DUP7 ADD PUSH2 0x153 JUMP JUMPDEST PUSH2 0x10A DUP2 PUSH2 0x1E7 JUMP JUMPDEST DUP5 ADD SWAP2 POP POP SWAP3 SWAP2 POP POP JUMP JUMPDEST PUSH1 0x0 PUSH1 0x20 DUP3 ADD SWAP1 POP DUP2 DUP2 SUB PUSH1 0x0 DUP4 ADD MSTORE PUSH2 0x12F DUP2 DUP5 PUSH2 0xDC JUMP JUMPDEST SWAP1 POP SWAP3 SWAP2 POP POP JUMP JUMPDEST PUSH1 0x0 DUP2 MLOAD SWAP1 POP SWAP2 SWAP1 POP JUMP JUMPDEST PUSH1 0x0 DUP3 DUP3 MSTORE PUSH1 0x20 DUP3 ADD SWAP1 POP SWAP3 SWAP2 POP POP JUMP JUMPDEST PUSH1 0x0 JUMPDEST DUP4 DUP2 LT ISZERO PUSH2 0x171 JUMPI DUP1 DUP3 ADD MLOAD DUP2 DUP5 ADD MSTORE PUSH1 0x20 DUP2 ADD SWAP1 POP PUSH2 0x156 JUMP JUMPDEST DUP4 DUP2 GT ISZERO PUSH2 0x180 JUMPI PUSH1 0x0 DUP5 DUP5 ADD MSTORE JUMPDEST POP POP POP POP JUMP JUMPDEST PUSH1 0x0 PUSH1 0x2 DUP3 DIV SWAP1 POP PUSH1 0x1 DUP3 AND DUP1 PUSH2 0x19E JUMPI PUSH1 0x7F DUP3 AND SWAP2 POP JUMPDEST PUSH1 0x20 DUP3 LT DUP2 EQ ISZERO PUSH2 0x1B2 JUMPI PUSH2 0x1B1 PUSH2 0x1B8 JUMP JUMPDEST JUMPDEST POP SWAP2 SWAP1 POP JUMP JUMPDEST PUSH32 0x4E487B7100000000000000000000000000000000000000000000000000000000 PUSH1 0x0 MSTORE PUSH1 0x22 PUSH1 0x4 MSTORE PUSH1 0x24 PUSH1 0x0 REVERT JUMPDEST PUSH1 0x0 PUSH1 0x1F NOT PUSH1 0x1F DUP4 ADD AND SWAP1 POP SWAP2 SWAP1 POP JUMP INVALID LOG2 PUSH5 0x6970667358 0x22 SLT KECCAK256 STOP NUMBER 0x2C PUSH3 0xE26BB1 PUSH25 0xF3D4336EF043CA14CBCC1F68DA817D35F417CA198BFB785C64 PUSH20 0x6F6C634300080700330000000000000000000000 "
				},
				"gasEstimates": {
					"creation": {
						"codeDepositCost": "111600",
						"executionCost": "infinite",
						"totalCost": "infinite"
					},
					"external": {
						"text()": "infinite"
					}
				},
				"methodIdentifiers": {
					"text()": "1f1bd692"
				}
			},
			"storageLayout": {
				"storage": [
					{
						"astId": 24,
						"contract": "contracts/ParentConstructors.sol:T",
						"label": "text",
						"offset": 0,
						"slot": "0",
						"type": "t_string_storage"
					}
				],
				"types": {
					"t_string_storage": {
						"encoding": "bytes",
						"label": "string",
						"numberOfBytes": "32"
					}
				}
			},
			"userdoc": {
				"kind": "user",
				"methods": {},
				"version": 1
			}
		}
	}
}