{
	"contracts/ParentConstructors.sol": {
		"BB": {
			"abi": [
				{
					"inputs": [
						{
							"internalType": "string",
							"name": "_text",
							"type": "string"
						}
					],
					"stateMutability": "nonpayable",
					"type": "constructor"
				},
				{
					"anonymous": false,
					"inputs": [
						{
							"indexed": false,
							"internalType": "string",
							"name": "message",
							"type": "string"
						}
					],
					"name": "Log",
					"type": "event"
				},
				{
					"anonymous": false,
					"inputs": [
						{
							"indexed": false,
							"internalType": "string",
							"name": "message",
							"type": "string"
						}
					],
					"name": "Log2",
					"type": "event"
				},
				{
					"inputs": [],
					"name": "name",
					"outputs": [
						{
							"internalType": "string",
							"name": "",
							"type": "string"
						}
					],
					"stateMutability": "view",
					"type": "function"
				},
				{
					"inputs": [],
					"name": "text",
					"outputs": [
						{
							"internalType": "string",
							"name": "",
							"type": "string"
						}
					],
					"stateMutability": "view",
					"type": "function"
				}
			],
			"devdoc": {
				"kind": "dev",
				"methods": {},
				"version": 1
			},
			"evm": {
				"assembly": "    /* \"contracts/ParentConstructors.sol\":1586:1713  contract BB is S(\"s\"), T {... */\n  mstore(0x40, 0x80)\n    /* \"contracts/ParentConstructors.sol\":1617:1711  constructor(string memory _text) T(_text) {... */\n  callvalue\n  dup1\n  iszero\n  tag_1\n  jumpi\n  0x00\n  dup1\n  revert\ntag_1:\n  pop\n  mload(0x40)\n  sub(codesize, bytecodeSize)\n  dup1\n  bytecodeSize\n  dup4\n  codecopy\n  dup2\n  dup2\n  add\n  0x40\n  mstore\n  dup2\n  add\n  swap1\n  tag_2\n  swap2\n  swap1\n  tag_3\n  jump\t// in\ntag_2:\n    /* \"contracts/ParentConstructors.sol\":1652:1657  _text */\n  dup1\n    /* \"contracts/ParentConstructors.sol\":1140:1246  constructor(string memory _name) {... */\n  mload(0x40)\n  dup1\n  0x40\n  add\n  0x40\n  mstore\n  dup1\n  0x01\n  dup2\n  mstore\n  0x20\n  add\n  0x7300000000000000000000000000000000000000000000000000000000000000\n  dup2\n  mstore\n  pop\n    /* \"contracts/ParentConstructors.sol\":1190:1195  _name */\n  dup1\n    /* \"contracts/ParentConstructors.sol\":1183:1187  name */\n  0x00\n    /* \"contracts/ParentConstructors.sol\":1183:1195  name = _name */\n  swap1\n  dup1\n  mload\n  swap1\n  0x20\n  add\n  swap1\n  tag_8\n  swap3\n  swap2\n  swap1\n  tag_9\n  jump\t// in\ntag_8:\n  pop\n    /* \"contracts/ParentConstructors.sol\":1210:1239  Log(\"Constructor S executed\") */\n  0xcf34ef537ac33ee1ac626ca1587a0a7e8e51561e5514f8cb36afa1c5102b3bab\n  mload(0x40)\n  tag_10\n  swap1\n  tag_11\n  jump\t// in\ntag_10:\n  mload(0x40)\n  dup1\n  swap2\n  sub\n  swap1\n  log1\n    /* \"contracts/ParentConstructors.sol\":1140:1246  constructor(string memory _name) {... */\n  pop\n    /* \"contracts/ParentConstructors.sol\":1373:1378  _text */\n  dup1\n    /* \"contracts/ParentConstructors.sol\":1366:1370  text */\n  0x01\n    /* \"contracts/ParentConstructors.sol\":1366:1378  text = _text */\n  swap1\n  dup1\n  mload\n  swap1\n  0x20\n  add\n  swap1\n  tag_13\n  swap3\n  swap2\n  swap1\n  tag_9\n  jump\t// in\ntag_13:\n  pop\n    /* \"contracts/ParentConstructors.sol\":1393:1423  Log2(\"Constructor T executed\") */\n  0x16783dda8fe899b47fa72274509d788dc4b657c9628a27189a81f451725e7de2\n  mload(0x40)\n  tag_14\n  swap1\n  tag_15\n  jump\t// in\ntag_14:\n  mload(0x40)\n  dup1\n  swap2\n  sub\n  swap1\n  log1\n    /* \"contracts/ParentConstructors.sol\":1323:1430  constructor(string memory _text) {... */\n  pop\n    /* \"contracts/ParentConstructors.sol\":1674:1704  Log(\"Constructor BB executed\") */\n  0xcf34ef537ac33ee1ac626ca1587a0a7e8e51561e5514f8cb36afa1c5102b3bab\n  mload(0x40)\n  tag_17\n  swap1\n  tag_18\n  jump\t// in\ntag_17:\n  mload(0x40)\n  dup1\n  swap2\n  sub\n  swap1\n  log1\n    /* \"contracts/ParentConstructors.sol\":1617:1711  constructor(string memory _text) T(_text) {... */\n  pop\n    /* \"contracts/ParentConstructors.sol\":1586:1713  contract BB is S(\"s\"), T {... */\n  jump(tag_19)\ntag_9:\n  dup3\n  dup1\n  sload\n  tag_20\n  swap1\n  tag_21\n  jump\t// in\ntag_20:\n  swap1\n  0x00\n  mstore\n  keccak256(0x00, 0x20)\n  swap1\n  0x1f\n  add\n  0x20\n  swap1\n  div\n  dup2\n  add\n  swap3\n  dup3\n  tag_23\n  jumpi\n  0x00\n  dup6\n  sstore\n  jump(tag_22)\ntag_23:\n  dup3\n  0x1f\n  lt\n  tag_24\n  jumpi\n  dup1\n  mload\n  not(0xff)\n  and\n  dup4\n  dup1\n  add\n  or\n  dup6\n  sstore\n  jump(tag_22)\ntag_24:\n  dup3\n  dup1\n  add\n  0x01\n  add\n  dup6\n  sstore\n  dup3\n  iszero\n  tag_22\n  jumpi\n  swap2\n  dup3\n  add\ntag_25:\n  dup3\n  dup2\n  gt\n  iszero\n  tag_26\n  jumpi\n  dup3\n  mload\n  dup3\n  sstore\n  swap2\n  0x20\n  add\n  swap2\n  swap1\n  0x01\n  add\n  swap1\n  jump(tag_25)\ntag_26:\ntag_22:\n  pop\n  swap1\n  pop\n  tag_27\n  swap2\n  swap1\n  tag_28\n  jump\t// in\ntag_27:\n  pop\n  swap1\n  jump\t// out\ntag_28:\ntag_29:\n  dup1\n  dup3\n  gt\n  iszero\n  tag_30\n  jumpi\n  0x00\n  dup2\n  0x00\n  swap1\n  sstore\n  pop\n  0x01\n  add\n  jump(tag_29)\ntag_30:\n  pop\n  swap1\n  jump\t// out\n    /* \"#utility.yul\":7:428   */\ntag_32:\n    /* \"#utility.yul\":96:101   */\n  0x00\n    /* \"#utility.yul\":121:187   */\n  tag_34\n    /* \"#utility.yul\":137:186   */\n  tag_35\n    /* \"#utility.yul\":179:185   */\n  dup5\n    /* \"#utility.yul\":137:186   */\n  tag_36\n  jump\t// in\ntag_35:\n    /* \"#utility.yul\":121:187   */\n  tag_37\n  jump\t// in\ntag_34:\n    /* \"#utility.yul\":112:187   */\n  swap1\n  pop\n    /* \"#utility.yul\":210:216   */\n  dup3\n    /* \"#utility.yul\":203:208   */\n  dup2\n    /* \"#utility.yul\":196:217   */\n  mstore\n    /* \"#utility.yul\":248:252   */\n  0x20\n    /* \"#utility.yul\":241:246   */\n  dup2\n    /* \"#utility.yul\":237:253   */\n  add\n    /* \"#utility.yul\":286:289   */\n  dup5\n    /* \"#utility.yul\":277:283   */\n  dup5\n    /* \"#utility.yul\":272:275   */\n  dup5\n    /* \"#utility.yul\":268:284   */\n  add\n    /* \"#utility.yul\":265:290   */\n  gt\n    /* \"#utility.yul\":262:374   */\n  iszero\n  tag_38\n  jumpi\n    /* \"#utility.yul\":293:372   */\n  tag_39\n  tag_40\n  jump\t// in\ntag_39:\n    /* \"#utility.yul\":262:374   */\ntag_38:\n    /* \"#utility.yul\":383:422   */\n  tag_41\n    /* \"#utility.yul\":415:421   */\n  dup5\n    /* \"#utility.yul\":410:413   */\n  dup3\n    /* \"#utility.yul\":405:408   */\n  dup6\n    /* \"#utility.yul\":383:422   */\n  tag_42\n  jump\t// in\ntag_41:\n    /* \"#utility.yul\":102:428   */\n  pop\n    /* \"#utility.yul\":7:428   */\n  swap4\n  swap3\n  pop\n  pop\n  pop\n  jump\t// out\n    /* \"#utility.yul\":448:803   */\ntag_43:\n    /* \"#utility.yul\":515:520   */\n  0x00\n    /* \"#utility.yul\":564:567   */\n  dup3\n    /* \"#utility.yul\":557:561   */\n  0x1f\n    /* \"#utility.yul\":549:555   */\n  dup4\n    /* \"#utility.yul\":545:562   */\n  add\n    /* \"#utility.yul\":541:568   */\n  slt\n    /* \"#utility.yul\":531:653   */\n  tag_45\n  jumpi\n    /* \"#utility.yul\":572:651   */\n  tag_46\n  tag_47\n  jump\t// in\ntag_46:\n    /* \"#utility.yul\":531:653   */\ntag_45:\n    /* \"#utility.yul\":682:688   */\n  dup2\n    /* \"#utility.yul\":676:689   */\n  mload\n    /* \"#utility.yul\":707:797   */\n  tag_48\n    /* \"#utility.yul\":793:796   */\n  dup5\n    /* \"#utility.yul\":785:791   */\n  dup3\n    /* \"#utility.yul\":778:782   */\n  0x20\n    /* \"#utility.yul\":770:776   */\n  dup7\n    /* \"#utility.yul\":766:783   */\n  add\n    /* \"#utility.yul\":707:797   */\n  tag_32\n  jump\t// in\ntag_48:\n    /* \"#utility.yul\":698:797   */\n  swap2\n  pop\n    /* \"#utility.yul\":521:803   */\n  pop\n    /* \"#utility.yul\":448:803   */\n  swap3\n  swap2\n  pop\n  pop\n  jump\t// out\n    /* \"#utility.yul\":809:1333   */\ntag_3:\n    /* \"#utility.yul\":889:895   */\n  0x00\n    /* \"#utility.yul\":938:940   */\n  0x20\n    /* \"#utility.yul\":926:935   */\n  dup3\n    /* \"#utility.yul\":917:924   */\n  dup5\n    /* \"#utility.yul\":913:936   */\n  sub\n    /* \"#utility.yul\":909:941   */\n  slt\n    /* \"#utility.yul\":906:1025   */\n  iszero\n  tag_50\n  jumpi\n    /* \"#utility.yul\":944:1023   */\n  tag_51\n  tag_52\n  jump\t// in\ntag_51:\n    /* \"#utility.yul\":906:1025   */\ntag_50:\n    /* \"#utility.yul\":1085:1086   */\n  0x00\n    /* \"#utility.yul\":1074:1083   */\n  dup3\n    /* \"#utility.yul\":1070:1087   */\n  add\n    /* \"#utility.yul\":1064:1088   */\n  mload\n    /* \"#utility.yul\":1115:1133   */\n  0xffffffffffffffff\n    /* \"#utility.yul\":1107:1113   */\n  dup2\n    /* \"#utility.yul\":1104:1134   */\n  gt\n    /* \"#utility.yul\":1101:1218   */\n  iszero\n  tag_53\n  jumpi\n    /* \"#utility.yul\":1137:1216   */\n  tag_54\n  tag_55\n  jump\t// in\ntag_54:\n    /* \"#utility.yul\":1101:1218   */\ntag_53:\n    /* \"#utility.yul\":1242:1316   */\n  tag_56\n    /* \"#utility.yul\":1308:1315   */\n  dup5\n    /* \"#utility.yul\":1299:1305   */\n  dup3\n    /* \"#utility.yul\":1288:1297   */\n  dup6\n    /* \"#utility.yul\":1284:1306   */\n  add\n    /* \"#utility.yul\":1242:1316   */\n  tag_43\n  jump\t// in\ntag_56:\n    /* \"#utility.yul\":1232:1316   */\n  swap2\n  pop\n    /* \"#utility.yul\":1035:1326   */\n  pop\n    /* \"#utility.yul\":809:1333   */\n  swap3\n  swap2\n  pop\n  pop\n  jump\t// out\n    /* \"#utility.yul\":1339:1705   */\ntag_57:\n    /* \"#utility.yul\":1481:1484   */\n  0x00\n    /* \"#utility.yul\":1502:1569   */\n  tag_59\n    /* \"#utility.yul\":1566:1568   */\n  0x16\n    /* \"#utility.yul\":1561:1564   */\n  dup4\n    /* \"#utility.yul\":1502:1569   */\n  tag_60\n  jump\t// in\ntag_59:\n    /* \"#utility.yul\":1495:1569   */\n  swap2\n  pop\n    /* \"#utility.yul\":1578:1671   */\n  tag_61\n    /* \"#utility.yul\":1667:1670   */\n  dup3\n    /* \"#utility.yul\":1578:1671   */\n  tag_62\n  jump\t// in\ntag_61:\n    /* \"#utility.yul\":1696:1698   */\n  0x20\n    /* \"#utility.yul\":1691:1694   */\n  dup3\n    /* \"#utility.yul\":1687:1699   */\n  add\n    /* \"#utility.yul\":1680:1699   */\n  swap1\n  pop\n    /* \"#utility.yul\":1339:1705   */\n  swap2\n  swap1\n  pop\n  jump\t// out\n    /* \"#utility.yul\":1711:2077   */\ntag_63:\n    /* \"#utility.yul\":1853:1856   */\n  0x00\n    /* \"#utility.yul\":1874:1941   */\n  tag_65\n    /* \"#utility.yul\":1938:1940   */\n  0x16\n    /* \"#utility.yul\":1933:1936   */\n  dup4\n    /* \"#utility.yul\":1874:1941   */\n  tag_60\n  jump\t// in\ntag_65:\n    /* \"#utility.yul\":1867:1941   */\n  swap2\n  pop\n    /* \"#utility.yul\":1950:2043   */\n  tag_66\n    /* \"#utility.yul\":2039:2042   */\n  dup3\n    /* \"#utility.yul\":1950:2043   */\n  tag_67\n  jump\t// in\ntag_66:\n    /* \"#utility.yul\":2068:2070   */\n  0x20\n    /* \"#utility.yul\":2063:2066   */\n  dup3\n    /* \"#utility.yul\":2059:2071   */\n  add\n    /* \"#utility.yul\":2052:2071   */\n  swap1\n  pop\n    /* \"#utility.yul\":1711:2077   */\n  swap2\n  swap1\n  pop\n  jump\t// out\n    /* \"#utility.yul\":2083:2449   */\ntag_68:\n    /* \"#utility.yul\":2225:2228   */\n  0x00\n    /* \"#utility.yul\":2246:2313   */\n  tag_70\n    /* \"#utility.yul\":2310:2312   */\n  0x17\n    /* \"#utility.yul\":2305:2308   */\n  dup4\n    /* \"#utility.yul\":2246:2313   */\n  tag_60\n  jump\t// in\ntag_70:\n    /* \"#utility.yul\":2239:2313   */\n  swap2\n  pop\n    /* \"#utility.yul\":2322:2415   */\n  tag_71\n    /* \"#utility.yul\":2411:2414   */\n  dup3\n    /* \"#utility.yul\":2322:2415   */\n  tag_72\n  jump\t// in\ntag_71:\n    /* \"#utility.yul\":2440:2442   */\n  0x20\n    /* \"#utility.yul\":2435:2438   */\n  dup3\n    /* \"#utility.yul\":2431:2443   */\n  add\n    /* \"#utility.yul\":2424:2443   */\n  swap1\n  pop\n    /* \"#utility.yul\":2083:2449   */\n  swap2\n  swap1\n  pop\n  jump\t// out\n    /* \"#utility.yul\":2455:2874   */\ntag_11:\n    /* \"#utility.yul\":2621:2625   */\n  0x00\n    /* \"#utility.yul\":2659:2661   */\n  0x20\n    /* \"#utility.yul\":2648:2657   */\n  dup3\n    /* \"#utility.yul\":2644:2662   */\n  add\n    /* \"#utility.yul\":2636:2662   */\n  swap1\n  pop\n    /* \"#utility.yul\":2708:2717   */\n  dup2\n    /* \"#utility.yul\":2702:2706   */\n  dup2\n    /* \"#utility.yul\":2698:2718   */\n  sub\n    /* \"#utility.yul\":2694:2695   */\n  0x00\n    /* \"#utility.yul\":2683:2692   */\n  dup4\n    /* \"#utility.yul\":2679:2696   */\n  add\n    /* \"#utility.yul\":2672:2719   */\n  mstore\n    /* \"#utility.yul\":2736:2867   */\n  tag_74\n    /* \"#utility.yul\":2862:2866   */\n  dup2\n    /* \"#utility.yul\":2736:2867   */\n  tag_57\n  jump\t// in\ntag_74:\n    /* \"#utility.yul\":2728:2867   */\n  swap1\n  pop\n    /* \"#utility.yul\":2455:2874   */\n  swap2\n  swap1\n  pop\n  jump\t// out\n    /* \"#utility.yul\":2880:3299   */\ntag_15:\n    /* \"#utility.yul\":3046:3050   */\n  0x00\n    /* \"#utility.yul\":3084:3086   */\n  0x20\n    /* \"#utility.yul\":3073:3082   */\n  dup3\n    /* \"#utility.yul\":3069:3087   */\n  add\n    /* \"#utility.yul\":3061:3087   */\n  swap1\n  pop\n    /* \"#utility.yul\":3133:3142   */\n  dup2\n    /* \"#utility.yul\":3127:3131   */\n  dup2\n    /* \"#utility.yul\":3123:3143   */\n  sub\n    /* \"#utility.yul\":3119:3120   */\n  0x00\n    /* \"#utility.yul\":3108:3117   */\n  dup4\n    /* \"#utility.yul\":3104:3121   */\n  add\n    /* \"#utility.yul\":3097:3144   */\n  mstore\n    /* \"#utility.yul\":3161:3292   */\n  tag_76\n    /* \"#utility.yul\":3287:3291   */\n  dup2\n    /* \"#utility.yul\":3161:3292   */\n  tag_63\n  jump\t// in\ntag_76:\n    /* \"#utility.yul\":3153:3292   */\n  swap1\n  pop\n    /* \"#utility.yul\":2880:3299   */\n  swap2\n  swap1\n  pop\n  jump\t// out\n    /* \"#utility.yul\":3305:3724   */\ntag_18:\n    /* \"#utility.yul\":3471:3475   */\n  0x00\n    /* \"#utility.yul\":3509:3511   */\n  0x20\n    /* \"#utility.yul\":3498:3507   */\n  dup3\n    /* \"#utility.yul\":3494:3512   */\n  add\n    /* \"#utility.yul\":3486:3512   */\n  swap1\n  pop\n    /* \"#utility.yul\":3558:3567   */\n  dup2\n    /* \"#utility.yul\":3552:3556   */\n  dup2\n    /* \"#utility.yul\":3548:3568   */\n  sub\n    /* \"#utility.yul\":3544:3545   */\n  0x00\n    /* \"#utility.yul\":3533:3542   */\n  dup4\n    /* \"#utility.yul\":3529:3546   */\n  add\n    /* \"#utility.yul\":3522:3569   */\n  mstore\n    /* \"#utility.yul\":3586:3717   */\n  tag_78\n    /* \"#utility.yul\":3712:3716   */\n  dup2\n    /* \"#utility.yul\":3586:3717   */\n  tag_68\n  jump\t// in\ntag_78:\n    /* \"#utility.yul\":3578:3717   */\n  swap1\n  pop\n    /* \"#utility.yul\":3305:3724   */\n  swap2\n  swap1\n  pop\n  jump\t// out\n    /* \"#utility.yul\":3730:3859   */\ntag_37:\n    /* \"#utility.yul\":3764:3770   */\n  0x00\n    /* \"#utility.yul\":3791:3811   */\n  tag_80\n  tag_81\n  jump\t// in\ntag_80:\n    /* \"#utility.yul\":3781:3811   */\n  swap1\n  pop\n    /* \"#utility.yul\":3820:3853   */\n  tag_82\n    /* \"#utility.yul\":3848:3852   */\n  dup3\n    /* \"#utility.yul\":3840:3846   */\n  dup3\n    /* \"#utility.yul\":3820:3853   */\n  tag_83\n  jump\t// in\ntag_82:\n    /* \"#utility.yul\":3730:3859   */\n  swap2\n  swap1\n  pop\n  jump\t// out\n    /* \"#utility.yul\":3865:3940   */\ntag_81:\n    /* \"#utility.yul\":3898:3904   */\n  0x00\n    /* \"#utility.yul\":3931:3933   */\n  0x40\n    /* \"#utility.yul\":3925:3934   */\n  mload\n    /* \"#utility.yul\":3915:3934   */\n  swap1\n  pop\n    /* \"#utility.yul\":3865:3940   */\n  swap1\n  jump\t// out\n    /* \"#utility.yul\":3946:4254   */\ntag_36:\n    /* \"#utility.yul\":4008:4012   */\n  0x00\n    /* \"#utility.yul\":4098:4116   */\n  0xffffffffffffffff\n    /* \"#utility.yul\":4090:4096   */\n  dup3\n    /* \"#utility.yul\":4087:4117   */\n  gt\n    /* \"#utility.yul\":4084:4140   */\n  iszero\n  tag_86\n  jumpi\n    /* \"#utility.yul\":4120:4138   */\n  tag_87\n  tag_88\n  jump\t// in\ntag_87:\n    /* \"#utility.yul\":4084:4140   */\ntag_86:\n    /* \"#utility.yul\":4158:4187   */\n  tag_89\n    /* \"#utility.yul\":4180:4186   */\n  dup3\n    /* \"#utility.yul\":4158:4187   */\n  tag_90\n  jump\t// in\ntag_89:\n    /* \"#utility.yul\":4150:4187   */\n  swap1\n  pop\n    /* \"#utility.yul\":4242:4246   */\n  0x20\n    /* \"#utility.yul\":4236:4240   */\n  dup2\n    /* \"#utility.yul\":4232:4247   */\n  add\n    /* \"#utility.yul\":4224:4247   */\n  swap1\n  pop\n    /* \"#utility.yul\":3946:4254   */\n  swap2\n  swap1\n  pop\n  jump\t// out\n    /* \"#utility.yul\":4260:4429   */\ntag_60:\n    /* \"#utility.yul\":4344:4355   */\n  0x00\n    /* \"#utility.yul\":4378:4384   */\n  dup3\n    /* \"#utility.yul\":4373:4376   */\n  dup3\n    /* \"#utility.yul\":4366:4385   */\n  mstore\n    /* \"#utility.yul\":4418:4422   */\n  0x20\n    /* \"#utility.yul\":4413:4416   */\n  dup3\n    /* \"#utility.yul\":4409:4423   */\n  add\n    /* \"#utility.yul\":4394:4423   */\n  swap1\n  pop\n    /* \"#utility.yul\":4260:4429   */\n  swap3\n  swap2\n  pop\n  pop\n  jump\t// out\n    /* \"#utility.yul\":4435:4742   */\ntag_42:\n    /* \"#utility.yul\":4503:4504   */\n  0x00\n    /* \"#utility.yul\":4513:4626   */\ntag_93:\n    /* \"#utility.yul\":4527:4533   */\n  dup4\n    /* \"#utility.yul\":4524:4525   */\n  dup2\n    /* \"#utility.yul\":4521:4534   */\n  lt\n    /* \"#utility.yul\":4513:4626   */\n  iszero\n  tag_95\n  jumpi\n    /* \"#utility.yul\":4612:4613   */\n  dup1\n    /* \"#utility.yul\":4607:4610   */\n  dup3\n    /* \"#utility.yul\":4603:4614   */\n  add\n    /* \"#utility.yul\":4597:4615   */\n  mload\n    /* \"#utility.yul\":4593:4594   */\n  dup2\n    /* \"#utility.yul\":4588:4591   */\n  dup5\n    /* \"#utility.yul\":4584:4595   */\n  add\n    /* \"#utility.yul\":4577:4616   */\n  mstore\n    /* \"#utility.yul\":4549:4551   */\n  0x20\n    /* \"#utility.yul\":4546:4547   */\n  dup2\n    /* \"#utility.yul\":4542:4552   */\n  add\n    /* \"#utility.yul\":4537:4552   */\n  swap1\n  pop\n    /* \"#utility.yul\":4513:4626   */\n  jump(tag_93)\ntag_95:\n    /* \"#utility.yul\":4644:4650   */\n  dup4\n    /* \"#utility.yul\":4641:4642   */\n  dup2\n    /* \"#utility.yul\":4638:4651   */\n  gt\n    /* \"#utility.yul\":4635:4736   */\n  iszero\n  tag_96\n  jumpi\n    /* \"#utility.yul\":4724:4725   */\n  0x00\n    /* \"#utility.yul\":4715:4721   */\n  dup5\n    /* \"#utility.yul\":4710:4713   */\n  dup5\n    /* \"#utility.yul\":4706:4722   */\n  add\n    /* \"#utility.yul\":4699:4726   */\n  mstore\n    /* \"#utility.yul\":4635:4736   */\ntag_96:\n    /* \"#utility.yul\":4484:4742   */\n  pop\n    /* \"#utility.yul\":4435:4742   */\n  pop\n  pop\n  pop\n  jump\t// out\n    /* \"#utility.yul\":4748:5068   */\ntag_21:\n    /* \"#utility.yul\":4792:4798   */\n  0x00\n    /* \"#utility.yul\":4829:4830   */\n  0x02\n    /* \"#utility.yul\":4823:4827   */\n  dup3\n    /* \"#utility.yul\":4819:4831   */\n  div\n    /* \"#utility.yul\":4809:4831   */\n  swap1\n  pop\n    /* \"#utility.yul\":4876:4877   */\n  0x01\n    /* \"#utility.yul\":4870:4874   */\n  dup3\n    /* \"#utility.yul\":4866:4878   */\n  and\n    /* \"#utility.yul\":4897:4915   */\n  dup1\n    /* \"#utility.yul\":4887:4968   */\n  tag_98\n  jumpi\n    /* \"#utility.yul\":4953:4957   */\n  0x7f\n    /* \"#utility.yul\":4945:4951   */\n  dup3\n    /* \"#utility.yul\":4941:4958   */\n  and\n    /* \"#utility.yul\":4931:4958   */\n  swap2\n  pop\n    /* \"#utility.yul\":4887:4968   */\ntag_98:\n    /* \"#utility.yul\":5015:5017   */\n  0x20\n    /* \"#utility.yul\":5007:5013   */\n  dup3\n    /* \"#utility.yul\":5004:5018   */\n  lt\n    /* \"#utility.yul\":4984:5002   */\n  dup2\n    /* \"#utility.yul\":4981:5019   */\n  eq\n    /* \"#utility.yul\":4978:5062   */\n  iszero\n  tag_99\n  jumpi\n    /* \"#utility.yul\":5034:5052   */\n  tag_100\n  tag_101\n  jump\t// in\ntag_100:\n    /* \"#utility.yul\":4978:5062   */\ntag_99:\n    /* \"#utility.yul\":4799:5068   */\n  pop\n    /* \"#utility.yul\":4748:5068   */\n  swap2\n  swap1\n  pop\n  jump\t// out\n    /* \"#utility.yul\":5074:5355   */\ntag_83:\n    /* \"#utility.yul\":5157:5184   */\n  tag_103\n    /* \"#utility.yul\":5179:5183   */\n  dup3\n    /* \"#utility.yul\":5157:5184   */\n  tag_90\n  jump\t// in\ntag_103:\n    /* \"#utility.yul\":5149:5155   */\n  dup2\n    /* \"#utility.yul\":5145:5185   */\n  add\n    /* \"#utility.yul\":5287:5293   */\n  dup2\n    /* \"#utility.yul\":5275:5285   */\n  dup2\n    /* \"#utility.yul\":5272:5294   */\n  lt\n    /* \"#utility.yul\":5251:5269   */\n  0xffffffffffffffff\n    /* \"#utility.yul\":5239:5249   */\n  dup3\n    /* \"#utility.yul\":5236:5270   */\n  gt\n    /* \"#utility.yul\":5233:5295   */\n  or\n    /* \"#utility.yul\":5230:5318   */\n  iszero\n  tag_104\n  jumpi\n    /* \"#utility.yul\":5298:5316   */\n  tag_105\n  tag_88\n  jump\t// in\ntag_105:\n    /* \"#utility.yul\":5230:5318   */\ntag_104:\n    /* \"#utility.yul\":5338:5348   */\n  dup1\n    /* \"#utility.yul\":5334:5336   */\n  0x40\n    /* \"#utility.yul\":5327:5349   */\n  mstore\n    /* \"#utility.yul\":5117:5355   */\n  pop\n    /* \"#utility.yul\":5074:5355   */\n  pop\n  pop\n  jump\t// out\n    /* \"#utility.yul\":5361:5541   */\ntag_101:\n    /* \"#utility.yul\":5409:5486   */\n  0x4e487b7100000000000000000000000000000000000000000000000000000000\n    /* \"#utility.yul\":5406:5407   */\n  0x00\n    /* \"#utility.yul\":5399:5487   */\n  mstore\n    /* \"#utility.yul\":5506:5510   */\n  0x22\n    /* \"#utility.yul\":5503:5504   */\n  0x04\n    /* \"#utility.yul\":5496:5511   */\n  mstore\n    /* \"#utility.yul\":5530:5534   */\n  0x24\n    /* \"#utility.yul\":5527:5528   */\n  0x00\n    /* \"#utility.yul\":5520:5535   */\n  revert\n    /* \"#utility.yul\":5547:5727   */\ntag_88:\n    /* \"#utility.yul\":5595:5672   */\n  0x4e487b7100000000000000000000000000000000000000000000000000000000\n    /* \"#utility.yul\":5592:5593   */\n  0x00\n    /* \"#utility.yul\":5585:5673   */\n  mstore\n    /* \"#utility.yul\":5692:5696   */\n  0x41\n    /* \"#utility.yul\":5689:5690   */\n  0x04\n    /* \"#utility.yul\":5682:5697   */\n  mstore\n    /* \"#utility.yul\":5716:5720   */\n  0x24\n    /* \"#utility.yul\":5713:5714   */\n  0x00\n    /* \"#utility.yul\":5706:5721   */\n  revert\n    /* \"#utility.yul\":5733:5850   */\ntag_47:\n    /* \"#utility.yul\":5842:5843   */\n  0x00\n    /* \"#utility.yul\":5839:5840   */\n  dup1\n    /* \"#utility.yul\":5832:5844   */\n  revert\n    /* \"#utility.yul\":5856:5973   */\ntag_40:\n    /* \"#utility.yul\":5965:5966   */\n  0x00\n    /* \"#utility.yul\":5962:5963   */\n  dup1\n    /* \"#utility.yul\":5955:5967   */\n  revert\n    /* \"#utility.yul\":5979:6096   */\ntag_55:\n    /* \"#utility.yul\":6088:6089   */\n  0x00\n    /* \"#utility.yul\":6085:6086   */\n  dup1\n    /* \"#utility.yul\":6078:6090   */\n  revert\n    /* \"#utility.yul\":6102:6219   */\ntag_52:\n    /* \"#utility.yul\":6211:6212   */\n  0x00\n    /* \"#utility.yul\":6208:6209   */\n  dup1\n    /* \"#utility.yul\":6201:6213   */\n  revert\n    /* \"#utility.yul\":6225:6327   */\ntag_90:\n    /* \"#utility.yul\":6266:6272   */\n  0x00\n    /* \"#utility.yul\":6317:6319   */\n  0x1f\n    /* \"#utility.yul\":6313:6320   */\n  not\n    /* \"#utility.yul\":6308:6310   */\n  0x1f\n    /* \"#utility.yul\":6301:6306   */\n  dup4\n    /* \"#utility.yul\":6297:6311   */\n  add\n    /* \"#utility.yul\":6293:6321   */\n  and\n    /* \"#utility.yul\":6283:6321   */\n  swap1\n  pop\n    /* \"#utility.yul\":6225:6327   */\n  swap2\n  swap1\n  pop\n  jump\t// out\n    /* \"#utility.yul\":6333:6505   */\ntag_62:\n    /* \"#utility.yul\":6473:6497   */\n  0x436f6e7374727563746f72205320657865637574656400000000000000000000\n    /* \"#utility.yul\":6469:6470   */\n  0x00\n    /* \"#utility.yul\":6461:6467   */\n  dup3\n    /* \"#utility.yul\":6457:6471   */\n  add\n    /* \"#utility.yul\":6450:6498   */\n  mstore\n    /* \"#utility.yul\":6333:6505   */\n  pop\n  jump\t// out\n    /* \"#utility.yul\":6511:6683   */\ntag_67:\n    /* \"#utility.yul\":6651:6675   */\n  0x436f6e7374727563746f72205420657865637574656400000000000000000000\n    /* \"#utility.yul\":6647:6648   */\n  0x00\n    /* \"#utility.yul\":6639:6645   */\n  dup3\n    /* \"#utility.yul\":6635:6649   */\n  add\n    /* \"#utility.yul\":6628:6676   */\n  mstore\n    /* \"#utility.yul\":6511:6683   */\n  pop\n  jump\t// out\n    /* \"#utility.yul\":6689:6862   */\ntag_72:\n    /* \"#utility.yul\":6829:6854   */\n  0x436f6e7374727563746f72204242206578656375746564000000000000000000\n    /* \"#utility.yul\":6825:6826   */\n  0x00\n    /* \"#utility.yul\":6817:6823   */\n  dup3\n    /* \"#utility.yul\":6813:6827   */\n  add\n    /* \"#utility.yul\":6806:6855   */\n  mstore\n    /* \"#utility.yul\":6689:6862   */\n  pop\n  jump\t// out\n    /* \"contracts/ParentConstructors.sol\":1586:1713  contract BB is S(\"s\"), T {... */\ntag_19:\n  dataSize(sub_0)\n  dup1\n  dataOffset(sub_0)\n  0x00\n  codecopy\n  0x00\n  return\nstop\n\nsub_0: assembly {\n        /* \"contracts/ParentConstructors.sol\":1586:1713  contract BB is S(\"s\"), T {... */\n      mstore(0x40, 0x80)\n      callvalue\n      dup1\n      iszero\n      tag_1\n      jumpi\n      0x00\n      dup1\n      revert\n    tag_1:\n      pop\n      jumpi(tag_2, lt(calldatasize, 0x04))\n      shr(0xe0, calldataload(0x00))\n      dup1\n      0x06fdde03\n      eq\n      tag_3\n      jumpi\n      dup1\n      0x1f1bd692\n      eq\n      tag_4\n      jumpi\n    tag_2:\n      0x00\n      dup1\n      revert\n        /* \"contracts/ParentConstructors.sol\":1085:1103  string public name */\n    tag_3:\n      tag_5\n      tag_6\n      jump\t// in\n    tag_5:\n      mload(0x40)\n      tag_7\n      swap2\n      swap1\n      tag_8\n      jump\t// in\n    tag_7:\n      mload(0x40)\n      dup1\n      swap2\n      sub\n      swap1\n      return\n        /* \"contracts/ParentConstructors.sol\":1267:1285  string public text */\n    tag_4:\n      tag_9\n      tag_10\n      jump\t// in\n    tag_9:\n      mload(0x40)\n      tag_11\n      swap2\n      swap1\n      tag_8\n      jump\t// in\n    tag_11:\n      mload(0x40)\n      dup1\n      swap2\n      sub\n      swap1\n      return\n        /* \"contracts/ParentConstructors.sol\":1085:1103  string public name */\n    tag_6:\n      0x00\n      dup1\n      sload\n      tag_12\n      swap1\n      tag_13\n      jump\t// in\n    tag_12:\n      dup1\n      0x1f\n      add\n      0x20\n      dup1\n      swap2\n      div\n      mul\n      0x20\n      add\n      mload(0x40)\n      swap1\n      dup2\n      add\n      0x40\n      mstore\n      dup1\n      swap3\n      swap2\n      swap1\n      dup2\n      dup2\n      mstore\n      0x20\n      add\n      dup3\n      dup1\n      sload\n      tag_14\n      swap1\n      tag_13\n      jump\t// in\n    tag_14:\n      dup1\n      iszero\n      tag_15\n      jumpi\n      dup1\n      0x1f\n      lt\n      tag_16\n      jumpi\n      0x0100\n      dup1\n      dup4\n      sload\n      div\n      mul\n      dup4\n      mstore\n      swap2\n      0x20\n      add\n      swap2\n      jump(tag_15)\n    tag_16:\n      dup3\n      add\n      swap2\n      swap1\n      0x00\n      mstore\n      keccak256(0x00, 0x20)\n      swap1\n    tag_17:\n      dup2\n      sload\n      dup2\n      mstore\n      swap1\n      0x01\n      add\n      swap1\n      0x20\n      add\n      dup1\n      dup4\n      gt\n      tag_17\n      jumpi\n      dup3\n      swap1\n      sub\n      0x1f\n      and\n      dup3\n      add\n      swap2\n    tag_15:\n      pop\n      pop\n      pop\n      pop\n      pop\n      dup2\n      jump\t// out\n        /* \"contracts/ParentConstructors.sol\":1267:1285  string public text */\n    tag_10:\n      0x01\n      dup1\n      sload\n      tag_18\n      swap1\n      tag_13\n      jump\t// in\n    tag_18:\n      dup1\n      0x1f\n      add\n      0x20\n      dup1\n      swap2\n      div\n      mul\n      0x20\n      add\n      mload(0x40)\n      swap1\n      dup2\n      add\n      0x40\n      mstore\n      dup1\n      swap3\n      swap2\n      swap1\n      dup2\n      dup2\n      mstore\n      0x20\n      add\n      dup3\n      dup1\n      sload\n      tag_19\n      swap1\n      tag_13\n      jump\t// in\n    tag_19:\n      dup1\n      iszero\n      tag_20\n      jumpi\n      dup1\n      0x1f\n      lt\n      tag_21\n      jumpi\n      0x0100\n      dup1\n      dup4\n      sload\n      div\n      mul\n      dup4\n      mstore\n      swap2\n      0x20\n      add\n      swap2\n      jump(tag_20)\n    tag_21:\n      dup3\n      add\n      swap2\n      swap1\n      0x00\n      mstore\n      keccak256(0x00, 0x20)\n      swap1\n    tag_22:\n      dup2\n      sload\n      dup2\n      mstore\n      swap1\n      0x01\n      add\n      swap1\n      0x20\n      add\n      dup1\n      dup4\n      gt\n      tag_22\n      jumpi\n      dup3\n      swap1\n      sub\n      0x1f\n      and\n      dup3\n      add\n      swap2\n    tag_20:\n      pop\n      pop\n      pop\n      pop\n      pop\n      dup2\n      jump\t// out\n        /* \"#utility.yul\":7:371   */\n    tag_24:\n        /* \"#utility.yul\":95:98   */\n      0x00\n        /* \"#utility.yul\":123:162   */\n      tag_26\n        /* \"#utility.yul\":156:161   */\n      dup3\n        /* \"#utility.yul\":123:162   */\n      tag_27\n      jump\t// in\n    tag_26:\n        /* \"#utility.yul\":178:249   */\n      tag_28\n        /* \"#utility.yul\":242:248   */\n      dup2\n        /* \"#utility.yul\":237:240   */\n      dup6\n        /* \"#utility.yul\":178:249   */\n      tag_29\n      jump\t// in\n    tag_28:\n        /* \"#utility.yul\":171:249   */\n      swap4\n      pop\n        /* \"#utility.yul\":258:310   */\n      tag_30\n        /* \"#utility.yul\":303:309   */\n      dup2\n        /* \"#utility.yul\":298:301   */\n      dup6\n        /* \"#utility.yul\":291:295   */\n      0x20\n        /* \"#utility.yul\":284:289   */\n      dup7\n        /* \"#utility.yul\":280:296   */\n      add\n        /* \"#utility.yul\":258:310   */\n      tag_31\n      jump\t// in\n    tag_30:\n        /* \"#utility.yul\":335:364   */\n      tag_32\n        /* \"#utility.yul\":357:363   */\n      dup2\n        /* \"#utility.yul\":335:364   */\n      tag_33\n      jump\t// in\n    tag_32:\n        /* \"#utility.yul\":330:333   */\n      dup5\n        /* \"#utility.yul\":326:365   */\n      add\n        /* \"#utility.yul\":319:365   */\n      swap2\n      pop\n        /* \"#utility.yul\":99:371   */\n      pop\n        /* \"#utility.yul\":7:371   */\n      swap3\n      swap2\n      pop\n      pop\n      jump\t// out\n        /* \"#utility.yul\":377:690   */\n    tag_8:\n        /* \"#utility.yul\":490:494   */\n      0x00\n        /* \"#utility.yul\":528:530   */\n      0x20\n        /* \"#utility.yul\":517:526   */\n      dup3\n        /* \"#utility.yul\":513:531   */\n      add\n        /* \"#utility.yul\":505:531   */\n      swap1\n      pop\n        /* \"#utility.yul\":577:586   */\n      dup2\n        /* \"#utility.yul\":571:575   */\n      dup2\n        /* \"#utility.yul\":567:587   */\n      sub\n        /* \"#utility.yul\":563:564   */\n      0x00\n        /* \"#utility.yul\":552:561   */\n      dup4\n        /* \"#utility.yul\":548:565   */\n      add\n        /* \"#utility.yul\":541:588   */\n      mstore\n        /* \"#utility.yul\":605:683   */\n      tag_35\n        /* \"#utility.yul\":678:682   */\n      dup2\n        /* \"#utility.yul\":669:675   */\n      dup5\n        /* \"#utility.yul\":605:683   */\n      tag_24\n      jump\t// in\n    tag_35:\n        /* \"#utility.yul\":597:683   */\n      swap1\n      pop\n        /* \"#utility.yul\":377:690   */\n      swap3\n      swap2\n      pop\n      pop\n      jump\t// out\n        /* \"#utility.yul\":696:795   */\n    tag_27:\n        /* \"#utility.yul\":748:754   */\n      0x00\n        /* \"#utility.yul\":782:787   */\n      dup2\n        /* \"#utility.yul\":776:788   */\n      mload\n        /* \"#utility.yul\":766:788   */\n      swap1\n      pop\n        /* \"#utility.yul\":696:795   */\n      swap2\n      swap1\n      pop\n      jump\t// out\n        /* \"#utility.yul\":801:970   */\n    tag_29:\n        /* \"#utility.yul\":885:896   */\n      0x00\n        /* \"#utility.yul\":919:925   */\n      dup3\n        /* \"#utility.yul\":914:917   */\n      dup3\n        /* \"#utility.yul\":907:926   */\n      mstore\n        /* \"#utility.yul\":959:963   */\n      0x20\n        /* \"#utility.yul\":954:957   */\n      dup3\n        /* \"#utility.yul\":950:964   */\n      add\n        /* \"#utility.yul\":935:964   */\n      swap1\n      pop\n        /* \"#utility.yul\":801:970   */\n      swap3\n      swap2\n      pop\n      pop\n      jump\t// out\n        /* \"#utility.yul\":976:1283   */\n    tag_31:\n        /* \"#utility.yul\":1044:1045   */\n      0x00\n        /* \"#utility.yul\":1054:1167   */\n    tag_39:\n        /* \"#utility.yul\":1068:1074   */\n      dup4\n        /* \"#utility.yul\":1065:1066   */\n      dup2\n        /* \"#utility.yul\":1062:1075   */\n      lt\n        /* \"#utility.yul\":1054:1167   */\n      iszero\n      tag_41\n      jumpi\n        /* \"#utility.yul\":1153:1154   */\n      dup1\n        /* \"#utility.yul\":1148:1151   */\n      dup3\n        /* \"#utility.yul\":1144:1155   */\n      add\n        /* \"#utility.yul\":1138:1156   */\n      mload\n        /* \"#utility.yul\":1134:1135   */\n      dup2\n        /* \"#utility.yul\":1129:1132   */\n      dup5\n        /* \"#utility.yul\":1125:1136   */\n      add\n        /* \"#utility.yul\":1118:1157   */\n      mstore\n        /* \"#utility.yul\":1090:1092   */\n      0x20\n        /* \"#utility.yul\":1087:1088   */\n      dup2\n        /* \"#utility.yul\":1083:1093   */\n      add\n        /* \"#utility.yul\":1078:1093   */\n      swap1\n      pop\n        /* \"#utility.yul\":1054:1167   */\n      jump(tag_39)\n    tag_41:\n        /* \"#utility.yul\":1185:1191   */\n      dup4\n        /* \"#utility.yul\":1182:1183   */\n      dup2\n        /* \"#utility.yul\":1179:1192   */\n      gt\n        /* \"#utility.yul\":1176:1277   */\n      iszero\n      tag_42\n      jumpi\n        /* \"#utility.yul\":1265:1266   */\n      0x00\n        /* \"#utility.yul\":1256:1262   */\n      dup5\n        /* \"#utility.yul\":1251:1254   */\n      dup5\n        /* \"#utility.yul\":1247:1263   */\n      add\n        /* \"#utility.yul\":1240:1267   */\n      mstore\n        /* \"#utility.yul\":1176:1277   */\n    tag_42:\n        /* \"#utility.yul\":1025:1283   */\n      pop\n        /* \"#utility.yul\":976:1283   */\n      pop\n      pop\n      pop\n      jump\t// out\n        /* \"#utility.yul\":1289:1609   */\n    tag_13:\n        /* \"#utility.yul\":1333:1339   */\n      0x00\n        /* \"#utility.yul\":1370:1371   */\n      0x02\n        /* \"#utility.yul\":1364:1368   */\n      dup3\n        /* \"#utility.yul\":1360:1372   */\n      div\n        /* \"#utility.yul\":1350:1372   */\n      swap1\n      pop\n        /* \"#utility.yul\":1417:1418   */\n      0x01\n        /* \"#utility.yul\":1411:1415   */\n      dup3\n        /* \"#utility.yul\":1407:1419   */\n      and\n        /* \"#utility.yul\":1438:1456   */\n      dup1\n        /* \"#utility.yul\":1428:1509   */\n      tag_44\n      jumpi\n        /* \"#utility.yul\":1494:1498   */\n      0x7f\n        /* \"#utility.yul\":1486:1492   */\n      dup3\n        /* \"#utility.yul\":1482:1499   */\n      and\n        /* \"#utility.yul\":1472:1499   */\n      swap2\n      pop\n        /* \"#utility.yul\":1428:1509   */\n    tag_44:\n        /* \"#utility.yul\":1556:1558   */\n      0x20\n        /* \"#utility.yul\":1548:1554   */\n      dup3\n        /* \"#utility.yul\":1545:1559   */\n      lt\n        /* \"#utility.yul\":1525:1543   */\n      dup2\n        /* \"#utility.yul\":1522:1560   */\n      eq\n        /* \"#utility.yul\":1519:1603   */\n      iszero\n      tag_45\n      jumpi\n        /* \"#utility.yul\":1575:1593   */\n      tag_46\n      tag_47\n      jump\t// in\n    tag_46:\n        /* \"#utility.yul\":1519:1603   */\n    tag_45:\n        /* \"#utility.yul\":1340:1609   */\n      pop\n        /* \"#utility.yul\":1289:1609   */\n      swap2\n      swap1\n      pop\n      jump\t// out\n        /* \"#utility.yul\":1615:1795   */\n    tag_47:\n        /* \"#utility.yul\":1663:1740   */\n      0x4e487b7100000000000000000000000000000000000000000000000000000000\n        /* \"#utility.yul\":1660:1661   */\n      0x00\n        /* \"#utility.yul\":1653:1741   */\n      mstore\n        /* \"#utility.yul\":1760:1764   */\n      0x22\n        /* \"#utility.yul\":1757:1758   */\n      0x04\n        /* \"#utility.yul\":1750:1765   */\n      mstore\n        /* \"#utility.yul\":1784:1788   */\n      0x24\n        /* \"#utility.yul\":1781:1782   */\n      0x00\n        /* \"#utility.yul\":1774:1789   */\n      revert\n        /* \"#utility.yul\":1801:1903   */\n    tag_33:\n        /* \"#utility.yul\":1842:1848   */\n      0x00\n        /* \"#utility.yul\":1893:1895   */\n      0x1f\n        /* \"#utility.yul\":1889:1896   */\n      not\n        /* \"#utility.yul\":1884:1886   */\n      0x1f\n        /* \"#utility.yul\":1877:1882   */\n      dup4\n        /* \"#utility.yul\":1873:1887   */\n      add\n        /* \"#utility.yul\":1869:1897   */\n      and\n        /* \"#utility.yul\":1859:1897   */\n      swap1\n      pop\n        /* \"#utility.yul\":1801:1903   */\n      swap2\n      swap1\n      pop\n      jump\t// out\n\n    auxdata: 0xa264697066735822122020682cc5d5f517692002a84e474d4adae40fb52a147d55bbf61f548af643bbe864736f6c63430008070033\n}\n",
				"bytecode": {
					"linkReferences": {},
					"object": "608060405234801561001057600080fd5b5060405161085238038061085283398181016040528101906100329190610251565b806040518060400160405280600181526020017f7300000000000000000000000000000000000000000000000000000000000000815250806000908051906020019061007f92919061013e565b507fcf34ef537ac33ee1ac626ca1587a0a7e8e51561e5514f8cb36afa1c5102b3bab6040516100ad90610303565b60405180910390a15080600190805190602001906100cc92919061013e565b507f16783dda8fe899b47fa72274509d788dc4b657c9628a27189a81f451725e7de26040516100fa90610323565b60405180910390a1507fcf34ef537ac33ee1ac626ca1587a0a7e8e51561e5514f8cb36afa1c5102b3bab60405161013090610343565b60405180910390a15061055e565b82805461014a906103fd565b90600052602060002090601f01602090048101928261016c57600085556101b3565b82601f1061018557805160ff19168380011785556101b3565b828001600101855582156101b3579182015b828111156101b2578251825591602001919060010190610197565b5b5090506101c091906101c4565b5090565b5b808211156101dd5760008160009055506001016101c5565b5090565b60006101f46101ef84610388565b610363565b9050828152602081018484840111156102105761020f6104c3565b5b61021b8482856103ca565b509392505050565b600082601f830112610238576102376104be565b5b81516102488482602086016101e1565b91505092915050565b600060208284031215610267576102666104cd565b5b600082015167ffffffffffffffff811115610285576102846104c8565b5b61029184828501610223565b91505092915050565b60006102a76016836103b9565b91506102b2826104e3565b602082019050919050565b60006102ca6016836103b9565b91506102d58261050c565b602082019050919050565b60006102ed6017836103b9565b91506102f882610535565b602082019050919050565b6000602082019050818103600083015261031c8161029a565b9050919050565b6000602082019050818103600083015261033c816102bd565b9050919050565b6000602082019050818103600083015261035c816102e0565b9050919050565b600061036d61037e565b9050610379828261042f565b919050565b6000604051905090565b600067ffffffffffffffff8211156103a3576103a261048f565b5b6103ac826104d2565b9050602081019050919050565b600082825260208201905092915050565b60005b838110156103e85780820151818401526020810190506103cd565b838111156103f7576000848401525b50505050565b6000600282049050600182168061041557607f821691505b6020821081141561042957610428610460565b5b50919050565b610438826104d2565b810181811067ffffffffffffffff821117156104575761045661048f565b5b80604052505050565b7f4e487b7100000000000000000000000000000000000000000000000000000000600052602260045260246000fd5b7f4e487b7100000000000000000000000000000000000000000000000000000000600052604160045260246000fd5b600080fd5b600080fd5b600080fd5b600080fd5b6000601f19601f8301169050919050565b7f436f6e7374727563746f72205320657865637574656400000000000000000000600082015250565b7f436f6e7374727563746f72205420657865637574656400000000000000000000600082015250565b7f436f6e7374727563746f72204242206578656375746564000000000000000000600082015250565b6102e58061056d6000396000f3fe608060405234801561001057600080fd5b50600436106100365760003560e01c806306fdde031461003b5780631f1bd69214610059575b600080fd5b610043610077565b60405161005091906101cc565b60405180910390f35b610061610105565b60405161006e91906101cc565b60405180910390f35b600080546100849061023d565b80601f01602080910402602001604051908101604052809291908181526020018280546100b09061023d565b80156100fd5780601f106100d2576101008083540402835291602001916100fd565b820191906000526020600020905b8154815290600101906020018083116100e057829003601f168201915b505050505081565b600180546101129061023d565b80601f016020809104026020016040519081016040528092919081815260200182805461013e9061023d565b801561018b5780601f106101605761010080835404028352916020019161018b565b820191906000526020600020905b81548152906001019060200180831161016e57829003601f168201915b505050505081565b600061019e826101ee565b6101a881856101f9565b93506101b881856020860161020a565b6101c18161029e565b840191505092915050565b600060208201905081810360008301526101e68184610193565b905092915050565b600081519050919050565b600082825260208201905092915050565b60005b8381101561022857808201518184015260208101905061020d565b83811115610237576000848401525b50505050565b6000600282049050600182168061025557607f821691505b602082108114156102695761026861026f565b5b50919050565b7f4e487b7100000000000000000000000000000000000000000000000000000000600052602260045260246000fd5b6000601f19601f830116905091905056fea264697066735822122020682cc5d5f517692002a84e474d4adae40fb52a147d55bbf61f548af643bbe864736f6c63430008070033",
					"opcodes": "PUSH1 0x80 PUSH1 0x40 MSTORE CALLVALUE DUP1 ISZERO PUSH2 0x10 JUMPI PUSH1 0x0 DUP1 REVERT JUMPDEST POP PUSH1 0x40 MLOAD PUSH2 0x852 CODESIZE SUB DUP1 PUSH2 0x852 DUP4 CODECOPY DUP2 DUP2 ADD PUSH1 0x40 MSTORE DUP2 ADD SWAP1 PUSH2 0x32 SWAP2 SWAP1 PUSH2 0x251 JUMP JUMPDEST DUP1 PUSH1 0x40 MLOAD DUP1 PUSH1 0x40 ADD PUSH1 0x40 MSTORE DUP1 PUSH1 0x1 DUP2 MSTORE PUSH1 0x20 ADD PUSH32 0x7300000000000000000000000000000000000000000000000000000000000000 DUP2 MSTORE POP DUP1 PUSH1 0x0 SWAP1 DUP1 MLOAD SWAP1 PUSH1 0x20 ADD SWAP1 PUSH2 0x7F SWAP3 SWAP2 SWAP1 PUSH2 0x13E JUMP JUMPDEST POP PUSH32 0xCF34EF537AC33EE1AC626CA1587A0A7E8E51561E5514F8CB36AFA1C5102B3BAB PUSH1 0x40 MLOAD PUSH2 0xAD SWAP1 PUSH2 0x303 JUMP JUMPDEST PUSH1 0x40 MLOAD DUP1 SWAP2 SUB SWAP1 LOG1 POP DUP1 PUSH1 0x1 SWAP1 DUP1 MLOAD SWAP1 PUSH1 0x20 ADD SWAP1 PUSH2 0xCC SWAP3 SWAP2 SWAP1 PUSH2 0x13E JUMP JUMPDEST POP PUSH32 0x16783DDA8FE899B47FA72274509D788DC4B657C9628A27189A81F451725E7DE2 PUSH1 0x40 MLOAD PUSH2 0xFA SWAP1 PUSH2 0x323 JUMP JUMPDEST PUSH1 0x40 MLOAD DUP1 SWAP2 SUB SWAP1 LOG1 POP PUSH32 0xCF34EF537AC33EE1AC626CA1587A0A7E8E51561E5514F8CB36AFA1C5102B3BAB PUSH1 0x40 MLOAD PUSH2 0x130 SWAP1 PUSH2 0x343 JUMP JUMPDEST PUSH1 0x40 MLOAD DUP1 SWAP2 SUB SWAP1 LOG1 POP PUSH2 0x55E JUMP JUMPDEST DUP3 DUP1 SLOAD PUSH2 0x14A SWAP1 PUSH2 0x3FD JUMP JUMPDEST SWAP1 PUSH1 0x0 MSTORE PUSH1 0x20 PUSH1 0x0 KECCAK256 SWAP1 PUSH1 0x1F ADD PUSH1 0x20 SWAP1 DIV DUP2 ADD SWAP3 DUP3 PUSH2 0x16C JUMPI PUSH1 0x0 DUP6 SSTORE PUSH2 0x1B3 JUMP JUMPDEST DUP3 PUSH1 0x1F LT PUSH2 0x185 JUMPI DUP1 MLOAD PUSH1 0xFF NOT AND DUP4 DUP1 ADD OR DUP6 SSTORE PUSH2 0x1B3 JUMP JUMPDEST DUP3 DUP1 ADD PUSH1 0x1 ADD DUP6 SSTORE DUP3 ISZERO PUSH2 0x1B3 JUMPI SWAP2 DUP3 ADD JUMPDEST DUP3 DUP2 GT ISZERO PUSH2 0x1B2 JUMPI DUP3 MLOAD DUP3 SSTORE SWAP2 PUSH1 0x20 ADD SWAP2 SWAP1 PUSH1 0x1 ADD SWAP1 PUSH2 0x197 JUMP JUMPDEST JUMPDEST POP SWAP1 POP PUSH2 0x1C0 SWAP2 SWAP1 PUSH2 0x1C4 JUMP JUMPDEST POP SWAP1 JUMP JUMPDEST JUMPDEST DUP1 DUP3 GT ISZERO PUSH2 0x1DD JUMPI PUSH1 0x0 DUP2 PUSH1 0x0 SWAP1 SSTORE POP PUSH1 0x1 ADD PUSH2 0x1C5 JUMP JUMPDEST POP SWAP1 JUMP JUMPDEST PUSH1 0x0 PUSH2 0x1F4 PUSH2 0x1EF DUP5 PUSH2 0x388 JUMP JUMPDEST PUSH2 0x363 JUMP JUMPDEST SWAP1 POP DUP3 DUP2 MSTORE PUSH1 0x20 DUP2 ADD DUP5 DUP5 DUP5 ADD GT ISZERO PUSH2 0x210 JUMPI PUSH2 0x20F PUSH2 0x4C3 JUMP JUMPDEST JUMPDEST PUSH2 0x21B DUP5 DUP3 DUP6 PUSH2 0x3CA JUMP JUMPDEST POP SWAP4 SWAP3 POP POP POP JUMP JUMPDEST PUSH1 0x0 DUP3 PUSH1 0x1F DUP4 ADD SLT PUSH2 0x238 JUMPI PUSH2 0x237 PUSH2 0x4BE JUMP JUMPDEST JUMPDEST DUP2 MLOAD PUSH2 0x248 DUP5 DUP3 PUSH1 0x20 DUP7 ADD PUSH2 0x1E1 JUMP JUMPDEST SWAP2 POP POP SWAP3 SWAP2 POP POP JUMP JUMPDEST PUSH1 0x0 PUSH1 0x20 DUP3 DUP5 SUB SLT ISZERO PUSH2 0x267 JUMPI PUSH2 0x266 PUSH2 0x4CD JUMP JUMPDEST JUMPDEST PUSH1 0x0 DUP3 ADD MLOAD PUSH8 0xFFFFFFFFFFFFFFFF DUP2 GT ISZERO PUSH2 0x285 JUMPI PUSH2 0x284 PUSH2 0x4C8 JUMP JUMPDEST JUMPDEST PUSH2 0x291 DUP5 DUP3 DUP6 ADD PUSH2 0x223 JUMP JUMPDEST SWAP2 POP POP SWAP3 SWAP2 POP POP JUMP JUMPDEST PUSH1 0x0 PUSH2 0x2A7 PUSH1 0x16 DUP4 PUSH2 0x3B9 JUMP JUMPDEST SWAP2 POP PUSH2 0x2B2 DUP3 PUSH2 0x4E3 JUMP JUMPDEST PUSH1 0x20 DUP3 ADD SWAP1 POP SWAP2 SWAP1 POP JUMP JUMPDEST PUSH1 0x0 PUSH2 0x2CA PUSH1 0x16 DUP4 PUSH2 0x3B9 JUMP JUMPDEST SWAP2 POP PUSH2 0x2D5 DUP3 PUSH2 0x50C JUMP JUMPDEST PUSH1 0x20 DUP3 ADD SWAP1 POP SWAP2 SWAP1 POP JUMP JUMPDEST PUSH1 0x0 PUSH2 0x2ED PUSH1 0x17 DUP4 PUSH2 0x3B9 JUMP JUMPDEST SWAP2 POP PUSH2 0x2F8 DUP3 PUSH2 0x535 JUMP JUMPDEST PUSH1 0x20 DUP3 ADD SWAP1 POP SWAP2 SWAP1 POP JUMP JUMPDEST PUSH1 0x0 PUSH1 0x20 DUP3 ADD SWAP1 POP DUP2 DUP2 SUB PUSH1 0x0 DUP4 ADD MSTORE PUSH2 0x31C DUP2 PUSH2 0x29A JUMP JUMPDEST SWAP1 POP SWAP2 SWAP1 POP JUMP JUMPDEST PUSH1 0x0 PUSH1 0x20 DUP3 ADD SWAP1 POP DUP2 DUP2 SUB PUSH1 0x0 DUP4 ADD MSTORE PUSH2 0x33C DUP2 PUSH2 0x2BD JUMP JUMPDEST SWAP1 POP SWAP2 SWAP1 POP JUMP JUMPDEST PUSH1 0x0 PUSH1 0x20 DUP3 ADD SWAP1 POP DUP2 DUP2 SUB PUSH1 0x0 DUP4 ADD MSTORE PUSH2 0x35C DUP2 PUSH2 0x2E0 JUMP JUMPDEST SWAP1 POP SWAP2 SWAP1 POP JUMP JUMPDEST PUSH1 0x0 PUSH2 0x36D PUSH2 0x37E JUMP JUMPDEST SWAP1 POP PUSH2 0x379 DUP3 DUP3 PUSH2 0x42F JUMP JUMPDEST SWAP2 SWAP1 POP JUMP JUMPDEST PUSH1 0x0 PUSH1 0x40 MLOAD SWAP1 POP SWAP1 JUMP JUMPDEST PUSH1 0x0 PUSH8 0xFFFFFFFFFFFFFFFF DUP3 GT ISZERO PUSH2 0x3A3 JUMPI PUSH2 0x3A2 PUSH2 0x48F JUMP JUMPDEST JUMPDEST PUSH2 0x3AC DUP3 PUSH2 0x4D2 JUMP JUMPDEST SWAP1 POP PUSH1 0x20 DUP2 ADD SWAP1 POP SWAP2 SWAP1 POP JUMP JUMPDEST PUSH1 0x0 DUP3 DUP3 MSTORE PUSH1 0x20 DUP3 ADD SWAP1 POP SWAP3 SWAP2 POP POP JUMP JUMPDEST PUSH1 0x0 JUMPDEST DUP4 DUP2 LT ISZERO PUSH2 0x3E8 JUMPI DUP1 DUP3 ADD MLOAD DUP2 DUP5 ADD MSTORE PUSH1 0x20 DUP2 ADD SWAP1 POP PUSH2 0x3CD JUMP JUMPDEST DUP4 DUP2 GT ISZERO PUSH2 0x3F7 JUMPI PUSH1 0x0 DUP5 DUP5 ADD MSTORE JUMPDEST POP POP POP POP JUMP JUMPDEST PUSH1 0x0 PUSH1 0x2 DUP3 DIV SWAP1 POP PUSH1 0x1 DUP3 AND DUP1 PUSH2 0x415 JUMPI PUSH1 0x7F DUP3 AND SWAP2 POP JUMPDEST PUSH1 0x20 DUP3 LT DUP2 EQ ISZERO PUSH2 0x429 JUMPI PUSH2 0x428 PUSH2 0x460 JUMP JUMPDEST JUMPDEST POP SWAP2 SWAP1 POP JUMP JUMPDEST PUSH2 0x438 DUP3 PUSH2 0x4D2 JUMP JUMPDEST DUP2 ADD DUP2 DUP2 LT PUSH8 0xFFFFFFFFFFFFFFFF DUP3 GT OR ISZERO PUSH2 0x457 JUMPI PUSH2 0x456 PUSH2 0x48F JUMP JUMPDEST JUMPDEST DUP1 PUSH1 0x40 MSTORE POP POP POP JUMP JUMPDEST PUSH32 0x4E487B7100000000000000000000000000000000000000000000000000000000 PUSH1 0x0 MSTORE PUSH1 0x22 PUSH1 0x4 MSTORE PUSH1 0x24 PUSH1 0x0 REVERT JUMPDEST PUSH32 0x4E487B7100000000000000000000000000000000000000000000000000000000 PUSH1 0x0 MSTORE PUSH1 0x41 PUSH1 0x4 MSTORE PUSH1 0x24 PUSH1 0x0 REVERT JUMPDEST PUSH1 0x0 DUP1 REVERT JUMPDEST PUSH1 0x0 DUP1 REVERT JUMPDEST PUSH1 0x0 DUP1 REVERT JUMPDEST PUSH1 0x0 DUP1 REVERT JUMPDEST PUSH1 0x0 PUSH1 0x1F NOT PUSH1 0x1F DUP4 ADD AND SWAP1 POP SWAP2 SWAP1 POP JUMP JUMPDEST PUSH32 0x436F6E7374727563746F72205320657865637574656400000000000000000000 PUSH1 0x0 DUP3 ADD MSTORE POP JUMP JUMPDEST PUSH32 0x436F6E7374727563746F72205420657865637574656400000000000000000000 PUSH1 0x0 DUP3 ADD MSTORE POP JUMP JUMPDEST PUSH32 0x436F6E7374727563746F72204242206578656375746564000000000000000000 PUSH1 0x0 DUP3 ADD MSTORE POP JUMP JUMPDEST PUSH2 0x2E5 DUP1 PUSH2 0x56D PUSH1 0x0 CODECOPY PUSH1 0x0 RETURN INVALID PUSH1 0x80 PUSH1 0x40 MSTORE CALLVALUE DUP1 ISZERO PUSH2 0x10 JUMPI PUSH1 0x0 DUP1 REVERT JUMPDEST POP PUSH1 0x4 CALLDATASIZE LT PUSH2 0x36 JUMPI PUSH1 0x0 CALLDATALOAD PUSH1 0xE0 SHR DUP1 PUSH4 0x6FDDE03 EQ PUSH2 0x3B JUMPI DUP1 PUSH4 0x1F1BD692 EQ PUSH2 0x59 JUMPI JUMPDEST PUSH1 0x0 DUP1 REVERT JUMPDEST PUSH2 0x43 PUSH2 0x77 JUMP JUMPDEST PUSH1 0x40 MLOAD PUSH2 0x50 SWAP2 SWAP1 PUSH2 0x1CC JUMP JUMPDEST PUSH1 0x40 MLOAD DUP1 SWAP2 SUB SWAP1 RETURN JUMPDEST PUSH2 0x61 PUSH2 0x105 JUMP JUMPDEST PUSH1 0x40 MLOAD PUSH2 0x6E SWAP2 SWAP1 PUSH2 0x1CC JUMP JUMPDEST PUSH1 0x40 MLOAD DUP1 SWAP2 SUB SWAP1 RETURN JUMPDEST PUSH1 0x0 DUP1 SLOAD PUSH2 0x84 SWAP1 PUSH2 0x23D JUMP JUMPDEST DUP1 PUSH1 0x1F ADD PUSH1 0x20 DUP1 SWAP2 DIV MUL PUSH1 0x20 ADD PUSH1 0x40 MLOAD SWAP1 DUP2 ADD PUSH1 0x40 MSTORE DUP1 SWAP3 SWAP2 SWAP1 DUP2 DUP2 MSTORE PUSH1 0x20 ADD DUP3 DUP1 SLOAD PUSH2 0xB0 SWAP1 PUSH2 0x23D JUMP JUMPDEST DUP1 ISZERO PUSH2 0xFD JUMPI DUP1 PUSH1 0x1F LT PUSH2 0xD2 JUMPI PUSH2 0x100 DUP1 DUP4 SLOAD DIV MUL DUP4 MSTORE SWAP2 PUSH1 0x20 ADD SWAP2 PUSH2 0xFD JUMP JUMPDEST DUP3 ADD SWAP2 SWAP1 PUSH1 0x0 MSTORE PUSH1 0x20 PUSH1 0x0 KECCAK256 SWAP1 JUMPDEST DUP2 SLOAD DUP2 MSTORE SWAP1 PUSH1 0x1 ADD SWAP1 PUSH1 0x20 ADD DUP1 DUP4 GT PUSH2 0xE0 JUMPI DUP3 SWAP1 SUB PUSH1 0x1F AND DUP3 ADD SWAP2 JUMPDEST POP POP POP POP POP DUP2 JUMP JUMPDEST PUSH1 0x1 DUP1 SLOAD PUSH2 0x112 SWAP1 PUSH2 0x23D JUMP JUMPDEST DUP1 PUSH1 0x1F ADD PUSH1 0x20 DUP1 SWAP2 DIV MUL PUSH1 0x20 ADD PUSH1 0x40 MLOAD SWAP1 DUP2 ADD PUSH1 0x40 MSTORE DUP1 SWAP3 SWAP2 SWAP1 DUP2 DUP2 MSTORE PUSH1 0x20 ADD DUP3 DUP1 SLOAD PUSH2 0x13E SWAP1 PUSH2 0x23D JUMP JUMPDEST DUP1 ISZERO PUSH2 0x18B JUMPI DUP1 PUSH1 0x1F LT PUSH2 0x160 JUMPI PUSH2 0x100 DUP1 DUP4 SLOAD DIV MUL DUP4 MSTORE SWAP2 PUSH1 0x20 ADD SWAP2 PUSH2 0x18B JUMP JUMPDEST DUP3 ADD SWAP2 SWAP1 PUSH1 0x0 MSTORE PUSH1 0x20 PUSH1 0x0 KECCAK256 SWAP1 JUMPDEST DUP2 SLOAD DUP2 MSTORE SWAP1 PUSH1 0x1 ADD SWAP1 PUSH1 0x20 ADD DUP1 DUP4 GT PUSH2 0x16E JUMPI DUP3 SWAP1 SUB PUSH1 0x1F AND DUP3 ADD SWAP2 JUMPDEST POP POP POP POP POP DUP2 JUMP JUMPDEST PUSH1 0x0 PUSH2 0x19E DUP3 PUSH2 0x1EE JUMP JUMPDEST PUSH2 0x1A8 DUP2 DUP6 PUSH2 0x1F9 JUMP JUMPDEST SWAP4 POP PUSH2 0x1B8 DUP2 DUP6 PUSH1 0x20 DUP7 ADD PUSH2 0x20A JUMP JUMPDEST PUSH2 0x1C1 DUP2 PUSH2 0x29E JUMP JUMPDEST DUP5 ADD SWAP2 POP POP SWAP3 SWAP2 POP POP JUMP JUMPDEST PUSH1 0x0 PUSH1 0x20 DUP3 ADD SWAP1 POP DUP2 DUP2 SUB PUSH1 0x0 DUP4 ADD MSTORE PUSH2 0x1E6 DUP2 DUP5 PUSH2 0x193 JUMP JUMPDEST SWAP1 POP SWAP3 SWAP2 POP POP JUMP JUMPDEST PUSH1 0x0 DUP2 MLOAD SWAP1 POP SWAP2 SWAP1 POP JUMP JUMPDEST PUSH1 0x0 DUP3 DUP3 MSTORE PUSH1 0x20 DUP3 ADD SWAP1 POP SWAP3 SWAP2 POP POP JUMP JUMPDEST PUSH1 0x0 JUMPDEST DUP4 DUP2 LT ISZERO PUSH2 0x228 JUMPI DUP1 DUP3 ADD MLOAD DUP2 DUP5 ADD MSTORE PUSH1 0x20 DUP2 ADD SWAP1 POP PUSH2 0x20D JUMP JUMPDEST DUP4 DUP2 GT ISZERO PUSH2 0x237 JUMPI PUSH1 0x0 DUP5 DUP5 ADD MSTORE JUMPDEST POP POP POP POP JUMP JUMPDEST PUSH1 0x0 PUSH1 0x2 DUP3 DIV SWAP1 POP PUSH1 0x1 DUP3 AND DUP1 PUSH2 0x255 JUMPI PUSH1 0x7F DUP3 AND SWAP2 POP JUMPDEST PUSH1 0x20 DUP3 LT DUP2 EQ ISZERO PUSH2 0x269 JUMPI PUSH2 0x268 PUSH2 0x26F JUMP JUMPDEST JUMPDEST POP SWAP2 SWAP1 POP JUMP JUMPDEST PUSH32 0x4E487B7100000000000000000000000000000000000000000000000000000000 PUSH1 0x0 MSTORE PUSH1 0x22 PUSH1 0x4 MSTORE PUSH1 0x24 PUSH1 0x0 REVERT JUMPDEST PUSH1 0x0 PUSH1 0x1F NOT PUSH1 0x1F DUP4 ADD AND SWAP1 POP SWAP2 SWAP1 POP JUMP INVALID LOG2 PUSH5 0x6970667358 0x22 SLT KECCAK256 KECCAK256 PUSH9 0x2CC5D5F517692002A8 0x4E SELFBALANCE 0x4D 0x4A 0xDA 0xE4 0xF 0xB5 0x2A EQ PUSH30 0x55BBF61F548AF643BBE864736F6C63430008070033000000000000000000 "
				},
				"gasEstimates": {
					"creation": {
						"codeDepositCost": "148200",
						"executionCost": "infinite",
						"totalCost": "infinite"
					},
					"external": {
						"name()": "infinite",
						"text()": "infinite"
					}
				},
				"methodIdentifiers": {
					"name()": "06fdde03",
					"text()": "1f1bd692"
				}
			},
			"storageLayout": {
				"storage": [
					{
						"astId": 3,
						"contract": "contracts/ParentConstructors.sol:BB",
						"label": "name",
						"offset": 0,
						"slot": "0",
						"type": "t_string_storage"
					},
					{
						"astId": 24,
						"contract": "contracts/ParentConstructors.sol:BB",
						"label": "text",
						"offset": 0,
						"slot": "1",
						"type": "t_string_storage"
					}
				],
				"types": {
					"t_string_storage": {
						"encoding": "bytes",
						"label": "string",
						"numberOfBytes": "32"
					}
				}
			},
			"userdoc": {
				"kind": "user",
				"methods": {},
				"version": 1
			}
		}
	}
}