{
	"contracts/EnumTest.sol": {
		"Enum": {
			"abi": [
				{
					"inputs": [],
					"name": "addOrder",
					"outputs": [],
					"stateMutability": "nonpayable",
					"type": "function"
				},
				{
					"inputs": [
						{
							"internalType": "uint256",
							"name": "",
							"type": "uint256"
						}
					],
					"name": "orders",
					"outputs": [
						{
							"internalType": "address",
							"name": "buyer",
							"type": "address"
						},
						{
							"internalType": "enum Enum.OrderStatus",
							"name": "status",
							"type": "uint8"
						}
					],
					"stateMutability": "view",
					"type": "function"
				},
				{
					"inputs": [],
					"name": "status",
					"outputs": [
						{
							"internalType": "enum Enum.OrderStatus",
							"name": "",
							"type": "uint8"
						}
					],
					"stateMutability": "view",
					"type": "function"
				}
			],
			"devdoc": {
				"kind": "dev",
				"methods": {},
				"version": 1
			},
			"evm": {
				"assembly": "    /* \"contracts/EnumTest.sol\":682:1433  contract Enum{\r... */\n  mstore(0x40, 0x80)\n  callvalue\n  dup1\n  iszero\n  tag_1\n  jumpi\n  0x00\n  dup1\n  revert\ntag_1:\n  pop\n  dataSize(sub_0)\n  dup1\n  dataOffset(sub_0)\n  0x00\n  codecopy\n  0x00\n  return\nstop\n\nsub_0: assembly {\n        /* \"contracts/EnumTest.sol\":682:1433  contract Enum{\r... */\n      mstore(0x40, 0x80)\n      callvalue\n      dup1\n      iszero\n      tag_1\n      jumpi\n      0x00\n      dup1\n      revert\n    tag_1:\n      pop\n      jumpi(tag_2, lt(calldatasize, 0x04))\n      shr(0xe0, calldataload(0x00))\n      dup1\n      0x200d2ed2\n      eq\n      tag_3\n      jumpi\n      dup1\n      0x2035a264\n      eq\n      tag_4\n      jumpi\n      dup1\n      0xa85c38ef\n      eq\n      tag_5\n      jumpi\n    tag_2:\n      0x00\n      dup1\n      revert\n        /* \"contracts/EnumTest.sol\":958:983  OrderStatus public status */\n    tag_3:\n      tag_6\n      tag_7\n      jump\t// in\n    tag_6:\n      mload(0x40)\n      tag_8\n      swap2\n      swap1\n      tag_9\n      jump\t// in\n    tag_8:\n      mload(0x40)\n      dup1\n      swap2\n      sub\n      swap1\n      return\n        /* \"contracts/EnumTest.sol\":992:1428  function addOrder() external {\r... */\n    tag_4:\n      tag_10\n      tag_11\n      jump\t// in\n    tag_10:\n      stop\n        /* \"contracts/EnumTest.sol\":930:951  Order[] public orders */\n    tag_5:\n      tag_12\n      0x04\n      dup1\n      calldatasize\n      sub\n      dup2\n      add\n      swap1\n      tag_13\n      swap2\n      swap1\n      tag_14\n      jump\t// in\n    tag_13:\n      tag_15\n      jump\t// in\n    tag_12:\n      mload(0x40)\n      tag_16\n      swap3\n      swap2\n      swap1\n      tag_17\n      jump\t// in\n    tag_16:\n      mload(0x40)\n      dup1\n      swap2\n      sub\n      swap1\n      return\n        /* \"contracts/EnumTest.sol\":958:983  OrderStatus public status */\n    tag_7:\n      0x01\n      0x00\n      swap1\n      sload\n      swap1\n      0x0100\n      exp\n      swap1\n      div\n      0xff\n      and\n      dup2\n      jump\t// out\n        /* \"contracts/EnumTest.sol\":992:1428  function addOrder() external {\r... */\n    tag_11:\n        /* \"contracts/EnumTest.sol\":1032:1051  Order memory order1 */\n      0x00\n        /* \"contracts/EnumTest.sol\":1052:1089  Order(msg.sender,OrderStatus.Pending) */\n      mload(0x40)\n      dup1\n      0x40\n      add\n      0x40\n      mstore\n      dup1\n        /* \"contracts/EnumTest.sol\":1058:1068  msg.sender */\n      caller\n        /* \"contracts/EnumTest.sol\":1052:1089  Order(msg.sender,OrderStatus.Pending) */\n      0xffffffffffffffffffffffffffffffffffffffff\n      and\n      dup2\n      mstore\n      0x20\n      add\n        /* \"contracts/EnumTest.sol\":1069:1088  OrderStatus.Pending */\n      0x01\n        /* \"contracts/EnumTest.sol\":1052:1089  Order(msg.sender,OrderStatus.Pending) */\n      0x05\n      dup2\n      gt\n      iszero\n      tag_19\n      jumpi\n      tag_20\n      tag_21\n      jump\t// in\n    tag_20:\n    tag_19:\n      dup2\n      mstore\n      pop\n        /* \"contracts/EnumTest.sol\":1032:1089  Order memory order1=Order(msg.sender,OrderStatus.Pending) */\n      swap1\n      pop\n        /* \"contracts/EnumTest.sol\":1102:1121  Order memory order2 */\n      tag_22\n      tag_23\n      jump\t// in\n    tag_22:\n        /* \"contracts/EnumTest.sol\":1153:1154  2 */\n      0x02\n        /* \"contracts/EnumTest.sol\":1132:1138  order2 */\n      dup2\n        /* \"contracts/EnumTest.sol\":1132:1144  order2.buyer */\n      0x00\n      add\n        /* \"contracts/EnumTest.sol\":1132:1155  order2.buyer=address(2) */\n      swap1\n      0xffffffffffffffffffffffffffffffffffffffff\n      and\n      swap1\n      dup2\n      0xffffffffffffffffffffffffffffffffffffffff\n      and\n      dup2\n      mstore\n      pop\n      pop\n        /* \"contracts/EnumTest.sol\":1180:1201  OrderStatus.Completed */\n      0x03\n        /* \"contracts/EnumTest.sol\":1166:1172  order2 */\n      dup2\n        /* \"contracts/EnumTest.sol\":1166:1179  order2.status */\n      0x20\n      add\n        /* \"contracts/EnumTest.sol\":1166:1201  order2.status=OrderStatus.Completed */\n      swap1\n      0x05\n      dup2\n      gt\n      iszero\n      tag_24\n      jumpi\n      tag_25\n      tag_21\n      jump\t// in\n    tag_25:\n    tag_24:\n      swap1\n      dup2\n      0x05\n      dup2\n      gt\n      iszero\n      tag_26\n      jumpi\n      tag_27\n      tag_21\n      jump\t// in\n    tag_27:\n    tag_26:\n      dup2\n      mstore\n      pop\n      pop\n        /* \"contracts/EnumTest.sol\":1214:1233  Order memory order3 */\n      0x00\n        /* \"contracts/EnumTest.sol\":1234:1326  Order({\r... */\n      mload(0x40)\n      dup1\n      0x40\n      add\n      0x40\n      mstore\n      dup1\n        /* \"contracts/EnumTest.sol\":1269:1270  3 */\n      0x03\n        /* \"contracts/EnumTest.sol\":1234:1326  Order({\r... */\n      0xffffffffffffffffffffffffffffffffffffffff\n      and\n      dup2\n      mstore\n      0x20\n      add\n        /* \"contracts/EnumTest.sol\":1293:1314  OrderStatus.Cancelled */\n      0x05\n        /* \"contracts/EnumTest.sol\":1234:1326  Order({\r... */\n      dup1\n      dup2\n      gt\n      iszero\n      tag_28\n      jumpi\n      tag_29\n      tag_21\n      jump\t// in\n    tag_29:\n    tag_28:\n      dup2\n      mstore\n      pop\n        /* \"contracts/EnumTest.sol\":1214:1326  Order memory order3=Order({\r... */\n      swap1\n      pop\n        /* \"contracts/EnumTest.sol\":1339:1345  orders */\n      0x00\n        /* \"contracts/EnumTest.sol\":1351:1357  order1 */\n      dup4\n        /* \"contracts/EnumTest.sol\":1339:1358  orders.push(order1) */\n      swap1\n      dup1\n      0x01\n      dup2\n      sload\n      add\n      dup1\n      dup3\n      sstore\n      dup1\n      swap2\n      pop\n      pop\n      0x01\n      swap1\n      sub\n      swap1\n      0x00\n      mstore\n      keccak256(0x00, 0x20)\n      add\n      0x00\n      swap1\n      swap2\n      swap1\n      swap2\n      swap1\n      swap2\n      pop\n      0x00\n      dup3\n      add\n      mload\n      dup2\n      0x00\n      add\n      exp(0x0100, 0x00)\n      dup2\n      sload\n      dup2\n      0xffffffffffffffffffffffffffffffffffffffff\n      mul\n      not\n      and\n      swap1\n      dup4\n      0xffffffffffffffffffffffffffffffffffffffff\n      and\n      mul\n      or\n      swap1\n      sstore\n      pop\n      0x20\n      dup3\n      add\n      mload\n      dup2\n      0x00\n      add\n      exp(0x0100, 0x14)\n      dup2\n      sload\n      dup2\n      0xff\n      mul\n      not\n      and\n      swap1\n      dup4\n      0x05\n      dup2\n      gt\n      iszero\n      tag_31\n      jumpi\n      tag_32\n      tag_21\n      jump\t// in\n    tag_32:\n    tag_31:\n      mul\n      or\n      swap1\n      sstore\n      pop\n      pop\n      pop\n        /* \"contracts/EnumTest.sol\":1369:1375  orders */\n      0x00\n        /* \"contracts/EnumTest.sol\":1381:1387  order2 */\n      dup3\n        /* \"contracts/EnumTest.sol\":1369:1388  orders.push(order2) */\n      swap1\n      dup1\n      0x01\n      dup2\n      sload\n      add\n      dup1\n      dup3\n      sstore\n      dup1\n      swap2\n      pop\n      pop\n      0x01\n      swap1\n      sub\n      swap1\n      0x00\n      mstore\n      keccak256(0x00, 0x20)\n      add\n      0x00\n      swap1\n      swap2\n      swap1\n      swap2\n      swap1\n      swap2\n      pop\n      0x00\n      dup3\n      add\n      mload\n      dup2\n      0x00\n      add\n      exp(0x0100, 0x00)\n      dup2\n      sload\n      dup2\n      0xffffffffffffffffffffffffffffffffffffffff\n      mul\n      not\n      and\n      swap1\n      dup4\n      0xffffffffffffffffffffffffffffffffffffffff\n      and\n      mul\n      or\n      swap1\n      sstore\n      pop\n      0x20\n      dup3\n      add\n      mload\n      dup2\n      0x00\n      add\n      exp(0x0100, 0x14)\n      dup2\n      sload\n      dup2\n      0xff\n      mul\n      not\n      and\n      swap1\n      dup4\n      0x05\n      dup2\n      gt\n      iszero\n      tag_34\n      jumpi\n      tag_35\n      tag_21\n      jump\t// in\n    tag_35:\n    tag_34:\n      mul\n      or\n      swap1\n      sstore\n      pop\n      pop\n      pop\n        /* \"contracts/EnumTest.sol\":1399:1405  orders */\n      0x00\n        /* \"contracts/EnumTest.sol\":1411:1417  order3 */\n      dup2\n        /* \"contracts/EnumTest.sol\":1399:1418  orders.push(order3) */\n      swap1\n      dup1\n      0x01\n      dup2\n      sload\n      add\n      dup1\n      dup3\n      sstore\n      dup1\n      swap2\n      pop\n      pop\n      0x01\n      swap1\n      sub\n      swap1\n      0x00\n      mstore\n      keccak256(0x00, 0x20)\n      add\n      0x00\n      swap1\n      swap2\n      swap1\n      swap2\n      swap1\n      swap2\n      pop\n      0x00\n      dup3\n      add\n      mload\n      dup2\n      0x00\n      add\n      exp(0x0100, 0x00)\n      dup2\n      sload\n      dup2\n      0xffffffffffffffffffffffffffffffffffffffff\n      mul\n      not\n      and\n      swap1\n      dup4\n      0xffffffffffffffffffffffffffffffffffffffff\n      and\n      mul\n      or\n      swap1\n      sstore\n      pop\n      0x20\n      dup3\n      add\n      mload\n      dup2\n      0x00\n      add\n      exp(0x0100, 0x14)\n      dup2\n      sload\n      dup2\n      0xff\n      mul\n      not\n      and\n      swap1\n      dup4\n      0x05\n      dup2\n      gt\n      iszero\n      tag_37\n      jumpi\n      tag_38\n      tag_21\n      jump\t// in\n    tag_38:\n    tag_37:\n      mul\n      or\n      swap1\n      sstore\n      pop\n      pop\n      pop\n        /* \"contracts/EnumTest.sol\":1021:1428  {\r... */\n      pop\n      pop\n      pop\n        /* \"contracts/EnumTest.sol\":992:1428  function addOrder() external {\r... */\n      jump\t// out\n        /* \"contracts/EnumTest.sol\":930:951  Order[] public orders */\n    tag_15:\n      0x00\n      dup2\n      dup2\n      sload\n      dup2\n      lt\n      tag_39\n      jumpi\n      0x00\n      dup1\n      revert\n    tag_39:\n      swap1\n      0x00\n      mstore\n      keccak256(0x00, 0x20)\n      add\n      0x00\n      swap2\n      pop\n      swap1\n      pop\n      dup1\n      0x00\n      add\n      0x00\n      swap1\n      sload\n      swap1\n      0x0100\n      exp\n      swap1\n      div\n      0xffffffffffffffffffffffffffffffffffffffff\n      and\n      swap1\n      dup1\n      0x00\n      add\n      0x14\n      swap1\n      sload\n      swap1\n      0x0100\n      exp\n      swap1\n      div\n      0xff\n      and\n      swap1\n      pop\n      dup3\n      jump\t// out\n    tag_23:\n      mload(0x40)\n      dup1\n      0x40\n      add\n      0x40\n      mstore\n      dup1\n      and(0xffffffffffffffffffffffffffffffffffffffff, 0x00)\n      dup2\n      mstore\n      0x20\n      add\n      0x00\n      0x05\n      dup2\n      gt\n      iszero\n      tag_41\n      jumpi\n      tag_42\n      tag_21\n      jump\t// in\n    tag_42:\n    tag_41:\n      dup2\n      mstore\n      pop\n      swap1\n      jump\t// out\n        /* \"#utility.yul\":7:146   */\n    tag_44:\n        /* \"#utility.yul\":53:58   */\n      0x00\n        /* \"#utility.yul\":91:97   */\n      dup2\n        /* \"#utility.yul\":78:98   */\n      calldataload\n        /* \"#utility.yul\":69:98   */\n      swap1\n      pop\n        /* \"#utility.yul\":107:140   */\n      tag_46\n        /* \"#utility.yul\":134:139   */\n      dup2\n        /* \"#utility.yul\":107:140   */\n      tag_47\n      jump\t// in\n    tag_46:\n        /* \"#utility.yul\":7:146   */\n      swap3\n      swap2\n      pop\n      pop\n      jump\t// out\n        /* \"#utility.yul\":152:481   */\n    tag_14:\n        /* \"#utility.yul\":211:217   */\n      0x00\n        /* \"#utility.yul\":260:262   */\n      0x20\n        /* \"#utility.yul\":248:257   */\n      dup3\n        /* \"#utility.yul\":239:246   */\n      dup5\n        /* \"#utility.yul\":235:258   */\n      sub\n        /* \"#utility.yul\":231:263   */\n      slt\n        /* \"#utility.yul\":228:347   */\n      iszero\n      tag_49\n      jumpi\n        /* \"#utility.yul\":266:345   */\n      tag_50\n      tag_51\n      jump\t// in\n    tag_50:\n        /* \"#utility.yul\":228:347   */\n    tag_49:\n        /* \"#utility.yul\":386:387   */\n      0x00\n        /* \"#utility.yul\":411:464   */\n      tag_52\n        /* \"#utility.yul\":456:463   */\n      dup5\n        /* \"#utility.yul\":447:453   */\n      dup3\n        /* \"#utility.yul\":436:445   */\n      dup6\n        /* \"#utility.yul\":432:454   */\n      add\n        /* \"#utility.yul\":411:464   */\n      tag_44\n      jump\t// in\n    tag_52:\n        /* \"#utility.yul\":401:464   */\n      swap2\n      pop\n        /* \"#utility.yul\":357:474   */\n      pop\n        /* \"#utility.yul\":152:481   */\n      swap3\n      swap2\n      pop\n      pop\n      jump\t// out\n        /* \"#utility.yul\":487:605   */\n    tag_53:\n        /* \"#utility.yul\":574:598   */\n      tag_55\n        /* \"#utility.yul\":592:597   */\n      dup2\n        /* \"#utility.yul\":574:598   */\n      tag_56\n      jump\t// in\n    tag_55:\n        /* \"#utility.yul\":569:572   */\n      dup3\n        /* \"#utility.yul\":562:599   */\n      mstore\n        /* \"#utility.yul\":487:605   */\n      pop\n      pop\n      jump\t// out\n        /* \"#utility.yul\":611:764   */\n    tag_57:\n        /* \"#utility.yul\":709:757   */\n      tag_59\n        /* \"#utility.yul\":751:756   */\n      dup2\n        /* \"#utility.yul\":709:757   */\n      tag_60\n      jump\t// in\n    tag_59:\n        /* \"#utility.yul\":704:707   */\n      dup3\n        /* \"#utility.yul\":697:758   */\n      mstore\n        /* \"#utility.yul\":611:764   */\n      pop\n      pop\n      jump\t// out\n        /* \"#utility.yul\":770:1124   */\n    tag_17:\n        /* \"#utility.yul\":902:906   */\n      0x00\n        /* \"#utility.yul\":940:942   */\n      0x40\n        /* \"#utility.yul\":929:938   */\n      dup3\n        /* \"#utility.yul\":925:943   */\n      add\n        /* \"#utility.yul\":917:943   */\n      swap1\n      pop\n        /* \"#utility.yul\":953:1024   */\n      tag_62\n        /* \"#utility.yul\":1021:1022   */\n      0x00\n        /* \"#utility.yul\":1010:1019   */\n      dup4\n        /* \"#utility.yul\":1006:1023   */\n      add\n        /* \"#utility.yul\":997:1003   */\n      dup6\n        /* \"#utility.yul\":953:1024   */\n      tag_53\n      jump\t// in\n    tag_62:\n        /* \"#utility.yul\":1034:1117   */\n      tag_63\n        /* \"#utility.yul\":1113:1115   */\n      0x20\n        /* \"#utility.yul\":1102:1111   */\n      dup4\n        /* \"#utility.yul\":1098:1116   */\n      add\n        /* \"#utility.yul\":1089:1095   */\n      dup5\n        /* \"#utility.yul\":1034:1117   */\n      tag_57\n      jump\t// in\n    tag_63:\n        /* \"#utility.yul\":770:1124   */\n      swap4\n      swap3\n      pop\n      pop\n      pop\n      jump\t// out\n        /* \"#utility.yul\":1130:1374   */\n    tag_9:\n        /* \"#utility.yul\":1234:1238   */\n      0x00\n        /* \"#utility.yul\":1272:1274   */\n      0x20\n        /* \"#utility.yul\":1261:1270   */\n      dup3\n        /* \"#utility.yul\":1257:1275   */\n      add\n        /* \"#utility.yul\":1249:1275   */\n      swap1\n      pop\n        /* \"#utility.yul\":1285:1367   */\n      tag_65\n        /* \"#utility.yul\":1364:1365   */\n      0x00\n        /* \"#utility.yul\":1353:1362   */\n      dup4\n        /* \"#utility.yul\":1349:1366   */\n      add\n        /* \"#utility.yul\":1340:1346   */\n      dup5\n        /* \"#utility.yul\":1285:1367   */\n      tag_57\n      jump\t// in\n    tag_65:\n        /* \"#utility.yul\":1130:1374   */\n      swap3\n      swap2\n      pop\n      pop\n      jump\t// out\n        /* \"#utility.yul\":1461:1557   */\n    tag_56:\n        /* \"#utility.yul\":1498:1505   */\n      0x00\n        /* \"#utility.yul\":1527:1551   */\n      tag_69\n        /* \"#utility.yul\":1545:1550   */\n      dup3\n        /* \"#utility.yul\":1527:1551   */\n      tag_70\n      jump\t// in\n    tag_69:\n        /* \"#utility.yul\":1516:1551   */\n      swap1\n      pop\n        /* \"#utility.yul\":1461:1557   */\n      swap2\n      swap1\n      pop\n      jump\t// out\n        /* \"#utility.yul\":1563:1700   */\n    tag_71:\n        /* \"#utility.yul\":1613:1620   */\n      0x00\n        /* \"#utility.yul\":1642:1647   */\n      dup2\n        /* \"#utility.yul\":1631:1647   */\n      swap1\n      pop\n        /* \"#utility.yul\":1648:1694   */\n      tag_73\n        /* \"#utility.yul\":1688:1693   */\n      dup3\n        /* \"#utility.yul\":1648:1694   */\n      tag_74\n      jump\t// in\n    tag_73:\n        /* \"#utility.yul\":1563:1700   */\n      swap2\n      swap1\n      pop\n      jump\t// out\n        /* \"#utility.yul\":1706:1832   */\n    tag_70:\n        /* \"#utility.yul\":1743:1750   */\n      0x00\n        /* \"#utility.yul\":1783:1825   */\n      0xffffffffffffffffffffffffffffffffffffffff\n        /* \"#utility.yul\":1776:1781   */\n      dup3\n        /* \"#utility.yul\":1772:1826   */\n      and\n        /* \"#utility.yul\":1761:1826   */\n      swap1\n      pop\n        /* \"#utility.yul\":1706:1832   */\n      swap2\n      swap1\n      pop\n      jump\t// out\n        /* \"#utility.yul\":1838:1915   */\n    tag_76:\n        /* \"#utility.yul\":1875:1882   */\n      0x00\n        /* \"#utility.yul\":1904:1909   */\n      dup2\n        /* \"#utility.yul\":1893:1909   */\n      swap1\n      pop\n        /* \"#utility.yul\":1838:1915   */\n      swap2\n      swap1\n      pop\n      jump\t// out\n        /* \"#utility.yul\":1921:2058   */\n    tag_60:\n        /* \"#utility.yul\":1982:1991   */\n      0x00\n        /* \"#utility.yul\":2015:2052   */\n      tag_79\n        /* \"#utility.yul\":2046:2051   */\n      dup3\n        /* \"#utility.yul\":2015:2052   */\n      tag_71\n      jump\t// in\n    tag_79:\n        /* \"#utility.yul\":2002:2052   */\n      swap1\n      pop\n        /* \"#utility.yul\":1921:2058   */\n      swap2\n      swap1\n      pop\n      jump\t// out\n        /* \"#utility.yul\":2064:2244   */\n    tag_21:\n        /* \"#utility.yul\":2112:2189   */\n      0x4e487b7100000000000000000000000000000000000000000000000000000000\n        /* \"#utility.yul\":2109:2110   */\n      0x00\n        /* \"#utility.yul\":2102:2190   */\n      mstore\n        /* \"#utility.yul\":2209:2213   */\n      0x21\n        /* \"#utility.yul\":2206:2207   */\n      0x04\n        /* \"#utility.yul\":2199:2214   */\n      mstore\n        /* \"#utility.yul\":2233:2237   */\n      0x24\n        /* \"#utility.yul\":2230:2231   */\n      0x00\n        /* \"#utility.yul\":2223:2238   */\n      revert\n        /* \"#utility.yul\":2373:2490   */\n    tag_51:\n        /* \"#utility.yul\":2482:2483   */\n      0x00\n        /* \"#utility.yul\":2479:2480   */\n      dup1\n        /* \"#utility.yul\":2472:2484   */\n      revert\n        /* \"#utility.yul\":2496:2614   */\n    tag_74:\n        /* \"#utility.yul\":2582:2583   */\n      0x06\n        /* \"#utility.yul\":2575:2580   */\n      dup2\n        /* \"#utility.yul\":2572:2584   */\n      lt\n        /* \"#utility.yul\":2562:2608   */\n      tag_85\n      jumpi\n        /* \"#utility.yul\":2588:2606   */\n      tag_86\n      tag_21\n      jump\t// in\n    tag_86:\n        /* \"#utility.yul\":2562:2608   */\n    tag_85:\n        /* \"#utility.yul\":2496:2614   */\n      pop\n      jump\t// out\n        /* \"#utility.yul\":2620:2742   */\n    tag_47:\n        /* \"#utility.yul\":2693:2717   */\n      tag_88\n        /* \"#utility.yul\":2711:2716   */\n      dup2\n        /* \"#utility.yul\":2693:2717   */\n      tag_76\n      jump\t// in\n    tag_88:\n        /* \"#utility.yul\":2686:2691   */\n      dup2\n        /* \"#utility.yul\":2683:2718   */\n      eq\n        /* \"#utility.yul\":2673:2736   */\n      tag_89\n      jumpi\n        /* \"#utility.yul\":2732:2733   */\n      0x00\n        /* \"#utility.yul\":2729:2730   */\n      dup1\n        /* \"#utility.yul\":2722:2734   */\n      revert\n        /* \"#utility.yul\":2673:2736   */\n    tag_89:\n        /* \"#utility.yul\":2620:2742   */\n      pop\n      jump\t// out\n\n    auxdata: 0xa2646970667358221220b7ee1ed7cc00ddfca667237197e14db5a926221ef313e03057bd60305b75240664736f6c63430008070033\n}\n",
				"bytecode": {
					"linkReferences": {},
					"object": "608060405234801561001057600080fd5b506105c9806100206000396000f3fe608060405234801561001057600080fd5b50600436106100415760003560e01c8063200d2ed2146100465780632035a26414610064578063a85c38ef1461006e575b600080fd5b61004e61009f565b60405161005b91906104b8565b60405180910390f35b61006c6100b2565b005b61008860048036038101906100839190610444565b610390565b60405161009692919061048f565b60405180910390f35b600160009054906101000a900460ff1681565b600060405180604001604052803373ffffffffffffffffffffffffffffffffffffffff168152602001600160058111156100ef576100ee610534565b5b81525090506100fc6103ed565b6002816000019073ffffffffffffffffffffffffffffffffffffffff16908173ffffffffffffffffffffffffffffffffffffffff168152505060038160200190600581111561014e5761014d610534565b5b9081600581111561016257610161610534565b5b8152505060006040518060400160405280600373ffffffffffffffffffffffffffffffffffffffff1681526020016005808111156101a3576101a2610534565b5b81525090506000839080600181540180825580915050600190039060005260206000200160009091909190915060008201518160000160006101000a81548173ffffffffffffffffffffffffffffffffffffffff021916908373ffffffffffffffffffffffffffffffffffffffff16021790555060208201518160000160146101000a81548160ff0219169083600581111561024257610241610534565b5b021790555050506000829080600181540180825580915050600190039060005260206000200160009091909190915060008201518160000160006101000a81548173ffffffffffffffffffffffffffffffffffffffff021916908373ffffffffffffffffffffffffffffffffffffffff16021790555060208201518160000160146101000a81548160ff021916908360058111156102e3576102e2610534565b5b021790555050506000819080600181540180825580915050600190039060005260206000200160009091909190915060008201518160000160006101000a81548173ffffffffffffffffffffffffffffffffffffffff021916908373ffffffffffffffffffffffffffffffffffffffff16021790555060208201518160000160146101000a81548160ff0219169083600581111561038457610383610534565b5b02179055505050505050565b600081815481106103a057600080fd5b906000526020600020016000915090508060000160009054906101000a900473ffffffffffffffffffffffffffffffffffffffff16908060000160149054906101000a900460ff16905082565b6040518060400160405280600073ffffffffffffffffffffffffffffffffffffffff1681526020016000600581111561042957610428610534565b5b81525090565b60008135905061043e8161057c565b92915050565b60006020828403121561045a57610459610563565b5b60006104688482850161042f565b91505092915050565b61047a816104d3565b82525050565b61048981610522565b82525050565b60006040820190506104a46000830185610471565b6104b16020830184610480565b9392505050565b60006020820190506104cd6000830184610480565b92915050565b60006104de826104f8565b9050919050565b60008190506104f382610568565b919050565b600073ffffffffffffffffffffffffffffffffffffffff82169050919050565b6000819050919050565b600061052d826104e5565b9050919050565b7f4e487b7100000000000000000000000000000000000000000000000000000000600052602160045260246000fd5b600080fd5b6006811061057957610578610534565b5b50565b61058581610518565b811461059057600080fd5b5056fea2646970667358221220b7ee1ed7cc00ddfca667237197e14db5a926221ef313e03057bd60305b75240664736f6c63430008070033",
					"opcodes": "PUSH1 0x80 PUSH1 0x40 MSTORE CALLVALUE DUP1 ISZERO PUSH2 0x10 JUMPI PUSH1 0x0 DUP1 REVERT JUMPDEST POP PUSH2 0x5C9 DUP1 PUSH2 0x20 PUSH1 0x0 CODECOPY PUSH1 0x0 RETURN INVALID PUSH1 0x80 PUSH1 0x40 MSTORE CALLVALUE DUP1 ISZERO PUSH2 0x10 JUMPI PUSH1 0x0 DUP1 REVERT JUMPDEST POP PUSH1 0x4 CALLDATASIZE LT PUSH2 0x41 JUMPI PUSH1 0x0 CALLDATALOAD PUSH1 0xE0 SHR DUP1 PUSH4 0x200D2ED2 EQ PUSH2 0x46 JUMPI DUP1 PUSH4 0x2035A264 EQ PUSH2 0x64 JUMPI DUP1 PUSH4 0xA85C38EF EQ PUSH2 0x6E JUMPI JUMPDEST PUSH1 0x0 DUP1 REVERT JUMPDEST PUSH2 0x4E PUSH2 0x9F JUMP JUMPDEST PUSH1 0x40 MLOAD PUSH2 0x5B SWAP2 SWAP1 PUSH2 0x4B8 JUMP JUMPDEST PUSH1 0x40 MLOAD DUP1 SWAP2 SUB SWAP1 RETURN JUMPDEST PUSH2 0x6C PUSH2 0xB2 JUMP JUMPDEST STOP JUMPDEST PUSH2 0x88 PUSH1 0x4 DUP1 CALLDATASIZE SUB DUP2 ADD SWAP1 PUSH2 0x83 SWAP2 SWAP1 PUSH2 0x444 JUMP JUMPDEST PUSH2 0x390 JUMP JUMPDEST PUSH1 0x40 MLOAD PUSH2 0x96 SWAP3 SWAP2 SWAP1 PUSH2 0x48F JUMP JUMPDEST PUSH1 0x40 MLOAD DUP1 SWAP2 SUB SWAP1 RETURN JUMPDEST PUSH1 0x1 PUSH1 0x0 SWAP1 SLOAD SWAP1 PUSH2 0x100 EXP SWAP1 DIV PUSH1 0xFF AND DUP2 JUMP JUMPDEST PUSH1 0x0 PUSH1 0x40 MLOAD DUP1 PUSH1 0x40 ADD PUSH1 0x40 MSTORE DUP1 CALLER PUSH20 0xFFFFFFFFFFFFFFFFFFFFFFFFFFFFFFFFFFFFFFFF AND DUP2 MSTORE PUSH1 0x20 ADD PUSH1 0x1 PUSH1 0x5 DUP2 GT ISZERO PUSH2 0xEF JUMPI PUSH2 0xEE PUSH2 0x534 JUMP JUMPDEST JUMPDEST DUP2 MSTORE POP SWAP1 POP PUSH2 0xFC PUSH2 0x3ED JUMP JUMPDEST PUSH1 0x2 DUP2 PUSH1 0x0 ADD SWAP1 PUSH20 0xFFFFFFFFFFFFFFFFFFFFFFFFFFFFFFFFFFFFFFFF AND SWAP1 DUP2 PUSH20 0xFFFFFFFFFFFFFFFFFFFFFFFFFFFFFFFFFFFFFFFF AND DUP2 MSTORE POP POP PUSH1 0x3 DUP2 PUSH1 0x20 ADD SWAP1 PUSH1 0x5 DUP2 GT ISZERO PUSH2 0x14E JUMPI PUSH2 0x14D PUSH2 0x534 JUMP JUMPDEST JUMPDEST SWAP1 DUP2 PUSH1 0x5 DUP2 GT ISZERO PUSH2 0x162 JUMPI PUSH2 0x161 PUSH2 0x534 JUMP JUMPDEST JUMPDEST DUP2 MSTORE POP POP PUSH1 0x0 PUSH1 0x40 MLOAD DUP1 PUSH1 0x40 ADD PUSH1 0x40 MSTORE DUP1 PUSH1 0x3 PUSH20 0xFFFFFFFFFFFFFFFFFFFFFFFFFFFFFFFFFFFFFFFF AND DUP2 MSTORE PUSH1 0x20 ADD PUSH1 0x5 DUP1 DUP2 GT ISZERO PUSH2 0x1A3 JUMPI PUSH2 0x1A2 PUSH2 0x534 JUMP JUMPDEST JUMPDEST DUP2 MSTORE POP SWAP1 POP PUSH1 0x0 DUP4 SWAP1 DUP1 PUSH1 0x1 DUP2 SLOAD ADD DUP1 DUP3 SSTORE DUP1 SWAP2 POP POP PUSH1 0x1 SWAP1 SUB SWAP1 PUSH1 0x0 MSTORE PUSH1 0x20 PUSH1 0x0 KECCAK256 ADD PUSH1 0x0 SWAP1 SWAP2 SWAP1 SWAP2 SWAP1 SWAP2 POP PUSH1 0x0 DUP3 ADD MLOAD DUP2 PUSH1 0x0 ADD PUSH1 0x0 PUSH2 0x100 EXP DUP2 SLOAD DUP2 PUSH20 0xFFFFFFFFFFFFFFFFFFFFFFFFFFFFFFFFFFFFFFFF MUL NOT AND SWAP1 DUP4 PUSH20 0xFFFFFFFFFFFFFFFFFFFFFFFFFFFFFFFFFFFFFFFF AND MUL OR SWAP1 SSTORE POP PUSH1 0x20 DUP3 ADD MLOAD DUP2 PUSH1 0x0 ADD PUSH1 0x14 PUSH2 0x100 EXP DUP2 SLOAD DUP2 PUSH1 0xFF MUL NOT AND SWAP1 DUP4 PUSH1 0x5 DUP2 GT ISZERO PUSH2 0x242 JUMPI PUSH2 0x241 PUSH2 0x534 JUMP JUMPDEST JUMPDEST MUL OR SWAP1 SSTORE POP POP POP PUSH1 0x0 DUP3 SWAP1 DUP1 PUSH1 0x1 DUP2 SLOAD ADD DUP1 DUP3 SSTORE DUP1 SWAP2 POP POP PUSH1 0x1 SWAP1 SUB SWAP1 PUSH1 0x0 MSTORE PUSH1 0x20 PUSH1 0x0 KECCAK256 ADD PUSH1 0x0 SWAP1 SWAP2 SWAP1 SWAP2 SWAP1 SWAP2 POP PUSH1 0x0 DUP3 ADD MLOAD DUP2 PUSH1 0x0 ADD PUSH1 0x0 PUSH2 0x100 EXP DUP2 SLOAD DUP2 PUSH20 0xFFFFFFFFFFFFFFFFFFFFFFFFFFFFFFFFFFFFFFFF MUL NOT AND SWAP1 DUP4 PUSH20 0xFFFFFFFFFFFFFFFFFFFFFFFFFFFFFFFFFFFFFFFF AND MUL OR SWAP1 SSTORE POP PUSH1 0x20 DUP3 ADD MLOAD DUP2 PUSH1 0x0 ADD PUSH1 0x14 PUSH2 0x100 EXP DUP2 SLOAD DUP2 PUSH1 0xFF MUL NOT AND SWAP1 DUP4 PUSH1 0x5 DUP2 GT ISZERO PUSH2 0x2E3 JUMPI PUSH2 0x2E2 PUSH2 0x534 JUMP JUMPDEST JUMPDEST MUL OR SWAP1 SSTORE POP POP POP PUSH1 0x0 DUP2 SWAP1 DUP1 PUSH1 0x1 DUP2 SLOAD ADD DUP1 DUP3 SSTORE DUP1 SWAP2 POP POP PUSH1 0x1 SWAP1 SUB SWAP1 PUSH1 0x0 MSTORE PUSH1 0x20 PUSH1 0x0 KECCAK256 ADD PUSH1 0x0 SWAP1 SWAP2 SWAP1 SWAP2 SWAP1 SWAP2 POP PUSH1 0x0 DUP3 ADD MLOAD DUP2 PUSH1 0x0 ADD PUSH1 0x0 PUSH2 0x100 EXP DUP2 SLOAD DUP2 PUSH20 0xFFFFFFFFFFFFFFFFFFFFFFFFFFFFFFFFFFFFFFFF MUL NOT AND SWAP1 DUP4 PUSH20 0xFFFFFFFFFFFFFFFFFFFFFFFFFFFFFFFFFFFFFFFF AND MUL OR SWAP1 SSTORE POP PUSH1 0x20 DUP3 ADD MLOAD DUP2 PUSH1 0x0 ADD PUSH1 0x14 PUSH2 0x100 EXP DUP2 SLOAD DUP2 PUSH1 0xFF MUL NOT AND SWAP1 DUP4 PUSH1 0x5 DUP2 GT ISZERO PUSH2 0x384 JUMPI PUSH2 0x383 PUSH2 0x534 JUMP JUMPDEST JUMPDEST MUL OR SWAP1 SSTORE POP POP POP POP POP POP JUMP JUMPDEST PUSH1 0x0 DUP2 DUP2 SLOAD DUP2 LT PUSH2 0x3A0 JUMPI PUSH1 0x0 DUP1 REVERT JUMPDEST SWAP1 PUSH1 0x0 MSTORE PUSH1 0x20 PUSH1 0x0 KECCAK256 ADD PUSH1 0x0 SWAP2 POP SWAP1 POP DUP1 PUSH1 0x0 ADD PUSH1 0x0 SWAP1 SLOAD SWAP1 PUSH2 0x100 EXP SWAP1 DIV PUSH20 0xFFFFFFFFFFFFFFFFFFFFFFFFFFFFFFFFFFFFFFFF AND SWAP1 DUP1 PUSH1 0x0 ADD PUSH1 0x14 SWAP1 SLOAD SWAP1 PUSH2 0x100 EXP SWAP1 DIV PUSH1 0xFF AND SWAP1 POP DUP3 JUMP JUMPDEST PUSH1 0x40 MLOAD DUP1 PUSH1 0x40 ADD PUSH1 0x40 MSTORE DUP1 PUSH1 0x0 PUSH20 0xFFFFFFFFFFFFFFFFFFFFFFFFFFFFFFFFFFFFFFFF AND DUP2 MSTORE PUSH1 0x20 ADD PUSH1 0x0 PUSH1 0x5 DUP2 GT ISZERO PUSH2 0x429 JUMPI PUSH2 0x428 PUSH2 0x534 JUMP JUMPDEST JUMPDEST DUP2 MSTORE POP SWAP1 JUMP JUMPDEST PUSH1 0x0 DUP2 CALLDATALOAD SWAP1 POP PUSH2 0x43E DUP2 PUSH2 0x57C JUMP JUMPDEST SWAP3 SWAP2 POP POP JUMP JUMPDEST PUSH1 0x0 PUSH1 0x20 DUP3 DUP5 SUB SLT ISZERO PUSH2 0x45A JUMPI PUSH2 0x459 PUSH2 0x563 JUMP JUMPDEST JUMPDEST PUSH1 0x0 PUSH2 0x468 DUP5 DUP3 DUP6 ADD PUSH2 0x42F JUMP JUMPDEST SWAP2 POP POP SWAP3 SWAP2 POP POP JUMP JUMPDEST PUSH2 0x47A DUP2 PUSH2 0x4D3 JUMP JUMPDEST DUP3 MSTORE POP POP JUMP JUMPDEST PUSH2 0x489 DUP2 PUSH2 0x522 JUMP JUMPDEST DUP3 MSTORE POP POP JUMP JUMPDEST PUSH1 0x0 PUSH1 0x40 DUP3 ADD SWAP1 POP PUSH2 0x4A4 PUSH1 0x0 DUP4 ADD DUP6 PUSH2 0x471 JUMP JUMPDEST PUSH2 0x4B1 PUSH1 0x20 DUP4 ADD DUP5 PUSH2 0x480 JUMP JUMPDEST SWAP4 SWAP3 POP POP POP JUMP JUMPDEST PUSH1 0x0 PUSH1 0x20 DUP3 ADD SWAP1 POP PUSH2 0x4CD PUSH1 0x0 DUP4 ADD DUP5 PUSH2 0x480 JUMP JUMPDEST SWAP3 SWAP2 POP POP JUMP JUMPDEST PUSH1 0x0 PUSH2 0x4DE DUP3 PUSH2 0x4F8 JUMP JUMPDEST SWAP1 POP SWAP2 SWAP1 POP JUMP JUMPDEST PUSH1 0x0 DUP2 SWAP1 POP PUSH2 0x4F3 DUP3 PUSH2 0x568 JUMP JUMPDEST SWAP2 SWAP1 POP JUMP JUMPDEST PUSH1 0x0 PUSH20 0xFFFFFFFFFFFFFFFFFFFFFFFFFFFFFFFFFFFFFFFF DUP3 AND SWAP1 POP SWAP2 SWAP1 POP JUMP JUMPDEST PUSH1 0x0 DUP2 SWAP1 POP SWAP2 SWAP1 POP JUMP JUMPDEST PUSH1 0x0 PUSH2 0x52D DUP3 PUSH2 0x4E5 JUMP JUMPDEST SWAP1 POP SWAP2 SWAP1 POP JUMP JUMPDEST PUSH32 0x4E487B7100000000000000000000000000000000000000000000000000000000 PUSH1 0x0 MSTORE PUSH1 0x21 PUSH1 0x4 MSTORE PUSH1 0x24 PUSH1 0x0 REVERT JUMPDEST PUSH1 0x0 DUP1 REVERT JUMPDEST PUSH1 0x6 DUP2 LT PUSH2 0x579 JUMPI PUSH2 0x578 PUSH2 0x534 JUMP JUMPDEST JUMPDEST POP JUMP JUMPDEST PUSH2 0x585 DUP2 PUSH2 0x518 JUMP JUMPDEST DUP2 EQ PUSH2 0x590 JUMPI PUSH1 0x0 DUP1 REVERT JUMPDEST POP JUMP INVALID LOG2 PUSH5 0x6970667358 0x22 SLT KECCAK256 0xB7 0xEE 0x1E 0xD7 0xCC STOP 0xDD 0xFC 0xA6 PUSH8 0x237197E14DB5A926 0x22 0x1E RETURN SGT 0xE0 ADDRESS JUMPI 0xBD PUSH1 0x30 JUMPDEST PUSH22 0x240664736F6C63430008070033000000000000000000 "
				},
				"gasEstimates": {
					"creation": {
						"codeDepositCost": "296200",
						"executionCost": "337",
						"totalCost": "296537"
					},
					"external": {
						"addOrder()": "219468",
						"orders(uint256)": "7396",
						"status()": "2538"
					}
				},
				"methodIdentifiers": {
					"addOrder()": "2035a264",
					"orders(uint256)": "a85c38ef",
					"status()": "200d2ed2"
				}
			},
			"storageLayout": {
				"storage": [
					{
						"astId": 18,
						"contract": "contracts/EnumTest.sol:Enum",
						"label": "orders",
						"offset": 0,
						"slot": "0",
						"type": "t_array(t_struct(Order)14_storage)dyn_storage"
					},
					{
						"astId": 21,
						"contract": "contracts/EnumTest.sol:Enum",
						"label": "status",
						"offset": 0,
						"slot": "1",
						"type": "t_enum(OrderStatus)8"
					}
				],
				"types": {
					"t_address": {
						"encoding": "inplace",
						"label": "address",
						"numberOfBytes": "20"
					},
					"t_array(t_struct(Order)14_storage)dyn_storage": {
						"base": "t_struct(Order)14_storage",
						"encoding": "dynamic_array",
						"label": "struct Enum.Order[]",
						"numberOfBytes": "32"
					},
					"t_enum(OrderStatus)8": {
						"encoding": "inplace",
						"label": "enum Enum.OrderStatus",
						"numberOfBytes": "1"
					},
					"t_struct(Order)14_storage": {
						"encoding": "inplace",
						"label": "struct Enum.Order",
						"members": [
							{
								"astId": 10,
								"contract": "contracts/EnumTest.sol:Enum",
								"label": "buyer",
								"offset": 0,
								"slot": "0",
								"type": "t_address"
							},
							{
								"astId": 13,
								"contract": "contracts/EnumTest.sol:Enum",
								"label": "status",
								"offset": 20,
								"slot": "0",
								"type": "t_enum(OrderStatus)8"
							}
						],
						"numberOfBytes": "32"
					}
				}
			},
			"userdoc": {
				"kind": "user",
				"methods": {},
				"version": 1
			}
		}
	}
}