{
	"contracts/024Enum.sol": {
		"Enum": {
			"abi": [
				{
					"inputs": [],
					"name": "finish",
					"outputs": [],
					"stateMutability": "nonpayable",
					"type": "function"
				},
				{
					"inputs": [],
					"name": "get",
					"outputs": [
						{
							"internalType": "enum Enum.Status",
							"name": "",
							"type": "uint8"
						}
					],
					"stateMutability": "view",
					"type": "function"
				},
				{
					"inputs": [],
					"name": "reset",
					"outputs": [],
					"stateMutability": "nonpayable",
					"type": "function"
				},
				{
					"inputs": [
						{
							"internalType": "enum Enum.Status",
							"name": "_status",
							"type": "uint8"
						}
					],
					"name": "set",
					"outputs": [],
					"stateMutability": "nonpayable",
					"type": "function"
				},
				{
					"inputs": [],
					"name": "status",
					"outputs": [
						{
							"internalType": "enum Enum.Status",
							"name": "",
							"type": "uint8"
						}
					],
					"stateMutability": "view",
					"type": "function"
				}
			],
			"devdoc": {
				"kind": "dev",
				"methods": {},
				"version": 1
			},
			"evm": {
				"assembly": "    /* \"contracts/024Enum.sol\":56:591  contract Enum {... */\n  mstore(0x40, 0x80)\n  callvalue\n  dup1\n  iszero\n  tag_1\n  jumpi\n  0x00\n  dup1\n  revert\ntag_1:\n  pop\n  dataSize(sub_0)\n  dup1\n  dataOffset(sub_0)\n  0x00\n  codecopy\n  0x00\n  return\nstop\n\nsub_0: assembly {\n        /* \"contracts/024Enum.sol\":56:591  contract Enum {... */\n      mstore(0x40, 0x80)\n      callvalue\n      dup1\n      iszero\n      tag_1\n      jumpi\n      0x00\n      dup1\n      revert\n    tag_1:\n      pop\n      jumpi(tag_2, lt(calldatasize, 0x04))\n      shr(0xe0, calldataload(0x00))\n      dup1\n      0x200d2ed2\n      eq\n      tag_3\n      jumpi\n      dup1\n      0x24b8ba5f\n      eq\n      tag_4\n      jumpi\n      dup1\n      0x6d4ce63c\n      eq\n      tag_5\n      jumpi\n      dup1\n      0xd56b2889\n      eq\n      tag_6\n      jumpi\n      dup1\n      0xd826f88f\n      eq\n      tag_7\n      jumpi\n    tag_2:\n      0x00\n      dup1\n      revert\n        /* \"contracts/024Enum.sol\":76:96  Status public status */\n    tag_3:\n      tag_8\n      tag_9\n      jump\t// in\n    tag_8:\n      mload(0x40)\n      tag_10\n      swap2\n      swap1\n      tag_11\n      jump\t// in\n    tag_10:\n      mload(0x40)\n      dup1\n      swap2\n      sub\n      swap1\n      return\n        /* \"contracts/024Enum.sol\":383:452  function set(Status _status) external {... */\n    tag_4:\n      tag_12\n      0x04\n      dup1\n      calldatasize\n      sub\n      dup2\n      add\n      swap1\n      tag_13\n      swap2\n      swap1\n      tag_14\n      jump\t// in\n    tag_13:\n      tag_15\n      jump\t// in\n    tag_12:\n      stop\n        /* \"contracts/024Enum.sol\":301:377  function get() external view returns (Status) {... */\n    tag_5:\n      tag_16\n      tag_17\n      jump\t// in\n    tag_16:\n      mload(0x40)\n      tag_18\n      swap2\n      swap1\n      tag_11\n      jump\t// in\n    tag_18:\n      mload(0x40)\n      dup1\n      swap2\n      sub\n      swap1\n      return\n        /* \"contracts/024Enum.sol\":458:527  function finish() external {... */\n    tag_6:\n      tag_19\n      tag_20\n      jump\t// in\n    tag_19:\n      stop\n        /* \"contracts/024Enum.sol\":533:589  function reset() external {... */\n    tag_7:\n      tag_21\n      tag_22\n      jump\t// in\n    tag_21:\n      stop\n        /* \"contracts/024Enum.sol\":76:96  Status public status */\n    tag_9:\n      0x00\n      dup1\n      sload\n      swap1\n      0x0100\n      exp\n      swap1\n      div\n      0xff\n      and\n      dup2\n      jump\t// out\n        /* \"contracts/024Enum.sol\":383:452  function set(Status _status) external {... */\n    tag_15:\n        /* \"contracts/024Enum.sol\":438:445  _status */\n      dup1\n        /* \"contracts/024Enum.sol\":431:437  status */\n      0x00\n      dup1\n        /* \"contracts/024Enum.sol\":431:445  status=_status */\n      0x0100\n      exp\n      dup2\n      sload\n      dup2\n      0xff\n      mul\n      not\n      and\n      swap1\n      dup4\n      0x05\n      dup2\n      gt\n      iszero\n      tag_24\n      jumpi\n      tag_25\n      tag_26\n      jump\t// in\n    tag_25:\n    tag_24:\n      mul\n      or\n      swap1\n      sstore\n      pop\n        /* \"contracts/024Enum.sol\":383:452  function set(Status _status) external {... */\n      pop\n      jump\t// out\n        /* \"contracts/024Enum.sol\":301:377  function get() external view returns (Status) {... */\n    tag_17:\n        /* \"contracts/024Enum.sol\":339:345  Status */\n      0x00\n        /* \"contracts/024Enum.sol\":364:370  status */\n      dup1\n      0x00\n      swap1\n      sload\n      swap1\n      0x0100\n      exp\n      swap1\n      div\n      0xff\n      and\n        /* \"contracts/024Enum.sol\":357:370  return status */\n      swap1\n      pop\n        /* \"contracts/024Enum.sol\":301:377  function get() external view returns (Status) {... */\n      swap1\n      jump\t// out\n        /* \"contracts/024Enum.sol\":458:527  function finish() external {... */\n    tag_20:\n        /* \"contracts/024Enum.sol\":504:520  Status.completed */\n      0x04\n        /* \"contracts/024Enum.sol\":495:501  status */\n      0x00\n      dup1\n        /* \"contracts/024Enum.sol\":495:520  status = Status.completed */\n      0x0100\n      exp\n      dup2\n      sload\n      dup2\n      0xff\n      mul\n      not\n      and\n      swap1\n      dup4\n      0x05\n      dup2\n      gt\n      iszero\n      tag_29\n      jumpi\n      tag_30\n      tag_26\n      jump\t// in\n    tag_30:\n    tag_29:\n      mul\n      or\n      swap1\n      sstore\n      pop\n        /* \"contracts/024Enum.sol\":458:527  function finish() external {... */\n      jump\t// out\n        /* \"contracts/024Enum.sol\":533:589  function reset() external {... */\n    tag_22:\n        /* \"contracts/024Enum.sol\":576:582  status */\n      0x00\n      dup1\n        /* \"contracts/024Enum.sol\":569:582  delete status */\n      0x0100\n      exp\n      dup2\n      sload\n      swap1\n      0xff\n      mul\n      not\n      and\n      swap1\n      sstore\n        /* \"contracts/024Enum.sol\":533:589  function reset() external {... */\n      jump\t// out\n        /* \"#utility.yul\":7:164   */\n    tag_33:\n        /* \"#utility.yul\":62:67   */\n      0x00\n        /* \"#utility.yul\":100:106   */\n      dup2\n        /* \"#utility.yul\":87:107   */\n      calldataload\n        /* \"#utility.yul\":78:107   */\n      swap1\n      pop\n        /* \"#utility.yul\":116:158   */\n      tag_35\n        /* \"#utility.yul\":152:157   */\n      dup2\n        /* \"#utility.yul\":116:158   */\n      tag_36\n      jump\t// in\n    tag_35:\n        /* \"#utility.yul\":7:164   */\n      swap3\n      swap2\n      pop\n      pop\n      jump\t// out\n        /* \"#utility.yul\":170:517   */\n    tag_14:\n        /* \"#utility.yul\":238:244   */\n      0x00\n        /* \"#utility.yul\":287:289   */\n      0x20\n        /* \"#utility.yul\":275:284   */\n      dup3\n        /* \"#utility.yul\":266:273   */\n      dup5\n        /* \"#utility.yul\":262:285   */\n      sub\n        /* \"#utility.yul\":258:290   */\n      slt\n        /* \"#utility.yul\":255:374   */\n      iszero\n      tag_38\n      jumpi\n        /* \"#utility.yul\":293:372   */\n      tag_39\n      tag_40\n      jump\t// in\n    tag_39:\n        /* \"#utility.yul\":255:374   */\n    tag_38:\n        /* \"#utility.yul\":413:414   */\n      0x00\n        /* \"#utility.yul\":438:500   */\n      tag_41\n        /* \"#utility.yul\":492:499   */\n      dup5\n        /* \"#utility.yul\":483:489   */\n      dup3\n        /* \"#utility.yul\":472:481   */\n      dup6\n        /* \"#utility.yul\":468:490   */\n      add\n        /* \"#utility.yul\":438:500   */\n      tag_33\n      jump\t// in\n    tag_41:\n        /* \"#utility.yul\":428:500   */\n      swap2\n      pop\n        /* \"#utility.yul\":384:510   */\n      pop\n        /* \"#utility.yul\":170:517   */\n      swap3\n      swap2\n      pop\n      pop\n      jump\t// out\n        /* \"#utility.yul\":523:668   */\n    tag_42:\n        /* \"#utility.yul\":617:661   */\n      tag_44\n        /* \"#utility.yul\":655:660   */\n      dup2\n        /* \"#utility.yul\":617:661   */\n      tag_45\n      jump\t// in\n    tag_44:\n        /* \"#utility.yul\":612:615   */\n      dup3\n        /* \"#utility.yul\":605:662   */\n      mstore\n        /* \"#utility.yul\":523:668   */\n      pop\n      pop\n      jump\t// out\n        /* \"#utility.yul\":674:910   */\n    tag_11:\n        /* \"#utility.yul\":774:778   */\n      0x00\n        /* \"#utility.yul\":812:814   */\n      0x20\n        /* \"#utility.yul\":801:810   */\n      dup3\n        /* \"#utility.yul\":797:815   */\n      add\n        /* \"#utility.yul\":789:815   */\n      swap1\n      pop\n        /* \"#utility.yul\":825:903   */\n      tag_47\n        /* \"#utility.yul\":900:901   */\n      0x00\n        /* \"#utility.yul\":889:898   */\n      dup4\n        /* \"#utility.yul\":885:902   */\n      add\n        /* \"#utility.yul\":876:882   */\n      dup5\n        /* \"#utility.yul\":825:903   */\n      tag_42\n      jump\t// in\n    tag_47:\n        /* \"#utility.yul\":674:910   */\n      swap3\n      swap2\n      pop\n      pop\n      jump\t// out\n        /* \"#utility.yul\":997:1126   */\n    tag_50:\n        /* \"#utility.yul\":1043:1050   */\n      0x00\n        /* \"#utility.yul\":1072:1077   */\n      dup2\n        /* \"#utility.yul\":1061:1077   */\n      swap1\n      pop\n        /* \"#utility.yul\":1078:1120   */\n      tag_52\n        /* \"#utility.yul\":1114:1119   */\n      dup3\n        /* \"#utility.yul\":1078:1120   */\n      tag_53\n      jump\t// in\n    tag_52:\n        /* \"#utility.yul\":997:1126   */\n      swap2\n      swap1\n      pop\n      jump\t// out\n        /* \"#utility.yul\":1132:1261   */\n    tag_45:\n        /* \"#utility.yul\":1189:1198   */\n      0x00\n        /* \"#utility.yul\":1222:1255   */\n      tag_55\n        /* \"#utility.yul\":1249:1254   */\n      dup3\n        /* \"#utility.yul\":1222:1255   */\n      tag_50\n      jump\t// in\n    tag_55:\n        /* \"#utility.yul\":1209:1255   */\n      swap1\n      pop\n        /* \"#utility.yul\":1132:1261   */\n      swap2\n      swap1\n      pop\n      jump\t// out\n        /* \"#utility.yul\":1267:1447   */\n    tag_26:\n        /* \"#utility.yul\":1315:1392   */\n      0x4e487b7100000000000000000000000000000000000000000000000000000000\n        /* \"#utility.yul\":1312:1313   */\n      0x00\n        /* \"#utility.yul\":1305:1393   */\n      mstore\n        /* \"#utility.yul\":1412:1416   */\n      0x21\n        /* \"#utility.yul\":1409:1410   */\n      0x04\n        /* \"#utility.yul\":1402:1417   */\n      mstore\n        /* \"#utility.yul\":1436:1440   */\n      0x24\n        /* \"#utility.yul\":1433:1434   */\n      0x00\n        /* \"#utility.yul\":1426:1441   */\n      revert\n        /* \"#utility.yul\":1576:1693   */\n    tag_40:\n        /* \"#utility.yul\":1685:1686   */\n      0x00\n        /* \"#utility.yul\":1682:1683   */\n      dup1\n        /* \"#utility.yul\":1675:1687   */\n      revert\n        /* \"#utility.yul\":1699:1813   */\n    tag_53:\n        /* \"#utility.yul\":1781:1782   */\n      0x06\n        /* \"#utility.yul\":1774:1779   */\n      dup2\n        /* \"#utility.yul\":1771:1783   */\n      lt\n        /* \"#utility.yul\":1761:1807   */\n      tag_61\n      jumpi\n        /* \"#utility.yul\":1787:1805   */\n      tag_62\n      tag_26\n      jump\t// in\n    tag_62:\n        /* \"#utility.yul\":1761:1807   */\n    tag_61:\n        /* \"#utility.yul\":1699:1813   */\n      pop\n      jump\t// out\n        /* \"#utility.yul\":1819:1927   */\n    tag_36:\n        /* \"#utility.yul\":1901:1902   */\n      0x06\n        /* \"#utility.yul\":1894:1899   */\n      dup2\n        /* \"#utility.yul\":1891:1903   */\n      lt\n        /* \"#utility.yul\":1881:1921   */\n      tag_64\n      jumpi\n        /* \"#utility.yul\":1917:1918   */\n      0x00\n        /* \"#utility.yul\":1914:1915   */\n      dup1\n        /* \"#utility.yul\":1907:1919   */\n      revert\n        /* \"#utility.yul\":1881:1921   */\n    tag_64:\n        /* \"#utility.yul\":1819:1927   */\n      pop\n      jump\t// out\n\n    auxdata: 0xa264697066735822122094e1f0a7e3bb32f3f99f3938b409f7423a1703a06ac01dc38367f9246fed385964736f6c63430008070033\n}\n",
				"bytecode": {
					"linkReferences": {},
					"object": "608060405234801561001057600080fd5b50610279806100206000396000f3fe608060405234801561001057600080fd5b50600436106100575760003560e01c8063200d2ed21461005c57806324b8ba5f1461007a5780636d4ce63c14610096578063d56b2889146100b4578063d826f88f146100be575b600080fd5b6100646100c8565b60405161007191906101ab565b60405180910390f35b610094600480360381019061008f919061016f565b6100d9565b005b61009e610105565b6040516100ab91906101ab565b60405180910390f35b6100bc61011b565b005b6100c6610147565b005b60008054906101000a900460ff1681565b806000806101000a81548160ff021916908360058111156100fd576100fc6101eb565b5b021790555050565b60008060009054906101000a900460ff16905090565b60046000806101000a81548160ff021916908360058111156101405761013f6101eb565b5b0217905550565b6000806101000a81549060ff0219169055565b60008135905061016981610233565b92915050565b6000602082840312156101855761018461021a565b5b60006101938482850161015a565b91505092915050565b6101a5816101d9565b82525050565b60006020820190506101c0600083018461019c565b92915050565b60008190506101d48261021f565b919050565b60006101e4826101c6565b9050919050565b7f4e487b7100000000000000000000000000000000000000000000000000000000600052602160045260246000fd5b600080fd5b600681106102305761022f6101eb565b5b50565b6006811061024057600080fd5b5056fea264697066735822122094e1f0a7e3bb32f3f99f3938b409f7423a1703a06ac01dc38367f9246fed385964736f6c63430008070033",
					"opcodes": "PUSH1 0x80 PUSH1 0x40 MSTORE CALLVALUE DUP1 ISZERO PUSH2 0x10 JUMPI PUSH1 0x0 DUP1 REVERT JUMPDEST POP PUSH2 0x279 DUP1 PUSH2 0x20 PUSH1 0x0 CODECOPY PUSH1 0x0 RETURN INVALID PUSH1 0x80 PUSH1 0x40 MSTORE CALLVALUE DUP1 ISZERO PUSH2 0x10 JUMPI PUSH1 0x0 DUP1 REVERT JUMPDEST POP PUSH1 0x4 CALLDATASIZE LT PUSH2 0x57 JUMPI PUSH1 0x0 CALLDATALOAD PUSH1 0xE0 SHR DUP1 PUSH4 0x200D2ED2 EQ PUSH2 0x5C JUMPI DUP1 PUSH4 0x24B8BA5F EQ PUSH2 0x7A JUMPI DUP1 PUSH4 0x6D4CE63C EQ PUSH2 0x96 JUMPI DUP1 PUSH4 0xD56B2889 EQ PUSH2 0xB4 JUMPI DUP1 PUSH4 0xD826F88F EQ PUSH2 0xBE JUMPI JUMPDEST PUSH1 0x0 DUP1 REVERT JUMPDEST PUSH2 0x64 PUSH2 0xC8 JUMP JUMPDEST PUSH1 0x40 MLOAD PUSH2 0x71 SWAP2 SWAP1 PUSH2 0x1AB JUMP JUMPDEST PUSH1 0x40 MLOAD DUP1 SWAP2 SUB SWAP1 RETURN JUMPDEST PUSH2 0x94 PUSH1 0x4 DUP1 CALLDATASIZE SUB DUP2 ADD SWAP1 PUSH2 0x8F SWAP2 SWAP1 PUSH2 0x16F JUMP JUMPDEST PUSH2 0xD9 JUMP JUMPDEST STOP JUMPDEST PUSH2 0x9E PUSH2 0x105 JUMP JUMPDEST PUSH1 0x40 MLOAD PUSH2 0xAB SWAP2 SWAP1 PUSH2 0x1AB JUMP JUMPDEST PUSH1 0x40 MLOAD DUP1 SWAP2 SUB SWAP1 RETURN JUMPDEST PUSH2 0xBC PUSH2 0x11B JUMP JUMPDEST STOP JUMPDEST PUSH2 0xC6 PUSH2 0x147 JUMP JUMPDEST STOP JUMPDEST PUSH1 0x0 DUP1 SLOAD SWAP1 PUSH2 0x100 EXP SWAP1 DIV PUSH1 0xFF AND DUP2 JUMP JUMPDEST DUP1 PUSH1 0x0 DUP1 PUSH2 0x100 EXP DUP2 SLOAD DUP2 PUSH1 0xFF MUL NOT AND SWAP1 DUP4 PUSH1 0x5 DUP2 GT ISZERO PUSH2 0xFD JUMPI PUSH2 0xFC PUSH2 0x1EB JUMP JUMPDEST JUMPDEST MUL OR SWAP1 SSTORE POP POP JUMP JUMPDEST PUSH1 0x0 DUP1 PUSH1 0x0 SWAP1 SLOAD SWAP1 PUSH2 0x100 EXP SWAP1 DIV PUSH1 0xFF AND SWAP1 POP SWAP1 JUMP JUMPDEST PUSH1 0x4 PUSH1 0x0 DUP1 PUSH2 0x100 EXP DUP2 SLOAD DUP2 PUSH1 0xFF MUL NOT AND SWAP1 DUP4 PUSH1 0x5 DUP2 GT ISZERO PUSH2 0x140 JUMPI PUSH2 0x13F PUSH2 0x1EB JUMP JUMPDEST JUMPDEST MUL OR SWAP1 SSTORE POP JUMP JUMPDEST PUSH1 0x0 DUP1 PUSH2 0x100 EXP DUP2 SLOAD SWAP1 PUSH1 0xFF MUL NOT AND SWAP1 SSTORE JUMP JUMPDEST PUSH1 0x0 DUP2 CALLDATALOAD SWAP1 POP PUSH2 0x169 DUP2 PUSH2 0x233 JUMP JUMPDEST SWAP3 SWAP2 POP POP JUMP JUMPDEST PUSH1 0x0 PUSH1 0x20 DUP3 DUP5 SUB SLT ISZERO PUSH2 0x185 JUMPI PUSH2 0x184 PUSH2 0x21A JUMP JUMPDEST JUMPDEST PUSH1 0x0 PUSH2 0x193 DUP5 DUP3 DUP6 ADD PUSH2 0x15A JUMP JUMPDEST SWAP2 POP POP SWAP3 SWAP2 POP POP JUMP JUMPDEST PUSH2 0x1A5 DUP2 PUSH2 0x1D9 JUMP JUMPDEST DUP3 MSTORE POP POP JUMP JUMPDEST PUSH1 0x0 PUSH1 0x20 DUP3 ADD SWAP1 POP PUSH2 0x1C0 PUSH1 0x0 DUP4 ADD DUP5 PUSH2 0x19C JUMP JUMPDEST SWAP3 SWAP2 POP POP JUMP JUMPDEST PUSH1 0x0 DUP2 SWAP1 POP PUSH2 0x1D4 DUP3 PUSH2 0x21F JUMP JUMPDEST SWAP2 SWAP1 POP JUMP JUMPDEST PUSH1 0x0 PUSH2 0x1E4 DUP3 PUSH2 0x1C6 JUMP JUMPDEST SWAP1 POP SWAP2 SWAP1 POP JUMP JUMPDEST PUSH32 0x4E487B7100000000000000000000000000000000000000000000000000000000 PUSH1 0x0 MSTORE PUSH1 0x21 PUSH1 0x4 MSTORE PUSH1 0x24 PUSH1 0x0 REVERT JUMPDEST PUSH1 0x0 DUP1 REVERT JUMPDEST PUSH1 0x6 DUP2 LT PUSH2 0x230 JUMPI PUSH2 0x22F PUSH2 0x1EB JUMP JUMPDEST JUMPDEST POP JUMP JUMPDEST PUSH1 0x6 DUP2 LT PUSH2 0x240 JUMPI PUSH1 0x0 DUP1 REVERT JUMPDEST POP JUMP INVALID LOG2 PUSH5 0x6970667358 0x22 SLT KECCAK256 SWAP5 0xE1 CREATE 0xA7 0xE3 0xBB ORIGIN RETURN 0xF9 SWAP16 CODECOPY CODESIZE 0xB4 MULMOD 0xF7 TIMESTAMP GASPRICE OR SUB LOG0 PUSH11 0xC01DC38367F9246FED3859 PUSH5 0x736F6C6343 STOP ADDMOD SMOD STOP CALLER "
				},
				"gasEstimates": {
					"creation": {
						"codeDepositCost": "126600",
						"executionCost": "171",
						"totalCost": "126771"
					},
					"external": {
						"finish()": "24475",
						"get()": "2590",
						"reset()": "24452",
						"set(uint8)": "24650",
						"status()": "2535"
					}
				},
				"methodIdentifiers": {
					"finish()": "d56b2889",
					"get()": "6d4ce63c",
					"reset()": "d826f88f",
					"set(uint8)": "24b8ba5f",
					"status()": "200d2ed2"
				}
			},
			"storageLayout": {
				"storage": [
					{
						"astId": 4,
						"contract": "contracts/024Enum.sol:Enum",
						"label": "status",
						"offset": 0,
						"slot": "0",
						"type": "t_enum(Status)11"
					}
				],
				"types": {
					"t_enum(Status)11": {
						"encoding": "inplace",
						"label": "enum Enum.Status",
						"numberOfBytes": "1"
					}
				}
			},
			"userdoc": {
				"kind": "user",
				"methods": {},
				"version": 1
			}
		}
	}
}