{
	"contracts/ErrorTest.sol": {
		"ErrorTest": {
			"abi": [
				{
					"inputs": [
						{
							"internalType": "address",
							"name": "caller",
							"type": "address"
						},
						{
							"internalType": "uint256",
							"name": "i",
							"type": "uint256"
						}
					],
					"name": "MyError",
					"type": "error"
				},
				{
					"inputs": [],
					"name": "num",
					"outputs": [
						{
							"internalType": "uint256",
							"name": "",
							"type": "uint256"
						}
					],
					"stateMutability": "view",
					"type": "function"
				},
				{
					"inputs": [],
					"name": "testAssert",
					"outputs": [],
					"stateMutability": "view",
					"type": "function"
				},
				{
					"inputs": [
						{
							"internalType": "uint256",
							"name": "_z",
							"type": "uint256"
						}
					],
					"name": "testMyError",
					"outputs": [],
					"stateMutability": "view",
					"type": "function"
				},
				{
					"inputs": [
						{
							"internalType": "uint256",
							"name": "_x",
							"type": "uint256"
						}
					],
					"name": "testRequire",
					"outputs": [],
					"stateMutability": "pure",
					"type": "function"
				},
				{
					"inputs": [
						{
							"internalType": "uint256",
							"name": "_y",
							"type": "uint256"
						}
					],
					"name": "testRevert",
					"outputs": [],
					"stateMutability": "pure",
					"type": "function"
				}
			],
			"devdoc": {
				"kind": "dev",
				"methods": {},
				"version": 1
			},
			"evm": {
				"assembly": "    /* \"contracts/ErrorTest.sol\":56:589  contract ErrorTest {... */\n  mstore(0x40, 0x80)\n    /* \"contracts/ErrorTest.sol\":332:335  234 */\n  0xea\n    /* \"contracts/ErrorTest.sol\":314:335  uint public num = 234 */\n  0x00\n  sstore\n    /* \"contracts/ErrorTest.sol\":56:589  contract ErrorTest {... */\n  callvalue\n  dup1\n  iszero\n  tag_1\n  jumpi\n  0x00\n  dup1\n  revert\ntag_1:\n  pop\n  dataSize(sub_0)\n  dup1\n  dataOffset(sub_0)\n  0x00\n  codecopy\n  0x00\n  return\nstop\n\nsub_0: assembly {\n        /* \"contracts/ErrorTest.sol\":56:589  contract ErrorTest {... */\n      mstore(0x40, 0x80)\n      callvalue\n      dup1\n      iszero\n      tag_1\n      jumpi\n      0x00\n      dup1\n      revert\n    tag_1:\n      pop\n      jumpi(tag_2, lt(calldatasize, 0x04))\n      shr(0xe0, calldataload(0x00))\n      dup1\n      0x20987767\n      eq\n      tag_3\n      jumpi\n      dup1\n      0x2b813bc0\n      eq\n      tag_4\n      jumpi\n      dup1\n      0x34a4232e\n      eq\n      tag_5\n      jumpi\n      dup1\n      0x4e70b1dc\n      eq\n      tag_6\n      jumpi\n      dup1\n      0xb8bd717f\n      eq\n      tag_7\n      jumpi\n    tag_2:\n      0x00\n      dup1\n      revert\n        /* \"contracts/ErrorTest.sol\":185:308  function testRevert(uint _y) public pure {... */\n    tag_3:\n      tag_8\n      0x04\n      dup1\n      calldatasize\n      sub\n      dup2\n      add\n      swap1\n      tag_9\n      swap2\n      swap1\n      tag_10\n      jump\t// in\n    tag_9:\n      tag_11\n      jump\t// in\n    tag_8:\n      stop\n        /* \"contracts/ErrorTest.sol\":342:411  function testAssert() public view {... */\n    tag_4:\n      tag_12\n      tag_13\n      jump\t// in\n    tag_12:\n      stop\n        /* \"contracts/ErrorTest.sol\":461:587  function testMyError(uint _z) public view {... */\n    tag_5:\n      tag_14\n      0x04\n      dup1\n      calldatasize\n      sub\n      dup2\n      add\n      swap1\n      tag_15\n      swap2\n      swap1\n      tag_10\n      jump\t// in\n    tag_15:\n      tag_16\n      jump\t// in\n    tag_14:\n      stop\n        /* \"contracts/ErrorTest.sol\":314:335  uint public num = 234 */\n    tag_6:\n      tag_17\n      tag_18\n      jump\t// in\n    tag_17:\n      mload(0x40)\n      tag_19\n      swap2\n      swap1\n      tag_20\n      jump\t// in\n    tag_19:\n      mload(0x40)\n      dup1\n      swap2\n      sub\n      swap1\n      return\n        /* \"contracts/ErrorTest.sol\":81:179  function testRequire(uint _x) public pure {... */\n    tag_7:\n      tag_21\n      0x04\n      dup1\n      calldatasize\n      sub\n      dup2\n      add\n      swap1\n      tag_22\n      swap2\n      swap1\n      tag_10\n      jump\t// in\n    tag_22:\n      tag_23\n      jump\t// in\n    tag_21:\n      stop\n        /* \"contracts/ErrorTest.sol\":185:308  function testRevert(uint _y) public pure {... */\n    tag_11:\n        /* \"contracts/ErrorTest.sol\":245:247  20 */\n      0x14\n        /* \"contracts/ErrorTest.sol\":240:242  _y */\n      dup2\n        /* \"contracts/ErrorTest.sol\":240:247  _y > 20 */\n      gt\n        /* \"contracts/ErrorTest.sol\":236:302  if (_y > 20) {... */\n      iszero\n      tag_25\n      jumpi\n        /* \"contracts/ErrorTest.sol\":263:291  revert(\"_y greater than 20\") */\n      mload(0x40)\n      0x08c379a000000000000000000000000000000000000000000000000000000000\n      dup2\n      mstore\n      0x04\n      add\n      tag_26\n      swap1\n      tag_27\n      jump\t// in\n    tag_26:\n      mload(0x40)\n      dup1\n      swap2\n      sub\n      swap1\n      revert\n        /* \"contracts/ErrorTest.sol\":236:302  if (_y > 20) {... */\n    tag_25:\n        /* \"contracts/ErrorTest.sol\":185:308  function testRevert(uint _y) public pure {... */\n      pop\n      jump\t// out\n        /* \"contracts/ErrorTest.sol\":342:411  function testAssert() public view {... */\n    tag_13:\n        /* \"contracts/ErrorTest.sol\":400:403  234 */\n      0xea\n        /* \"contracts/ErrorTest.sol\":393:396  num */\n      sload(0x00)\n        /* \"contracts/ErrorTest.sol\":393:403  num == 234 */\n      eq\n        /* \"contracts/ErrorTest.sol\":386:404  assert(num == 234) */\n      tag_29\n      jumpi\n      tag_30\n      tag_31\n      jump\t// in\n    tag_30:\n    tag_29:\n        /* \"contracts/ErrorTest.sol\":342:411  function testAssert() public view {... */\n      jump\t// out\n        /* \"contracts/ErrorTest.sol\":461:587  function testMyError(uint _z) public view {... */\n    tag_16:\n        /* \"contracts/ErrorTest.sol\":522:524  20 */\n      0x14\n        /* \"contracts/ErrorTest.sol\":517:519  _z */\n      dup2\n        /* \"contracts/ErrorTest.sol\":517:524  _z > 20 */\n      gt\n        /* \"contracts/ErrorTest.sol\":513:581  if (_z > 20) {... */\n      iszero\n      tag_33\n      jumpi\n        /* \"contracts/ErrorTest.sol\":555:565  msg.sender */\n      caller\n        /* \"contracts/ErrorTest.sol\":567:569  _z */\n      dup2\n        /* \"contracts/ErrorTest.sol\":547:570  MyError(msg.sender, _z) */\n      mload(0x40)\n      0xe2399bb800000000000000000000000000000000000000000000000000000000\n      dup2\n      mstore\n      0x04\n      add\n      tag_34\n      swap3\n      swap2\n      swap1\n      tag_35\n      jump\t// in\n    tag_34:\n      mload(0x40)\n      dup1\n      swap2\n      sub\n      swap1\n      revert\n        /* \"contracts/ErrorTest.sol\":513:581  if (_z > 20) {... */\n    tag_33:\n        /* \"contracts/ErrorTest.sol\":461:587  function testMyError(uint _z) public view {... */\n      pop\n      jump\t// out\n        /* \"contracts/ErrorTest.sol\":314:335  uint public num = 234 */\n    tag_18:\n      sload(0x00)\n      dup2\n      jump\t// out\n        /* \"contracts/ErrorTest.sol\":81:179  function testRequire(uint _x) public pure {... */\n    tag_23:\n        /* \"contracts/ErrorTest.sol\":147:149  20 */\n      0x14\n        /* \"contracts/ErrorTest.sol\":141:143  _x */\n      dup2\n        /* \"contracts/ErrorTest.sol\":141:149  _x <= 20 */\n      gt\n      iszero\n        /* \"contracts/ErrorTest.sol\":133:172  require(_x <= 20, \"_x greater than 20\") */\n      tag_37\n      jumpi\n      mload(0x40)\n      0x08c379a000000000000000000000000000000000000000000000000000000000\n      dup2\n      mstore\n      0x04\n      add\n      tag_38\n      swap1\n      tag_39\n      jump\t// in\n    tag_38:\n      mload(0x40)\n      dup1\n      swap2\n      sub\n      swap1\n      revert\n    tag_37:\n        /* \"contracts/ErrorTest.sol\":81:179  function testRequire(uint _x) public pure {... */\n      pop\n      jump\t// out\n        /* \"#utility.yul\":7:146   */\n    tag_41:\n        /* \"#utility.yul\":53:58   */\n      0x00\n        /* \"#utility.yul\":91:97   */\n      dup2\n        /* \"#utility.yul\":78:98   */\n      calldataload\n        /* \"#utility.yul\":69:98   */\n      swap1\n      pop\n        /* \"#utility.yul\":107:140   */\n      tag_43\n        /* \"#utility.yul\":134:139   */\n      dup2\n        /* \"#utility.yul\":107:140   */\n      tag_44\n      jump\t// in\n    tag_43:\n        /* \"#utility.yul\":7:146   */\n      swap3\n      swap2\n      pop\n      pop\n      jump\t// out\n        /* \"#utility.yul\":152:481   */\n    tag_10:\n        /* \"#utility.yul\":211:217   */\n      0x00\n        /* \"#utility.yul\":260:262   */\n      0x20\n        /* \"#utility.yul\":248:257   */\n      dup3\n        /* \"#utility.yul\":239:246   */\n      dup5\n        /* \"#utility.yul\":235:258   */\n      sub\n        /* \"#utility.yul\":231:263   */\n      slt\n        /* \"#utility.yul\":228:347   */\n      iszero\n      tag_46\n      jumpi\n        /* \"#utility.yul\":266:345   */\n      tag_47\n      tag_48\n      jump\t// in\n    tag_47:\n        /* \"#utility.yul\":228:347   */\n    tag_46:\n        /* \"#utility.yul\":386:387   */\n      0x00\n        /* \"#utility.yul\":411:464   */\n      tag_49\n        /* \"#utility.yul\":456:463   */\n      dup5\n        /* \"#utility.yul\":447:453   */\n      dup3\n        /* \"#utility.yul\":436:445   */\n      dup6\n        /* \"#utility.yul\":432:454   */\n      add\n        /* \"#utility.yul\":411:464   */\n      tag_41\n      jump\t// in\n    tag_49:\n        /* \"#utility.yul\":401:464   */\n      swap2\n      pop\n        /* \"#utility.yul\":357:474   */\n      pop\n        /* \"#utility.yul\":152:481   */\n      swap3\n      swap2\n      pop\n      pop\n      jump\t// out\n        /* \"#utility.yul\":487:605   */\n    tag_50:\n        /* \"#utility.yul\":574:598   */\n      tag_52\n        /* \"#utility.yul\":592:597   */\n      dup2\n        /* \"#utility.yul\":574:598   */\n      tag_53\n      jump\t// in\n    tag_52:\n        /* \"#utility.yul\":569:572   */\n      dup3\n        /* \"#utility.yul\":562:599   */\n      mstore\n        /* \"#utility.yul\":487:605   */\n      pop\n      pop\n      jump\t// out\n        /* \"#utility.yul\":611:977   */\n    tag_54:\n        /* \"#utility.yul\":753:756   */\n      0x00\n        /* \"#utility.yul\":774:841   */\n      tag_56\n        /* \"#utility.yul\":838:840   */\n      0x12\n        /* \"#utility.yul\":833:836   */\n      dup4\n        /* \"#utility.yul\":774:841   */\n      tag_57\n      jump\t// in\n    tag_56:\n        /* \"#utility.yul\":767:841   */\n      swap2\n      pop\n        /* \"#utility.yul\":850:943   */\n      tag_58\n        /* \"#utility.yul\":939:942   */\n      dup3\n        /* \"#utility.yul\":850:943   */\n      tag_59\n      jump\t// in\n    tag_58:\n        /* \"#utility.yul\":968:970   */\n      0x20\n        /* \"#utility.yul\":963:966   */\n      dup3\n        /* \"#utility.yul\":959:971   */\n      add\n        /* \"#utility.yul\":952:971   */\n      swap1\n      pop\n        /* \"#utility.yul\":611:977   */\n      swap2\n      swap1\n      pop\n      jump\t// out\n        /* \"#utility.yul\":983:1349   */\n    tag_60:\n        /* \"#utility.yul\":1125:1128   */\n      0x00\n        /* \"#utility.yul\":1146:1213   */\n      tag_62\n        /* \"#utility.yul\":1210:1212   */\n      0x12\n        /* \"#utility.yul\":1205:1208   */\n      dup4\n        /* \"#utility.yul\":1146:1213   */\n      tag_57\n      jump\t// in\n    tag_62:\n        /* \"#utility.yul\":1139:1213   */\n      swap2\n      pop\n        /* \"#utility.yul\":1222:1315   */\n      tag_63\n        /* \"#utility.yul\":1311:1314   */\n      dup3\n        /* \"#utility.yul\":1222:1315   */\n      tag_64\n      jump\t// in\n    tag_63:\n        /* \"#utility.yul\":1340:1342   */\n      0x20\n        /* \"#utility.yul\":1335:1338   */\n      dup3\n        /* \"#utility.yul\":1331:1343   */\n      add\n        /* \"#utility.yul\":1324:1343   */\n      swap1\n      pop\n        /* \"#utility.yul\":983:1349   */\n      swap2\n      swap1\n      pop\n      jump\t// out\n        /* \"#utility.yul\":1355:1473   */\n    tag_65:\n        /* \"#utility.yul\":1442:1466   */\n      tag_67\n        /* \"#utility.yul\":1460:1465   */\n      dup2\n        /* \"#utility.yul\":1442:1466   */\n      tag_68\n      jump\t// in\n    tag_67:\n        /* \"#utility.yul\":1437:1440   */\n      dup3\n        /* \"#utility.yul\":1430:1467   */\n      mstore\n        /* \"#utility.yul\":1355:1473   */\n      pop\n      pop\n      jump\t// out\n        /* \"#utility.yul\":1479:1811   */\n    tag_35:\n        /* \"#utility.yul\":1600:1604   */\n      0x00\n        /* \"#utility.yul\":1638:1640   */\n      0x40\n        /* \"#utility.yul\":1627:1636   */\n      dup3\n        /* \"#utility.yul\":1623:1641   */\n      add\n        /* \"#utility.yul\":1615:1641   */\n      swap1\n      pop\n        /* \"#utility.yul\":1651:1722   */\n      tag_70\n        /* \"#utility.yul\":1719:1720   */\n      0x00\n        /* \"#utility.yul\":1708:1717   */\n      dup4\n        /* \"#utility.yul\":1704:1721   */\n      add\n        /* \"#utility.yul\":1695:1701   */\n      dup6\n        /* \"#utility.yul\":1651:1722   */\n      tag_50\n      jump\t// in\n    tag_70:\n        /* \"#utility.yul\":1732:1804   */\n      tag_71\n        /* \"#utility.yul\":1800:1802   */\n      0x20\n        /* \"#utility.yul\":1789:1798   */\n      dup4\n        /* \"#utility.yul\":1785:1803   */\n      add\n        /* \"#utility.yul\":1776:1782   */\n      dup5\n        /* \"#utility.yul\":1732:1804   */\n      tag_65\n      jump\t// in\n    tag_71:\n        /* \"#utility.yul\":1479:1811   */\n      swap4\n      swap3\n      pop\n      pop\n      pop\n      jump\t// out\n        /* \"#utility.yul\":1817:2236   */\n    tag_27:\n        /* \"#utility.yul\":1983:1987   */\n      0x00\n        /* \"#utility.yul\":2021:2023   */\n      0x20\n        /* \"#utility.yul\":2010:2019   */\n      dup3\n        /* \"#utility.yul\":2006:2024   */\n      add\n        /* \"#utility.yul\":1998:2024   */\n      swap1\n      pop\n        /* \"#utility.yul\":2070:2079   */\n      dup2\n        /* \"#utility.yul\":2064:2068   */\n      dup2\n        /* \"#utility.yul\":2060:2080   */\n      sub\n        /* \"#utility.yul\":2056:2057   */\n      0x00\n        /* \"#utility.yul\":2045:2054   */\n      dup4\n        /* \"#utility.yul\":2041:2058   */\n      add\n        /* \"#utility.yul\":2034:2081   */\n      mstore\n        /* \"#utility.yul\":2098:2229   */\n      tag_73\n        /* \"#utility.yul\":2224:2228   */\n      dup2\n        /* \"#utility.yul\":2098:2229   */\n      tag_54\n      jump\t// in\n    tag_73:\n        /* \"#utility.yul\":2090:2229   */\n      swap1\n      pop\n        /* \"#utility.yul\":1817:2236   */\n      swap2\n      swap1\n      pop\n      jump\t// out\n        /* \"#utility.yul\":2242:2661   */\n    tag_39:\n        /* \"#utility.yul\":2408:2412   */\n      0x00\n        /* \"#utility.yul\":2446:2448   */\n      0x20\n        /* \"#utility.yul\":2435:2444   */\n      dup3\n        /* \"#utility.yul\":2431:2449   */\n      add\n        /* \"#utility.yul\":2423:2449   */\n      swap1\n      pop\n        /* \"#utility.yul\":2495:2504   */\n      dup2\n        /* \"#utility.yul\":2489:2493   */\n      dup2\n        /* \"#utility.yul\":2485:2505   */\n      sub\n        /* \"#utility.yul\":2481:2482   */\n      0x00\n        /* \"#utility.yul\":2470:2479   */\n      dup4\n        /* \"#utility.yul\":2466:2483   */\n      add\n        /* \"#utility.yul\":2459:2506   */\n      mstore\n        /* \"#utility.yul\":2523:2654   */\n      tag_75\n        /* \"#utility.yul\":2649:2653   */\n      dup2\n        /* \"#utility.yul\":2523:2654   */\n      tag_60\n      jump\t// in\n    tag_75:\n        /* \"#utility.yul\":2515:2654   */\n      swap1\n      pop\n        /* \"#utility.yul\":2242:2661   */\n      swap2\n      swap1\n      pop\n      jump\t// out\n        /* \"#utility.yul\":2667:2889   */\n    tag_20:\n        /* \"#utility.yul\":2760:2764   */\n      0x00\n        /* \"#utility.yul\":2798:2800   */\n      0x20\n        /* \"#utility.yul\":2787:2796   */\n      dup3\n        /* \"#utility.yul\":2783:2801   */\n      add\n        /* \"#utility.yul\":2775:2801   */\n      swap1\n      pop\n        /* \"#utility.yul\":2811:2882   */\n      tag_77\n        /* \"#utility.yul\":2879:2880   */\n      0x00\n        /* \"#utility.yul\":2868:2877   */\n      dup4\n        /* \"#utility.yul\":2864:2881   */\n      add\n        /* \"#utility.yul\":2855:2861   */\n      dup5\n        /* \"#utility.yul\":2811:2882   */\n      tag_65\n      jump\t// in\n    tag_77:\n        /* \"#utility.yul\":2667:2889   */\n      swap3\n      swap2\n      pop\n      pop\n      jump\t// out\n        /* \"#utility.yul\":2976:3145   */\n    tag_57:\n        /* \"#utility.yul\":3060:3071   */\n      0x00\n        /* \"#utility.yul\":3094:3100   */\n      dup3\n        /* \"#utility.yul\":3089:3092   */\n      dup3\n        /* \"#utility.yul\":3082:3101   */\n      mstore\n        /* \"#utility.yul\":3134:3138   */\n      0x20\n        /* \"#utility.yul\":3129:3132   */\n      dup3\n        /* \"#utility.yul\":3125:3139   */\n      add\n        /* \"#utility.yul\":3110:3139   */\n      swap1\n      pop\n        /* \"#utility.yul\":2976:3145   */\n      swap3\n      swap2\n      pop\n      pop\n      jump\t// out\n        /* \"#utility.yul\":3151:3247   */\n    tag_53:\n        /* \"#utility.yul\":3188:3195   */\n      0x00\n        /* \"#utility.yul\":3217:3241   */\n      tag_82\n        /* \"#utility.yul\":3235:3240   */\n      dup3\n        /* \"#utility.yul\":3217:3241   */\n      tag_83\n      jump\t// in\n    tag_82:\n        /* \"#utility.yul\":3206:3241   */\n      swap1\n      pop\n        /* \"#utility.yul\":3151:3247   */\n      swap2\n      swap1\n      pop\n      jump\t// out\n        /* \"#utility.yul\":3253:3379   */\n    tag_83:\n        /* \"#utility.yul\":3290:3297   */\n      0x00\n        /* \"#utility.yul\":3330:3372   */\n      0xffffffffffffffffffffffffffffffffffffffff\n        /* \"#utility.yul\":3323:3328   */\n      dup3\n        /* \"#utility.yul\":3319:3373   */\n      and\n        /* \"#utility.yul\":3308:3373   */\n      swap1\n      pop\n        /* \"#utility.yul\":3253:3379   */\n      swap2\n      swap1\n      pop\n      jump\t// out\n        /* \"#utility.yul\":3385:3462   */\n    tag_68:\n        /* \"#utility.yul\":3422:3429   */\n      0x00\n        /* \"#utility.yul\":3451:3456   */\n      dup2\n        /* \"#utility.yul\":3440:3456   */\n      swap1\n      pop\n        /* \"#utility.yul\":3385:3462   */\n      swap2\n      swap1\n      pop\n      jump\t// out\n        /* \"#utility.yul\":3468:3648   */\n    tag_31:\n        /* \"#utility.yul\":3516:3593   */\n      0x4e487b7100000000000000000000000000000000000000000000000000000000\n        /* \"#utility.yul\":3513:3514   */\n      0x00\n        /* \"#utility.yul\":3506:3594   */\n      mstore\n        /* \"#utility.yul\":3613:3617   */\n      0x01\n        /* \"#utility.yul\":3610:3611   */\n      0x04\n        /* \"#utility.yul\":3603:3618   */\n      mstore\n        /* \"#utility.yul\":3637:3641   */\n      0x24\n        /* \"#utility.yul\":3634:3635   */\n      0x00\n        /* \"#utility.yul\":3627:3642   */\n      revert\n        /* \"#utility.yul\":3777:3894   */\n    tag_48:\n        /* \"#utility.yul\":3886:3887   */\n      0x00\n        /* \"#utility.yul\":3883:3884   */\n      dup1\n        /* \"#utility.yul\":3876:3888   */\n      revert\n        /* \"#utility.yul\":3900:4068   */\n    tag_59:\n        /* \"#utility.yul\":4040:4060   */\n      0x5f792067726561746572207468616e2032300000000000000000000000000000\n        /* \"#utility.yul\":4036:4037   */\n      0x00\n        /* \"#utility.yul\":4028:4034   */\n      dup3\n        /* \"#utility.yul\":4024:4038   */\n      add\n        /* \"#utility.yul\":4017:4061   */\n      mstore\n        /* \"#utility.yul\":3900:4068   */\n      pop\n      jump\t// out\n        /* \"#utility.yul\":4074:4242   */\n    tag_64:\n        /* \"#utility.yul\":4214:4234   */\n      0x5f782067726561746572207468616e2032300000000000000000000000000000\n        /* \"#utility.yul\":4210:4211   */\n      0x00\n        /* \"#utility.yul\":4202:4208   */\n      dup3\n        /* \"#utility.yul\":4198:4212   */\n      add\n        /* \"#utility.yul\":4191:4235   */\n      mstore\n        /* \"#utility.yul\":4074:4242   */\n      pop\n      jump\t// out\n        /* \"#utility.yul\":4248:4370   */\n    tag_44:\n        /* \"#utility.yul\":4321:4345   */\n      tag_93\n        /* \"#utility.yul\":4339:4344   */\n      dup2\n        /* \"#utility.yul\":4321:4345   */\n      tag_68\n      jump\t// in\n    tag_93:\n        /* \"#utility.yul\":4314:4319   */\n      dup2\n        /* \"#utility.yul\":4311:4346   */\n      eq\n        /* \"#utility.yul\":4301:4364   */\n      tag_94\n      jumpi\n        /* \"#utility.yul\":4360:4361   */\n      0x00\n        /* \"#utility.yul\":4357:4358   */\n      dup1\n        /* \"#utility.yul\":4350:4362   */\n      revert\n        /* \"#utility.yul\":4301:4364   */\n    tag_94:\n        /* \"#utility.yul\":4248:4370   */\n      pop\n      jump\t// out\n\n    auxdata: 0xa2646970667358221220a98f27bb395a3ebe78f2d4c398b287f543873482457c3cd9b158bb40f622508064736f6c63430008070033\n}\n",
				"bytecode": {
					"linkReferences": {},
					"object": "608060405260ea60005534801561001557600080fd5b50610416806100256000396000f3fe608060405234801561001057600080fd5b50600436106100575760003560e01c8063209877671461005c5780632b813bc01461007857806334a4232e146100825780634e70b1dc1461009e578063b8bd717f146100bc575b600080fd5b610076600480360381019061007191906101e1565b6100d8565b005b61008061011f565b005b61009c600480360381019061009791906101e1565b610134565b005b6100a661017f565b6040516100b391906102db565b60405180910390f35b6100d660048036038101906100d191906101e1565b610185565b005b601481111561011c576040517f08c379a00000000000000000000000000000000000000000000000000000000081526004016101139061029b565b60405180910390fd5b50565b60ea6000541461013257610131610343565b5b565b601481111561017c5733816040517fe2399bb8000000000000000000000000000000000000000000000000000000008152600401610173929190610272565b60405180910390fd5b50565b60005481565b60148111156101c9576040517f08c379a00000000000000000000000000000000000000000000000000000000081526004016101c0906102bb565b60405180910390fd5b50565b6000813590506101db816103c9565b92915050565b6000602082840312156101f7576101f6610372565b5b6000610205848285016101cc565b91505092915050565b61021781610307565b82525050565b600061022a6012836102f6565b915061023582610377565b602082019050919050565b600061024d6012836102f6565b9150610258826103a0565b602082019050919050565b61026c81610339565b82525050565b6000604082019050610287600083018561020e565b6102946020830184610263565b9392505050565b600060208201905081810360008301526102b48161021d565b9050919050565b600060208201905081810360008301526102d481610240565b9050919050565b60006020820190506102f06000830184610263565b92915050565b600082825260208201905092915050565b600061031282610319565b9050919050565b600073ffffffffffffffffffffffffffffffffffffffff82169050919050565b6000819050919050565b7f4e487b7100000000000000000000000000000000000000000000000000000000600052600160045260246000fd5b600080fd5b7f5f792067726561746572207468616e2032300000000000000000000000000000600082015250565b7f5f782067726561746572207468616e2032300000000000000000000000000000600082015250565b6103d281610339565b81146103dd57600080fd5b5056fea2646970667358221220a98f27bb395a3ebe78f2d4c398b287f543873482457c3cd9b158bb40f622508064736f6c63430008070033",
					"opcodes": "PUSH1 0x80 PUSH1 0x40 MSTORE PUSH1 0xEA PUSH1 0x0 SSTORE CALLVALUE DUP1 ISZERO PUSH2 0x15 JUMPI PUSH1 0x0 DUP1 REVERT JUMPDEST POP PUSH2 0x416 DUP1 PUSH2 0x25 PUSH1 0x0 CODECOPY PUSH1 0x0 RETURN INVALID PUSH1 0x80 PUSH1 0x40 MSTORE CALLVALUE DUP1 ISZERO PUSH2 0x10 JUMPI PUSH1 0x0 DUP1 REVERT JUMPDEST POP PUSH1 0x4 CALLDATASIZE LT PUSH2 0x57 JUMPI PUSH1 0x0 CALLDATALOAD PUSH1 0xE0 SHR DUP1 PUSH4 0x20987767 EQ PUSH2 0x5C JUMPI DUP1 PUSH4 0x2B813BC0 EQ PUSH2 0x78 JUMPI DUP1 PUSH4 0x34A4232E EQ PUSH2 0x82 JUMPI DUP1 PUSH4 0x4E70B1DC EQ PUSH2 0x9E JUMPI DUP1 PUSH4 0xB8BD717F EQ PUSH2 0xBC JUMPI JUMPDEST PUSH1 0x0 DUP1 REVERT JUMPDEST PUSH2 0x76 PUSH1 0x4 DUP1 CALLDATASIZE SUB DUP2 ADD SWAP1 PUSH2 0x71 SWAP2 SWAP1 PUSH2 0x1E1 JUMP JUMPDEST PUSH2 0xD8 JUMP JUMPDEST STOP JUMPDEST PUSH2 0x80 PUSH2 0x11F JUMP JUMPDEST STOP JUMPDEST PUSH2 0x9C PUSH1 0x4 DUP1 CALLDATASIZE SUB DUP2 ADD SWAP1 PUSH2 0x97 SWAP2 SWAP1 PUSH2 0x1E1 JUMP JUMPDEST PUSH2 0x134 JUMP JUMPDEST STOP JUMPDEST PUSH2 0xA6 PUSH2 0x17F JUMP JUMPDEST PUSH1 0x40 MLOAD PUSH2 0xB3 SWAP2 SWAP1 PUSH2 0x2DB JUMP JUMPDEST PUSH1 0x40 MLOAD DUP1 SWAP2 SUB SWAP1 RETURN JUMPDEST PUSH2 0xD6 PUSH1 0x4 DUP1 CALLDATASIZE SUB DUP2 ADD SWAP1 PUSH2 0xD1 SWAP2 SWAP1 PUSH2 0x1E1 JUMP JUMPDEST PUSH2 0x185 JUMP JUMPDEST STOP JUMPDEST PUSH1 0x14 DUP2 GT ISZERO PUSH2 0x11C JUMPI PUSH1 0x40 MLOAD PUSH32 0x8C379A000000000000000000000000000000000000000000000000000000000 DUP2 MSTORE PUSH1 0x4 ADD PUSH2 0x113 SWAP1 PUSH2 0x29B JUMP JUMPDEST PUSH1 0x40 MLOAD DUP1 SWAP2 SUB SWAP1 REVERT JUMPDEST POP JUMP JUMPDEST PUSH1 0xEA PUSH1 0x0 SLOAD EQ PUSH2 0x132 JUMPI PUSH2 0x131 PUSH2 0x343 JUMP JUMPDEST JUMPDEST JUMP JUMPDEST PUSH1 0x14 DUP2 GT ISZERO PUSH2 0x17C JUMPI CALLER DUP2 PUSH1 0x40 MLOAD PUSH32 0xE2399BB800000000000000000000000000000000000000000000000000000000 DUP2 MSTORE PUSH1 0x4 ADD PUSH2 0x173 SWAP3 SWAP2 SWAP1 PUSH2 0x272 JUMP JUMPDEST PUSH1 0x40 MLOAD DUP1 SWAP2 SUB SWAP1 REVERT JUMPDEST POP JUMP JUMPDEST PUSH1 0x0 SLOAD DUP2 JUMP JUMPDEST PUSH1 0x14 DUP2 GT ISZERO PUSH2 0x1C9 JUMPI PUSH1 0x40 MLOAD PUSH32 0x8C379A000000000000000000000000000000000000000000000000000000000 DUP2 MSTORE PUSH1 0x4 ADD PUSH2 0x1C0 SWAP1 PUSH2 0x2BB JUMP JUMPDEST PUSH1 0x40 MLOAD DUP1 SWAP2 SUB SWAP1 REVERT JUMPDEST POP JUMP JUMPDEST PUSH1 0x0 DUP2 CALLDATALOAD SWAP1 POP PUSH2 0x1DB DUP2 PUSH2 0x3C9 JUMP JUMPDEST SWAP3 SWAP2 POP POP JUMP JUMPDEST PUSH1 0x0 PUSH1 0x20 DUP3 DUP5 SUB SLT ISZERO PUSH2 0x1F7 JUMPI PUSH2 0x1F6 PUSH2 0x372 JUMP JUMPDEST JUMPDEST PUSH1 0x0 PUSH2 0x205 DUP5 DUP3 DUP6 ADD PUSH2 0x1CC JUMP JUMPDEST SWAP2 POP POP SWAP3 SWAP2 POP POP JUMP JUMPDEST PUSH2 0x217 DUP2 PUSH2 0x307 JUMP JUMPDEST DUP3 MSTORE POP POP JUMP JUMPDEST PUSH1 0x0 PUSH2 0x22A PUSH1 0x12 DUP4 PUSH2 0x2F6 JUMP JUMPDEST SWAP2 POP PUSH2 0x235 DUP3 PUSH2 0x377 JUMP JUMPDEST PUSH1 0x20 DUP3 ADD SWAP1 POP SWAP2 SWAP1 POP JUMP JUMPDEST PUSH1 0x0 PUSH2 0x24D PUSH1 0x12 DUP4 PUSH2 0x2F6 JUMP JUMPDEST SWAP2 POP PUSH2 0x258 DUP3 PUSH2 0x3A0 JUMP JUMPDEST PUSH1 0x20 DUP3 ADD SWAP1 POP SWAP2 SWAP1 POP JUMP JUMPDEST PUSH2 0x26C DUP2 PUSH2 0x339 JUMP JUMPDEST DUP3 MSTORE POP POP JUMP JUMPDEST PUSH1 0x0 PUSH1 0x40 DUP3 ADD SWAP1 POP PUSH2 0x287 PUSH1 0x0 DUP4 ADD DUP6 PUSH2 0x20E JUMP JUMPDEST PUSH2 0x294 PUSH1 0x20 DUP4 ADD DUP5 PUSH2 0x263 JUMP JUMPDEST SWAP4 SWAP3 POP POP POP JUMP JUMPDEST PUSH1 0x0 PUSH1 0x20 DUP3 ADD SWAP1 POP DUP2 DUP2 SUB PUSH1 0x0 DUP4 ADD MSTORE PUSH2 0x2B4 DUP2 PUSH2 0x21D JUMP JUMPDEST SWAP1 POP SWAP2 SWAP1 POP JUMP JUMPDEST PUSH1 0x0 PUSH1 0x20 DUP3 ADD SWAP1 POP DUP2 DUP2 SUB PUSH1 0x0 DUP4 ADD MSTORE PUSH2 0x2D4 DUP2 PUSH2 0x240 JUMP JUMPDEST SWAP1 POP SWAP2 SWAP1 POP JUMP JUMPDEST PUSH1 0x0 PUSH1 0x20 DUP3 ADD SWAP1 POP PUSH2 0x2F0 PUSH1 0x0 DUP4 ADD DUP5 PUSH2 0x263 JUMP JUMPDEST SWAP3 SWAP2 POP POP JUMP JUMPDEST PUSH1 0x0 DUP3 DUP3 MSTORE PUSH1 0x20 DUP3 ADD SWAP1 POP SWAP3 SWAP2 POP POP JUMP JUMPDEST PUSH1 0x0 PUSH2 0x312 DUP3 PUSH2 0x319 JUMP JUMPDEST SWAP1 POP SWAP2 SWAP1 POP JUMP JUMPDEST PUSH1 0x0 PUSH20 0xFFFFFFFFFFFFFFFFFFFFFFFFFFFFFFFFFFFFFFFF DUP3 AND SWAP1 POP SWAP2 SWAP1 POP JUMP JUMPDEST PUSH1 0x0 DUP2 SWAP1 POP SWAP2 SWAP1 POP JUMP JUMPDEST PUSH32 0x4E487B7100000000000000000000000000000000000000000000000000000000 PUSH1 0x0 MSTORE PUSH1 0x1 PUSH1 0x4 MSTORE PUSH1 0x24 PUSH1 0x0 REVERT JUMPDEST PUSH1 0x0 DUP1 REVERT JUMPDEST PUSH32 0x5F792067726561746572207468616E2032300000000000000000000000000000 PUSH1 0x0 DUP3 ADD MSTORE POP JUMP JUMPDEST PUSH32 0x5F782067726561746572207468616E2032300000000000000000000000000000 PUSH1 0x0 DUP3 ADD MSTORE POP JUMP JUMPDEST PUSH2 0x3D2 DUP2 PUSH2 0x339 JUMP JUMPDEST DUP2 EQ PUSH2 0x3DD JUMPI PUSH1 0x0 DUP1 REVERT JUMPDEST POP JUMP INVALID LOG2 PUSH5 0x6970667358 0x22 SLT KECCAK256 0xA9 DUP16 0x27 0xBB CODECOPY GAS RETURNDATACOPY 0xBE PUSH25 0xF2D4C398B287F543873482457C3CD9B158BB40F62250806473 PUSH16 0x6C634300080700330000000000000000 "
				},
				"gasEstimates": {
					"creation": {
						"codeDepositCost": "209200",
						"executionCost": "22357",
						"totalCost": "231557"
					},
					"external": {
						"num()": "2473",
						"testAssert()": "2296",
						"testMyError(uint256)": "infinite",
						"testRequire(uint256)": "785",
						"testRevert(uint256)": "697"
					}
				},
				"methodIdentifiers": {
					"num()": "4e70b1dc",
					"testAssert()": "2b813bc0",
					"testMyError(uint256)": "34a4232e",
					"testRequire(uint256)": "b8bd717f",
					"testRevert(uint256)": "20987767"
				}
			},
			"storageLayout": {
				"storage": [
					{
						"astId": 32,
						"contract": "contracts/ErrorTest.sol:ErrorTest",
						"label": "num",
						"offset": 0,
						"slot": "0",
						"type": "t_uint256"
					}
				],
				"types": {
					"t_uint256": {
						"encoding": "inplace",
						"label": "uint256",
						"numberOfBytes": "32"
					}
				}
			},
			"userdoc": {
				"kind": "user",
				"methods": {},
				"version": 1
			}
		}
	}
}