{
	"contracts/EnumTest.sol": {
		"Enum": {
			"abi": [
				{
					"inputs": [],
					"name": "addOrder",
					"outputs": [],
					"stateMutability": "nonpayable",
					"type": "function"
				},
				{
					"inputs": [
						{
							"internalType": "uint256",
							"name": "orderId",
							"type": "uint256"
						}
					],
					"name": "completeOrder",
					"outputs": [],
					"stateMutability": "nonpayable",
					"type": "function"
				},
				{
					"inputs": [],
					"name": "getOrderLength",
					"outputs": [
						{
							"internalType": "uint256",
							"name": "",
							"type": "uint256"
						}
					],
					"stateMutability": "view",
					"type": "function"
				},
				{
					"inputs": [
						{
							"internalType": "uint256",
							"name": "orderId",
							"type": "uint256"
						}
					],
					"name": "getStatus",
					"outputs": [
						{
							"internalType": "enum Enum.OrderStatus",
							"name": "",
							"type": "uint8"
						}
					],
					"stateMutability": "view",
					"type": "function"
				},
				{
					"inputs": [
						{
							"internalType": "uint256",
							"name": "",
							"type": "uint256"
						}
					],
					"name": "orders",
					"outputs": [
						{
							"internalType": "address",
							"name": "buyer",
							"type": "address"
						},
						{
							"internalType": "enum Enum.OrderStatus",
							"name": "status",
							"type": "uint8"
						}
					],
					"stateMutability": "view",
					"type": "function"
				},
				{
					"inputs": [
						{
							"internalType": "uint256",
							"name": "orderId",
							"type": "uint256"
						}
					],
					"name": "reset",
					"outputs": [],
					"stateMutability": "nonpayable",
					"type": "function"
				},
				{
					"inputs": [
						{
							"internalType": "uint256",
							"name": "orderId",
							"type": "uint256"
						}
					],
					"name": "shipOrder",
					"outputs": [],
					"stateMutability": "nonpayable",
					"type": "function"
				},
				{
					"inputs": [],
					"name": "status",
					"outputs": [
						{
							"internalType": "enum Enum.OrderStatus",
							"name": "",
							"type": "uint8"
						}
					],
					"stateMutability": "view",
					"type": "function"
				},
				{
					"inputs": [
						{
							"internalType": "uint256",
							"name": "orderId",
							"type": "uint256"
						},
						{
							"internalType": "enum Enum.OrderStatus",
							"name": "_status",
							"type": "uint8"
						}
					],
					"name": "updateStatus",
					"outputs": [],
					"stateMutability": "nonpayable",
					"type": "function"
				}
			],
			"devdoc": {
				"kind": "dev",
				"methods": {},
				"version": 1
			},
			"evm": {
				"assembly": "    /* \"contracts/EnumTest.sol\":662:2399  contract Enum {... */\n  mstore(0x40, 0x80)\n  callvalue\n  dup1\n  iszero\n  tag_1\n  jumpi\n  0x00\n  dup1\n  revert\ntag_1:\n  pop\n  dataSize(sub_0)\n  dup1\n  dataOffset(sub_0)\n  0x00\n  codecopy\n  0x00\n  return\nstop\n\nsub_0: assembly {\n        /* \"contracts/EnumTest.sol\":662:2399  contract Enum {... */\n      mstore(0x40, 0x80)\n      callvalue\n      dup1\n      iszero\n      tag_1\n      jumpi\n      0x00\n      dup1\n      revert\n    tag_1:\n      pop\n      jumpi(tag_2, lt(calldatasize, 0x04))\n      shr(0xe0, calldataload(0x00))\n      dup1\n      0x3a1b3d31\n      gt\n      tag_12\n      jumpi\n      dup1\n      0x3a1b3d31\n      eq\n      tag_7\n      jumpi\n      dup1\n      0x5c622a0e\n      eq\n      tag_8\n      jumpi\n      dup1\n      0x9d4971b7\n      eq\n      tag_9\n      jumpi\n      dup1\n      0xa85c38ef\n      eq\n      tag_10\n      jumpi\n      dup1\n      0xb6adaaff\n      eq\n      tag_11\n      jumpi\n      jump(tag_2)\n    tag_12:\n      dup1\n      0x194c302c\n      eq\n      tag_3\n      jumpi\n      dup1\n      0x200d2ed2\n      eq\n      tag_4\n      jumpi\n      dup1\n      0x2035a264\n      eq\n      tag_5\n      jumpi\n      dup1\n      0x310bd74b\n      eq\n      tag_6\n      jumpi\n    tag_2:\n      0x00\n      dup1\n      revert\n        /* \"contracts/EnumTest.sol\":1806:1970  function shipOrder(uint orderId) external {... */\n    tag_3:\n      tag_13\n      0x04\n      dup1\n      calldatasize\n      sub\n      dup2\n      add\n      swap1\n      tag_14\n      swap2\n      swap1\n      tag_15\n      jump\t// in\n    tag_14:\n      tag_16\n      jump\t// in\n    tag_13:\n      stop\n        /* \"contracts/EnumTest.sol\":919:944  OrderStatus public status */\n    tag_4:\n      tag_17\n      tag_18\n      jump\t// in\n    tag_17:\n      mload(0x40)\n      tag_19\n      swap2\n      swap1\n      tag_20\n      jump\t// in\n    tag_19:\n      mload(0x40)\n      dup1\n      swap2\n      sub\n      swap1\n      return\n        /* \"contracts/EnumTest.sol\":951:1434  function addOrder() external {... */\n    tag_5:\n      tag_21\n      tag_22\n      jump\t// in\n    tag_21:\n      stop\n        /* \"contracts/EnumTest.sol\":2152:2299  function reset(uint orderId) external {... */\n    tag_6:\n      tag_23\n      0x04\n      dup1\n      calldatasize\n      sub\n      dup2\n      add\n      swap1\n      tag_24\n      swap2\n      swap1\n      tag_15\n      jump\t// in\n    tag_24:\n      tag_25\n      jump\t// in\n    tag_23:\n      stop\n        /* \"contracts/EnumTest.sol\":1440:1618  function updateStatus(uint orderId, OrderStatus _status) external {... */\n    tag_7:\n      tag_26\n      0x04\n      dup1\n      calldatasize\n      sub\n      dup2\n      add\n      swap1\n      tag_27\n      swap2\n      swap1\n      tag_28\n      jump\t// in\n    tag_27:\n      tag_29\n      jump\t// in\n    tag_26:\n      stop\n        /* \"contracts/EnumTest.sol\":1624:1800  function getStatus(uint orderId) external view returns (OrderStatus) {... */\n    tag_8:\n      tag_30\n      0x04\n      dup1\n      calldatasize\n      sub\n      dup2\n      add\n      swap1\n      tag_31\n      swap2\n      swap1\n      tag_15\n      jump\t// in\n    tag_31:\n      tag_32\n      jump\t// in\n    tag_30:\n      mload(0x40)\n      tag_33\n      swap2\n      swap1\n      tag_20\n      jump\t// in\n    tag_33:\n      mload(0x40)\n      dup1\n      swap2\n      sub\n      swap1\n      return\n        /* \"contracts/EnumTest.sol\":2305:2397  function getOrderLength() external view returns (uint) {... */\n    tag_9:\n      tag_34\n      tag_35\n      jump\t// in\n    tag_34:\n      mload(0x40)\n      tag_36\n      swap2\n      swap1\n      tag_37\n      jump\t// in\n    tag_36:\n      mload(0x40)\n      dup1\n      swap2\n      sub\n      swap1\n      return\n        /* \"contracts/EnumTest.sol\":892:913  Order[] public orders */\n    tag_10:\n      tag_38\n      0x04\n      dup1\n      calldatasize\n      sub\n      dup2\n      add\n      swap1\n      tag_39\n      swap2\n      swap1\n      tag_15\n      jump\t// in\n    tag_39:\n      tag_40\n      jump\t// in\n    tag_38:\n      mload(0x40)\n      tag_41\n      swap3\n      swap2\n      swap1\n      tag_42\n      jump\t// in\n    tag_41:\n      mload(0x40)\n      dup1\n      swap2\n      sub\n      swap1\n      return\n        /* \"contracts/EnumTest.sol\":1976:2146  function completeOrder(uint orderId) external {... */\n    tag_11:\n      tag_43\n      0x04\n      dup1\n      calldatasize\n      sub\n      dup2\n      add\n      swap1\n      tag_44\n      swap2\n      swap1\n      tag_15\n      jump\t// in\n    tag_44:\n      tag_45\n      jump\t// in\n    tag_43:\n      stop\n        /* \"contracts/EnumTest.sol\":1806:1970  function shipOrder(uint orderId) external {... */\n    tag_16:\n        /* \"contracts/EnumTest.sol\":1876:1882  orders */\n      0x00\n        /* \"contracts/EnumTest.sol\":1876:1889  orders.length */\n      dup1\n      sload\n      swap1\n      pop\n        /* \"contracts/EnumTest.sol\":1866:1873  orderId */\n      dup2\n        /* \"contracts/EnumTest.sol\":1866:1889  orderId < orders.length */\n      lt\n        /* \"contracts/EnumTest.sol\":1858:1909  require(orderId < orders.length, \"order not exist\") */\n      tag_47\n      jumpi\n      mload(0x40)\n      0x08c379a000000000000000000000000000000000000000000000000000000000\n      dup2\n      mstore\n      0x04\n      add\n      tag_48\n      swap1\n      tag_49\n      jump\t// in\n    tag_48:\n      mload(0x40)\n      dup1\n      swap2\n      sub\n      swap1\n      revert\n    tag_47:\n        /* \"contracts/EnumTest.sol\":1944:1963  OrderStatus.Shipped */\n      0x02\n        /* \"contracts/EnumTest.sol\":1919:1925  orders */\n      0x00\n        /* \"contracts/EnumTest.sol\":1926:1933  orderId */\n      dup3\n        /* \"contracts/EnumTest.sol\":1919:1934  orders[orderId] */\n      dup2\n      sload\n      dup2\n      lt\n      tag_50\n      jumpi\n      tag_51\n      tag_52\n      jump\t// in\n    tag_51:\n    tag_50:\n      swap1\n      0x00\n      mstore\n      keccak256(0x00, 0x20)\n      add\n        /* \"contracts/EnumTest.sol\":1919:1941  orders[orderId].status */\n      0x00\n      add\n      0x14\n        /* \"contracts/EnumTest.sol\":1919:1963  orders[orderId].status = OrderStatus.Shipped */\n      0x0100\n      exp\n      dup2\n      sload\n      dup2\n      0xff\n      mul\n      not\n      and\n      swap1\n      dup4\n      0x05\n      dup2\n      gt\n      iszero\n      tag_54\n      jumpi\n      tag_55\n      tag_56\n      jump\t// in\n    tag_55:\n    tag_54:\n      mul\n      or\n      swap1\n      sstore\n      pop\n        /* \"contracts/EnumTest.sol\":1806:1970  function shipOrder(uint orderId) external {... */\n      pop\n      jump\t// out\n        /* \"contracts/EnumTest.sol\":919:944  OrderStatus public status */\n    tag_18:\n      0x01\n      0x00\n      swap1\n      sload\n      swap1\n      0x0100\n      exp\n      swap1\n      div\n      0xff\n      and\n      dup2\n      jump\t// out\n        /* \"contracts/EnumTest.sol\":951:1434  function addOrder() external {... */\n    tag_22:\n        /* \"contracts/EnumTest.sol\":990:1009  Order memory order1 */\n      0x00\n        /* \"contracts/EnumTest.sol\":1012:1050  Order(msg.sender, OrderStatus.Pending) */\n      mload(0x40)\n      dup1\n      0x40\n      add\n      0x40\n      mstore\n      dup1\n        /* \"contracts/EnumTest.sol\":1018:1028  msg.sender */\n      caller\n        /* \"contracts/EnumTest.sol\":1012:1050  Order(msg.sender, OrderStatus.Pending) */\n      0xffffffffffffffffffffffffffffffffffffffff\n      and\n      dup2\n      mstore\n      0x20\n      add\n        /* \"contracts/EnumTest.sol\":1030:1049  OrderStatus.Pending */\n      0x01\n        /* \"contracts/EnumTest.sol\":1012:1050  Order(msg.sender, OrderStatus.Pending) */\n      0x05\n      dup2\n      gt\n      iszero\n      tag_58\n      jumpi\n      tag_59\n      tag_56\n      jump\t// in\n    tag_59:\n    tag_58:\n      dup2\n      mstore\n      pop\n        /* \"contracts/EnumTest.sol\":990:1050  Order memory order1 = Order(msg.sender, OrderStatus.Pending) */\n      swap1\n      pop\n        /* \"contracts/EnumTest.sol\":1061:1080  Order memory order2 */\n      tag_60\n      tag_61\n      jump\t// in\n    tag_60:\n        /* \"contracts/EnumTest.sol\":1111:1112  2 */\n      0x02\n        /* \"contracts/EnumTest.sol\":1090:1096  order2 */\n      dup2\n        /* \"contracts/EnumTest.sol\":1090:1102  order2.buyer */\n      0x00\n      add\n        /* \"contracts/EnumTest.sol\":1090:1113  order2.buyer=address(2) */\n      swap1\n      0xffffffffffffffffffffffffffffffffffffffff\n      and\n      swap1\n      dup2\n      0xffffffffffffffffffffffffffffffffffffffff\n      and\n      dup2\n      mstore\n      pop\n      pop\n        /* \"contracts/EnumTest.sol\":1137:1158  OrderStatus.Completed */\n      0x03\n        /* \"contracts/EnumTest.sol\":1123:1129  order2 */\n      dup2\n        /* \"contracts/EnumTest.sol\":1123:1136  order2.status */\n      0x20\n      add\n        /* \"contracts/EnumTest.sol\":1123:1158  order2.status=OrderStatus.Completed */\n      swap1\n      0x05\n      dup2\n      gt\n      iszero\n      tag_62\n      jumpi\n      tag_63\n      tag_56\n      jump\t// in\n    tag_63:\n    tag_62:\n      swap1\n      dup2\n      0x05\n      dup2\n      gt\n      iszero\n      tag_64\n      jumpi\n      tag_65\n      tag_56\n      jump\t// in\n    tag_65:\n    tag_64:\n      dup2\n      mstore\n      pop\n      pop\n        /* \"contracts/EnumTest.sol\":1169:1188  Order memory order3 */\n      0x00\n        /* \"contracts/EnumTest.sol\":1189:1277  Order({... */\n      mload(0x40)\n      dup1\n      0x40\n      add\n      0x40\n      mstore\n      dup1\n        /* \"contracts/EnumTest.sol\":1223:1224  3 */\n      0x03\n        /* \"contracts/EnumTest.sol\":1189:1277  Order({... */\n      0xffffffffffffffffffffffffffffffffffffffff\n      and\n      dup2\n      mstore\n      0x20\n      add\n        /* \"contracts/EnumTest.sol\":1246:1266  OrderStatus.Rejected */\n      0x04\n        /* \"contracts/EnumTest.sol\":1189:1277  Order({... */\n      0x05\n      dup2\n      gt\n      iszero\n      tag_66\n      jumpi\n      tag_67\n      tag_56\n      jump\t// in\n    tag_67:\n    tag_66:\n      dup2\n      mstore\n      pop\n        /* \"contracts/EnumTest.sol\":1169:1277  Order memory order3=Order({... */\n      swap1\n      pop\n        /* \"contracts/EnumTest.sol\":1288:1294  orders */\n      0x00\n        /* \"contracts/EnumTest.sol\":1300:1306  order1 */\n      dup4\n        /* \"contracts/EnumTest.sol\":1288:1307  orders.push(order1) */\n      swap1\n      dup1\n      0x01\n      dup2\n      sload\n      add\n      dup1\n      dup3\n      sstore\n      dup1\n      swap2\n      pop\n      pop\n      0x01\n      swap1\n      sub\n      swap1\n      0x00\n      mstore\n      keccak256(0x00, 0x20)\n      add\n      0x00\n      swap1\n      swap2\n      swap1\n      swap2\n      swap1\n      swap2\n      pop\n      0x00\n      dup3\n      add\n      mload\n      dup2\n      0x00\n      add\n      exp(0x0100, 0x00)\n      dup2\n      sload\n      dup2\n      0xffffffffffffffffffffffffffffffffffffffff\n      mul\n      not\n      and\n      swap1\n      dup4\n      0xffffffffffffffffffffffffffffffffffffffff\n      and\n      mul\n      or\n      swap1\n      sstore\n      pop\n      0x20\n      dup3\n      add\n      mload\n      dup2\n      0x00\n      add\n      exp(0x0100, 0x14)\n      dup2\n      sload\n      dup2\n      0xff\n      mul\n      not\n      and\n      swap1\n      dup4\n      0x05\n      dup2\n      gt\n      iszero\n      tag_69\n      jumpi\n      tag_70\n      tag_56\n      jump\t// in\n    tag_70:\n    tag_69:\n      mul\n      or\n      swap1\n      sstore\n      pop\n      pop\n      pop\n        /* \"contracts/EnumTest.sol\":1317:1323  orders */\n      0x00\n        /* \"contracts/EnumTest.sol\":1329:1335  order2 */\n      dup3\n        /* \"contracts/EnumTest.sol\":1317:1336  orders.push(order2) */\n      swap1\n      dup1\n      0x01\n      dup2\n      sload\n      add\n      dup1\n      dup3\n      sstore\n      dup1\n      swap2\n      pop\n      pop\n      0x01\n      swap1\n      sub\n      swap1\n      0x00\n      mstore\n      keccak256(0x00, 0x20)\n      add\n      0x00\n      swap1\n      swap2\n      swap1\n      swap2\n      swap1\n      swap2\n      pop\n      0x00\n      dup3\n      add\n      mload\n      dup2\n      0x00\n      add\n      exp(0x0100, 0x00)\n      dup2\n      sload\n      dup2\n      0xffffffffffffffffffffffffffffffffffffffff\n      mul\n      not\n      and\n      swap1\n      dup4\n      0xffffffffffffffffffffffffffffffffffffffff\n      and\n      mul\n      or\n      swap1\n      sstore\n      pop\n      0x20\n      dup3\n      add\n      mload\n      dup2\n      0x00\n      add\n      exp(0x0100, 0x14)\n      dup2\n      sload\n      dup2\n      0xff\n      mul\n      not\n      and\n      swap1\n      dup4\n      0x05\n      dup2\n      gt\n      iszero\n      tag_72\n      jumpi\n      tag_73\n      tag_56\n      jump\t// in\n    tag_73:\n    tag_72:\n      mul\n      or\n      swap1\n      sstore\n      pop\n      pop\n      pop\n        /* \"contracts/EnumTest.sol\":1346:1352  orders */\n      0x00\n        /* \"contracts/EnumTest.sol\":1358:1364  order3 */\n      dup2\n        /* \"contracts/EnumTest.sol\":1346:1365  orders.push(order3) */\n      swap1\n      dup1\n      0x01\n      dup2\n      sload\n      add\n      dup1\n      dup3\n      sstore\n      dup1\n      swap2\n      pop\n      pop\n      0x01\n      swap1\n      sub\n      swap1\n      0x00\n      mstore\n      keccak256(0x00, 0x20)\n      add\n      0x00\n      swap1\n      swap2\n      swap1\n      swap2\n      swap1\n      swap2\n      pop\n      0x00\n      dup3\n      add\n      mload\n      dup2\n      0x00\n      add\n      exp(0x0100, 0x00)\n      dup2\n      sload\n      dup2\n      0xffffffffffffffffffffffffffffffffffffffff\n      mul\n      not\n      and\n      swap1\n      dup4\n      0xffffffffffffffffffffffffffffffffffffffff\n      and\n      mul\n      or\n      swap1\n      sstore\n      pop\n      0x20\n      dup3\n      add\n      mload\n      dup2\n      0x00\n      add\n      exp(0x0100, 0x14)\n      dup2\n      sload\n      dup2\n      0xff\n      mul\n      not\n      and\n      swap1\n      dup4\n      0x05\n      dup2\n      gt\n      iszero\n      tag_75\n      jumpi\n      tag_76\n      tag_56\n      jump\t// in\n    tag_76:\n    tag_75:\n      mul\n      or\n      swap1\n      sstore\n      pop\n      pop\n      pop\n        /* \"contracts/EnumTest.sol\":1375:1381  orders */\n      0x00\n        /* \"contracts/EnumTest.sol\":1387:1426  Order(address(4),OrderStatus.Cancelled) */\n      mload(0x40)\n      dup1\n      0x40\n      add\n      0x40\n      mstore\n      dup1\n        /* \"contracts/EnumTest.sol\":1401:1402  4 */\n      0x04\n        /* \"contracts/EnumTest.sol\":1387:1426  Order(address(4),OrderStatus.Cancelled) */\n      0xffffffffffffffffffffffffffffffffffffffff\n      and\n      dup2\n      mstore\n      0x20\n      add\n        /* \"contracts/EnumTest.sol\":1404:1425  OrderStatus.Cancelled */\n      0x05\n        /* \"contracts/EnumTest.sol\":1387:1426  Order(address(4),OrderStatus.Cancelled) */\n      dup1\n      dup2\n      gt\n      iszero\n      tag_77\n      jumpi\n      tag_78\n      tag_56\n      jump\t// in\n    tag_78:\n    tag_77:\n      dup2\n      mstore\n      pop\n        /* \"contracts/EnumTest.sol\":1375:1427  orders.push(Order(address(4),OrderStatus.Cancelled)) */\n      swap1\n      dup1\n      0x01\n      dup2\n      sload\n      add\n      dup1\n      dup3\n      sstore\n      dup1\n      swap2\n      pop\n      pop\n      0x01\n      swap1\n      sub\n      swap1\n      0x00\n      mstore\n      keccak256(0x00, 0x20)\n      add\n      0x00\n      swap1\n      swap2\n      swap1\n      swap2\n      swap1\n      swap2\n      pop\n      0x00\n      dup3\n      add\n      mload\n      dup2\n      0x00\n      add\n      exp(0x0100, 0x00)\n      dup2\n      sload\n      dup2\n      0xffffffffffffffffffffffffffffffffffffffff\n      mul\n      not\n      and\n      swap1\n      dup4\n      0xffffffffffffffffffffffffffffffffffffffff\n      and\n      mul\n      or\n      swap1\n      sstore\n      pop\n      0x20\n      dup3\n      add\n      mload\n      dup2\n      0x00\n      add\n      exp(0x0100, 0x14)\n      dup2\n      sload\n      dup2\n      0xff\n      mul\n      not\n      and\n      swap1\n      dup4\n      0x05\n      dup2\n      gt\n      iszero\n      tag_80\n      jumpi\n      tag_81\n      tag_56\n      jump\t// in\n    tag_81:\n    tag_80:\n      mul\n      or\n      swap1\n      sstore\n      pop\n      pop\n      pop\n        /* \"contracts/EnumTest.sol\":980:1434  {... */\n      pop\n      pop\n      pop\n        /* \"contracts/EnumTest.sol\":951:1434  function addOrder() external {... */\n      jump\t// out\n        /* \"contracts/EnumTest.sol\":2152:2299  function reset(uint orderId) external {... */\n    tag_25:\n        /* \"contracts/EnumTest.sol\":2218:2224  orders */\n      0x00\n        /* \"contracts/EnumTest.sol\":2218:2231  orders.length */\n      dup1\n      sload\n      swap1\n      pop\n        /* \"contracts/EnumTest.sol\":2208:2215  orderId */\n      dup2\n        /* \"contracts/EnumTest.sol\":2208:2231  orderId < orders.length */\n      lt\n        /* \"contracts/EnumTest.sol\":2200:2253  require(orderId < orders.length, \"orderId not exist\") */\n      tag_83\n      jumpi\n      mload(0x40)\n      0x08c379a000000000000000000000000000000000000000000000000000000000\n      dup2\n      mstore\n      0x04\n      add\n      tag_84\n      swap1\n      tag_85\n      jump\t// in\n    tag_84:\n      mload(0x40)\n      dup1\n      swap2\n      sub\n      swap1\n      revert\n    tag_83:\n        /* \"contracts/EnumTest.sol\":2270:2276  orders */\n      0x00\n        /* \"contracts/EnumTest.sol\":2277:2284  orderId */\n      dup2\n        /* \"contracts/EnumTest.sol\":2270:2285  orders[orderId] */\n      dup2\n      sload\n      dup2\n      lt\n      tag_86\n      jumpi\n      tag_87\n      tag_52\n      jump\t// in\n    tag_87:\n    tag_86:\n      swap1\n      0x00\n      mstore\n      keccak256(0x00, 0x20)\n      add\n        /* \"contracts/EnumTest.sol\":2270:2292  orders[orderId].status */\n      0x00\n      add\n      0x14\n        /* \"contracts/EnumTest.sol\":2263:2292  delete orders[orderId].status */\n      0x0100\n      exp\n      dup2\n      sload\n      swap1\n      0xff\n      mul\n      not\n      and\n      swap1\n      sstore\n        /* \"contracts/EnumTest.sol\":2152:2299  function reset(uint orderId) external {... */\n      pop\n      jump\t// out\n        /* \"contracts/EnumTest.sol\":1440:1618  function updateStatus(uint orderId, OrderStatus _status) external {... */\n    tag_29:\n        /* \"contracts/EnumTest.sol\":1534:1540  orders */\n      0x00\n        /* \"contracts/EnumTest.sol\":1534:1547  orders.length */\n      dup1\n      sload\n      swap1\n      pop\n        /* \"contracts/EnumTest.sol\":1524:1531  orderId */\n      dup3\n        /* \"contracts/EnumTest.sol\":1524:1547  orderId < orders.length */\n      lt\n        /* \"contracts/EnumTest.sol\":1516:1569  require(orderId < orders.length, \"orderId not exist\") */\n      tag_90\n      jumpi\n      mload(0x40)\n      0x08c379a000000000000000000000000000000000000000000000000000000000\n      dup2\n      mstore\n      0x04\n      add\n      tag_91\n      swap1\n      tag_85\n      jump\t// in\n    tag_91:\n      mload(0x40)\n      dup1\n      swap2\n      sub\n      swap1\n      revert\n    tag_90:\n        /* \"contracts/EnumTest.sol\":1604:1611  _status */\n      dup1\n        /* \"contracts/EnumTest.sol\":1579:1585  orders */\n      0x00\n        /* \"contracts/EnumTest.sol\":1586:1593  orderId */\n      dup4\n        /* \"contracts/EnumTest.sol\":1579:1594  orders[orderId] */\n      dup2\n      sload\n      dup2\n      lt\n      tag_92\n      jumpi\n      tag_93\n      tag_52\n      jump\t// in\n    tag_93:\n    tag_92:\n      swap1\n      0x00\n      mstore\n      keccak256(0x00, 0x20)\n      add\n        /* \"contracts/EnumTest.sol\":1579:1601  orders[orderId].status */\n      0x00\n      add\n      0x14\n        /* \"contracts/EnumTest.sol\":1579:1611  orders[orderId].status = _status */\n      0x0100\n      exp\n      dup2\n      sload\n      dup2\n      0xff\n      mul\n      not\n      and\n      swap1\n      dup4\n      0x05\n      dup2\n      gt\n      iszero\n      tag_95\n      jumpi\n      tag_96\n      tag_56\n      jump\t// in\n    tag_96:\n    tag_95:\n      mul\n      or\n      swap1\n      sstore\n      pop\n        /* \"contracts/EnumTest.sol\":1440:1618  function updateStatus(uint orderId, OrderStatus _status) external {... */\n      pop\n      pop\n      jump\t// out\n        /* \"contracts/EnumTest.sol\":1624:1800  function getStatus(uint orderId) external view returns (OrderStatus) {... */\n    tag_32:\n        /* \"contracts/EnumTest.sol\":1680:1691  OrderStatus */\n      0x00\n        /* \"contracts/EnumTest.sol\":1721:1727  orders */\n      dup1\n        /* \"contracts/EnumTest.sol\":1721:1734  orders.length */\n      dup1\n      sload\n      swap1\n      pop\n        /* \"contracts/EnumTest.sol\":1711:1718  orderId */\n      dup3\n        /* \"contracts/EnumTest.sol\":1711:1734  orderId < orders.length */\n      lt\n        /* \"contracts/EnumTest.sol\":1703:1754  require(orderId < orders.length, \"order not exist\") */\n      tag_98\n      jumpi\n      mload(0x40)\n      0x08c379a000000000000000000000000000000000000000000000000000000000\n      dup2\n      mstore\n      0x04\n      add\n      tag_99\n      swap1\n      tag_49\n      jump\t// in\n    tag_99:\n      mload(0x40)\n      dup1\n      swap2\n      sub\n      swap1\n      revert\n    tag_98:\n        /* \"contracts/EnumTest.sol\":1771:1777  orders */\n      0x00\n        /* \"contracts/EnumTest.sol\":1778:1785  orderId */\n      dup3\n        /* \"contracts/EnumTest.sol\":1771:1786  orders[orderId] */\n      dup2\n      sload\n      dup2\n      lt\n      tag_100\n      jumpi\n      tag_101\n      tag_52\n      jump\t// in\n    tag_101:\n    tag_100:\n      swap1\n      0x00\n      mstore\n      keccak256(0x00, 0x20)\n      add\n        /* \"contracts/EnumTest.sol\":1771:1793  orders[orderId].status */\n      0x00\n      add\n      0x14\n      swap1\n      sload\n      swap1\n      0x0100\n      exp\n      swap1\n      div\n      0xff\n      and\n        /* \"contracts/EnumTest.sol\":1764:1793  return orders[orderId].status */\n      swap1\n      pop\n        /* \"contracts/EnumTest.sol\":1624:1800  function getStatus(uint orderId) external view returns (OrderStatus) {... */\n      swap2\n      swap1\n      pop\n      jump\t// out\n        /* \"contracts/EnumTest.sol\":2305:2397  function getOrderLength() external view returns (uint) {... */\n    tag_35:\n        /* \"contracts/EnumTest.sol\":2354:2358  uint */\n      0x00\n        /* \"contracts/EnumTest.sol\":2377:2383  orders */\n      dup1\n        /* \"contracts/EnumTest.sol\":2377:2390  orders.length */\n      dup1\n      sload\n      swap1\n      pop\n        /* \"contracts/EnumTest.sol\":2370:2390  return orders.length */\n      swap1\n      pop\n        /* \"contracts/EnumTest.sol\":2305:2397  function getOrderLength() external view returns (uint) {... */\n      swap1\n      jump\t// out\n        /* \"contracts/EnumTest.sol\":892:913  Order[] public orders */\n    tag_40:\n      0x00\n      dup2\n      dup2\n      sload\n      dup2\n      lt\n      tag_104\n      jumpi\n      0x00\n      dup1\n      revert\n    tag_104:\n      swap1\n      0x00\n      mstore\n      keccak256(0x00, 0x20)\n      add\n      0x00\n      swap2\n      pop\n      swap1\n      pop\n      dup1\n      0x00\n      add\n      0x00\n      swap1\n      sload\n      swap1\n      0x0100\n      exp\n      swap1\n      div\n      0xffffffffffffffffffffffffffffffffffffffff\n      and\n      swap1\n      dup1\n      0x00\n      add\n      0x14\n      swap1\n      sload\n      swap1\n      0x0100\n      exp\n      swap1\n      div\n      0xff\n      and\n      swap1\n      pop\n      dup3\n      jump\t// out\n        /* \"contracts/EnumTest.sol\":1976:2146  function completeOrder(uint orderId) external {... */\n    tag_45:\n        /* \"contracts/EnumTest.sol\":2050:2056  orders */\n      0x00\n        /* \"contracts/EnumTest.sol\":2050:2063  orders.length */\n      dup1\n      sload\n      swap1\n      pop\n        /* \"contracts/EnumTest.sol\":2040:2047  orderId */\n      dup2\n        /* \"contracts/EnumTest.sol\":2040:2063  orderId < orders.length */\n      lt\n        /* \"contracts/EnumTest.sol\":2032:2083  require(orderId < orders.length, \"order not exist\") */\n      tag_107\n      jumpi\n      mload(0x40)\n      0x08c379a000000000000000000000000000000000000000000000000000000000\n      dup2\n      mstore\n      0x04\n      add\n      tag_108\n      swap1\n      tag_49\n      jump\t// in\n    tag_108:\n      mload(0x40)\n      dup1\n      swap2\n      sub\n      swap1\n      revert\n    tag_107:\n        /* \"contracts/EnumTest.sol\":2118:2139  OrderStatus.Completed */\n      0x03\n        /* \"contracts/EnumTest.sol\":2093:2099  orders */\n      0x00\n        /* \"contracts/EnumTest.sol\":2100:2107  orderId */\n      dup3\n        /* \"contracts/EnumTest.sol\":2093:2108  orders[orderId] */\n      dup2\n      sload\n      dup2\n      lt\n      tag_109\n      jumpi\n      tag_110\n      tag_52\n      jump\t// in\n    tag_110:\n    tag_109:\n      swap1\n      0x00\n      mstore\n      keccak256(0x00, 0x20)\n      add\n        /* \"contracts/EnumTest.sol\":2093:2115  orders[orderId].status */\n      0x00\n      add\n      0x14\n        /* \"contracts/EnumTest.sol\":2093:2139  orders[orderId].status = OrderStatus.Completed */\n      0x0100\n      exp\n      dup2\n      sload\n      dup2\n      0xff\n      mul\n      not\n      and\n      swap1\n      dup4\n      0x05\n      dup2\n      gt\n      iszero\n      tag_112\n      jumpi\n      tag_113\n      tag_56\n      jump\t// in\n    tag_113:\n    tag_112:\n      mul\n      or\n      swap1\n      sstore\n      pop\n        /* \"contracts/EnumTest.sol\":1976:2146  function completeOrder(uint orderId) external {... */\n      pop\n      jump\t// out\n    tag_61:\n      mload(0x40)\n      dup1\n      0x40\n      add\n      0x40\n      mstore\n      dup1\n      and(0xffffffffffffffffffffffffffffffffffffffff, 0x00)\n      dup2\n      mstore\n      0x20\n      add\n      0x00\n      0x05\n      dup2\n      gt\n      iszero\n      tag_114\n      jumpi\n      tag_115\n      tag_56\n      jump\t// in\n    tag_115:\n    tag_114:\n      dup2\n      mstore\n      pop\n      swap1\n      jump\t// out\n        /* \"#utility.yul\":7:172   */\n    tag_117:\n        /* \"#utility.yul\":66:71   */\n      0x00\n        /* \"#utility.yul\":104:110   */\n      dup2\n        /* \"#utility.yul\":91:111   */\n      calldataload\n        /* \"#utility.yul\":82:111   */\n      swap1\n      pop\n        /* \"#utility.yul\":120:166   */\n      tag_119\n        /* \"#utility.yul\":160:165   */\n      dup2\n        /* \"#utility.yul\":120:166   */\n      tag_120\n      jump\t// in\n    tag_119:\n        /* \"#utility.yul\":7:172   */\n      swap3\n      swap2\n      pop\n      pop\n      jump\t// out\n        /* \"#utility.yul\":178:317   */\n    tag_121:\n        /* \"#utility.yul\":224:229   */\n      0x00\n        /* \"#utility.yul\":262:268   */\n      dup2\n        /* \"#utility.yul\":249:269   */\n      calldataload\n        /* \"#utility.yul\":240:269   */\n      swap1\n      pop\n        /* \"#utility.yul\":278:311   */\n      tag_123\n        /* \"#utility.yul\":305:310   */\n      dup2\n        /* \"#utility.yul\":278:311   */\n      tag_124\n      jump\t// in\n    tag_123:\n        /* \"#utility.yul\":178:317   */\n      swap3\n      swap2\n      pop\n      pop\n      jump\t// out\n        /* \"#utility.yul\":323:652   */\n    tag_15:\n        /* \"#utility.yul\":382:388   */\n      0x00\n        /* \"#utility.yul\":431:433   */\n      0x20\n        /* \"#utility.yul\":419:428   */\n      dup3\n        /* \"#utility.yul\":410:417   */\n      dup5\n        /* \"#utility.yul\":406:429   */\n      sub\n        /* \"#utility.yul\":402:434   */\n      slt\n        /* \"#utility.yul\":399:518   */\n      iszero\n      tag_126\n      jumpi\n        /* \"#utility.yul\":437:516   */\n      tag_127\n      tag_128\n      jump\t// in\n    tag_127:\n        /* \"#utility.yul\":399:518   */\n    tag_126:\n        /* \"#utility.yul\":557:558   */\n      0x00\n        /* \"#utility.yul\":582:635   */\n      tag_129\n        /* \"#utility.yul\":627:634   */\n      dup5\n        /* \"#utility.yul\":618:624   */\n      dup3\n        /* \"#utility.yul\":607:616   */\n      dup6\n        /* \"#utility.yul\":603:625   */\n      add\n        /* \"#utility.yul\":582:635   */\n      tag_121\n      jump\t// in\n    tag_129:\n        /* \"#utility.yul\":572:635   */\n      swap2\n      pop\n        /* \"#utility.yul\":528:645   */\n      pop\n        /* \"#utility.yul\":323:652   */\n      swap3\n      swap2\n      pop\n      pop\n      jump\t// out\n        /* \"#utility.yul\":658:1158   */\n    tag_28:\n        /* \"#utility.yul\":739:745   */\n      0x00\n        /* \"#utility.yul\":747:753   */\n      dup1\n        /* \"#utility.yul\":796:798   */\n      0x40\n        /* \"#utility.yul\":784:793   */\n      dup4\n        /* \"#utility.yul\":775:782   */\n      dup6\n        /* \"#utility.yul\":771:794   */\n      sub\n        /* \"#utility.yul\":767:799   */\n      slt\n        /* \"#utility.yul\":764:883   */\n      iszero\n      tag_131\n      jumpi\n        /* \"#utility.yul\":802:881   */\n      tag_132\n      tag_128\n      jump\t// in\n    tag_132:\n        /* \"#utility.yul\":764:883   */\n    tag_131:\n        /* \"#utility.yul\":922:923   */\n      0x00\n        /* \"#utility.yul\":947:1000   */\n      tag_133\n        /* \"#utility.yul\":992:999   */\n      dup6\n        /* \"#utility.yul\":983:989   */\n      dup3\n        /* \"#utility.yul\":972:981   */\n      dup7\n        /* \"#utility.yul\":968:990   */\n      add\n        /* \"#utility.yul\":947:1000   */\n      tag_121\n      jump\t// in\n    tag_133:\n        /* \"#utility.yul\":937:1000   */\n      swap3\n      pop\n        /* \"#utility.yul\":893:1010   */\n      pop\n        /* \"#utility.yul\":1049:1051   */\n      0x20\n        /* \"#utility.yul\":1075:1141   */\n      tag_134\n        /* \"#utility.yul\":1133:1140   */\n      dup6\n        /* \"#utility.yul\":1124:1130   */\n      dup3\n        /* \"#utility.yul\":1113:1122   */\n      dup7\n        /* \"#utility.yul\":1109:1131   */\n      add\n        /* \"#utility.yul\":1075:1141   */\n      tag_117\n      jump\t// in\n    tag_134:\n        /* \"#utility.yul\":1065:1141   */\n      swap2\n      pop\n        /* \"#utility.yul\":1020:1151   */\n      pop\n        /* \"#utility.yul\":658:1158   */\n      swap3\n      pop\n      swap3\n      swap1\n      pop\n      jump\t// out\n        /* \"#utility.yul\":1164:1282   */\n    tag_135:\n        /* \"#utility.yul\":1251:1275   */\n      tag_137\n        /* \"#utility.yul\":1269:1274   */\n      dup2\n        /* \"#utility.yul\":1251:1275   */\n      tag_138\n      jump\t// in\n    tag_137:\n        /* \"#utility.yul\":1246:1249   */\n      dup3\n        /* \"#utility.yul\":1239:1276   */\n      mstore\n        /* \"#utility.yul\":1164:1282   */\n      pop\n      pop\n      jump\t// out\n        /* \"#utility.yul\":1288:1441   */\n    tag_139:\n        /* \"#utility.yul\":1386:1434   */\n      tag_141\n        /* \"#utility.yul\":1428:1433   */\n      dup2\n        /* \"#utility.yul\":1386:1434   */\n      tag_142\n      jump\t// in\n    tag_141:\n        /* \"#utility.yul\":1381:1384   */\n      dup3\n        /* \"#utility.yul\":1374:1435   */\n      mstore\n        /* \"#utility.yul\":1288:1441   */\n      pop\n      pop\n      jump\t// out\n        /* \"#utility.yul\":1447:1813   */\n    tag_143:\n        /* \"#utility.yul\":1589:1592   */\n      0x00\n        /* \"#utility.yul\":1610:1677   */\n      tag_145\n        /* \"#utility.yul\":1674:1676   */\n      0x11\n        /* \"#utility.yul\":1669:1672   */\n      dup4\n        /* \"#utility.yul\":1610:1677   */\n      tag_146\n      jump\t// in\n    tag_145:\n        /* \"#utility.yul\":1603:1677   */\n      swap2\n      pop\n        /* \"#utility.yul\":1686:1779   */\n      tag_147\n        /* \"#utility.yul\":1775:1778   */\n      dup3\n        /* \"#utility.yul\":1686:1779   */\n      tag_148\n      jump\t// in\n    tag_147:\n        /* \"#utility.yul\":1804:1806   */\n      0x20\n        /* \"#utility.yul\":1799:1802   */\n      dup3\n        /* \"#utility.yul\":1795:1807   */\n      add\n        /* \"#utility.yul\":1788:1807   */\n      swap1\n      pop\n        /* \"#utility.yul\":1447:1813   */\n      swap2\n      swap1\n      pop\n      jump\t// out\n        /* \"#utility.yul\":1819:2185   */\n    tag_149:\n        /* \"#utility.yul\":1961:1964   */\n      0x00\n        /* \"#utility.yul\":1982:2049   */\n      tag_151\n        /* \"#utility.yul\":2046:2048   */\n      0x0f\n        /* \"#utility.yul\":2041:2044   */\n      dup4\n        /* \"#utility.yul\":1982:2049   */\n      tag_146\n      jump\t// in\n    tag_151:\n        /* \"#utility.yul\":1975:2049   */\n      swap2\n      pop\n        /* \"#utility.yul\":2058:2151   */\n      tag_152\n        /* \"#utility.yul\":2147:2150   */\n      dup3\n        /* \"#utility.yul\":2058:2151   */\n      tag_153\n      jump\t// in\n    tag_152:\n        /* \"#utility.yul\":2176:2178   */\n      0x20\n        /* \"#utility.yul\":2171:2174   */\n      dup3\n        /* \"#utility.yul\":2167:2179   */\n      add\n        /* \"#utility.yul\":2160:2179   */\n      swap1\n      pop\n        /* \"#utility.yul\":1819:2185   */\n      swap2\n      swap1\n      pop\n      jump\t// out\n        /* \"#utility.yul\":2191:2309   */\n    tag_154:\n        /* \"#utility.yul\":2278:2302   */\n      tag_156\n        /* \"#utility.yul\":2296:2301   */\n      dup2\n        /* \"#utility.yul\":2278:2302   */\n      tag_157\n      jump\t// in\n    tag_156:\n        /* \"#utility.yul\":2273:2276   */\n      dup3\n        /* \"#utility.yul\":2266:2303   */\n      mstore\n        /* \"#utility.yul\":2191:2309   */\n      pop\n      pop\n      jump\t// out\n        /* \"#utility.yul\":2315:2669   */\n    tag_42:\n        /* \"#utility.yul\":2447:2451   */\n      0x00\n        /* \"#utility.yul\":2485:2487   */\n      0x40\n        /* \"#utility.yul\":2474:2483   */\n      dup3\n        /* \"#utility.yul\":2470:2488   */\n      add\n        /* \"#utility.yul\":2462:2488   */\n      swap1\n      pop\n        /* \"#utility.yul\":2498:2569   */\n      tag_159\n        /* \"#utility.yul\":2566:2567   */\n      0x00\n        /* \"#utility.yul\":2555:2564   */\n      dup4\n        /* \"#utility.yul\":2551:2568   */\n      add\n        /* \"#utility.yul\":2542:2548   */\n      dup6\n        /* \"#utility.yul\":2498:2569   */\n      tag_135\n      jump\t// in\n    tag_159:\n        /* \"#utility.yul\":2579:2662   */\n      tag_160\n        /* \"#utility.yul\":2658:2660   */\n      0x20\n        /* \"#utility.yul\":2647:2656   */\n      dup4\n        /* \"#utility.yul\":2643:2661   */\n      add\n        /* \"#utility.yul\":2634:2640   */\n      dup5\n        /* \"#utility.yul\":2579:2662   */\n      tag_139\n      jump\t// in\n    tag_160:\n        /* \"#utility.yul\":2315:2669   */\n      swap4\n      swap3\n      pop\n      pop\n      pop\n      jump\t// out\n        /* \"#utility.yul\":2675:2919   */\n    tag_20:\n        /* \"#utility.yul\":2779:2783   */\n      0x00\n        /* \"#utility.yul\":2817:2819   */\n      0x20\n        /* \"#utility.yul\":2806:2815   */\n      dup3\n        /* \"#utility.yul\":2802:2820   */\n      add\n        /* \"#utility.yul\":2794:2820   */\n      swap1\n      pop\n        /* \"#utility.yul\":2830:2912   */\n      tag_162\n        /* \"#utility.yul\":2909:2910   */\n      0x00\n        /* \"#utility.yul\":2898:2907   */\n      dup4\n        /* \"#utility.yul\":2894:2911   */\n      add\n        /* \"#utility.yul\":2885:2891   */\n      dup5\n        /* \"#utility.yul\":2830:2912   */\n      tag_139\n      jump\t// in\n    tag_162:\n        /* \"#utility.yul\":2675:2919   */\n      swap3\n      swap2\n      pop\n      pop\n      jump\t// out\n        /* \"#utility.yul\":2925:3344   */\n    tag_85:\n        /* \"#utility.yul\":3091:3095   */\n      0x00\n        /* \"#utility.yul\":3129:3131   */\n      0x20\n        /* \"#utility.yul\":3118:3127   */\n      dup3\n        /* \"#utility.yul\":3114:3132   */\n      add\n        /* \"#utility.yul\":3106:3132   */\n      swap1\n      pop\n        /* \"#utility.yul\":3178:3187   */\n      dup2\n        /* \"#utility.yul\":3172:3176   */\n      dup2\n        /* \"#utility.yul\":3168:3188   */\n      sub\n        /* \"#utility.yul\":3164:3165   */\n      0x00\n        /* \"#utility.yul\":3153:3162   */\n      dup4\n        /* \"#utility.yul\":3149:3166   */\n      add\n        /* \"#utility.yul\":3142:3189   */\n      mstore\n        /* \"#utility.yul\":3206:3337   */\n      tag_164\n        /* \"#utility.yul\":3332:3336   */\n      dup2\n        /* \"#utility.yul\":3206:3337   */\n      tag_143\n      jump\t// in\n    tag_164:\n        /* \"#utility.yul\":3198:3337   */\n      swap1\n      pop\n        /* \"#utility.yul\":2925:3344   */\n      swap2\n      swap1\n      pop\n      jump\t// out\n        /* \"#utility.yul\":3350:3769   */\n    tag_49:\n        /* \"#utility.yul\":3516:3520   */\n      0x00\n        /* \"#utility.yul\":3554:3556   */\n      0x20\n        /* \"#utility.yul\":3543:3552   */\n      dup3\n        /* \"#utility.yul\":3539:3557   */\n      add\n        /* \"#utility.yul\":3531:3557   */\n      swap1\n      pop\n        /* \"#utility.yul\":3603:3612   */\n      dup2\n        /* \"#utility.yul\":3597:3601   */\n      dup2\n        /* \"#utility.yul\":3593:3613   */\n      sub\n        /* \"#utility.yul\":3589:3590   */\n      0x00\n        /* \"#utility.yul\":3578:3587   */\n      dup4\n        /* \"#utility.yul\":3574:3591   */\n      add\n        /* \"#utility.yul\":3567:3614   */\n      mstore\n        /* \"#utility.yul\":3631:3762   */\n      tag_166\n        /* \"#utility.yul\":3757:3761   */\n      dup2\n        /* \"#utility.yul\":3631:3762   */\n      tag_149\n      jump\t// in\n    tag_166:\n        /* \"#utility.yul\":3623:3762   */\n      swap1\n      pop\n        /* \"#utility.yul\":3350:3769   */\n      swap2\n      swap1\n      pop\n      jump\t// out\n        /* \"#utility.yul\":3775:3997   */\n    tag_37:\n        /* \"#utility.yul\":3868:3872   */\n      0x00\n        /* \"#utility.yul\":3906:3908   */\n      0x20\n        /* \"#utility.yul\":3895:3904   */\n      dup3\n        /* \"#utility.yul\":3891:3909   */\n      add\n        /* \"#utility.yul\":3883:3909   */\n      swap1\n      pop\n        /* \"#utility.yul\":3919:3990   */\n      tag_168\n        /* \"#utility.yul\":3987:3988   */\n      0x00\n        /* \"#utility.yul\":3976:3985   */\n      dup4\n        /* \"#utility.yul\":3972:3989   */\n      add\n        /* \"#utility.yul\":3963:3969   */\n      dup5\n        /* \"#utility.yul\":3919:3990   */\n      tag_154\n      jump\t// in\n    tag_168:\n        /* \"#utility.yul\":3775:3997   */\n      swap3\n      swap2\n      pop\n      pop\n      jump\t// out\n        /* \"#utility.yul\":4084:4253   */\n    tag_146:\n        /* \"#utility.yul\":4168:4179   */\n      0x00\n        /* \"#utility.yul\":4202:4208   */\n      dup3\n        /* \"#utility.yul\":4197:4200   */\n      dup3\n        /* \"#utility.yul\":4190:4209   */\n      mstore\n        /* \"#utility.yul\":4242:4246   */\n      0x20\n        /* \"#utility.yul\":4237:4240   */\n      dup3\n        /* \"#utility.yul\":4233:4247   */\n      add\n        /* \"#utility.yul\":4218:4247   */\n      swap1\n      pop\n        /* \"#utility.yul\":4084:4253   */\n      swap3\n      swap2\n      pop\n      pop\n      jump\t// out\n        /* \"#utility.yul\":4259:4355   */\n    tag_138:\n        /* \"#utility.yul\":4296:4303   */\n      0x00\n        /* \"#utility.yul\":4325:4349   */\n      tag_173\n        /* \"#utility.yul\":4343:4348   */\n      dup3\n        /* \"#utility.yul\":4325:4349   */\n      tag_174\n      jump\t// in\n    tag_173:\n        /* \"#utility.yul\":4314:4349   */\n      swap1\n      pop\n        /* \"#utility.yul\":4259:4355   */\n      swap2\n      swap1\n      pop\n      jump\t// out\n        /* \"#utility.yul\":4361:4498   */\n    tag_175:\n        /* \"#utility.yul\":4411:4418   */\n      0x00\n        /* \"#utility.yul\":4440:4445   */\n      dup2\n        /* \"#utility.yul\":4429:4445   */\n      swap1\n      pop\n        /* \"#utility.yul\":4446:4492   */\n      tag_177\n        /* \"#utility.yul\":4486:4491   */\n      dup3\n        /* \"#utility.yul\":4446:4492   */\n      tag_178\n      jump\t// in\n    tag_177:\n        /* \"#utility.yul\":4361:4498   */\n      swap2\n      swap1\n      pop\n      jump\t// out\n        /* \"#utility.yul\":4504:4630   */\n    tag_174:\n        /* \"#utility.yul\":4541:4548   */\n      0x00\n        /* \"#utility.yul\":4581:4623   */\n      0xffffffffffffffffffffffffffffffffffffffff\n        /* \"#utility.yul\":4574:4579   */\n      dup3\n        /* \"#utility.yul\":4570:4624   */\n      and\n        /* \"#utility.yul\":4559:4624   */\n      swap1\n      pop\n        /* \"#utility.yul\":4504:4630   */\n      swap2\n      swap1\n      pop\n      jump\t// out\n        /* \"#utility.yul\":4636:4713   */\n    tag_157:\n        /* \"#utility.yul\":4673:4680   */\n      0x00\n        /* \"#utility.yul\":4702:4707   */\n      dup2\n        /* \"#utility.yul\":4691:4707   */\n      swap1\n      pop\n        /* \"#utility.yul\":4636:4713   */\n      swap2\n      swap1\n      pop\n      jump\t// out\n        /* \"#utility.yul\":4719:4856   */\n    tag_142:\n        /* \"#utility.yul\":4780:4789   */\n      0x00\n        /* \"#utility.yul\":4813:4850   */\n      tag_182\n        /* \"#utility.yul\":4844:4849   */\n      dup3\n        /* \"#utility.yul\":4813:4850   */\n      tag_175\n      jump\t// in\n    tag_182:\n        /* \"#utility.yul\":4800:4850   */\n      swap1\n      pop\n        /* \"#utility.yul\":4719:4856   */\n      swap2\n      swap1\n      pop\n      jump\t// out\n        /* \"#utility.yul\":4862:5042   */\n    tag_56:\n        /* \"#utility.yul\":4910:4987   */\n      0x4e487b7100000000000000000000000000000000000000000000000000000000\n        /* \"#utility.yul\":4907:4908   */\n      0x00\n        /* \"#utility.yul\":4900:4988   */\n      mstore\n        /* \"#utility.yul\":5007:5011   */\n      0x21\n        /* \"#utility.yul\":5004:5005   */\n      0x04\n        /* \"#utility.yul\":4997:5012   */\n      mstore\n        /* \"#utility.yul\":5031:5035   */\n      0x24\n        /* \"#utility.yul\":5028:5029   */\n      0x00\n        /* \"#utility.yul\":5021:5036   */\n      revert\n        /* \"#utility.yul\":5048:5228   */\n    tag_52:\n        /* \"#utility.yul\":5096:5173   */\n      0x4e487b7100000000000000000000000000000000000000000000000000000000\n        /* \"#utility.yul\":5093:5094   */\n      0x00\n        /* \"#utility.yul\":5086:5174   */\n      mstore\n        /* \"#utility.yul\":5193:5197   */\n      0x32\n        /* \"#utility.yul\":5190:5191   */\n      0x04\n        /* \"#utility.yul\":5183:5198   */\n      mstore\n        /* \"#utility.yul\":5217:5221   */\n      0x24\n        /* \"#utility.yul\":5214:5215   */\n      0x00\n        /* \"#utility.yul\":5207:5222   */\n      revert\n        /* \"#utility.yul\":5357:5474   */\n    tag_128:\n        /* \"#utility.yul\":5466:5467   */\n      0x00\n        /* \"#utility.yul\":5463:5464   */\n      dup1\n        /* \"#utility.yul\":5456:5468   */\n      revert\n        /* \"#utility.yul\":5480:5647   */\n    tag_148:\n        /* \"#utility.yul\":5620:5639   */\n      0x6f726465724964206e6f74206578697374000000000000000000000000000000\n        /* \"#utility.yul\":5616:5617   */\n      0x00\n        /* \"#utility.yul\":5608:5614   */\n      dup3\n        /* \"#utility.yul\":5604:5618   */\n      add\n        /* \"#utility.yul\":5597:5640   */\n      mstore\n        /* \"#utility.yul\":5480:5647   */\n      pop\n      jump\t// out\n        /* \"#utility.yul\":5653:5818   */\n    tag_153:\n        /* \"#utility.yul\":5793:5810   */\n      0x6f72646572206e6f742065786973740000000000000000000000000000000000\n        /* \"#utility.yul\":5789:5790   */\n      0x00\n        /* \"#utility.yul\":5781:5787   */\n      dup3\n        /* \"#utility.yul\":5777:5791   */\n      add\n        /* \"#utility.yul\":5770:5811   */\n      mstore\n        /* \"#utility.yul\":5653:5818   */\n      pop\n      jump\t// out\n        /* \"#utility.yul\":5824:5942   */\n    tag_178:\n        /* \"#utility.yul\":5910:5911   */\n      0x06\n        /* \"#utility.yul\":5903:5908   */\n      dup2\n        /* \"#utility.yul\":5900:5912   */\n      lt\n        /* \"#utility.yul\":5890:5936   */\n      tag_191\n      jumpi\n        /* \"#utility.yul\":5916:5934   */\n      tag_192\n      tag_56\n      jump\t// in\n    tag_192:\n        /* \"#utility.yul\":5890:5936   */\n    tag_191:\n        /* \"#utility.yul\":5824:5942   */\n      pop\n      jump\t// out\n        /* \"#utility.yul\":5948:6060   */\n    tag_120:\n        /* \"#utility.yul\":6034:6035   */\n      0x06\n        /* \"#utility.yul\":6027:6032   */\n      dup2\n        /* \"#utility.yul\":6024:6036   */\n      lt\n        /* \"#utility.yul\":6014:6054   */\n      tag_194\n      jumpi\n        /* \"#utility.yul\":6050:6051   */\n      0x00\n        /* \"#utility.yul\":6047:6048   */\n      dup1\n        /* \"#utility.yul\":6040:6052   */\n      revert\n        /* \"#utility.yul\":6014:6054   */\n    tag_194:\n        /* \"#utility.yul\":5948:6060   */\n      pop\n      jump\t// out\n        /* \"#utility.yul\":6066:6188   */\n    tag_124:\n        /* \"#utility.yul\":6139:6163   */\n      tag_196\n        /* \"#utility.yul\":6157:6162   */\n      dup2\n        /* \"#utility.yul\":6139:6163   */\n      tag_157\n      jump\t// in\n    tag_196:\n        /* \"#utility.yul\":6132:6137   */\n      dup2\n        /* \"#utility.yul\":6129:6164   */\n      eq\n        /* \"#utility.yul\":6119:6182   */\n      tag_197\n      jumpi\n        /* \"#utility.yul\":6178:6179   */\n      0x00\n        /* \"#utility.yul\":6175:6176   */\n      dup1\n        /* \"#utility.yul\":6168:6180   */\n      revert\n        /* \"#utility.yul\":6119:6182   */\n    tag_197:\n        /* \"#utility.yul\":6066:6188   */\n      pop\n      jump\t// out\n\n    auxdata: 0xa2646970667358221220ea4120ae29e464f7bdc892e3e4d974495e53885fe04c6e180898f97726cebe0564736f6c63430008070033\n}\n",
				"bytecode": {
					"linkReferences": {},
					"object": "608060405234801561001057600080fd5b50610c20806100206000396000f3fe608060405234801561001057600080fd5b50600436106100935760003560e01c80633a1b3d31116100665780633a1b3d31146100f85780635c622a0e146101145780639d4971b714610144578063a85c38ef14610162578063b6adaaff1461019357610093565b8063194c302c14610098578063200d2ed2146100b45780632035a264146100d2578063310bd74b146100dc575b600080fd5b6100b260048036038101906100ad9190610909565b6101af565b005b6100bc610243565b6040516100c99190610a12565b60405180910390f35b6100da610256565b005b6100f660048036038101906100f19190610909565b610613565b005b610112600480360381019061010d9190610936565b61068e565b005b61012e60048036038101906101299190610909565b610722565b60405161013b9190610a12565b60405180910390f35b61014c6107a0565b6040516101599190610a6d565b60405180910390f35b61017c60048036038101906101779190610909565b6107ac565b60405161018a9291906109e9565b60405180910390f35b6101ad60048036038101906101a89190610909565b610809565b005b60008054905081106101f6576040517f08c379a00000000000000000000000000000000000000000000000000000000081526004016101ed90610a4d565b60405180910390fd5b60026000828154811061020c5761020b610b29565b5b9060005260206000200160000160146101000a81548160ff0219169083600581111561023b5761023a610afa565b5b021790555050565b600160009054906101000a900460ff1681565b600060405180604001604052803373ffffffffffffffffffffffffffffffffffffffff1681526020016001600581111561029357610292610afa565b5b81525090506102a061089d565b6002816000019073ffffffffffffffffffffffffffffffffffffffff16908173ffffffffffffffffffffffffffffffffffffffff16815250506003816020019060058111156102f2576102f1610afa565b5b9081600581111561030657610305610afa565b5b8152505060006040518060400160405280600373ffffffffffffffffffffffffffffffffffffffff1681526020016004600581111561034857610347610afa565b5b81525090506000839080600181540180825580915050600190039060005260206000200160009091909190915060008201518160000160006101000a81548173ffffffffffffffffffffffffffffffffffffffff021916908373ffffffffffffffffffffffffffffffffffffffff16021790555060208201518160000160146101000a81548160ff021916908360058111156103e7576103e6610afa565b5b021790555050506000829080600181540180825580915050600190039060005260206000200160009091909190915060008201518160000160006101000a81548173ffffffffffffffffffffffffffffffffffffffff021916908373ffffffffffffffffffffffffffffffffffffffff16021790555060208201518160000160146101000a81548160ff0219169083600581111561048857610487610afa565b5b021790555050506000819080600181540180825580915050600190039060005260206000200160009091909190915060008201518160000160006101000a81548173ffffffffffffffffffffffffffffffffffffffff021916908373ffffffffffffffffffffffffffffffffffffffff16021790555060208201518160000160146101000a81548160ff0219169083600581111561052957610528610afa565b5b0217905550505060006040518060400160405280600473ffffffffffffffffffffffffffffffffffffffff16815260200160058081111561056d5761056c610afa565b5b8152509080600181540180825580915050600190039060005260206000200160009091909190915060008201518160000160006101000a81548173ffffffffffffffffffffffffffffffffffffffff021916908373ffffffffffffffffffffffffffffffffffffffff16021790555060208201518160000160146101000a81548160ff0219169083600581111561060757610606610afa565b5b02179055505050505050565b600080549050811061065a576040517f08c379a000000000000000000000000000000000000000000000000000000000815260040161065190610a2d565b60405180910390fd5b6000818154811061066e5761066d610b29565b5b9060005260206000200160000160146101000a81549060ff021916905550565b60008054905082106106d5576040517f08c379a00000000000000000000000000000000000000000000000000000000081526004016106cc90610a2d565b60405180910390fd5b80600083815481106106ea576106e9610b29565b5b9060005260206000200160000160146101000a81548160ff0219169083600581111561071957610718610afa565b5b02179055505050565b60008080549050821061076a576040517f08c379a000000000000000000000000000000000000000000000000000000000815260040161076190610a4d565b60405180910390fd5b6000828154811061077e5761077d610b29565b5b9060005260206000200160000160149054906101000a900460ff169050919050565b60008080549050905090565b600081815481106107bc57600080fd5b906000526020600020016000915090508060000160009054906101000a900473ffffffffffffffffffffffffffffffffffffffff16908060000160149054906101000a900460ff16905082565b6000805490508110610850576040517f08c379a000000000000000000000000000000000000000000000000000000000815260040161084790610a4d565b60405180910390fd5b60036000828154811061086657610865610b29565b5b9060005260206000200160000160146101000a81548160ff0219169083600581111561089557610894610afa565b5b021790555050565b6040518060400160405280600073ffffffffffffffffffffffffffffffffffffffff168152602001600060058111156108d9576108d8610afa565b5b81525090565b6000813590506108ee81610bc3565b92915050565b60008135905061090381610bd3565b92915050565b60006020828403121561091f5761091e610b58565b5b600061092d848285016108f4565b91505092915050565b6000806040838503121561094d5761094c610b58565b5b600061095b858286016108f4565b925050602061096c858286016108df565b9150509250929050565b61097f81610a99565b82525050565b61098e81610ae8565b82525050565b60006109a1601183610a88565b91506109ac82610b5d565b602082019050919050565b60006109c4600f83610a88565b91506109cf82610b86565b602082019050919050565b6109e381610ade565b82525050565b60006040820190506109fe6000830185610976565b610a0b6020830184610985565b9392505050565b6000602082019050610a276000830184610985565b92915050565b60006020820190508181036000830152610a4681610994565b9050919050565b60006020820190508181036000830152610a66816109b7565b9050919050565b6000602082019050610a8260008301846109da565b92915050565b600082825260208201905092915050565b6000610aa482610abe565b9050919050565b6000819050610ab982610baf565b919050565b600073ffffffffffffffffffffffffffffffffffffffff82169050919050565b6000819050919050565b6000610af382610aab565b9050919050565b7f4e487b7100000000000000000000000000000000000000000000000000000000600052602160045260246000fd5b7f4e487b7100000000000000000000000000000000000000000000000000000000600052603260045260246000fd5b600080fd5b7f6f726465724964206e6f74206578697374000000000000000000000000000000600082015250565b7f6f72646572206e6f742065786973740000000000000000000000000000000000600082015250565b60068110610bc057610bbf610afa565b5b50565b60068110610bd057600080fd5b50565b610bdc81610ade565b8114610be757600080fd5b5056fea2646970667358221220ea4120ae29e464f7bdc892e3e4d974495e53885fe04c6e180898f97726cebe0564736f6c63430008070033",
					"opcodes": "PUSH1 0x80 PUSH1 0x40 MSTORE CALLVALUE DUP1 ISZERO PUSH2 0x10 JUMPI PUSH1 0x0 DUP1 REVERT JUMPDEST POP PUSH2 0xC20 DUP1 PUSH2 0x20 PUSH1 0x0 CODECOPY PUSH1 0x0 RETURN INVALID PUSH1 0x80 PUSH1 0x40 MSTORE CALLVALUE DUP1 ISZERO PUSH2 0x10 JUMPI PUSH1 0x0 DUP1 REVERT JUMPDEST POP PUSH1 0x4 CALLDATASIZE LT PUSH2 0x93 JUMPI PUSH1 0x0 CALLDATALOAD PUSH1 0xE0 SHR DUP1 PUSH4 0x3A1B3D31 GT PUSH2 0x66 JUMPI DUP1 PUSH4 0x3A1B3D31 EQ PUSH2 0xF8 JUMPI DUP1 PUSH4 0x5C622A0E EQ PUSH2 0x114 JUMPI DUP1 PUSH4 0x9D4971B7 EQ PUSH2 0x144 JUMPI DUP1 PUSH4 0xA85C38EF EQ PUSH2 0x162 JUMPI DUP1 PUSH4 0xB6ADAAFF EQ PUSH2 0x193 JUMPI PUSH2 0x93 JUMP JUMPDEST DUP1 PUSH4 0x194C302C EQ PUSH2 0x98 JUMPI DUP1 PUSH4 0x200D2ED2 EQ PUSH2 0xB4 JUMPI DUP1 PUSH4 0x2035A264 EQ PUSH2 0xD2 JUMPI DUP1 PUSH4 0x310BD74B EQ PUSH2 0xDC JUMPI JUMPDEST PUSH1 0x0 DUP1 REVERT JUMPDEST PUSH2 0xB2 PUSH1 0x4 DUP1 CALLDATASIZE SUB DUP2 ADD SWAP1 PUSH2 0xAD SWAP2 SWAP1 PUSH2 0x909 JUMP JUMPDEST PUSH2 0x1AF JUMP JUMPDEST STOP JUMPDEST PUSH2 0xBC PUSH2 0x243 JUMP JUMPDEST PUSH1 0x40 MLOAD PUSH2 0xC9 SWAP2 SWAP1 PUSH2 0xA12 JUMP JUMPDEST PUSH1 0x40 MLOAD DUP1 SWAP2 SUB SWAP1 RETURN JUMPDEST PUSH2 0xDA PUSH2 0x256 JUMP JUMPDEST STOP JUMPDEST PUSH2 0xF6 PUSH1 0x4 DUP1 CALLDATASIZE SUB DUP2 ADD SWAP1 PUSH2 0xF1 SWAP2 SWAP1 PUSH2 0x909 JUMP JUMPDEST PUSH2 0x613 JUMP JUMPDEST STOP JUMPDEST PUSH2 0x112 PUSH1 0x4 DUP1 CALLDATASIZE SUB DUP2 ADD SWAP1 PUSH2 0x10D SWAP2 SWAP1 PUSH2 0x936 JUMP JUMPDEST PUSH2 0x68E JUMP JUMPDEST STOP JUMPDEST PUSH2 0x12E PUSH1 0x4 DUP1 CALLDATASIZE SUB DUP2 ADD SWAP1 PUSH2 0x129 SWAP2 SWAP1 PUSH2 0x909 JUMP JUMPDEST PUSH2 0x722 JUMP JUMPDEST PUSH1 0x40 MLOAD PUSH2 0x13B SWAP2 SWAP1 PUSH2 0xA12 JUMP JUMPDEST PUSH1 0x40 MLOAD DUP1 SWAP2 SUB SWAP1 RETURN JUMPDEST PUSH2 0x14C PUSH2 0x7A0 JUMP JUMPDEST PUSH1 0x40 MLOAD PUSH2 0x159 SWAP2 SWAP1 PUSH2 0xA6D JUMP JUMPDEST PUSH1 0x40 MLOAD DUP1 SWAP2 SUB SWAP1 RETURN JUMPDEST PUSH2 0x17C PUSH1 0x4 DUP1 CALLDATASIZE SUB DUP2 ADD SWAP1 PUSH2 0x177 SWAP2 SWAP1 PUSH2 0x909 JUMP JUMPDEST PUSH2 0x7AC JUMP JUMPDEST PUSH1 0x40 MLOAD PUSH2 0x18A SWAP3 SWAP2 SWAP1 PUSH2 0x9E9 JUMP JUMPDEST PUSH1 0x40 MLOAD DUP1 SWAP2 SUB SWAP1 RETURN JUMPDEST PUSH2 0x1AD PUSH1 0x4 DUP1 CALLDATASIZE SUB DUP2 ADD SWAP1 PUSH2 0x1A8 SWAP2 SWAP1 PUSH2 0x909 JUMP JUMPDEST PUSH2 0x809 JUMP JUMPDEST STOP JUMPDEST PUSH1 0x0 DUP1 SLOAD SWAP1 POP DUP2 LT PUSH2 0x1F6 JUMPI PUSH1 0x40 MLOAD PUSH32 0x8C379A000000000000000000000000000000000000000000000000000000000 DUP2 MSTORE PUSH1 0x4 ADD PUSH2 0x1ED SWAP1 PUSH2 0xA4D JUMP JUMPDEST PUSH1 0x40 MLOAD DUP1 SWAP2 SUB SWAP1 REVERT JUMPDEST PUSH1 0x2 PUSH1 0x0 DUP3 DUP2 SLOAD DUP2 LT PUSH2 0x20C JUMPI PUSH2 0x20B PUSH2 0xB29 JUMP JUMPDEST JUMPDEST SWAP1 PUSH1 0x0 MSTORE PUSH1 0x20 PUSH1 0x0 KECCAK256 ADD PUSH1 0x0 ADD PUSH1 0x14 PUSH2 0x100 EXP DUP2 SLOAD DUP2 PUSH1 0xFF MUL NOT AND SWAP1 DUP4 PUSH1 0x5 DUP2 GT ISZERO PUSH2 0x23B JUMPI PUSH2 0x23A PUSH2 0xAFA JUMP JUMPDEST JUMPDEST MUL OR SWAP1 SSTORE POP POP JUMP JUMPDEST PUSH1 0x1 PUSH1 0x0 SWAP1 SLOAD SWAP1 PUSH2 0x100 EXP SWAP1 DIV PUSH1 0xFF AND DUP2 JUMP JUMPDEST PUSH1 0x0 PUSH1 0x40 MLOAD DUP1 PUSH1 0x40 ADD PUSH1 0x40 MSTORE DUP1 CALLER PUSH20 0xFFFFFFFFFFFFFFFFFFFFFFFFFFFFFFFFFFFFFFFF AND DUP2 MSTORE PUSH1 0x20 ADD PUSH1 0x1 PUSH1 0x5 DUP2 GT ISZERO PUSH2 0x293 JUMPI PUSH2 0x292 PUSH2 0xAFA JUMP JUMPDEST JUMPDEST DUP2 MSTORE POP SWAP1 POP PUSH2 0x2A0 PUSH2 0x89D JUMP JUMPDEST PUSH1 0x2 DUP2 PUSH1 0x0 ADD SWAP1 PUSH20 0xFFFFFFFFFFFFFFFFFFFFFFFFFFFFFFFFFFFFFFFF AND SWAP1 DUP2 PUSH20 0xFFFFFFFFFFFFFFFFFFFFFFFFFFFFFFFFFFFFFFFF AND DUP2 MSTORE POP POP PUSH1 0x3 DUP2 PUSH1 0x20 ADD SWAP1 PUSH1 0x5 DUP2 GT ISZERO PUSH2 0x2F2 JUMPI PUSH2 0x2F1 PUSH2 0xAFA JUMP JUMPDEST JUMPDEST SWAP1 DUP2 PUSH1 0x5 DUP2 GT ISZERO PUSH2 0x306 JUMPI PUSH2 0x305 PUSH2 0xAFA JUMP JUMPDEST JUMPDEST DUP2 MSTORE POP POP PUSH1 0x0 PUSH1 0x40 MLOAD DUP1 PUSH1 0x40 ADD PUSH1 0x40 MSTORE DUP1 PUSH1 0x3 PUSH20 0xFFFFFFFFFFFFFFFFFFFFFFFFFFFFFFFFFFFFFFFF AND DUP2 MSTORE PUSH1 0x20 ADD PUSH1 0x4 PUSH1 0x5 DUP2 GT ISZERO PUSH2 0x348 JUMPI PUSH2 0x347 PUSH2 0xAFA JUMP JUMPDEST JUMPDEST DUP2 MSTORE POP SWAP1 POP PUSH1 0x0 DUP4 SWAP1 DUP1 PUSH1 0x1 DUP2 SLOAD ADD DUP1 DUP3 SSTORE DUP1 SWAP2 POP POP PUSH1 0x1 SWAP1 SUB SWAP1 PUSH1 0x0 MSTORE PUSH1 0x20 PUSH1 0x0 KECCAK256 ADD PUSH1 0x0 SWAP1 SWAP2 SWAP1 SWAP2 SWAP1 SWAP2 POP PUSH1 0x0 DUP3 ADD MLOAD DUP2 PUSH1 0x0 ADD PUSH1 0x0 PUSH2 0x100 EXP DUP2 SLOAD DUP2 PUSH20 0xFFFFFFFFFFFFFFFFFFFFFFFFFFFFFFFFFFFFFFFF MUL NOT AND SWAP1 DUP4 PUSH20 0xFFFFFFFFFFFFFFFFFFFFFFFFFFFFFFFFFFFFFFFF AND MUL OR SWAP1 SSTORE POP PUSH1 0x20 DUP3 ADD MLOAD DUP2 PUSH1 0x0 ADD PUSH1 0x14 PUSH2 0x100 EXP DUP2 SLOAD DUP2 PUSH1 0xFF MUL NOT AND SWAP1 DUP4 PUSH1 0x5 DUP2 GT ISZERO PUSH2 0x3E7 JUMPI PUSH2 0x3E6 PUSH2 0xAFA JUMP JUMPDEST JUMPDEST MUL OR SWAP1 SSTORE POP POP POP PUSH1 0x0 DUP3 SWAP1 DUP1 PUSH1 0x1 DUP2 SLOAD ADD DUP1 DUP3 SSTORE DUP1 SWAP2 POP POP PUSH1 0x1 SWAP1 SUB SWAP1 PUSH1 0x0 MSTORE PUSH1 0x20 PUSH1 0x0 KECCAK256 ADD PUSH1 0x0 SWAP1 SWAP2 SWAP1 SWAP2 SWAP1 SWAP2 POP PUSH1 0x0 DUP3 ADD MLOAD DUP2 PUSH1 0x0 ADD PUSH1 0x0 PUSH2 0x100 EXP DUP2 SLOAD DUP2 PUSH20 0xFFFFFFFFFFFFFFFFFFFFFFFFFFFFFFFFFFFFFFFF MUL NOT AND SWAP1 DUP4 PUSH20 0xFFFFFFFFFFFFFFFFFFFFFFFFFFFFFFFFFFFFFFFF AND MUL OR SWAP1 SSTORE POP PUSH1 0x20 DUP3 ADD MLOAD DUP2 PUSH1 0x0 ADD PUSH1 0x14 PUSH2 0x100 EXP DUP2 SLOAD DUP2 PUSH1 0xFF MUL NOT AND SWAP1 DUP4 PUSH1 0x5 DUP2 GT ISZERO PUSH2 0x488 JUMPI PUSH2 0x487 PUSH2 0xAFA JUMP JUMPDEST JUMPDEST MUL OR SWAP1 SSTORE POP POP POP PUSH1 0x0 DUP2 SWAP1 DUP1 PUSH1 0x1 DUP2 SLOAD ADD DUP1 DUP3 SSTORE DUP1 SWAP2 POP POP PUSH1 0x1 SWAP1 SUB SWAP1 PUSH1 0x0 MSTORE PUSH1 0x20 PUSH1 0x0 KECCAK256 ADD PUSH1 0x0 SWAP1 SWAP2 SWAP1 SWAP2 SWAP1 SWAP2 POP PUSH1 0x0 DUP3 ADD MLOAD DUP2 PUSH1 0x0 ADD PUSH1 0x0 PUSH2 0x100 EXP DUP2 SLOAD DUP2 PUSH20 0xFFFFFFFFFFFFFFFFFFFFFFFFFFFFFFFFFFFFFFFF MUL NOT AND SWAP1 DUP4 PUSH20 0xFFFFFFFFFFFFFFFFFFFFFFFFFFFFFFFFFFFFFFFF AND MUL OR SWAP1 SSTORE POP PUSH1 0x20 DUP3 ADD MLOAD DUP2 PUSH1 0x0 ADD PUSH1 0x14 PUSH2 0x100 EXP DUP2 SLOAD DUP2 PUSH1 0xFF MUL NOT AND SWAP1 DUP4 PUSH1 0x5 DUP2 GT ISZERO PUSH2 0x529 JUMPI PUSH2 0x528 PUSH2 0xAFA JUMP JUMPDEST JUMPDEST MUL OR SWAP1 SSTORE POP POP POP PUSH1 0x0 PUSH1 0x40 MLOAD DUP1 PUSH1 0x40 ADD PUSH1 0x40 MSTORE DUP1 PUSH1 0x4 PUSH20 0xFFFFFFFFFFFFFFFFFFFFFFFFFFFFFFFFFFFFFFFF AND DUP2 MSTORE PUSH1 0x20 ADD PUSH1 0x5 DUP1 DUP2 GT ISZERO PUSH2 0x56D JUMPI PUSH2 0x56C PUSH2 0xAFA JUMP JUMPDEST JUMPDEST DUP2 MSTORE POP SWAP1 DUP1 PUSH1 0x1 DUP2 SLOAD ADD DUP1 DUP3 SSTORE DUP1 SWAP2 POP POP PUSH1 0x1 SWAP1 SUB SWAP1 PUSH1 0x0 MSTORE PUSH1 0x20 PUSH1 0x0 KECCAK256 ADD PUSH1 0x0 SWAP1 SWAP2 SWAP1 SWAP2 SWAP1 SWAP2 POP PUSH1 0x0 DUP3 ADD MLOAD DUP2 PUSH1 0x0 ADD PUSH1 0x0 PUSH2 0x100 EXP DUP2 SLOAD DUP2 PUSH20 0xFFFFFFFFFFFFFFFFFFFFFFFFFFFFFFFFFFFFFFFF MUL NOT AND SWAP1 DUP4 PUSH20 0xFFFFFFFFFFFFFFFFFFFFFFFFFFFFFFFFFFFFFFFF AND MUL OR SWAP1 SSTORE POP PUSH1 0x20 DUP3 ADD MLOAD DUP2 PUSH1 0x0 ADD PUSH1 0x14 PUSH2 0x100 EXP DUP2 SLOAD DUP2 PUSH1 0xFF MUL NOT AND SWAP1 DUP4 PUSH1 0x5 DUP2 GT ISZERO PUSH2 0x607 JUMPI PUSH2 0x606 PUSH2 0xAFA JUMP JUMPDEST JUMPDEST MUL OR SWAP1 SSTORE POP POP POP POP POP POP JUMP JUMPDEST PUSH1 0x0 DUP1 SLOAD SWAP1 POP DUP2 LT PUSH2 0x65A JUMPI PUSH1 0x40 MLOAD PUSH32 0x8C379A000000000000000000000000000000000000000000000000000000000 DUP2 MSTORE PUSH1 0x4 ADD PUSH2 0x651 SWAP1 PUSH2 0xA2D JUMP JUMPDEST PUSH1 0x40 MLOAD DUP1 SWAP2 SUB SWAP1 REVERT JUMPDEST PUSH1 0x0 DUP2 DUP2 SLOAD DUP2 LT PUSH2 0x66E JUMPI PUSH2 0x66D PUSH2 0xB29 JUMP JUMPDEST JUMPDEST SWAP1 PUSH1 0x0 MSTORE PUSH1 0x20 PUSH1 0x0 KECCAK256 ADD PUSH1 0x0 ADD PUSH1 0x14 PUSH2 0x100 EXP DUP2 SLOAD SWAP1 PUSH1 0xFF MUL NOT AND SWAP1 SSTORE POP JUMP JUMPDEST PUSH1 0x0 DUP1 SLOAD SWAP1 POP DUP3 LT PUSH2 0x6D5 JUMPI PUSH1 0x40 MLOAD PUSH32 0x8C379A000000000000000000000000000000000000000000000000000000000 DUP2 MSTORE PUSH1 0x4 ADD PUSH2 0x6CC SWAP1 PUSH2 0xA2D JUMP JUMPDEST PUSH1 0x40 MLOAD DUP1 SWAP2 SUB SWAP1 REVERT JUMPDEST DUP1 PUSH1 0x0 DUP4 DUP2 SLOAD DUP2 LT PUSH2 0x6EA JUMPI PUSH2 0x6E9 PUSH2 0xB29 JUMP JUMPDEST JUMPDEST SWAP1 PUSH1 0x0 MSTORE PUSH1 0x20 PUSH1 0x0 KECCAK256 ADD PUSH1 0x0 ADD PUSH1 0x14 PUSH2 0x100 EXP DUP2 SLOAD DUP2 PUSH1 0xFF MUL NOT AND SWAP1 DUP4 PUSH1 0x5 DUP2 GT ISZERO PUSH2 0x719 JUMPI PUSH2 0x718 PUSH2 0xAFA JUMP JUMPDEST JUMPDEST MUL OR SWAP1 SSTORE POP POP POP JUMP JUMPDEST PUSH1 0x0 DUP1 DUP1 SLOAD SWAP1 POP DUP3 LT PUSH2 0x76A JUMPI PUSH1 0x40 MLOAD PUSH32 0x8C379A000000000000000000000000000000000000000000000000000000000 DUP2 MSTORE PUSH1 0x4 ADD PUSH2 0x761 SWAP1 PUSH2 0xA4D JUMP JUMPDEST PUSH1 0x40 MLOAD DUP1 SWAP2 SUB SWAP1 REVERT JUMPDEST PUSH1 0x0 DUP3 DUP2 SLOAD DUP2 LT PUSH2 0x77E JUMPI PUSH2 0x77D PUSH2 0xB29 JUMP JUMPDEST JUMPDEST SWAP1 PUSH1 0x0 MSTORE PUSH1 0x20 PUSH1 0x0 KECCAK256 ADD PUSH1 0x0 ADD PUSH1 0x14 SWAP1 SLOAD SWAP1 PUSH2 0x100 EXP SWAP1 DIV PUSH1 0xFF AND SWAP1 POP SWAP2 SWAP1 POP JUMP JUMPDEST PUSH1 0x0 DUP1 DUP1 SLOAD SWAP1 POP SWAP1 POP SWAP1 JUMP JUMPDEST PUSH1 0x0 DUP2 DUP2 SLOAD DUP2 LT PUSH2 0x7BC JUMPI PUSH1 0x0 DUP1 REVERT JUMPDEST SWAP1 PUSH1 0x0 MSTORE PUSH1 0x20 PUSH1 0x0 KECCAK256 ADD PUSH1 0x0 SWAP2 POP SWAP1 POP DUP1 PUSH1 0x0 ADD PUSH1 0x0 SWAP1 SLOAD SWAP1 PUSH2 0x100 EXP SWAP1 DIV PUSH20 0xFFFFFFFFFFFFFFFFFFFFFFFFFFFFFFFFFFFFFFFF AND SWAP1 DUP1 PUSH1 0x0 ADD PUSH1 0x14 SWAP1 SLOAD SWAP1 PUSH2 0x100 EXP SWAP1 DIV PUSH1 0xFF AND SWAP1 POP DUP3 JUMP JUMPDEST PUSH1 0x0 DUP1 SLOAD SWAP1 POP DUP2 LT PUSH2 0x850 JUMPI PUSH1 0x40 MLOAD PUSH32 0x8C379A000000000000000000000000000000000000000000000000000000000 DUP2 MSTORE PUSH1 0x4 ADD PUSH2 0x847 SWAP1 PUSH2 0xA4D JUMP JUMPDEST PUSH1 0x40 MLOAD DUP1 SWAP2 SUB SWAP1 REVERT JUMPDEST PUSH1 0x3 PUSH1 0x0 DUP3 DUP2 SLOAD DUP2 LT PUSH2 0x866 JUMPI PUSH2 0x865 PUSH2 0xB29 JUMP JUMPDEST JUMPDEST SWAP1 PUSH1 0x0 MSTORE PUSH1 0x20 PUSH1 0x0 KECCAK256 ADD PUSH1 0x0 ADD PUSH1 0x14 PUSH2 0x100 EXP DUP2 SLOAD DUP2 PUSH1 0xFF MUL NOT AND SWAP1 DUP4 PUSH1 0x5 DUP2 GT ISZERO PUSH2 0x895 JUMPI PUSH2 0x894 PUSH2 0xAFA JUMP JUMPDEST JUMPDEST MUL OR SWAP1 SSTORE POP POP JUMP JUMPDEST PUSH1 0x40 MLOAD DUP1 PUSH1 0x40 ADD PUSH1 0x40 MSTORE DUP1 PUSH1 0x0 PUSH20 0xFFFFFFFFFFFFFFFFFFFFFFFFFFFFFFFFFFFFFFFF AND DUP2 MSTORE PUSH1 0x20 ADD PUSH1 0x0 PUSH1 0x5 DUP2 GT ISZERO PUSH2 0x8D9 JUMPI PUSH2 0x8D8 PUSH2 0xAFA JUMP JUMPDEST JUMPDEST DUP2 MSTORE POP SWAP1 JUMP JUMPDEST PUSH1 0x0 DUP2 CALLDATALOAD SWAP1 POP PUSH2 0x8EE DUP2 PUSH2 0xBC3 JUMP JUMPDEST SWAP3 SWAP2 POP POP JUMP JUMPDEST PUSH1 0x0 DUP2 CALLDATALOAD SWAP1 POP PUSH2 0x903 DUP2 PUSH2 0xBD3 JUMP JUMPDEST SWAP3 SWAP2 POP POP JUMP JUMPDEST PUSH1 0x0 PUSH1 0x20 DUP3 DUP5 SUB SLT ISZERO PUSH2 0x91F JUMPI PUSH2 0x91E PUSH2 0xB58 JUMP JUMPDEST JUMPDEST PUSH1 0x0 PUSH2 0x92D DUP5 DUP3 DUP6 ADD PUSH2 0x8F4 JUMP JUMPDEST SWAP2 POP POP SWAP3 SWAP2 POP POP JUMP JUMPDEST PUSH1 0x0 DUP1 PUSH1 0x40 DUP4 DUP6 SUB SLT ISZERO PUSH2 0x94D JUMPI PUSH2 0x94C PUSH2 0xB58 JUMP JUMPDEST JUMPDEST PUSH1 0x0 PUSH2 0x95B DUP6 DUP3 DUP7 ADD PUSH2 0x8F4 JUMP JUMPDEST SWAP3 POP POP PUSH1 0x20 PUSH2 0x96C DUP6 DUP3 DUP7 ADD PUSH2 0x8DF JUMP JUMPDEST SWAP2 POP POP SWAP3 POP SWAP3 SWAP1 POP JUMP JUMPDEST PUSH2 0x97F DUP2 PUSH2 0xA99 JUMP JUMPDEST DUP3 MSTORE POP POP JUMP JUMPDEST PUSH2 0x98E DUP2 PUSH2 0xAE8 JUMP JUMPDEST DUP3 MSTORE POP POP JUMP JUMPDEST PUSH1 0x0 PUSH2 0x9A1 PUSH1 0x11 DUP4 PUSH2 0xA88 JUMP JUMPDEST SWAP2 POP PUSH2 0x9AC DUP3 PUSH2 0xB5D JUMP JUMPDEST PUSH1 0x20 DUP3 ADD SWAP1 POP SWAP2 SWAP1 POP JUMP JUMPDEST PUSH1 0x0 PUSH2 0x9C4 PUSH1 0xF DUP4 PUSH2 0xA88 JUMP JUMPDEST SWAP2 POP PUSH2 0x9CF DUP3 PUSH2 0xB86 JUMP JUMPDEST PUSH1 0x20 DUP3 ADD SWAP1 POP SWAP2 SWAP1 POP JUMP JUMPDEST PUSH2 0x9E3 DUP2 PUSH2 0xADE JUMP JUMPDEST DUP3 MSTORE POP POP JUMP JUMPDEST PUSH1 0x0 PUSH1 0x40 DUP3 ADD SWAP1 POP PUSH2 0x9FE PUSH1 0x0 DUP4 ADD DUP6 PUSH2 0x976 JUMP JUMPDEST PUSH2 0xA0B PUSH1 0x20 DUP4 ADD DUP5 PUSH2 0x985 JUMP JUMPDEST SWAP4 SWAP3 POP POP POP JUMP JUMPDEST PUSH1 0x0 PUSH1 0x20 DUP3 ADD SWAP1 POP PUSH2 0xA27 PUSH1 0x0 DUP4 ADD DUP5 PUSH2 0x985 JUMP JUMPDEST SWAP3 SWAP2 POP POP JUMP JUMPDEST PUSH1 0x0 PUSH1 0x20 DUP3 ADD SWAP1 POP DUP2 DUP2 SUB PUSH1 0x0 DUP4 ADD MSTORE PUSH2 0xA46 DUP2 PUSH2 0x994 JUMP JUMPDEST SWAP1 POP SWAP2 SWAP1 POP JUMP JUMPDEST PUSH1 0x0 PUSH1 0x20 DUP3 ADD SWAP1 POP DUP2 DUP2 SUB PUSH1 0x0 DUP4 ADD MSTORE PUSH2 0xA66 DUP2 PUSH2 0x9B7 JUMP JUMPDEST SWAP1 POP SWAP2 SWAP1 POP JUMP JUMPDEST PUSH1 0x0 PUSH1 0x20 DUP3 ADD SWAP1 POP PUSH2 0xA82 PUSH1 0x0 DUP4 ADD DUP5 PUSH2 0x9DA JUMP JUMPDEST SWAP3 SWAP2 POP POP JUMP JUMPDEST PUSH1 0x0 DUP3 DUP3 MSTORE PUSH1 0x20 DUP3 ADD SWAP1 POP SWAP3 SWAP2 POP POP JUMP JUMPDEST PUSH1 0x0 PUSH2 0xAA4 DUP3 PUSH2 0xABE JUMP JUMPDEST SWAP1 POP SWAP2 SWAP1 POP JUMP JUMPDEST PUSH1 0x0 DUP2 SWAP1 POP PUSH2 0xAB9 DUP3 PUSH2 0xBAF JUMP JUMPDEST SWAP2 SWAP1 POP JUMP JUMPDEST PUSH1 0x0 PUSH20 0xFFFFFFFFFFFFFFFFFFFFFFFFFFFFFFFFFFFFFFFF DUP3 AND SWAP1 POP SWAP2 SWAP1 POP JUMP JUMPDEST PUSH1 0x0 DUP2 SWAP1 POP SWAP2 SWAP1 POP JUMP JUMPDEST PUSH1 0x0 PUSH2 0xAF3 DUP3 PUSH2 0xAAB JUMP JUMPDEST SWAP1 POP SWAP2 SWAP1 POP JUMP JUMPDEST PUSH32 0x4E487B7100000000000000000000000000000000000000000000000000000000 PUSH1 0x0 MSTORE PUSH1 0x21 PUSH1 0x4 MSTORE PUSH1 0x24 PUSH1 0x0 REVERT JUMPDEST PUSH32 0x4E487B7100000000000000000000000000000000000000000000000000000000 PUSH1 0x0 MSTORE PUSH1 0x32 PUSH1 0x4 MSTORE PUSH1 0x24 PUSH1 0x0 REVERT JUMPDEST PUSH1 0x0 DUP1 REVERT JUMPDEST PUSH32 0x6F726465724964206E6F74206578697374000000000000000000000000000000 PUSH1 0x0 DUP3 ADD MSTORE POP JUMP JUMPDEST PUSH32 0x6F72646572206E6F742065786973740000000000000000000000000000000000 PUSH1 0x0 DUP3 ADD MSTORE POP JUMP JUMPDEST PUSH1 0x6 DUP2 LT PUSH2 0xBC0 JUMPI PUSH2 0xBBF PUSH2 0xAFA JUMP JUMPDEST JUMPDEST POP JUMP JUMPDEST PUSH1 0x6 DUP2 LT PUSH2 0xBD0 JUMPI PUSH1 0x0 DUP1 REVERT JUMPDEST POP JUMP JUMPDEST PUSH2 0xBDC DUP2 PUSH2 0xADE JUMP JUMPDEST DUP2 EQ PUSH2 0xBE7 JUMPI PUSH1 0x0 DUP1 REVERT JUMPDEST POP JUMP INVALID LOG2 PUSH5 0x6970667358 0x22 SLT KECCAK256 0xEA COINBASE KECCAK256 0xAE 0x29 0xE4 PUSH5 0xF7BDC892E3 0xE4 0xD9 PUSH21 0x495E53885FE04C6E180898F97726CEBE0564736F6C PUSH4 0x43000807 STOP CALLER "
				},
				"gasEstimates": {
					"creation": {
						"codeDepositCost": "620800",
						"executionCost": "651",
						"totalCost": "621451"
					},
					"external": {
						"addOrder()": "292559",
						"completeOrder(uint256)": "29148",
						"getOrderLength()": "2489",
						"getStatus(uint256)": "7222",
						"orders(uint256)": "7440",
						"reset(uint256)": "29082",
						"shipOrder(uint256)": "29061",
						"status()": "2583",
						"updateStatus(uint256,uint8)": "29190"
					}
				},
				"methodIdentifiers": {
					"addOrder()": "2035a264",
					"completeOrder(uint256)": "b6adaaff",
					"getOrderLength()": "9d4971b7",
					"getStatus(uint256)": "5c622a0e",
					"orders(uint256)": "a85c38ef",
					"reset(uint256)": "310bd74b",
					"shipOrder(uint256)": "194c302c",
					"status()": "200d2ed2",
					"updateStatus(uint256,uint8)": "3a1b3d31"
				}
			},
			"storageLayout": {
				"storage": [
					{
						"astId": 18,
						"contract": "contracts/EnumTest.sol:Enum",
						"label": "orders",
						"offset": 0,
						"slot": "0",
						"type": "t_array(t_struct(Order)14_storage)dyn_storage"
					},
					{
						"astId": 21,
						"contract": "contracts/EnumTest.sol:Enum",
						"label": "status",
						"offset": 0,
						"slot": "1",
						"type": "t_enum(OrderStatus)8"
					}
				],
				"types": {
					"t_address": {
						"encoding": "inplace",
						"label": "address",
						"numberOfBytes": "20"
					},
					"t_array(t_struct(Order)14_storage)dyn_storage": {
						"base": "t_struct(Order)14_storage",
						"encoding": "dynamic_array",
						"label": "struct Enum.Order[]",
						"numberOfBytes": "32"
					},
					"t_enum(OrderStatus)8": {
						"encoding": "inplace",
						"label": "enum Enum.OrderStatus",
						"numberOfBytes": "1"
					},
					"t_struct(Order)14_storage": {
						"encoding": "inplace",
						"label": "struct Enum.Order",
						"members": [
							{
								"astId": 10,
								"contract": "contracts/EnumTest.sol:Enum",
								"label": "buyer",
								"offset": 0,
								"slot": "0",
								"type": "t_address"
							},
							{
								"astId": 13,
								"contract": "contracts/EnumTest.sol:Enum",
								"label": "status",
								"offset": 20,
								"slot": "0",
								"type": "t_enum(OrderStatus)8"
							}
						],
						"numberOfBytes": "32"
					}
				}
			},
			"userdoc": {
				"kind": "user",
				"methods": {},
				"version": 1
			}
		}
	}
}