{
	"contracts/DutchAuction.sol": {
		"DutchAuction": {
			"abi": [
				{
					"inputs": [
						{
							"internalType": "uint256",
							"name": "_startingPrice",
							"type": "uint256"
						},
						{
							"internalType": "uint256",
							"name": "_discountRate",
							"type": "uint256"
						},
						{
							"internalType": "address",
							"name": "_nft",
							"type": "address"
						},
						{
							"internalType": "uint256",
							"name": "_nftId",
							"type": "uint256"
						}
					],
					"stateMutability": "nonpayable",
					"type": "constructor"
				},
				{
					"inputs": [],
					"name": "buy",
					"outputs": [],
					"stateMutability": "payable",
					"type": "function"
				},
				{
					"inputs": [],
					"name": "discountRate",
					"outputs": [
						{
							"internalType": "uint256",
							"name": "",
							"type": "uint256"
						}
					],
					"stateMutability": "view",
					"type": "function"
				},
				{
					"inputs": [],
					"name": "expiresAt",
					"outputs": [
						{
							"internalType": "uint256",
							"name": "",
							"type": "uint256"
						}
					],
					"stateMutability": "view",
					"type": "function"
				},
				{
					"inputs": [],
					"name": "getPrice",
					"outputs": [
						{
							"internalType": "uint256",
							"name": "",
							"type": "uint256"
						}
					],
					"stateMutability": "view",
					"type": "function"
				},
				{
					"inputs": [],
					"name": "nft",
					"outputs": [
						{
							"internalType": "contract IERC721",
							"name": "",
							"type": "address"
						}
					],
					"stateMutability": "view",
					"type": "function"
				},
				{
					"inputs": [],
					"name": "nftId",
					"outputs": [
						{
							"internalType": "uint256",
							"name": "",
							"type": "uint256"
						}
					],
					"stateMutability": "view",
					"type": "function"
				},
				{
					"inputs": [],
					"name": "seller",
					"outputs": [
						{
							"internalType": "address",
							"name": "",
							"type": "address"
						}
					],
					"stateMutability": "view",
					"type": "function"
				},
				{
					"inputs": [],
					"name": "startAt",
					"outputs": [
						{
							"internalType": "uint256",
							"name": "",
							"type": "uint256"
						}
					],
					"stateMutability": "view",
					"type": "function"
				},
				{
					"inputs": [],
					"name": "startingPrice",
					"outputs": [
						{
							"internalType": "uint256",
							"name": "",
							"type": "uint256"
						}
					],
					"stateMutability": "view",
					"type": "function"
				}
			],
			"devdoc": {
				"kind": "dev",
				"methods": {},
				"version": 1
			},
			"evm": {
				"assembly": "    /* \"contracts/DutchAuction.sol\":157:1687  contract DutchAuction {... */\n  mstore(0x40, 0x0160)\n    /* \"contracts/DutchAuction.sol\":554:1057  constructor(... */\n  callvalue\n  dup1\n  iszero\n  tag_1\n  jumpi\n  0x00\n  dup1\n  revert\ntag_1:\n  pop\n  mload(0x40)\n  sub(codesize, bytecodeSize)\n  dup1\n  bytecodeSize\n  dup4\n  codecopy\n  dup2\n  dup2\n  add\n  0x40\n  mstore\n  dup2\n  add\n  swap1\n  tag_2\n  swap2\n  swap1\n  tag_3\n  jump\t// in\ntag_2:\n    /* \"contracts/DutchAuction.sol\":699:709  msg.sender */\n  caller\n    /* \"contracts/DutchAuction.sol\":682:710  seller = payable(msg.sender) */\n  0xffffffffffffffffffffffffffffffffffffffff\n  and\n  0xc0\n  dup2\n  0xffffffffffffffffffffffffffffffffffffffff\n  and\n  dup2\n  mstore\n  pop\n  pop\n    /* \"contracts/DutchAuction.sol\":736:750  _startingPrice */\n  dup4\n    /* \"contracts/DutchAuction.sol\":720:750  startingPrice = _startingPrice */\n  0xe0\n  dup2\n  dup2\n  mstore\n  pop\n  pop\n    /* \"contracts/DutchAuction.sol\":775:788  _discountRate */\n  dup3\n    /* \"contracts/DutchAuction.sol\":760:788  discountRate = _discountRate */\n  0x0140\n  dup2\n  dup2\n  mstore\n  pop\n  pop\n    /* \"contracts/DutchAuction.sol\":808:823  block.timestamp */\n  timestamp\n    /* \"contracts/DutchAuction.sol\":798:823  startAt = block.timestamp */\n  0x0100\n  dup2\n  dup2\n  mstore\n  pop\n  pop\n    /* \"contracts/DutchAuction.sol\":328:334  7 days */\n  0x093a80\n    /* \"contracts/DutchAuction.sol\":845:860  block.timestamp */\n  timestamp\n    /* \"contracts/DutchAuction.sol\":845:871  block.timestamp + DURATION */\n  tag_6\n  swap2\n  swap1\n  tag_7\n  jump\t// in\ntag_6:\n    /* \"contracts/DutchAuction.sol\":833:871  expiresAt = block.timestamp + DURATION */\n  0x0120\n  dup2\n  dup2\n  mstore\n  pop\n  pop\n    /* \"contracts/DutchAuction.sol\":328:334  7 days */\n  0x093a80\n    /* \"contracts/DutchAuction.sol\":921:934  _discountRate */\n  dup4\n    /* \"contracts/DutchAuction.sol\":921:945  _discountRate * DURATION */\n  tag_8\n  swap2\n  swap1\n  tag_9\n  jump\t// in\ntag_8:\n    /* \"contracts/DutchAuction.sol\":903:917  _startingPrice */\n  dup5\n    /* \"contracts/DutchAuction.sol\":903:945  _startingPrice >= _discountRate * DURATION */\n  lt\n  iszero\n    /* \"contracts/DutchAuction.sol\":882:996  require(... */\n  tag_10\n  jumpi\n  mload(0x40)\n  0x08c379a000000000000000000000000000000000000000000000000000000000\n  dup2\n  mstore\n  0x04\n  add\n  tag_11\n  swap1\n  tag_12\n  jump\t// in\ntag_11:\n  mload(0x40)\n  dup1\n  swap2\n  sub\n  swap1\n  revert\ntag_10:\n    /* \"contracts/DutchAuction.sol\":1021:1025  _nft */\n  dup2\n    /* \"contracts/DutchAuction.sol\":1007:1026  nft = IERC721(_nft) */\n  0xffffffffffffffffffffffffffffffffffffffff\n  and\n  0x80\n  dup2\n  0xffffffffffffffffffffffffffffffffffffffff\n  and\n  dup2\n  mstore\n  pop\n  pop\n    /* \"contracts/DutchAuction.sol\":1044:1050  _nftId */\n  dup1\n    /* \"contracts/DutchAuction.sol\":1036:1050  nftId = _nftId */\n  0xa0\n  dup2\n  dup2\n  mstore\n  pop\n  pop\n    /* \"contracts/DutchAuction.sol\":554:1057  constructor(... */\n  pop\n  pop\n  pop\n  pop\n    /* \"contracts/DutchAuction.sol\":157:1687  contract DutchAuction {... */\n  jump(tag_13)\n    /* \"#utility.yul\":88:205   */\ntag_15:\n    /* \"#utility.yul\":197:198   */\n  0x00\n    /* \"#utility.yul\":194:195   */\n  dup1\n    /* \"#utility.yul\":187:199   */\n  revert\n    /* \"#utility.yul\":334:411   */\ntag_17:\n    /* \"#utility.yul\":371:378   */\n  0x00\n    /* \"#utility.yul\":400:405   */\n  dup2\n    /* \"#utility.yul\":389:405   */\n  swap1\n  pop\n    /* \"#utility.yul\":334:411   */\n  swap2\n  swap1\n  pop\n  jump\t// out\n    /* \"#utility.yul\":417:539   */\ntag_18:\n    /* \"#utility.yul\":490:514   */\n  tag_34\n    /* \"#utility.yul\":508:513   */\n  dup2\n    /* \"#utility.yul\":490:514   */\n  tag_17\n  jump\t// in\ntag_34:\n    /* \"#utility.yul\":483:488   */\n  dup2\n    /* \"#utility.yul\":480:515   */\n  eq\n    /* \"#utility.yul\":470:533   */\n  tag_35\n  jumpi\n    /* \"#utility.yul\":529:530   */\n  0x00\n    /* \"#utility.yul\":526:527   */\n  dup1\n    /* \"#utility.yul\":519:531   */\n  revert\n    /* \"#utility.yul\":470:533   */\ntag_35:\n    /* \"#utility.yul\":417:539   */\n  pop\n  jump\t// out\n    /* \"#utility.yul\":545:688   */\ntag_19:\n    /* \"#utility.yul\":602:607   */\n  0x00\n    /* \"#utility.yul\":633:639   */\n  dup2\n    /* \"#utility.yul\":627:640   */\n  mload\n    /* \"#utility.yul\":618:640   */\n  swap1\n  pop\n    /* \"#utility.yul\":649:682   */\n  tag_37\n    /* \"#utility.yul\":676:681   */\n  dup2\n    /* \"#utility.yul\":649:682   */\n  tag_18\n  jump\t// in\ntag_37:\n    /* \"#utility.yul\":545:688   */\n  swap3\n  swap2\n  pop\n  pop\n  jump\t// out\n    /* \"#utility.yul\":694:820   */\ntag_20:\n    /* \"#utility.yul\":731:738   */\n  0x00\n    /* \"#utility.yul\":771:813   */\n  0xffffffffffffffffffffffffffffffffffffffff\n    /* \"#utility.yul\":764:769   */\n  dup3\n    /* \"#utility.yul\":760:814   */\n  and\n    /* \"#utility.yul\":749:814   */\n  swap1\n  pop\n    /* \"#utility.yul\":694:820   */\n  swap2\n  swap1\n  pop\n  jump\t// out\n    /* \"#utility.yul\":826:922   */\ntag_21:\n    /* \"#utility.yul\":863:870   */\n  0x00\n    /* \"#utility.yul\":892:916   */\n  tag_40\n    /* \"#utility.yul\":910:915   */\n  dup3\n    /* \"#utility.yul\":892:916   */\n  tag_20\n  jump\t// in\ntag_40:\n    /* \"#utility.yul\":881:916   */\n  swap1\n  pop\n    /* \"#utility.yul\":826:922   */\n  swap2\n  swap1\n  pop\n  jump\t// out\n    /* \"#utility.yul\":928:1050   */\ntag_22:\n    /* \"#utility.yul\":1001:1025   */\n  tag_42\n    /* \"#utility.yul\":1019:1024   */\n  dup2\n    /* \"#utility.yul\":1001:1025   */\n  tag_21\n  jump\t// in\ntag_42:\n    /* \"#utility.yul\":994:999   */\n  dup2\n    /* \"#utility.yul\":991:1026   */\n  eq\n    /* \"#utility.yul\":981:1044   */\n  tag_43\n  jumpi\n    /* \"#utility.yul\":1040:1041   */\n  0x00\n    /* \"#utility.yul\":1037:1038   */\n  dup1\n    /* \"#utility.yul\":1030:1042   */\n  revert\n    /* \"#utility.yul\":981:1044   */\ntag_43:\n    /* \"#utility.yul\":928:1050   */\n  pop\n  jump\t// out\n    /* \"#utility.yul\":1056:1199   */\ntag_23:\n    /* \"#utility.yul\":1113:1118   */\n  0x00\n    /* \"#utility.yul\":1144:1150   */\n  dup2\n    /* \"#utility.yul\":1138:1151   */\n  mload\n    /* \"#utility.yul\":1129:1151   */\n  swap1\n  pop\n    /* \"#utility.yul\":1160:1193   */\n  tag_45\n    /* \"#utility.yul\":1187:1192   */\n  dup2\n    /* \"#utility.yul\":1160:1193   */\n  tag_22\n  jump\t// in\ntag_45:\n    /* \"#utility.yul\":1056:1199   */\n  swap3\n  swap2\n  pop\n  pop\n  jump\t// out\n    /* \"#utility.yul\":1205:2025   */\ntag_3:\n    /* \"#utility.yul\":1302:1308   */\n  0x00\n    /* \"#utility.yul\":1310:1316   */\n  dup1\n    /* \"#utility.yul\":1318:1324   */\n  0x00\n    /* \"#utility.yul\":1326:1332   */\n  dup1\n    /* \"#utility.yul\":1375:1378   */\n  0x80\n    /* \"#utility.yul\":1363:1372   */\n  dup6\n    /* \"#utility.yul\":1354:1361   */\n  dup8\n    /* \"#utility.yul\":1350:1373   */\n  sub\n    /* \"#utility.yul\":1346:1379   */\n  slt\n    /* \"#utility.yul\":1343:1463   */\n  iszero\n  tag_47\n  jumpi\n    /* \"#utility.yul\":1382:1461   */\n  tag_48\n  tag_15\n  jump\t// in\ntag_48:\n    /* \"#utility.yul\":1343:1463   */\ntag_47:\n    /* \"#utility.yul\":1502:1503   */\n  0x00\n    /* \"#utility.yul\":1527:1591   */\n  tag_49\n    /* \"#utility.yul\":1583:1590   */\n  dup8\n    /* \"#utility.yul\":1574:1580   */\n  dup3\n    /* \"#utility.yul\":1563:1572   */\n  dup9\n    /* \"#utility.yul\":1559:1581   */\n  add\n    /* \"#utility.yul\":1527:1591   */\n  tag_19\n  jump\t// in\ntag_49:\n    /* \"#utility.yul\":1517:1591   */\n  swap5\n  pop\n    /* \"#utility.yul\":1473:1601   */\n  pop\n    /* \"#utility.yul\":1640:1642   */\n  0x20\n    /* \"#utility.yul\":1666:1730   */\n  tag_50\n    /* \"#utility.yul\":1722:1729   */\n  dup8\n    /* \"#utility.yul\":1713:1719   */\n  dup3\n    /* \"#utility.yul\":1702:1711   */\n  dup9\n    /* \"#utility.yul\":1698:1720   */\n  add\n    /* \"#utility.yul\":1666:1730   */\n  tag_19\n  jump\t// in\ntag_50:\n    /* \"#utility.yul\":1656:1730   */\n  swap4\n  pop\n    /* \"#utility.yul\":1611:1740   */\n  pop\n    /* \"#utility.yul\":1779:1781   */\n  0x40\n    /* \"#utility.yul\":1805:1869   */\n  tag_51\n    /* \"#utility.yul\":1861:1868   */\n  dup8\n    /* \"#utility.yul\":1852:1858   */\n  dup3\n    /* \"#utility.yul\":1841:1850   */\n  dup9\n    /* \"#utility.yul\":1837:1859   */\n  add\n    /* \"#utility.yul\":1805:1869   */\n  tag_23\n  jump\t// in\ntag_51:\n    /* \"#utility.yul\":1795:1869   */\n  swap3\n  pop\n    /* \"#utility.yul\":1750:1879   */\n  pop\n    /* \"#utility.yul\":1918:1920   */\n  0x60\n    /* \"#utility.yul\":1944:2008   */\n  tag_52\n    /* \"#utility.yul\":2000:2007   */\n  dup8\n    /* \"#utility.yul\":1991:1997   */\n  dup3\n    /* \"#utility.yul\":1980:1989   */\n  dup9\n    /* \"#utility.yul\":1976:1998   */\n  add\n    /* \"#utility.yul\":1944:2008   */\n  tag_19\n  jump\t// in\ntag_52:\n    /* \"#utility.yul\":1934:2008   */\n  swap2\n  pop\n    /* \"#utility.yul\":1889:2018   */\n  pop\n    /* \"#utility.yul\":1205:2025   */\n  swap3\n  swap6\n  swap2\n  swap5\n  pop\n  swap3\n  pop\n  jump\t// out\n    /* \"#utility.yul\":2031:2211   */\ntag_24:\n    /* \"#utility.yul\":2079:2156   */\n  0x4e487b7100000000000000000000000000000000000000000000000000000000\n    /* \"#utility.yul\":2076:2077   */\n  0x00\n    /* \"#utility.yul\":2069:2157   */\n  mstore\n    /* \"#utility.yul\":2176:2180   */\n  0x11\n    /* \"#utility.yul\":2173:2174   */\n  0x04\n    /* \"#utility.yul\":2166:2181   */\n  mstore\n    /* \"#utility.yul\":2200:2204   */\n  0x24\n    /* \"#utility.yul\":2197:2198   */\n  0x00\n    /* \"#utility.yul\":2190:2205   */\n  revert\n    /* \"#utility.yul\":2217:2408   */\ntag_7:\n    /* \"#utility.yul\":2257:2260   */\n  0x00\n    /* \"#utility.yul\":2276:2296   */\n  tag_55\n    /* \"#utility.yul\":2294:2295   */\n  dup3\n    /* \"#utility.yul\":2276:2296   */\n  tag_17\n  jump\t// in\ntag_55:\n    /* \"#utility.yul\":2271:2296   */\n  swap2\n  pop\n    /* \"#utility.yul\":2310:2330   */\n  tag_56\n    /* \"#utility.yul\":2328:2329   */\n  dup4\n    /* \"#utility.yul\":2310:2330   */\n  tag_17\n  jump\t// in\ntag_56:\n    /* \"#utility.yul\":2305:2330   */\n  swap3\n  pop\n    /* \"#utility.yul\":2353:2354   */\n  dup3\n    /* \"#utility.yul\":2350:2351   */\n  dup3\n    /* \"#utility.yul\":2346:2355   */\n  add\n    /* \"#utility.yul\":2339:2355   */\n  swap1\n  pop\n    /* \"#utility.yul\":2374:2377   */\n  dup1\n    /* \"#utility.yul\":2371:2372   */\n  dup3\n    /* \"#utility.yul\":2368:2378   */\n  gt\n    /* \"#utility.yul\":2365:2401   */\n  iszero\n  tag_57\n  jumpi\n    /* \"#utility.yul\":2381:2399   */\n  tag_58\n  tag_24\n  jump\t// in\ntag_58:\n    /* \"#utility.yul\":2365:2401   */\ntag_57:\n    /* \"#utility.yul\":2217:2408   */\n  swap3\n  swap2\n  pop\n  pop\n  jump\t// out\n    /* \"#utility.yul\":2414:2824   */\ntag_9:\n    /* \"#utility.yul\":2454:2461   */\n  0x00\n    /* \"#utility.yul\":2477:2497   */\n  tag_60\n    /* \"#utility.yul\":2495:2496   */\n  dup3\n    /* \"#utility.yul\":2477:2497   */\n  tag_17\n  jump\t// in\ntag_60:\n    /* \"#utility.yul\":2472:2497   */\n  swap2\n  pop\n    /* \"#utility.yul\":2511:2531   */\n  tag_61\n    /* \"#utility.yul\":2529:2530   */\n  dup4\n    /* \"#utility.yul\":2511:2531   */\n  tag_17\n  jump\t// in\ntag_61:\n    /* \"#utility.yul\":2506:2531   */\n  swap3\n  pop\n    /* \"#utility.yul\":2566:2567   */\n  dup3\n    /* \"#utility.yul\":2563:2564   */\n  dup3\n    /* \"#utility.yul\":2559:2568   */\n  mul\n    /* \"#utility.yul\":2588:2618   */\n  tag_62\n    /* \"#utility.yul\":2606:2617   */\n  dup2\n    /* \"#utility.yul\":2588:2618   */\n  tag_17\n  jump\t// in\ntag_62:\n    /* \"#utility.yul\":2577:2618   */\n  swap2\n  pop\n    /* \"#utility.yul\":2767:2768   */\n  dup3\n    /* \"#utility.yul\":2758:2765   */\n  dup3\n    /* \"#utility.yul\":2754:2769   */\n  div\n    /* \"#utility.yul\":2751:2752   */\n  dup5\n    /* \"#utility.yul\":2748:2770   */\n  eq\n    /* \"#utility.yul\":2728:2729   */\n  dup4\n    /* \"#utility.yul\":2721:2730   */\n  iszero\n    /* \"#utility.yul\":2701:2784   */\n  or\n    /* \"#utility.yul\":2678:2817   */\n  tag_63\n  jumpi\n    /* \"#utility.yul\":2797:2815   */\n  tag_64\n  tag_24\n  jump\t// in\ntag_64:\n    /* \"#utility.yul\":2678:2817   */\ntag_63:\n    /* \"#utility.yul\":2462:2824   */\n  pop\n    /* \"#utility.yul\":2414:2824   */\n  swap3\n  swap2\n  pop\n  pop\n  jump\t// out\n    /* \"#utility.yul\":2830:2999   */\ntag_25:\n    /* \"#utility.yul\":2914:2925   */\n  0x00\n    /* \"#utility.yul\":2948:2954   */\n  dup3\n    /* \"#utility.yul\":2943:2946   */\n  dup3\n    /* \"#utility.yul\":2936:2955   */\n  mstore\n    /* \"#utility.yul\":2988:2992   */\n  0x20\n    /* \"#utility.yul\":2983:2986   */\n  dup3\n    /* \"#utility.yul\":2979:2993   */\n  add\n    /* \"#utility.yul\":2964:2993   */\n  swap1\n  pop\n    /* \"#utility.yul\":2830:2999   */\n  swap3\n  swap2\n  pop\n  pop\n  jump\t// out\n    /* \"#utility.yul\":3005:3180   */\ntag_26:\n    /* \"#utility.yul\":3145:3172   */\n  0x7374617274696e67207072696365203c20646973636f756e7400000000000000\n    /* \"#utility.yul\":3141:3142   */\n  0x00\n    /* \"#utility.yul\":3133:3139   */\n  dup3\n    /* \"#utility.yul\":3129:3143   */\n  add\n    /* \"#utility.yul\":3122:3173   */\n  mstore\n    /* \"#utility.yul\":3005:3180   */\n  pop\n  jump\t// out\n    /* \"#utility.yul\":3186:3552   */\ntag_27:\n    /* \"#utility.yul\":3328:3331   */\n  0x00\n    /* \"#utility.yul\":3349:3416   */\n  tag_68\n    /* \"#utility.yul\":3413:3415   */\n  0x19\n    /* \"#utility.yul\":3408:3411   */\n  dup4\n    /* \"#utility.yul\":3349:3416   */\n  tag_25\n  jump\t// in\ntag_68:\n    /* \"#utility.yul\":3342:3416   */\n  swap2\n  pop\n    /* \"#utility.yul\":3425:3518   */\n  tag_69\n    /* \"#utility.yul\":3514:3517   */\n  dup3\n    /* \"#utility.yul\":3425:3518   */\n  tag_26\n  jump\t// in\ntag_69:\n    /* \"#utility.yul\":3543:3545   */\n  0x20\n    /* \"#utility.yul\":3538:3541   */\n  dup3\n    /* \"#utility.yul\":3534:3546   */\n  add\n    /* \"#utility.yul\":3527:3546   */\n  swap1\n  pop\n    /* \"#utility.yul\":3186:3552   */\n  swap2\n  swap1\n  pop\n  jump\t// out\n    /* \"#utility.yul\":3558:3977   */\ntag_12:\n    /* \"#utility.yul\":3724:3728   */\n  0x00\n    /* \"#utility.yul\":3762:3764   */\n  0x20\n    /* \"#utility.yul\":3751:3760   */\n  dup3\n    /* \"#utility.yul\":3747:3765   */\n  add\n    /* \"#utility.yul\":3739:3765   */\n  swap1\n  pop\n    /* \"#utility.yul\":3811:3820   */\n  dup2\n    /* \"#utility.yul\":3805:3809   */\n  dup2\n    /* \"#utility.yul\":3801:3821   */\n  sub\n    /* \"#utility.yul\":3797:3798   */\n  0x00\n    /* \"#utility.yul\":3786:3795   */\n  dup4\n    /* \"#utility.yul\":3782:3799   */\n  add\n    /* \"#utility.yul\":3775:3822   */\n  mstore\n    /* \"#utility.yul\":3839:3970   */\n  tag_71\n    /* \"#utility.yul\":3965:3969   */\n  dup2\n    /* \"#utility.yul\":3839:3970   */\n  tag_27\n  jump\t// in\ntag_71:\n    /* \"#utility.yul\":3831:3970   */\n  swap1\n  pop\n    /* \"#utility.yul\":3558:3977   */\n  swap2\n  swap1\n  pop\n  jump\t// out\n    /* \"contracts/DutchAuction.sol\":157:1687  contract DutchAuction {... */\ntag_13:\n  mload(0x80)\n  mload(0xa0)\n  mload(0xc0)\n  mload(0xe0)\n  mload(0x0100)\n  mload(0x0120)\n  mload(0x0140)\n  codecopy(0x00, dataOffset(sub_0), dataSize(sub_0))\n  0x00\n  assignImmutable(\"0x7749cc8014201da2069c21d93ba99c584b6f62d393fde534ed47eac227e31561\")\n  0x00\n  assignImmutable(\"0x58a280f74f57bf051c40f060139dc747e015be52f68c57e2c4ab2e4bd4146f43\")\n  0x00\n  assignImmutable(\"0x81e080ffc23e8b8d44dd829bc823229e92b893eb1d8f624419d3f5682eb97fc3\")\n  0x00\n  assignImmutable(\"0x1572b593c53d839d80004aa4b8c51211864104f06ace9e22be9c4365b50655ea\")\n  0x00\n  assignImmutable(\"0xf4c2b5de886427473655d4c904c743576dc2d53249b7535d96c06cc97ae7216b\")\n  0x00\n  assignImmutable(\"0x277ab82e5a4641341820a4a2933a62c1de997e42e92548657ae21b3728d580fe\")\n  0x00\n  assignImmutable(\"0x5c4c6aa067b6f8e6cb38e6ab843832a94d1712d661a04d73c517d6a1931a9e5d\")\n  return(0x00, dataSize(sub_0))\nstop\n\nsub_0: assembly {\n        /* \"contracts/DutchAuction.sol\":157:1687  contract DutchAuction {... */\n      mstore(0x40, 0x80)\n      jumpi(tag_1, lt(calldatasize, 0x04))\n      shr(0xe0, calldataload(0x00))\n      dup1\n      0xa6f2ae3a\n      gt\n      tag_11\n      jumpi\n      dup1\n      0xa6f2ae3a\n      eq\n      tag_6\n      jumpi\n      dup1\n      0xc6bc5182\n      eq\n      tag_7\n      jumpi\n      dup1\n      0xc7446565\n      eq\n      tag_8\n      jumpi\n      dup1\n      0xd6fbf202\n      eq\n      tag_9\n      jumpi\n      dup1\n      0xe6c0e6d5\n      eq\n      tag_10\n      jumpi\n      jump(tag_1)\n    tag_11:\n      dup1\n      0x08551a53\n      eq\n      tag_2\n      jumpi\n      dup1\n      0x47ccca02\n      eq\n      tag_3\n      jumpi\n      dup1\n      0x8622a689\n      eq\n      tag_4\n      jumpi\n      dup1\n      0x98d5fdca\n      eq\n      tag_5\n      jumpi\n    tag_1:\n      0x00\n      dup1\n      revert\n        /* \"contracts/DutchAuction.sol\":340:371  address public immutable seller */\n    tag_2:\n      callvalue\n      dup1\n      iszero\n      tag_12\n      jumpi\n      0x00\n      dup1\n      revert\n    tag_12:\n      pop\n      tag_13\n      tag_14\n      jump\t// in\n    tag_13:\n      mload(0x40)\n      tag_15\n      swap2\n      swap1\n      tag_16\n      jump\t// in\n    tag_15:\n      mload(0x40)\n      dup1\n      swap2\n      sub\n      swap1\n      return\n        /* \"contracts/DutchAuction.sol\":208:236  IERC721 public immutable nft */\n    tag_3:\n      callvalue\n      dup1\n      iszero\n      tag_17\n      jumpi\n      0x00\n      dup1\n      revert\n    tag_17:\n      pop\n      tag_18\n      tag_19\n      jump\t// in\n    tag_18:\n      mload(0x40)\n      tag_20\n      swap2\n      swap1\n      tag_21\n      jump\t// in\n    tag_20:\n      mload(0x40)\n      dup1\n      swap2\n      sub\n      swap1\n      return\n        /* \"contracts/DutchAuction.sol\":453:484  uint public immutable expiresAt */\n    tag_4:\n      callvalue\n      dup1\n      iszero\n      tag_22\n      jumpi\n      0x00\n      dup1\n      revert\n    tag_22:\n      pop\n      tag_23\n      tag_24\n      jump\t// in\n    tag_23:\n      mload(0x40)\n      tag_25\n      swap2\n      swap1\n      tag_26\n      jump\t// in\n    tag_25:\n      mload(0x40)\n      dup1\n      swap2\n      sub\n      swap1\n      return\n        /* \"contracts/DutchAuction.sol\":1484:1685  function getPrice() public view returns (uint) {... */\n    tag_5:\n      callvalue\n      dup1\n      iszero\n      tag_27\n      jumpi\n      0x00\n      dup1\n      revert\n    tag_27:\n      pop\n      tag_28\n      tag_29\n      jump\t// in\n    tag_28:\n      mload(0x40)\n      tag_30\n      swap2\n      swap1\n      tag_26\n      jump\t// in\n    tag_30:\n      mload(0x40)\n      dup1\n      swap2\n      sub\n      swap1\n      return\n        /* \"contracts/DutchAuction.sol\":1086:1453  function buy() external payable {... */\n    tag_6:\n      tag_31\n      tag_32\n      jump\t// in\n    tag_31:\n      stop\n        /* \"contracts/DutchAuction.sol\":242:269  uint public immutable nftId */\n    tag_7:\n      callvalue\n      dup1\n      iszero\n      tag_33\n      jumpi\n      0x00\n      dup1\n      revert\n    tag_33:\n      pop\n      tag_34\n      tag_35\n      jump\t// in\n    tag_34:\n      mload(0x40)\n      tag_36\n      swap2\n      swap1\n      tag_26\n      jump\t// in\n    tag_36:\n      mload(0x40)\n      dup1\n      swap2\n      sub\n      swap1\n      return\n        /* \"contracts/DutchAuction.sol\":418:447  uint public immutable startAt */\n    tag_8:\n      callvalue\n      dup1\n      iszero\n      tag_37\n      jumpi\n      0x00\n      dup1\n      revert\n    tag_37:\n      pop\n      tag_38\n      tag_39\n      jump\t// in\n    tag_38:\n      mload(0x40)\n      tag_40\n      swap2\n      swap1\n      tag_26\n      jump\t// in\n    tag_40:\n      mload(0x40)\n      dup1\n      swap2\n      sub\n      swap1\n      return\n        /* \"contracts/DutchAuction.sol\":377:412  uint public immutable startingPrice */\n    tag_9:\n      callvalue\n      dup1\n      iszero\n      tag_41\n      jumpi\n      0x00\n      dup1\n      revert\n    tag_41:\n      pop\n      tag_42\n      tag_43\n      jump\t// in\n    tag_42:\n      mload(0x40)\n      tag_44\n      swap2\n      swap1\n      tag_26\n      jump\t// in\n    tag_44:\n      mload(0x40)\n      dup1\n      swap2\n      sub\n      swap1\n      return\n        /* \"contracts/DutchAuction.sol\":490:524  uint public immutable discountRate */\n    tag_10:\n      callvalue\n      dup1\n      iszero\n      tag_45\n      jumpi\n      0x00\n      dup1\n      revert\n    tag_45:\n      pop\n      tag_46\n      tag_47\n      jump\t// in\n    tag_46:\n      mload(0x40)\n      tag_48\n      swap2\n      swap1\n      tag_26\n      jump\t// in\n    tag_48:\n      mload(0x40)\n      dup1\n      swap2\n      sub\n      swap1\n      return\n        /* \"contracts/DutchAuction.sol\":340:371  address public immutable seller */\n    tag_14:\n      immutable(\"0xf4c2b5de886427473655d4c904c743576dc2d53249b7535d96c06cc97ae7216b\")\n      dup2\n      jump\t// out\n        /* \"contracts/DutchAuction.sol\":208:236  IERC721 public immutable nft */\n    tag_19:\n      immutable(\"0x5c4c6aa067b6f8e6cb38e6ab843832a94d1712d661a04d73c517d6a1931a9e5d\")\n      dup2\n      jump\t// out\n        /* \"contracts/DutchAuction.sol\":453:484  uint public immutable expiresAt */\n    tag_24:\n      immutable(\"0x58a280f74f57bf051c40f060139dc747e015be52f68c57e2c4ab2e4bd4146f43\")\n      dup2\n      jump\t// out\n        /* \"contracts/DutchAuction.sol\":1484:1685  function getPrice() public view returns (uint) {... */\n    tag_29:\n        /* \"contracts/DutchAuction.sol\":1525:1529  uint */\n      0x00\n        /* \"contracts/DutchAuction.sol\":1541:1557  uint timeElapsed */\n      dup1\n        /* \"contracts/DutchAuction.sol\":1578:1585  startAt */\n      immutable(\"0x81e080ffc23e8b8d44dd829bc823229e92b893eb1d8f624419d3f5682eb97fc3\")\n        /* \"contracts/DutchAuction.sol\":1560:1575  block.timestamp */\n      timestamp\n        /* \"contracts/DutchAuction.sol\":1560:1585  block.timestamp - startAt */\n      tag_50\n      swap2\n      swap1\n      tag_51\n      jump\t// in\n    tag_50:\n        /* \"contracts/DutchAuction.sol\":1541:1585  uint timeElapsed = block.timestamp - startAt */\n      swap1\n      pop\n        /* \"contracts/DutchAuction.sol\":1595:1608  uint discount */\n      0x00\n        /* \"contracts/DutchAuction.sol\":1626:1637  timeElapsed */\n      dup2\n        /* \"contracts/DutchAuction.sol\":1611:1623  discountRate */\n      immutable(\"0x7749cc8014201da2069c21d93ba99c584b6f62d393fde534ed47eac227e31561\")\n        /* \"contracts/DutchAuction.sol\":1611:1637  discountRate * timeElapsed */\n      tag_52\n      swap2\n      swap1\n      tag_53\n      jump\t// in\n    tag_52:\n        /* \"contracts/DutchAuction.sol\":1595:1637  uint discount = discountRate * timeElapsed */\n      swap1\n      pop\n        /* \"contracts/DutchAuction.sol\":1670:1678  discount */\n      dup1\n        /* \"contracts/DutchAuction.sol\":1654:1667  startingPrice */\n      immutable(\"0x1572b593c53d839d80004aa4b8c51211864104f06ace9e22be9c4365b50655ea\")\n        /* \"contracts/DutchAuction.sol\":1654:1678  startingPrice - discount */\n      tag_54\n      swap2\n      swap1\n      tag_51\n      jump\t// in\n    tag_54:\n        /* \"contracts/DutchAuction.sol\":1647:1678  return startingPrice - discount */\n      swap3\n      pop\n      pop\n      pop\n        /* \"contracts/DutchAuction.sol\":1484:1685  function getPrice() public view returns (uint) {... */\n      swap1\n      jump\t// out\n        /* \"contracts/DutchAuction.sol\":1086:1453  function buy() external payable {... */\n    tag_32:\n        /* \"contracts/DutchAuction.sol\":1154:1163  expiresAt */\n      immutable(\"0x58a280f74f57bf051c40f060139dc747e015be52f68c57e2c4ab2e4bd4146f43\")\n        /* \"contracts/DutchAuction.sol\":1136:1151  block.timestamp */\n      timestamp\n        /* \"contracts/DutchAuction.sol\":1136:1163  block.timestamp < expiresAt */\n      lt\n        /* \"contracts/DutchAuction.sol\":1128:1182  require(block.timestamp < expiresAt, \"aution expired\") */\n      tag_56\n      jumpi\n      mload(0x40)\n      0x08c379a000000000000000000000000000000000000000000000000000000000\n      dup2\n      mstore\n      0x04\n      add\n      tag_57\n      swap1\n      tag_58\n      jump\t// in\n    tag_57:\n      mload(0x40)\n      dup1\n      swap2\n      sub\n      swap1\n      revert\n    tag_56:\n        /* \"contracts/DutchAuction.sol\":1193:1203  uint price */\n      0x00\n        /* \"contracts/DutchAuction.sol\":1206:1216  getPrice() */\n      tag_59\n        /* \"contracts/DutchAuction.sol\":1206:1214  getPrice */\n      tag_29\n        /* \"contracts/DutchAuction.sol\":1206:1216  getPrice() */\n      jump\t// in\n    tag_59:\n        /* \"contracts/DutchAuction.sol\":1193:1216  uint price = getPrice() */\n      swap1\n      pop\n        /* \"contracts/DutchAuction.sol\":1247:1252  price */\n      dup1\n        /* \"contracts/DutchAuction.sol\":1234:1243  msg.value */\n      callvalue\n        /* \"contracts/DutchAuction.sol\":1234:1252  msg.value >= price */\n      lt\n      iszero\n        /* \"contracts/DutchAuction.sol\":1226:1266  require(msg.value >= price, \"ETH<price\") */\n      tag_60\n      jumpi\n      mload(0x40)\n      0x08c379a000000000000000000000000000000000000000000000000000000000\n      dup2\n      mstore\n      0x04\n      add\n      tag_61\n      swap1\n      tag_62\n      jump\t// in\n    tag_61:\n      mload(0x40)\n      dup1\n      swap2\n      sub\n      swap1\n      revert\n    tag_60:\n        /* \"contracts/DutchAuction.sol\":1276:1279  nft */\n      immutable(\"0x5c4c6aa067b6f8e6cb38e6ab843832a94d1712d661a04d73c517d6a1931a9e5d\")\n        /* \"contracts/DutchAuction.sol\":1276:1292  nft.transferFrom */\n      0xffffffffffffffffffffffffffffffffffffffff\n      and\n      0x23b872dd\n        /* \"contracts/DutchAuction.sol\":1293:1299  seller */\n      immutable(\"0xf4c2b5de886427473655d4c904c743576dc2d53249b7535d96c06cc97ae7216b\")\n        /* \"contracts/DutchAuction.sol\":1301:1311  msg.sender */\n      caller\n        /* \"contracts/DutchAuction.sol\":1313:1318  nftId */\n      immutable(\"0x277ab82e5a4641341820a4a2933a62c1de997e42e92548657ae21b3728d580fe\")\n        /* \"contracts/DutchAuction.sol\":1276:1319  nft.transferFrom(seller, msg.sender, nftId) */\n      mload(0x40)\n      dup5\n      0xffffffff\n      and\n      0xe0\n      shl\n      dup2\n      mstore\n      0x04\n      add\n      tag_63\n      swap4\n      swap3\n      swap2\n      swap1\n      tag_64\n      jump\t// in\n    tag_63:\n      0x00\n      mload(0x40)\n      dup1\n      dup4\n      sub\n      dup2\n      0x00\n      dup8\n      dup1\n      extcodesize\n      iszero\n      dup1\n      iszero\n      tag_65\n      jumpi\n      0x00\n      dup1\n      revert\n    tag_65:\n      pop\n      gas\n      call\n      iszero\n      dup1\n      iszero\n      tag_67\n      jumpi\n      returndatasize\n      0x00\n      dup1\n      returndatacopy\n      revert(0x00, returndatasize)\n    tag_67:\n      pop\n      pop\n      pop\n      pop\n        /* \"contracts/DutchAuction.sol\":1329:1340  uint refund */\n      0x00\n        /* \"contracts/DutchAuction.sol\":1355:1360  price */\n      dup2\n        /* \"contracts/DutchAuction.sol\":1343:1352  msg.value */\n      callvalue\n        /* \"contracts/DutchAuction.sol\":1343:1360  msg.value - price */\n      tag_68\n      swap2\n      swap1\n      tag_51\n      jump\t// in\n    tag_68:\n        /* \"contracts/DutchAuction.sol\":1329:1360  uint refund = msg.value - price */\n      swap1\n      pop\n        /* \"contracts/DutchAuction.sol\":1383:1384  0 */\n      0x00\n        /* \"contracts/DutchAuction.sol\":1374:1380  refund */\n      dup2\n        /* \"contracts/DutchAuction.sol\":1374:1384  refund > 0 */\n      gt\n        /* \"contracts/DutchAuction.sol\":1370:1447  if (refund > 0) {... */\n      iszero\n      tag_69\n      jumpi\n        /* \"contracts/DutchAuction.sol\":1408:1418  msg.sender */\n      caller\n        /* \"contracts/DutchAuction.sol\":1400:1428  payable(msg.sender).transfer */\n      0xffffffffffffffffffffffffffffffffffffffff\n      and\n        /* \"contracts/DutchAuction.sol\":1400:1436  payable(msg.sender).transfer(refund) */\n      0x08fc\n        /* \"contracts/DutchAuction.sol\":1429:1435  refund */\n      dup3\n        /* \"contracts/DutchAuction.sol\":1400:1436  payable(msg.sender).transfer(refund) */\n      swap1\n      dup2\n      iszero\n      mul\n      swap1\n      mload(0x40)\n      0x00\n      mload(0x40)\n      dup1\n      dup4\n      sub\n      dup2\n      dup6\n      dup9\n      dup9\n      call\n      swap4\n      pop\n      pop\n      pop\n      pop\n      iszero\n      dup1\n      iszero\n      tag_71\n      jumpi\n      returndatasize\n      0x00\n      dup1\n      returndatacopy\n      revert(0x00, returndatasize)\n    tag_71:\n      pop\n        /* \"contracts/DutchAuction.sol\":1370:1447  if (refund > 0) {... */\n    tag_69:\n        /* \"contracts/DutchAuction.sol\":1118:1453  {... */\n      pop\n      pop\n        /* \"contracts/DutchAuction.sol\":1086:1453  function buy() external payable {... */\n      jump\t// out\n        /* \"contracts/DutchAuction.sol\":242:269  uint public immutable nftId */\n    tag_35:\n      immutable(\"0x277ab82e5a4641341820a4a2933a62c1de997e42e92548657ae21b3728d580fe\")\n      dup2\n      jump\t// out\n        /* \"contracts/DutchAuction.sol\":418:447  uint public immutable startAt */\n    tag_39:\n      immutable(\"0x81e080ffc23e8b8d44dd829bc823229e92b893eb1d8f624419d3f5682eb97fc3\")\n      dup2\n      jump\t// out\n        /* \"contracts/DutchAuction.sol\":377:412  uint public immutable startingPrice */\n    tag_43:\n      immutable(\"0x1572b593c53d839d80004aa4b8c51211864104f06ace9e22be9c4365b50655ea\")\n      dup2\n      jump\t// out\n        /* \"contracts/DutchAuction.sol\":490:524  uint public immutable discountRate */\n    tag_47:\n      immutable(\"0x7749cc8014201da2069c21d93ba99c584b6f62d393fde534ed47eac227e31561\")\n      dup2\n      jump\t// out\n        /* \"#utility.yul\":7:133   */\n    tag_72:\n        /* \"#utility.yul\":44:51   */\n      0x00\n        /* \"#utility.yul\":84:126   */\n      0xffffffffffffffffffffffffffffffffffffffff\n        /* \"#utility.yul\":77:82   */\n      dup3\n        /* \"#utility.yul\":73:127   */\n      and\n        /* \"#utility.yul\":62:127   */\n      swap1\n      pop\n        /* \"#utility.yul\":7:133   */\n      swap2\n      swap1\n      pop\n      jump\t// out\n        /* \"#utility.yul\":139:235   */\n    tag_73:\n        /* \"#utility.yul\":176:183   */\n      0x00\n        /* \"#utility.yul\":205:229   */\n      tag_91\n        /* \"#utility.yul\":223:228   */\n      dup3\n        /* \"#utility.yul\":205:229   */\n      tag_72\n      jump\t// in\n    tag_91:\n        /* \"#utility.yul\":194:229   */\n      swap1\n      pop\n        /* \"#utility.yul\":139:235   */\n      swap2\n      swap1\n      pop\n      jump\t// out\n        /* \"#utility.yul\":241:359   */\n    tag_74:\n        /* \"#utility.yul\":328:352   */\n      tag_93\n        /* \"#utility.yul\":346:351   */\n      dup2\n        /* \"#utility.yul\":328:352   */\n      tag_73\n      jump\t// in\n    tag_93:\n        /* \"#utility.yul\":323:326   */\n      dup3\n        /* \"#utility.yul\":316:353   */\n      mstore\n        /* \"#utility.yul\":241:359   */\n      pop\n      pop\n      jump\t// out\n        /* \"#utility.yul\":365:587   */\n    tag_16:\n        /* \"#utility.yul\":458:462   */\n      0x00\n        /* \"#utility.yul\":496:498   */\n      0x20\n        /* \"#utility.yul\":485:494   */\n      dup3\n        /* \"#utility.yul\":481:499   */\n      add\n        /* \"#utility.yul\":473:499   */\n      swap1\n      pop\n        /* \"#utility.yul\":509:580   */\n      tag_95\n        /* \"#utility.yul\":577:578   */\n      0x00\n        /* \"#utility.yul\":566:575   */\n      dup4\n        /* \"#utility.yul\":562:579   */\n      add\n        /* \"#utility.yul\":553:559   */\n      dup5\n        /* \"#utility.yul\":509:580   */\n      tag_74\n      jump\t// in\n    tag_95:\n        /* \"#utility.yul\":365:587   */\n      swap3\n      swap2\n      pop\n      pop\n      jump\t// out\n        /* \"#utility.yul\":593:653   */\n    tag_75:\n        /* \"#utility.yul\":621:624   */\n      0x00\n        /* \"#utility.yul\":642:647   */\n      dup2\n        /* \"#utility.yul\":635:647   */\n      swap1\n      pop\n        /* \"#utility.yul\":593:653   */\n      swap2\n      swap1\n      pop\n      jump\t// out\n        /* \"#utility.yul\":659:801   */\n    tag_76:\n        /* \"#utility.yul\":709:718   */\n      0x00\n        /* \"#utility.yul\":742:795   */\n      tag_98\n        /* \"#utility.yul\":760:794   */\n      tag_99\n        /* \"#utility.yul\":769:793   */\n      tag_100\n        /* \"#utility.yul\":787:792   */\n      dup5\n        /* \"#utility.yul\":769:793   */\n      tag_72\n      jump\t// in\n    tag_100:\n        /* \"#utility.yul\":760:794   */\n      tag_75\n      jump\t// in\n    tag_99:\n        /* \"#utility.yul\":742:795   */\n      tag_72\n      jump\t// in\n    tag_98:\n        /* \"#utility.yul\":729:795   */\n      swap1\n      pop\n        /* \"#utility.yul\":659:801   */\n      swap2\n      swap1\n      pop\n      jump\t// out\n        /* \"#utility.yul\":807:933   */\n    tag_77:\n        /* \"#utility.yul\":857:866   */\n      0x00\n        /* \"#utility.yul\":890:927   */\n      tag_102\n        /* \"#utility.yul\":921:926   */\n      dup3\n        /* \"#utility.yul\":890:927   */\n      tag_76\n      jump\t// in\n    tag_102:\n        /* \"#utility.yul\":877:927   */\n      swap1\n      pop\n        /* \"#utility.yul\":807:933   */\n      swap2\n      swap1\n      pop\n      jump\t// out\n        /* \"#utility.yul\":939:1079   */\n    tag_78:\n        /* \"#utility.yul\":1003:1012   */\n      0x00\n        /* \"#utility.yul\":1036:1073   */\n      tag_104\n        /* \"#utility.yul\":1067:1072   */\n      dup3\n        /* \"#utility.yul\":1036:1073   */\n      tag_77\n      jump\t// in\n    tag_104:\n        /* \"#utility.yul\":1023:1073   */\n      swap1\n      pop\n        /* \"#utility.yul\":939:1079   */\n      swap2\n      swap1\n      pop\n      jump\t// out\n        /* \"#utility.yul\":1085:1244   */\n    tag_79:\n        /* \"#utility.yul\":1186:1237   */\n      tag_106\n        /* \"#utility.yul\":1231:1236   */\n      dup2\n        /* \"#utility.yul\":1186:1237   */\n      tag_78\n      jump\t// in\n    tag_106:\n        /* \"#utility.yul\":1181:1184   */\n      dup3\n        /* \"#utility.yul\":1174:1238   */\n      mstore\n        /* \"#utility.yul\":1085:1244   */\n      pop\n      pop\n      jump\t// out\n        /* \"#utility.yul\":1250:1500   */\n    tag_21:\n        /* \"#utility.yul\":1357:1361   */\n      0x00\n        /* \"#utility.yul\":1395:1397   */\n      0x20\n        /* \"#utility.yul\":1384:1393   */\n      dup3\n        /* \"#utility.yul\":1380:1398   */\n      add\n        /* \"#utility.yul\":1372:1398   */\n      swap1\n      pop\n        /* \"#utility.yul\":1408:1493   */\n      tag_108\n        /* \"#utility.yul\":1490:1491   */\n      0x00\n        /* \"#utility.yul\":1479:1488   */\n      dup4\n        /* \"#utility.yul\":1475:1492   */\n      add\n        /* \"#utility.yul\":1466:1472   */\n      dup5\n        /* \"#utility.yul\":1408:1493   */\n      tag_79\n      jump\t// in\n    tag_108:\n        /* \"#utility.yul\":1250:1500   */\n      swap3\n      swap2\n      pop\n      pop\n      jump\t// out\n        /* \"#utility.yul\":1506:1583   */\n    tag_80:\n        /* \"#utility.yul\":1543:1550   */\n      0x00\n        /* \"#utility.yul\":1572:1577   */\n      dup2\n        /* \"#utility.yul\":1561:1577   */\n      swap1\n      pop\n        /* \"#utility.yul\":1506:1583   */\n      swap2\n      swap1\n      pop\n      jump\t// out\n        /* \"#utility.yul\":1589:1707   */\n    tag_81:\n        /* \"#utility.yul\":1676:1700   */\n      tag_111\n        /* \"#utility.yul\":1694:1699   */\n      dup2\n        /* \"#utility.yul\":1676:1700   */\n      tag_80\n      jump\t// in\n    tag_111:\n        /* \"#utility.yul\":1671:1674   */\n      dup3\n        /* \"#utility.yul\":1664:1701   */\n      mstore\n        /* \"#utility.yul\":1589:1707   */\n      pop\n      pop\n      jump\t// out\n        /* \"#utility.yul\":1713:1935   */\n    tag_26:\n        /* \"#utility.yul\":1806:1810   */\n      0x00\n        /* \"#utility.yul\":1844:1846   */\n      0x20\n        /* \"#utility.yul\":1833:1842   */\n      dup3\n        /* \"#utility.yul\":1829:1847   */\n      add\n        /* \"#utility.yul\":1821:1847   */\n      swap1\n      pop\n        /* \"#utility.yul\":1857:1928   */\n      tag_113\n        /* \"#utility.yul\":1925:1926   */\n      0x00\n        /* \"#utility.yul\":1914:1923   */\n      dup4\n        /* \"#utility.yul\":1910:1927   */\n      add\n        /* \"#utility.yul\":1901:1907   */\n      dup5\n        /* \"#utility.yul\":1857:1928   */\n      tag_81\n      jump\t// in\n    tag_113:\n        /* \"#utility.yul\":1713:1935   */\n      swap3\n      swap2\n      pop\n      pop\n      jump\t// out\n        /* \"#utility.yul\":1941:2121   */\n    tag_82:\n        /* \"#utility.yul\":1989:2066   */\n      0x4e487b7100000000000000000000000000000000000000000000000000000000\n        /* \"#utility.yul\":1986:1987   */\n      0x00\n        /* \"#utility.yul\":1979:2067   */\n      mstore\n        /* \"#utility.yul\":2086:2090   */\n      0x11\n        /* \"#utility.yul\":2083:2084   */\n      0x04\n        /* \"#utility.yul\":2076:2091   */\n      mstore\n        /* \"#utility.yul\":2110:2114   */\n      0x24\n        /* \"#utility.yul\":2107:2108   */\n      0x00\n        /* \"#utility.yul\":2100:2115   */\n      revert\n        /* \"#utility.yul\":2127:2321   */\n    tag_51:\n        /* \"#utility.yul\":2167:2171   */\n      0x00\n        /* \"#utility.yul\":2187:2207   */\n      tag_116\n        /* \"#utility.yul\":2205:2206   */\n      dup3\n        /* \"#utility.yul\":2187:2207   */\n      tag_80\n      jump\t// in\n    tag_116:\n        /* \"#utility.yul\":2182:2207   */\n      swap2\n      pop\n        /* \"#utility.yul\":2221:2241   */\n      tag_117\n        /* \"#utility.yul\":2239:2240   */\n      dup4\n        /* \"#utility.yul\":2221:2241   */\n      tag_80\n      jump\t// in\n    tag_117:\n        /* \"#utility.yul\":2216:2241   */\n      swap3\n      pop\n        /* \"#utility.yul\":2265:2266   */\n      dup3\n        /* \"#utility.yul\":2262:2263   */\n      dup3\n        /* \"#utility.yul\":2258:2267   */\n      sub\n        /* \"#utility.yul\":2250:2267   */\n      swap1\n      pop\n        /* \"#utility.yul\":2289:2290   */\n      dup2\n        /* \"#utility.yul\":2283:2287   */\n      dup2\n        /* \"#utility.yul\":2280:2291   */\n      gt\n        /* \"#utility.yul\":2277:2314   */\n      iszero\n      tag_118\n      jumpi\n        /* \"#utility.yul\":2294:2312   */\n      tag_119\n      tag_82\n      jump\t// in\n    tag_119:\n        /* \"#utility.yul\":2277:2314   */\n    tag_118:\n        /* \"#utility.yul\":2127:2321   */\n      swap3\n      swap2\n      pop\n      pop\n      jump\t// out\n        /* \"#utility.yul\":2327:2737   */\n    tag_53:\n        /* \"#utility.yul\":2367:2374   */\n      0x00\n        /* \"#utility.yul\":2390:2410   */\n      tag_121\n        /* \"#utility.yul\":2408:2409   */\n      dup3\n        /* \"#utility.yul\":2390:2410   */\n      tag_80\n      jump\t// in\n    tag_121:\n        /* \"#utility.yul\":2385:2410   */\n      swap2\n      pop\n        /* \"#utility.yul\":2424:2444   */\n      tag_122\n        /* \"#utility.yul\":2442:2443   */\n      dup4\n        /* \"#utility.yul\":2424:2444   */\n      tag_80\n      jump\t// in\n    tag_122:\n        /* \"#utility.yul\":2419:2444   */\n      swap3\n      pop\n        /* \"#utility.yul\":2479:2480   */\n      dup3\n        /* \"#utility.yul\":2476:2477   */\n      dup3\n        /* \"#utility.yul\":2472:2481   */\n      mul\n        /* \"#utility.yul\":2501:2531   */\n      tag_123\n        /* \"#utility.yul\":2519:2530   */\n      dup2\n        /* \"#utility.yul\":2501:2531   */\n      tag_80\n      jump\t// in\n    tag_123:\n        /* \"#utility.yul\":2490:2531   */\n      swap2\n      pop\n        /* \"#utility.yul\":2680:2681   */\n      dup3\n        /* \"#utility.yul\":2671:2678   */\n      dup3\n        /* \"#utility.yul\":2667:2682   */\n      div\n        /* \"#utility.yul\":2664:2665   */\n      dup5\n        /* \"#utility.yul\":2661:2683   */\n      eq\n        /* \"#utility.yul\":2641:2642   */\n      dup4\n        /* \"#utility.yul\":2634:2643   */\n      iszero\n        /* \"#utility.yul\":2614:2697   */\n      or\n        /* \"#utility.yul\":2591:2730   */\n      tag_124\n      jumpi\n        /* \"#utility.yul\":2710:2728   */\n      tag_125\n      tag_82\n      jump\t// in\n    tag_125:\n        /* \"#utility.yul\":2591:2730   */\n    tag_124:\n        /* \"#utility.yul\":2375:2737   */\n      pop\n        /* \"#utility.yul\":2327:2737   */\n      swap3\n      swap2\n      pop\n      pop\n      jump\t// out\n        /* \"#utility.yul\":2743:2912   */\n    tag_83:\n        /* \"#utility.yul\":2827:2838   */\n      0x00\n        /* \"#utility.yul\":2861:2867   */\n      dup3\n        /* \"#utility.yul\":2856:2859   */\n      dup3\n        /* \"#utility.yul\":2849:2868   */\n      mstore\n        /* \"#utility.yul\":2901:2905   */\n      0x20\n        /* \"#utility.yul\":2896:2899   */\n      dup3\n        /* \"#utility.yul\":2892:2906   */\n      add\n        /* \"#utility.yul\":2877:2906   */\n      swap1\n      pop\n        /* \"#utility.yul\":2743:2912   */\n      swap3\n      swap2\n      pop\n      pop\n      jump\t// out\n        /* \"#utility.yul\":2918:3082   */\n    tag_84:\n        /* \"#utility.yul\":3058:3074   */\n      0x617574696f6e2065787069726564000000000000000000000000000000000000\n        /* \"#utility.yul\":3054:3055   */\n      0x00\n        /* \"#utility.yul\":3046:3052   */\n      dup3\n        /* \"#utility.yul\":3042:3056   */\n      add\n        /* \"#utility.yul\":3035:3075   */\n      mstore\n        /* \"#utility.yul\":2918:3082   */\n      pop\n      jump\t// out\n        /* \"#utility.yul\":3088:3454   */\n    tag_85:\n        /* \"#utility.yul\":3230:3233   */\n      0x00\n        /* \"#utility.yul\":3251:3318   */\n      tag_129\n        /* \"#utility.yul\":3315:3317   */\n      0x0e\n        /* \"#utility.yul\":3310:3313   */\n      dup4\n        /* \"#utility.yul\":3251:3318   */\n      tag_83\n      jump\t// in\n    tag_129:\n        /* \"#utility.yul\":3244:3318   */\n      swap2\n      pop\n        /* \"#utility.yul\":3327:3420   */\n      tag_130\n        /* \"#utility.yul\":3416:3419   */\n      dup3\n        /* \"#utility.yul\":3327:3420   */\n      tag_84\n      jump\t// in\n    tag_130:\n        /* \"#utility.yul\":3445:3447   */\n      0x20\n        /* \"#utility.yul\":3440:3443   */\n      dup3\n        /* \"#utility.yul\":3436:3448   */\n      add\n        /* \"#utility.yul\":3429:3448   */\n      swap1\n      pop\n        /* \"#utility.yul\":3088:3454   */\n      swap2\n      swap1\n      pop\n      jump\t// out\n        /* \"#utility.yul\":3460:3879   */\n    tag_58:\n        /* \"#utility.yul\":3626:3630   */\n      0x00\n        /* \"#utility.yul\":3664:3666   */\n      0x20\n        /* \"#utility.yul\":3653:3662   */\n      dup3\n        /* \"#utility.yul\":3649:3667   */\n      add\n        /* \"#utility.yul\":3641:3667   */\n      swap1\n      pop\n        /* \"#utility.yul\":3713:3722   */\n      dup2\n        /* \"#utility.yul\":3707:3711   */\n      dup2\n        /* \"#utility.yul\":3703:3723   */\n      sub\n        /* \"#utility.yul\":3699:3700   */\n      0x00\n        /* \"#utility.yul\":3688:3697   */\n      dup4\n        /* \"#utility.yul\":3684:3701   */\n      add\n        /* \"#utility.yul\":3677:3724   */\n      mstore\n        /* \"#utility.yul\":3741:3872   */\n      tag_132\n        /* \"#utility.yul\":3867:3871   */\n      dup2\n        /* \"#utility.yul\":3741:3872   */\n      tag_85\n      jump\t// in\n    tag_132:\n        /* \"#utility.yul\":3733:3872   */\n      swap1\n      pop\n        /* \"#utility.yul\":3460:3879   */\n      swap2\n      swap1\n      pop\n      jump\t// out\n        /* \"#utility.yul\":3885:4044   */\n    tag_86:\n        /* \"#utility.yul\":4025:4036   */\n      0x4554483c70726963650000000000000000000000000000000000000000000000\n        /* \"#utility.yul\":4021:4022   */\n      0x00\n        /* \"#utility.yul\":4013:4019   */\n      dup3\n        /* \"#utility.yul\":4009:4023   */\n      add\n        /* \"#utility.yul\":4002:4037   */\n      mstore\n        /* \"#utility.yul\":3885:4044   */\n      pop\n      jump\t// out\n        /* \"#utility.yul\":4050:4415   */\n    tag_87:\n        /* \"#utility.yul\":4192:4195   */\n      0x00\n        /* \"#utility.yul\":4213:4279   */\n      tag_135\n        /* \"#utility.yul\":4277:4278   */\n      0x09\n        /* \"#utility.yul\":4272:4275   */\n      dup4\n        /* \"#utility.yul\":4213:4279   */\n      tag_83\n      jump\t// in\n    tag_135:\n        /* \"#utility.yul\":4206:4279   */\n      swap2\n      pop\n        /* \"#utility.yul\":4288:4381   */\n      tag_136\n        /* \"#utility.yul\":4377:4380   */\n      dup3\n        /* \"#utility.yul\":4288:4381   */\n      tag_86\n      jump\t// in\n    tag_136:\n        /* \"#utility.yul\":4406:4408   */\n      0x20\n        /* \"#utility.yul\":4401:4404   */\n      dup3\n        /* \"#utility.yul\":4397:4409   */\n      add\n        /* \"#utility.yul\":4390:4409   */\n      swap1\n      pop\n        /* \"#utility.yul\":4050:4415   */\n      swap2\n      swap1\n      pop\n      jump\t// out\n        /* \"#utility.yul\":4421:4840   */\n    tag_62:\n        /* \"#utility.yul\":4587:4591   */\n      0x00\n        /* \"#utility.yul\":4625:4627   */\n      0x20\n        /* \"#utility.yul\":4614:4623   */\n      dup3\n        /* \"#utility.yul\":4610:4628   */\n      add\n        /* \"#utility.yul\":4602:4628   */\n      swap1\n      pop\n        /* \"#utility.yul\":4674:4683   */\n      dup2\n        /* \"#utility.yul\":4668:4672   */\n      dup2\n        /* \"#utility.yul\":4664:4684   */\n      sub\n        /* \"#utility.yul\":4660:4661   */\n      0x00\n        /* \"#utility.yul\":4649:4658   */\n      dup4\n        /* \"#utility.yul\":4645:4662   */\n      add\n        /* \"#utility.yul\":4638:4685   */\n      mstore\n        /* \"#utility.yul\":4702:4833   */\n      tag_138\n        /* \"#utility.yul\":4828:4832   */\n      dup2\n        /* \"#utility.yul\":4702:4833   */\n      tag_87\n      jump\t// in\n    tag_138:\n        /* \"#utility.yul\":4694:4833   */\n      swap1\n      pop\n        /* \"#utility.yul\":4421:4840   */\n      swap2\n      swap1\n      pop\n      jump\t// out\n        /* \"#utility.yul\":4846:5288   */\n    tag_64:\n        /* \"#utility.yul\":4995:4999   */\n      0x00\n        /* \"#utility.yul\":5033:5035   */\n      0x60\n        /* \"#utility.yul\":5022:5031   */\n      dup3\n        /* \"#utility.yul\":5018:5036   */\n      add\n        /* \"#utility.yul\":5010:5036   */\n      swap1\n      pop\n        /* \"#utility.yul\":5046:5117   */\n      tag_140\n        /* \"#utility.yul\":5114:5115   */\n      0x00\n        /* \"#utility.yul\":5103:5112   */\n      dup4\n        /* \"#utility.yul\":5099:5116   */\n      add\n        /* \"#utility.yul\":5090:5096   */\n      dup7\n        /* \"#utility.yul\":5046:5117   */\n      tag_74\n      jump\t// in\n    tag_140:\n        /* \"#utility.yul\":5127:5199   */\n      tag_141\n        /* \"#utility.yul\":5195:5197   */\n      0x20\n        /* \"#utility.yul\":5184:5193   */\n      dup4\n        /* \"#utility.yul\":5180:5198   */\n      add\n        /* \"#utility.yul\":5171:5177   */\n      dup6\n        /* \"#utility.yul\":5127:5199   */\n      tag_74\n      jump\t// in\n    tag_141:\n        /* \"#utility.yul\":5209:5281   */\n      tag_142\n        /* \"#utility.yul\":5277:5279   */\n      0x40\n        /* \"#utility.yul\":5266:5275   */\n      dup4\n        /* \"#utility.yul\":5262:5280   */\n      add\n        /* \"#utility.yul\":5253:5259   */\n      dup5\n        /* \"#utility.yul\":5209:5281   */\n      tag_81\n      jump\t// in\n    tag_142:\n        /* \"#utility.yul\":4846:5288   */\n      swap5\n      swap4\n      pop\n      pop\n      pop\n      pop\n      jump\t// out\n\n    auxdata: 0xa2646970667358221220834edc5d63c4f568f4a73346b8e599fe8cf288e498244f8b5d46e1a09372786564736f6c63430008170033\n}\n",
				"bytecode": {
					"linkReferences": {},
					"object": "61016060405234801562000011575f80fd5b5060405162000c2c38038062000c2c8339818101604052810190620000379190620001d7565b3373ffffffffffffffffffffffffffffffffffffffff1660c08173ffffffffffffffffffffffffffffffffffffffff16815250508360e0818152505082610140818152505042610100818152505062093a804262000096919062000273565b610120818152505062093a8083620000af9190620002ad565b841015620000f4576040517f08c379a0000000000000000000000000000000000000000000000000000000008152600401620000eb9062000355565b60405180910390fd5b8173ffffffffffffffffffffffffffffffffffffffff1660808173ffffffffffffffffffffffffffffffffffffffff16815250508060a081815250505050505062000375565b5f80fd5b5f819050919050565b62000152816200013e565b81146200015d575f80fd5b50565b5f81519050620001708162000147565b92915050565b5f73ffffffffffffffffffffffffffffffffffffffff82169050919050565b5f620001a18262000176565b9050919050565b620001b38162000195565b8114620001be575f80fd5b50565b5f81519050620001d181620001a8565b92915050565b5f805f8060808587031215620001f257620001f16200013a565b5b5f620002018782880162000160565b9450506020620002148782880162000160565b93505060406200022787828801620001c1565b92505060606200023a8782880162000160565b91505092959194509250565b7f4e487b71000000000000000000000000000000000000000000000000000000005f52601160045260245ffd5b5f6200027f826200013e565b91506200028c836200013e565b9250828201905080821115620002a757620002a662000246565b5b92915050565b5f620002b9826200013e565b9150620002c6836200013e565b9250828202620002d6816200013e565b91508282048414831517620002f057620002ef62000246565b5b5092915050565b5f82825260208201905092915050565b7f7374617274696e67207072696365203c20646973636f756e74000000000000005f82015250565b5f6200033d601983620002f7565b91506200034a8262000307565b602082019050919050565b5f6020820190508181035f8301526200036e816200032f565b9050919050565b60805160a05160c05160e051610100516101205161014051610834620003f85f395f8181610283015261052901525f818161022d01526102e301525f818161025301526104e101525f81816102b1015261050501525f81816101e501526103cf01525f81816103f101526104bd01525f8181610209015261039301526108345ff3fe608060405260043610610085575f3560e01c8063a6f2ae3a11610058578063a6f2ae3a14610131578063c6bc51821461013b578063c744656514610165578063d6fbf2021461018f578063e6c0e6d5146101b957610085565b806308551a531461008957806347ccca02146100b35780638622a689146100dd57806398d5fdca14610107575b5f80fd5b348015610094575f80fd5b5061009d6101e3565b6040516100aa919061058a565b60405180910390f35b3480156100be575f80fd5b506100c7610207565b6040516100d491906105fe565b60405180910390f35b3480156100e8575f80fd5b506100f161022b565b6040516100fe919061062f565b60405180910390f35b348015610112575f80fd5b5061011b61024f565b604051610128919061062f565b60405180910390f35b6101396102e1565b005b348015610146575f80fd5b5061014f6104bb565b60405161015c919061062f565b60405180910390f35b348015610170575f80fd5b506101796104df565b604051610186919061062f565b60405180910390f35b34801561019a575f80fd5b506101a3610503565b6040516101b0919061062f565b60405180910390f35b3480156101c4575f80fd5b506101cd610527565b6040516101da919061062f565b60405180910390f35b7f000000000000000000000000000000000000000000000000000000000000000081565b7f000000000000000000000000000000000000000000000000000000000000000081565b7f000000000000000000000000000000000000000000000000000000000000000081565b5f807f00000000000000000000000000000000000000000000000000000000000000004261027d9190610675565b90505f817f00000000000000000000000000000000000000000000000000000000000000006102ac91906106a8565b9050807f00000000000000000000000000000000000000000000000000000000000000006102da9190610675565b9250505090565b7f00000000000000000000000000000000000000000000000000000000000000004210610343576040517f08c379a000000000000000000000000000000000000000000000000000000000815260040161033a90610743565b60405180910390fd5b5f61034c61024f565b905080341015610391576040517f08c379a0000000000000000000000000000000000000000000000000000000008152600401610388906107ab565b60405180910390fd5b7f000000000000000000000000000000000000000000000000000000000000000073ffffffffffffffffffffffffffffffffffffffff166323b872dd7f0000000000000000000000000000000000000000000000000000000000000000337f00000000000000000000000000000000000000000000000000000000000000006040518463ffffffff1660e01b815260040161042e939291906107c9565b5f604051808303815f87803b158015610445575f80fd5b505af1158015610457573d5f803e3d5ffd5b505050505f81346104689190610675565b90505f8111156104b7573373ffffffffffffffffffffffffffffffffffffffff166108fc8290811502906040515f60405180830381858888f193505050501580156104b5573d5f803e3d5ffd5b505b5050565b7f000000000000000000000000000000000000000000000000000000000000000081565b7f000000000000000000000000000000000000000000000000000000000000000081565b7f000000000000000000000000000000000000000000000000000000000000000081565b7f000000000000000000000000000000000000000000000000000000000000000081565b5f73ffffffffffffffffffffffffffffffffffffffff82169050919050565b5f6105748261054b565b9050919050565b6105848161056a565b82525050565b5f60208201905061059d5f83018461057b565b92915050565b5f819050919050565b5f6105c66105c16105bc8461054b565b6105a3565b61054b565b9050919050565b5f6105d7826105ac565b9050919050565b5f6105e8826105cd565b9050919050565b6105f8816105de565b82525050565b5f6020820190506106115f8301846105ef565b92915050565b5f819050919050565b61062981610617565b82525050565b5f6020820190506106425f830184610620565b92915050565b7f4e487b71000000000000000000000000000000000000000000000000000000005f52601160045260245ffd5b5f61067f82610617565b915061068a83610617565b92508282039050818111156106a2576106a1610648565b5b92915050565b5f6106b282610617565b91506106bd83610617565b92508282026106cb81610617565b915082820484148315176106e2576106e1610648565b5b5092915050565b5f82825260208201905092915050565b7f617574696f6e20657870697265640000000000000000000000000000000000005f82015250565b5f61072d600e836106e9565b9150610738826106f9565b602082019050919050565b5f6020820190508181035f83015261075a81610721565b9050919050565b7f4554483c707269636500000000000000000000000000000000000000000000005f82015250565b5f6107956009836106e9565b91506107a082610761565b602082019050919050565b5f6020820190508181035f8301526107c281610789565b9050919050565b5f6060820190506107dc5f83018661057b565b6107e9602083018561057b565b6107f66040830184610620565b94935050505056fea2646970667358221220834edc5d63c4f568f4a73346b8e599fe8cf288e498244f8b5d46e1a09372786564736f6c63430008170033",
					"opcodes": "PUSH2 0x160 PUSH1 0x40 MSTORE CALLVALUE DUP1 ISZERO PUSH3 0x11 JUMPI PUSH0 DUP1 REVERT JUMPDEST POP PUSH1 0x40 MLOAD PUSH3 0xC2C CODESIZE SUB DUP1 PUSH3 0xC2C DUP4 CODECOPY DUP2 DUP2 ADD PUSH1 0x40 MSTORE DUP2 ADD SWAP1 PUSH3 0x37 SWAP2 SWAP1 PUSH3 0x1D7 JUMP JUMPDEST CALLER PUSH20 0xFFFFFFFFFFFFFFFFFFFFFFFFFFFFFFFFFFFFFFFF AND PUSH1 0xC0 DUP2 PUSH20 0xFFFFFFFFFFFFFFFFFFFFFFFFFFFFFFFFFFFFFFFF AND DUP2 MSTORE POP POP DUP4 PUSH1 0xE0 DUP2 DUP2 MSTORE POP POP DUP3 PUSH2 0x140 DUP2 DUP2 MSTORE POP POP TIMESTAMP PUSH2 0x100 DUP2 DUP2 MSTORE POP POP PUSH3 0x93A80 TIMESTAMP PUSH3 0x96 SWAP2 SWAP1 PUSH3 0x273 JUMP JUMPDEST PUSH2 0x120 DUP2 DUP2 MSTORE POP POP PUSH3 0x93A80 DUP4 PUSH3 0xAF SWAP2 SWAP1 PUSH3 0x2AD JUMP JUMPDEST DUP5 LT ISZERO PUSH3 0xF4 JUMPI PUSH1 0x40 MLOAD PUSH32 0x8C379A000000000000000000000000000000000000000000000000000000000 DUP2 MSTORE PUSH1 0x4 ADD PUSH3 0xEB SWAP1 PUSH3 0x355 JUMP JUMPDEST PUSH1 0x40 MLOAD DUP1 SWAP2 SUB SWAP1 REVERT JUMPDEST DUP2 PUSH20 0xFFFFFFFFFFFFFFFFFFFFFFFFFFFFFFFFFFFFFFFF AND PUSH1 0x80 DUP2 PUSH20 0xFFFFFFFFFFFFFFFFFFFFFFFFFFFFFFFFFFFFFFFF AND DUP2 MSTORE POP POP DUP1 PUSH1 0xA0 DUP2 DUP2 MSTORE POP POP POP POP POP POP PUSH3 0x375 JUMP JUMPDEST PUSH0 DUP1 REVERT JUMPDEST PUSH0 DUP2 SWAP1 POP SWAP2 SWAP1 POP JUMP JUMPDEST PUSH3 0x152 DUP2 PUSH3 0x13E JUMP JUMPDEST DUP2 EQ PUSH3 0x15D JUMPI PUSH0 DUP1 REVERT JUMPDEST POP JUMP JUMPDEST PUSH0 DUP2 MLOAD SWAP1 POP PUSH3 0x170 DUP2 PUSH3 0x147 JUMP JUMPDEST SWAP3 SWAP2 POP POP JUMP JUMPDEST PUSH0 PUSH20 0xFFFFFFFFFFFFFFFFFFFFFFFFFFFFFFFFFFFFFFFF DUP3 AND SWAP1 POP SWAP2 SWAP1 POP JUMP JUMPDEST PUSH0 PUSH3 0x1A1 DUP3 PUSH3 0x176 JUMP JUMPDEST SWAP1 POP SWAP2 SWAP1 POP JUMP JUMPDEST PUSH3 0x1B3 DUP2 PUSH3 0x195 JUMP JUMPDEST DUP2 EQ PUSH3 0x1BE JUMPI PUSH0 DUP1 REVERT JUMPDEST POP JUMP JUMPDEST PUSH0 DUP2 MLOAD SWAP1 POP PUSH3 0x1D1 DUP2 PUSH3 0x1A8 JUMP JUMPDEST SWAP3 SWAP2 POP POP JUMP JUMPDEST PUSH0 DUP1 PUSH0 DUP1 PUSH1 0x80 DUP6 DUP8 SUB SLT ISZERO PUSH3 0x1F2 JUMPI PUSH3 0x1F1 PUSH3 0x13A JUMP JUMPDEST JUMPDEST PUSH0 PUSH3 0x201 DUP8 DUP3 DUP9 ADD PUSH3 0x160 JUMP JUMPDEST SWAP5 POP POP PUSH1 0x20 PUSH3 0x214 DUP8 DUP3 DUP9 ADD PUSH3 0x160 JUMP JUMPDEST SWAP4 POP POP PUSH1 0x40 PUSH3 0x227 DUP8 DUP3 DUP9 ADD PUSH3 0x1C1 JUMP JUMPDEST SWAP3 POP POP PUSH1 0x60 PUSH3 0x23A DUP8 DUP3 DUP9 ADD PUSH3 0x160 JUMP JUMPDEST SWAP2 POP POP SWAP3 SWAP6 SWAP2 SWAP5 POP SWAP3 POP JUMP JUMPDEST PUSH32 0x4E487B7100000000000000000000000000000000000000000000000000000000 PUSH0 MSTORE PUSH1 0x11 PUSH1 0x4 MSTORE PUSH1 0x24 PUSH0 REVERT JUMPDEST PUSH0 PUSH3 0x27F DUP3 PUSH3 0x13E JUMP JUMPDEST SWAP2 POP PUSH3 0x28C DUP4 PUSH3 0x13E JUMP JUMPDEST SWAP3 POP DUP3 DUP3 ADD SWAP1 POP DUP1 DUP3 GT ISZERO PUSH3 0x2A7 JUMPI PUSH3 0x2A6 PUSH3 0x246 JUMP JUMPDEST JUMPDEST SWAP3 SWAP2 POP POP JUMP JUMPDEST PUSH0 PUSH3 0x2B9 DUP3 PUSH3 0x13E JUMP JUMPDEST SWAP2 POP PUSH3 0x2C6 DUP4 PUSH3 0x13E JUMP JUMPDEST SWAP3 POP DUP3 DUP3 MUL PUSH3 0x2D6 DUP2 PUSH3 0x13E JUMP JUMPDEST SWAP2 POP DUP3 DUP3 DIV DUP5 EQ DUP4 ISZERO OR PUSH3 0x2F0 JUMPI PUSH3 0x2EF PUSH3 0x246 JUMP JUMPDEST JUMPDEST POP SWAP3 SWAP2 POP POP JUMP JUMPDEST PUSH0 DUP3 DUP3 MSTORE PUSH1 0x20 DUP3 ADD SWAP1 POP SWAP3 SWAP2 POP POP JUMP JUMPDEST PUSH32 0x7374617274696E67207072696365203C20646973636F756E7400000000000000 PUSH0 DUP3 ADD MSTORE POP JUMP JUMPDEST PUSH0 PUSH3 0x33D PUSH1 0x19 DUP4 PUSH3 0x2F7 JUMP JUMPDEST SWAP2 POP PUSH3 0x34A DUP3 PUSH3 0x307 JUMP JUMPDEST PUSH1 0x20 DUP3 ADD SWAP1 POP SWAP2 SWAP1 POP JUMP JUMPDEST PUSH0 PUSH1 0x20 DUP3 ADD SWAP1 POP DUP2 DUP2 SUB PUSH0 DUP4 ADD MSTORE PUSH3 0x36E DUP2 PUSH3 0x32F JUMP JUMPDEST SWAP1 POP SWAP2 SWAP1 POP JUMP JUMPDEST PUSH1 0x80 MLOAD PUSH1 0xA0 MLOAD PUSH1 0xC0 MLOAD PUSH1 0xE0 MLOAD PUSH2 0x100 MLOAD PUSH2 0x120 MLOAD PUSH2 0x140 MLOAD PUSH2 0x834 PUSH3 0x3F8 PUSH0 CODECOPY PUSH0 DUP2 DUP2 PUSH2 0x283 ADD MSTORE PUSH2 0x529 ADD MSTORE PUSH0 DUP2 DUP2 PUSH2 0x22D ADD MSTORE PUSH2 0x2E3 ADD MSTORE PUSH0 DUP2 DUP2 PUSH2 0x253 ADD MSTORE PUSH2 0x4E1 ADD MSTORE PUSH0 DUP2 DUP2 PUSH2 0x2B1 ADD MSTORE PUSH2 0x505 ADD MSTORE PUSH0 DUP2 DUP2 PUSH2 0x1E5 ADD MSTORE PUSH2 0x3CF ADD MSTORE PUSH0 DUP2 DUP2 PUSH2 0x3F1 ADD MSTORE PUSH2 0x4BD ADD MSTORE PUSH0 DUP2 DUP2 PUSH2 0x209 ADD MSTORE PUSH2 0x393 ADD MSTORE PUSH2 0x834 PUSH0 RETURN INVALID PUSH1 0x80 PUSH1 0x40 MSTORE PUSH1 0x4 CALLDATASIZE LT PUSH2 0x85 JUMPI PUSH0 CALLDATALOAD PUSH1 0xE0 SHR DUP1 PUSH4 0xA6F2AE3A GT PUSH2 0x58 JUMPI DUP1 PUSH4 0xA6F2AE3A EQ PUSH2 0x131 JUMPI DUP1 PUSH4 0xC6BC5182 EQ PUSH2 0x13B JUMPI DUP1 PUSH4 0xC7446565 EQ PUSH2 0x165 JUMPI DUP1 PUSH4 0xD6FBF202 EQ PUSH2 0x18F JUMPI DUP1 PUSH4 0xE6C0E6D5 EQ PUSH2 0x1B9 JUMPI PUSH2 0x85 JUMP JUMPDEST DUP1 PUSH4 0x8551A53 EQ PUSH2 0x89 JUMPI DUP1 PUSH4 0x47CCCA02 EQ PUSH2 0xB3 JUMPI DUP1 PUSH4 0x8622A689 EQ PUSH2 0xDD JUMPI DUP1 PUSH4 0x98D5FDCA EQ PUSH2 0x107 JUMPI JUMPDEST PUSH0 DUP1 REVERT JUMPDEST CALLVALUE DUP1 ISZERO PUSH2 0x94 JUMPI PUSH0 DUP1 REVERT JUMPDEST POP PUSH2 0x9D PUSH2 0x1E3 JUMP JUMPDEST PUSH1 0x40 MLOAD PUSH2 0xAA SWAP2 SWAP1 PUSH2 0x58A JUMP JUMPDEST PUSH1 0x40 MLOAD DUP1 SWAP2 SUB SWAP1 RETURN JUMPDEST CALLVALUE DUP1 ISZERO PUSH2 0xBE JUMPI PUSH0 DUP1 REVERT JUMPDEST POP PUSH2 0xC7 PUSH2 0x207 JUMP JUMPDEST PUSH1 0x40 MLOAD PUSH2 0xD4 SWAP2 SWAP1 PUSH2 0x5FE JUMP JUMPDEST PUSH1 0x40 MLOAD DUP1 SWAP2 SUB SWAP1 RETURN JUMPDEST CALLVALUE DUP1 ISZERO PUSH2 0xE8 JUMPI PUSH0 DUP1 REVERT JUMPDEST POP PUSH2 0xF1 PUSH2 0x22B JUMP JUMPDEST PUSH1 0x40 MLOAD PUSH2 0xFE SWAP2 SWAP1 PUSH2 0x62F JUMP JUMPDEST PUSH1 0x40 MLOAD DUP1 SWAP2 SUB SWAP1 RETURN JUMPDEST CALLVALUE DUP1 ISZERO PUSH2 0x112 JUMPI PUSH0 DUP1 REVERT JUMPDEST POP PUSH2 0x11B PUSH2 0x24F JUMP JUMPDEST PUSH1 0x40 MLOAD PUSH2 0x128 SWAP2 SWAP1 PUSH2 0x62F JUMP JUMPDEST PUSH1 0x40 MLOAD DUP1 SWAP2 SUB SWAP1 RETURN JUMPDEST PUSH2 0x139 PUSH2 0x2E1 JUMP JUMPDEST STOP JUMPDEST CALLVALUE DUP1 ISZERO PUSH2 0x146 JUMPI PUSH0 DUP1 REVERT JUMPDEST POP PUSH2 0x14F PUSH2 0x4BB JUMP JUMPDEST PUSH1 0x40 MLOAD PUSH2 0x15C SWAP2 SWAP1 PUSH2 0x62F JUMP JUMPDEST PUSH1 0x40 MLOAD DUP1 SWAP2 SUB SWAP1 RETURN JUMPDEST CALLVALUE DUP1 ISZERO PUSH2 0x170 JUMPI PUSH0 DUP1 REVERT JUMPDEST POP PUSH2 0x179 PUSH2 0x4DF JUMP JUMPDEST PUSH1 0x40 MLOAD PUSH2 0x186 SWAP2 SWAP1 PUSH2 0x62F JUMP JUMPDEST PUSH1 0x40 MLOAD DUP1 SWAP2 SUB SWAP1 RETURN JUMPDEST CALLVALUE DUP1 ISZERO PUSH2 0x19A JUMPI PUSH0 DUP1 REVERT JUMPDEST POP PUSH2 0x1A3 PUSH2 0x503 JUMP JUMPDEST PUSH1 0x40 MLOAD PUSH2 0x1B0 SWAP2 SWAP1 PUSH2 0x62F JUMP JUMPDEST PUSH1 0x40 MLOAD DUP1 SWAP2 SUB SWAP1 RETURN JUMPDEST CALLVALUE DUP1 ISZERO PUSH2 0x1C4 JUMPI PUSH0 DUP1 REVERT JUMPDEST POP PUSH2 0x1CD PUSH2 0x527 JUMP JUMPDEST PUSH1 0x40 MLOAD PUSH2 0x1DA SWAP2 SWAP1 PUSH2 0x62F JUMP JUMPDEST PUSH1 0x40 MLOAD DUP1 SWAP2 SUB SWAP1 RETURN JUMPDEST PUSH32 0x0 DUP2 JUMP JUMPDEST PUSH32 0x0 DUP2 JUMP JUMPDEST PUSH32 0x0 DUP2 JUMP JUMPDEST PUSH0 DUP1 PUSH32 0x0 TIMESTAMP PUSH2 0x27D SWAP2 SWAP1 PUSH2 0x675 JUMP JUMPDEST SWAP1 POP PUSH0 DUP2 PUSH32 0x0 PUSH2 0x2AC SWAP2 SWAP1 PUSH2 0x6A8 JUMP JUMPDEST SWAP1 POP DUP1 PUSH32 0x0 PUSH2 0x2DA SWAP2 SWAP1 PUSH2 0x675 JUMP JUMPDEST SWAP3 POP POP POP SWAP1 JUMP JUMPDEST PUSH32 0x0 TIMESTAMP LT PUSH2 0x343 JUMPI PUSH1 0x40 MLOAD PUSH32 0x8C379A000000000000000000000000000000000000000000000000000000000 DUP2 MSTORE PUSH1 0x4 ADD PUSH2 0x33A SWAP1 PUSH2 0x743 JUMP JUMPDEST PUSH1 0x40 MLOAD DUP1 SWAP2 SUB SWAP1 REVERT JUMPDEST PUSH0 PUSH2 0x34C PUSH2 0x24F JUMP JUMPDEST SWAP1 POP DUP1 CALLVALUE LT ISZERO PUSH2 0x391 JUMPI PUSH1 0x40 MLOAD PUSH32 0x8C379A000000000000000000000000000000000000000000000000000000000 DUP2 MSTORE PUSH1 0x4 ADD PUSH2 0x388 SWAP1 PUSH2 0x7AB JUMP JUMPDEST PUSH1 0x40 MLOAD DUP1 SWAP2 SUB SWAP1 REVERT JUMPDEST PUSH32 0x0 PUSH20 0xFFFFFFFFFFFFFFFFFFFFFFFFFFFFFFFFFFFFFFFF AND PUSH4 0x23B872DD PUSH32 0x0 CALLER PUSH32 0x0 PUSH1 0x40 MLOAD DUP5 PUSH4 0xFFFFFFFF AND PUSH1 0xE0 SHL DUP2 MSTORE PUSH1 0x4 ADD PUSH2 0x42E SWAP4 SWAP3 SWAP2 SWAP1 PUSH2 0x7C9 JUMP JUMPDEST PUSH0 PUSH1 0x40 MLOAD DUP1 DUP4 SUB DUP2 PUSH0 DUP8 DUP1 EXTCODESIZE ISZERO DUP1 ISZERO PUSH2 0x445 JUMPI PUSH0 DUP1 REVERT JUMPDEST POP GAS CALL ISZERO DUP1 ISZERO PUSH2 0x457 JUMPI RETURNDATASIZE PUSH0 DUP1 RETURNDATACOPY RETURNDATASIZE PUSH0 REVERT JUMPDEST POP POP POP POP PUSH0 DUP2 CALLVALUE PUSH2 0x468 SWAP2 SWAP1 PUSH2 0x675 JUMP JUMPDEST SWAP1 POP PUSH0 DUP2 GT ISZERO PUSH2 0x4B7 JUMPI CALLER PUSH20 0xFFFFFFFFFFFFFFFFFFFFFFFFFFFFFFFFFFFFFFFF AND PUSH2 0x8FC DUP3 SWAP1 DUP2 ISZERO MUL SWAP1 PUSH1 0x40 MLOAD PUSH0 PUSH1 0x40 MLOAD DUP1 DUP4 SUB DUP2 DUP6 DUP9 DUP9 CALL SWAP4 POP POP POP POP ISZERO DUP1 ISZERO PUSH2 0x4B5 JUMPI RETURNDATASIZE PUSH0 DUP1 RETURNDATACOPY RETURNDATASIZE PUSH0 REVERT JUMPDEST POP JUMPDEST POP POP JUMP JUMPDEST PUSH32 0x0 DUP2 JUMP JUMPDEST PUSH32 0x0 DUP2 JUMP JUMPDEST PUSH32 0x0 DUP2 JUMP JUMPDEST PUSH32 0x0 DUP2 JUMP JUMPDEST PUSH0 PUSH20 0xFFFFFFFFFFFFFFFFFFFFFFFFFFFFFFFFFFFFFFFF DUP3 AND SWAP1 POP SWAP2 SWAP1 POP JUMP JUMPDEST PUSH0 PUSH2 0x574 DUP3 PUSH2 0x54B JUMP JUMPDEST SWAP1 POP SWAP2 SWAP1 POP JUMP JUMPDEST PUSH2 0x584 DUP2 PUSH2 0x56A JUMP JUMPDEST DUP3 MSTORE POP POP JUMP JUMPDEST PUSH0 PUSH1 0x20 DUP3 ADD SWAP1 POP PUSH2 0x59D PUSH0 DUP4 ADD DUP5 PUSH2 0x57B JUMP JUMPDEST SWAP3 SWAP2 POP POP JUMP JUMPDEST PUSH0 DUP2 SWAP1 POP SWAP2 SWAP1 POP JUMP JUMPDEST PUSH0 PUSH2 0x5C6 PUSH2 0x5C1 PUSH2 0x5BC DUP5 PUSH2 0x54B JUMP JUMPDEST PUSH2 0x5A3 JUMP JUMPDEST PUSH2 0x54B JUMP JUMPDEST SWAP1 POP SWAP2 SWAP1 POP JUMP JUMPDEST PUSH0 PUSH2 0x5D7 DUP3 PUSH2 0x5AC JUMP JUMPDEST SWAP1 POP SWAP2 SWAP1 POP JUMP JUMPDEST PUSH0 PUSH2 0x5E8 DUP3 PUSH2 0x5CD JUMP JUMPDEST SWAP1 POP SWAP2 SWAP1 POP JUMP JUMPDEST PUSH2 0x5F8 DUP2 PUSH2 0x5DE JUMP JUMPDEST DUP3 MSTORE POP POP JUMP JUMPDEST PUSH0 PUSH1 0x20 DUP3 ADD SWAP1 POP PUSH2 0x611 PUSH0 DUP4 ADD DUP5 PUSH2 0x5EF JUMP JUMPDEST SWAP3 SWAP2 POP POP JUMP JUMPDEST PUSH0 DUP2 SWAP1 POP SWAP2 SWAP1 POP JUMP JUMPDEST PUSH2 0x629 DUP2 PUSH2 0x617 JUMP JUMPDEST DUP3 MSTORE POP POP JUMP JUMPDEST PUSH0 PUSH1 0x20 DUP3 ADD SWAP1 POP PUSH2 0x642 PUSH0 DUP4 ADD DUP5 PUSH2 0x620 JUMP JUMPDEST SWAP3 SWAP2 POP POP JUMP JUMPDEST PUSH32 0x4E487B7100000000000000000000000000000000000000000000000000000000 PUSH0 MSTORE PUSH1 0x11 PUSH1 0x4 MSTORE PUSH1 0x24 PUSH0 REVERT JUMPDEST PUSH0 PUSH2 0x67F DUP3 PUSH2 0x617 JUMP JUMPDEST SWAP2 POP PUSH2 0x68A DUP4 PUSH2 0x617 JUMP JUMPDEST SWAP3 POP DUP3 DUP3 SUB SWAP1 POP DUP2 DUP2 GT ISZERO PUSH2 0x6A2 JUMPI PUSH2 0x6A1 PUSH2 0x648 JUMP JUMPDEST JUMPDEST SWAP3 SWAP2 POP POP JUMP JUMPDEST PUSH0 PUSH2 0x6B2 DUP3 PUSH2 0x617 JUMP JUMPDEST SWAP2 POP PUSH2 0x6BD DUP4 PUSH2 0x617 JUMP JUMPDEST SWAP3 POP DUP3 DUP3 MUL PUSH2 0x6CB DUP2 PUSH2 0x617 JUMP JUMPDEST SWAP2 POP DUP3 DUP3 DIV DUP5 EQ DUP4 ISZERO OR PUSH2 0x6E2 JUMPI PUSH2 0x6E1 PUSH2 0x648 JUMP JUMPDEST JUMPDEST POP SWAP3 SWAP2 POP POP JUMP JUMPDEST PUSH0 DUP3 DUP3 MSTORE PUSH1 0x20 DUP3 ADD SWAP1 POP SWAP3 SWAP2 POP POP JUMP JUMPDEST PUSH32 0x617574696F6E2065787069726564000000000000000000000000000000000000 PUSH0 DUP3 ADD MSTORE POP JUMP JUMPDEST PUSH0 PUSH2 0x72D PUSH1 0xE DUP4 PUSH2 0x6E9 JUMP JUMPDEST SWAP2 POP PUSH2 0x738 DUP3 PUSH2 0x6F9 JUMP JUMPDEST PUSH1 0x20 DUP3 ADD SWAP1 POP SWAP2 SWAP1 POP JUMP JUMPDEST PUSH0 PUSH1 0x20 DUP3 ADD SWAP1 POP DUP2 DUP2 SUB PUSH0 DUP4 ADD MSTORE PUSH2 0x75A DUP2 PUSH2 0x721 JUMP JUMPDEST SWAP1 POP SWAP2 SWAP1 POP JUMP JUMPDEST PUSH32 0x4554483C70726963650000000000000000000000000000000000000000000000 PUSH0 DUP3 ADD MSTORE POP JUMP JUMPDEST PUSH0 PUSH2 0x795 PUSH1 0x9 DUP4 PUSH2 0x6E9 JUMP JUMPDEST SWAP2 POP PUSH2 0x7A0 DUP3 PUSH2 0x761 JUMP JUMPDEST PUSH1 0x20 DUP3 ADD SWAP1 POP SWAP2 SWAP1 POP JUMP JUMPDEST PUSH0 PUSH1 0x20 DUP3 ADD SWAP1 POP DUP2 DUP2 SUB PUSH0 DUP4 ADD MSTORE PUSH2 0x7C2 DUP2 PUSH2 0x789 JUMP JUMPDEST SWAP1 POP SWAP2 SWAP1 POP JUMP JUMPDEST PUSH0 PUSH1 0x60 DUP3 ADD SWAP1 POP PUSH2 0x7DC PUSH0 DUP4 ADD DUP7 PUSH2 0x57B JUMP JUMPDEST PUSH2 0x7E9 PUSH1 0x20 DUP4 ADD DUP6 PUSH2 0x57B JUMP JUMPDEST PUSH2 0x7F6 PUSH1 0x40 DUP4 ADD DUP5 PUSH2 0x620 JUMP JUMPDEST SWAP5 SWAP4 POP POP POP POP JUMP INVALID LOG2 PUSH5 0x6970667358 0x22 SLT KECCAK256 DUP4 0x4E 0xDC 0x5D PUSH4 0xC4F568F4 0xA7 CALLER CHAINID 0xB8 0xE5 SWAP10 INVALID DUP13 CALLCODE DUP9 0xE4 SWAP9 0x24 0x4F DUP12 0x5D CHAINID 0xE1 LOG0 SWAP4 PUSH19 0x786564736F6C63430008170033000000000000 "
				},
				"gasEstimates": {
					"creation": {
						"codeDepositCost": "420000",
						"executionCost": "infinite",
						"totalCost": "infinite"
					},
					"external": {
						"buy()": "infinite",
						"discountRate()": "infinite",
						"expiresAt()": "infinite",
						"getPrice()": "infinite",
						"nft()": "infinite",
						"nftId()": "infinite",
						"seller()": "infinite",
						"startAt()": "infinite",
						"startingPrice()": "infinite"
					}
				},
				"methodIdentifiers": {
					"buy()": "a6f2ae3a",
					"discountRate()": "e6c0e6d5",
					"expiresAt()": "8622a689",
					"getPrice()": "98d5fdca",
					"nft()": "47ccca02",
					"nftId()": "c6bc5182",
					"seller()": "08551a53",
					"startAt()": "c7446565",
					"startingPrice()": "d6fbf202"
				}
			},
			"storageLayout": {
				"storage": [],
				"types": null
			},
			"userdoc": {
				"kind": "user",
				"methods": {},
				"version": 1
			}
		}
	}
}