{
	"contracts/Calculator.sol": {
		"Calculator": {
			"abi": [
				{
					"inputs": [
						{
							"internalType": "uint256",
							"name": "x",
							"type": "uint256"
						},
						{
							"internalType": "uint256",
							"name": "y",
							"type": "uint256"
						}
					],
					"name": "divide",
					"outputs": [
						{
							"internalType": "uint256",
							"name": "",
							"type": "uint256"
						}
					],
					"stateMutability": "pure",
					"type": "function"
				},
				{
					"inputs": [
						{
							"internalType": "uint256",
							"name": "x",
							"type": "uint256"
						},
						{
							"internalType": "uint256",
							"name": "y",
							"type": "uint256"
						}
					],
					"name": "multiply",
					"outputs": [
						{
							"internalType": "uint256",
							"name": "",
							"type": "uint256"
						}
					],
					"stateMutability": "pure",
					"type": "function"
				}
			],
			"devdoc": {
				"kind": "dev",
				"methods": {},
				"version": 1
			},
			"evm": {
				"assembly": "    /* \"contracts/Calculator.sol\":56:324  contract Calculator {... */\n  mstore(0x40, 0x80)\n  callvalue\n  dup1\n  iszero\n  tag_1\n  jumpi\n  0x00\n  dup1\n  revert\ntag_1:\n  pop\n  dataSize(sub_0)\n  dup1\n  dataOffset(sub_0)\n  0x00\n  codecopy\n  0x00\n  return\nstop\n\nsub_0: assembly {\n        /* \"contracts/Calculator.sol\":56:324  contract Calculator {... */\n      mstore(0x40, 0x80)\n      callvalue\n      dup1\n      iszero\n      tag_1\n      jumpi\n      0x00\n      dup1\n      revert\n    tag_1:\n      pop\n      jumpi(tag_2, lt(calldatasize, 0x04))\n      shr(0xe0, calldataload(0x00))\n      dup1\n      0x165c4a16\n      eq\n      tag_3\n      jumpi\n      dup1\n      0xf88e9fbf\n      eq\n      tag_4\n      jumpi\n    tag_2:\n      0x00\n      dup1\n      revert\n        /* \"contracts/Calculator.sol\":82:174  function multiply(uint x, uint y) external pure returns (uint) {... */\n    tag_3:\n      tag_5\n      0x04\n      dup1\n      calldatasize\n      sub\n      dup2\n      add\n      swap1\n      tag_6\n      swap2\n      swap1\n      tag_7\n      jump\t// in\n    tag_6:\n      tag_8\n      jump\t// in\n    tag_5:\n      mload(0x40)\n      tag_9\n      swap2\n      swap1\n      tag_10\n      jump\t// in\n    tag_9:\n      mload(0x40)\n      dup1\n      swap2\n      sub\n      swap1\n      return\n        /* \"contracts/Calculator.sol\":180:322  function divide(uint x, uint y) external pure returns (uint) {... */\n    tag_4:\n      tag_11\n      0x04\n      dup1\n      calldatasize\n      sub\n      dup2\n      add\n      swap1\n      tag_12\n      swap2\n      swap1\n      tag_7\n      jump\t// in\n    tag_12:\n      tag_13\n      jump\t// in\n    tag_11:\n      mload(0x40)\n      tag_14\n      swap2\n      swap1\n      tag_10\n      jump\t// in\n    tag_14:\n      mload(0x40)\n      dup1\n      swap2\n      sub\n      swap1\n      return\n        /* \"contracts/Calculator.sol\":82:174  function multiply(uint x, uint y) external pure returns (uint) {... */\n    tag_8:\n        /* \"contracts/Calculator.sol\":139:143  uint */\n      0x00\n        /* \"contracts/Calculator.sol\":166:167  y */\n      dup2\n        /* \"contracts/Calculator.sol\":162:163  x */\n      dup4\n        /* \"contracts/Calculator.sol\":162:167  x * y */\n      tag_16\n      swap2\n      swap1\n      tag_17\n      jump\t// in\n    tag_16:\n        /* \"contracts/Calculator.sol\":155:167  return x * y */\n      swap1\n      pop\n        /* \"contracts/Calculator.sol\":82:174  function multiply(uint x, uint y) external pure returns (uint) {... */\n      swap3\n      swap2\n      pop\n      pop\n      jump\t// out\n        /* \"contracts/Calculator.sol\":180:322  function divide(uint x, uint y) external pure returns (uint) {... */\n    tag_13:\n        /* \"contracts/Calculator.sol\":235:239  uint */\n      0x00\n        /* \"contracts/Calculator.sol\":264:265  0 */\n      dup1\n        /* \"contracts/Calculator.sol\":259:260  y */\n      dup3\n        /* \"contracts/Calculator.sol\":259:265  y != 0 */\n      eq\n      iszero\n        /* \"contracts/Calculator.sol\":251:293  require(y != 0, \"Cannot deivide by zero.\") */\n      tag_19\n      jumpi\n      mload(0x40)\n      0x08c379a000000000000000000000000000000000000000000000000000000000\n      dup2\n      mstore\n      0x04\n      add\n      tag_20\n      swap1\n      tag_21\n      jump\t// in\n    tag_20:\n      mload(0x40)\n      dup1\n      swap2\n      sub\n      swap1\n      revert\n    tag_19:\n        /* \"contracts/Calculator.sol\":314:315  y */\n      dup2\n        /* \"contracts/Calculator.sol\":310:311  x */\n      dup4\n        /* \"contracts/Calculator.sol\":310:315  x / y */\n      tag_22\n      swap2\n      swap1\n      tag_23\n      jump\t// in\n    tag_22:\n        /* \"contracts/Calculator.sol\":303:315  return x / y */\n      swap1\n      pop\n        /* \"contracts/Calculator.sol\":180:322  function divide(uint x, uint y) external pure returns (uint) {... */\n      swap3\n      swap2\n      pop\n      pop\n      jump\t// out\n        /* \"#utility.yul\":7:146   */\n    tag_25:\n        /* \"#utility.yul\":53:58   */\n      0x00\n        /* \"#utility.yul\":91:97   */\n      dup2\n        /* \"#utility.yul\":78:98   */\n      calldataload\n        /* \"#utility.yul\":69:98   */\n      swap1\n      pop\n        /* \"#utility.yul\":107:140   */\n      tag_27\n        /* \"#utility.yul\":134:139   */\n      dup2\n        /* \"#utility.yul\":107:140   */\n      tag_28\n      jump\t// in\n    tag_27:\n        /* \"#utility.yul\":7:146   */\n      swap3\n      swap2\n      pop\n      pop\n      jump\t// out\n        /* \"#utility.yul\":152:626   */\n    tag_7:\n        /* \"#utility.yul\":220:226   */\n      0x00\n        /* \"#utility.yul\":228:234   */\n      dup1\n        /* \"#utility.yul\":277:279   */\n      0x40\n        /* \"#utility.yul\":265:274   */\n      dup4\n        /* \"#utility.yul\":256:263   */\n      dup6\n        /* \"#utility.yul\":252:275   */\n      sub\n        /* \"#utility.yul\":248:280   */\n      slt\n        /* \"#utility.yul\":245:364   */\n      iszero\n      tag_30\n      jumpi\n        /* \"#utility.yul\":283:362   */\n      tag_31\n      tag_32\n      jump\t// in\n    tag_31:\n        /* \"#utility.yul\":245:364   */\n    tag_30:\n        /* \"#utility.yul\":403:404   */\n      0x00\n        /* \"#utility.yul\":428:481   */\n      tag_33\n        /* \"#utility.yul\":473:480   */\n      dup6\n        /* \"#utility.yul\":464:470   */\n      dup3\n        /* \"#utility.yul\":453:462   */\n      dup7\n        /* \"#utility.yul\":449:471   */\n      add\n        /* \"#utility.yul\":428:481   */\n      tag_25\n      jump\t// in\n    tag_33:\n        /* \"#utility.yul\":418:481   */\n      swap3\n      pop\n        /* \"#utility.yul\":374:491   */\n      pop\n        /* \"#utility.yul\":530:532   */\n      0x20\n        /* \"#utility.yul\":556:609   */\n      tag_34\n        /* \"#utility.yul\":601:608   */\n      dup6\n        /* \"#utility.yul\":592:598   */\n      dup3\n        /* \"#utility.yul\":581:590   */\n      dup7\n        /* \"#utility.yul\":577:599   */\n      add\n        /* \"#utility.yul\":556:609   */\n      tag_25\n      jump\t// in\n    tag_34:\n        /* \"#utility.yul\":546:609   */\n      swap2\n      pop\n        /* \"#utility.yul\":501:619   */\n      pop\n        /* \"#utility.yul\":152:626   */\n      swap3\n      pop\n      swap3\n      swap1\n      pop\n      jump\t// out\n        /* \"#utility.yul\":632:998   */\n    tag_35:\n        /* \"#utility.yul\":774:777   */\n      0x00\n        /* \"#utility.yul\":795:862   */\n      tag_37\n        /* \"#utility.yul\":859:861   */\n      0x17\n        /* \"#utility.yul\":854:857   */\n      dup4\n        /* \"#utility.yul\":795:862   */\n      tag_38\n      jump\t// in\n    tag_37:\n        /* \"#utility.yul\":788:862   */\n      swap2\n      pop\n        /* \"#utility.yul\":871:964   */\n      tag_39\n        /* \"#utility.yul\":960:963   */\n      dup3\n        /* \"#utility.yul\":871:964   */\n      tag_40\n      jump\t// in\n    tag_39:\n        /* \"#utility.yul\":989:991   */\n      0x20\n        /* \"#utility.yul\":984:987   */\n      dup3\n        /* \"#utility.yul\":980:992   */\n      add\n        /* \"#utility.yul\":973:992   */\n      swap1\n      pop\n        /* \"#utility.yul\":632:998   */\n      swap2\n      swap1\n      pop\n      jump\t// out\n        /* \"#utility.yul\":1004:1122   */\n    tag_41:\n        /* \"#utility.yul\":1091:1115   */\n      tag_43\n        /* \"#utility.yul\":1109:1114   */\n      dup2\n        /* \"#utility.yul\":1091:1115   */\n      tag_44\n      jump\t// in\n    tag_43:\n        /* \"#utility.yul\":1086:1089   */\n      dup3\n        /* \"#utility.yul\":1079:1116   */\n      mstore\n        /* \"#utility.yul\":1004:1122   */\n      pop\n      pop\n      jump\t// out\n        /* \"#utility.yul\":1128:1547   */\n    tag_21:\n        /* \"#utility.yul\":1294:1298   */\n      0x00\n        /* \"#utility.yul\":1332:1334   */\n      0x20\n        /* \"#utility.yul\":1321:1330   */\n      dup3\n        /* \"#utility.yul\":1317:1335   */\n      add\n        /* \"#utility.yul\":1309:1335   */\n      swap1\n      pop\n        /* \"#utility.yul\":1381:1390   */\n      dup2\n        /* \"#utility.yul\":1375:1379   */\n      dup2\n        /* \"#utility.yul\":1371:1391   */\n      sub\n        /* \"#utility.yul\":1367:1368   */\n      0x00\n        /* \"#utility.yul\":1356:1365   */\n      dup4\n        /* \"#utility.yul\":1352:1369   */\n      add\n        /* \"#utility.yul\":1345:1392   */\n      mstore\n        /* \"#utility.yul\":1409:1540   */\n      tag_46\n        /* \"#utility.yul\":1535:1539   */\n      dup2\n        /* \"#utility.yul\":1409:1540   */\n      tag_35\n      jump\t// in\n    tag_46:\n        /* \"#utility.yul\":1401:1540   */\n      swap1\n      pop\n        /* \"#utility.yul\":1128:1547   */\n      swap2\n      swap1\n      pop\n      jump\t// out\n        /* \"#utility.yul\":1553:1775   */\n    tag_10:\n        /* \"#utility.yul\":1646:1650   */\n      0x00\n        /* \"#utility.yul\":1684:1686   */\n      0x20\n        /* \"#utility.yul\":1673:1682   */\n      dup3\n        /* \"#utility.yul\":1669:1687   */\n      add\n        /* \"#utility.yul\":1661:1687   */\n      swap1\n      pop\n        /* \"#utility.yul\":1697:1768   */\n      tag_48\n        /* \"#utility.yul\":1765:1766   */\n      0x00\n        /* \"#utility.yul\":1754:1763   */\n      dup4\n        /* \"#utility.yul\":1750:1767   */\n      add\n        /* \"#utility.yul\":1741:1747   */\n      dup5\n        /* \"#utility.yul\":1697:1768   */\n      tag_41\n      jump\t// in\n    tag_48:\n        /* \"#utility.yul\":1553:1775   */\n      swap3\n      swap2\n      pop\n      pop\n      jump\t// out\n        /* \"#utility.yul\":1862:2031   */\n    tag_38:\n        /* \"#utility.yul\":1946:1957   */\n      0x00\n        /* \"#utility.yul\":1980:1986   */\n      dup3\n        /* \"#utility.yul\":1975:1978   */\n      dup3\n        /* \"#utility.yul\":1968:1987   */\n      mstore\n        /* \"#utility.yul\":2020:2024   */\n      0x20\n        /* \"#utility.yul\":2015:2018   */\n      dup3\n        /* \"#utility.yul\":2011:2025   */\n      add\n        /* \"#utility.yul\":1996:2025   */\n      swap1\n      pop\n        /* \"#utility.yul\":1862:2031   */\n      swap3\n      swap2\n      pop\n      pop\n      jump\t// out\n        /* \"#utility.yul\":2037:2222   */\n    tag_23:\n        /* \"#utility.yul\":2077:2078   */\n      0x00\n        /* \"#utility.yul\":2094:2114   */\n      tag_53\n        /* \"#utility.yul\":2112:2113   */\n      dup3\n        /* \"#utility.yul\":2094:2114   */\n      tag_44\n      jump\t// in\n    tag_53:\n        /* \"#utility.yul\":2089:2114   */\n      swap2\n      pop\n        /* \"#utility.yul\":2128:2148   */\n      tag_54\n        /* \"#utility.yul\":2146:2147   */\n      dup4\n        /* \"#utility.yul\":2128:2148   */\n      tag_44\n      jump\t// in\n    tag_54:\n        /* \"#utility.yul\":2123:2148   */\n      swap3\n      pop\n        /* \"#utility.yul\":2167:2168   */\n      dup3\n        /* \"#utility.yul\":2157:2192   */\n      tag_55\n      jumpi\n        /* \"#utility.yul\":2172:2190   */\n      tag_56\n      tag_57\n      jump\t// in\n    tag_56:\n        /* \"#utility.yul\":2157:2192   */\n    tag_55:\n        /* \"#utility.yul\":2214:2215   */\n      dup3\n        /* \"#utility.yul\":2211:2212   */\n      dup3\n        /* \"#utility.yul\":2207:2216   */\n      div\n        /* \"#utility.yul\":2202:2216   */\n      swap1\n      pop\n        /* \"#utility.yul\":2037:2222   */\n      swap3\n      swap2\n      pop\n      pop\n      jump\t// out\n        /* \"#utility.yul\":2228:2576   */\n    tag_17:\n        /* \"#utility.yul\":2268:2275   */\n      0x00\n        /* \"#utility.yul\":2291:2311   */\n      tag_59\n        /* \"#utility.yul\":2309:2310   */\n      dup3\n        /* \"#utility.yul\":2291:2311   */\n      tag_44\n      jump\t// in\n    tag_59:\n        /* \"#utility.yul\":2286:2311   */\n      swap2\n      pop\n        /* \"#utility.yul\":2325:2345   */\n      tag_60\n        /* \"#utility.yul\":2343:2344   */\n      dup4\n        /* \"#utility.yul\":2325:2345   */\n      tag_44\n      jump\t// in\n    tag_60:\n        /* \"#utility.yul\":2320:2345   */\n      swap3\n      pop\n        /* \"#utility.yul\":2513:2514   */\n      dup2\n        /* \"#utility.yul\":2445:2511   */\n      0xffffffffffffffffffffffffffffffffffffffffffffffffffffffffffffffff\n        /* \"#utility.yul\":2441:2515   */\n      div\n        /* \"#utility.yul\":2438:2439   */\n      dup4\n        /* \"#utility.yul\":2435:2516   */\n      gt\n        /* \"#utility.yul\":2430:2431   */\n      dup3\n        /* \"#utility.yul\":2423:2432   */\n      iszero\n        /* \"#utility.yul\":2416:2433   */\n      iszero\n        /* \"#utility.yul\":2412:2517   */\n      and\n        /* \"#utility.yul\":2409:2540   */\n      iszero\n      tag_61\n      jumpi\n        /* \"#utility.yul\":2520:2538   */\n      tag_62\n      tag_63\n      jump\t// in\n    tag_62:\n        /* \"#utility.yul\":2409:2540   */\n    tag_61:\n        /* \"#utility.yul\":2568:2569   */\n      dup3\n        /* \"#utility.yul\":2565:2566   */\n      dup3\n        /* \"#utility.yul\":2561:2570   */\n      mul\n        /* \"#utility.yul\":2550:2570   */\n      swap1\n      pop\n        /* \"#utility.yul\":2228:2576   */\n      swap3\n      swap2\n      pop\n      pop\n      jump\t// out\n        /* \"#utility.yul\":2582:2659   */\n    tag_44:\n        /* \"#utility.yul\":2619:2626   */\n      0x00\n        /* \"#utility.yul\":2648:2653   */\n      dup2\n        /* \"#utility.yul\":2637:2653   */\n      swap1\n      pop\n        /* \"#utility.yul\":2582:2659   */\n      swap2\n      swap1\n      pop\n      jump\t// out\n        /* \"#utility.yul\":2665:2845   */\n    tag_63:\n        /* \"#utility.yul\":2713:2790   */\n      0x4e487b7100000000000000000000000000000000000000000000000000000000\n        /* \"#utility.yul\":2710:2711   */\n      0x00\n        /* \"#utility.yul\":2703:2791   */\n      mstore\n        /* \"#utility.yul\":2810:2814   */\n      0x11\n        /* \"#utility.yul\":2807:2808   */\n      0x04\n        /* \"#utility.yul\":2800:2815   */\n      mstore\n        /* \"#utility.yul\":2834:2838   */\n      0x24\n        /* \"#utility.yul\":2831:2832   */\n      0x00\n        /* \"#utility.yul\":2824:2839   */\n      revert\n        /* \"#utility.yul\":2851:3031   */\n    tag_57:\n        /* \"#utility.yul\":2899:2976   */\n      0x4e487b7100000000000000000000000000000000000000000000000000000000\n        /* \"#utility.yul\":2896:2897   */\n      0x00\n        /* \"#utility.yul\":2889:2977   */\n      mstore\n        /* \"#utility.yul\":2996:3000   */\n      0x12\n        /* \"#utility.yul\":2993:2994   */\n      0x04\n        /* \"#utility.yul\":2986:3001   */\n      mstore\n        /* \"#utility.yul\":3020:3024   */\n      0x24\n        /* \"#utility.yul\":3017:3018   */\n      0x00\n        /* \"#utility.yul\":3010:3025   */\n      revert\n        /* \"#utility.yul\":3160:3277   */\n    tag_32:\n        /* \"#utility.yul\":3269:3270   */\n      0x00\n        /* \"#utility.yul\":3266:3267   */\n      dup1\n        /* \"#utility.yul\":3259:3271   */\n      revert\n        /* \"#utility.yul\":3283:3456   */\n    tag_40:\n        /* \"#utility.yul\":3423:3448   */\n      0x43616e6e6f742064656976696465206279207a65726f2e000000000000000000\n        /* \"#utility.yul\":3419:3420   */\n      0x00\n        /* \"#utility.yul\":3411:3417   */\n      dup3\n        /* \"#utility.yul\":3407:3421   */\n      add\n        /* \"#utility.yul\":3400:3449   */\n      mstore\n        /* \"#utility.yul\":3283:3456   */\n      pop\n      jump\t// out\n        /* \"#utility.yul\":3462:3584   */\n    tag_28:\n        /* \"#utility.yul\":3535:3559   */\n      tag_72\n        /* \"#utility.yul\":3553:3558   */\n      dup2\n        /* \"#utility.yul\":3535:3559   */\n      tag_44\n      jump\t// in\n    tag_72:\n        /* \"#utility.yul\":3528:3533   */\n      dup2\n        /* \"#utility.yul\":3525:3560   */\n      eq\n        /* \"#utility.yul\":3515:3578   */\n      tag_73\n      jumpi\n        /* \"#utility.yul\":3574:3575   */\n      0x00\n        /* \"#utility.yul\":3571:3572   */\n      dup1\n        /* \"#utility.yul\":3564:3576   */\n      revert\n        /* \"#utility.yul\":3515:3578   */\n    tag_73:\n        /* \"#utility.yul\":3462:3584   */\n      pop\n      jump\t// out\n\n    auxdata: 0xa26469706673582212208044f16481cfba3d7089116870cd2488703dd27f3456fe7a56546dea27e1161964736f6c63430008070033\n}\n",
				"bytecode": {
					"linkReferences": {},
					"object": "608060405234801561001057600080fd5b5061034b806100206000396000f3fe608060405234801561001057600080fd5b50600436106100365760003560e01c8063165c4a161461003b578063f88e9fbf1461006b575b600080fd5b6100556004803603810190610050919061011f565b61009b565b60405161006291906101b1565b60405180910390f35b6100856004803603810190610080919061011f565b6100b1565b60405161009291906101b1565b60405180910390f35b600081836100a9919061020e565b905092915050565b6000808214156100f6576040517f08c379a00000000000000000000000000000000000000000000000000000000081526004016100ed90610191565b60405180910390fd5b818361010291906101dd565b905092915050565b600081359050610119816102fe565b92915050565b60008060408385031215610136576101356102d0565b5b60006101448582860161010a565b92505060206101558582860161010a565b9150509250929050565b600061016c6017836101cc565b9150610177826102d5565b602082019050919050565b61018b81610268565b82525050565b600060208201905081810360008301526101aa8161015f565b9050919050565b60006020820190506101c66000830184610182565b92915050565b600082825260208201905092915050565b60006101e882610268565b91506101f383610268565b925082610203576102026102a1565b5b828204905092915050565b600061021982610268565b915061022483610268565b9250817fffffffffffffffffffffffffffffffffffffffffffffffffffffffffffffffff048311821515161561025d5761025c610272565b5b828202905092915050565b6000819050919050565b7f4e487b7100000000000000000000000000000000000000000000000000000000600052601160045260246000fd5b7f4e487b7100000000000000000000000000000000000000000000000000000000600052601260045260246000fd5b600080fd5b7f43616e6e6f742064656976696465206279207a65726f2e000000000000000000600082015250565b61030781610268565b811461031257600080fd5b5056fea26469706673582212208044f16481cfba3d7089116870cd2488703dd27f3456fe7a56546dea27e1161964736f6c63430008070033",
					"opcodes": "PUSH1 0x80 PUSH1 0x40 MSTORE CALLVALUE DUP1 ISZERO PUSH2 0x10 JUMPI PUSH1 0x0 DUP1 REVERT JUMPDEST POP PUSH2 0x34B DUP1 PUSH2 0x20 PUSH1 0x0 CODECOPY PUSH1 0x0 RETURN INVALID PUSH1 0x80 PUSH1 0x40 MSTORE CALLVALUE DUP1 ISZERO PUSH2 0x10 JUMPI PUSH1 0x0 DUP1 REVERT JUMPDEST POP PUSH1 0x4 CALLDATASIZE LT PUSH2 0x36 JUMPI PUSH1 0x0 CALLDATALOAD PUSH1 0xE0 SHR DUP1 PUSH4 0x165C4A16 EQ PUSH2 0x3B JUMPI DUP1 PUSH4 0xF88E9FBF EQ PUSH2 0x6B JUMPI JUMPDEST PUSH1 0x0 DUP1 REVERT JUMPDEST PUSH2 0x55 PUSH1 0x4 DUP1 CALLDATASIZE SUB DUP2 ADD SWAP1 PUSH2 0x50 SWAP2 SWAP1 PUSH2 0x11F JUMP JUMPDEST PUSH2 0x9B JUMP JUMPDEST PUSH1 0x40 MLOAD PUSH2 0x62 SWAP2 SWAP1 PUSH2 0x1B1 JUMP JUMPDEST PUSH1 0x40 MLOAD DUP1 SWAP2 SUB SWAP1 RETURN JUMPDEST PUSH2 0x85 PUSH1 0x4 DUP1 CALLDATASIZE SUB DUP2 ADD SWAP1 PUSH2 0x80 SWAP2 SWAP1 PUSH2 0x11F JUMP JUMPDEST PUSH2 0xB1 JUMP JUMPDEST PUSH1 0x40 MLOAD PUSH2 0x92 SWAP2 SWAP1 PUSH2 0x1B1 JUMP JUMPDEST PUSH1 0x40 MLOAD DUP1 SWAP2 SUB SWAP1 RETURN JUMPDEST PUSH1 0x0 DUP2 DUP4 PUSH2 0xA9 SWAP2 SWAP1 PUSH2 0x20E JUMP JUMPDEST SWAP1 POP SWAP3 SWAP2 POP POP JUMP JUMPDEST PUSH1 0x0 DUP1 DUP3 EQ ISZERO PUSH2 0xF6 JUMPI PUSH1 0x40 MLOAD PUSH32 0x8C379A000000000000000000000000000000000000000000000000000000000 DUP2 MSTORE PUSH1 0x4 ADD PUSH2 0xED SWAP1 PUSH2 0x191 JUMP JUMPDEST PUSH1 0x40 MLOAD DUP1 SWAP2 SUB SWAP1 REVERT JUMPDEST DUP2 DUP4 PUSH2 0x102 SWAP2 SWAP1 PUSH2 0x1DD JUMP JUMPDEST SWAP1 POP SWAP3 SWAP2 POP POP JUMP JUMPDEST PUSH1 0x0 DUP2 CALLDATALOAD SWAP1 POP PUSH2 0x119 DUP2 PUSH2 0x2FE JUMP JUMPDEST SWAP3 SWAP2 POP POP JUMP JUMPDEST PUSH1 0x0 DUP1 PUSH1 0x40 DUP4 DUP6 SUB SLT ISZERO PUSH2 0x136 JUMPI PUSH2 0x135 PUSH2 0x2D0 JUMP JUMPDEST JUMPDEST PUSH1 0x0 PUSH2 0x144 DUP6 DUP3 DUP7 ADD PUSH2 0x10A JUMP JUMPDEST SWAP3 POP POP PUSH1 0x20 PUSH2 0x155 DUP6 DUP3 DUP7 ADD PUSH2 0x10A JUMP JUMPDEST SWAP2 POP POP SWAP3 POP SWAP3 SWAP1 POP JUMP JUMPDEST PUSH1 0x0 PUSH2 0x16C PUSH1 0x17 DUP4 PUSH2 0x1CC JUMP JUMPDEST SWAP2 POP PUSH2 0x177 DUP3 PUSH2 0x2D5 JUMP JUMPDEST PUSH1 0x20 DUP3 ADD SWAP1 POP SWAP2 SWAP1 POP JUMP JUMPDEST PUSH2 0x18B DUP2 PUSH2 0x268 JUMP JUMPDEST DUP3 MSTORE POP POP JUMP JUMPDEST PUSH1 0x0 PUSH1 0x20 DUP3 ADD SWAP1 POP DUP2 DUP2 SUB PUSH1 0x0 DUP4 ADD MSTORE PUSH2 0x1AA DUP2 PUSH2 0x15F JUMP JUMPDEST SWAP1 POP SWAP2 SWAP1 POP JUMP JUMPDEST PUSH1 0x0 PUSH1 0x20 DUP3 ADD SWAP1 POP PUSH2 0x1C6 PUSH1 0x0 DUP4 ADD DUP5 PUSH2 0x182 JUMP JUMPDEST SWAP3 SWAP2 POP POP JUMP JUMPDEST PUSH1 0x0 DUP3 DUP3 MSTORE PUSH1 0x20 DUP3 ADD SWAP1 POP SWAP3 SWAP2 POP POP JUMP JUMPDEST PUSH1 0x0 PUSH2 0x1E8 DUP3 PUSH2 0x268 JUMP JUMPDEST SWAP2 POP PUSH2 0x1F3 DUP4 PUSH2 0x268 JUMP JUMPDEST SWAP3 POP DUP3 PUSH2 0x203 JUMPI PUSH2 0x202 PUSH2 0x2A1 JUMP JUMPDEST JUMPDEST DUP3 DUP3 DIV SWAP1 POP SWAP3 SWAP2 POP POP JUMP JUMPDEST PUSH1 0x0 PUSH2 0x219 DUP3 PUSH2 0x268 JUMP JUMPDEST SWAP2 POP PUSH2 0x224 DUP4 PUSH2 0x268 JUMP JUMPDEST SWAP3 POP DUP2 PUSH32 0xFFFFFFFFFFFFFFFFFFFFFFFFFFFFFFFFFFFFFFFFFFFFFFFFFFFFFFFFFFFFFFFF DIV DUP4 GT DUP3 ISZERO ISZERO AND ISZERO PUSH2 0x25D JUMPI PUSH2 0x25C PUSH2 0x272 JUMP JUMPDEST JUMPDEST DUP3 DUP3 MUL SWAP1 POP SWAP3 SWAP2 POP POP JUMP JUMPDEST PUSH1 0x0 DUP2 SWAP1 POP SWAP2 SWAP1 POP JUMP JUMPDEST PUSH32 0x4E487B7100000000000000000000000000000000000000000000000000000000 PUSH1 0x0 MSTORE PUSH1 0x11 PUSH1 0x4 MSTORE PUSH1 0x24 PUSH1 0x0 REVERT JUMPDEST PUSH32 0x4E487B7100000000000000000000000000000000000000000000000000000000 PUSH1 0x0 MSTORE PUSH1 0x12 PUSH1 0x4 MSTORE PUSH1 0x24 PUSH1 0x0 REVERT JUMPDEST PUSH1 0x0 DUP1 REVERT JUMPDEST PUSH32 0x43616E6E6F742064656976696465206279207A65726F2E000000000000000000 PUSH1 0x0 DUP3 ADD MSTORE POP JUMP JUMPDEST PUSH2 0x307 DUP2 PUSH2 0x268 JUMP JUMPDEST DUP2 EQ PUSH2 0x312 JUMPI PUSH1 0x0 DUP1 REVERT JUMPDEST POP JUMP INVALID LOG2 PUSH5 0x6970667358 0x22 SLT KECCAK256 DUP1 DIFFICULTY CALL PUSH5 0x81CFBA3D70 DUP10 GT PUSH9 0x70CD2488703DD27F34 JUMP INVALID PUSH27 0x56546DEA27E1161964736F6C634300080700330000000000000000 "
				},
				"gasEstimates": {
					"creation": {
						"codeDepositCost": "168600",
						"executionCost": "214",
						"totalCost": "168814"
					},
					"external": {
						"divide(uint256,uint256)": "infinite",
						"multiply(uint256,uint256)": "infinite"
					}
				},
				"methodIdentifiers": {
					"divide(uint256,uint256)": "f88e9fbf",
					"multiply(uint256,uint256)": "165c4a16"
				}
			},
			"storageLayout": {
				"storage": [],
				"types": null
			},
			"userdoc": {
				"kind": "user",
				"methods": {},
				"version": 1
			}
		}
	}
}