{
	"contracts/ArrayShiftTest.sol": {
		"ArrayShiftTest": {
			"abi": [
				{
					"inputs": [
						{
							"internalType": "uint256[]",
							"name": "arr",
							"type": "uint256[]"
						},
						{
							"internalType": "uint256",
							"name": "_index",
							"type": "uint256"
						}
					],
					"name": "example",
					"outputs": [
						{
							"internalType": "uint256[]",
							"name": "",
							"type": "uint256[]"
						}
					],
					"stateMutability": "pure",
					"type": "function"
				}
			],
			"devdoc": {
				"kind": "dev",
				"methods": {},
				"version": 1
			},
			"evm": {
				"assembly": "    /* \"contracts/ArrayShiftTest.sol\":56:647  contract ArrayShiftTest {... */\n  mstore(0x40, 0x80)\n  callvalue\n  dup1\n  iszero\n  tag_1\n  jumpi\n  0x00\n  dup1\n  revert\ntag_1:\n  pop\n  dataSize(sub_0)\n  dup1\n  dataOffset(sub_0)\n  0x00\n  codecopy\n  0x00\n  return\nstop\n\nsub_0: assembly {\n        /* \"contracts/ArrayShiftTest.sol\":56:647  contract ArrayShiftTest {... */\n      mstore(0x40, 0x80)\n      callvalue\n      dup1\n      iszero\n      tag_1\n      jumpi\n      0x00\n      dup1\n      revert\n    tag_1:\n      pop\n      jumpi(tag_2, lt(calldatasize, 0x04))\n      shr(0xe0, calldataload(0x00))\n      dup1\n      0xe47cb2a8\n      eq\n      tag_3\n      jumpi\n    tag_2:\n      0x00\n      dup1\n      revert\n        /* \"contracts/ArrayShiftTest.sol\":86:645  function example(uint[] memory arr,uint _index) public pure returns (uint[] memory) {... */\n    tag_3:\n      tag_4\n      0x04\n      dup1\n      calldatasize\n      sub\n      dup2\n      add\n      swap1\n      tag_5\n      swap2\n      swap1\n      tag_6\n      jump\t// in\n    tag_5:\n      tag_7\n      jump\t// in\n    tag_4:\n      mload(0x40)\n      tag_8\n      swap2\n      swap1\n      tag_9\n      jump\t// in\n    tag_8:\n      mload(0x40)\n      dup1\n      swap2\n      sub\n      swap1\n      return\n    tag_7:\n        /* \"contracts/ArrayShiftTest.sol\":155:168  uint[] memory */\n      0x60\n        /* \"contracts/ArrayShiftTest.sol\":201:202  0 */\n      0x00\n        /* \"contracts/ArrayShiftTest.sol\":188:191  arr */\n      dup4\n        /* \"contracts/ArrayShiftTest.sol\":188:198  arr.length */\n      mload\n        /* \"contracts/ArrayShiftTest.sol\":188:202  arr.length > 0 */\n      gt\n        /* \"contracts/ArrayShiftTest.sol\":180:228  require(arr.length > 0, \"array cannot be empty\") */\n      tag_11\n      jumpi\n      mload(0x40)\n      0x08c379a000000000000000000000000000000000000000000000000000000000\n      dup2\n      mstore\n      0x04\n      add\n      tag_12\n      swap1\n      tag_13\n      jump\t// in\n    tag_12:\n      mload(0x40)\n      dup1\n      swap2\n      sub\n      swap1\n      revert\n    tag_11:\n        /* \"contracts/ArrayShiftTest.sol\":255:258  arr */\n      dup3\n        /* \"contracts/ArrayShiftTest.sol\":255:265  arr.length */\n      mload\n        /* \"contracts/ArrayShiftTest.sol\":246:252  _index */\n      dup3\n        /* \"contracts/ArrayShiftTest.sol\":246:265  _index < arr.length */\n      lt\n        /* \"contracts/ArrayShiftTest.sol\":238:288  require(_index < arr.length, \"out of bound index\") */\n      tag_14\n      jumpi\n      mload(0x40)\n      0x08c379a000000000000000000000000000000000000000000000000000000000\n      dup2\n      mstore\n      0x04\n      add\n      tag_15\n      swap1\n      tag_16\n      jump\t// in\n    tag_15:\n      mload(0x40)\n      dup1\n      swap2\n      sub\n      swap1\n      revert\n    tag_14:\n        /* \"contracts/ArrayShiftTest.sol\":299:321  uint[] memory newArray */\n      0x00\n        /* \"contracts/ArrayShiftTest.sol\":348:349  1 */\n      0x01\n        /* \"contracts/ArrayShiftTest.sol\":335:338  arr */\n      dup5\n        /* \"contracts/ArrayShiftTest.sol\":335:345  arr.length */\n      mload\n        /* \"contracts/ArrayShiftTest.sol\":335:349  arr.length - 1 */\n      tag_17\n      swap2\n      swap1\n      tag_18\n      jump\t// in\n    tag_17:\n        /* \"contracts/ArrayShiftTest.sol\":324:350  new uint[](arr.length - 1) */\n      0xffffffffffffffff\n      dup2\n      gt\n      iszero\n      tag_19\n      jumpi\n      tag_20\n      tag_21\n      jump\t// in\n    tag_20:\n    tag_19:\n      mload(0x40)\n      swap1\n      dup1\n      dup3\n      mstore\n      dup1\n      0x20\n      mul\n      0x20\n      add\n      dup3\n      add\n      0x40\n      mstore\n      dup1\n      iszero\n      tag_22\n      jumpi\n      dup2\n      0x20\n      add\n      0x20\n      dup3\n      mul\n      dup1\n      calldatasize\n      dup4\n      calldatacopy\n      dup1\n      dup3\n      add\n      swap2\n      pop\n      pop\n      swap1\n      pop\n    tag_22:\n      pop\n        /* \"contracts/ArrayShiftTest.sol\":299:350  uint[] memory newArray = new uint[](arr.length - 1) */\n      swap1\n      pop\n        /* \"contracts/ArrayShiftTest.sol\":406:412  uint i */\n      0x00\n        /* \"contracts/ArrayShiftTest.sol\":401:480  for (uint i = 0; i < _index; i++) {... */\n    tag_23:\n        /* \"contracts/ArrayShiftTest.sol\":422:428  _index */\n      dup4\n        /* \"contracts/ArrayShiftTest.sol\":418:419  i */\n      dup2\n        /* \"contracts/ArrayShiftTest.sol\":418:428  i < _index */\n      lt\n        /* \"contracts/ArrayShiftTest.sol\":401:480  for (uint i = 0; i < _index; i++) {... */\n      iszero\n      tag_24\n      jumpi\n        /* \"contracts/ArrayShiftTest.sol\":463:466  arr */\n      dup5\n        /* \"contracts/ArrayShiftTest.sol\":467:468  i */\n      dup2\n        /* \"contracts/ArrayShiftTest.sol\":463:469  arr[i] */\n      dup2\n      mload\n      dup2\n      lt\n      tag_26\n      jumpi\n      tag_27\n      tag_28\n      jump\t// in\n    tag_27:\n    tag_26:\n      0x20\n      mul\n      0x20\n      add\n      add\n      mload\n        /* \"contracts/ArrayShiftTest.sol\":449:457  newArray */\n      dup3\n        /* \"contracts/ArrayShiftTest.sol\":458:459  i */\n      dup3\n        /* \"contracts/ArrayShiftTest.sol\":449:460  newArray[i] */\n      dup2\n      mload\n      dup2\n      lt\n      tag_29\n      jumpi\n      tag_30\n      tag_28\n      jump\t// in\n    tag_30:\n    tag_29:\n      0x20\n      mul\n      0x20\n      add\n      add\n        /* \"contracts/ArrayShiftTest.sol\":449:469  newArray[i] = arr[i] */\n      dup2\n      dup2\n      mstore\n      pop\n      pop\n        /* \"contracts/ArrayShiftTest.sol\":430:433  i++ */\n      dup1\n      dup1\n      tag_31\n      swap1\n      tag_32\n      jump\t// in\n    tag_31:\n      swap2\n      pop\n      pop\n        /* \"contracts/ArrayShiftTest.sol\":401:480  for (uint i = 0; i < _index; i++) {... */\n      jump(tag_23)\n    tag_24:\n      pop\n        /* \"contracts/ArrayShiftTest.sol\":516:522  uint i */\n      0x00\n        /* \"contracts/ArrayShiftTest.sol\":525:531  _index */\n      dup4\n        /* \"contracts/ArrayShiftTest.sol\":516:531  uint i = _index */\n      swap1\n      pop\n        /* \"contracts/ArrayShiftTest.sol\":511:613  for (uint i = _index; i < newArray.length; i++) {... */\n    tag_33:\n        /* \"contracts/ArrayShiftTest.sol\":537:545  newArray */\n      dup2\n        /* \"contracts/ArrayShiftTest.sol\":537:552  newArray.length */\n      mload\n        /* \"contracts/ArrayShiftTest.sol\":533:534  i */\n      dup2\n        /* \"contracts/ArrayShiftTest.sol\":533:552  i < newArray.length */\n      lt\n        /* \"contracts/ArrayShiftTest.sol\":511:613  for (uint i = _index; i < newArray.length; i++) {... */\n      iszero\n      tag_34\n      jumpi\n        /* \"contracts/ArrayShiftTest.sol\":592:595  arr */\n      dup5\n        /* \"contracts/ArrayShiftTest.sol\":600:601  1 */\n      0x01\n        /* \"contracts/ArrayShiftTest.sol\":596:597  i */\n      dup3\n        /* \"contracts/ArrayShiftTest.sol\":596:601  i + 1 */\n      tag_36\n      swap2\n      swap1\n      tag_37\n      jump\t// in\n    tag_36:\n        /* \"contracts/ArrayShiftTest.sol\":592:602  arr[i + 1] */\n      dup2\n      mload\n      dup2\n      lt\n      tag_38\n      jumpi\n      tag_39\n      tag_28\n      jump\t// in\n    tag_39:\n    tag_38:\n      0x20\n      mul\n      0x20\n      add\n      add\n      mload\n        /* \"contracts/ArrayShiftTest.sol\":573:581  newArray */\n      dup3\n        /* \"contracts/ArrayShiftTest.sol\":582:588  _index */\n      dup6\n        /* \"contracts/ArrayShiftTest.sol\":573:589  newArray[_index] */\n      dup2\n      mload\n      dup2\n      lt\n      tag_40\n      jumpi\n      tag_41\n      tag_28\n      jump\t// in\n    tag_41:\n    tag_40:\n      0x20\n      mul\n      0x20\n      add\n      add\n        /* \"contracts/ArrayShiftTest.sol\":573:602  newArray[_index] = arr[i + 1] */\n      dup2\n      dup2\n      mstore\n      pop\n      pop\n        /* \"contracts/ArrayShiftTest.sol\":554:557  i++ */\n      dup1\n      dup1\n      tag_42\n      swap1\n      tag_32\n      jump\t// in\n    tag_42:\n      swap2\n      pop\n      pop\n        /* \"contracts/ArrayShiftTest.sol\":511:613  for (uint i = _index; i < newArray.length; i++) {... */\n      jump(tag_33)\n    tag_34:\n      pop\n        /* \"contracts/ArrayShiftTest.sol\":630:638  newArray */\n      dup1\n        /* \"contracts/ArrayShiftTest.sol\":623:638  return newArray */\n      swap2\n      pop\n      pop\n        /* \"contracts/ArrayShiftTest.sol\":86:645  function example(uint[] memory arr,uint _index) public pure returns (uint[] memory) {... */\n      swap3\n      swap2\n      pop\n      pop\n      jump\t// out\n        /* \"#utility.yul\":24:746   */\n    tag_44:\n        /* \"#utility.yul\":120:125   */\n      0x00\n        /* \"#utility.yul\":145:226   */\n      tag_46\n        /* \"#utility.yul\":161:225   */\n      tag_47\n        /* \"#utility.yul\":218:224   */\n      dup5\n        /* \"#utility.yul\":161:225   */\n      tag_48\n      jump\t// in\n    tag_47:\n        /* \"#utility.yul\":145:226   */\n      tag_49\n      jump\t// in\n    tag_46:\n        /* \"#utility.yul\":136:226   */\n      swap1\n      pop\n        /* \"#utility.yul\":246:251   */\n      dup1\n        /* \"#utility.yul\":275:281   */\n      dup4\n        /* \"#utility.yul\":268:273   */\n      dup3\n        /* \"#utility.yul\":261:282   */\n      mstore\n        /* \"#utility.yul\":309:313   */\n      0x20\n        /* \"#utility.yul\":302:307   */\n      dup3\n        /* \"#utility.yul\":298:314   */\n      add\n        /* \"#utility.yul\":291:314   */\n      swap1\n      pop\n        /* \"#utility.yul\":335:341   */\n      dup3\n        /* \"#utility.yul\":385:388   */\n      dup6\n        /* \"#utility.yul\":377:381   */\n      0x20\n        /* \"#utility.yul\":369:375   */\n      dup7\n        /* \"#utility.yul\":365:382   */\n      mul\n        /* \"#utility.yul\":360:363   */\n      dup3\n        /* \"#utility.yul\":356:383   */\n      add\n        /* \"#utility.yul\":353:389   */\n      gt\n        /* \"#utility.yul\":350:493   */\n      iszero\n      tag_50\n      jumpi\n        /* \"#utility.yul\":404:483   */\n      tag_51\n      tag_52\n      jump\t// in\n    tag_51:\n        /* \"#utility.yul\":350:493   */\n    tag_50:\n        /* \"#utility.yul\":517:518   */\n      0x00\n        /* \"#utility.yul\":502:740   */\n    tag_53:\n        /* \"#utility.yul\":527:533   */\n      dup6\n        /* \"#utility.yul\":524:525   */\n      dup2\n        /* \"#utility.yul\":521:534   */\n      lt\n        /* \"#utility.yul\":502:740   */\n      iszero\n      tag_55\n      jumpi\n        /* \"#utility.yul\":595:598   */\n      dup2\n        /* \"#utility.yul\":624:661   */\n      tag_56\n        /* \"#utility.yul\":657:660   */\n      dup9\n        /* \"#utility.yul\":645:655   */\n      dup3\n        /* \"#utility.yul\":624:661   */\n      tag_57\n      jump\t// in\n    tag_56:\n        /* \"#utility.yul\":619:622   */\n      dup5\n        /* \"#utility.yul\":612:662   */\n      mstore\n        /* \"#utility.yul\":691:695   */\n      0x20\n        /* \"#utility.yul\":686:689   */\n      dup5\n        /* \"#utility.yul\":682:696   */\n      add\n        /* \"#utility.yul\":675:696   */\n      swap4\n      pop\n        /* \"#utility.yul\":725:729   */\n      0x20\n        /* \"#utility.yul\":720:723   */\n      dup4\n        /* \"#utility.yul\":716:730   */\n      add\n        /* \"#utility.yul\":709:730   */\n      swap3\n      pop\n        /* \"#utility.yul\":562:740   */\n      pop\n        /* \"#utility.yul\":549:550   */\n      0x01\n        /* \"#utility.yul\":546:547   */\n      dup2\n        /* \"#utility.yul\":542:551   */\n      add\n        /* \"#utility.yul\":537:551   */\n      swap1\n      pop\n        /* \"#utility.yul\":502:740   */\n      jump(tag_53)\n    tag_55:\n        /* \"#utility.yul\":506:520   */\n      pop\n        /* \"#utility.yul\":126:746   */\n      pop\n      pop\n        /* \"#utility.yul\":24:746   */\n      swap4\n      swap3\n      pop\n      pop\n      pop\n      jump\t// out\n        /* \"#utility.yul\":769:1139   */\n    tag_58:\n        /* \"#utility.yul\":840:845   */\n      0x00\n        /* \"#utility.yul\":889:892   */\n      dup3\n        /* \"#utility.yul\":882:886   */\n      0x1f\n        /* \"#utility.yul\":874:880   */\n      dup4\n        /* \"#utility.yul\":870:887   */\n      add\n        /* \"#utility.yul\":866:893   */\n      slt\n        /* \"#utility.yul\":856:978   */\n      tag_60\n      jumpi\n        /* \"#utility.yul\":897:976   */\n      tag_61\n      tag_62\n      jump\t// in\n    tag_61:\n        /* \"#utility.yul\":856:978   */\n    tag_60:\n        /* \"#utility.yul\":1014:1020   */\n      dup2\n        /* \"#utility.yul\":1001:1021   */\n      calldataload\n        /* \"#utility.yul\":1039:1133   */\n      tag_63\n        /* \"#utility.yul\":1129:1132   */\n      dup5\n        /* \"#utility.yul\":1121:1127   */\n      dup3\n        /* \"#utility.yul\":1114:1118   */\n      0x20\n        /* \"#utility.yul\":1106:1112   */\n      dup7\n        /* \"#utility.yul\":1102:1119   */\n      add\n        /* \"#utility.yul\":1039:1133   */\n      tag_44\n      jump\t// in\n    tag_63:\n        /* \"#utility.yul\":1030:1133   */\n      swap2\n      pop\n        /* \"#utility.yul\":846:1139   */\n      pop\n        /* \"#utility.yul\":769:1139   */\n      swap3\n      swap2\n      pop\n      pop\n      jump\t// out\n        /* \"#utility.yul\":1145:1284   */\n    tag_57:\n        /* \"#utility.yul\":1191:1196   */\n      0x00\n        /* \"#utility.yul\":1229:1235   */\n      dup2\n        /* \"#utility.yul\":1216:1236   */\n      calldataload\n        /* \"#utility.yul\":1207:1236   */\n      swap1\n      pop\n        /* \"#utility.yul\":1245:1278   */\n      tag_65\n        /* \"#utility.yul\":1272:1277   */\n      dup2\n        /* \"#utility.yul\":1245:1278   */\n      tag_66\n      jump\t// in\n    tag_65:\n        /* \"#utility.yul\":1145:1284   */\n      swap3\n      swap2\n      pop\n      pop\n      jump\t// out\n        /* \"#utility.yul\":1290:1974   */\n    tag_6:\n        /* \"#utility.yul\":1383:1389   */\n      0x00\n        /* \"#utility.yul\":1391:1397   */\n      dup1\n        /* \"#utility.yul\":1440:1442   */\n      0x40\n        /* \"#utility.yul\":1428:1437   */\n      dup4\n        /* \"#utility.yul\":1419:1426   */\n      dup6\n        /* \"#utility.yul\":1415:1438   */\n      sub\n        /* \"#utility.yul\":1411:1443   */\n      slt\n        /* \"#utility.yul\":1408:1527   */\n      iszero\n      tag_68\n      jumpi\n        /* \"#utility.yul\":1446:1525   */\n      tag_69\n      tag_70\n      jump\t// in\n    tag_69:\n        /* \"#utility.yul\":1408:1527   */\n    tag_68:\n        /* \"#utility.yul\":1594:1595   */\n      0x00\n        /* \"#utility.yul\":1583:1592   */\n      dup4\n        /* \"#utility.yul\":1579:1596   */\n      add\n        /* \"#utility.yul\":1566:1597   */\n      calldataload\n        /* \"#utility.yul\":1624:1642   */\n      0xffffffffffffffff\n        /* \"#utility.yul\":1616:1622   */\n      dup2\n        /* \"#utility.yul\":1613:1643   */\n      gt\n        /* \"#utility.yul\":1610:1727   */\n      iszero\n      tag_71\n      jumpi\n        /* \"#utility.yul\":1646:1725   */\n      tag_72\n      tag_73\n      jump\t// in\n    tag_72:\n        /* \"#utility.yul\":1610:1727   */\n    tag_71:\n        /* \"#utility.yul\":1751:1829   */\n      tag_74\n        /* \"#utility.yul\":1821:1828   */\n      dup6\n        /* \"#utility.yul\":1812:1818   */\n      dup3\n        /* \"#utility.yul\":1801:1810   */\n      dup7\n        /* \"#utility.yul\":1797:1819   */\n      add\n        /* \"#utility.yul\":1751:1829   */\n      tag_58\n      jump\t// in\n    tag_74:\n        /* \"#utility.yul\":1741:1829   */\n      swap3\n      pop\n        /* \"#utility.yul\":1537:1839   */\n      pop\n        /* \"#utility.yul\":1878:1880   */\n      0x20\n        /* \"#utility.yul\":1904:1957   */\n      tag_75\n        /* \"#utility.yul\":1949:1956   */\n      dup6\n        /* \"#utility.yul\":1940:1946   */\n      dup3\n        /* \"#utility.yul\":1929:1938   */\n      dup7\n        /* \"#utility.yul\":1925:1947   */\n      add\n        /* \"#utility.yul\":1904:1957   */\n      tag_57\n      jump\t// in\n    tag_75:\n        /* \"#utility.yul\":1894:1957   */\n      swap2\n      pop\n        /* \"#utility.yul\":1849:1967   */\n      pop\n        /* \"#utility.yul\":1290:1974   */\n      swap3\n      pop\n      swap3\n      swap1\n      pop\n      jump\t// out\n        /* \"#utility.yul\":1980:2159   */\n    tag_76:\n        /* \"#utility.yul\":2049:2059   */\n      0x00\n        /* \"#utility.yul\":2070:2116   */\n      tag_78\n        /* \"#utility.yul\":2112:2115   */\n      dup4\n        /* \"#utility.yul\":2104:2110   */\n      dup4\n        /* \"#utility.yul\":2070:2116   */\n      tag_79\n      jump\t// in\n    tag_78:\n        /* \"#utility.yul\":2148:2152   */\n      0x20\n        /* \"#utility.yul\":2143:2146   */\n      dup4\n        /* \"#utility.yul\":2139:2153   */\n      add\n        /* \"#utility.yul\":2125:2153   */\n      swap1\n      pop\n        /* \"#utility.yul\":1980:2159   */\n      swap3\n      swap2\n      pop\n      pop\n      jump\t// out\n        /* \"#utility.yul\":2195:2927   */\n    tag_80:\n        /* \"#utility.yul\":2314:2317   */\n      0x00\n        /* \"#utility.yul\":2343:2397   */\n      tag_82\n        /* \"#utility.yul\":2391:2396   */\n      dup3\n        /* \"#utility.yul\":2343:2397   */\n      tag_83\n      jump\t// in\n    tag_82:\n        /* \"#utility.yul\":2413:2499   */\n      tag_84\n        /* \"#utility.yul\":2492:2498   */\n      dup2\n        /* \"#utility.yul\":2487:2490   */\n      dup6\n        /* \"#utility.yul\":2413:2499   */\n      tag_85\n      jump\t// in\n    tag_84:\n        /* \"#utility.yul\":2406:2499   */\n      swap4\n      pop\n        /* \"#utility.yul\":2523:2579   */\n      tag_86\n        /* \"#utility.yul\":2573:2578   */\n      dup4\n        /* \"#utility.yul\":2523:2579   */\n      tag_87\n      jump\t// in\n    tag_86:\n        /* \"#utility.yul\":2602:2609   */\n      dup1\n        /* \"#utility.yul\":2633:2634   */\n      0x00\n        /* \"#utility.yul\":2618:2902   */\n    tag_88:\n        /* \"#utility.yul\":2643:2649   */\n      dup4\n        /* \"#utility.yul\":2640:2641   */\n      dup2\n        /* \"#utility.yul\":2637:2650   */\n      lt\n        /* \"#utility.yul\":2618:2902   */\n      iszero\n      tag_90\n      jumpi\n        /* \"#utility.yul\":2719:2725   */\n      dup2\n        /* \"#utility.yul\":2713:2726   */\n      mload\n        /* \"#utility.yul\":2746:2809   */\n      tag_91\n        /* \"#utility.yul\":2805:2808   */\n      dup9\n        /* \"#utility.yul\":2790:2803   */\n      dup3\n        /* \"#utility.yul\":2746:2809   */\n      tag_76\n      jump\t// in\n    tag_91:\n        /* \"#utility.yul\":2739:2809   */\n      swap8\n      pop\n        /* \"#utility.yul\":2832:2892   */\n      tag_92\n        /* \"#utility.yul\":2885:2891   */\n      dup4\n        /* \"#utility.yul\":2832:2892   */\n      tag_93\n      jump\t// in\n    tag_92:\n        /* \"#utility.yul\":2822:2892   */\n      swap3\n      pop\n        /* \"#utility.yul\":2678:2902   */\n      pop\n        /* \"#utility.yul\":2665:2666   */\n      0x01\n        /* \"#utility.yul\":2662:2663   */\n      dup2\n        /* \"#utility.yul\":2658:2667   */\n      add\n        /* \"#utility.yul\":2653:2667   */\n      swap1\n      pop\n        /* \"#utility.yul\":2618:2902   */\n      jump(tag_88)\n    tag_90:\n        /* \"#utility.yul\":2622:2636   */\n      pop\n        /* \"#utility.yul\":2918:2921   */\n      dup6\n        /* \"#utility.yul\":2911:2921   */\n      swap4\n      pop\n        /* \"#utility.yul\":2319:2927   */\n      pop\n      pop\n      pop\n        /* \"#utility.yul\":2195:2927   */\n      swap3\n      swap2\n      pop\n      pop\n      jump\t// out\n        /* \"#utility.yul\":2933:3299   */\n    tag_94:\n        /* \"#utility.yul\":3075:3078   */\n      0x00\n        /* \"#utility.yul\":3096:3163   */\n      tag_96\n        /* \"#utility.yul\":3160:3162   */\n      0x15\n        /* \"#utility.yul\":3155:3158   */\n      dup4\n        /* \"#utility.yul\":3096:3163   */\n      tag_97\n      jump\t// in\n    tag_96:\n        /* \"#utility.yul\":3089:3163   */\n      swap2\n      pop\n        /* \"#utility.yul\":3172:3265   */\n      tag_98\n        /* \"#utility.yul\":3261:3264   */\n      dup3\n        /* \"#utility.yul\":3172:3265   */\n      tag_99\n      jump\t// in\n    tag_98:\n        /* \"#utility.yul\":3290:3292   */\n      0x20\n        /* \"#utility.yul\":3285:3288   */\n      dup3\n        /* \"#utility.yul\":3281:3293   */\n      add\n        /* \"#utility.yul\":3274:3293   */\n      swap1\n      pop\n        /* \"#utility.yul\":2933:3299   */\n      swap2\n      swap1\n      pop\n      jump\t// out\n        /* \"#utility.yul\":3305:3671   */\n    tag_100:\n        /* \"#utility.yul\":3447:3450   */\n      0x00\n        /* \"#utility.yul\":3468:3535   */\n      tag_102\n        /* \"#utility.yul\":3532:3534   */\n      0x12\n        /* \"#utility.yul\":3527:3530   */\n      dup4\n        /* \"#utility.yul\":3468:3535   */\n      tag_97\n      jump\t// in\n    tag_102:\n        /* \"#utility.yul\":3461:3535   */\n      swap2\n      pop\n        /* \"#utility.yul\":3544:3637   */\n      tag_103\n        /* \"#utility.yul\":3633:3636   */\n      dup3\n        /* \"#utility.yul\":3544:3637   */\n      tag_104\n      jump\t// in\n    tag_103:\n        /* \"#utility.yul\":3662:3664   */\n      0x20\n        /* \"#utility.yul\":3657:3660   */\n      dup3\n        /* \"#utility.yul\":3653:3665   */\n      add\n        /* \"#utility.yul\":3646:3665   */\n      swap1\n      pop\n        /* \"#utility.yul\":3305:3671   */\n      swap2\n      swap1\n      pop\n      jump\t// out\n        /* \"#utility.yul\":3677:3785   */\n    tag_79:\n        /* \"#utility.yul\":3754:3778   */\n      tag_106\n        /* \"#utility.yul\":3772:3777   */\n      dup2\n        /* \"#utility.yul\":3754:3778   */\n      tag_107\n      jump\t// in\n    tag_106:\n        /* \"#utility.yul\":3749:3752   */\n      dup3\n        /* \"#utility.yul\":3742:3779   */\n      mstore\n        /* \"#utility.yul\":3677:3785   */\n      pop\n      pop\n      jump\t// out\n        /* \"#utility.yul\":3791:4164   */\n    tag_9:\n        /* \"#utility.yul\":3934:3938   */\n      0x00\n        /* \"#utility.yul\":3972:3974   */\n      0x20\n        /* \"#utility.yul\":3961:3970   */\n      dup3\n        /* \"#utility.yul\":3957:3975   */\n      add\n        /* \"#utility.yul\":3949:3975   */\n      swap1\n      pop\n        /* \"#utility.yul\":4021:4030   */\n      dup2\n        /* \"#utility.yul\":4015:4019   */\n      dup2\n        /* \"#utility.yul\":4011:4031   */\n      sub\n        /* \"#utility.yul\":4007:4008   */\n      0x00\n        /* \"#utility.yul\":3996:4005   */\n      dup4\n        /* \"#utility.yul\":3992:4009   */\n      add\n        /* \"#utility.yul\":3985:4032   */\n      mstore\n        /* \"#utility.yul\":4049:4157   */\n      tag_109\n        /* \"#utility.yul\":4152:4156   */\n      dup2\n        /* \"#utility.yul\":4143:4149   */\n      dup5\n        /* \"#utility.yul\":4049:4157   */\n      tag_80\n      jump\t// in\n    tag_109:\n        /* \"#utility.yul\":4041:4157   */\n      swap1\n      pop\n        /* \"#utility.yul\":3791:4164   */\n      swap3\n      swap2\n      pop\n      pop\n      jump\t// out\n        /* \"#utility.yul\":4170:4589   */\n    tag_13:\n        /* \"#utility.yul\":4336:4340   */\n      0x00\n        /* \"#utility.yul\":4374:4376   */\n      0x20\n        /* \"#utility.yul\":4363:4372   */\n      dup3\n        /* \"#utility.yul\":4359:4377   */\n      add\n        /* \"#utility.yul\":4351:4377   */\n      swap1\n      pop\n        /* \"#utility.yul\":4423:4432   */\n      dup2\n        /* \"#utility.yul\":4417:4421   */\n      dup2\n        /* \"#utility.yul\":4413:4433   */\n      sub\n        /* \"#utility.yul\":4409:4410   */\n      0x00\n        /* \"#utility.yul\":4398:4407   */\n      dup4\n        /* \"#utility.yul\":4394:4411   */\n      add\n        /* \"#utility.yul\":4387:4434   */\n      mstore\n        /* \"#utility.yul\":4451:4582   */\n      tag_111\n        /* \"#utility.yul\":4577:4581   */\n      dup2\n        /* \"#utility.yul\":4451:4582   */\n      tag_94\n      jump\t// in\n    tag_111:\n        /* \"#utility.yul\":4443:4582   */\n      swap1\n      pop\n        /* \"#utility.yul\":4170:4589   */\n      swap2\n      swap1\n      pop\n      jump\t// out\n        /* \"#utility.yul\":4595:5014   */\n    tag_16:\n        /* \"#utility.yul\":4761:4765   */\n      0x00\n        /* \"#utility.yul\":4799:4801   */\n      0x20\n        /* \"#utility.yul\":4788:4797   */\n      dup3\n        /* \"#utility.yul\":4784:4802   */\n      add\n        /* \"#utility.yul\":4776:4802   */\n      swap1\n      pop\n        /* \"#utility.yul\":4848:4857   */\n      dup2\n        /* \"#utility.yul\":4842:4846   */\n      dup2\n        /* \"#utility.yul\":4838:4858   */\n      sub\n        /* \"#utility.yul\":4834:4835   */\n      0x00\n        /* \"#utility.yul\":4823:4832   */\n      dup4\n        /* \"#utility.yul\":4819:4836   */\n      add\n        /* \"#utility.yul\":4812:4859   */\n      mstore\n        /* \"#utility.yul\":4876:5007   */\n      tag_113\n        /* \"#utility.yul\":5002:5006   */\n      dup2\n        /* \"#utility.yul\":4876:5007   */\n      tag_100\n      jump\t// in\n    tag_113:\n        /* \"#utility.yul\":4868:5007   */\n      swap1\n      pop\n        /* \"#utility.yul\":4595:5014   */\n      swap2\n      swap1\n      pop\n      jump\t// out\n        /* \"#utility.yul\":5020:5149   */\n    tag_49:\n        /* \"#utility.yul\":5054:5060   */\n      0x00\n        /* \"#utility.yul\":5081:5101   */\n      tag_115\n      tag_116\n      jump\t// in\n    tag_115:\n        /* \"#utility.yul\":5071:5101   */\n      swap1\n      pop\n        /* \"#utility.yul\":5110:5143   */\n      tag_117\n        /* \"#utility.yul\":5138:5142   */\n      dup3\n        /* \"#utility.yul\":5130:5136   */\n      dup3\n        /* \"#utility.yul\":5110:5143   */\n      tag_118\n      jump\t// in\n    tag_117:\n        /* \"#utility.yul\":5020:5149   */\n      swap2\n      swap1\n      pop\n      jump\t// out\n        /* \"#utility.yul\":5155:5230   */\n    tag_116:\n        /* \"#utility.yul\":5188:5194   */\n      0x00\n        /* \"#utility.yul\":5221:5223   */\n      0x40\n        /* \"#utility.yul\":5215:5224   */\n      mload\n        /* \"#utility.yul\":5205:5224   */\n      swap1\n      pop\n        /* \"#utility.yul\":5155:5230   */\n      swap1\n      jump\t// out\n        /* \"#utility.yul\":5236:5547   */\n    tag_48:\n        /* \"#utility.yul\":5313:5317   */\n      0x00\n        /* \"#utility.yul\":5403:5421   */\n      0xffffffffffffffff\n        /* \"#utility.yul\":5395:5401   */\n      dup3\n        /* \"#utility.yul\":5392:5422   */\n      gt\n        /* \"#utility.yul\":5389:5445   */\n      iszero\n      tag_121\n      jumpi\n        /* \"#utility.yul\":5425:5443   */\n      tag_122\n      tag_21\n      jump\t// in\n    tag_122:\n        /* \"#utility.yul\":5389:5445   */\n    tag_121:\n        /* \"#utility.yul\":5475:5479   */\n      0x20\n        /* \"#utility.yul\":5467:5473   */\n      dup3\n        /* \"#utility.yul\":5463:5480   */\n      mul\n        /* \"#utility.yul\":5455:5480   */\n      swap1\n      pop\n        /* \"#utility.yul\":5535:5539   */\n      0x20\n        /* \"#utility.yul\":5529:5533   */\n      dup2\n        /* \"#utility.yul\":5525:5540   */\n      add\n        /* \"#utility.yul\":5517:5540   */\n      swap1\n      pop\n        /* \"#utility.yul\":5236:5547   */\n      swap2\n      swap1\n      pop\n      jump\t// out\n        /* \"#utility.yul\":5553:5685   */\n    tag_87:\n        /* \"#utility.yul\":5620:5624   */\n      0x00\n        /* \"#utility.yul\":5643:5646   */\n      dup2\n        /* \"#utility.yul\":5635:5646   */\n      swap1\n      pop\n        /* \"#utility.yul\":5673:5677   */\n      0x20\n        /* \"#utility.yul\":5668:5671   */\n      dup3\n        /* \"#utility.yul\":5664:5678   */\n      add\n        /* \"#utility.yul\":5656:5678   */\n      swap1\n      pop\n        /* \"#utility.yul\":5553:5685   */\n      swap2\n      swap1\n      pop\n      jump\t// out\n        /* \"#utility.yul\":5691:5805   */\n    tag_83:\n        /* \"#utility.yul\":5758:5764   */\n      0x00\n        /* \"#utility.yul\":5792:5797   */\n      dup2\n        /* \"#utility.yul\":5786:5798   */\n      mload\n        /* \"#utility.yul\":5776:5798   */\n      swap1\n      pop\n        /* \"#utility.yul\":5691:5805   */\n      swap2\n      swap1\n      pop\n      jump\t// out\n        /* \"#utility.yul\":5811:5924   */\n    tag_93:\n        /* \"#utility.yul\":5881:5885   */\n      0x00\n        /* \"#utility.yul\":5913:5917   */\n      0x20\n        /* \"#utility.yul\":5908:5911   */\n      dup3\n        /* \"#utility.yul\":5904:5918   */\n      add\n        /* \"#utility.yul\":5896:5918   */\n      swap1\n      pop\n        /* \"#utility.yul\":5811:5924   */\n      swap2\n      swap1\n      pop\n      jump\t// out\n        /* \"#utility.yul\":5930:6114   */\n    tag_85:\n        /* \"#utility.yul\":6029:6040   */\n      0x00\n        /* \"#utility.yul\":6063:6069   */\n      dup3\n        /* \"#utility.yul\":6058:6061   */\n      dup3\n        /* \"#utility.yul\":6051:6070   */\n      mstore\n        /* \"#utility.yul\":6103:6107   */\n      0x20\n        /* \"#utility.yul\":6098:6101   */\n      dup3\n        /* \"#utility.yul\":6094:6108   */\n      add\n        /* \"#utility.yul\":6079:6108   */\n      swap1\n      pop\n        /* \"#utility.yul\":5930:6114   */\n      swap3\n      swap2\n      pop\n      pop\n      jump\t// out\n        /* \"#utility.yul\":6120:6289   */\n    tag_97:\n        /* \"#utility.yul\":6204:6215   */\n      0x00\n        /* \"#utility.yul\":6238:6244   */\n      dup3\n        /* \"#utility.yul\":6233:6236   */\n      dup3\n        /* \"#utility.yul\":6226:6245   */\n      mstore\n        /* \"#utility.yul\":6278:6282   */\n      0x20\n        /* \"#utility.yul\":6273:6276   */\n      dup3\n        /* \"#utility.yul\":6269:6283   */\n      add\n        /* \"#utility.yul\":6254:6283   */\n      swap1\n      pop\n        /* \"#utility.yul\":6120:6289   */\n      swap3\n      swap2\n      pop\n      pop\n      jump\t// out\n        /* \"#utility.yul\":6295:6600   */\n    tag_37:\n        /* \"#utility.yul\":6335:6338   */\n      0x00\n        /* \"#utility.yul\":6354:6374   */\n      tag_129\n        /* \"#utility.yul\":6372:6373   */\n      dup3\n        /* \"#utility.yul\":6354:6374   */\n      tag_107\n      jump\t// in\n    tag_129:\n        /* \"#utility.yul\":6349:6374   */\n      swap2\n      pop\n        /* \"#utility.yul\":6388:6408   */\n      tag_130\n        /* \"#utility.yul\":6406:6407   */\n      dup4\n        /* \"#utility.yul\":6388:6408   */\n      tag_107\n      jump\t// in\n    tag_130:\n        /* \"#utility.yul\":6383:6408   */\n      swap3\n      pop\n        /* \"#utility.yul\":6542:6543   */\n      dup3\n        /* \"#utility.yul\":6474:6540   */\n      0xffffffffffffffffffffffffffffffffffffffffffffffffffffffffffffffff\n        /* \"#utility.yul\":6470:6544   */\n      sub\n        /* \"#utility.yul\":6467:6468   */\n      dup3\n        /* \"#utility.yul\":6464:6545   */\n      gt\n        /* \"#utility.yul\":6461:6568   */\n      iszero\n      tag_131\n      jumpi\n        /* \"#utility.yul\":6548:6566   */\n      tag_132\n      tag_133\n      jump\t// in\n    tag_132:\n        /* \"#utility.yul\":6461:6568   */\n    tag_131:\n        /* \"#utility.yul\":6592:6593   */\n      dup3\n        /* \"#utility.yul\":6589:6590   */\n      dup3\n        /* \"#utility.yul\":6585:6594   */\n      add\n        /* \"#utility.yul\":6578:6594   */\n      swap1\n      pop\n        /* \"#utility.yul\":6295:6600   */\n      swap3\n      swap2\n      pop\n      pop\n      jump\t// out\n        /* \"#utility.yul\":6606:6797   */\n    tag_18:\n        /* \"#utility.yul\":6646:6650   */\n      0x00\n        /* \"#utility.yul\":6666:6686   */\n      tag_135\n        /* \"#utility.yul\":6684:6685   */\n      dup3\n        /* \"#utility.yul\":6666:6686   */\n      tag_107\n      jump\t// in\n    tag_135:\n        /* \"#utility.yul\":6661:6686   */\n      swap2\n      pop\n        /* \"#utility.yul\":6700:6720   */\n      tag_136\n        /* \"#utility.yul\":6718:6719   */\n      dup4\n        /* \"#utility.yul\":6700:6720   */\n      tag_107\n      jump\t// in\n    tag_136:\n        /* \"#utility.yul\":6695:6720   */\n      swap3\n      pop\n        /* \"#utility.yul\":6739:6740   */\n      dup3\n        /* \"#utility.yul\":6736:6737   */\n      dup3\n        /* \"#utility.yul\":6733:6741   */\n      lt\n        /* \"#utility.yul\":6730:6764   */\n      iszero\n      tag_137\n      jumpi\n        /* \"#utility.yul\":6744:6762   */\n      tag_138\n      tag_133\n      jump\t// in\n    tag_138:\n        /* \"#utility.yul\":6730:6764   */\n    tag_137:\n        /* \"#utility.yul\":6789:6790   */\n      dup3\n        /* \"#utility.yul\":6786:6787   */\n      dup3\n        /* \"#utility.yul\":6782:6791   */\n      sub\n        /* \"#utility.yul\":6774:6791   */\n      swap1\n      pop\n        /* \"#utility.yul\":6606:6797   */\n      swap3\n      swap2\n      pop\n      pop\n      jump\t// out\n        /* \"#utility.yul\":6803:6880   */\n    tag_107:\n        /* \"#utility.yul\":6840:6847   */\n      0x00\n        /* \"#utility.yul\":6869:6874   */\n      dup2\n        /* \"#utility.yul\":6858:6874   */\n      swap1\n      pop\n        /* \"#utility.yul\":6803:6880   */\n      swap2\n      swap1\n      pop\n      jump\t// out\n        /* \"#utility.yul\":6886:7167   */\n    tag_118:\n        /* \"#utility.yul\":6969:6996   */\n      tag_141\n        /* \"#utility.yul\":6991:6995   */\n      dup3\n        /* \"#utility.yul\":6969:6996   */\n      tag_142\n      jump\t// in\n    tag_141:\n        /* \"#utility.yul\":6961:6967   */\n      dup2\n        /* \"#utility.yul\":6957:6997   */\n      add\n        /* \"#utility.yul\":7099:7105   */\n      dup2\n        /* \"#utility.yul\":7087:7097   */\n      dup2\n        /* \"#utility.yul\":7084:7106   */\n      lt\n        /* \"#utility.yul\":7063:7081   */\n      0xffffffffffffffff\n        /* \"#utility.yul\":7051:7061   */\n      dup3\n        /* \"#utility.yul\":7048:7082   */\n      gt\n        /* \"#utility.yul\":7045:7107   */\n      or\n        /* \"#utility.yul\":7042:7130   */\n      iszero\n      tag_143\n      jumpi\n        /* \"#utility.yul\":7110:7128   */\n      tag_144\n      tag_21\n      jump\t// in\n    tag_144:\n        /* \"#utility.yul\":7042:7130   */\n    tag_143:\n        /* \"#utility.yul\":7150:7160   */\n      dup1\n        /* \"#utility.yul\":7146:7148   */\n      0x40\n        /* \"#utility.yul\":7139:7161   */\n      mstore\n        /* \"#utility.yul\":6929:7167   */\n      pop\n        /* \"#utility.yul\":6886:7167   */\n      pop\n      pop\n      jump\t// out\n        /* \"#utility.yul\":7173:7406   */\n    tag_32:\n        /* \"#utility.yul\":7212:7215   */\n      0x00\n        /* \"#utility.yul\":7235:7259   */\n      tag_146\n        /* \"#utility.yul\":7253:7258   */\n      dup3\n        /* \"#utility.yul\":7235:7259   */\n      tag_107\n      jump\t// in\n    tag_146:\n        /* \"#utility.yul\":7226:7259   */\n      swap2\n      pop\n        /* \"#utility.yul\":7281:7347   */\n      0xffffffffffffffffffffffffffffffffffffffffffffffffffffffffffffffff\n        /* \"#utility.yul\":7274:7279   */\n      dup3\n        /* \"#utility.yul\":7271:7348   */\n      eq\n        /* \"#utility.yul\":7268:7371   */\n      iszero\n      tag_147\n      jumpi\n        /* \"#utility.yul\":7351:7369   */\n      tag_148\n      tag_133\n      jump\t// in\n    tag_148:\n        /* \"#utility.yul\":7268:7371   */\n    tag_147:\n        /* \"#utility.yul\":7398:7399   */\n      0x01\n        /* \"#utility.yul\":7391:7396   */\n      dup3\n        /* \"#utility.yul\":7387:7400   */\n      add\n        /* \"#utility.yul\":7380:7400   */\n      swap1\n      pop\n        /* \"#utility.yul\":7173:7406   */\n      swap2\n      swap1\n      pop\n      jump\t// out\n        /* \"#utility.yul\":7412:7592   */\n    tag_133:\n        /* \"#utility.yul\":7460:7537   */\n      0x4e487b7100000000000000000000000000000000000000000000000000000000\n        /* \"#utility.yul\":7457:7458   */\n      0x00\n        /* \"#utility.yul\":7450:7538   */\n      mstore\n        /* \"#utility.yul\":7557:7561   */\n      0x11\n        /* \"#utility.yul\":7554:7555   */\n      0x04\n        /* \"#utility.yul\":7547:7562   */\n      mstore\n        /* \"#utility.yul\":7581:7585   */\n      0x24\n        /* \"#utility.yul\":7578:7579   */\n      0x00\n        /* \"#utility.yul\":7571:7586   */\n      revert\n        /* \"#utility.yul\":7598:7778   */\n    tag_28:\n        /* \"#utility.yul\":7646:7723   */\n      0x4e487b7100000000000000000000000000000000000000000000000000000000\n        /* \"#utility.yul\":7643:7644   */\n      0x00\n        /* \"#utility.yul\":7636:7724   */\n      mstore\n        /* \"#utility.yul\":7743:7747   */\n      0x32\n        /* \"#utility.yul\":7740:7741   */\n      0x04\n        /* \"#utility.yul\":7733:7748   */\n      mstore\n        /* \"#utility.yul\":7767:7771   */\n      0x24\n        /* \"#utility.yul\":7764:7765   */\n      0x00\n        /* \"#utility.yul\":7757:7772   */\n      revert\n        /* \"#utility.yul\":7784:7964   */\n    tag_21:\n        /* \"#utility.yul\":7832:7909   */\n      0x4e487b7100000000000000000000000000000000000000000000000000000000\n        /* \"#utility.yul\":7829:7830   */\n      0x00\n        /* \"#utility.yul\":7822:7910   */\n      mstore\n        /* \"#utility.yul\":7929:7933   */\n      0x41\n        /* \"#utility.yul\":7926:7927   */\n      0x04\n        /* \"#utility.yul\":7919:7934   */\n      mstore\n        /* \"#utility.yul\":7953:7957   */\n      0x24\n        /* \"#utility.yul\":7950:7951   */\n      0x00\n        /* \"#utility.yul\":7943:7958   */\n      revert\n        /* \"#utility.yul\":7970:8087   */\n    tag_62:\n        /* \"#utility.yul\":8079:8080   */\n      0x00\n        /* \"#utility.yul\":8076:8077   */\n      dup1\n        /* \"#utility.yul\":8069:8081   */\n      revert\n        /* \"#utility.yul\":8093:8210   */\n    tag_52:\n        /* \"#utility.yul\":8202:8203   */\n      0x00\n        /* \"#utility.yul\":8199:8200   */\n      dup1\n        /* \"#utility.yul\":8192:8204   */\n      revert\n        /* \"#utility.yul\":8216:8333   */\n    tag_73:\n        /* \"#utility.yul\":8325:8326   */\n      0x00\n        /* \"#utility.yul\":8322:8323   */\n      dup1\n        /* \"#utility.yul\":8315:8327   */\n      revert\n        /* \"#utility.yul\":8339:8456   */\n    tag_70:\n        /* \"#utility.yul\":8448:8449   */\n      0x00\n        /* \"#utility.yul\":8445:8446   */\n      dup1\n        /* \"#utility.yul\":8438:8450   */\n      revert\n        /* \"#utility.yul\":8462:8564   */\n    tag_142:\n        /* \"#utility.yul\":8503:8509   */\n      0x00\n        /* \"#utility.yul\":8554:8556   */\n      0x1f\n        /* \"#utility.yul\":8550:8557   */\n      not\n        /* \"#utility.yul\":8545:8547   */\n      0x1f\n        /* \"#utility.yul\":8538:8543   */\n      dup4\n        /* \"#utility.yul\":8534:8548   */\n      add\n        /* \"#utility.yul\":8530:8558   */\n      and\n        /* \"#utility.yul\":8520:8558   */\n      swap1\n      pop\n        /* \"#utility.yul\":8462:8564   */\n      swap2\n      swap1\n      pop\n      jump\t// out\n        /* \"#utility.yul\":8570:8741   */\n    tag_99:\n        /* \"#utility.yul\":8710:8733   */\n      0x61727261792063616e6e6f7420626520656d7074790000000000000000000000\n        /* \"#utility.yul\":8706:8707   */\n      0x00\n        /* \"#utility.yul\":8698:8704   */\n      dup3\n        /* \"#utility.yul\":8694:8708   */\n      add\n        /* \"#utility.yul\":8687:8734   */\n      mstore\n        /* \"#utility.yul\":8570:8741   */\n      pop\n      jump\t// out\n        /* \"#utility.yul\":8747:8915   */\n    tag_104:\n        /* \"#utility.yul\":8887:8907   */\n      0x6f7574206f6620626f756e6420696e6465780000000000000000000000000000\n        /* \"#utility.yul\":8883:8884   */\n      0x00\n        /* \"#utility.yul\":8875:8881   */\n      dup3\n        /* \"#utility.yul\":8871:8885   */\n      add\n        /* \"#utility.yul\":8864:8908   */\n      mstore\n        /* \"#utility.yul\":8747:8915   */\n      pop\n      jump\t// out\n        /* \"#utility.yul\":8921:9043   */\n    tag_66:\n        /* \"#utility.yul\":8994:9018   */\n      tag_160\n        /* \"#utility.yul\":9012:9017   */\n      dup2\n        /* \"#utility.yul\":8994:9018   */\n      tag_107\n      jump\t// in\n    tag_160:\n        /* \"#utility.yul\":8987:8992   */\n      dup2\n        /* \"#utility.yul\":8984:9019   */\n      eq\n        /* \"#utility.yul\":8974:9037   */\n      tag_161\n      jumpi\n        /* \"#utility.yul\":9033:9034   */\n      0x00\n        /* \"#utility.yul\":9030:9031   */\n      dup1\n        /* \"#utility.yul\":9023:9035   */\n      revert\n        /* \"#utility.yul\":8974:9037   */\n    tag_161:\n        /* \"#utility.yul\":8921:9043   */\n      pop\n      jump\t// out\n\n    auxdata: 0xa2646970667358221220f10426981a0d5eb3d617142a218c3e7559263c2e2a4c10ffe4f036b145b4c61a64736f6c63430008070033\n}\n",
				"bytecode": {
					"linkReferences": {},
					"object": "608060405234801561001057600080fd5b50610745806100206000396000f3fe608060405234801561001057600080fd5b506004361061002b5760003560e01c8063e47cb2a814610030575b600080fd5b61004a600480360381019061004591906102c2565b610060565b60405161005791906103e9565b60405180910390f35b606060008351116100a6576040517f08c379a000000000000000000000000000000000000000000000000000000000815260040161009d9061040b565b60405180910390fd5b825182106100e9576040517f08c379a00000000000000000000000000000000000000000000000000000000081526004016100e09061042b565b60405180910390fd5b6000600184516100f9919061053c565b67ffffffffffffffff81111561011257610111610652565b5b6040519080825280602002602001820160405280156101405781602001602082028036833780820191505090505b50905060005b8381101561019b5784818151811061016157610160610623565b5b602002602001015182828151811061017c5761017b610623565b5b6020026020010181815250508080610193906105ab565b915050610146565b5060008390505b815181101561020457846001826101b991906104e6565b815181106101ca576101c9610623565b5b60200260200101518285815181106101e5576101e4610623565b5b60200260200101818152505080806101fc906105ab565b9150506101a2565b508091505092915050565b600061022261021d84610470565b61044b565b9050808382526020820190508285602086028201111561024557610244610686565b5b60005b85811015610275578161025b88826102ad565b845260208401935060208301925050600181019050610248565b5050509392505050565b600082601f83011261029457610293610681565b5b81356102a484826020860161020f565b91505092915050565b6000813590506102bc816106f8565b92915050565b600080604083850312156102d9576102d8610690565b5b600083013567ffffffffffffffff8111156102f7576102f661068b565b5b6103038582860161027f565b9250506020610314858286016102ad565b9150509250929050565b600061032a83836103da565b60208301905092915050565b6000610341826104ac565b61034b81856104c4565b93506103568361049c565b8060005b8381101561038757815161036e888261031e565b9750610379836104b7565b92505060018101905061035a565b5085935050505092915050565b60006103a16015836104d5565b91506103ac826106a6565b602082019050919050565b60006103c46012836104d5565b91506103cf826106cf565b602082019050919050565b6103e381610570565b82525050565b600060208201905081810360008301526104038184610336565b905092915050565b6000602082019050818103600083015261042481610394565b9050919050565b60006020820190508181036000830152610444816103b7565b9050919050565b6000610455610466565b9050610461828261057a565b919050565b6000604051905090565b600067ffffffffffffffff82111561048b5761048a610652565b5b602082029050602081019050919050565b6000819050602082019050919050565b600081519050919050565b6000602082019050919050565b600082825260208201905092915050565b600082825260208201905092915050565b60006104f182610570565b91506104fc83610570565b9250827fffffffffffffffffffffffffffffffffffffffffffffffffffffffffffffffff03821115610531576105306105f4565b5b828201905092915050565b600061054782610570565b915061055283610570565b925082821015610565576105646105f4565b5b828203905092915050565b6000819050919050565b61058382610695565b810181811067ffffffffffffffff821117156105a2576105a1610652565b5b80604052505050565b60006105b682610570565b91507fffffffffffffffffffffffffffffffffffffffffffffffffffffffffffffffff8214156105e9576105e86105f4565b5b600182019050919050565b7f4e487b7100000000000000000000000000000000000000000000000000000000600052601160045260246000fd5b7f4e487b7100000000000000000000000000000000000000000000000000000000600052603260045260246000fd5b7f4e487b7100000000000000000000000000000000000000000000000000000000600052604160045260246000fd5b600080fd5b600080fd5b600080fd5b600080fd5b6000601f19601f8301169050919050565b7f61727261792063616e6e6f7420626520656d7074790000000000000000000000600082015250565b7f6f7574206f6620626f756e6420696e6465780000000000000000000000000000600082015250565b61070181610570565b811461070c57600080fd5b5056fea2646970667358221220f10426981a0d5eb3d617142a218c3e7559263c2e2a4c10ffe4f036b145b4c61a64736f6c63430008070033",
					"opcodes": "PUSH1 0x80 PUSH1 0x40 MSTORE CALLVALUE DUP1 ISZERO PUSH2 0x10 JUMPI PUSH1 0x0 DUP1 REVERT JUMPDEST POP PUSH2 0x745 DUP1 PUSH2 0x20 PUSH1 0x0 CODECOPY PUSH1 0x0 RETURN INVALID PUSH1 0x80 PUSH1 0x40 MSTORE CALLVALUE DUP1 ISZERO PUSH2 0x10 JUMPI PUSH1 0x0 DUP1 REVERT JUMPDEST POP PUSH1 0x4 CALLDATASIZE LT PUSH2 0x2B JUMPI PUSH1 0x0 CALLDATALOAD PUSH1 0xE0 SHR DUP1 PUSH4 0xE47CB2A8 EQ PUSH2 0x30 JUMPI JUMPDEST PUSH1 0x0 DUP1 REVERT JUMPDEST PUSH2 0x4A PUSH1 0x4 DUP1 CALLDATASIZE SUB DUP2 ADD SWAP1 PUSH2 0x45 SWAP2 SWAP1 PUSH2 0x2C2 JUMP JUMPDEST PUSH2 0x60 JUMP JUMPDEST PUSH1 0x40 MLOAD PUSH2 0x57 SWAP2 SWAP1 PUSH2 0x3E9 JUMP JUMPDEST PUSH1 0x40 MLOAD DUP1 SWAP2 SUB SWAP1 RETURN JUMPDEST PUSH1 0x60 PUSH1 0x0 DUP4 MLOAD GT PUSH2 0xA6 JUMPI PUSH1 0x40 MLOAD PUSH32 0x8C379A000000000000000000000000000000000000000000000000000000000 DUP2 MSTORE PUSH1 0x4 ADD PUSH2 0x9D SWAP1 PUSH2 0x40B JUMP JUMPDEST PUSH1 0x40 MLOAD DUP1 SWAP2 SUB SWAP1 REVERT JUMPDEST DUP3 MLOAD DUP3 LT PUSH2 0xE9 JUMPI PUSH1 0x40 MLOAD PUSH32 0x8C379A000000000000000000000000000000000000000000000000000000000 DUP2 MSTORE PUSH1 0x4 ADD PUSH2 0xE0 SWAP1 PUSH2 0x42B JUMP JUMPDEST PUSH1 0x40 MLOAD DUP1 SWAP2 SUB SWAP1 REVERT JUMPDEST PUSH1 0x0 PUSH1 0x1 DUP5 MLOAD PUSH2 0xF9 SWAP2 SWAP1 PUSH2 0x53C JUMP JUMPDEST PUSH8 0xFFFFFFFFFFFFFFFF DUP2 GT ISZERO PUSH2 0x112 JUMPI PUSH2 0x111 PUSH2 0x652 JUMP JUMPDEST JUMPDEST PUSH1 0x40 MLOAD SWAP1 DUP1 DUP3 MSTORE DUP1 PUSH1 0x20 MUL PUSH1 0x20 ADD DUP3 ADD PUSH1 0x40 MSTORE DUP1 ISZERO PUSH2 0x140 JUMPI DUP2 PUSH1 0x20 ADD PUSH1 0x20 DUP3 MUL DUP1 CALLDATASIZE DUP4 CALLDATACOPY DUP1 DUP3 ADD SWAP2 POP POP SWAP1 POP JUMPDEST POP SWAP1 POP PUSH1 0x0 JUMPDEST DUP4 DUP2 LT ISZERO PUSH2 0x19B JUMPI DUP5 DUP2 DUP2 MLOAD DUP2 LT PUSH2 0x161 JUMPI PUSH2 0x160 PUSH2 0x623 JUMP JUMPDEST JUMPDEST PUSH1 0x20 MUL PUSH1 0x20 ADD ADD MLOAD DUP3 DUP3 DUP2 MLOAD DUP2 LT PUSH2 0x17C JUMPI PUSH2 0x17B PUSH2 0x623 JUMP JUMPDEST JUMPDEST PUSH1 0x20 MUL PUSH1 0x20 ADD ADD DUP2 DUP2 MSTORE POP POP DUP1 DUP1 PUSH2 0x193 SWAP1 PUSH2 0x5AB JUMP JUMPDEST SWAP2 POP POP PUSH2 0x146 JUMP JUMPDEST POP PUSH1 0x0 DUP4 SWAP1 POP JUMPDEST DUP2 MLOAD DUP2 LT ISZERO PUSH2 0x204 JUMPI DUP5 PUSH1 0x1 DUP3 PUSH2 0x1B9 SWAP2 SWAP1 PUSH2 0x4E6 JUMP JUMPDEST DUP2 MLOAD DUP2 LT PUSH2 0x1CA JUMPI PUSH2 0x1C9 PUSH2 0x623 JUMP JUMPDEST JUMPDEST PUSH1 0x20 MUL PUSH1 0x20 ADD ADD MLOAD DUP3 DUP6 DUP2 MLOAD DUP2 LT PUSH2 0x1E5 JUMPI PUSH2 0x1E4 PUSH2 0x623 JUMP JUMPDEST JUMPDEST PUSH1 0x20 MUL PUSH1 0x20 ADD ADD DUP2 DUP2 MSTORE POP POP DUP1 DUP1 PUSH2 0x1FC SWAP1 PUSH2 0x5AB JUMP JUMPDEST SWAP2 POP POP PUSH2 0x1A2 JUMP JUMPDEST POP DUP1 SWAP2 POP POP SWAP3 SWAP2 POP POP JUMP JUMPDEST PUSH1 0x0 PUSH2 0x222 PUSH2 0x21D DUP5 PUSH2 0x470 JUMP JUMPDEST PUSH2 0x44B JUMP JUMPDEST SWAP1 POP DUP1 DUP4 DUP3 MSTORE PUSH1 0x20 DUP3 ADD SWAP1 POP DUP3 DUP6 PUSH1 0x20 DUP7 MUL DUP3 ADD GT ISZERO PUSH2 0x245 JUMPI PUSH2 0x244 PUSH2 0x686 JUMP JUMPDEST JUMPDEST PUSH1 0x0 JUMPDEST DUP6 DUP2 LT ISZERO PUSH2 0x275 JUMPI DUP2 PUSH2 0x25B DUP9 DUP3 PUSH2 0x2AD JUMP JUMPDEST DUP5 MSTORE PUSH1 0x20 DUP5 ADD SWAP4 POP PUSH1 0x20 DUP4 ADD SWAP3 POP POP PUSH1 0x1 DUP2 ADD SWAP1 POP PUSH2 0x248 JUMP JUMPDEST POP POP POP SWAP4 SWAP3 POP POP POP JUMP JUMPDEST PUSH1 0x0 DUP3 PUSH1 0x1F DUP4 ADD SLT PUSH2 0x294 JUMPI PUSH2 0x293 PUSH2 0x681 JUMP JUMPDEST JUMPDEST DUP2 CALLDATALOAD PUSH2 0x2A4 DUP5 DUP3 PUSH1 0x20 DUP7 ADD PUSH2 0x20F JUMP JUMPDEST SWAP2 POP POP SWAP3 SWAP2 POP POP JUMP JUMPDEST PUSH1 0x0 DUP2 CALLDATALOAD SWAP1 POP PUSH2 0x2BC DUP2 PUSH2 0x6F8 JUMP JUMPDEST SWAP3 SWAP2 POP POP JUMP JUMPDEST PUSH1 0x0 DUP1 PUSH1 0x40 DUP4 DUP6 SUB SLT ISZERO PUSH2 0x2D9 JUMPI PUSH2 0x2D8 PUSH2 0x690 JUMP JUMPDEST JUMPDEST PUSH1 0x0 DUP4 ADD CALLDATALOAD PUSH8 0xFFFFFFFFFFFFFFFF DUP2 GT ISZERO PUSH2 0x2F7 JUMPI PUSH2 0x2F6 PUSH2 0x68B JUMP JUMPDEST JUMPDEST PUSH2 0x303 DUP6 DUP3 DUP7 ADD PUSH2 0x27F JUMP JUMPDEST SWAP3 POP POP PUSH1 0x20 PUSH2 0x314 DUP6 DUP3 DUP7 ADD PUSH2 0x2AD JUMP JUMPDEST SWAP2 POP POP SWAP3 POP SWAP3 SWAP1 POP JUMP JUMPDEST PUSH1 0x0 PUSH2 0x32A DUP4 DUP4 PUSH2 0x3DA JUMP JUMPDEST PUSH1 0x20 DUP4 ADD SWAP1 POP SWAP3 SWAP2 POP POP JUMP JUMPDEST PUSH1 0x0 PUSH2 0x341 DUP3 PUSH2 0x4AC JUMP JUMPDEST PUSH2 0x34B DUP2 DUP6 PUSH2 0x4C4 JUMP JUMPDEST SWAP4 POP PUSH2 0x356 DUP4 PUSH2 0x49C JUMP JUMPDEST DUP1 PUSH1 0x0 JUMPDEST DUP4 DUP2 LT ISZERO PUSH2 0x387 JUMPI DUP2 MLOAD PUSH2 0x36E DUP9 DUP3 PUSH2 0x31E JUMP JUMPDEST SWAP8 POP PUSH2 0x379 DUP4 PUSH2 0x4B7 JUMP JUMPDEST SWAP3 POP POP PUSH1 0x1 DUP2 ADD SWAP1 POP PUSH2 0x35A JUMP JUMPDEST POP DUP6 SWAP4 POP POP POP POP SWAP3 SWAP2 POP POP JUMP JUMPDEST PUSH1 0x0 PUSH2 0x3A1 PUSH1 0x15 DUP4 PUSH2 0x4D5 JUMP JUMPDEST SWAP2 POP PUSH2 0x3AC DUP3 PUSH2 0x6A6 JUMP JUMPDEST PUSH1 0x20 DUP3 ADD SWAP1 POP SWAP2 SWAP1 POP JUMP JUMPDEST PUSH1 0x0 PUSH2 0x3C4 PUSH1 0x12 DUP4 PUSH2 0x4D5 JUMP JUMPDEST SWAP2 POP PUSH2 0x3CF DUP3 PUSH2 0x6CF JUMP JUMPDEST PUSH1 0x20 DUP3 ADD SWAP1 POP SWAP2 SWAP1 POP JUMP JUMPDEST PUSH2 0x3E3 DUP2 PUSH2 0x570 JUMP JUMPDEST DUP3 MSTORE POP POP JUMP JUMPDEST PUSH1 0x0 PUSH1 0x20 DUP3 ADD SWAP1 POP DUP2 DUP2 SUB PUSH1 0x0 DUP4 ADD MSTORE PUSH2 0x403 DUP2 DUP5 PUSH2 0x336 JUMP JUMPDEST SWAP1 POP SWAP3 SWAP2 POP POP JUMP JUMPDEST PUSH1 0x0 PUSH1 0x20 DUP3 ADD SWAP1 POP DUP2 DUP2 SUB PUSH1 0x0 DUP4 ADD MSTORE PUSH2 0x424 DUP2 PUSH2 0x394 JUMP JUMPDEST SWAP1 POP SWAP2 SWAP1 POP JUMP JUMPDEST PUSH1 0x0 PUSH1 0x20 DUP3 ADD SWAP1 POP DUP2 DUP2 SUB PUSH1 0x0 DUP4 ADD MSTORE PUSH2 0x444 DUP2 PUSH2 0x3B7 JUMP JUMPDEST SWAP1 POP SWAP2 SWAP1 POP JUMP JUMPDEST PUSH1 0x0 PUSH2 0x455 PUSH2 0x466 JUMP JUMPDEST SWAP1 POP PUSH2 0x461 DUP3 DUP3 PUSH2 0x57A JUMP JUMPDEST SWAP2 SWAP1 POP JUMP JUMPDEST PUSH1 0x0 PUSH1 0x40 MLOAD SWAP1 POP SWAP1 JUMP JUMPDEST PUSH1 0x0 PUSH8 0xFFFFFFFFFFFFFFFF DUP3 GT ISZERO PUSH2 0x48B JUMPI PUSH2 0x48A PUSH2 0x652 JUMP JUMPDEST JUMPDEST PUSH1 0x20 DUP3 MUL SWAP1 POP PUSH1 0x20 DUP2 ADD SWAP1 POP SWAP2 SWAP1 POP JUMP JUMPDEST PUSH1 0x0 DUP2 SWAP1 POP PUSH1 0x20 DUP3 ADD SWAP1 POP SWAP2 SWAP1 POP JUMP JUMPDEST PUSH1 0x0 DUP2 MLOAD SWAP1 POP SWAP2 SWAP1 POP JUMP JUMPDEST PUSH1 0x0 PUSH1 0x20 DUP3 ADD SWAP1 POP SWAP2 SWAP1 POP JUMP JUMPDEST PUSH1 0x0 DUP3 DUP3 MSTORE PUSH1 0x20 DUP3 ADD SWAP1 POP SWAP3 SWAP2 POP POP JUMP JUMPDEST PUSH1 0x0 DUP3 DUP3 MSTORE PUSH1 0x20 DUP3 ADD SWAP1 POP SWAP3 SWAP2 POP POP JUMP JUMPDEST PUSH1 0x0 PUSH2 0x4F1 DUP3 PUSH2 0x570 JUMP JUMPDEST SWAP2 POP PUSH2 0x4FC DUP4 PUSH2 0x570 JUMP JUMPDEST SWAP3 POP DUP3 PUSH32 0xFFFFFFFFFFFFFFFFFFFFFFFFFFFFFFFFFFFFFFFFFFFFFFFFFFFFFFFFFFFFFFFF SUB DUP3 GT ISZERO PUSH2 0x531 JUMPI PUSH2 0x530 PUSH2 0x5F4 JUMP JUMPDEST JUMPDEST DUP3 DUP3 ADD SWAP1 POP SWAP3 SWAP2 POP POP JUMP JUMPDEST PUSH1 0x0 PUSH2 0x547 DUP3 PUSH2 0x570 JUMP JUMPDEST SWAP2 POP PUSH2 0x552 DUP4 PUSH2 0x570 JUMP JUMPDEST SWAP3 POP DUP3 DUP3 LT ISZERO PUSH2 0x565 JUMPI PUSH2 0x564 PUSH2 0x5F4 JUMP JUMPDEST JUMPDEST DUP3 DUP3 SUB SWAP1 POP SWAP3 SWAP2 POP POP JUMP JUMPDEST PUSH1 0x0 DUP2 SWAP1 POP SWAP2 SWAP1 POP JUMP JUMPDEST PUSH2 0x583 DUP3 PUSH2 0x695 JUMP JUMPDEST DUP2 ADD DUP2 DUP2 LT PUSH8 0xFFFFFFFFFFFFFFFF DUP3 GT OR ISZERO PUSH2 0x5A2 JUMPI PUSH2 0x5A1 PUSH2 0x652 JUMP JUMPDEST JUMPDEST DUP1 PUSH1 0x40 MSTORE POP POP POP JUMP JUMPDEST PUSH1 0x0 PUSH2 0x5B6 DUP3 PUSH2 0x570 JUMP JUMPDEST SWAP2 POP PUSH32 0xFFFFFFFFFFFFFFFFFFFFFFFFFFFFFFFFFFFFFFFFFFFFFFFFFFFFFFFFFFFFFFFF DUP3 EQ ISZERO PUSH2 0x5E9 JUMPI PUSH2 0x5E8 PUSH2 0x5F4 JUMP JUMPDEST JUMPDEST PUSH1 0x1 DUP3 ADD SWAP1 POP SWAP2 SWAP1 POP JUMP JUMPDEST PUSH32 0x4E487B7100000000000000000000000000000000000000000000000000000000 PUSH1 0x0 MSTORE PUSH1 0x11 PUSH1 0x4 MSTORE PUSH1 0x24 PUSH1 0x0 REVERT JUMPDEST PUSH32 0x4E487B7100000000000000000000000000000000000000000000000000000000 PUSH1 0x0 MSTORE PUSH1 0x32 PUSH1 0x4 MSTORE PUSH1 0x24 PUSH1 0x0 REVERT JUMPDEST PUSH32 0x4E487B7100000000000000000000000000000000000000000000000000000000 PUSH1 0x0 MSTORE PUSH1 0x41 PUSH1 0x4 MSTORE PUSH1 0x24 PUSH1 0x0 REVERT JUMPDEST PUSH1 0x0 DUP1 REVERT JUMPDEST PUSH1 0x0 DUP1 REVERT JUMPDEST PUSH1 0x0 DUP1 REVERT JUMPDEST PUSH1 0x0 DUP1 REVERT JUMPDEST PUSH1 0x0 PUSH1 0x1F NOT PUSH1 0x1F DUP4 ADD AND SWAP1 POP SWAP2 SWAP1 POP JUMP JUMPDEST PUSH32 0x61727261792063616E6E6F7420626520656D7074790000000000000000000000 PUSH1 0x0 DUP3 ADD MSTORE POP JUMP JUMPDEST PUSH32 0x6F7574206F6620626F756E6420696E6465780000000000000000000000000000 PUSH1 0x0 DUP3 ADD MSTORE POP JUMP JUMPDEST PUSH2 0x701 DUP2 PUSH2 0x570 JUMP JUMPDEST DUP2 EQ PUSH2 0x70C JUMPI PUSH1 0x0 DUP1 REVERT JUMPDEST POP JUMP INVALID LOG2 PUSH5 0x6970667358 0x22 SLT KECCAK256 CALL DIV 0x26 SWAP9 BYTE 0xD 0x5E 0xB3 0xD6 OR EQ 0x2A 0x21 DUP13 RETURNDATACOPY PUSH22 0x59263C2E2A4C10FFE4F036B145B4C61A64736F6C6343 STOP ADDMOD SMOD STOP CALLER "
				},
				"gasEstimates": {
					"creation": {
						"codeDepositCost": "372200",
						"executionCost": "411",
						"totalCost": "372611"
					},
					"external": {
						"example(uint256[],uint256)": "infinite"
					}
				},
				"methodIdentifiers": {
					"example(uint256[],uint256)": "e47cb2a8"
				}
			},
			"storageLayout": {
				"storage": [],
				"types": null
			},
			"userdoc": {
				"kind": "user",
				"methods": {},
				"version": 1
			}
		}
	}
}