{
	"contracts/034Visibility.sol": {
		"B": {
			"abi": [
				{
					"inputs": [],
					"name": "examples",
					"outputs": [],
					"stateMutability": "view",
					"type": "function"
				},
				{
					"inputs": [],
					"name": "externalFun",
					"outputs": [
						{
							"internalType": "uint256",
							"name": "",
							"type": "uint256"
						}
					],
					"stateMutability": "pure",
					"type": "function"
				},
				{
					"inputs": [],
					"name": "publicFun",
					"outputs": [
						{
							"internalType": "uint256",
							"name": "",
							"type": "uint256"
						}
					],
					"stateMutability": "pure",
					"type": "function"
				},
				{
					"inputs": [],
					"name": "z",
					"outputs": [
						{
							"internalType": "uint256",
							"name": "",
							"type": "uint256"
						}
					],
					"stateMutability": "view",
					"type": "function"
				}
			],
			"devdoc": {
				"kind": "dev",
				"methods": {},
				"version": 1
			},
			"evm": {
				"assembly": "    /* \"contracts/034Visibility.sol\":444:990  contract B {... */\n  mstore(0x40, 0x80)\n    /* \"contracts/034Visibility.sol\":478:479  0 */\n  0x00\n    /* \"contracts/034Visibility.sol\":461:479  uint private x = 0 */\n  dup1\n  sstore\n    /* \"contracts/034Visibility.sol\":503:504  1 */\n  0x01\n    /* \"contracts/034Visibility.sol\":485:504  uint internal y = 1 */\n  dup1\n  sstore\n    /* \"contracts/034Visibility.sol\":526:527  2 */\n  0x02\n    /* \"contracts/034Visibility.sol\":510:527  uint public z = 2 */\n  dup1\n  sstore\n    /* \"contracts/034Visibility.sol\":444:990  contract B {... */\n  callvalue\n  dup1\n  iszero\n  tag_1\n  jumpi\n  0x00\n  dup1\n  revert\ntag_1:\n  pop\n  dataSize(sub_0)\n  dup1\n  dataOffset(sub_0)\n  0x00\n  codecopy\n  0x00\n  return\nstop\n\nsub_0: assembly {\n        /* \"contracts/034Visibility.sol\":444:990  contract B {... */\n      mstore(0x40, 0x80)\n      callvalue\n      dup1\n      iszero\n      tag_1\n      jumpi\n      0x00\n      dup1\n      revert\n    tag_1:\n      pop\n      jumpi(tag_2, lt(calldatasize, 0x04))\n      shr(0xe0, calldataload(0x00))\n      dup1\n      0x335d00c2\n      eq\n      tag_3\n      jumpi\n      dup1\n      0x4c816d9f\n      eq\n      tag_4\n      jumpi\n      dup1\n      0xb7372fab\n      eq\n      tag_5\n      jumpi\n      dup1\n      0xc5d7802e\n      eq\n      tag_6\n      jumpi\n    tag_2:\n      0x00\n      dup1\n      revert\n        /* \"contracts/034Visibility.sol\":866:988  function examples() external view {... */\n    tag_3:\n      tag_7\n      tag_8\n      jump\t// in\n    tag_7:\n      stop\n        /* \"contracts/034Visibility.sol\":781:860  function externalFun() external pure returns (uint) {... */\n    tag_4:\n      tag_9\n      tag_10\n      jump\t// in\n    tag_9:\n      mload(0x40)\n      tag_11\n      swap2\n      swap1\n      tag_12\n      jump\t// in\n    tag_11:\n      mload(0x40)\n      dup1\n      swap2\n      sub\n      swap1\n      return\n        /* \"contracts/034Visibility.sol\":700:775  function publicFun() public pure returns (uint) {... */\n    tag_5:\n      tag_13\n      tag_14\n      jump\t// in\n    tag_13:\n      mload(0x40)\n      tag_15\n      swap2\n      swap1\n      tag_12\n      jump\t// in\n    tag_15:\n      mload(0x40)\n      dup1\n      swap2\n      sub\n      swap1\n      return\n        /* \"contracts/034Visibility.sol\":510:527  uint public z = 2 */\n    tag_6:\n      tag_16\n      tag_17\n      jump\t// in\n    tag_16:\n      mload(0x40)\n      tag_18\n      swap2\n      swap1\n      tag_12\n      jump\t// in\n    tag_18:\n      mload(0x40)\n      dup1\n      swap2\n      sub\n      swap1\n      return\n        /* \"contracts/034Visibility.sol\":866:988  function examples() external view {... */\n    tag_8:\n        /* \"contracts/034Visibility.sol\":914:915  z */\n      sload(0x02)\n        /* \"contracts/034Visibility.sol\":912:913  y */\n      sload(0x01)\n        /* \"contracts/034Visibility.sol\":910:911  x */\n      sload(0x00)\n        /* \"contracts/034Visibility.sol\":910:913  x+y */\n      tag_20\n      swap2\n      swap1\n      tag_21\n      jump\t// in\n    tag_20:\n        /* \"contracts/034Visibility.sol\":910:915  x+y+z */\n      tag_22\n      swap2\n      swap1\n      tag_21\n      jump\t// in\n    tag_22:\n      pop\n        /* \"contracts/034Visibility.sol\":925:937  privateFun() */\n      tag_23\n        /* \"contracts/034Visibility.sol\":925:935  privateFun */\n      tag_24\n        /* \"contracts/034Visibility.sol\":925:937  privateFun() */\n      jump\t// in\n    tag_23:\n      pop\n        /* \"contracts/034Visibility.sol\":947:960  internalFun() */\n      tag_25\n        /* \"contracts/034Visibility.sol\":947:958  internalFun */\n      tag_26\n        /* \"contracts/034Visibility.sol\":947:960  internalFun() */\n      jump\t// in\n    tag_25:\n      pop\n        /* \"contracts/034Visibility.sol\":970:981  publicFun() */\n      tag_27\n        /* \"contracts/034Visibility.sol\":970:979  publicFun */\n      tag_14\n        /* \"contracts/034Visibility.sol\":970:981  publicFun() */\n      jump\t// in\n    tag_27:\n      pop\n        /* \"contracts/034Visibility.sol\":866:988  function examples() external view {... */\n      jump\t// out\n        /* \"contracts/034Visibility.sol\":781:860  function externalFun() external pure returns (uint) {... */\n    tag_10:\n        /* \"contracts/034Visibility.sol\":827:831  uint */\n      0x00\n        /* \"contracts/034Visibility.sol\":850:853  300 */\n      0x012c\n        /* \"contracts/034Visibility.sol\":843:853  return 300 */\n      swap1\n      pop\n        /* \"contracts/034Visibility.sol\":781:860  function externalFun() external pure returns (uint) {... */\n      swap1\n      jump\t// out\n        /* \"contracts/034Visibility.sol\":700:775  function publicFun() public pure returns (uint) {... */\n    tag_14:\n        /* \"contracts/034Visibility.sol\":742:746  uint */\n      0x00\n        /* \"contracts/034Visibility.sol\":765:768  200 */\n      0xc8\n        /* \"contracts/034Visibility.sol\":758:768  return 200 */\n      swap1\n      pop\n        /* \"contracts/034Visibility.sol\":700:775  function publicFun() public pure returns (uint) {... */\n      swap1\n      jump\t// out\n        /* \"contracts/034Visibility.sol\":510:527  uint public z = 2 */\n    tag_17:\n      sload(0x02)\n      dup2\n      jump\t// out\n        /* \"contracts/034Visibility.sol\":534:609  function privateFun() private pure returns (uint) {... */\n    tag_24:\n        /* \"contracts/034Visibility.sol\":578:582  uint */\n      0x00\n        /* \"contracts/034Visibility.sol\":534:609  function privateFun() private pure returns (uint) {... */\n      swap1\n      jump\t// out\n        /* \"contracts/034Visibility.sol\":615:694  function internalFun() internal pure returns (uint) {... */\n    tag_26:\n        /* \"contracts/034Visibility.sol\":661:665  uint */\n      0x00\n        /* \"contracts/034Visibility.sol\":684:687  100 */\n      0x64\n        /* \"contracts/034Visibility.sol\":677:687  return 100 */\n      swap1\n      pop\n        /* \"contracts/034Visibility.sol\":615:694  function internalFun() internal pure returns (uint) {... */\n      swap1\n      jump\t// out\n        /* \"#utility.yul\":7:125   */\n    tag_33:\n        /* \"#utility.yul\":94:118   */\n      tag_35\n        /* \"#utility.yul\":112:117   */\n      dup2\n        /* \"#utility.yul\":94:118   */\n      tag_36\n      jump\t// in\n    tag_35:\n        /* \"#utility.yul\":89:92   */\n      dup3\n        /* \"#utility.yul\":82:119   */\n      mstore\n        /* \"#utility.yul\":7:125   */\n      pop\n      pop\n      jump\t// out\n        /* \"#utility.yul\":131:353   */\n    tag_12:\n        /* \"#utility.yul\":224:228   */\n      0x00\n        /* \"#utility.yul\":262:264   */\n      0x20\n        /* \"#utility.yul\":251:260   */\n      dup3\n        /* \"#utility.yul\":247:265   */\n      add\n        /* \"#utility.yul\":239:265   */\n      swap1\n      pop\n        /* \"#utility.yul\":275:346   */\n      tag_38\n        /* \"#utility.yul\":343:344   */\n      0x00\n        /* \"#utility.yul\":332:341   */\n      dup4\n        /* \"#utility.yul\":328:345   */\n      add\n        /* \"#utility.yul\":319:325   */\n      dup5\n        /* \"#utility.yul\":275:346   */\n      tag_33\n      jump\t// in\n    tag_38:\n        /* \"#utility.yul\":131:353   */\n      swap3\n      swap2\n      pop\n      pop\n      jump\t// out\n        /* \"#utility.yul\":359:664   */\n    tag_21:\n        /* \"#utility.yul\":399:402   */\n      0x00\n        /* \"#utility.yul\":418:438   */\n      tag_40\n        /* \"#utility.yul\":436:437   */\n      dup3\n        /* \"#utility.yul\":418:438   */\n      tag_36\n      jump\t// in\n    tag_40:\n        /* \"#utility.yul\":413:438   */\n      swap2\n      pop\n        /* \"#utility.yul\":452:472   */\n      tag_41\n        /* \"#utility.yul\":470:471   */\n      dup4\n        /* \"#utility.yul\":452:472   */\n      tag_36\n      jump\t// in\n    tag_41:\n        /* \"#utility.yul\":447:472   */\n      swap3\n      pop\n        /* \"#utility.yul\":606:607   */\n      dup3\n        /* \"#utility.yul\":538:604   */\n      0xffffffffffffffffffffffffffffffffffffffffffffffffffffffffffffffff\n        /* \"#utility.yul\":534:608   */\n      sub\n        /* \"#utility.yul\":531:532   */\n      dup3\n        /* \"#utility.yul\":528:609   */\n      gt\n        /* \"#utility.yul\":525:632   */\n      iszero\n      tag_42\n      jumpi\n        /* \"#utility.yul\":612:630   */\n      tag_43\n      tag_44\n      jump\t// in\n    tag_43:\n        /* \"#utility.yul\":525:632   */\n    tag_42:\n        /* \"#utility.yul\":656:657   */\n      dup3\n        /* \"#utility.yul\":653:654   */\n      dup3\n        /* \"#utility.yul\":649:658   */\n      add\n        /* \"#utility.yul\":642:658   */\n      swap1\n      pop\n        /* \"#utility.yul\":359:664   */\n      swap3\n      swap2\n      pop\n      pop\n      jump\t// out\n        /* \"#utility.yul\":670:747   */\n    tag_36:\n        /* \"#utility.yul\":707:714   */\n      0x00\n        /* \"#utility.yul\":736:741   */\n      dup2\n        /* \"#utility.yul\":725:741   */\n      swap1\n      pop\n        /* \"#utility.yul\":670:747   */\n      swap2\n      swap1\n      pop\n      jump\t// out\n        /* \"#utility.yul\":753:933   */\n    tag_44:\n        /* \"#utility.yul\":801:878   */\n      0x4e487b7100000000000000000000000000000000000000000000000000000000\n        /* \"#utility.yul\":798:799   */\n      0x00\n        /* \"#utility.yul\":791:879   */\n      mstore\n        /* \"#utility.yul\":898:902   */\n      0x11\n        /* \"#utility.yul\":895:896   */\n      0x04\n        /* \"#utility.yul\":888:903   */\n      mstore\n        /* \"#utility.yul\":922:926   */\n      0x24\n        /* \"#utility.yul\":919:920   */\n      0x00\n        /* \"#utility.yul\":912:927   */\n      revert\n\n    auxdata: 0xa2646970667358221220dbe3242ff1c13094f33e5663f66c0778bb457813216d329afa6c9751dd949c5064736f6c63430008070033\n}\n",
				"bytecode": {
					"linkReferences": {},
					"object": "608060405260008055600180556002805534801561001c57600080fd5b506102068061002c6000396000f3fe608060405234801561001057600080fd5b506004361061004c5760003560e01c8063335d00c2146100515780634c816d9f1461005b578063b7372fab14610079578063c5d7802e14610097575b600080fd5b6100596100b5565b005b6100636100f0565b6040516100709190610126565b60405180910390f35b6100816100fa565b60405161008e9190610126565b60405180910390f35b61009f610103565b6040516100ac9190610126565b60405180910390f35b6002546001546000546100c89190610141565b6100d29190610141565b506100db610109565b506100e461010e565b506100ed6100fa565b50565b600061012c905090565b600060c8905090565b60025481565b600090565b60006064905090565b61012081610197565b82525050565b600060208201905061013b6000830184610117565b92915050565b600061014c82610197565b915061015783610197565b9250827fffffffffffffffffffffffffffffffffffffffffffffffffffffffffffffffff0382111561018c5761018b6101a1565b5b828201905092915050565b6000819050919050565b7f4e487b7100000000000000000000000000000000000000000000000000000000600052601160045260246000fdfea2646970667358221220dbe3242ff1c13094f33e5663f66c0778bb457813216d329afa6c9751dd949c5064736f6c63430008070033",
					"opcodes": "PUSH1 0x80 PUSH1 0x40 MSTORE PUSH1 0x0 DUP1 SSTORE PUSH1 0x1 DUP1 SSTORE PUSH1 0x2 DUP1 SSTORE CALLVALUE DUP1 ISZERO PUSH2 0x1C JUMPI PUSH1 0x0 DUP1 REVERT JUMPDEST POP PUSH2 0x206 DUP1 PUSH2 0x2C PUSH1 0x0 CODECOPY PUSH1 0x0 RETURN INVALID PUSH1 0x80 PUSH1 0x40 MSTORE CALLVALUE DUP1 ISZERO PUSH2 0x10 JUMPI PUSH1 0x0 DUP1 REVERT JUMPDEST POP PUSH1 0x4 CALLDATASIZE LT PUSH2 0x4C JUMPI PUSH1 0x0 CALLDATALOAD PUSH1 0xE0 SHR DUP1 PUSH4 0x335D00C2 EQ PUSH2 0x51 JUMPI DUP1 PUSH4 0x4C816D9F EQ PUSH2 0x5B JUMPI DUP1 PUSH4 0xB7372FAB EQ PUSH2 0x79 JUMPI DUP1 PUSH4 0xC5D7802E EQ PUSH2 0x97 JUMPI JUMPDEST PUSH1 0x0 DUP1 REVERT JUMPDEST PUSH2 0x59 PUSH2 0xB5 JUMP JUMPDEST STOP JUMPDEST PUSH2 0x63 PUSH2 0xF0 JUMP JUMPDEST PUSH1 0x40 MLOAD PUSH2 0x70 SWAP2 SWAP1 PUSH2 0x126 JUMP JUMPDEST PUSH1 0x40 MLOAD DUP1 SWAP2 SUB SWAP1 RETURN JUMPDEST PUSH2 0x81 PUSH2 0xFA JUMP JUMPDEST PUSH1 0x40 MLOAD PUSH2 0x8E SWAP2 SWAP1 PUSH2 0x126 JUMP JUMPDEST PUSH1 0x40 MLOAD DUP1 SWAP2 SUB SWAP1 RETURN JUMPDEST PUSH2 0x9F PUSH2 0x103 JUMP JUMPDEST PUSH1 0x40 MLOAD PUSH2 0xAC SWAP2 SWAP1 PUSH2 0x126 JUMP JUMPDEST PUSH1 0x40 MLOAD DUP1 SWAP2 SUB SWAP1 RETURN JUMPDEST PUSH1 0x2 SLOAD PUSH1 0x1 SLOAD PUSH1 0x0 SLOAD PUSH2 0xC8 SWAP2 SWAP1 PUSH2 0x141 JUMP JUMPDEST PUSH2 0xD2 SWAP2 SWAP1 PUSH2 0x141 JUMP JUMPDEST POP PUSH2 0xDB PUSH2 0x109 JUMP JUMPDEST POP PUSH2 0xE4 PUSH2 0x10E JUMP JUMPDEST POP PUSH2 0xED PUSH2 0xFA JUMP JUMPDEST POP JUMP JUMPDEST PUSH1 0x0 PUSH2 0x12C SWAP1 POP SWAP1 JUMP JUMPDEST PUSH1 0x0 PUSH1 0xC8 SWAP1 POP SWAP1 JUMP JUMPDEST PUSH1 0x2 SLOAD DUP2 JUMP JUMPDEST PUSH1 0x0 SWAP1 JUMP JUMPDEST PUSH1 0x0 PUSH1 0x64 SWAP1 POP SWAP1 JUMP JUMPDEST PUSH2 0x120 DUP2 PUSH2 0x197 JUMP JUMPDEST DUP3 MSTORE POP POP JUMP JUMPDEST PUSH1 0x0 PUSH1 0x20 DUP3 ADD SWAP1 POP PUSH2 0x13B PUSH1 0x0 DUP4 ADD DUP5 PUSH2 0x117 JUMP JUMPDEST SWAP3 SWAP2 POP POP JUMP JUMPDEST PUSH1 0x0 PUSH2 0x14C DUP3 PUSH2 0x197 JUMP JUMPDEST SWAP2 POP PUSH2 0x157 DUP4 PUSH2 0x197 JUMP JUMPDEST SWAP3 POP DUP3 PUSH32 0xFFFFFFFFFFFFFFFFFFFFFFFFFFFFFFFFFFFFFFFFFFFFFFFFFFFFFFFFFFFFFFFF SUB DUP3 GT ISZERO PUSH2 0x18C JUMPI PUSH2 0x18B PUSH2 0x1A1 JUMP JUMPDEST JUMPDEST DUP3 DUP3 ADD SWAP1 POP SWAP3 SWAP2 POP POP JUMP JUMPDEST PUSH1 0x0 DUP2 SWAP1 POP SWAP2 SWAP1 POP JUMP JUMPDEST PUSH32 0x4E487B7100000000000000000000000000000000000000000000000000000000 PUSH1 0x0 MSTORE PUSH1 0x11 PUSH1 0x4 MSTORE PUSH1 0x24 PUSH1 0x0 REVERT INVALID LOG2 PUSH5 0x6970667358 0x22 SLT KECCAK256 0xDB 0xE3 0x24 0x2F CALL 0xC1 ADDRESS SWAP5 RETURN RETURNDATACOPY JUMP PUSH4 0xF66C0778 0xBB GASLIMIT PUSH25 0x13216D329AFA6C9751DD949C5064736F6C6343000807003300 "
				},
				"gasEstimates": {
					"creation": {
						"codeDepositCost": "103600",
						"executionCost": "49371",
						"totalCost": "152971"
					},
					"external": {
						"examples()": "infinite",
						"externalFun()": "337",
						"publicFun()": "359",
						"z()": "2473"
					},
					"internal": {
						"internalFun()": "23",
						"privateFun()": "15"
					}
				},
				"methodIdentifiers": {
					"examples()": "335d00c2",
					"externalFun()": "4c816d9f",
					"publicFun()": "b7372fab",
					"z()": "c5d7802e"
				}
			},
			"storageLayout": {
				"storage": [
					{
						"astId": 4,
						"contract": "contracts/034Visibility.sol:B",
						"label": "x",
						"offset": 0,
						"slot": "0",
						"type": "t_uint256"
					},
					{
						"astId": 7,
						"contract": "contracts/034Visibility.sol:B",
						"label": "y",
						"offset": 0,
						"slot": "1",
						"type": "t_uint256"
					},
					{
						"astId": 10,
						"contract": "contracts/034Visibility.sol:B",
						"label": "z",
						"offset": 0,
						"slot": "2",
						"type": "t_uint256"
					}
				],
				"types": {
					"t_uint256": {
						"encoding": "inplace",
						"label": "uint256",
						"numberOfBytes": "32"
					}
				}
			},
			"userdoc": {
				"kind": "user",
				"methods": {},
				"version": 1
			}
		}
	}
}