{
	"contracts/FunctionModifierTest.sol": {
		"FunctionModifierTest": {
			"abi": [
				{
					"inputs": [],
					"name": "doubleNumber",
					"outputs": [],
					"stateMutability": "nonpayable",
					"type": "function"
				},
				{
					"inputs": [],
					"name": "resetNumber",
					"outputs": [],
					"stateMutability": "nonpayable",
					"type": "function"
				}
			],
			"devdoc": {
				"kind": "dev",
				"methods": {},
				"version": 1
			},
			"evm": {
				"assembly": "    /* \"contracts/FunctionModifierTest.sol\":56:341  contract FunctionModifierTest {... */\n  mstore(0x40, 0x80)\n  callvalue\n  dup1\n  iszero\n  tag_1\n  jumpi\n  0x00\n  dup1\n  revert\ntag_1:\n  pop\n  dataSize(sub_0)\n  dup1\n  dataOffset(sub_0)\n  0x00\n  codecopy\n  0x00\n  return\nstop\n\nsub_0: assembly {\n        /* \"contracts/FunctionModifierTest.sol\":56:341  contract FunctionModifierTest {... */\n      mstore(0x40, 0x80)\n      callvalue\n      dup1\n      iszero\n      tag_1\n      jumpi\n      0x00\n      dup1\n      revert\n    tag_1:\n      pop\n      jumpi(tag_2, lt(calldatasize, 0x04))\n      shr(0xe0, calldataload(0x00))\n      dup1\n      0x5035df81\n      eq\n      tag_3\n      jumpi\n      dup1\n      0x60362514\n      eq\n      tag_4\n      jumpi\n    tag_2:\n      0x00\n      dup1\n      revert\n        /* \"contracts/FunctionModifierTest.sol\":282:339  function resetNumber() public {... */\n    tag_3:\n      tag_5\n      tag_6\n      jump\t// in\n    tag_5:\n      stop\n        /* \"contracts/FunctionModifierTest.sol\":209:276  function doubleNumber() public nonZero {... */\n    tag_4:\n      tag_7\n      tag_8\n      jump\t// in\n    tag_7:\n      stop\n        /* \"contracts/FunctionModifierTest.sol\":282:339  function resetNumber() public {... */\n    tag_6:\n        /* \"contracts/FunctionModifierTest.sol\":331:332  0 */\n      0x00\n        /* \"contracts/FunctionModifierTest.sol\":322:328  number */\n      dup1\n        /* \"contracts/FunctionModifierTest.sol\":322:332  number = 0 */\n      dup2\n      swap1\n      sstore\n      pop\n        /* \"contracts/FunctionModifierTest.sol\":282:339  function resetNumber() public {... */\n      jump\t// out\n        /* \"contracts/FunctionModifierTest.sol\":209:276  function doubleNumber() public nonZero {... */\n    tag_8:\n        /* \"contracts/FunctionModifierTest.sol\":165:166  0 */\n      0x00\n        /* \"contracts/FunctionModifierTest.sol\":155:161  number */\n      dup1\n      sload\n        /* \"contracts/FunctionModifierTest.sol\":155:166  number != 0 */\n      eq\n      iszero\n        /* \"contracts/FunctionModifierTest.sol\":147:185  require(number != 0, \"number is zero\") */\n      tag_11\n      jumpi\n      mload(0x40)\n      0x08c379a000000000000000000000000000000000000000000000000000000000\n      dup2\n      mstore\n      0x04\n      add\n      tag_12\n      swap1\n      tag_13\n      jump\t// in\n    tag_12:\n      mload(0x40)\n      dup1\n      swap2\n      sub\n      swap1\n      revert\n    tag_11:\n        /* \"contracts/FunctionModifierTest.sol\":268:269  2 */\n      0x02\n        /* \"contracts/FunctionModifierTest.sol\":258:264  number */\n      0x00\n      dup1\n        /* \"contracts/FunctionModifierTest.sol\":258:269  number *= 2 */\n      dup3\n      dup3\n      sload\n      tag_15\n      swap2\n      swap1\n      tag_16\n      jump\t// in\n    tag_15:\n      swap3\n      pop\n      pop\n      dup2\n      swap1\n      sstore\n      pop\n        /* \"contracts/FunctionModifierTest.sol\":209:276  function doubleNumber() public nonZero {... */\n      jump\t// out\n        /* \"#utility.yul\":7:373   */\n    tag_18:\n        /* \"#utility.yul\":149:152   */\n      0x00\n        /* \"#utility.yul\":170:237   */\n      tag_20\n        /* \"#utility.yul\":234:236   */\n      0x0e\n        /* \"#utility.yul\":229:232   */\n      dup4\n        /* \"#utility.yul\":170:237   */\n      tag_21\n      jump\t// in\n    tag_20:\n        /* \"#utility.yul\":163:237   */\n      swap2\n      pop\n        /* \"#utility.yul\":246:339   */\n      tag_22\n        /* \"#utility.yul\":335:338   */\n      dup3\n        /* \"#utility.yul\":246:339   */\n      tag_23\n      jump\t// in\n    tag_22:\n        /* \"#utility.yul\":364:366   */\n      0x20\n        /* \"#utility.yul\":359:362   */\n      dup3\n        /* \"#utility.yul\":355:367   */\n      add\n        /* \"#utility.yul\":348:367   */\n      swap1\n      pop\n        /* \"#utility.yul\":7:373   */\n      swap2\n      swap1\n      pop\n      jump\t// out\n        /* \"#utility.yul\":379:798   */\n    tag_13:\n        /* \"#utility.yul\":545:549   */\n      0x00\n        /* \"#utility.yul\":583:585   */\n      0x20\n        /* \"#utility.yul\":572:581   */\n      dup3\n        /* \"#utility.yul\":568:586   */\n      add\n        /* \"#utility.yul\":560:586   */\n      swap1\n      pop\n        /* \"#utility.yul\":632:641   */\n      dup2\n        /* \"#utility.yul\":626:630   */\n      dup2\n        /* \"#utility.yul\":622:642   */\n      sub\n        /* \"#utility.yul\":618:619   */\n      0x00\n        /* \"#utility.yul\":607:616   */\n      dup4\n        /* \"#utility.yul\":603:620   */\n      add\n        /* \"#utility.yul\":596:643   */\n      mstore\n        /* \"#utility.yul\":660:791   */\n      tag_25\n        /* \"#utility.yul\":786:790   */\n      dup2\n        /* \"#utility.yul\":660:791   */\n      tag_18\n      jump\t// in\n    tag_25:\n        /* \"#utility.yul\":652:791   */\n      swap1\n      pop\n        /* \"#utility.yul\":379:798   */\n      swap2\n      swap1\n      pop\n      jump\t// out\n        /* \"#utility.yul\":804:973   */\n    tag_21:\n        /* \"#utility.yul\":888:899   */\n      0x00\n        /* \"#utility.yul\":922:928   */\n      dup3\n        /* \"#utility.yul\":917:920   */\n      dup3\n        /* \"#utility.yul\":910:929   */\n      mstore\n        /* \"#utility.yul\":962:966   */\n      0x20\n        /* \"#utility.yul\":957:960   */\n      dup3\n        /* \"#utility.yul\":953:967   */\n      add\n        /* \"#utility.yul\":938:967   */\n      swap1\n      pop\n        /* \"#utility.yul\":804:973   */\n      swap3\n      swap2\n      pop\n      pop\n      jump\t// out\n        /* \"#utility.yul\":979:1327   */\n    tag_16:\n        /* \"#utility.yul\":1019:1026   */\n      0x00\n        /* \"#utility.yul\":1042:1062   */\n      tag_28\n        /* \"#utility.yul\":1060:1061   */\n      dup3\n        /* \"#utility.yul\":1042:1062   */\n      tag_29\n      jump\t// in\n    tag_28:\n        /* \"#utility.yul\":1037:1062   */\n      swap2\n      pop\n        /* \"#utility.yul\":1076:1096   */\n      tag_30\n        /* \"#utility.yul\":1094:1095   */\n      dup4\n        /* \"#utility.yul\":1076:1096   */\n      tag_29\n      jump\t// in\n    tag_30:\n        /* \"#utility.yul\":1071:1096   */\n      swap3\n      pop\n        /* \"#utility.yul\":1264:1265   */\n      dup2\n        /* \"#utility.yul\":1196:1262   */\n      0xffffffffffffffffffffffffffffffffffffffffffffffffffffffffffffffff\n        /* \"#utility.yul\":1192:1266   */\n      div\n        /* \"#utility.yul\":1189:1190   */\n      dup4\n        /* \"#utility.yul\":1186:1267   */\n      gt\n        /* \"#utility.yul\":1181:1182   */\n      dup3\n        /* \"#utility.yul\":1174:1183   */\n      iszero\n        /* \"#utility.yul\":1167:1184   */\n      iszero\n        /* \"#utility.yul\":1163:1268   */\n      and\n        /* \"#utility.yul\":1160:1291   */\n      iszero\n      tag_31\n      jumpi\n        /* \"#utility.yul\":1271:1289   */\n      tag_32\n      tag_33\n      jump\t// in\n    tag_32:\n        /* \"#utility.yul\":1160:1291   */\n    tag_31:\n        /* \"#utility.yul\":1319:1320   */\n      dup3\n        /* \"#utility.yul\":1316:1317   */\n      dup3\n        /* \"#utility.yul\":1312:1321   */\n      mul\n        /* \"#utility.yul\":1301:1321   */\n      swap1\n      pop\n        /* \"#utility.yul\":979:1327   */\n      swap3\n      swap2\n      pop\n      pop\n      jump\t// out\n        /* \"#utility.yul\":1333:1410   */\n    tag_29:\n        /* \"#utility.yul\":1370:1377   */\n      0x00\n        /* \"#utility.yul\":1399:1404   */\n      dup2\n        /* \"#utility.yul\":1388:1404   */\n      swap1\n      pop\n        /* \"#utility.yul\":1333:1410   */\n      swap2\n      swap1\n      pop\n      jump\t// out\n        /* \"#utility.yul\":1416:1596   */\n    tag_33:\n        /* \"#utility.yul\":1464:1541   */\n      0x4e487b7100000000000000000000000000000000000000000000000000000000\n        /* \"#utility.yul\":1461:1462   */\n      0x00\n        /* \"#utility.yul\":1454:1542   */\n      mstore\n        /* \"#utility.yul\":1561:1565   */\n      0x11\n        /* \"#utility.yul\":1558:1559   */\n      0x04\n        /* \"#utility.yul\":1551:1566   */\n      mstore\n        /* \"#utility.yul\":1585:1589   */\n      0x24\n        /* \"#utility.yul\":1582:1583   */\n      0x00\n        /* \"#utility.yul\":1575:1590   */\n      revert\n        /* \"#utility.yul\":1602:1766   */\n    tag_23:\n        /* \"#utility.yul\":1742:1758   */\n      0x6e756d626572206973207a65726f000000000000000000000000000000000000\n        /* \"#utility.yul\":1738:1739   */\n      0x00\n        /* \"#utility.yul\":1730:1736   */\n      dup3\n        /* \"#utility.yul\":1726:1740   */\n      add\n        /* \"#utility.yul\":1719:1759   */\n      mstore\n        /* \"#utility.yul\":1602:1766   */\n      pop\n      jump\t// out\n\n    auxdata: 0xa26469706673582212202b86de6b32800785b671e23516918ed2a901674ea11284ad9c4f071c8dd2cb0364736f6c63430008070033\n}\n",
				"bytecode": {
					"linkReferences": {},
					"object": "608060405234801561001057600080fd5b506101fe806100206000396000f3fe608060405234801561001057600080fd5b50600436106100365760003560e01c80635035df811461003b5780636036251414610045575b600080fd5b61004361004f565b005b61004d610058565b005b60008081905550565b60008054141561009d576040517f08c379a0000000000000000000000000000000000000000000000000000000008152600401610094906100db565b60405180910390fd5b60026000808282546100af919061010c565b92505081905550565b60006100c5600e836100fb565b91506100d08261019f565b602082019050919050565b600060208201905081810360008301526100f4816100b8565b9050919050565b600082825260208201905092915050565b600061011782610166565b915061012283610166565b9250817fffffffffffffffffffffffffffffffffffffffffffffffffffffffffffffffff048311821515161561015b5761015a610170565b5b828202905092915050565b6000819050919050565b7f4e487b7100000000000000000000000000000000000000000000000000000000600052601160045260246000fd5b7f6e756d626572206973207a65726f00000000000000000000000000000000000060008201525056fea26469706673582212202b86de6b32800785b671e23516918ed2a901674ea11284ad9c4f071c8dd2cb0364736f6c63430008070033",
					"opcodes": "PUSH1 0x80 PUSH1 0x40 MSTORE CALLVALUE DUP1 ISZERO PUSH2 0x10 JUMPI PUSH1 0x0 DUP1 REVERT JUMPDEST POP PUSH2 0x1FE DUP1 PUSH2 0x20 PUSH1 0x0 CODECOPY PUSH1 0x0 RETURN INVALID PUSH1 0x80 PUSH1 0x40 MSTORE CALLVALUE DUP1 ISZERO PUSH2 0x10 JUMPI PUSH1 0x0 DUP1 REVERT JUMPDEST POP PUSH1 0x4 CALLDATASIZE LT PUSH2 0x36 JUMPI PUSH1 0x0 CALLDATALOAD PUSH1 0xE0 SHR DUP1 PUSH4 0x5035DF81 EQ PUSH2 0x3B JUMPI DUP1 PUSH4 0x60362514 EQ PUSH2 0x45 JUMPI JUMPDEST PUSH1 0x0 DUP1 REVERT JUMPDEST PUSH2 0x43 PUSH2 0x4F JUMP JUMPDEST STOP JUMPDEST PUSH2 0x4D PUSH2 0x58 JUMP JUMPDEST STOP JUMPDEST PUSH1 0x0 DUP1 DUP2 SWAP1 SSTORE POP JUMP JUMPDEST PUSH1 0x0 DUP1 SLOAD EQ ISZERO PUSH2 0x9D JUMPI PUSH1 0x40 MLOAD PUSH32 0x8C379A000000000000000000000000000000000000000000000000000000000 DUP2 MSTORE PUSH1 0x4 ADD PUSH2 0x94 SWAP1 PUSH2 0xDB JUMP JUMPDEST PUSH1 0x40 MLOAD DUP1 SWAP2 SUB SWAP1 REVERT JUMPDEST PUSH1 0x2 PUSH1 0x0 DUP1 DUP3 DUP3 SLOAD PUSH2 0xAF SWAP2 SWAP1 PUSH2 0x10C JUMP JUMPDEST SWAP3 POP POP DUP2 SWAP1 SSTORE POP JUMP JUMPDEST PUSH1 0x0 PUSH2 0xC5 PUSH1 0xE DUP4 PUSH2 0xFB JUMP JUMPDEST SWAP2 POP PUSH2 0xD0 DUP3 PUSH2 0x19F JUMP JUMPDEST PUSH1 0x20 DUP3 ADD SWAP1 POP SWAP2 SWAP1 POP JUMP JUMPDEST PUSH1 0x0 PUSH1 0x20 DUP3 ADD SWAP1 POP DUP2 DUP2 SUB PUSH1 0x0 DUP4 ADD MSTORE PUSH2 0xF4 DUP2 PUSH2 0xB8 JUMP JUMPDEST SWAP1 POP SWAP2 SWAP1 POP JUMP JUMPDEST PUSH1 0x0 DUP3 DUP3 MSTORE PUSH1 0x20 DUP3 ADD SWAP1 POP SWAP3 SWAP2 POP POP JUMP JUMPDEST PUSH1 0x0 PUSH2 0x117 DUP3 PUSH2 0x166 JUMP JUMPDEST SWAP2 POP PUSH2 0x122 DUP4 PUSH2 0x166 JUMP JUMPDEST SWAP3 POP DUP2 PUSH32 0xFFFFFFFFFFFFFFFFFFFFFFFFFFFFFFFFFFFFFFFFFFFFFFFFFFFFFFFFFFFFFFFF DIV DUP4 GT DUP3 ISZERO ISZERO AND ISZERO PUSH2 0x15B JUMPI PUSH2 0x15A PUSH2 0x170 JUMP JUMPDEST JUMPDEST DUP3 DUP3 MUL SWAP1 POP SWAP3 SWAP2 POP POP JUMP JUMPDEST PUSH1 0x0 DUP2 SWAP1 POP SWAP2 SWAP1 POP JUMP JUMPDEST PUSH32 0x4E487B7100000000000000000000000000000000000000000000000000000000 PUSH1 0x0 MSTORE PUSH1 0x11 PUSH1 0x4 MSTORE PUSH1 0x24 PUSH1 0x0 REVERT JUMPDEST PUSH32 0x6E756D626572206973207A65726F000000000000000000000000000000000000 PUSH1 0x0 DUP3 ADD MSTORE POP JUMP INVALID LOG2 PUSH5 0x6970667358 0x22 SLT KECCAK256 0x2B DUP7 0xDE PUSH12 0x32800785B671E23516918ED2 0xA9 ADD PUSH8 0x4EA11284AD9C4F07 SHR DUP14 0xD2 0xCB SUB PUSH5 0x736F6C6343 STOP ADDMOD SMOD STOP CALLER "
				},
				"gasEstimates": {
					"creation": {
						"codeDepositCost": "102000",
						"executionCost": "147",
						"totalCost": "102147"
					},
					"external": {
						"doubleNumber()": "infinite",
						"resetNumber()": "5136"
					}
				},
				"methodIdentifiers": {
					"doubleNumber()": "60362514",
					"resetNumber()": "5035df81"
				}
			},
			"storageLayout": {
				"storage": [
					{
						"astId": 3,
						"contract": "contracts/FunctionModifierTest.sol:FunctionModifierTest",
						"label": "number",
						"offset": 0,
						"slot": "0",
						"type": "t_uint256"
					}
				],
				"types": {
					"t_uint256": {
						"encoding": "inplace",
						"label": "uint256",
						"numberOfBytes": "32"
					}
				}
			},
			"userdoc": {
				"kind": "user",
				"methods": {},
				"version": 1
			}
		}
	}
}