{
	"contracts/025DataLocation.sol": {
		"DataLocation": {
			"abi": [
				{
					"inputs": [],
					"name": "examples",
					"outputs": [
						{
							"components": [
								{
									"internalType": "uint256",
									"name": "fool",
									"type": "uint256"
								},
								{
									"internalType": "string",
									"name": "text",
									"type": "string"
								}
							],
							"internalType": "struct DataLocation.MyStruct",
							"name": "",
							"type": "tuple"
						}
					],
					"stateMutability": "nonpayable",
					"type": "function"
				},
				{
					"inputs": [
						{
							"internalType": "uint256[]",
							"name": "y",
							"type": "uint256[]"
						}
					],
					"name": "examples2",
					"outputs": [
						{
							"internalType": "uint256[]",
							"name": "",
							"type": "uint256[]"
						}
					],
					"stateMutability": "nonpayable",
					"type": "function"
				},
				{
					"inputs": [],
					"name": "getAddress1Struct",
					"outputs": [
						{
							"components": [
								{
									"internalType": "uint256",
									"name": "fool",
									"type": "uint256"
								},
								{
									"internalType": "string",
									"name": "text",
									"type": "string"
								}
							],
							"internalType": "struct DataLocation.MyStruct",
							"name": "",
							"type": "tuple"
						}
					],
					"stateMutability": "view",
					"type": "function"
				},
				{
					"inputs": [],
					"name": "getAddress2Struct",
					"outputs": [
						{
							"components": [
								{
									"internalType": "uint256",
									"name": "fool",
									"type": "uint256"
								},
								{
									"internalType": "string",
									"name": "text",
									"type": "string"
								}
							],
							"internalType": "struct DataLocation.MyStruct",
							"name": "",
							"type": "tuple"
						}
					],
					"stateMutability": "view",
					"type": "function"
				},
				{
					"inputs": [
						{
							"internalType": "address",
							"name": "_addr",
							"type": "address"
						}
					],
					"name": "getStruct",
					"outputs": [
						{
							"components": [
								{
									"internalType": "uint256",
									"name": "fool",
									"type": "uint256"
								},
								{
									"internalType": "string",
									"name": "text",
									"type": "string"
								}
							],
							"internalType": "struct DataLocation.MyStruct",
							"name": "",
							"type": "tuple"
						}
					],
					"stateMutability": "view",
					"type": "function"
				},
				{
					"inputs": [],
					"name": "lastAction",
					"outputs": [
						{
							"internalType": "string",
							"name": "",
							"type": "string"
						}
					],
					"stateMutability": "view",
					"type": "function"
				},
				{
					"inputs": [],
					"name": "lastReturnStruct",
					"outputs": [
						{
							"internalType": "uint256",
							"name": "fool",
							"type": "uint256"
						},
						{
							"internalType": "string",
							"name": "text",
							"type": "string"
						}
					],
					"stateMutability": "view",
					"type": "function"
				},
				{
					"inputs": [
						{
							"internalType": "uint256",
							"name": "",
							"type": "uint256"
						}
					],
					"name": "lastReturnedArray",
					"outputs": [
						{
							"internalType": "uint256",
							"name": "",
							"type": "uint256"
						}
					],
					"stateMutability": "view",
					"type": "function"
				}
			],
			"devdoc": {
				"kind": "dev",
				"methods": {},
				"version": 1
			},
			"evm": {
				"assembly": "    /* \"contracts/025DataLocation.sol\":105:2663  contract DataLocation {... */\n  mstore(0x40, 0x80)\n  callvalue\n  dup1\n  iszero\n  tag_1\n  jumpi\n  0x00\n  dup1\n  revert\ntag_1:\n  pop\n  dataSize(sub_0)\n  dup1\n  dataOffset(sub_0)\n  0x00\n  codecopy\n  0x00\n  return\nstop\n\nsub_0: assembly {\n        /* \"contracts/025DataLocation.sol\":105:2663  contract DataLocation {... */\n      mstore(0x40, 0x80)\n      callvalue\n      dup1\n      iszero\n      tag_1\n      jumpi\n      0x00\n      dup1\n      revert\n    tag_1:\n      pop\n      jumpi(tag_2, lt(calldatasize, 0x04))\n      shr(0xe0, calldataload(0x00))\n      dup1\n      0x64be9d3f\n      gt\n      tag_11\n      jumpi\n      dup1\n      0x64be9d3f\n      eq\n      tag_7\n      jumpi\n      dup1\n      0x89f71d53\n      eq\n      tag_8\n      jumpi\n      dup1\n      0xe03cc3d3\n      eq\n      tag_9\n      jumpi\n      dup1\n      0xfe9c1fc9\n      eq\n      tag_10\n      jumpi\n      jump(tag_2)\n    tag_11:\n      dup1\n      0x0e0e031c\n      eq\n      tag_3\n      jumpi\n      dup1\n      0x335d00c2\n      eq\n      tag_4\n      jumpi\n      dup1\n      0x505b30e4\n      eq\n      tag_5\n      jumpi\n      dup1\n      0x5db8083e\n      eq\n      tag_6\n      jumpi\n    tag_2:\n      0x00\n      dup1\n      revert\n        /* \"contracts/025DataLocation.sol\":2365:2510  function getAddress2Struct() external view returns (MyStruct memory) {... */\n    tag_3:\n      tag_12\n      tag_13\n      jump\t// in\n    tag_12:\n      mload(0x40)\n      tag_14\n      swap2\n      swap1\n      tag_15\n      jump\t// in\n    tag_14:\n      mload(0x40)\n      dup1\n      swap2\n      sub\n      swap1\n      return\n        /* \"contracts/025DataLocation.sol\":422:1011  function examples() external returns (MyStruct memory) {... */\n    tag_4:\n      tag_16\n      tag_17\n      jump\t// in\n    tag_16:\n      mload(0x40)\n      tag_18\n      swap2\n      swap1\n      tag_15\n      jump\t// in\n    tag_18:\n      mload(0x40)\n      dup1\n      swap2\n      sub\n      swap1\n      return\n        /* \"contracts/025DataLocation.sol\":354:385  uint[] public lastReturnedArray */\n    tag_5:\n      tag_19\n      0x04\n      dup1\n      calldatasize\n      sub\n      dup2\n      add\n      swap1\n      tag_20\n      swap2\n      swap1\n      tag_21\n      jump\t// in\n    tag_20:\n      tag_22\n      jump\t// in\n    tag_19:\n      mload(0x40)\n      tag_23\n      swap2\n      swap1\n      tag_24\n      jump\t// in\n    tag_23:\n      mload(0x40)\n      dup1\n      swap2\n      sub\n      swap1\n      return\n        /* \"contracts/025DataLocation.sol\":2214:2359  function getStruct(address _addr) external view returns (MyStruct memory) {... */\n    tag_6:\n      tag_25\n      0x04\n      dup1\n      calldatasize\n      sub\n      dup2\n      add\n      swap1\n      tag_26\n      swap2\n      swap1\n      tag_27\n      jump\t// in\n    tag_26:\n      tag_28\n      jump\t// in\n    tag_25:\n      mload(0x40)\n      tag_29\n      swap2\n      swap1\n      tag_15\n      jump\t// in\n    tag_29:\n      mload(0x40)\n      dup1\n      swap2\n      sub\n      swap1\n      return\n        /* \"contracts/025DataLocation.sol\":1095:1934  function examples2(uint[] calldata y) external returns (uint[] memory) {... */\n    tag_7:\n      tag_30\n      0x04\n      dup1\n      calldatasize\n      sub\n      dup2\n      add\n      swap1\n      tag_31\n      swap2\n      swap1\n      tag_32\n      jump\t// in\n    tag_31:\n      tag_33\n      jump\t// in\n    tag_30:\n      mload(0x40)\n      tag_34\n      swap2\n      swap1\n      tag_35\n      jump\t// in\n    tag_34:\n      mload(0x40)\n      dup1\n      swap2\n      sub\n      swap1\n      return\n        /* \"contracts/025DataLocation.sol\":391:415  string public lastAction */\n    tag_8:\n      tag_36\n      tag_37\n      jump\t// in\n    tag_36:\n      mload(0x40)\n      tag_38\n      swap2\n      swap1\n      tag_39\n      jump\t// in\n    tag_38:\n      mload(0x40)\n      dup1\n      swap2\n      sub\n      swap1\n      return\n        /* \"contracts/025DataLocation.sol\":2516:2661  function getAddress1Struct() external view returns (MyStruct memory) {... */\n    tag_9:\n      tag_40\n      tag_41\n      jump\t// in\n    tag_40:\n      mload(0x40)\n      tag_42\n      swap2\n      swap1\n      tag_15\n      jump\t// in\n    tag_42:\n      mload(0x40)\n      dup1\n      swap2\n      sub\n      swap1\n      return\n        /* \"contracts/025DataLocation.sol\":316:348  MyStruct public lastReturnStruct */\n    tag_10:\n      tag_43\n      tag_44\n      jump\t// in\n    tag_43:\n      mload(0x40)\n      tag_45\n      swap3\n      swap2\n      swap1\n      tag_46\n      jump\t// in\n    tag_45:\n      mload(0x40)\n      dup1\n      swap2\n      sub\n      swap1\n      return\n        /* \"contracts/025DataLocation.sol\":2365:2510  function getAddress2Struct() external view returns (MyStruct memory) {... */\n    tag_13:\n        /* \"contracts/025DataLocation.sol\":2417:2432  MyStruct memory */\n      tag_47\n      tag_48\n      jump\t// in\n    tag_47:\n        /* \"contracts/025DataLocation.sol\":2444:2461  MyStruct memory s */\n      0x00\n        /* \"contracts/025DataLocation.sol\":2464:2473  myStructs */\n      dup1\n        /* \"contracts/025DataLocation.sol\":2464:2485  myStructs[address(2)] */\n      0x00\n        /* \"contracts/025DataLocation.sol\":2482:2483  2 */\n      0x02\n        /* \"contracts/025DataLocation.sol\":2464:2485  myStructs[address(2)] */\n      0xffffffffffffffffffffffffffffffffffffffff\n      and\n      0xffffffffffffffffffffffffffffffffffffffff\n      and\n      dup2\n      mstore\n      0x20\n      add\n      swap1\n      dup2\n      mstore\n      0x20\n      add\n      0x00\n      keccak256\n        /* \"contracts/025DataLocation.sol\":2444:2485  MyStruct memory s = myStructs[address(2)] */\n      mload(0x40)\n      dup1\n      0x40\n      add\n      0x40\n      mstore\n      swap1\n      dup2\n      0x00\n      dup3\n      add\n      sload\n      dup2\n      mstore\n      0x20\n      add\n      0x01\n      dup3\n      add\n      dup1\n      sload\n      tag_50\n      swap1\n      tag_51\n      jump\t// in\n    tag_50:\n      dup1\n      0x1f\n      add\n      0x20\n      dup1\n      swap2\n      div\n      mul\n      0x20\n      add\n      mload(0x40)\n      swap1\n      dup2\n      add\n      0x40\n      mstore\n      dup1\n      swap3\n      swap2\n      swap1\n      dup2\n      dup2\n      mstore\n      0x20\n      add\n      dup3\n      dup1\n      sload\n      tag_52\n      swap1\n      tag_51\n      jump\t// in\n    tag_52:\n      dup1\n      iszero\n      tag_53\n      jumpi\n      dup1\n      0x1f\n      lt\n      tag_54\n      jumpi\n      0x0100\n      dup1\n      dup4\n      sload\n      div\n      mul\n      dup4\n      mstore\n      swap2\n      0x20\n      add\n      swap2\n      jump(tag_53)\n    tag_54:\n      dup3\n      add\n      swap2\n      swap1\n      0x00\n      mstore\n      keccak256(0x00, 0x20)\n      swap1\n    tag_55:\n      dup2\n      sload\n      dup2\n      mstore\n      swap1\n      0x01\n      add\n      swap1\n      0x20\n      add\n      dup1\n      dup4\n      gt\n      tag_55\n      jumpi\n      dup3\n      swap1\n      sub\n      0x1f\n      and\n      dup3\n      add\n      swap2\n    tag_53:\n      pop\n      pop\n      pop\n      pop\n      pop\n      dup2\n      mstore\n      pop\n      pop\n      swap1\n      pop\n        /* \"contracts/025DataLocation.sol\":2502:2503  s */\n      dup1\n        /* \"contracts/025DataLocation.sol\":2495:2503  return s */\n      swap2\n      pop\n      pop\n        /* \"contracts/025DataLocation.sol\":2365:2510  function getAddress2Struct() external view returns (MyStruct memory) {... */\n      swap1\n      jump\t// out\n        /* \"contracts/025DataLocation.sol\":422:1011  function examples() external returns (MyStruct memory) {... */\n    tag_17:\n        /* \"contracts/025DataLocation.sol\":460:475  MyStruct memory */\n      tag_56\n      tag_48\n      jump\t// in\n    tag_56:\n        /* \"contracts/025DataLocation.sol\":511:531  MyStruct(123, \"pig\") */\n      mload(0x40)\n      dup1\n      0x40\n      add\n      0x40\n      mstore\n      dup1\n        /* \"contracts/025DataLocation.sol\":520:523  123 */\n      0x7b\n        /* \"contracts/025DataLocation.sol\":511:531  MyStruct(123, \"pig\") */\n      dup2\n      mstore\n      0x20\n      add\n      mload(0x40)\n      dup1\n      0x40\n      add\n      0x40\n      mstore\n      dup1\n      0x03\n      dup2\n      mstore\n      0x20\n      add\n      0x7069670000000000000000000000000000000000000000000000000000000000\n      dup2\n      mstore\n      pop\n      dup2\n      mstore\n      pop\n        /* \"contracts/025DataLocation.sol\":487:496  myStructs */\n      0x00\n        /* \"contracts/025DataLocation.sol\":487:508  myStructs[address(1)] */\n      dup1\n        /* \"contracts/025DataLocation.sol\":505:506  1 */\n      0x01\n        /* \"contracts/025DataLocation.sol\":487:508  myStructs[address(1)] */\n      0xffffffffffffffffffffffffffffffffffffffff\n      and\n      0xffffffffffffffffffffffffffffffffffffffff\n      and\n      dup2\n      mstore\n      0x20\n      add\n      swap1\n      dup2\n      mstore\n      0x20\n      add\n      0x00\n      keccak256\n        /* \"contracts/025DataLocation.sol\":487:531  myStructs[address(1)] = MyStruct(123, \"pig\") */\n      0x00\n      dup3\n      add\n      mload\n      dup2\n      0x00\n      add\n      sstore\n      0x20\n      dup3\n      add\n      mload\n      dup2\n      0x01\n      add\n      swap1\n      dup1\n      mload\n      swap1\n      0x20\n      add\n      swap1\n      tag_58\n      swap3\n      swap2\n      swap1\n      tag_59\n      jump\t// in\n    tag_58:\n      pop\n      swap1\n      pop\n      pop\n        /* \"contracts/025DataLocation.sol\":541:571  lastAction = \"examples called\" */\n      mload(0x40)\n      dup1\n      0x40\n      add\n      0x40\n      mstore\n      dup1\n      0x0f\n      dup2\n      mstore\n      0x20\n      add\n      0x6578616d706c65732063616c6c65640000000000000000000000000000000000\n      dup2\n      mstore\n      pop\n        /* \"contracts/025DataLocation.sol\":541:551  lastAction */\n      0x04\n        /* \"contracts/025DataLocation.sol\":541:571  lastAction = \"examples called\" */\n      swap1\n      dup1\n      mload\n      swap1\n      0x20\n      add\n      swap1\n      tag_60\n      swap3\n      swap2\n      swap1\n      tag_59\n      jump\t// in\n    tag_60:\n      pop\n        /* \"contracts/025DataLocation.sol\":647:672  MyStruct storage myStruct */\n      0x00\n        /* \"contracts/025DataLocation.sol\":675:684  myStructs */\n      dup1\n        /* \"contracts/025DataLocation.sol\":675:696  myStructs[address(1)] */\n      0x00\n        /* \"contracts/025DataLocation.sol\":693:694  1 */\n      0x01\n        /* \"contracts/025DataLocation.sol\":675:696  myStructs[address(1)] */\n      0xffffffffffffffffffffffffffffffffffffffff\n      and\n      0xffffffffffffffffffffffffffffffffffffffff\n      and\n      dup2\n      mstore\n      0x20\n      add\n      swap1\n      dup2\n      mstore\n      0x20\n      add\n      0x00\n      keccak256\n        /* \"contracts/025DataLocation.sol\":647:696  MyStruct storage myStruct = myStructs[address(1)] */\n      swap1\n      pop\n        /* \"contracts/025DataLocation.sol\":706:731  myStruct.text = \"chicken\" */\n      mload(0x40)\n      dup1\n      0x40\n      add\n      0x40\n      mstore\n      dup1\n      0x07\n      dup2\n      mstore\n      0x20\n      add\n      0x636869636b656e00000000000000000000000000000000000000000000000000\n      dup2\n      mstore\n      pop\n        /* \"contracts/025DataLocation.sol\":706:714  myStruct */\n      dup2\n        /* \"contracts/025DataLocation.sol\":706:719  myStruct.text */\n      0x01\n      add\n        /* \"contracts/025DataLocation.sol\":706:731  myStruct.text = \"chicken\" */\n      swap1\n      dup1\n      mload\n      swap1\n      0x20\n      add\n      swap1\n      tag_61\n      swap3\n      swap2\n      swap1\n      tag_59\n      jump\t// in\n    tag_61:\n      pop\n        /* \"contracts/025DataLocation.sol\":819:843  MyStruct memory readOnly */\n      0x00\n        /* \"contracts/025DataLocation.sol\":846:855  myStructs */\n      dup1\n        /* \"contracts/025DataLocation.sol\":846:867  myStructs[address(1)] */\n      0x00\n        /* \"contracts/025DataLocation.sol\":864:865  1 */\n      0x01\n        /* \"contracts/025DataLocation.sol\":846:867  myStructs[address(1)] */\n      0xffffffffffffffffffffffffffffffffffffffff\n      and\n      0xffffffffffffffffffffffffffffffffffffffff\n      and\n      dup2\n      mstore\n      0x20\n      add\n      swap1\n      dup2\n      mstore\n      0x20\n      add\n      0x00\n      keccak256\n        /* \"contracts/025DataLocation.sol\":819:867  MyStruct memory readOnly = myStructs[address(1)] */\n      mload(0x40)\n      dup1\n      0x40\n      add\n      0x40\n      mstore\n      swap1\n      dup2\n      0x00\n      dup3\n      add\n      sload\n      dup2\n      mstore\n      0x20\n      add\n      0x01\n      dup3\n      add\n      dup1\n      sload\n      tag_62\n      swap1\n      tag_51\n      jump\t// in\n    tag_62:\n      dup1\n      0x1f\n      add\n      0x20\n      dup1\n      swap2\n      div\n      mul\n      0x20\n      add\n      mload(0x40)\n      swap1\n      dup2\n      add\n      0x40\n      mstore\n      dup1\n      swap3\n      swap2\n      swap1\n      dup2\n      dup2\n      mstore\n      0x20\n      add\n      dup3\n      dup1\n      sload\n      tag_63\n      swap1\n      tag_51\n      jump\t// in\n    tag_63:\n      dup1\n      iszero\n      tag_64\n      jumpi\n      dup1\n      0x1f\n      lt\n      tag_65\n      jumpi\n      0x0100\n      dup1\n      dup4\n      sload\n      div\n      mul\n      dup4\n      mstore\n      swap2\n      0x20\n      add\n      swap2\n      jump(tag_64)\n    tag_65:\n      dup3\n      add\n      swap2\n      swap1\n      0x00\n      mstore\n      keccak256(0x00, 0x20)\n      swap1\n    tag_66:\n      dup2\n      sload\n      dup2\n      mstore\n      swap1\n      0x01\n      add\n      swap1\n      0x20\n      add\n      dup1\n      dup4\n      gt\n      tag_66\n      jumpi\n      dup3\n      swap1\n      sub\n      0x1f\n      and\n      dup3\n      add\n      swap2\n    tag_64:\n      pop\n      pop\n      pop\n      pop\n      pop\n      dup2\n      mstore\n      pop\n      pop\n      swap1\n      pop\n        /* \"contracts/025DataLocation.sol\":893:896  456 */\n      0x01c8\n        /* \"contracts/025DataLocation.sol\":877:885  readOnly */\n      dup2\n        /* \"contracts/025DataLocation.sol\":877:890  readOnly.fool */\n      0x00\n      add\n        /* \"contracts/025DataLocation.sol\":877:896  readOnly.fool = 456 */\n      dup2\n      dup2\n      mstore\n      pop\n      pop\n        /* \"contracts/025DataLocation.sol\":970:978  readOnly */\n      dup1\n        /* \"contracts/025DataLocation.sol\":951:967  lastReturnStruct */\n      0x01\n        /* \"contracts/025DataLocation.sol\":951:978  lastReturnStruct = readOnly */\n      0x00\n      dup3\n      add\n      mload\n      dup2\n      0x00\n      add\n      sstore\n      0x20\n      dup3\n      add\n      mload\n      dup2\n      0x01\n      add\n      swap1\n      dup1\n      mload\n      swap1\n      0x20\n      add\n      swap1\n      tag_67\n      swap3\n      swap2\n      swap1\n      tag_59\n      jump\t// in\n    tag_67:\n      pop\n      swap1\n      pop\n      pop\n        /* \"contracts/025DataLocation.sol\":996:1004  readOnly */\n      dup1\n        /* \"contracts/025DataLocation.sol\":989:1004  return readOnly */\n      swap3\n      pop\n      pop\n      pop\n        /* \"contracts/025DataLocation.sol\":422:1011  function examples() external returns (MyStruct memory) {... */\n      swap1\n      jump\t// out\n        /* \"contracts/025DataLocation.sol\":354:385  uint[] public lastReturnedArray */\n    tag_22:\n      0x03\n      dup2\n      dup2\n      sload\n      dup2\n      lt\n      tag_68\n      jumpi\n      0x00\n      dup1\n      revert\n    tag_68:\n      swap1\n      0x00\n      mstore\n      keccak256(0x00, 0x20)\n      add\n      0x00\n      swap2\n      pop\n      swap1\n      pop\n      sload\n      dup2\n      jump\t// out\n        /* \"contracts/025DataLocation.sol\":2214:2359  function getStruct(address _addr) external view returns (MyStruct memory) {... */\n    tag_28:\n        /* \"contracts/025DataLocation.sol\":2271:2286  MyStruct memory */\n      tag_70\n      tag_48\n      jump\t// in\n    tag_70:\n        /* \"contracts/025DataLocation.sol\":2298:2315  MyStruct memory s */\n      0x00\n        /* \"contracts/025DataLocation.sol\":2318:2327  myStructs */\n      dup1\n        /* \"contracts/025DataLocation.sol\":2318:2334  myStructs[_addr] */\n      0x00\n        /* \"contracts/025DataLocation.sol\":2328:2333  _addr */\n      dup5\n        /* \"contracts/025DataLocation.sol\":2318:2334  myStructs[_addr] */\n      0xffffffffffffffffffffffffffffffffffffffff\n      and\n      0xffffffffffffffffffffffffffffffffffffffff\n      and\n      dup2\n      mstore\n      0x20\n      add\n      swap1\n      dup2\n      mstore\n      0x20\n      add\n      0x00\n      keccak256\n        /* \"contracts/025DataLocation.sol\":2298:2334  MyStruct memory s = myStructs[_addr] */\n      mload(0x40)\n      dup1\n      0x40\n      add\n      0x40\n      mstore\n      swap1\n      dup2\n      0x00\n      dup3\n      add\n      sload\n      dup2\n      mstore\n      0x20\n      add\n      0x01\n      dup3\n      add\n      dup1\n      sload\n      tag_72\n      swap1\n      tag_51\n      jump\t// in\n    tag_72:\n      dup1\n      0x1f\n      add\n      0x20\n      dup1\n      swap2\n      div\n      mul\n      0x20\n      add\n      mload(0x40)\n      swap1\n      dup2\n      add\n      0x40\n      mstore\n      dup1\n      swap3\n      swap2\n      swap1\n      dup2\n      dup2\n      mstore\n      0x20\n      add\n      dup3\n      dup1\n      sload\n      tag_73\n      swap1\n      tag_51\n      jump\t// in\n    tag_73:\n      dup1\n      iszero\n      tag_74\n      jumpi\n      dup1\n      0x1f\n      lt\n      tag_75\n      jumpi\n      0x0100\n      dup1\n      dup4\n      sload\n      div\n      mul\n      dup4\n      mstore\n      swap2\n      0x20\n      add\n      swap2\n      jump(tag_74)\n    tag_75:\n      dup3\n      add\n      swap2\n      swap1\n      0x00\n      mstore\n      keccak256(0x00, 0x20)\n      swap1\n    tag_76:\n      dup2\n      sload\n      dup2\n      mstore\n      swap1\n      0x01\n      add\n      swap1\n      0x20\n      add\n      dup1\n      dup4\n      gt\n      tag_76\n      jumpi\n      dup3\n      swap1\n      sub\n      0x1f\n      and\n      dup3\n      add\n      swap2\n    tag_74:\n      pop\n      pop\n      pop\n      pop\n      pop\n      dup2\n      mstore\n      pop\n      pop\n      swap1\n      pop\n        /* \"contracts/025DataLocation.sol\":2351:2352  s */\n      dup1\n        /* \"contracts/025DataLocation.sol\":2344:2352  return s */\n      swap2\n      pop\n      pop\n        /* \"contracts/025DataLocation.sol\":2214:2359  function getStruct(address _addr) external view returns (MyStruct memory) {... */\n      swap2\n      swap1\n      pop\n      jump\t// out\n        /* \"contracts/025DataLocation.sol\":1095:1934  function examples2(uint[] calldata y) external returns (uint[] memory) {... */\n    tag_33:\n        /* \"contracts/025DataLocation.sol\":1151:1164  uint[] memory */\n      0x60\n        /* \"contracts/025DataLocation.sol\":1248:1268  MyStruct(789, \"dog\") */\n      mload(0x40)\n      dup1\n      0x40\n      add\n      0x40\n      mstore\n      dup1\n        /* \"contracts/025DataLocation.sol\":1257:1260  789 */\n      0x0315\n        /* \"contracts/025DataLocation.sol\":1248:1268  MyStruct(789, \"dog\") */\n      dup2\n      mstore\n      0x20\n      add\n      mload(0x40)\n      dup1\n      0x40\n      add\n      0x40\n      mstore\n      dup1\n      0x03\n      dup2\n      mstore\n      0x20\n      add\n      0x646f670000000000000000000000000000000000000000000000000000000000\n      dup2\n      mstore\n      pop\n      dup2\n      mstore\n      pop\n        /* \"contracts/025DataLocation.sol\":1224:1233  myStructs */\n      0x00\n        /* \"contracts/025DataLocation.sol\":1224:1245  myStructs[address(2)] */\n      dup1\n        /* \"contracts/025DataLocation.sol\":1242:1243  2 */\n      0x02\n        /* \"contracts/025DataLocation.sol\":1224:1245  myStructs[address(2)] */\n      0xffffffffffffffffffffffffffffffffffffffff\n      and\n      0xffffffffffffffffffffffffffffffffffffffff\n      and\n      dup2\n      mstore\n      0x20\n      add\n      swap1\n      dup2\n      mstore\n      0x20\n      add\n      0x00\n      keccak256\n        /* \"contracts/025DataLocation.sol\":1224:1268  myStructs[address(2)] = MyStruct(789, \"dog\") */\n      0x00\n      dup3\n      add\n      mload\n      dup2\n      0x00\n      add\n      sstore\n      0x20\n      dup3\n      add\n      mload\n      dup2\n      0x01\n      add\n      swap1\n      dup1\n      mload\n      swap1\n      0x20\n      add\n      swap1\n      tag_78\n      swap3\n      swap2\n      swap1\n      tag_59\n      jump\t// in\n    tag_78:\n      pop\n      swap1\n      pop\n      pop\n        /* \"contracts/025DataLocation.sol\":1278:1309  lastAction = \"examples2 called\" */\n      mload(0x40)\n      dup1\n      0x40\n      add\n      0x40\n      mstore\n      dup1\n      0x10\n      dup2\n      mstore\n      0x20\n      add\n      0x6578616d706c6573322063616c6c656400000000000000000000000000000000\n      dup2\n      mstore\n      pop\n        /* \"contracts/025DataLocation.sol\":1278:1288  lastAction */\n      0x04\n        /* \"contracts/025DataLocation.sol\":1278:1309  lastAction = \"examples2 called\" */\n      swap1\n      dup1\n      mload\n      swap1\n      0x20\n      add\n      swap1\n      tag_79\n      swap3\n      swap2\n      swap1\n      tag_59\n      jump\t// in\n    tag_79:\n      pop\n        /* \"contracts/025DataLocation.sol\":1385:1410  MyStruct storage myStruct */\n      0x00\n        /* \"contracts/025DataLocation.sol\":1413:1422  myStructs */\n      dup1\n        /* \"contracts/025DataLocation.sol\":1413:1434  myStructs[address(2)] */\n      0x00\n        /* \"contracts/025DataLocation.sol\":1431:1432  2 */\n      0x02\n        /* \"contracts/025DataLocation.sol\":1413:1434  myStructs[address(2)] */\n      0xffffffffffffffffffffffffffffffffffffffff\n      and\n      0xffffffffffffffffffffffffffffffffffffffff\n      and\n      dup2\n      mstore\n      0x20\n      add\n      swap1\n      dup2\n      mstore\n      0x20\n      add\n      0x00\n      keccak256\n        /* \"contracts/025DataLocation.sol\":1385:1434  MyStruct storage myStruct = myStructs[address(2)] */\n      swap1\n      pop\n        /* \"contracts/025DataLocation.sol\":1444:1467  myStruct.text = \"sheep\" */\n      mload(0x40)\n      dup1\n      0x40\n      add\n      0x40\n      mstore\n      dup1\n      0x05\n      dup2\n      mstore\n      0x20\n      add\n      0x7368656570000000000000000000000000000000000000000000000000000000\n      dup2\n      mstore\n      pop\n        /* \"contracts/025DataLocation.sol\":1444:1452  myStruct */\n      dup2\n        /* \"contracts/025DataLocation.sol\":1444:1457  myStruct.text */\n      0x01\n      add\n        /* \"contracts/025DataLocation.sol\":1444:1467  myStruct.text = \"sheep\" */\n      swap1\n      dup1\n      mload\n      swap1\n      0x20\n      add\n      swap1\n      tag_80\n      swap3\n      swap2\n      swap1\n      tag_59\n      jump\t// in\n    tag_80:\n      pop\n        /* \"contracts/025DataLocation.sol\":1555:1579  MyStruct memory readOnly */\n      0x00\n        /* \"contracts/025DataLocation.sol\":1582:1591  myStructs */\n      dup1\n        /* \"contracts/025DataLocation.sol\":1582:1603  myStructs[address(2)] */\n      0x00\n        /* \"contracts/025DataLocation.sol\":1600:1601  2 */\n      0x02\n        /* \"contracts/025DataLocation.sol\":1582:1603  myStructs[address(2)] */\n      0xffffffffffffffffffffffffffffffffffffffff\n      and\n      0xffffffffffffffffffffffffffffffffffffffff\n      and\n      dup2\n      mstore\n      0x20\n      add\n      swap1\n      dup2\n      mstore\n      0x20\n      add\n      0x00\n      keccak256\n        /* \"contracts/025DataLocation.sol\":1555:1603  MyStruct memory readOnly = myStructs[address(2)] */\n      mload(0x40)\n      dup1\n      0x40\n      add\n      0x40\n      mstore\n      swap1\n      dup2\n      0x00\n      dup3\n      add\n      sload\n      dup2\n      mstore\n      0x20\n      add\n      0x01\n      dup3\n      add\n      dup1\n      sload\n      tag_81\n      swap1\n      tag_51\n      jump\t// in\n    tag_81:\n      dup1\n      0x1f\n      add\n      0x20\n      dup1\n      swap2\n      div\n      mul\n      0x20\n      add\n      mload(0x40)\n      swap1\n      dup2\n      add\n      0x40\n      mstore\n      dup1\n      swap3\n      swap2\n      swap1\n      dup2\n      dup2\n      mstore\n      0x20\n      add\n      dup3\n      dup1\n      sload\n      tag_82\n      swap1\n      tag_51\n      jump\t// in\n    tag_82:\n      dup1\n      iszero\n      tag_83\n      jumpi\n      dup1\n      0x1f\n      lt\n      tag_84\n      jumpi\n      0x0100\n      dup1\n      dup4\n      sload\n      div\n      mul\n      dup4\n      mstore\n      swap2\n      0x20\n      add\n      swap2\n      jump(tag_83)\n    tag_84:\n      dup3\n      add\n      swap2\n      swap1\n      0x00\n      mstore\n      keccak256(0x00, 0x20)\n      swap1\n    tag_85:\n      dup2\n      sload\n      dup2\n      mstore\n      swap1\n      0x01\n      add\n      swap1\n      0x20\n      add\n      dup1\n      dup4\n      gt\n      tag_85\n      jumpi\n      dup3\n      swap1\n      sub\n      0x1f\n      and\n      dup3\n      add\n      swap2\n    tag_83:\n      pop\n      pop\n      pop\n      pop\n      pop\n      dup2\n      mstore\n      pop\n      pop\n      swap1\n      pop\n        /* \"contracts/025DataLocation.sol\":1629:1632  996 */\n      0x03e4\n        /* \"contracts/025DataLocation.sol\":1613:1621  readOnly */\n      dup2\n        /* \"contracts/025DataLocation.sol\":1613:1626  readOnly.fool */\n      0x00\n      add\n        /* \"contracts/025DataLocation.sol\":1613:1632  readOnly.fool = 996 */\n      dup2\n      dup2\n      mstore\n      pop\n      pop\n        /* \"contracts/025DataLocation.sol\":1675:1687  _internal(y) */\n      tag_86\n        /* \"contracts/025DataLocation.sol\":1685:1686  y */\n      dup6\n      dup6\n        /* \"contracts/025DataLocation.sol\":1675:1684  _internal */\n      tag_87\n        /* \"contracts/025DataLocation.sol\":1675:1687  _internal(y) */\n      jump\t// in\n    tag_86:\n      pop\n        /* \"contracts/025DataLocation.sol\":1742:1762  uint[] memory memArr */\n      0x00\n        /* \"contracts/025DataLocation.sol\":1776:1777  3 */\n      0x03\n        /* \"contracts/025DataLocation.sol\":1765:1778  new uint[](3) */\n      0xffffffffffffffff\n      dup2\n      gt\n      iszero\n      tag_88\n      jumpi\n      tag_89\n      tag_90\n      jump\t// in\n    tag_89:\n    tag_88:\n      mload(0x40)\n      swap1\n      dup1\n      dup3\n      mstore\n      dup1\n      0x20\n      mul\n      0x20\n      add\n      dup3\n      add\n      0x40\n      mstore\n      dup1\n      iszero\n      tag_91\n      jumpi\n      dup2\n      0x20\n      add\n      0x20\n      dup3\n      mul\n      dup1\n      calldatasize\n      dup4\n      calldatacopy\n      dup1\n      dup3\n      add\n      swap2\n      pop\n      pop\n      swap1\n      pop\n    tag_91:\n      pop\n        /* \"contracts/025DataLocation.sol\":1742:1778  uint[] memory memArr = new uint[](3) */\n      swap1\n      pop\n        /* \"contracts/025DataLocation.sol\":1800:1803  567 */\n      0x0237\n        /* \"contracts/025DataLocation.sol\":1788:1794  memArr */\n      dup2\n        /* \"contracts/025DataLocation.sol\":1795:1796  0 */\n      0x00\n        /* \"contracts/025DataLocation.sol\":1788:1797  memArr[0] */\n      dup2\n      mload\n      dup2\n      lt\n      tag_92\n      jumpi\n      tag_93\n      tag_94\n      jump\t// in\n    tag_93:\n    tag_92:\n      0x20\n      mul\n      0x20\n      add\n      add\n        /* \"contracts/025DataLocation.sol\":1788:1803  memArr[0] = 567 */\n      dup2\n      dup2\n      mstore\n      pop\n      pop\n        /* \"contracts/025DataLocation.sol\":1825:1828  789 */\n      0x0315\n        /* \"contracts/025DataLocation.sol\":1813:1819  memArr */\n      dup2\n        /* \"contracts/025DataLocation.sol\":1820:1821  1 */\n      0x01\n        /* \"contracts/025DataLocation.sol\":1813:1822  memArr[1] */\n      dup2\n      mload\n      dup2\n      lt\n      tag_95\n      jumpi\n      tag_96\n      tag_94\n      jump\t// in\n    tag_96:\n    tag_95:\n      0x20\n      mul\n      0x20\n      add\n      add\n        /* \"contracts/025DataLocation.sol\":1813:1828  memArr[1] = 789 */\n      dup2\n      dup2\n      mstore\n      pop\n      pop\n        /* \"contracts/025DataLocation.sol\":1859:1865  memArr */\n      dup1\n        /* \"contracts/025DataLocation.sol\":1839:1856  lastReturnedArray */\n      0x03\n        /* \"contracts/025DataLocation.sol\":1839:1865  lastReturnedArray = memArr */\n      swap1\n      dup1\n      mload\n      swap1\n      0x20\n      add\n      swap1\n      tag_97\n      swap3\n      swap2\n      swap1\n      tag_98\n      jump\t// in\n    tag_97:\n      pop\n        /* \"contracts/025DataLocation.sol\":1895:1903  readOnly */\n      dup2\n        /* \"contracts/025DataLocation.sol\":1876:1892  lastReturnStruct */\n      0x01\n        /* \"contracts/025DataLocation.sol\":1876:1903  lastReturnStruct = readOnly */\n      0x00\n      dup3\n      add\n      mload\n      dup2\n      0x00\n      add\n      sstore\n      0x20\n      dup3\n      add\n      mload\n      dup2\n      0x01\n      add\n      swap1\n      dup1\n      mload\n      swap1\n      0x20\n      add\n      swap1\n      tag_99\n      swap3\n      swap2\n      swap1\n      tag_59\n      jump\t// in\n    tag_99:\n      pop\n      swap1\n      pop\n      pop\n        /* \"contracts/025DataLocation.sol\":1921:1927  memArr */\n      dup1\n        /* \"contracts/025DataLocation.sol\":1914:1927  return memArr */\n      swap4\n      pop\n      pop\n      pop\n      pop\n        /* \"contracts/025DataLocation.sol\":1095:1934  function examples2(uint[] calldata y) external returns (uint[] memory) {... */\n      swap3\n      swap2\n      pop\n      pop\n      jump\t// out\n        /* \"contracts/025DataLocation.sol\":391:415  string public lastAction */\n    tag_37:\n      0x04\n      dup1\n      sload\n      tag_100\n      swap1\n      tag_51\n      jump\t// in\n    tag_100:\n      dup1\n      0x1f\n      add\n      0x20\n      dup1\n      swap2\n      div\n      mul\n      0x20\n      add\n      mload(0x40)\n      swap1\n      dup2\n      add\n      0x40\n      mstore\n      dup1\n      swap3\n      swap2\n      swap1\n      dup2\n      dup2\n      mstore\n      0x20\n      add\n      dup3\n      dup1\n      sload\n      tag_101\n      swap1\n      tag_51\n      jump\t// in\n    tag_101:\n      dup1\n      iszero\n      tag_102\n      jumpi\n      dup1\n      0x1f\n      lt\n      tag_103\n      jumpi\n      0x0100\n      dup1\n      dup4\n      sload\n      div\n      mul\n      dup4\n      mstore\n      swap2\n      0x20\n      add\n      swap2\n      jump(tag_102)\n    tag_103:\n      dup3\n      add\n      swap2\n      swap1\n      0x00\n      mstore\n      keccak256(0x00, 0x20)\n      swap1\n    tag_104:\n      dup2\n      sload\n      dup2\n      mstore\n      swap1\n      0x01\n      add\n      swap1\n      0x20\n      add\n      dup1\n      dup4\n      gt\n      tag_104\n      jumpi\n      dup3\n      swap1\n      sub\n      0x1f\n      and\n      dup3\n      add\n      swap2\n    tag_102:\n      pop\n      pop\n      pop\n      pop\n      pop\n      dup2\n      jump\t// out\n        /* \"contracts/025DataLocation.sol\":2516:2661  function getAddress1Struct() external view returns (MyStruct memory) {... */\n    tag_41:\n        /* \"contracts/025DataLocation.sol\":2568:2583  MyStruct memory */\n      tag_105\n      tag_48\n      jump\t// in\n    tag_105:\n        /* \"contracts/025DataLocation.sol\":2595:2612  MyStruct memory s */\n      0x00\n        /* \"contracts/025DataLocation.sol\":2615:2624  myStructs */\n      dup1\n        /* \"contracts/025DataLocation.sol\":2615:2636  myStructs[address(1)] */\n      0x00\n        /* \"contracts/025DataLocation.sol\":2633:2634  1 */\n      0x01\n        /* \"contracts/025DataLocation.sol\":2615:2636  myStructs[address(1)] */\n      0xffffffffffffffffffffffffffffffffffffffff\n      and\n      0xffffffffffffffffffffffffffffffffffffffff\n      and\n      dup2\n      mstore\n      0x20\n      add\n      swap1\n      dup2\n      mstore\n      0x20\n      add\n      0x00\n      keccak256\n        /* \"contracts/025DataLocation.sol\":2595:2636  MyStruct memory s = myStructs[address(1)] */\n      mload(0x40)\n      dup1\n      0x40\n      add\n      0x40\n      mstore\n      swap1\n      dup2\n      0x00\n      dup3\n      add\n      sload\n      dup2\n      mstore\n      0x20\n      add\n      0x01\n      dup3\n      add\n      dup1\n      sload\n      tag_107\n      swap1\n      tag_51\n      jump\t// in\n    tag_107:\n      dup1\n      0x1f\n      add\n      0x20\n      dup1\n      swap2\n      div\n      mul\n      0x20\n      add\n      mload(0x40)\n      swap1\n      dup2\n      add\n      0x40\n      mstore\n      dup1\n      swap3\n      swap2\n      swap1\n      dup2\n      dup2\n      mstore\n      0x20\n      add\n      dup3\n      dup1\n      sload\n      tag_108\n      swap1\n      tag_51\n      jump\t// in\n    tag_108:\n      dup1\n      iszero\n      tag_109\n      jumpi\n      dup1\n      0x1f\n      lt\n      tag_110\n      jumpi\n      0x0100\n      dup1\n      dup4\n      sload\n      div\n      mul\n      dup4\n      mstore\n      swap2\n      0x20\n      add\n      swap2\n      jump(tag_109)\n    tag_110:\n      dup3\n      add\n      swap2\n      swap1\n      0x00\n      mstore\n      keccak256(0x00, 0x20)\n      swap1\n    tag_111:\n      dup2\n      sload\n      dup2\n      mstore\n      swap1\n      0x01\n      add\n      swap1\n      0x20\n      add\n      dup1\n      dup4\n      gt\n      tag_111\n      jumpi\n      dup3\n      swap1\n      sub\n      0x1f\n      and\n      dup3\n      add\n      swap2\n    tag_109:\n      pop\n      pop\n      pop\n      pop\n      pop\n      dup2\n      mstore\n      pop\n      pop\n      swap1\n      pop\n        /* \"contracts/025DataLocation.sol\":2653:2654  s */\n      dup1\n        /* \"contracts/025DataLocation.sol\":2646:2654  return s */\n      swap2\n      pop\n      pop\n        /* \"contracts/025DataLocation.sol\":2516:2661  function getAddress1Struct() external view returns (MyStruct memory) {... */\n      swap1\n      jump\t// out\n        /* \"contracts/025DataLocation.sol\":316:348  MyStruct public lastReturnStruct */\n    tag_44:\n      0x01\n      dup1\n      0x00\n      add\n      sload\n      swap1\n      dup1\n      0x01\n      add\n      dup1\n      sload\n      tag_112\n      swap1\n      tag_51\n      jump\t// in\n    tag_112:\n      dup1\n      0x1f\n      add\n      0x20\n      dup1\n      swap2\n      div\n      mul\n      0x20\n      add\n      mload(0x40)\n      swap1\n      dup2\n      add\n      0x40\n      mstore\n      dup1\n      swap3\n      swap2\n      swap1\n      dup2\n      dup2\n      mstore\n      0x20\n      add\n      dup3\n      dup1\n      sload\n      tag_113\n      swap1\n      tag_51\n      jump\t// in\n    tag_113:\n      dup1\n      iszero\n      tag_114\n      jumpi\n      dup1\n      0x1f\n      lt\n      tag_115\n      jumpi\n      0x0100\n      dup1\n      dup4\n      sload\n      div\n      mul\n      dup4\n      mstore\n      swap2\n      0x20\n      add\n      swap2\n      jump(tag_114)\n    tag_115:\n      dup3\n      add\n      swap2\n      swap1\n      0x00\n      mstore\n      keccak256(0x00, 0x20)\n      swap1\n    tag_116:\n      dup2\n      sload\n      dup2\n      mstore\n      swap1\n      0x01\n      add\n      swap1\n      0x20\n      add\n      dup1\n      dup4\n      gt\n      tag_116\n      jumpi\n      dup3\n      swap1\n      sub\n      0x1f\n      and\n      dup3\n      add\n      swap2\n    tag_114:\n      pop\n      pop\n      pop\n      pop\n      pop\n      swap1\n      pop\n      dup3\n      jump\t// out\n        /* \"contracts/025DataLocation.sol\":2094:2208  function _internal(uint[] calldata y) private pure returns (uint) {... */\n    tag_87:\n        /* \"contracts/025DataLocation.sol\":2154:2158  uint */\n      0x00\n        /* \"contracts/025DataLocation.sol\":2170:2176  uint x */\n      dup1\n        /* \"contracts/025DataLocation.sol\":2179:2180  y */\n      dup4\n      dup4\n        /* \"contracts/025DataLocation.sol\":2181:2182  0 */\n      0x00\n        /* \"contracts/025DataLocation.sol\":2179:2183  y[0] */\n      dup2\n      dup2\n      lt\n      tag_118\n      jumpi\n      tag_119\n      tag_94\n      jump\t// in\n    tag_119:\n    tag_118:\n      swap1\n      pop\n      0x20\n      mul\n      add\n      calldataload\n        /* \"contracts/025DataLocation.sol\":2170:2183  uint x = y[0] */\n      swap1\n      pop\n        /* \"contracts/025DataLocation.sol\":2200:2201  x */\n      dup1\n        /* \"contracts/025DataLocation.sol\":2193:2201  return x */\n      swap2\n      pop\n      pop\n        /* \"contracts/025DataLocation.sol\":2094:2208  function _internal(uint[] calldata y) private pure returns (uint) {... */\n      swap3\n      swap2\n      pop\n      pop\n      jump\t// out\n    tag_48:\n      mload(0x40)\n      dup1\n      0x40\n      add\n      0x40\n      mstore\n      dup1\n      0x00\n      dup2\n      mstore\n      0x20\n      add\n      0x60\n      dup2\n      mstore\n      pop\n      swap1\n      jump\t// out\n    tag_59:\n      dup3\n      dup1\n      sload\n      tag_120\n      swap1\n      tag_51\n      jump\t// in\n    tag_120:\n      swap1\n      0x00\n      mstore\n      keccak256(0x00, 0x20)\n      swap1\n      0x1f\n      add\n      0x20\n      swap1\n      div\n      dup2\n      add\n      swap3\n      dup3\n      tag_122\n      jumpi\n      0x00\n      dup6\n      sstore\n      jump(tag_121)\n    tag_122:\n      dup3\n      0x1f\n      lt\n      tag_123\n      jumpi\n      dup1\n      mload\n      not(0xff)\n      and\n      dup4\n      dup1\n      add\n      or\n      dup6\n      sstore\n      jump(tag_121)\n    tag_123:\n      dup3\n      dup1\n      add\n      0x01\n      add\n      dup6\n      sstore\n      dup3\n      iszero\n      tag_121\n      jumpi\n      swap2\n      dup3\n      add\n    tag_124:\n      dup3\n      dup2\n      gt\n      iszero\n      tag_125\n      jumpi\n      dup3\n      mload\n      dup3\n      sstore\n      swap2\n      0x20\n      add\n      swap2\n      swap1\n      0x01\n      add\n      swap1\n      jump(tag_124)\n    tag_125:\n    tag_121:\n      pop\n      swap1\n      pop\n      tag_126\n      swap2\n      swap1\n      tag_127\n      jump\t// in\n    tag_126:\n      pop\n      swap1\n      jump\t// out\n    tag_98:\n      dup3\n      dup1\n      sload\n      dup3\n      dup3\n      sstore\n      swap1\n      0x00\n      mstore\n      keccak256(0x00, 0x20)\n      swap1\n      dup2\n      add\n      swap3\n      dup3\n      iszero\n      tag_128\n      jumpi\n      swap2\n      0x20\n      mul\n      dup3\n      add\n    tag_129:\n      dup3\n      dup2\n      gt\n      iszero\n      tag_130\n      jumpi\n      dup3\n      mload\n      dup3\n      sstore\n      swap2\n      0x20\n      add\n      swap2\n      swap1\n      0x01\n      add\n      swap1\n      jump(tag_129)\n    tag_130:\n    tag_128:\n      pop\n      swap1\n      pop\n      tag_131\n      swap2\n      swap1\n      tag_127\n      jump\t// in\n    tag_131:\n      pop\n      swap1\n      jump\t// out\n    tag_127:\n    tag_132:\n      dup1\n      dup3\n      gt\n      iszero\n      tag_133\n      jumpi\n      0x00\n      dup2\n      0x00\n      swap1\n      sstore\n      pop\n      0x01\n      add\n      jump(tag_132)\n    tag_133:\n      pop\n      swap1\n      jump\t// out\n        /* \"#utility.yul\":7:146   */\n    tag_135:\n        /* \"#utility.yul\":53:58   */\n      0x00\n        /* \"#utility.yul\":91:97   */\n      dup2\n        /* \"#utility.yul\":78:98   */\n      calldataload\n        /* \"#utility.yul\":69:98   */\n      swap1\n      pop\n        /* \"#utility.yul\":107:140   */\n      tag_137\n        /* \"#utility.yul\":134:139   */\n      dup2\n        /* \"#utility.yul\":107:140   */\n      tag_138\n      jump\t// in\n    tag_137:\n        /* \"#utility.yul\":7:146   */\n      swap3\n      swap2\n      pop\n      pop\n      jump\t// out\n        /* \"#utility.yul\":169:737   */\n    tag_139:\n        /* \"#utility.yul\":242:250   */\n      0x00\n        /* \"#utility.yul\":252:258   */\n      dup1\n        /* \"#utility.yul\":302:305   */\n      dup4\n        /* \"#utility.yul\":295:299   */\n      0x1f\n        /* \"#utility.yul\":287:293   */\n      dup5\n        /* \"#utility.yul\":283:300   */\n      add\n        /* \"#utility.yul\":279:306   */\n      slt\n        /* \"#utility.yul\":269:391   */\n      tag_141\n      jumpi\n        /* \"#utility.yul\":310:389   */\n      tag_142\n      tag_143\n      jump\t// in\n    tag_142:\n        /* \"#utility.yul\":269:391   */\n    tag_141:\n        /* \"#utility.yul\":423:429   */\n      dup3\n        /* \"#utility.yul\":410:430   */\n      calldataload\n        /* \"#utility.yul\":400:430   */\n      swap1\n      pop\n        /* \"#utility.yul\":453:471   */\n      0xffffffffffffffff\n        /* \"#utility.yul\":445:451   */\n      dup2\n        /* \"#utility.yul\":442:472   */\n      gt\n        /* \"#utility.yul\":439:556   */\n      iszero\n      tag_144\n      jumpi\n        /* \"#utility.yul\":475:554   */\n      tag_145\n      tag_146\n      jump\t// in\n    tag_145:\n        /* \"#utility.yul\":439:556   */\n    tag_144:\n        /* \"#utility.yul\":589:593   */\n      0x20\n        /* \"#utility.yul\":581:587   */\n      dup4\n        /* \"#utility.yul\":577:594   */\n      add\n        /* \"#utility.yul\":565:594   */\n      swap2\n      pop\n        /* \"#utility.yul\":643:646   */\n      dup4\n        /* \"#utility.yul\":635:639   */\n      0x20\n        /* \"#utility.yul\":627:633   */\n      dup3\n        /* \"#utility.yul\":623:640   */\n      mul\n        /* \"#utility.yul\":613:621   */\n      dup4\n        /* \"#utility.yul\":609:641   */\n      add\n        /* \"#utility.yul\":606:647   */\n      gt\n        /* \"#utility.yul\":603:731   */\n      iszero\n      tag_147\n      jumpi\n        /* \"#utility.yul\":650:729   */\n      tag_148\n      tag_149\n      jump\t// in\n    tag_148:\n        /* \"#utility.yul\":603:731   */\n    tag_147:\n        /* \"#utility.yul\":169:737   */\n      swap3\n      pop\n      swap3\n      swap1\n      pop\n      jump\t// out\n        /* \"#utility.yul\":743:882   */\n    tag_150:\n        /* \"#utility.yul\":789:794   */\n      0x00\n        /* \"#utility.yul\":827:833   */\n      dup2\n        /* \"#utility.yul\":814:834   */\n      calldataload\n        /* \"#utility.yul\":805:834   */\n      swap1\n      pop\n        /* \"#utility.yul\":843:876   */\n      tag_152\n        /* \"#utility.yul\":870:875   */\n      dup2\n        /* \"#utility.yul\":843:876   */\n      tag_153\n      jump\t// in\n    tag_152:\n        /* \"#utility.yul\":743:882   */\n      swap3\n      swap2\n      pop\n      pop\n      jump\t// out\n        /* \"#utility.yul\":888:1217   */\n    tag_27:\n        /* \"#utility.yul\":947:953   */\n      0x00\n        /* \"#utility.yul\":996:998   */\n      0x20\n        /* \"#utility.yul\":984:993   */\n      dup3\n        /* \"#utility.yul\":975:982   */\n      dup5\n        /* \"#utility.yul\":971:994   */\n      sub\n        /* \"#utility.yul\":967:999   */\n      slt\n        /* \"#utility.yul\":964:1083   */\n      iszero\n      tag_155\n      jumpi\n        /* \"#utility.yul\":1002:1081   */\n      tag_156\n      tag_157\n      jump\t// in\n    tag_156:\n        /* \"#utility.yul\":964:1083   */\n    tag_155:\n        /* \"#utility.yul\":1122:1123   */\n      0x00\n        /* \"#utility.yul\":1147:1200   */\n      tag_158\n        /* \"#utility.yul\":1192:1199   */\n      dup5\n        /* \"#utility.yul\":1183:1189   */\n      dup3\n        /* \"#utility.yul\":1172:1181   */\n      dup6\n        /* \"#utility.yul\":1168:1190   */\n      add\n        /* \"#utility.yul\":1147:1200   */\n      tag_135\n      jump\t// in\n    tag_158:\n        /* \"#utility.yul\":1137:1200   */\n      swap2\n      pop\n        /* \"#utility.yul\":1093:1210   */\n      pop\n        /* \"#utility.yul\":888:1217   */\n      swap3\n      swap2\n      pop\n      pop\n      jump\t// out\n        /* \"#utility.yul\":1223:1782   */\n    tag_32:\n        /* \"#utility.yul\":1309:1315   */\n      0x00\n        /* \"#utility.yul\":1317:1323   */\n      dup1\n        /* \"#utility.yul\":1366:1368   */\n      0x20\n        /* \"#utility.yul\":1354:1363   */\n      dup4\n        /* \"#utility.yul\":1345:1352   */\n      dup6\n        /* \"#utility.yul\":1341:1364   */\n      sub\n        /* \"#utility.yul\":1337:1369   */\n      slt\n        /* \"#utility.yul\":1334:1453   */\n      iszero\n      tag_160\n      jumpi\n        /* \"#utility.yul\":1372:1451   */\n      tag_161\n      tag_157\n      jump\t// in\n    tag_161:\n        /* \"#utility.yul\":1334:1453   */\n    tag_160:\n        /* \"#utility.yul\":1520:1521   */\n      0x00\n        /* \"#utility.yul\":1509:1518   */\n      dup4\n        /* \"#utility.yul\":1505:1522   */\n      add\n        /* \"#utility.yul\":1492:1523   */\n      calldataload\n        /* \"#utility.yul\":1550:1568   */\n      0xffffffffffffffff\n        /* \"#utility.yul\":1542:1548   */\n      dup2\n        /* \"#utility.yul\":1539:1569   */\n      gt\n        /* \"#utility.yul\":1536:1653   */\n      iszero\n      tag_162\n      jumpi\n        /* \"#utility.yul\":1572:1651   */\n      tag_163\n      tag_164\n      jump\t// in\n    tag_163:\n        /* \"#utility.yul\":1536:1653   */\n    tag_162:\n        /* \"#utility.yul\":1685:1765   */\n      tag_165\n        /* \"#utility.yul\":1757:1764   */\n      dup6\n        /* \"#utility.yul\":1748:1754   */\n      dup3\n        /* \"#utility.yul\":1737:1746   */\n      dup7\n        /* \"#utility.yul\":1733:1755   */\n      add\n        /* \"#utility.yul\":1685:1765   */\n      tag_139\n      jump\t// in\n    tag_165:\n        /* \"#utility.yul\":1667:1765   */\n      swap3\n      pop\n      swap3\n      pop\n        /* \"#utility.yul\":1463:1775   */\n      pop\n        /* \"#utility.yul\":1223:1782   */\n      swap3\n      pop\n      swap3\n      swap1\n      pop\n      jump\t// out\n        /* \"#utility.yul\":1788:2117   */\n    tag_21:\n        /* \"#utility.yul\":1847:1853   */\n      0x00\n        /* \"#utility.yul\":1896:1898   */\n      0x20\n        /* \"#utility.yul\":1884:1893   */\n      dup3\n        /* \"#utility.yul\":1875:1882   */\n      dup5\n        /* \"#utility.yul\":1871:1894   */\n      sub\n        /* \"#utility.yul\":1867:1899   */\n      slt\n        /* \"#utility.yul\":1864:1983   */\n      iszero\n      tag_167\n      jumpi\n        /* \"#utility.yul\":1902:1981   */\n      tag_168\n      tag_157\n      jump\t// in\n    tag_168:\n        /* \"#utility.yul\":1864:1983   */\n    tag_167:\n        /* \"#utility.yul\":2022:2023   */\n      0x00\n        /* \"#utility.yul\":2047:2100   */\n      tag_169\n        /* \"#utility.yul\":2092:2099   */\n      dup5\n        /* \"#utility.yul\":2083:2089   */\n      dup3\n        /* \"#utility.yul\":2072:2081   */\n      dup6\n        /* \"#utility.yul\":2068:2090   */\n      add\n        /* \"#utility.yul\":2047:2100   */\n      tag_150\n      jump\t// in\n    tag_169:\n        /* \"#utility.yul\":2037:2100   */\n      swap2\n      pop\n        /* \"#utility.yul\":1993:2110   */\n      pop\n        /* \"#utility.yul\":1788:2117   */\n      swap3\n      swap2\n      pop\n      pop\n      jump\t// out\n        /* \"#utility.yul\":2123:2302   */\n    tag_170:\n        /* \"#utility.yul\":2192:2202   */\n      0x00\n        /* \"#utility.yul\":2213:2259   */\n      tag_172\n        /* \"#utility.yul\":2255:2258   */\n      dup4\n        /* \"#utility.yul\":2247:2253   */\n      dup4\n        /* \"#utility.yul\":2213:2259   */\n      tag_173\n      jump\t// in\n    tag_172:\n        /* \"#utility.yul\":2291:2295   */\n      0x20\n        /* \"#utility.yul\":2286:2289   */\n      dup4\n        /* \"#utility.yul\":2282:2296   */\n      add\n        /* \"#utility.yul\":2268:2296   */\n      swap1\n      pop\n        /* \"#utility.yul\":2123:2302   */\n      swap3\n      swap2\n      pop\n      pop\n      jump\t// out\n        /* \"#utility.yul\":2338:3070   */\n    tag_174:\n        /* \"#utility.yul\":2457:2460   */\n      0x00\n        /* \"#utility.yul\":2486:2540   */\n      tag_176\n        /* \"#utility.yul\":2534:2539   */\n      dup3\n        /* \"#utility.yul\":2486:2540   */\n      tag_177\n      jump\t// in\n    tag_176:\n        /* \"#utility.yul\":2556:2642   */\n      tag_178\n        /* \"#utility.yul\":2635:2641   */\n      dup2\n        /* \"#utility.yul\":2630:2633   */\n      dup6\n        /* \"#utility.yul\":2556:2642   */\n      tag_179\n      jump\t// in\n    tag_178:\n        /* \"#utility.yul\":2549:2642   */\n      swap4\n      pop\n        /* \"#utility.yul\":2666:2722   */\n      tag_180\n        /* \"#utility.yul\":2716:2721   */\n      dup4\n        /* \"#utility.yul\":2666:2722   */\n      tag_181\n      jump\t// in\n    tag_180:\n        /* \"#utility.yul\":2745:2752   */\n      dup1\n        /* \"#utility.yul\":2776:2777   */\n      0x00\n        /* \"#utility.yul\":2761:3045   */\n    tag_182:\n        /* \"#utility.yul\":2786:2792   */\n      dup4\n        /* \"#utility.yul\":2783:2784   */\n      dup2\n        /* \"#utility.yul\":2780:2793   */\n      lt\n        /* \"#utility.yul\":2761:3045   */\n      iszero\n      tag_184\n      jumpi\n        /* \"#utility.yul\":2862:2868   */\n      dup2\n        /* \"#utility.yul\":2856:2869   */\n      mload\n        /* \"#utility.yul\":2889:2952   */\n      tag_185\n        /* \"#utility.yul\":2948:2951   */\n      dup9\n        /* \"#utility.yul\":2933:2946   */\n      dup3\n        /* \"#utility.yul\":2889:2952   */\n      tag_170\n      jump\t// in\n    tag_185:\n        /* \"#utility.yul\":2882:2952   */\n      swap8\n      pop\n        /* \"#utility.yul\":2975:3035   */\n      tag_186\n        /* \"#utility.yul\":3028:3034   */\n      dup4\n        /* \"#utility.yul\":2975:3035   */\n      tag_187\n      jump\t// in\n    tag_186:\n        /* \"#utility.yul\":2965:3035   */\n      swap3\n      pop\n        /* \"#utility.yul\":2821:3045   */\n      pop\n        /* \"#utility.yul\":2808:2809   */\n      0x01\n        /* \"#utility.yul\":2805:2806   */\n      dup2\n        /* \"#utility.yul\":2801:2810   */\n      add\n        /* \"#utility.yul\":2796:2810   */\n      swap1\n      pop\n        /* \"#utility.yul\":2761:3045   */\n      jump(tag_182)\n    tag_184:\n        /* \"#utility.yul\":2765:2779   */\n      pop\n        /* \"#utility.yul\":3061:3064   */\n      dup6\n        /* \"#utility.yul\":3054:3064   */\n      swap4\n      pop\n        /* \"#utility.yul\":2462:3070   */\n      pop\n      pop\n      pop\n        /* \"#utility.yul\":2338:3070   */\n      swap3\n      swap2\n      pop\n      pop\n      jump\t// out\n        /* \"#utility.yul\":3076:3420   */\n    tag_188:\n        /* \"#utility.yul\":3154:3157   */\n      0x00\n        /* \"#utility.yul\":3182:3221   */\n      tag_190\n        /* \"#utility.yul\":3215:3220   */\n      dup3\n        /* \"#utility.yul\":3182:3221   */\n      tag_191\n      jump\t// in\n    tag_190:\n        /* \"#utility.yul\":3237:3298   */\n      tag_192\n        /* \"#utility.yul\":3291:3297   */\n      dup2\n        /* \"#utility.yul\":3286:3289   */\n      dup6\n        /* \"#utility.yul\":3237:3298   */\n      tag_193\n      jump\t// in\n    tag_192:\n        /* \"#utility.yul\":3230:3298   */\n      swap4\n      pop\n        /* \"#utility.yul\":3307:3359   */\n      tag_194\n        /* \"#utility.yul\":3352:3358   */\n      dup2\n        /* \"#utility.yul\":3347:3350   */\n      dup6\n        /* \"#utility.yul\":3340:3344   */\n      0x20\n        /* \"#utility.yul\":3333:3338   */\n      dup7\n        /* \"#utility.yul\":3329:3345   */\n      add\n        /* \"#utility.yul\":3307:3359   */\n      tag_195\n      jump\t// in\n    tag_194:\n        /* \"#utility.yul\":3384:3413   */\n      tag_196\n        /* \"#utility.yul\":3406:3412   */\n      dup2\n        /* \"#utility.yul\":3384:3413   */\n      tag_197\n      jump\t// in\n    tag_196:\n        /* \"#utility.yul\":3379:3382   */\n      dup5\n        /* \"#utility.yul\":3375:3414   */\n      add\n        /* \"#utility.yul\":3368:3414   */\n      swap2\n      pop\n        /* \"#utility.yul\":3158:3420   */\n      pop\n        /* \"#utility.yul\":3076:3420   */\n      swap3\n      swap2\n      pop\n      pop\n      jump\t// out\n        /* \"#utility.yul\":3426:3790   */\n    tag_198:\n        /* \"#utility.yul\":3514:3517   */\n      0x00\n        /* \"#utility.yul\":3542:3581   */\n      tag_200\n        /* \"#utility.yul\":3575:3580   */\n      dup3\n        /* \"#utility.yul\":3542:3581   */\n      tag_191\n      jump\t// in\n    tag_200:\n        /* \"#utility.yul\":3597:3668   */\n      tag_201\n        /* \"#utility.yul\":3661:3667   */\n      dup2\n        /* \"#utility.yul\":3656:3659   */\n      dup6\n        /* \"#utility.yul\":3597:3668   */\n      tag_202\n      jump\t// in\n    tag_201:\n        /* \"#utility.yul\":3590:3668   */\n      swap4\n      pop\n        /* \"#utility.yul\":3677:3729   */\n      tag_203\n        /* \"#utility.yul\":3722:3728   */\n      dup2\n        /* \"#utility.yul\":3717:3720   */\n      dup6\n        /* \"#utility.yul\":3710:3714   */\n      0x20\n        /* \"#utility.yul\":3703:3708   */\n      dup7\n        /* \"#utility.yul\":3699:3715   */\n      add\n        /* \"#utility.yul\":3677:3729   */\n      tag_195\n      jump\t// in\n    tag_203:\n        /* \"#utility.yul\":3754:3783   */\n      tag_204\n        /* \"#utility.yul\":3776:3782   */\n      dup2\n        /* \"#utility.yul\":3754:3783   */\n      tag_197\n      jump\t// in\n    tag_204:\n        /* \"#utility.yul\":3749:3752   */\n      dup5\n        /* \"#utility.yul\":3745:3784   */\n      add\n        /* \"#utility.yul\":3738:3784   */\n      swap2\n      pop\n        /* \"#utility.yul\":3518:3790   */\n      pop\n        /* \"#utility.yul\":3426:3790   */\n      swap3\n      swap2\n      pop\n      pop\n      jump\t// out\n        /* \"#utility.yul\":3864:4466   */\n    tag_205:\n        /* \"#utility.yul\":3979:3982   */\n      0x00\n        /* \"#utility.yul\":4015:4019   */\n      0x40\n        /* \"#utility.yul\":4010:4013   */\n      dup4\n        /* \"#utility.yul\":4006:4020   */\n      add\n        /* \"#utility.yul\":4102:4106   */\n      0x00\n        /* \"#utility.yul\":4095:4100   */\n      dup4\n        /* \"#utility.yul\":4091:4107   */\n      add\n        /* \"#utility.yul\":4085:4108   */\n      mload\n        /* \"#utility.yul\":4121:4184   */\n      tag_207\n        /* \"#utility.yul\":4178:4182   */\n      0x00\n        /* \"#utility.yul\":4173:4176   */\n      dup7\n        /* \"#utility.yul\":4169:4183   */\n      add\n        /* \"#utility.yul\":4155:4167   */\n      dup3\n        /* \"#utility.yul\":4121:4184   */\n      tag_173\n      jump\t// in\n    tag_207:\n        /* \"#utility.yul\":4030:4194   */\n      pop\n        /* \"#utility.yul\":4276:4280   */\n      0x20\n        /* \"#utility.yul\":4269:4274   */\n      dup4\n        /* \"#utility.yul\":4265:4281   */\n      add\n        /* \"#utility.yul\":4259:4282   */\n      mload\n        /* \"#utility.yul\":4329:4332   */\n      dup5\n        /* \"#utility.yul\":4323:4327   */\n      dup3\n        /* \"#utility.yul\":4319:4333   */\n      sub\n        /* \"#utility.yul\":4312:4316   */\n      0x20\n        /* \"#utility.yul\":4307:4310   */\n      dup7\n        /* \"#utility.yul\":4303:4317   */\n      add\n        /* \"#utility.yul\":4296:4334   */\n      mstore\n        /* \"#utility.yul\":4355:4428   */\n      tag_208\n        /* \"#utility.yul\":4423:4427   */\n      dup3\n        /* \"#utility.yul\":4409:4421   */\n      dup3\n        /* \"#utility.yul\":4355:4428   */\n      tag_188\n      jump\t// in\n    tag_208:\n        /* \"#utility.yul\":4347:4428   */\n      swap2\n      pop\n        /* \"#utility.yul\":4204:4439   */\n      pop\n        /* \"#utility.yul\":4456:4460   */\n      dup1\n        /* \"#utility.yul\":4449:4460   */\n      swap2\n      pop\n        /* \"#utility.yul\":3984:4466   */\n      pop\n        /* \"#utility.yul\":3864:4466   */\n      swap3\n      swap2\n      pop\n      pop\n      jump\t// out\n        /* \"#utility.yul\":4472:4580   */\n    tag_173:\n        /* \"#utility.yul\":4549:4573   */\n      tag_210\n        /* \"#utility.yul\":4567:4572   */\n      dup2\n        /* \"#utility.yul\":4549:4573   */\n      tag_211\n      jump\t// in\n    tag_210:\n        /* \"#utility.yul\":4544:4547   */\n      dup3\n        /* \"#utility.yul\":4537:4574   */\n      mstore\n        /* \"#utility.yul\":4472:4580   */\n      pop\n      pop\n      jump\t// out\n        /* \"#utility.yul\":4586:4704   */\n    tag_212:\n        /* \"#utility.yul\":4673:4697   */\n      tag_214\n        /* \"#utility.yul\":4691:4696   */\n      dup2\n        /* \"#utility.yul\":4673:4697   */\n      tag_211\n      jump\t// in\n    tag_214:\n        /* \"#utility.yul\":4668:4671   */\n      dup3\n        /* \"#utility.yul\":4661:4698   */\n      mstore\n        /* \"#utility.yul\":4586:4704   */\n      pop\n      pop\n      jump\t// out\n        /* \"#utility.yul\":4710:5083   */\n    tag_35:\n        /* \"#utility.yul\":4853:4857   */\n      0x00\n        /* \"#utility.yul\":4891:4893   */\n      0x20\n        /* \"#utility.yul\":4880:4889   */\n      dup3\n        /* \"#utility.yul\":4876:4894   */\n      add\n        /* \"#utility.yul\":4868:4894   */\n      swap1\n      pop\n        /* \"#utility.yul\":4940:4949   */\n      dup2\n        /* \"#utility.yul\":4934:4938   */\n      dup2\n        /* \"#utility.yul\":4930:4950   */\n      sub\n        /* \"#utility.yul\":4926:4927   */\n      0x00\n        /* \"#utility.yul\":4915:4924   */\n      dup4\n        /* \"#utility.yul\":4911:4928   */\n      add\n        /* \"#utility.yul\":4904:4951   */\n      mstore\n        /* \"#utility.yul\":4968:5076   */\n      tag_216\n        /* \"#utility.yul\":5071:5075   */\n      dup2\n        /* \"#utility.yul\":5062:5068   */\n      dup5\n        /* \"#utility.yul\":4968:5076   */\n      tag_174\n      jump\t// in\n    tag_216:\n        /* \"#utility.yul\":4960:5076   */\n      swap1\n      pop\n        /* \"#utility.yul\":4710:5083   */\n      swap3\n      swap2\n      pop\n      pop\n      jump\t// out\n        /* \"#utility.yul\":5089:5402   */\n    tag_39:\n        /* \"#utility.yul\":5202:5206   */\n      0x00\n        /* \"#utility.yul\":5240:5242   */\n      0x20\n        /* \"#utility.yul\":5229:5238   */\n      dup3\n        /* \"#utility.yul\":5225:5243   */\n      add\n        /* \"#utility.yul\":5217:5243   */\n      swap1\n      pop\n        /* \"#utility.yul\":5289:5298   */\n      dup2\n        /* \"#utility.yul\":5283:5287   */\n      dup2\n        /* \"#utility.yul\":5279:5299   */\n      sub\n        /* \"#utility.yul\":5275:5276   */\n      0x00\n        /* \"#utility.yul\":5264:5273   */\n      dup4\n        /* \"#utility.yul\":5260:5277   */\n      add\n        /* \"#utility.yul\":5253:5300   */\n      mstore\n        /* \"#utility.yul\":5317:5395   */\n      tag_218\n        /* \"#utility.yul\":5390:5394   */\n      dup2\n        /* \"#utility.yul\":5381:5387   */\n      dup5\n        /* \"#utility.yul\":5317:5395   */\n      tag_198\n      jump\t// in\n    tag_218:\n        /* \"#utility.yul\":5309:5395   */\n      swap1\n      pop\n        /* \"#utility.yul\":5089:5402   */\n      swap3\n      swap2\n      pop\n      pop\n      jump\t// out\n        /* \"#utility.yul\":5408:5773   */\n    tag_15:\n        /* \"#utility.yul\":5547:5551   */\n      0x00\n        /* \"#utility.yul\":5585:5587   */\n      0x20\n        /* \"#utility.yul\":5574:5583   */\n      dup3\n        /* \"#utility.yul\":5570:5588   */\n      add\n        /* \"#utility.yul\":5562:5588   */\n      swap1\n      pop\n        /* \"#utility.yul\":5634:5643   */\n      dup2\n        /* \"#utility.yul\":5628:5632   */\n      dup2\n        /* \"#utility.yul\":5624:5644   */\n      sub\n        /* \"#utility.yul\":5620:5621   */\n      0x00\n        /* \"#utility.yul\":5609:5618   */\n      dup4\n        /* \"#utility.yul\":5605:5622   */\n      add\n        /* \"#utility.yul\":5598:5645   */\n      mstore\n        /* \"#utility.yul\":5662:5766   */\n      tag_220\n        /* \"#utility.yul\":5761:5765   */\n      dup2\n        /* \"#utility.yul\":5752:5758   */\n      dup5\n        /* \"#utility.yul\":5662:5766   */\n      tag_205\n      jump\t// in\n    tag_220:\n        /* \"#utility.yul\":5654:5766   */\n      swap1\n      pop\n        /* \"#utility.yul\":5408:5773   */\n      swap3\n      swap2\n      pop\n      pop\n      jump\t// out\n        /* \"#utility.yul\":5779:6001   */\n    tag_24:\n        /* \"#utility.yul\":5872:5876   */\n      0x00\n        /* \"#utility.yul\":5910:5912   */\n      0x20\n        /* \"#utility.yul\":5899:5908   */\n      dup3\n        /* \"#utility.yul\":5895:5913   */\n      add\n        /* \"#utility.yul\":5887:5913   */\n      swap1\n      pop\n        /* \"#utility.yul\":5923:5994   */\n      tag_222\n        /* \"#utility.yul\":5991:5992   */\n      0x00\n        /* \"#utility.yul\":5980:5989   */\n      dup4\n        /* \"#utility.yul\":5976:5993   */\n      add\n        /* \"#utility.yul\":5967:5973   */\n      dup5\n        /* \"#utility.yul\":5923:5994   */\n      tag_212\n      jump\t// in\n    tag_222:\n        /* \"#utility.yul\":5779:6001   */\n      swap3\n      swap2\n      pop\n      pop\n      jump\t// out\n        /* \"#utility.yul\":6007:6430   */\n    tag_46:\n        /* \"#utility.yul\":6148:6152   */\n      0x00\n        /* \"#utility.yul\":6186:6188   */\n      0x40\n        /* \"#utility.yul\":6175:6184   */\n      dup3\n        /* \"#utility.yul\":6171:6189   */\n      add\n        /* \"#utility.yul\":6163:6189   */\n      swap1\n      pop\n        /* \"#utility.yul\":6199:6270   */\n      tag_224\n        /* \"#utility.yul\":6267:6268   */\n      0x00\n        /* \"#utility.yul\":6256:6265   */\n      dup4\n        /* \"#utility.yul\":6252:6269   */\n      add\n        /* \"#utility.yul\":6243:6249   */\n      dup6\n        /* \"#utility.yul\":6199:6270   */\n      tag_212\n      jump\t// in\n    tag_224:\n        /* \"#utility.yul\":6317:6326   */\n      dup2\n        /* \"#utility.yul\":6311:6315   */\n      dup2\n        /* \"#utility.yul\":6307:6327   */\n      sub\n        /* \"#utility.yul\":6302:6304   */\n      0x20\n        /* \"#utility.yul\":6291:6300   */\n      dup4\n        /* \"#utility.yul\":6287:6305   */\n      add\n        /* \"#utility.yul\":6280:6328   */\n      mstore\n        /* \"#utility.yul\":6345:6423   */\n      tag_225\n        /* \"#utility.yul\":6418:6422   */\n      dup2\n        /* \"#utility.yul\":6409:6415   */\n      dup5\n        /* \"#utility.yul\":6345:6423   */\n      tag_198\n      jump\t// in\n    tag_225:\n        /* \"#utility.yul\":6337:6423   */\n      swap1\n      pop\n        /* \"#utility.yul\":6007:6430   */\n      swap4\n      swap3\n      pop\n      pop\n      pop\n      jump\t// out\n        /* \"#utility.yul\":6517:6649   */\n    tag_181:\n        /* \"#utility.yul\":6584:6588   */\n      0x00\n        /* \"#utility.yul\":6607:6610   */\n      dup2\n        /* \"#utility.yul\":6599:6610   */\n      swap1\n      pop\n        /* \"#utility.yul\":6637:6641   */\n      0x20\n        /* \"#utility.yul\":6632:6635   */\n      dup3\n        /* \"#utility.yul\":6628:6642   */\n      add\n        /* \"#utility.yul\":6620:6642   */\n      swap1\n      pop\n        /* \"#utility.yul\":6517:6649   */\n      swap2\n      swap1\n      pop\n      jump\t// out\n        /* \"#utility.yul\":6655:6769   */\n    tag_177:\n        /* \"#utility.yul\":6722:6728   */\n      0x00\n        /* \"#utility.yul\":6756:6761   */\n      dup2\n        /* \"#utility.yul\":6750:6762   */\n      mload\n        /* \"#utility.yul\":6740:6762   */\n      swap1\n      pop\n        /* \"#utility.yul\":6655:6769   */\n      swap2\n      swap1\n      pop\n      jump\t// out\n        /* \"#utility.yul\":6775:6874   */\n    tag_191:\n        /* \"#utility.yul\":6827:6833   */\n      0x00\n        /* \"#utility.yul\":6861:6866   */\n      dup2\n        /* \"#utility.yul\":6855:6867   */\n      mload\n        /* \"#utility.yul\":6845:6867   */\n      swap1\n      pop\n        /* \"#utility.yul\":6775:6874   */\n      swap2\n      swap1\n      pop\n      jump\t// out\n        /* \"#utility.yul\":6880:6993   */\n    tag_187:\n        /* \"#utility.yul\":6950:6954   */\n      0x00\n        /* \"#utility.yul\":6982:6986   */\n      0x20\n        /* \"#utility.yul\":6977:6980   */\n      dup3\n        /* \"#utility.yul\":6973:6987   */\n      add\n        /* \"#utility.yul\":6965:6987   */\n      swap1\n      pop\n        /* \"#utility.yul\":6880:6993   */\n      swap2\n      swap1\n      pop\n      jump\t// out\n        /* \"#utility.yul\":6999:7183   */\n    tag_179:\n        /* \"#utility.yul\":7098:7109   */\n      0x00\n        /* \"#utility.yul\":7132:7138   */\n      dup3\n        /* \"#utility.yul\":7127:7130   */\n      dup3\n        /* \"#utility.yul\":7120:7139   */\n      mstore\n        /* \"#utility.yul\":7172:7176   */\n      0x20\n        /* \"#utility.yul\":7167:7170   */\n      dup3\n        /* \"#utility.yul\":7163:7177   */\n      add\n        /* \"#utility.yul\":7148:7177   */\n      swap1\n      pop\n        /* \"#utility.yul\":6999:7183   */\n      swap3\n      swap2\n      pop\n      pop\n      jump\t// out\n        /* \"#utility.yul\":7189:7348   */\n    tag_193:\n        /* \"#utility.yul\":7263:7274   */\n      0x00\n        /* \"#utility.yul\":7297:7303   */\n      dup3\n        /* \"#utility.yul\":7292:7295   */\n      dup3\n        /* \"#utility.yul\":7285:7304   */\n      mstore\n        /* \"#utility.yul\":7337:7341   */\n      0x20\n        /* \"#utility.yul\":7332:7335   */\n      dup3\n        /* \"#utility.yul\":7328:7342   */\n      add\n        /* \"#utility.yul\":7313:7342   */\n      swap1\n      pop\n        /* \"#utility.yul\":7189:7348   */\n      swap3\n      swap2\n      pop\n      pop\n      jump\t// out\n        /* \"#utility.yul\":7354:7523   */\n    tag_202:\n        /* \"#utility.yul\":7438:7449   */\n      0x00\n        /* \"#utility.yul\":7472:7478   */\n      dup3\n        /* \"#utility.yul\":7467:7470   */\n      dup3\n        /* \"#utility.yul\":7460:7479   */\n      mstore\n        /* \"#utility.yul\":7512:7516   */\n      0x20\n        /* \"#utility.yul\":7507:7510   */\n      dup3\n        /* \"#utility.yul\":7503:7517   */\n      add\n        /* \"#utility.yul\":7488:7517   */\n      swap1\n      pop\n        /* \"#utility.yul\":7354:7523   */\n      swap3\n      swap2\n      pop\n      pop\n      jump\t// out\n        /* \"#utility.yul\":7529:7625   */\n    tag_235:\n        /* \"#utility.yul\":7566:7573   */\n      0x00\n        /* \"#utility.yul\":7595:7619   */\n      tag_237\n        /* \"#utility.yul\":7613:7618   */\n      dup3\n        /* \"#utility.yul\":7595:7619   */\n      tag_238\n      jump\t// in\n    tag_237:\n        /* \"#utility.yul\":7584:7619   */\n      swap1\n      pop\n        /* \"#utility.yul\":7529:7625   */\n      swap2\n      swap1\n      pop\n      jump\t// out\n        /* \"#utility.yul\":7631:7757   */\n    tag_238:\n        /* \"#utility.yul\":7668:7675   */\n      0x00\n        /* \"#utility.yul\":7708:7750   */\n      0xffffffffffffffffffffffffffffffffffffffff\n        /* \"#utility.yul\":7701:7706   */\n      dup3\n        /* \"#utility.yul\":7697:7751   */\n      and\n        /* \"#utility.yul\":7686:7751   */\n      swap1\n      pop\n        /* \"#utility.yul\":7631:7757   */\n      swap2\n      swap1\n      pop\n      jump\t// out\n        /* \"#utility.yul\":7763:7840   */\n    tag_211:\n        /* \"#utility.yul\":7800:7807   */\n      0x00\n        /* \"#utility.yul\":7829:7834   */\n      dup2\n        /* \"#utility.yul\":7818:7834   */\n      swap1\n      pop\n        /* \"#utility.yul\":7763:7840   */\n      swap2\n      swap1\n      pop\n      jump\t// out\n        /* \"#utility.yul\":7846:8153   */\n    tag_195:\n        /* \"#utility.yul\":7914:7915   */\n      0x00\n        /* \"#utility.yul\":7924:8037   */\n    tag_242:\n        /* \"#utility.yul\":7938:7944   */\n      dup4\n        /* \"#utility.yul\":7935:7936   */\n      dup2\n        /* \"#utility.yul\":7932:7945   */\n      lt\n        /* \"#utility.yul\":7924:8037   */\n      iszero\n      tag_244\n      jumpi\n        /* \"#utility.yul\":8023:8024   */\n      dup1\n        /* \"#utility.yul\":8018:8021   */\n      dup3\n        /* \"#utility.yul\":8014:8025   */\n      add\n        /* \"#utility.yul\":8008:8026   */\n      mload\n        /* \"#utility.yul\":8004:8005   */\n      dup2\n        /* \"#utility.yul\":7999:8002   */\n      dup5\n        /* \"#utility.yul\":7995:8006   */\n      add\n        /* \"#utility.yul\":7988:8027   */\n      mstore\n        /* \"#utility.yul\":7960:7962   */\n      0x20\n        /* \"#utility.yul\":7957:7958   */\n      dup2\n        /* \"#utility.yul\":7953:7963   */\n      add\n        /* \"#utility.yul\":7948:7963   */\n      swap1\n      pop\n        /* \"#utility.yul\":7924:8037   */\n      jump(tag_242)\n    tag_244:\n        /* \"#utility.yul\":8055:8061   */\n      dup4\n        /* \"#utility.yul\":8052:8053   */\n      dup2\n        /* \"#utility.yul\":8049:8062   */\n      gt\n        /* \"#utility.yul\":8046:8147   */\n      iszero\n      tag_245\n      jumpi\n        /* \"#utility.yul\":8135:8136   */\n      0x00\n        /* \"#utility.yul\":8126:8132   */\n      dup5\n        /* \"#utility.yul\":8121:8124   */\n      dup5\n        /* \"#utility.yul\":8117:8133   */\n      add\n        /* \"#utility.yul\":8110:8137   */\n      mstore\n        /* \"#utility.yul\":8046:8147   */\n    tag_245:\n        /* \"#utility.yul\":7895:8153   */\n      pop\n        /* \"#utility.yul\":7846:8153   */\n      pop\n      pop\n      pop\n      jump\t// out\n        /* \"#utility.yul\":8159:8479   */\n    tag_51:\n        /* \"#utility.yul\":8203:8209   */\n      0x00\n        /* \"#utility.yul\":8240:8241   */\n      0x02\n        /* \"#utility.yul\":8234:8238   */\n      dup3\n        /* \"#utility.yul\":8230:8242   */\n      div\n        /* \"#utility.yul\":8220:8242   */\n      swap1\n      pop\n        /* \"#utility.yul\":8287:8288   */\n      0x01\n        /* \"#utility.yul\":8281:8285   */\n      dup3\n        /* \"#utility.yul\":8277:8289   */\n      and\n        /* \"#utility.yul\":8308:8326   */\n      dup1\n        /* \"#utility.yul\":8298:8379   */\n      tag_247\n      jumpi\n        /* \"#utility.yul\":8364:8368   */\n      0x7f\n        /* \"#utility.yul\":8356:8362   */\n      dup3\n        /* \"#utility.yul\":8352:8369   */\n      and\n        /* \"#utility.yul\":8342:8369   */\n      swap2\n      pop\n        /* \"#utility.yul\":8298:8379   */\n    tag_247:\n        /* \"#utility.yul\":8426:8428   */\n      0x20\n        /* \"#utility.yul\":8418:8424   */\n      dup3\n        /* \"#utility.yul\":8415:8429   */\n      lt\n        /* \"#utility.yul\":8395:8413   */\n      dup2\n        /* \"#utility.yul\":8392:8430   */\n      eq\n        /* \"#utility.yul\":8389:8473   */\n      iszero\n      tag_248\n      jumpi\n        /* \"#utility.yul\":8445:8463   */\n      tag_249\n      tag_250\n      jump\t// in\n    tag_249:\n        /* \"#utility.yul\":8389:8473   */\n    tag_248:\n        /* \"#utility.yul\":8210:8479   */\n      pop\n        /* \"#utility.yul\":8159:8479   */\n      swap2\n      swap1\n      pop\n      jump\t// out\n        /* \"#utility.yul\":8485:8665   */\n    tag_250:\n        /* \"#utility.yul\":8533:8610   */\n      0x4e487b7100000000000000000000000000000000000000000000000000000000\n        /* \"#utility.yul\":8530:8531   */\n      0x00\n        /* \"#utility.yul\":8523:8611   */\n      mstore\n        /* \"#utility.yul\":8630:8634   */\n      0x22\n        /* \"#utility.yul\":8627:8628   */\n      0x04\n        /* \"#utility.yul\":8620:8635   */\n      mstore\n        /* \"#utility.yul\":8654:8658   */\n      0x24\n        /* \"#utility.yul\":8651:8652   */\n      0x00\n        /* \"#utility.yul\":8644:8659   */\n      revert\n        /* \"#utility.yul\":8671:8851   */\n    tag_94:\n        /* \"#utility.yul\":8719:8796   */\n      0x4e487b7100000000000000000000000000000000000000000000000000000000\n        /* \"#utility.yul\":8716:8717   */\n      0x00\n        /* \"#utility.yul\":8709:8797   */\n      mstore\n        /* \"#utility.yul\":8816:8820   */\n      0x32\n        /* \"#utility.yul\":8813:8814   */\n      0x04\n        /* \"#utility.yul\":8806:8821   */\n      mstore\n        /* \"#utility.yul\":8840:8844   */\n      0x24\n        /* \"#utility.yul\":8837:8838   */\n      0x00\n        /* \"#utility.yul\":8830:8845   */\n      revert\n        /* \"#utility.yul\":8857:9037   */\n    tag_90:\n        /* \"#utility.yul\":8905:8982   */\n      0x4e487b7100000000000000000000000000000000000000000000000000000000\n        /* \"#utility.yul\":8902:8903   */\n      0x00\n        /* \"#utility.yul\":8895:8983   */\n      mstore\n        /* \"#utility.yul\":9002:9006   */\n      0x41\n        /* \"#utility.yul\":8999:9000   */\n      0x04\n        /* \"#utility.yul\":8992:9007   */\n      mstore\n        /* \"#utility.yul\":9026:9030   */\n      0x24\n        /* \"#utility.yul\":9023:9024   */\n      0x00\n        /* \"#utility.yul\":9016:9031   */\n      revert\n        /* \"#utility.yul\":9043:9160   */\n    tag_146:\n        /* \"#utility.yul\":9152:9153   */\n      0x00\n        /* \"#utility.yul\":9149:9150   */\n      dup1\n        /* \"#utility.yul\":9142:9154   */\n      revert\n        /* \"#utility.yul\":9166:9283   */\n    tag_143:\n        /* \"#utility.yul\":9275:9276   */\n      0x00\n        /* \"#utility.yul\":9272:9273   */\n      dup1\n        /* \"#utility.yul\":9265:9277   */\n      revert\n        /* \"#utility.yul\":9289:9406   */\n    tag_149:\n        /* \"#utility.yul\":9398:9399   */\n      0x00\n        /* \"#utility.yul\":9395:9396   */\n      dup1\n        /* \"#utility.yul\":9388:9400   */\n      revert\n        /* \"#utility.yul\":9412:9529   */\n    tag_164:\n        /* \"#utility.yul\":9521:9522   */\n      0x00\n        /* \"#utility.yul\":9518:9519   */\n      dup1\n        /* \"#utility.yul\":9511:9523   */\n      revert\n        /* \"#utility.yul\":9535:9652   */\n    tag_157:\n        /* \"#utility.yul\":9644:9645   */\n      0x00\n        /* \"#utility.yul\":9641:9642   */\n      dup1\n        /* \"#utility.yul\":9634:9646   */\n      revert\n        /* \"#utility.yul\":9658:9760   */\n    tag_197:\n        /* \"#utility.yul\":9699:9705   */\n      0x00\n        /* \"#utility.yul\":9750:9752   */\n      0x1f\n        /* \"#utility.yul\":9746:9753   */\n      not\n        /* \"#utility.yul\":9741:9743   */\n      0x1f\n        /* \"#utility.yul\":9734:9739   */\n      dup4\n        /* \"#utility.yul\":9730:9744   */\n      add\n        /* \"#utility.yul\":9726:9754   */\n      and\n        /* \"#utility.yul\":9716:9754   */\n      swap1\n      pop\n        /* \"#utility.yul\":9658:9760   */\n      swap2\n      swap1\n      pop\n      jump\t// out\n        /* \"#utility.yul\":9766:9888   */\n    tag_138:\n        /* \"#utility.yul\":9839:9863   */\n      tag_261\n        /* \"#utility.yul\":9857:9862   */\n      dup2\n        /* \"#utility.yul\":9839:9863   */\n      tag_235\n      jump\t// in\n    tag_261:\n        /* \"#utility.yul\":9832:9837   */\n      dup2\n        /* \"#utility.yul\":9829:9864   */\n      eq\n        /* \"#utility.yul\":9819:9882   */\n      tag_262\n      jumpi\n        /* \"#utility.yul\":9878:9879   */\n      0x00\n        /* \"#utility.yul\":9875:9876   */\n      dup1\n        /* \"#utility.yul\":9868:9880   */\n      revert\n        /* \"#utility.yul\":9819:9882   */\n    tag_262:\n        /* \"#utility.yul\":9766:9888   */\n      pop\n      jump\t// out\n        /* \"#utility.yul\":9894:10016   */\n    tag_153:\n        /* \"#utility.yul\":9967:9991   */\n      tag_264\n        /* \"#utility.yul\":9985:9990   */\n      dup2\n        /* \"#utility.yul\":9967:9991   */\n      tag_211\n      jump\t// in\n    tag_264:\n        /* \"#utility.yul\":9960:9965   */\n      dup2\n        /* \"#utility.yul\":9957:9992   */\n      eq\n        /* \"#utility.yul\":9947:10010   */\n      tag_265\n      jumpi\n        /* \"#utility.yul\":10006:10007   */\n      0x00\n        /* \"#utility.yul\":10003:10004   */\n      dup1\n        /* \"#utility.yul\":9996:10008   */\n      revert\n        /* \"#utility.yul\":9947:10010   */\n    tag_265:\n        /* \"#utility.yul\":9894:10016   */\n      pop\n      jump\t// out\n\n    auxdata: 0xa26469706673582212206e0a46fa0672ef3c35a657415da77a9105e6968af49d7b3b2fda7b05a163f5b664736f6c63430008070033\n}\n",
				"bytecode": {
					"linkReferences": {},
					"object": "608060405234801561001057600080fd5b5061129a806100206000396000f3fe608060405234801561001057600080fd5b50600436106100885760003560e01c806364be9d3f1161005b57806364be9d3f1461012957806389f71d5314610159578063e03cc3d314610177578063fe9c1fc91461019557610088565b80630e0e031c1461008d578063335d00c2146100ab578063505b30e4146100c95780635db8083e146100f9575b600080fd5b6100956101b4565b6040516100a2919061100b565b60405180910390f35b6100b36102ad565b6040516100c0919061100b565b60405180910390f35b6100e360048036038101906100de9190610e57565b610571565b6040516100f0919061102d565b60405180910390f35b610113600480360381019061010e9190610ddd565b610595565b604051610120919061100b565b60405180910390f35b610143600480360381019061013e9190610e0a565b61068f565b6040516101509190610fc7565b60405180910390f35b610161610a08565b60405161016e9190610fe9565b60405180910390f35b61017f610a96565b60405161018c919061100b565b60405180910390f35b61019d610b8f565b6040516101ab929190611048565b60405180910390f35b6101bc610c53565b6000806000600273ffffffffffffffffffffffffffffffffffffffff1673ffffffffffffffffffffffffffffffffffffffff168152602001908152602001600020604051806040016040529081600082015481526020016001820180546102229061114d565b80601f016020809104026020016040519081016040528092919081815260200182805461024e9061114d565b801561029b5780601f106102705761010080835404028352916020019161029b565b820191906000526020600020905b81548152906001019060200180831161027e57829003601f168201915b50505050508152505090508091505090565b6102b5610c53565b6040518060400160405280607b81526020016040518060400160405280600381526020017f7069670000000000000000000000000000000000000000000000000000000000815250815250600080600173ffffffffffffffffffffffffffffffffffffffff1673ffffffffffffffffffffffffffffffffffffffff168152602001908152602001600020600082015181600001556020820151816001019080519060200190610365929190610c6d565b509050506040518060400160405280600f81526020017f6578616d706c65732063616c6c65640000000000000000000000000000000000815250600490805190602001906103b4929190610c6d565b506000806000600173ffffffffffffffffffffffffffffffffffffffff1673ffffffffffffffffffffffffffffffffffffffff16815260200190815260200160002090506040518060400160405280600781526020017f636869636b656e00000000000000000000000000000000000000000000000000815250816001019080519060200190610445929190610c6d565b506000806000600173ffffffffffffffffffffffffffffffffffffffff1673ffffffffffffffffffffffffffffffffffffffff168152602001908152602001600020604051806040016040529081600082015481526020016001820180546104ac9061114d565b80601f01602080910402602001604051908101604052809291908181526020018280546104d89061114d565b80156105255780601f106104fa57610100808354040283529160200191610525565b820191906000526020600020905b81548152906001019060200180831161050857829003601f168201915b50505050508152505090506101c8816000018181525050806001600082015181600001556020820151816001019080519060200190610565929190610c6d565b50905050809250505090565b6003818154811061058157600080fd5b906000526020600020016000915090505481565b61059d610c53565b60008060008473ffffffffffffffffffffffffffffffffffffffff1673ffffffffffffffffffffffffffffffffffffffff168152602001908152602001600020604051806040016040529081600082015481526020016001820180546106029061114d565b80601f016020809104026020016040519081016040528092919081815260200182805461062e9061114d565b801561067b5780601f106106505761010080835404028352916020019161067b565b820191906000526020600020905b81548152906001019060200180831161065e57829003601f168201915b505050505081525050905080915050919050565b6060604051806040016040528061031581526020016040518060400160405280600381526020017f646f670000000000000000000000000000000000000000000000000000000000815250815250600080600273ffffffffffffffffffffffffffffffffffffffff1673ffffffffffffffffffffffffffffffffffffffff168152602001908152602001600020600082015181600001556020820151816001019080519060200190610742929190610c6d565b509050506040518060400160405280601081526020017f6578616d706c6573322063616c6c65640000000000000000000000000000000081525060049080519060200190610791929190610c6d565b506000806000600273ffffffffffffffffffffffffffffffffffffffff1673ffffffffffffffffffffffffffffffffffffffff16815260200190815260200160002090506040518060400160405280600581526020017f7368656570000000000000000000000000000000000000000000000000000000815250816001019080519060200190610822929190610c6d565b506000806000600273ffffffffffffffffffffffffffffffffffffffff1673ffffffffffffffffffffffffffffffffffffffff168152602001908152602001600020604051806040016040529081600082015481526020016001820180546108899061114d565b80601f01602080910402602001604051908101604052809291908181526020018280546108b59061114d565b80156109025780601f106108d757610100808354040283529160200191610902565b820191906000526020600020905b8154815290600101906020018083116108e557829003601f168201915b50505050508152505090506103e48160000181815250506109238585610c29565b506000600367ffffffffffffffff811115610941576109406111dd565b5b60405190808252806020026020018201604052801561096f5781602001602082028036833780820191505090505b50905061023781600081518110610989576109886111ae565b5b602002602001018181525050610315816001815181106109ac576109ab6111ae565b5b60200260200101818152505080600390805190602001906109ce929190610cf3565b508160016000820151816000015560208201518160010190805190602001906109f8929190610c6d565b5090505080935050505092915050565b60048054610a159061114d565b80601f0160208091040260200160405190810160405280929190818152602001828054610a419061114d565b8015610a8e5780601f10610a6357610100808354040283529160200191610a8e565b820191906000526020600020905b815481529060010190602001808311610a7157829003601f168201915b505050505081565b610a9e610c53565b6000806000600173ffffffffffffffffffffffffffffffffffffffff1673ffffffffffffffffffffffffffffffffffffffff16815260200190815260200160002060405180604001604052908160008201548152602001600182018054610b049061114d565b80601f0160208091040260200160405190810160405280929190818152602001828054610b309061114d565b8015610b7d5780601f10610b5257610100808354040283529160200191610b7d565b820191906000526020600020905b815481529060010190602001808311610b6057829003601f168201915b50505050508152505090508091505090565b6001806000015490806001018054610ba69061114d565b80601f0160208091040260200160405190810160405280929190818152602001828054610bd29061114d565b8015610c1f5780601f10610bf457610100808354040283529160200191610c1f565b820191906000526020600020905b815481529060010190602001808311610c0257829003601f168201915b5050505050905082565b60008083836000818110610c4057610c3f6111ae565b5b9050602002013590508091505092915050565b604051806040016040528060008152602001606081525090565b828054610c799061114d565b90600052602060002090601f016020900481019282610c9b5760008555610ce2565b82601f10610cb457805160ff1916838001178555610ce2565b82800160010185558215610ce2579182015b82811115610ce1578251825591602001919060010190610cc6565b5b509050610cef9190610d40565b5090565b828054828255906000526020600020908101928215610d2f579160200282015b82811115610d2e578251825591602001919060010190610d13565b5b509050610d3c9190610d40565b5090565b5b80821115610d59576000816000905550600101610d41565b5090565b600081359050610d6c81611236565b92915050565b60008083601f840112610d8857610d87611211565b5b8235905067ffffffffffffffff811115610da557610da461120c565b5b602083019150836020820283011115610dc157610dc0611216565b5b9250929050565b600081359050610dd78161124d565b92915050565b600060208284031215610df357610df2611220565b5b6000610e0184828501610d5d565b91505092915050565b60008060208385031215610e2157610e20611220565b5b600083013567ffffffffffffffff811115610e3f57610e3e61121b565b5b610e4b85828601610d72565b92509250509250929050565b600060208284031215610e6d57610e6c611220565b5b6000610e7b84828501610dc8565b91505092915050565b6000610e908383610fa9565b60208301905092915050565b6000610ea782611088565b610eb181856110ab565b9350610ebc83611078565b8060005b83811015610eed578151610ed48882610e84565b9750610edf8361109e565b925050600181019050610ec0565b5085935050505092915050565b6000610f0582611093565b610f0f81856110bc565b9350610f1f81856020860161111a565b610f2881611225565b840191505092915050565b6000610f3e82611093565b610f4881856110cd565b9350610f5881856020860161111a565b610f6181611225565b840191505092915050565b6000604083016000830151610f846000860182610fa9565b5060208301518482036020860152610f9c8282610efa565b9150508091505092915050565b610fb281611110565b82525050565b610fc181611110565b82525050565b60006020820190508181036000830152610fe18184610e9c565b905092915050565b600060208201905081810360008301526110038184610f33565b905092915050565b600060208201905081810360008301526110258184610f6c565b905092915050565b60006020820190506110426000830184610fb8565b92915050565b600060408201905061105d6000830185610fb8565b818103602083015261106f8184610f33565b90509392505050565b6000819050602082019050919050565b600081519050919050565b600081519050919050565b6000602082019050919050565b600082825260208201905092915050565b600082825260208201905092915050565b600082825260208201905092915050565b60006110e9826110f0565b9050919050565b600073ffffffffffffffffffffffffffffffffffffffff82169050919050565b6000819050919050565b60005b8381101561113857808201518184015260208101905061111d565b83811115611147576000848401525b50505050565b6000600282049050600182168061116557607f821691505b602082108114156111795761117861117f565b5b50919050565b7f4e487b7100000000000000000000000000000000000000000000000000000000600052602260045260246000fd5b7f4e487b7100000000000000000000000000000000000000000000000000000000600052603260045260246000fd5b7f4e487b7100000000000000000000000000000000000000000000000000000000600052604160045260246000fd5b600080fd5b600080fd5b600080fd5b600080fd5b600080fd5b6000601f19601f8301169050919050565b61123f816110de565b811461124a57600080fd5b50565b61125681611110565b811461126157600080fd5b5056fea26469706673582212206e0a46fa0672ef3c35a657415da77a9105e6968af49d7b3b2fda7b05a163f5b664736f6c63430008070033",
					"opcodes": "PUSH1 0x80 PUSH1 0x40 MSTORE CALLVALUE DUP1 ISZERO PUSH2 0x10 JUMPI PUSH1 0x0 DUP1 REVERT JUMPDEST POP PUSH2 0x129A DUP1 PUSH2 0x20 PUSH1 0x0 CODECOPY PUSH1 0x0 RETURN INVALID PUSH1 0x80 PUSH1 0x40 MSTORE CALLVALUE DUP1 ISZERO PUSH2 0x10 JUMPI PUSH1 0x0 DUP1 REVERT JUMPDEST POP PUSH1 0x4 CALLDATASIZE LT PUSH2 0x88 JUMPI PUSH1 0x0 CALLDATALOAD PUSH1 0xE0 SHR DUP1 PUSH4 0x64BE9D3F GT PUSH2 0x5B JUMPI DUP1 PUSH4 0x64BE9D3F EQ PUSH2 0x129 JUMPI DUP1 PUSH4 0x89F71D53 EQ PUSH2 0x159 JUMPI DUP1 PUSH4 0xE03CC3D3 EQ PUSH2 0x177 JUMPI DUP1 PUSH4 0xFE9C1FC9 EQ PUSH2 0x195 JUMPI PUSH2 0x88 JUMP JUMPDEST DUP1 PUSH4 0xE0E031C EQ PUSH2 0x8D JUMPI DUP1 PUSH4 0x335D00C2 EQ PUSH2 0xAB JUMPI DUP1 PUSH4 0x505B30E4 EQ PUSH2 0xC9 JUMPI DUP1 PUSH4 0x5DB8083E EQ PUSH2 0xF9 JUMPI JUMPDEST PUSH1 0x0 DUP1 REVERT JUMPDEST PUSH2 0x95 PUSH2 0x1B4 JUMP JUMPDEST PUSH1 0x40 MLOAD PUSH2 0xA2 SWAP2 SWAP1 PUSH2 0x100B JUMP JUMPDEST PUSH1 0x40 MLOAD DUP1 SWAP2 SUB SWAP1 RETURN JUMPDEST PUSH2 0xB3 PUSH2 0x2AD JUMP JUMPDEST PUSH1 0x40 MLOAD PUSH2 0xC0 SWAP2 SWAP1 PUSH2 0x100B JUMP JUMPDEST PUSH1 0x40 MLOAD DUP1 SWAP2 SUB SWAP1 RETURN JUMPDEST PUSH2 0xE3 PUSH1 0x4 DUP1 CALLDATASIZE SUB DUP2 ADD SWAP1 PUSH2 0xDE SWAP2 SWAP1 PUSH2 0xE57 JUMP JUMPDEST PUSH2 0x571 JUMP JUMPDEST PUSH1 0x40 MLOAD PUSH2 0xF0 SWAP2 SWAP1 PUSH2 0x102D JUMP JUMPDEST PUSH1 0x40 MLOAD DUP1 SWAP2 SUB SWAP1 RETURN JUMPDEST PUSH2 0x113 PUSH1 0x4 DUP1 CALLDATASIZE SUB DUP2 ADD SWAP1 PUSH2 0x10E SWAP2 SWAP1 PUSH2 0xDDD JUMP JUMPDEST PUSH2 0x595 JUMP JUMPDEST PUSH1 0x40 MLOAD PUSH2 0x120 SWAP2 SWAP1 PUSH2 0x100B JUMP JUMPDEST PUSH1 0x40 MLOAD DUP1 SWAP2 SUB SWAP1 RETURN JUMPDEST PUSH2 0x143 PUSH1 0x4 DUP1 CALLDATASIZE SUB DUP2 ADD SWAP1 PUSH2 0x13E SWAP2 SWAP1 PUSH2 0xE0A JUMP JUMPDEST PUSH2 0x68F JUMP JUMPDEST PUSH1 0x40 MLOAD PUSH2 0x150 SWAP2 SWAP1 PUSH2 0xFC7 JUMP JUMPDEST PUSH1 0x40 MLOAD DUP1 SWAP2 SUB SWAP1 RETURN JUMPDEST PUSH2 0x161 PUSH2 0xA08 JUMP JUMPDEST PUSH1 0x40 MLOAD PUSH2 0x16E SWAP2 SWAP1 PUSH2 0xFE9 JUMP JUMPDEST PUSH1 0x40 MLOAD DUP1 SWAP2 SUB SWAP1 RETURN JUMPDEST PUSH2 0x17F PUSH2 0xA96 JUMP JUMPDEST PUSH1 0x40 MLOAD PUSH2 0x18C SWAP2 SWAP1 PUSH2 0x100B JUMP JUMPDEST PUSH1 0x40 MLOAD DUP1 SWAP2 SUB SWAP1 RETURN JUMPDEST PUSH2 0x19D PUSH2 0xB8F JUMP JUMPDEST PUSH1 0x40 MLOAD PUSH2 0x1AB SWAP3 SWAP2 SWAP1 PUSH2 0x1048 JUMP JUMPDEST PUSH1 0x40 MLOAD DUP1 SWAP2 SUB SWAP1 RETURN JUMPDEST PUSH2 0x1BC PUSH2 0xC53 JUMP JUMPDEST PUSH1 0x0 DUP1 PUSH1 0x0 PUSH1 0x2 PUSH20 0xFFFFFFFFFFFFFFFFFFFFFFFFFFFFFFFFFFFFFFFF AND PUSH20 0xFFFFFFFFFFFFFFFFFFFFFFFFFFFFFFFFFFFFFFFF AND DUP2 MSTORE PUSH1 0x20 ADD SWAP1 DUP2 MSTORE PUSH1 0x20 ADD PUSH1 0x0 KECCAK256 PUSH1 0x40 MLOAD DUP1 PUSH1 0x40 ADD PUSH1 0x40 MSTORE SWAP1 DUP2 PUSH1 0x0 DUP3 ADD SLOAD DUP2 MSTORE PUSH1 0x20 ADD PUSH1 0x1 DUP3 ADD DUP1 SLOAD PUSH2 0x222 SWAP1 PUSH2 0x114D JUMP JUMPDEST DUP1 PUSH1 0x1F ADD PUSH1 0x20 DUP1 SWAP2 DIV MUL PUSH1 0x20 ADD PUSH1 0x40 MLOAD SWAP1 DUP2 ADD PUSH1 0x40 MSTORE DUP1 SWAP3 SWAP2 SWAP1 DUP2 DUP2 MSTORE PUSH1 0x20 ADD DUP3 DUP1 SLOAD PUSH2 0x24E SWAP1 PUSH2 0x114D JUMP JUMPDEST DUP1 ISZERO PUSH2 0x29B JUMPI DUP1 PUSH1 0x1F LT PUSH2 0x270 JUMPI PUSH2 0x100 DUP1 DUP4 SLOAD DIV MUL DUP4 MSTORE SWAP2 PUSH1 0x20 ADD SWAP2 PUSH2 0x29B JUMP JUMPDEST DUP3 ADD SWAP2 SWAP1 PUSH1 0x0 MSTORE PUSH1 0x20 PUSH1 0x0 KECCAK256 SWAP1 JUMPDEST DUP2 SLOAD DUP2 MSTORE SWAP1 PUSH1 0x1 ADD SWAP1 PUSH1 0x20 ADD DUP1 DUP4 GT PUSH2 0x27E JUMPI DUP3 SWAP1 SUB PUSH1 0x1F AND DUP3 ADD SWAP2 JUMPDEST POP POP POP POP POP DUP2 MSTORE POP POP SWAP1 POP DUP1 SWAP2 POP POP SWAP1 JUMP JUMPDEST PUSH2 0x2B5 PUSH2 0xC53 JUMP JUMPDEST PUSH1 0x40 MLOAD DUP1 PUSH1 0x40 ADD PUSH1 0x40 MSTORE DUP1 PUSH1 0x7B DUP2 MSTORE PUSH1 0x20 ADD PUSH1 0x40 MLOAD DUP1 PUSH1 0x40 ADD PUSH1 0x40 MSTORE DUP1 PUSH1 0x3 DUP2 MSTORE PUSH1 0x20 ADD PUSH32 0x7069670000000000000000000000000000000000000000000000000000000000 DUP2 MSTORE POP DUP2 MSTORE POP PUSH1 0x0 DUP1 PUSH1 0x1 PUSH20 0xFFFFFFFFFFFFFFFFFFFFFFFFFFFFFFFFFFFFFFFF AND PUSH20 0xFFFFFFFFFFFFFFFFFFFFFFFFFFFFFFFFFFFFFFFF AND DUP2 MSTORE PUSH1 0x20 ADD SWAP1 DUP2 MSTORE PUSH1 0x20 ADD PUSH1 0x0 KECCAK256 PUSH1 0x0 DUP3 ADD MLOAD DUP2 PUSH1 0x0 ADD SSTORE PUSH1 0x20 DUP3 ADD MLOAD DUP2 PUSH1 0x1 ADD SWAP1 DUP1 MLOAD SWAP1 PUSH1 0x20 ADD SWAP1 PUSH2 0x365 SWAP3 SWAP2 SWAP1 PUSH2 0xC6D JUMP JUMPDEST POP SWAP1 POP POP PUSH1 0x40 MLOAD DUP1 PUSH1 0x40 ADD PUSH1 0x40 MSTORE DUP1 PUSH1 0xF DUP2 MSTORE PUSH1 0x20 ADD PUSH32 0x6578616D706C65732063616C6C65640000000000000000000000000000000000 DUP2 MSTORE POP PUSH1 0x4 SWAP1 DUP1 MLOAD SWAP1 PUSH1 0x20 ADD SWAP1 PUSH2 0x3B4 SWAP3 SWAP2 SWAP1 PUSH2 0xC6D JUMP JUMPDEST POP PUSH1 0x0 DUP1 PUSH1 0x0 PUSH1 0x1 PUSH20 0xFFFFFFFFFFFFFFFFFFFFFFFFFFFFFFFFFFFFFFFF AND PUSH20 0xFFFFFFFFFFFFFFFFFFFFFFFFFFFFFFFFFFFFFFFF AND DUP2 MSTORE PUSH1 0x20 ADD SWAP1 DUP2 MSTORE PUSH1 0x20 ADD PUSH1 0x0 KECCAK256 SWAP1 POP PUSH1 0x40 MLOAD DUP1 PUSH1 0x40 ADD PUSH1 0x40 MSTORE DUP1 PUSH1 0x7 DUP2 MSTORE PUSH1 0x20 ADD PUSH32 0x636869636B656E00000000000000000000000000000000000000000000000000 DUP2 MSTORE POP DUP2 PUSH1 0x1 ADD SWAP1 DUP1 MLOAD SWAP1 PUSH1 0x20 ADD SWAP1 PUSH2 0x445 SWAP3 SWAP2 SWAP1 PUSH2 0xC6D JUMP JUMPDEST POP PUSH1 0x0 DUP1 PUSH1 0x0 PUSH1 0x1 PUSH20 0xFFFFFFFFFFFFFFFFFFFFFFFFFFFFFFFFFFFFFFFF AND PUSH20 0xFFFFFFFFFFFFFFFFFFFFFFFFFFFFFFFFFFFFFFFF AND DUP2 MSTORE PUSH1 0x20 ADD SWAP1 DUP2 MSTORE PUSH1 0x20 ADD PUSH1 0x0 KECCAK256 PUSH1 0x40 MLOAD DUP1 PUSH1 0x40 ADD PUSH1 0x40 MSTORE SWAP1 DUP2 PUSH1 0x0 DUP3 ADD SLOAD DUP2 MSTORE PUSH1 0x20 ADD PUSH1 0x1 DUP3 ADD DUP1 SLOAD PUSH2 0x4AC SWAP1 PUSH2 0x114D JUMP JUMPDEST DUP1 PUSH1 0x1F ADD PUSH1 0x20 DUP1 SWAP2 DIV MUL PUSH1 0x20 ADD PUSH1 0x40 MLOAD SWAP1 DUP2 ADD PUSH1 0x40 MSTORE DUP1 SWAP3 SWAP2 SWAP1 DUP2 DUP2 MSTORE PUSH1 0x20 ADD DUP3 DUP1 SLOAD PUSH2 0x4D8 SWAP1 PUSH2 0x114D JUMP JUMPDEST DUP1 ISZERO PUSH2 0x525 JUMPI DUP1 PUSH1 0x1F LT PUSH2 0x4FA JUMPI PUSH2 0x100 DUP1 DUP4 SLOAD DIV MUL DUP4 MSTORE SWAP2 PUSH1 0x20 ADD SWAP2 PUSH2 0x525 JUMP JUMPDEST DUP3 ADD SWAP2 SWAP1 PUSH1 0x0 MSTORE PUSH1 0x20 PUSH1 0x0 KECCAK256 SWAP1 JUMPDEST DUP2 SLOAD DUP2 MSTORE SWAP1 PUSH1 0x1 ADD SWAP1 PUSH1 0x20 ADD DUP1 DUP4 GT PUSH2 0x508 JUMPI DUP3 SWAP1 SUB PUSH1 0x1F AND DUP3 ADD SWAP2 JUMPDEST POP POP POP POP POP DUP2 MSTORE POP POP SWAP1 POP PUSH2 0x1C8 DUP2 PUSH1 0x0 ADD DUP2 DUP2 MSTORE POP POP DUP1 PUSH1 0x1 PUSH1 0x0 DUP3 ADD MLOAD DUP2 PUSH1 0x0 ADD SSTORE PUSH1 0x20 DUP3 ADD MLOAD DUP2 PUSH1 0x1 ADD SWAP1 DUP1 MLOAD SWAP1 PUSH1 0x20 ADD SWAP1 PUSH2 0x565 SWAP3 SWAP2 SWAP1 PUSH2 0xC6D JUMP JUMPDEST POP SWAP1 POP POP DUP1 SWAP3 POP POP POP SWAP1 JUMP JUMPDEST PUSH1 0x3 DUP2 DUP2 SLOAD DUP2 LT PUSH2 0x581 JUMPI PUSH1 0x0 DUP1 REVERT JUMPDEST SWAP1 PUSH1 0x0 MSTORE PUSH1 0x20 PUSH1 0x0 KECCAK256 ADD PUSH1 0x0 SWAP2 POP SWAP1 POP SLOAD DUP2 JUMP JUMPDEST PUSH2 0x59D PUSH2 0xC53 JUMP JUMPDEST PUSH1 0x0 DUP1 PUSH1 0x0 DUP5 PUSH20 0xFFFFFFFFFFFFFFFFFFFFFFFFFFFFFFFFFFFFFFFF AND PUSH20 0xFFFFFFFFFFFFFFFFFFFFFFFFFFFFFFFFFFFFFFFF AND DUP2 MSTORE PUSH1 0x20 ADD SWAP1 DUP2 MSTORE PUSH1 0x20 ADD PUSH1 0x0 KECCAK256 PUSH1 0x40 MLOAD DUP1 PUSH1 0x40 ADD PUSH1 0x40 MSTORE SWAP1 DUP2 PUSH1 0x0 DUP3 ADD SLOAD DUP2 MSTORE PUSH1 0x20 ADD PUSH1 0x1 DUP3 ADD DUP1 SLOAD PUSH2 0x602 SWAP1 PUSH2 0x114D JUMP JUMPDEST DUP1 PUSH1 0x1F ADD PUSH1 0x20 DUP1 SWAP2 DIV MUL PUSH1 0x20 ADD PUSH1 0x40 MLOAD SWAP1 DUP2 ADD PUSH1 0x40 MSTORE DUP1 SWAP3 SWAP2 SWAP1 DUP2 DUP2 MSTORE PUSH1 0x20 ADD DUP3 DUP1 SLOAD PUSH2 0x62E SWAP1 PUSH2 0x114D JUMP JUMPDEST DUP1 ISZERO PUSH2 0x67B JUMPI DUP1 PUSH1 0x1F LT PUSH2 0x650 JUMPI PUSH2 0x100 DUP1 DUP4 SLOAD DIV MUL DUP4 MSTORE SWAP2 PUSH1 0x20 ADD SWAP2 PUSH2 0x67B JUMP JUMPDEST DUP3 ADD SWAP2 SWAP1 PUSH1 0x0 MSTORE PUSH1 0x20 PUSH1 0x0 KECCAK256 SWAP1 JUMPDEST DUP2 SLOAD DUP2 MSTORE SWAP1 PUSH1 0x1 ADD SWAP1 PUSH1 0x20 ADD DUP1 DUP4 GT PUSH2 0x65E JUMPI DUP3 SWAP1 SUB PUSH1 0x1F AND DUP3 ADD SWAP2 JUMPDEST POP POP POP POP POP DUP2 MSTORE POP POP SWAP1 POP DUP1 SWAP2 POP POP SWAP2 SWAP1 POP JUMP JUMPDEST PUSH1 0x60 PUSH1 0x40 MLOAD DUP1 PUSH1 0x40 ADD PUSH1 0x40 MSTORE DUP1 PUSH2 0x315 DUP2 MSTORE PUSH1 0x20 ADD PUSH1 0x40 MLOAD DUP1 PUSH1 0x40 ADD PUSH1 0x40 MSTORE DUP1 PUSH1 0x3 DUP2 MSTORE PUSH1 0x20 ADD PUSH32 0x646F670000000000000000000000000000000000000000000000000000000000 DUP2 MSTORE POP DUP2 MSTORE POP PUSH1 0x0 DUP1 PUSH1 0x2 PUSH20 0xFFFFFFFFFFFFFFFFFFFFFFFFFFFFFFFFFFFFFFFF AND PUSH20 0xFFFFFFFFFFFFFFFFFFFFFFFFFFFFFFFFFFFFFFFF AND DUP2 MSTORE PUSH1 0x20 ADD SWAP1 DUP2 MSTORE PUSH1 0x20 ADD PUSH1 0x0 KECCAK256 PUSH1 0x0 DUP3 ADD MLOAD DUP2 PUSH1 0x0 ADD SSTORE PUSH1 0x20 DUP3 ADD MLOAD DUP2 PUSH1 0x1 ADD SWAP1 DUP1 MLOAD SWAP1 PUSH1 0x20 ADD SWAP1 PUSH2 0x742 SWAP3 SWAP2 SWAP1 PUSH2 0xC6D JUMP JUMPDEST POP SWAP1 POP POP PUSH1 0x40 MLOAD DUP1 PUSH1 0x40 ADD PUSH1 0x40 MSTORE DUP1 PUSH1 0x10 DUP2 MSTORE PUSH1 0x20 ADD PUSH32 0x6578616D706C6573322063616C6C656400000000000000000000000000000000 DUP2 MSTORE POP PUSH1 0x4 SWAP1 DUP1 MLOAD SWAP1 PUSH1 0x20 ADD SWAP1 PUSH2 0x791 SWAP3 SWAP2 SWAP1 PUSH2 0xC6D JUMP JUMPDEST POP PUSH1 0x0 DUP1 PUSH1 0x0 PUSH1 0x2 PUSH20 0xFFFFFFFFFFFFFFFFFFFFFFFFFFFFFFFFFFFFFFFF AND PUSH20 0xFFFFFFFFFFFFFFFFFFFFFFFFFFFFFFFFFFFFFFFF AND DUP2 MSTORE PUSH1 0x20 ADD SWAP1 DUP2 MSTORE PUSH1 0x20 ADD PUSH1 0x0 KECCAK256 SWAP1 POP PUSH1 0x40 MLOAD DUP1 PUSH1 0x40 ADD PUSH1 0x40 MSTORE DUP1 PUSH1 0x5 DUP2 MSTORE PUSH1 0x20 ADD PUSH32 0x7368656570000000000000000000000000000000000000000000000000000000 DUP2 MSTORE POP DUP2 PUSH1 0x1 ADD SWAP1 DUP1 MLOAD SWAP1 PUSH1 0x20 ADD SWAP1 PUSH2 0x822 SWAP3 SWAP2 SWAP1 PUSH2 0xC6D JUMP JUMPDEST POP PUSH1 0x0 DUP1 PUSH1 0x0 PUSH1 0x2 PUSH20 0xFFFFFFFFFFFFFFFFFFFFFFFFFFFFFFFFFFFFFFFF AND PUSH20 0xFFFFFFFFFFFFFFFFFFFFFFFFFFFFFFFFFFFFFFFF AND DUP2 MSTORE PUSH1 0x20 ADD SWAP1 DUP2 MSTORE PUSH1 0x20 ADD PUSH1 0x0 KECCAK256 PUSH1 0x40 MLOAD DUP1 PUSH1 0x40 ADD PUSH1 0x40 MSTORE SWAP1 DUP2 PUSH1 0x0 DUP3 ADD SLOAD DUP2 MSTORE PUSH1 0x20 ADD PUSH1 0x1 DUP3 ADD DUP1 SLOAD PUSH2 0x889 SWAP1 PUSH2 0x114D JUMP JUMPDEST DUP1 PUSH1 0x1F ADD PUSH1 0x20 DUP1 SWAP2 DIV MUL PUSH1 0x20 ADD PUSH1 0x40 MLOAD SWAP1 DUP2 ADD PUSH1 0x40 MSTORE DUP1 SWAP3 SWAP2 SWAP1 DUP2 DUP2 MSTORE PUSH1 0x20 ADD DUP3 DUP1 SLOAD PUSH2 0x8B5 SWAP1 PUSH2 0x114D JUMP JUMPDEST DUP1 ISZERO PUSH2 0x902 JUMPI DUP1 PUSH1 0x1F LT PUSH2 0x8D7 JUMPI PUSH2 0x100 DUP1 DUP4 SLOAD DIV MUL DUP4 MSTORE SWAP2 PUSH1 0x20 ADD SWAP2 PUSH2 0x902 JUMP JUMPDEST DUP3 ADD SWAP2 SWAP1 PUSH1 0x0 MSTORE PUSH1 0x20 PUSH1 0x0 KECCAK256 SWAP1 JUMPDEST DUP2 SLOAD DUP2 MSTORE SWAP1 PUSH1 0x1 ADD SWAP1 PUSH1 0x20 ADD DUP1 DUP4 GT PUSH2 0x8E5 JUMPI DUP3 SWAP1 SUB PUSH1 0x1F AND DUP3 ADD SWAP2 JUMPDEST POP POP POP POP POP DUP2 MSTORE POP POP SWAP1 POP PUSH2 0x3E4 DUP2 PUSH1 0x0 ADD DUP2 DUP2 MSTORE POP POP PUSH2 0x923 DUP6 DUP6 PUSH2 0xC29 JUMP JUMPDEST POP PUSH1 0x0 PUSH1 0x3 PUSH8 0xFFFFFFFFFFFFFFFF DUP2 GT ISZERO PUSH2 0x941 JUMPI PUSH2 0x940 PUSH2 0x11DD JUMP JUMPDEST JUMPDEST PUSH1 0x40 MLOAD SWAP1 DUP1 DUP3 MSTORE DUP1 PUSH1 0x20 MUL PUSH1 0x20 ADD DUP3 ADD PUSH1 0x40 MSTORE DUP1 ISZERO PUSH2 0x96F JUMPI DUP2 PUSH1 0x20 ADD PUSH1 0x20 DUP3 MUL DUP1 CALLDATASIZE DUP4 CALLDATACOPY DUP1 DUP3 ADD SWAP2 POP POP SWAP1 POP JUMPDEST POP SWAP1 POP PUSH2 0x237 DUP2 PUSH1 0x0 DUP2 MLOAD DUP2 LT PUSH2 0x989 JUMPI PUSH2 0x988 PUSH2 0x11AE JUMP JUMPDEST JUMPDEST PUSH1 0x20 MUL PUSH1 0x20 ADD ADD DUP2 DUP2 MSTORE POP POP PUSH2 0x315 DUP2 PUSH1 0x1 DUP2 MLOAD DUP2 LT PUSH2 0x9AC JUMPI PUSH2 0x9AB PUSH2 0x11AE JUMP JUMPDEST JUMPDEST PUSH1 0x20 MUL PUSH1 0x20 ADD ADD DUP2 DUP2 MSTORE POP POP DUP1 PUSH1 0x3 SWAP1 DUP1 MLOAD SWAP1 PUSH1 0x20 ADD SWAP1 PUSH2 0x9CE SWAP3 SWAP2 SWAP1 PUSH2 0xCF3 JUMP JUMPDEST POP DUP2 PUSH1 0x1 PUSH1 0x0 DUP3 ADD MLOAD DUP2 PUSH1 0x0 ADD SSTORE PUSH1 0x20 DUP3 ADD MLOAD DUP2 PUSH1 0x1 ADD SWAP1 DUP1 MLOAD SWAP1 PUSH1 0x20 ADD SWAP1 PUSH2 0x9F8 SWAP3 SWAP2 SWAP1 PUSH2 0xC6D JUMP JUMPDEST POP SWAP1 POP POP DUP1 SWAP4 POP POP POP POP SWAP3 SWAP2 POP POP JUMP JUMPDEST PUSH1 0x4 DUP1 SLOAD PUSH2 0xA15 SWAP1 PUSH2 0x114D JUMP JUMPDEST DUP1 PUSH1 0x1F ADD PUSH1 0x20 DUP1 SWAP2 DIV MUL PUSH1 0x20 ADD PUSH1 0x40 MLOAD SWAP1 DUP2 ADD PUSH1 0x40 MSTORE DUP1 SWAP3 SWAP2 SWAP1 DUP2 DUP2 MSTORE PUSH1 0x20 ADD DUP3 DUP1 SLOAD PUSH2 0xA41 SWAP1 PUSH2 0x114D JUMP JUMPDEST DUP1 ISZERO PUSH2 0xA8E JUMPI DUP1 PUSH1 0x1F LT PUSH2 0xA63 JUMPI PUSH2 0x100 DUP1 DUP4 SLOAD DIV MUL DUP4 MSTORE SWAP2 PUSH1 0x20 ADD SWAP2 PUSH2 0xA8E JUMP JUMPDEST DUP3 ADD SWAP2 SWAP1 PUSH1 0x0 MSTORE PUSH1 0x20 PUSH1 0x0 KECCAK256 SWAP1 JUMPDEST DUP2 SLOAD DUP2 MSTORE SWAP1 PUSH1 0x1 ADD SWAP1 PUSH1 0x20 ADD DUP1 DUP4 GT PUSH2 0xA71 JUMPI DUP3 SWAP1 SUB PUSH1 0x1F AND DUP3 ADD SWAP2 JUMPDEST POP POP POP POP POP DUP2 JUMP JUMPDEST PUSH2 0xA9E PUSH2 0xC53 JUMP JUMPDEST PUSH1 0x0 DUP1 PUSH1 0x0 PUSH1 0x1 PUSH20 0xFFFFFFFFFFFFFFFFFFFFFFFFFFFFFFFFFFFFFFFF AND PUSH20 0xFFFFFFFFFFFFFFFFFFFFFFFFFFFFFFFFFFFFFFFF AND DUP2 MSTORE PUSH1 0x20 ADD SWAP1 DUP2 MSTORE PUSH1 0x20 ADD PUSH1 0x0 KECCAK256 PUSH1 0x40 MLOAD DUP1 PUSH1 0x40 ADD PUSH1 0x40 MSTORE SWAP1 DUP2 PUSH1 0x0 DUP3 ADD SLOAD DUP2 MSTORE PUSH1 0x20 ADD PUSH1 0x1 DUP3 ADD DUP1 SLOAD PUSH2 0xB04 SWAP1 PUSH2 0x114D JUMP JUMPDEST DUP1 PUSH1 0x1F ADD PUSH1 0x20 DUP1 SWAP2 DIV MUL PUSH1 0x20 ADD PUSH1 0x40 MLOAD SWAP1 DUP2 ADD PUSH1 0x40 MSTORE DUP1 SWAP3 SWAP2 SWAP1 DUP2 DUP2 MSTORE PUSH1 0x20 ADD DUP3 DUP1 SLOAD PUSH2 0xB30 SWAP1 PUSH2 0x114D JUMP JUMPDEST DUP1 ISZERO PUSH2 0xB7D JUMPI DUP1 PUSH1 0x1F LT PUSH2 0xB52 JUMPI PUSH2 0x100 DUP1 DUP4 SLOAD DIV MUL DUP4 MSTORE SWAP2 PUSH1 0x20 ADD SWAP2 PUSH2 0xB7D JUMP JUMPDEST DUP3 ADD SWAP2 SWAP1 PUSH1 0x0 MSTORE PUSH1 0x20 PUSH1 0x0 KECCAK256 SWAP1 JUMPDEST DUP2 SLOAD DUP2 MSTORE SWAP1 PUSH1 0x1 ADD SWAP1 PUSH1 0x20 ADD DUP1 DUP4 GT PUSH2 0xB60 JUMPI DUP3 SWAP1 SUB PUSH1 0x1F AND DUP3 ADD SWAP2 JUMPDEST POP POP POP POP POP DUP2 MSTORE POP POP SWAP1 POP DUP1 SWAP2 POP POP SWAP1 JUMP JUMPDEST PUSH1 0x1 DUP1 PUSH1 0x0 ADD SLOAD SWAP1 DUP1 PUSH1 0x1 ADD DUP1 SLOAD PUSH2 0xBA6 SWAP1 PUSH2 0x114D JUMP JUMPDEST DUP1 PUSH1 0x1F ADD PUSH1 0x20 DUP1 SWAP2 DIV MUL PUSH1 0x20 ADD PUSH1 0x40 MLOAD SWAP1 DUP2 ADD PUSH1 0x40 MSTORE DUP1 SWAP3 SWAP2 SWAP1 DUP2 DUP2 MSTORE PUSH1 0x20 ADD DUP3 DUP1 SLOAD PUSH2 0xBD2 SWAP1 PUSH2 0x114D JUMP JUMPDEST DUP1 ISZERO PUSH2 0xC1F JUMPI DUP1 PUSH1 0x1F LT PUSH2 0xBF4 JUMPI PUSH2 0x100 DUP1 DUP4 SLOAD DIV MUL DUP4 MSTORE SWAP2 PUSH1 0x20 ADD SWAP2 PUSH2 0xC1F JUMP JUMPDEST DUP3 ADD SWAP2 SWAP1 PUSH1 0x0 MSTORE PUSH1 0x20 PUSH1 0x0 KECCAK256 SWAP1 JUMPDEST DUP2 SLOAD DUP2 MSTORE SWAP1 PUSH1 0x1 ADD SWAP1 PUSH1 0x20 ADD DUP1 DUP4 GT PUSH2 0xC02 JUMPI DUP3 SWAP1 SUB PUSH1 0x1F AND DUP3 ADD SWAP2 JUMPDEST POP POP POP POP POP SWAP1 POP DUP3 JUMP JUMPDEST PUSH1 0x0 DUP1 DUP4 DUP4 PUSH1 0x0 DUP2 DUP2 LT PUSH2 0xC40 JUMPI PUSH2 0xC3F PUSH2 0x11AE JUMP JUMPDEST JUMPDEST SWAP1 POP PUSH1 0x20 MUL ADD CALLDATALOAD SWAP1 POP DUP1 SWAP2 POP POP SWAP3 SWAP2 POP POP JUMP JUMPDEST PUSH1 0x40 MLOAD DUP1 PUSH1 0x40 ADD PUSH1 0x40 MSTORE DUP1 PUSH1 0x0 DUP2 MSTORE PUSH1 0x20 ADD PUSH1 0x60 DUP2 MSTORE POP SWAP1 JUMP JUMPDEST DUP3 DUP1 SLOAD PUSH2 0xC79 SWAP1 PUSH2 0x114D JUMP JUMPDEST SWAP1 PUSH1 0x0 MSTORE PUSH1 0x20 PUSH1 0x0 KECCAK256 SWAP1 PUSH1 0x1F ADD PUSH1 0x20 SWAP1 DIV DUP2 ADD SWAP3 DUP3 PUSH2 0xC9B JUMPI PUSH1 0x0 DUP6 SSTORE PUSH2 0xCE2 JUMP JUMPDEST DUP3 PUSH1 0x1F LT PUSH2 0xCB4 JUMPI DUP1 MLOAD PUSH1 0xFF NOT AND DUP4 DUP1 ADD OR DUP6 SSTORE PUSH2 0xCE2 JUMP JUMPDEST DUP3 DUP1 ADD PUSH1 0x1 ADD DUP6 SSTORE DUP3 ISZERO PUSH2 0xCE2 JUMPI SWAP2 DUP3 ADD JUMPDEST DUP3 DUP2 GT ISZERO PUSH2 0xCE1 JUMPI DUP3 MLOAD DUP3 SSTORE SWAP2 PUSH1 0x20 ADD SWAP2 SWAP1 PUSH1 0x1 ADD SWAP1 PUSH2 0xCC6 JUMP JUMPDEST JUMPDEST POP SWAP1 POP PUSH2 0xCEF SWAP2 SWAP1 PUSH2 0xD40 JUMP JUMPDEST POP SWAP1 JUMP JUMPDEST DUP3 DUP1 SLOAD DUP3 DUP3 SSTORE SWAP1 PUSH1 0x0 MSTORE PUSH1 0x20 PUSH1 0x0 KECCAK256 SWAP1 DUP2 ADD SWAP3 DUP3 ISZERO PUSH2 0xD2F JUMPI SWAP2 PUSH1 0x20 MUL DUP3 ADD JUMPDEST DUP3 DUP2 GT ISZERO PUSH2 0xD2E JUMPI DUP3 MLOAD DUP3 SSTORE SWAP2 PUSH1 0x20 ADD SWAP2 SWAP1 PUSH1 0x1 ADD SWAP1 PUSH2 0xD13 JUMP JUMPDEST JUMPDEST POP SWAP1 POP PUSH2 0xD3C SWAP2 SWAP1 PUSH2 0xD40 JUMP JUMPDEST POP SWAP1 JUMP JUMPDEST JUMPDEST DUP1 DUP3 GT ISZERO PUSH2 0xD59 JUMPI PUSH1 0x0 DUP2 PUSH1 0x0 SWAP1 SSTORE POP PUSH1 0x1 ADD PUSH2 0xD41 JUMP JUMPDEST POP SWAP1 JUMP JUMPDEST PUSH1 0x0 DUP2 CALLDATALOAD SWAP1 POP PUSH2 0xD6C DUP2 PUSH2 0x1236 JUMP JUMPDEST SWAP3 SWAP2 POP POP JUMP JUMPDEST PUSH1 0x0 DUP1 DUP4 PUSH1 0x1F DUP5 ADD SLT PUSH2 0xD88 JUMPI PUSH2 0xD87 PUSH2 0x1211 JUMP JUMPDEST JUMPDEST DUP3 CALLDATALOAD SWAP1 POP PUSH8 0xFFFFFFFFFFFFFFFF DUP2 GT ISZERO PUSH2 0xDA5 JUMPI PUSH2 0xDA4 PUSH2 0x120C JUMP JUMPDEST JUMPDEST PUSH1 0x20 DUP4 ADD SWAP2 POP DUP4 PUSH1 0x20 DUP3 MUL DUP4 ADD GT ISZERO PUSH2 0xDC1 JUMPI PUSH2 0xDC0 PUSH2 0x1216 JUMP JUMPDEST JUMPDEST SWAP3 POP SWAP3 SWAP1 POP JUMP JUMPDEST PUSH1 0x0 DUP2 CALLDATALOAD SWAP1 POP PUSH2 0xDD7 DUP2 PUSH2 0x124D JUMP JUMPDEST SWAP3 SWAP2 POP POP JUMP JUMPDEST PUSH1 0x0 PUSH1 0x20 DUP3 DUP5 SUB SLT ISZERO PUSH2 0xDF3 JUMPI PUSH2 0xDF2 PUSH2 0x1220 JUMP JUMPDEST JUMPDEST PUSH1 0x0 PUSH2 0xE01 DUP5 DUP3 DUP6 ADD PUSH2 0xD5D JUMP JUMPDEST SWAP2 POP POP SWAP3 SWAP2 POP POP JUMP JUMPDEST PUSH1 0x0 DUP1 PUSH1 0x20 DUP4 DUP6 SUB SLT ISZERO PUSH2 0xE21 JUMPI PUSH2 0xE20 PUSH2 0x1220 JUMP JUMPDEST JUMPDEST PUSH1 0x0 DUP4 ADD CALLDATALOAD PUSH8 0xFFFFFFFFFFFFFFFF DUP2 GT ISZERO PUSH2 0xE3F JUMPI PUSH2 0xE3E PUSH2 0x121B JUMP JUMPDEST JUMPDEST PUSH2 0xE4B DUP6 DUP3 DUP7 ADD PUSH2 0xD72 JUMP JUMPDEST SWAP3 POP SWAP3 POP POP SWAP3 POP SWAP3 SWAP1 POP JUMP JUMPDEST PUSH1 0x0 PUSH1 0x20 DUP3 DUP5 SUB SLT ISZERO PUSH2 0xE6D JUMPI PUSH2 0xE6C PUSH2 0x1220 JUMP JUMPDEST JUMPDEST PUSH1 0x0 PUSH2 0xE7B DUP5 DUP3 DUP6 ADD PUSH2 0xDC8 JUMP JUMPDEST SWAP2 POP POP SWAP3 SWAP2 POP POP JUMP JUMPDEST PUSH1 0x0 PUSH2 0xE90 DUP4 DUP4 PUSH2 0xFA9 JUMP JUMPDEST PUSH1 0x20 DUP4 ADD SWAP1 POP SWAP3 SWAP2 POP POP JUMP JUMPDEST PUSH1 0x0 PUSH2 0xEA7 DUP3 PUSH2 0x1088 JUMP JUMPDEST PUSH2 0xEB1 DUP2 DUP6 PUSH2 0x10AB JUMP JUMPDEST SWAP4 POP PUSH2 0xEBC DUP4 PUSH2 0x1078 JUMP JUMPDEST DUP1 PUSH1 0x0 JUMPDEST DUP4 DUP2 LT ISZERO PUSH2 0xEED JUMPI DUP2 MLOAD PUSH2 0xED4 DUP9 DUP3 PUSH2 0xE84 JUMP JUMPDEST SWAP8 POP PUSH2 0xEDF DUP4 PUSH2 0x109E JUMP JUMPDEST SWAP3 POP POP PUSH1 0x1 DUP2 ADD SWAP1 POP PUSH2 0xEC0 JUMP JUMPDEST POP DUP6 SWAP4 POP POP POP POP SWAP3 SWAP2 POP POP JUMP JUMPDEST PUSH1 0x0 PUSH2 0xF05 DUP3 PUSH2 0x1093 JUMP JUMPDEST PUSH2 0xF0F DUP2 DUP6 PUSH2 0x10BC JUMP JUMPDEST SWAP4 POP PUSH2 0xF1F DUP2 DUP6 PUSH1 0x20 DUP7 ADD PUSH2 0x111A JUMP JUMPDEST PUSH2 0xF28 DUP2 PUSH2 0x1225 JUMP JUMPDEST DUP5 ADD SWAP2 POP POP SWAP3 SWAP2 POP POP JUMP JUMPDEST PUSH1 0x0 PUSH2 0xF3E DUP3 PUSH2 0x1093 JUMP JUMPDEST PUSH2 0xF48 DUP2 DUP6 PUSH2 0x10CD JUMP JUMPDEST SWAP4 POP PUSH2 0xF58 DUP2 DUP6 PUSH1 0x20 DUP7 ADD PUSH2 0x111A JUMP JUMPDEST PUSH2 0xF61 DUP2 PUSH2 0x1225 JUMP JUMPDEST DUP5 ADD SWAP2 POP POP SWAP3 SWAP2 POP POP JUMP JUMPDEST PUSH1 0x0 PUSH1 0x40 DUP4 ADD PUSH1 0x0 DUP4 ADD MLOAD PUSH2 0xF84 PUSH1 0x0 DUP7 ADD DUP3 PUSH2 0xFA9 JUMP JUMPDEST POP PUSH1 0x20 DUP4 ADD MLOAD DUP5 DUP3 SUB PUSH1 0x20 DUP7 ADD MSTORE PUSH2 0xF9C DUP3 DUP3 PUSH2 0xEFA JUMP JUMPDEST SWAP2 POP POP DUP1 SWAP2 POP POP SWAP3 SWAP2 POP POP JUMP JUMPDEST PUSH2 0xFB2 DUP2 PUSH2 0x1110 JUMP JUMPDEST DUP3 MSTORE POP POP JUMP JUMPDEST PUSH2 0xFC1 DUP2 PUSH2 0x1110 JUMP JUMPDEST DUP3 MSTORE POP POP JUMP JUMPDEST PUSH1 0x0 PUSH1 0x20 DUP3 ADD SWAP1 POP DUP2 DUP2 SUB PUSH1 0x0 DUP4 ADD MSTORE PUSH2 0xFE1 DUP2 DUP5 PUSH2 0xE9C JUMP JUMPDEST SWAP1 POP SWAP3 SWAP2 POP POP JUMP JUMPDEST PUSH1 0x0 PUSH1 0x20 DUP3 ADD SWAP1 POP DUP2 DUP2 SUB PUSH1 0x0 DUP4 ADD MSTORE PUSH2 0x1003 DUP2 DUP5 PUSH2 0xF33 JUMP JUMPDEST SWAP1 POP SWAP3 SWAP2 POP POP JUMP JUMPDEST PUSH1 0x0 PUSH1 0x20 DUP3 ADD SWAP1 POP DUP2 DUP2 SUB PUSH1 0x0 DUP4 ADD MSTORE PUSH2 0x1025 DUP2 DUP5 PUSH2 0xF6C JUMP JUMPDEST SWAP1 POP SWAP3 SWAP2 POP POP JUMP JUMPDEST PUSH1 0x0 PUSH1 0x20 DUP3 ADD SWAP1 POP PUSH2 0x1042 PUSH1 0x0 DUP4 ADD DUP5 PUSH2 0xFB8 JUMP JUMPDEST SWAP3 SWAP2 POP POP JUMP JUMPDEST PUSH1 0x0 PUSH1 0x40 DUP3 ADD SWAP1 POP PUSH2 0x105D PUSH1 0x0 DUP4 ADD DUP6 PUSH2 0xFB8 JUMP JUMPDEST DUP2 DUP2 SUB PUSH1 0x20 DUP4 ADD MSTORE PUSH2 0x106F DUP2 DUP5 PUSH2 0xF33 JUMP JUMPDEST SWAP1 POP SWAP4 SWAP3 POP POP POP JUMP JUMPDEST PUSH1 0x0 DUP2 SWAP1 POP PUSH1 0x20 DUP3 ADD SWAP1 POP SWAP2 SWAP1 POP JUMP JUMPDEST PUSH1 0x0 DUP2 MLOAD SWAP1 POP SWAP2 SWAP1 POP JUMP JUMPDEST PUSH1 0x0 DUP2 MLOAD SWAP1 POP SWAP2 SWAP1 POP JUMP JUMPDEST PUSH1 0x0 PUSH1 0x20 DUP3 ADD SWAP1 POP SWAP2 SWAP1 POP JUMP JUMPDEST PUSH1 0x0 DUP3 DUP3 MSTORE PUSH1 0x20 DUP3 ADD SWAP1 POP SWAP3 SWAP2 POP POP JUMP JUMPDEST PUSH1 0x0 DUP3 DUP3 MSTORE PUSH1 0x20 DUP3 ADD SWAP1 POP SWAP3 SWAP2 POP POP JUMP JUMPDEST PUSH1 0x0 DUP3 DUP3 MSTORE PUSH1 0x20 DUP3 ADD SWAP1 POP SWAP3 SWAP2 POP POP JUMP JUMPDEST PUSH1 0x0 PUSH2 0x10E9 DUP3 PUSH2 0x10F0 JUMP JUMPDEST SWAP1 POP SWAP2 SWAP1 POP JUMP JUMPDEST PUSH1 0x0 PUSH20 0xFFFFFFFFFFFFFFFFFFFFFFFFFFFFFFFFFFFFFFFF DUP3 AND SWAP1 POP SWAP2 SWAP1 POP JUMP JUMPDEST PUSH1 0x0 DUP2 SWAP1 POP SWAP2 SWAP1 POP JUMP JUMPDEST PUSH1 0x0 JUMPDEST DUP4 DUP2 LT ISZERO PUSH2 0x1138 JUMPI DUP1 DUP3 ADD MLOAD DUP2 DUP5 ADD MSTORE PUSH1 0x20 DUP2 ADD SWAP1 POP PUSH2 0x111D JUMP JUMPDEST DUP4 DUP2 GT ISZERO PUSH2 0x1147 JUMPI PUSH1 0x0 DUP5 DUP5 ADD MSTORE JUMPDEST POP POP POP POP JUMP JUMPDEST PUSH1 0x0 PUSH1 0x2 DUP3 DIV SWAP1 POP PUSH1 0x1 DUP3 AND DUP1 PUSH2 0x1165 JUMPI PUSH1 0x7F DUP3 AND SWAP2 POP JUMPDEST PUSH1 0x20 DUP3 LT DUP2 EQ ISZERO PUSH2 0x1179 JUMPI PUSH2 0x1178 PUSH2 0x117F JUMP JUMPDEST JUMPDEST POP SWAP2 SWAP1 POP JUMP JUMPDEST PUSH32 0x4E487B7100000000000000000000000000000000000000000000000000000000 PUSH1 0x0 MSTORE PUSH1 0x22 PUSH1 0x4 MSTORE PUSH1 0x24 PUSH1 0x0 REVERT JUMPDEST PUSH32 0x4E487B7100000000000000000000000000000000000000000000000000000000 PUSH1 0x0 MSTORE PUSH1 0x32 PUSH1 0x4 MSTORE PUSH1 0x24 PUSH1 0x0 REVERT JUMPDEST PUSH32 0x4E487B7100000000000000000000000000000000000000000000000000000000 PUSH1 0x0 MSTORE PUSH1 0x41 PUSH1 0x4 MSTORE PUSH1 0x24 PUSH1 0x0 REVERT JUMPDEST PUSH1 0x0 DUP1 REVERT JUMPDEST PUSH1 0x0 DUP1 REVERT JUMPDEST PUSH1 0x0 DUP1 REVERT JUMPDEST PUSH1 0x0 DUP1 REVERT JUMPDEST PUSH1 0x0 DUP1 REVERT JUMPDEST PUSH1 0x0 PUSH1 0x1F NOT PUSH1 0x1F DUP4 ADD AND SWAP1 POP SWAP2 SWAP1 POP JUMP JUMPDEST PUSH2 0x123F DUP2 PUSH2 0x10DE JUMP JUMPDEST DUP2 EQ PUSH2 0x124A JUMPI PUSH1 0x0 DUP1 REVERT JUMPDEST POP JUMP JUMPDEST PUSH2 0x1256 DUP2 PUSH2 0x1110 JUMP JUMPDEST DUP2 EQ PUSH2 0x1261 JUMPI PUSH1 0x0 DUP1 REVERT JUMPDEST POP JUMP INVALID LOG2 PUSH5 0x6970667358 0x22 SLT KECCAK256 PUSH15 0xA46FA0672EF3C35A657415DA77A91 SDIV 0xE6 SWAP7 DUP11 DELEGATECALL SWAP14 PUSH28 0x3B2FDA7B05A163F5B664736F6C634300080700330000000000000000 "
				},
				"gasEstimates": {
					"creation": {
						"codeDepositCost": "952400",
						"executionCost": "988",
						"totalCost": "953388"
					},
					"external": {
						"examples()": "infinite",
						"examples2(uint256[])": "infinite",
						"getAddress1Struct()": "infinite",
						"getAddress2Struct()": "infinite",
						"getStruct(address)": "infinite",
						"lastAction()": "infinite",
						"lastReturnStruct()": "infinite",
						"lastReturnedArray(uint256)": "infinite"
					},
					"internal": {
						"_internal(uint256[] calldata)": "91"
					}
				},
				"methodIdentifiers": {
					"examples()": "335d00c2",
					"examples2(uint256[])": "64be9d3f",
					"getAddress1Struct()": "e03cc3d3",
					"getAddress2Struct()": "0e0e031c",
					"getStruct(address)": "5db8083e",
					"lastAction()": "89f71d53",
					"lastReturnStruct()": "fe9c1fc9",
					"lastReturnedArray(uint256)": "505b30e4"
				}
			},
			"storageLayout": {
				"storage": [
					{
						"astId": 11,
						"contract": "contracts/025DataLocation.sol:DataLocation",
						"label": "myStructs",
						"offset": 0,
						"slot": "0",
						"type": "t_mapping(t_address,t_struct(MyStruct)6_storage)"
					},
					{
						"astId": 14,
						"contract": "contracts/025DataLocation.sol:DataLocation",
						"label": "lastReturnStruct",
						"offset": 0,
						"slot": "1",
						"type": "t_struct(MyStruct)6_storage"
					},
					{
						"astId": 17,
						"contract": "contracts/025DataLocation.sol:DataLocation",
						"label": "lastReturnedArray",
						"offset": 0,
						"slot": "3",
						"type": "t_array(t_uint256)dyn_storage"
					},
					{
						"astId": 19,
						"contract": "contracts/025DataLocation.sol:DataLocation",
						"label": "lastAction",
						"offset": 0,
						"slot": "4",
						"type": "t_string_storage"
					}
				],
				"types": {
					"t_address": {
						"encoding": "inplace",
						"label": "address",
						"numberOfBytes": "20"
					},
					"t_array(t_uint256)dyn_storage": {
						"base": "t_uint256",
						"encoding": "dynamic_array",
						"label": "uint256[]",
						"numberOfBytes": "32"
					},
					"t_mapping(t_address,t_struct(MyStruct)6_storage)": {
						"encoding": "mapping",
						"key": "t_address",
						"label": "mapping(address => struct DataLocation.MyStruct)",
						"numberOfBytes": "32",
						"value": "t_struct(MyStruct)6_storage"
					},
					"t_string_storage": {
						"encoding": "bytes",
						"label": "string",
						"numberOfBytes": "32"
					},
					"t_struct(MyStruct)6_storage": {
						"encoding": "inplace",
						"label": "struct DataLocation.MyStruct",
						"members": [
							{
								"astId": 3,
								"contract": "contracts/025DataLocation.sol:DataLocation",
								"label": "fool",
								"offset": 0,
								"slot": "0",
								"type": "t_uint256"
							},
							{
								"astId": 5,
								"contract": "contracts/025DataLocation.sol:DataLocation",
								"label": "text",
								"offset": 0,
								"slot": "1",
								"type": "t_string_storage"
							}
						],
						"numberOfBytes": "64"
					},
					"t_uint256": {
						"encoding": "inplace",
						"label": "uint256",
						"numberOfBytes": "32"
					}
				}
			},
			"userdoc": {
				"kind": "user",
				"methods": {},
				"version": 1
			}
		}
	}
}