{
	"contracts/Enum.sol": {
		"Enum": {
			"abi": [
				{
					"inputs": [],
					"name": "addOrder",
					"outputs": [],
					"stateMutability": "nonpayable",
					"type": "function"
				},
				{
					"inputs": [
						{
							"internalType": "uint256",
							"name": "orderId",
							"type": "uint256"
						}
					],
					"name": "getOrderStatus",
					"outputs": [
						{
							"internalType": "enum Enum.OrderStatus",
							"name": "",
							"type": "uint8"
						}
					],
					"stateMutability": "view",
					"type": "function"
				},
				{
					"inputs": [
						{
							"internalType": "uint256",
							"name": "orderId",
							"type": "uint256"
						}
					],
					"name": "resetOrderStatus",
					"outputs": [],
					"stateMutability": "nonpayable",
					"type": "function"
				},
				{
					"inputs": [
						{
							"internalType": "uint256",
							"name": "orderId",
							"type": "uint256"
						},
						{
							"internalType": "enum Enum.OrderStatus",
							"name": "status",
							"type": "uint8"
						}
					],
					"name": "updateOrderStatus",
					"outputs": [],
					"stateMutability": "nonpayable",
					"type": "function"
				}
			],
			"devdoc": {
				"kind": "dev",
				"methods": {},
				"version": 1
			},
			"evm": {
				"assembly": "    /* \"contracts/Enum.sol\":553:1688  contract Enum {... */\n  mstore(0x40, 0x80)\n  callvalue\n  dup1\n  iszero\n  tag_1\n  jumpi\n  0x00\n  dup1\n  revert\ntag_1:\n  pop\n  dataSize(sub_0)\n  dup1\n  dataOffset(sub_0)\n  0x00\n  codecopy\n  0x00\n  return\nstop\n\nsub_0: assembly {\n        /* \"contracts/Enum.sol\":553:1688  contract Enum {... */\n      mstore(0x40, 0x80)\n      callvalue\n      dup1\n      iszero\n      tag_1\n      jumpi\n      0x00\n      dup1\n      revert\n    tag_1:\n      pop\n      jumpi(tag_2, lt(calldatasize, 0x04))\n      shr(0xe0, calldataload(0x00))\n      dup1\n      0x2035a264\n      eq\n      tag_3\n      jumpi\n      dup1\n      0x45fa8aae\n      eq\n      tag_4\n      jumpi\n      dup1\n      0x992ad9f0\n      eq\n      tag_5\n      jumpi\n      dup1\n      0xaab3196d\n      eq\n      tag_6\n      jumpi\n    tag_2:\n      0x00\n      dup1\n      revert\n        /* \"contracts/Enum.sol\":804:1152  function addOrder() external {... */\n    tag_3:\n      tag_7\n      tag_8\n      jump\t// in\n    tag_7:\n      stop\n        /* \"contracts/Enum.sol\":1343:1524  function getOrderStatus(uint orderId) external view returns (OrderStatus) {... */\n    tag_4:\n      tag_9\n      0x04\n      dup1\n      calldatasize\n      sub\n      dup2\n      add\n      swap1\n      tag_10\n      swap2\n      swap1\n      tag_11\n      jump\t// in\n    tag_10:\n      tag_12\n      jump\t// in\n    tag_9:\n      mload(0x40)\n      tag_13\n      swap2\n      swap1\n      tag_14\n      jump\t// in\n    tag_13:\n      mload(0x40)\n      dup1\n      swap2\n      sub\n      swap1\n      return\n        /* \"contracts/Enum.sol\":1530:1686  function resetOrderStatus(uint orderId) external {... */\n    tag_5:\n      tag_15\n      0x04\n      dup1\n      calldatasize\n      sub\n      dup2\n      add\n      swap1\n      tag_16\n      swap2\n      swap1\n      tag_11\n      jump\t// in\n    tag_16:\n      tag_17\n      jump\t// in\n    tag_15:\n      stop\n        /* \"contracts/Enum.sol\":1158:1337  function updateOrderStatus(uint orderId, OrderStatus status) external {... */\n    tag_6:\n      tag_18\n      0x04\n      dup1\n      calldatasize\n      sub\n      dup2\n      add\n      swap1\n      tag_19\n      swap2\n      swap1\n      tag_20\n      jump\t// in\n    tag_19:\n      tag_21\n      jump\t// in\n    tag_18:\n      stop\n        /* \"contracts/Enum.sol\":804:1152  function addOrder() external {... */\n    tag_8:\n        /* \"contracts/Enum.sol\":843:862  Order memory order1 */\n      0x00\n        /* \"contracts/Enum.sol\":865:903  Order(address(1), OrderStatus.Pending) */\n      mload(0x40)\n      dup1\n      0x40\n      add\n      0x40\n      mstore\n      dup1\n        /* \"contracts/Enum.sol\":879:880  1 */\n      0x01\n        /* \"contracts/Enum.sol\":865:903  Order(address(1), OrderStatus.Pending) */\n      0xffffffffffffffffffffffffffffffffffffffff\n      and\n      dup2\n      mstore\n      0x20\n      add\n        /* \"contracts/Enum.sol\":883:902  OrderStatus.Pending */\n      0x01\n        /* \"contracts/Enum.sol\":865:903  Order(address(1), OrderStatus.Pending) */\n      0x05\n      dup2\n      gt\n      iszero\n      tag_23\n      jumpi\n      tag_24\n      tag_25\n      jump\t// in\n    tag_24:\n    tag_23:\n      dup2\n      mstore\n      pop\n        /* \"contracts/Enum.sol\":843:903  Order memory order1 = Order(address(1), OrderStatus.Pending) */\n      swap1\n      pop\n        /* \"contracts/Enum.sol\":913:932  Order memory order2 */\n      0x00\n        /* \"contracts/Enum.sol\":935:1024  Order({... */\n      mload(0x40)\n      dup1\n      0x40\n      add\n      0x40\n      mstore\n      dup1\n        /* \"contracts/Enum.sol\":970:971  2 */\n      0x02\n        /* \"contracts/Enum.sol\":935:1024  Order({... */\n      0xffffffffffffffffffffffffffffffffffffffff\n      and\n      dup2\n      mstore\n      0x20\n      add\n        /* \"contracts/Enum.sol\":994:1013  OrderStatus.Shipped */\n      0x02\n        /* \"contracts/Enum.sol\":935:1024  Order({... */\n      0x05\n      dup2\n      gt\n      iszero\n      tag_26\n      jumpi\n      tag_27\n      tag_25\n      jump\t// in\n    tag_27:\n    tag_26:\n      dup2\n      mstore\n      pop\n        /* \"contracts/Enum.sol\":913:1024  Order memory order2 = Order({... */\n      swap1\n      pop\n        /* \"contracts/Enum.sol\":1034:1040  orders */\n      0x00\n        /* \"contracts/Enum.sol\":1046:1052  order1 */\n      dup3\n        /* \"contracts/Enum.sol\":1034:1053  orders.push(order1) */\n      swap1\n      dup1\n      0x01\n      dup2\n      sload\n      add\n      dup1\n      dup3\n      sstore\n      dup1\n      swap2\n      pop\n      pop\n      0x01\n      swap1\n      sub\n      swap1\n      0x00\n      mstore\n      keccak256(0x00, 0x20)\n      add\n      0x00\n      swap1\n      swap2\n      swap1\n      swap2\n      swap1\n      swap2\n      pop\n      0x00\n      dup3\n      add\n      mload\n      dup2\n      0x00\n      add\n      exp(0x0100, 0x00)\n      dup2\n      sload\n      dup2\n      0xffffffffffffffffffffffffffffffffffffffff\n      mul\n      not\n      and\n      swap1\n      dup4\n      0xffffffffffffffffffffffffffffffffffffffff\n      and\n      mul\n      or\n      swap1\n      sstore\n      pop\n      0x20\n      dup3\n      add\n      mload\n      dup2\n      0x00\n      add\n      exp(0x0100, 0x14)\n      dup2\n      sload\n      dup2\n      0xff\n      mul\n      not\n      and\n      swap1\n      dup4\n      0x05\n      dup2\n      gt\n      iszero\n      tag_29\n      jumpi\n      tag_30\n      tag_25\n      jump\t// in\n    tag_30:\n    tag_29:\n      mul\n      or\n      swap1\n      sstore\n      pop\n      pop\n      pop\n        /* \"contracts/Enum.sol\":1063:1069  orders */\n      0x00\n        /* \"contracts/Enum.sol\":1075:1081  order2 */\n      dup2\n        /* \"contracts/Enum.sol\":1063:1082  orders.push(order2) */\n      swap1\n      dup1\n      0x01\n      dup2\n      sload\n      add\n      dup1\n      dup3\n      sstore\n      dup1\n      swap2\n      pop\n      pop\n      0x01\n      swap1\n      sub\n      swap1\n      0x00\n      mstore\n      keccak256(0x00, 0x20)\n      add\n      0x00\n      swap1\n      swap2\n      swap1\n      swap2\n      swap1\n      swap2\n      pop\n      0x00\n      dup3\n      add\n      mload\n      dup2\n      0x00\n      add\n      exp(0x0100, 0x00)\n      dup2\n      sload\n      dup2\n      0xffffffffffffffffffffffffffffffffffffffff\n      mul\n      not\n      and\n      swap1\n      dup4\n      0xffffffffffffffffffffffffffffffffffffffff\n      and\n      mul\n      or\n      swap1\n      sstore\n      pop\n      0x20\n      dup3\n      add\n      mload\n      dup2\n      0x00\n      add\n      exp(0x0100, 0x14)\n      dup2\n      sload\n      dup2\n      0xff\n      mul\n      not\n      and\n      swap1\n      dup4\n      0x05\n      dup2\n      gt\n      iszero\n      tag_32\n      jumpi\n      tag_33\n      tag_25\n      jump\t// in\n    tag_33:\n    tag_32:\n      mul\n      or\n      swap1\n      sstore\n      pop\n      pop\n      pop\n        /* \"contracts/Enum.sol\":1092:1098  orders */\n      0x00\n        /* \"contracts/Enum.sol\":1104:1144  Order(address(3), OrderStatus.Completed) */\n      mload(0x40)\n      dup1\n      0x40\n      add\n      0x40\n      mstore\n      dup1\n        /* \"contracts/Enum.sol\":1118:1119  3 */\n      0x03\n        /* \"contracts/Enum.sol\":1104:1144  Order(address(3), OrderStatus.Completed) */\n      0xffffffffffffffffffffffffffffffffffffffff\n      and\n      dup2\n      mstore\n      0x20\n      add\n        /* \"contracts/Enum.sol\":1122:1143  OrderStatus.Completed */\n      0x03\n        /* \"contracts/Enum.sol\":1104:1144  Order(address(3), OrderStatus.Completed) */\n      0x05\n      dup2\n      gt\n      iszero\n      tag_34\n      jumpi\n      tag_35\n      tag_25\n      jump\t// in\n    tag_35:\n    tag_34:\n      dup2\n      mstore\n      pop\n        /* \"contracts/Enum.sol\":1092:1145  orders.push(Order(address(3), OrderStatus.Completed)) */\n      swap1\n      dup1\n      0x01\n      dup2\n      sload\n      add\n      dup1\n      dup3\n      sstore\n      dup1\n      swap2\n      pop\n      pop\n      0x01\n      swap1\n      sub\n      swap1\n      0x00\n      mstore\n      keccak256(0x00, 0x20)\n      add\n      0x00\n      swap1\n      swap2\n      swap1\n      swap2\n      swap1\n      swap2\n      pop\n      0x00\n      dup3\n      add\n      mload\n      dup2\n      0x00\n      add\n      exp(0x0100, 0x00)\n      dup2\n      sload\n      dup2\n      0xffffffffffffffffffffffffffffffffffffffff\n      mul\n      not\n      and\n      swap1\n      dup4\n      0xffffffffffffffffffffffffffffffffffffffff\n      and\n      mul\n      or\n      swap1\n      sstore\n      pop\n      0x20\n      dup3\n      add\n      mload\n      dup2\n      0x00\n      add\n      exp(0x0100, 0x14)\n      dup2\n      sload\n      dup2\n      0xff\n      mul\n      not\n      and\n      swap1\n      dup4\n      0x05\n      dup2\n      gt\n      iszero\n      tag_37\n      jumpi\n      tag_38\n      tag_25\n      jump\t// in\n    tag_38:\n    tag_37:\n      mul\n      or\n      swap1\n      sstore\n      pop\n      pop\n      pop\n        /* \"contracts/Enum.sol\":833:1152  {... */\n      pop\n      pop\n        /* \"contracts/Enum.sol\":804:1152  function addOrder() external {... */\n      jump\t// out\n        /* \"contracts/Enum.sol\":1343:1524  function getOrderStatus(uint orderId) external view returns (OrderStatus) {... */\n    tag_12:\n        /* \"contracts/Enum.sol\":1404:1415  OrderStatus */\n      0x00\n        /* \"contracts/Enum.sol\":1445:1451  orders */\n      dup1\n        /* \"contracts/Enum.sol\":1445:1458  orders.length */\n      dup1\n      sload\n      swap1\n      pop\n        /* \"contracts/Enum.sol\":1435:1442  orderId */\n      dup3\n        /* \"contracts/Enum.sol\":1435:1458  orderId < orders.length */\n      lt\n        /* \"contracts/Enum.sol\":1427:1478  require(orderId < orders.length, \"order not exist\") */\n      tag_40\n      jumpi\n      mload(0x40)\n      0x08c379a000000000000000000000000000000000000000000000000000000000\n      dup2\n      mstore\n      0x04\n      add\n      tag_41\n      swap1\n      tag_42\n      jump\t// in\n    tag_41:\n      mload(0x40)\n      dup1\n      swap2\n      sub\n      swap1\n      revert\n    tag_40:\n        /* \"contracts/Enum.sol\":1495:1501  orders */\n      0x00\n        /* \"contracts/Enum.sol\":1502:1509  orderId */\n      dup3\n        /* \"contracts/Enum.sol\":1495:1510  orders[orderId] */\n      dup2\n      sload\n      dup2\n      lt\n      tag_43\n      jumpi\n      tag_44\n      tag_45\n      jump\t// in\n    tag_44:\n    tag_43:\n      swap1\n      0x00\n      mstore\n      keccak256(0x00, 0x20)\n      add\n        /* \"contracts/Enum.sol\":1495:1517  orders[orderId].status */\n      0x00\n      add\n      0x14\n      swap1\n      sload\n      swap1\n      0x0100\n      exp\n      swap1\n      div\n      0xff\n      and\n        /* \"contracts/Enum.sol\":1488:1517  return orders[orderId].status */\n      swap1\n      pop\n        /* \"contracts/Enum.sol\":1343:1524  function getOrderStatus(uint orderId) external view returns (OrderStatus) {... */\n      swap2\n      swap1\n      pop\n      jump\t// out\n        /* \"contracts/Enum.sol\":1530:1686  function resetOrderStatus(uint orderId) external {... */\n    tag_17:\n        /* \"contracts/Enum.sol\":1607:1613  orders */\n      0x00\n        /* \"contracts/Enum.sol\":1607:1620  orders.length */\n      dup1\n      sload\n      swap1\n      pop\n        /* \"contracts/Enum.sol\":1597:1604  orderId */\n      dup2\n        /* \"contracts/Enum.sol\":1597:1620  orderId < orders.length */\n      lt\n        /* \"contracts/Enum.sol\":1589:1640  require(orderId < orders.length, \"order not exist\") */\n      tag_48\n      jumpi\n      mload(0x40)\n      0x08c379a000000000000000000000000000000000000000000000000000000000\n      dup2\n      mstore\n      0x04\n      add\n      tag_49\n      swap1\n      tag_42\n      jump\t// in\n    tag_49:\n      mload(0x40)\n      dup1\n      swap2\n      sub\n      swap1\n      revert\n    tag_48:\n        /* \"contracts/Enum.sol\":1657:1663  orders */\n      0x00\n        /* \"contracts/Enum.sol\":1664:1671  orderId */\n      dup2\n        /* \"contracts/Enum.sol\":1657:1672  orders[orderId] */\n      dup2\n      sload\n      dup2\n      lt\n      tag_50\n      jumpi\n      tag_51\n      tag_45\n      jump\t// in\n    tag_51:\n    tag_50:\n      swap1\n      0x00\n      mstore\n      keccak256(0x00, 0x20)\n      add\n        /* \"contracts/Enum.sol\":1657:1679  orders[orderId].status */\n      0x00\n      add\n      0x14\n        /* \"contracts/Enum.sol\":1650:1679  delete orders[orderId].status */\n      0x0100\n      exp\n      dup2\n      sload\n      swap1\n      0xff\n      mul\n      not\n      and\n      swap1\n      sstore\n        /* \"contracts/Enum.sol\":1530:1686  function resetOrderStatus(uint orderId) external {... */\n      pop\n      jump\t// out\n        /* \"contracts/Enum.sol\":1158:1337  function updateOrderStatus(uint orderId, OrderStatus status) external {... */\n    tag_21:\n        /* \"contracts/Enum.sol\":1256:1262  orders */\n      0x00\n        /* \"contracts/Enum.sol\":1256:1269  orders.length */\n      dup1\n      sload\n      swap1\n      pop\n        /* \"contracts/Enum.sol\":1246:1253  orderId */\n      dup3\n        /* \"contracts/Enum.sol\":1246:1269  orderId < orders.length */\n      lt\n        /* \"contracts/Enum.sol\":1238:1289  require(orderId < orders.length, \"order not exist\") */\n      tag_54\n      jumpi\n      mload(0x40)\n      0x08c379a000000000000000000000000000000000000000000000000000000000\n      dup2\n      mstore\n      0x04\n      add\n      tag_55\n      swap1\n      tag_42\n      jump\t// in\n    tag_55:\n      mload(0x40)\n      dup1\n      swap2\n      sub\n      swap1\n      revert\n    tag_54:\n        /* \"contracts/Enum.sol\":1324:1330  status */\n      dup1\n        /* \"contracts/Enum.sol\":1299:1305  orders */\n      0x00\n        /* \"contracts/Enum.sol\":1306:1313  orderId */\n      dup4\n        /* \"contracts/Enum.sol\":1299:1314  orders[orderId] */\n      dup2\n      sload\n      dup2\n      lt\n      tag_56\n      jumpi\n      tag_57\n      tag_45\n      jump\t// in\n    tag_57:\n    tag_56:\n      swap1\n      0x00\n      mstore\n      keccak256(0x00, 0x20)\n      add\n        /* \"contracts/Enum.sol\":1299:1321  orders[orderId].status */\n      0x00\n      add\n      0x14\n        /* \"contracts/Enum.sol\":1299:1330  orders[orderId].status = status */\n      0x0100\n      exp\n      dup2\n      sload\n      dup2\n      0xff\n      mul\n      not\n      and\n      swap1\n      dup4\n      0x05\n      dup2\n      gt\n      iszero\n      tag_59\n      jumpi\n      tag_60\n      tag_25\n      jump\t// in\n    tag_60:\n    tag_59:\n      mul\n      or\n      swap1\n      sstore\n      pop\n        /* \"contracts/Enum.sol\":1158:1337  function updateOrderStatus(uint orderId, OrderStatus status) external {... */\n      pop\n      pop\n      jump\t// out\n        /* \"#utility.yul\":7:172   */\n    tag_62:\n        /* \"#utility.yul\":66:71   */\n      0x00\n        /* \"#utility.yul\":104:110   */\n      dup2\n        /* \"#utility.yul\":91:111   */\n      calldataload\n        /* \"#utility.yul\":82:111   */\n      swap1\n      pop\n        /* \"#utility.yul\":120:166   */\n      tag_64\n        /* \"#utility.yul\":160:165   */\n      dup2\n        /* \"#utility.yul\":120:166   */\n      tag_65\n      jump\t// in\n    tag_64:\n        /* \"#utility.yul\":7:172   */\n      swap3\n      swap2\n      pop\n      pop\n      jump\t// out\n        /* \"#utility.yul\":178:317   */\n    tag_66:\n        /* \"#utility.yul\":224:229   */\n      0x00\n        /* \"#utility.yul\":262:268   */\n      dup2\n        /* \"#utility.yul\":249:269   */\n      calldataload\n        /* \"#utility.yul\":240:269   */\n      swap1\n      pop\n        /* \"#utility.yul\":278:311   */\n      tag_68\n        /* \"#utility.yul\":305:310   */\n      dup2\n        /* \"#utility.yul\":278:311   */\n      tag_69\n      jump\t// in\n    tag_68:\n        /* \"#utility.yul\":178:317   */\n      swap3\n      swap2\n      pop\n      pop\n      jump\t// out\n        /* \"#utility.yul\":323:652   */\n    tag_11:\n        /* \"#utility.yul\":382:388   */\n      0x00\n        /* \"#utility.yul\":431:433   */\n      0x20\n        /* \"#utility.yul\":419:428   */\n      dup3\n        /* \"#utility.yul\":410:417   */\n      dup5\n        /* \"#utility.yul\":406:429   */\n      sub\n        /* \"#utility.yul\":402:434   */\n      slt\n        /* \"#utility.yul\":399:518   */\n      iszero\n      tag_71\n      jumpi\n        /* \"#utility.yul\":437:516   */\n      tag_72\n      tag_73\n      jump\t// in\n    tag_72:\n        /* \"#utility.yul\":399:518   */\n    tag_71:\n        /* \"#utility.yul\":557:558   */\n      0x00\n        /* \"#utility.yul\":582:635   */\n      tag_74\n        /* \"#utility.yul\":627:634   */\n      dup5\n        /* \"#utility.yul\":618:624   */\n      dup3\n        /* \"#utility.yul\":607:616   */\n      dup6\n        /* \"#utility.yul\":603:625   */\n      add\n        /* \"#utility.yul\":582:635   */\n      tag_66\n      jump\t// in\n    tag_74:\n        /* \"#utility.yul\":572:635   */\n      swap2\n      pop\n        /* \"#utility.yul\":528:645   */\n      pop\n        /* \"#utility.yul\":323:652   */\n      swap3\n      swap2\n      pop\n      pop\n      jump\t// out\n        /* \"#utility.yul\":658:1158   */\n    tag_20:\n        /* \"#utility.yul\":739:745   */\n      0x00\n        /* \"#utility.yul\":747:753   */\n      dup1\n        /* \"#utility.yul\":796:798   */\n      0x40\n        /* \"#utility.yul\":784:793   */\n      dup4\n        /* \"#utility.yul\":775:782   */\n      dup6\n        /* \"#utility.yul\":771:794   */\n      sub\n        /* \"#utility.yul\":767:799   */\n      slt\n        /* \"#utility.yul\":764:883   */\n      iszero\n      tag_76\n      jumpi\n        /* \"#utility.yul\":802:881   */\n      tag_77\n      tag_73\n      jump\t// in\n    tag_77:\n        /* \"#utility.yul\":764:883   */\n    tag_76:\n        /* \"#utility.yul\":922:923   */\n      0x00\n        /* \"#utility.yul\":947:1000   */\n      tag_78\n        /* \"#utility.yul\":992:999   */\n      dup6\n        /* \"#utility.yul\":983:989   */\n      dup3\n        /* \"#utility.yul\":972:981   */\n      dup7\n        /* \"#utility.yul\":968:990   */\n      add\n        /* \"#utility.yul\":947:1000   */\n      tag_66\n      jump\t// in\n    tag_78:\n        /* \"#utility.yul\":937:1000   */\n      swap3\n      pop\n        /* \"#utility.yul\":893:1010   */\n      pop\n        /* \"#utility.yul\":1049:1051   */\n      0x20\n        /* \"#utility.yul\":1075:1141   */\n      tag_79\n        /* \"#utility.yul\":1133:1140   */\n      dup6\n        /* \"#utility.yul\":1124:1130   */\n      dup3\n        /* \"#utility.yul\":1113:1122   */\n      dup7\n        /* \"#utility.yul\":1109:1131   */\n      add\n        /* \"#utility.yul\":1075:1141   */\n      tag_62\n      jump\t// in\n    tag_79:\n        /* \"#utility.yul\":1065:1141   */\n      swap2\n      pop\n        /* \"#utility.yul\":1020:1151   */\n      pop\n        /* \"#utility.yul\":658:1158   */\n      swap3\n      pop\n      swap3\n      swap1\n      pop\n      jump\t// out\n        /* \"#utility.yul\":1164:1317   */\n    tag_80:\n        /* \"#utility.yul\":1262:1310   */\n      tag_82\n        /* \"#utility.yul\":1304:1309   */\n      dup2\n        /* \"#utility.yul\":1262:1310   */\n      tag_83\n      jump\t// in\n    tag_82:\n        /* \"#utility.yul\":1257:1260   */\n      dup3\n        /* \"#utility.yul\":1250:1311   */\n      mstore\n        /* \"#utility.yul\":1164:1317   */\n      pop\n      pop\n      jump\t// out\n        /* \"#utility.yul\":1323:1689   */\n    tag_84:\n        /* \"#utility.yul\":1465:1468   */\n      0x00\n        /* \"#utility.yul\":1486:1553   */\n      tag_86\n        /* \"#utility.yul\":1550:1552   */\n      0x0f\n        /* \"#utility.yul\":1545:1548   */\n      dup4\n        /* \"#utility.yul\":1486:1553   */\n      tag_87\n      jump\t// in\n    tag_86:\n        /* \"#utility.yul\":1479:1553   */\n      swap2\n      pop\n        /* \"#utility.yul\":1562:1655   */\n      tag_88\n        /* \"#utility.yul\":1651:1654   */\n      dup3\n        /* \"#utility.yul\":1562:1655   */\n      tag_89\n      jump\t// in\n    tag_88:\n        /* \"#utility.yul\":1680:1682   */\n      0x20\n        /* \"#utility.yul\":1675:1678   */\n      dup3\n        /* \"#utility.yul\":1671:1683   */\n      add\n        /* \"#utility.yul\":1664:1683   */\n      swap1\n      pop\n        /* \"#utility.yul\":1323:1689   */\n      swap2\n      swap1\n      pop\n      jump\t// out\n        /* \"#utility.yul\":1695:1939   */\n    tag_14:\n        /* \"#utility.yul\":1799:1803   */\n      0x00\n        /* \"#utility.yul\":1837:1839   */\n      0x20\n        /* \"#utility.yul\":1826:1835   */\n      dup3\n        /* \"#utility.yul\":1822:1840   */\n      add\n        /* \"#utility.yul\":1814:1840   */\n      swap1\n      pop\n        /* \"#utility.yul\":1850:1932   */\n      tag_91\n        /* \"#utility.yul\":1929:1930   */\n      0x00\n        /* \"#utility.yul\":1918:1927   */\n      dup4\n        /* \"#utility.yul\":1914:1931   */\n      add\n        /* \"#utility.yul\":1905:1911   */\n      dup5\n        /* \"#utility.yul\":1850:1932   */\n      tag_80\n      jump\t// in\n    tag_91:\n        /* \"#utility.yul\":1695:1939   */\n      swap3\n      swap2\n      pop\n      pop\n      jump\t// out\n        /* \"#utility.yul\":1945:2364   */\n    tag_42:\n        /* \"#utility.yul\":2111:2115   */\n      0x00\n        /* \"#utility.yul\":2149:2151   */\n      0x20\n        /* \"#utility.yul\":2138:2147   */\n      dup3\n        /* \"#utility.yul\":2134:2152   */\n      add\n        /* \"#utility.yul\":2126:2152   */\n      swap1\n      pop\n        /* \"#utility.yul\":2198:2207   */\n      dup2\n        /* \"#utility.yul\":2192:2196   */\n      dup2\n        /* \"#utility.yul\":2188:2208   */\n      sub\n        /* \"#utility.yul\":2184:2185   */\n      0x00\n        /* \"#utility.yul\":2173:2182   */\n      dup4\n        /* \"#utility.yul\":2169:2186   */\n      add\n        /* \"#utility.yul\":2162:2209   */\n      mstore\n        /* \"#utility.yul\":2226:2357   */\n      tag_93\n        /* \"#utility.yul\":2352:2356   */\n      dup2\n        /* \"#utility.yul\":2226:2357   */\n      tag_84\n      jump\t// in\n    tag_93:\n        /* \"#utility.yul\":2218:2357   */\n      swap1\n      pop\n        /* \"#utility.yul\":1945:2364   */\n      swap2\n      swap1\n      pop\n      jump\t// out\n        /* \"#utility.yul\":2451:2620   */\n    tag_87:\n        /* \"#utility.yul\":2535:2546   */\n      0x00\n        /* \"#utility.yul\":2569:2575   */\n      dup3\n        /* \"#utility.yul\":2564:2567   */\n      dup3\n        /* \"#utility.yul\":2557:2576   */\n      mstore\n        /* \"#utility.yul\":2609:2613   */\n      0x20\n        /* \"#utility.yul\":2604:2607   */\n      dup3\n        /* \"#utility.yul\":2600:2614   */\n      add\n        /* \"#utility.yul\":2585:2614   */\n      swap1\n      pop\n        /* \"#utility.yul\":2451:2620   */\n      swap3\n      swap2\n      pop\n      pop\n      jump\t// out\n        /* \"#utility.yul\":2626:2763   */\n    tag_97:\n        /* \"#utility.yul\":2676:2683   */\n      0x00\n        /* \"#utility.yul\":2705:2710   */\n      dup2\n        /* \"#utility.yul\":2694:2710   */\n      swap1\n      pop\n        /* \"#utility.yul\":2711:2757   */\n      tag_99\n        /* \"#utility.yul\":2751:2756   */\n      dup3\n        /* \"#utility.yul\":2711:2757   */\n      tag_100\n      jump\t// in\n    tag_99:\n        /* \"#utility.yul\":2626:2763   */\n      swap2\n      swap1\n      pop\n      jump\t// out\n        /* \"#utility.yul\":2769:2846   */\n    tag_101:\n        /* \"#utility.yul\":2806:2813   */\n      0x00\n        /* \"#utility.yul\":2835:2840   */\n      dup2\n        /* \"#utility.yul\":2824:2840   */\n      swap1\n      pop\n        /* \"#utility.yul\":2769:2846   */\n      swap2\n      swap1\n      pop\n      jump\t// out\n        /* \"#utility.yul\":2852:2989   */\n    tag_83:\n        /* \"#utility.yul\":2913:2922   */\n      0x00\n        /* \"#utility.yul\":2946:2983   */\n      tag_104\n        /* \"#utility.yul\":2977:2982   */\n      dup3\n        /* \"#utility.yul\":2946:2983   */\n      tag_97\n      jump\t// in\n    tag_104:\n        /* \"#utility.yul\":2933:2983   */\n      swap1\n      pop\n        /* \"#utility.yul\":2852:2989   */\n      swap2\n      swap1\n      pop\n      jump\t// out\n        /* \"#utility.yul\":2995:3175   */\n    tag_25:\n        /* \"#utility.yul\":3043:3120   */\n      0x4e487b7100000000000000000000000000000000000000000000000000000000\n        /* \"#utility.yul\":3040:3041   */\n      0x00\n        /* \"#utility.yul\":3033:3121   */\n      mstore\n        /* \"#utility.yul\":3140:3144   */\n      0x21\n        /* \"#utility.yul\":3137:3138   */\n      0x04\n        /* \"#utility.yul\":3130:3145   */\n      mstore\n        /* \"#utility.yul\":3164:3168   */\n      0x24\n        /* \"#utility.yul\":3161:3162   */\n      0x00\n        /* \"#utility.yul\":3154:3169   */\n      revert\n        /* \"#utility.yul\":3181:3361   */\n    tag_45:\n        /* \"#utility.yul\":3229:3306   */\n      0x4e487b7100000000000000000000000000000000000000000000000000000000\n        /* \"#utility.yul\":3226:3227   */\n      0x00\n        /* \"#utility.yul\":3219:3307   */\n      mstore\n        /* \"#utility.yul\":3326:3330   */\n      0x32\n        /* \"#utility.yul\":3323:3324   */\n      0x04\n        /* \"#utility.yul\":3316:3331   */\n      mstore\n        /* \"#utility.yul\":3350:3354   */\n      0x24\n        /* \"#utility.yul\":3347:3348   */\n      0x00\n        /* \"#utility.yul\":3340:3355   */\n      revert\n        /* \"#utility.yul\":3490:3607   */\n    tag_73:\n        /* \"#utility.yul\":3599:3600   */\n      0x00\n        /* \"#utility.yul\":3596:3597   */\n      dup1\n        /* \"#utility.yul\":3589:3601   */\n      revert\n        /* \"#utility.yul\":3613:3778   */\n    tag_89:\n        /* \"#utility.yul\":3753:3770   */\n      0x6f72646572206e6f742065786973740000000000000000000000000000000000\n        /* \"#utility.yul\":3749:3750   */\n      0x00\n        /* \"#utility.yul\":3741:3747   */\n      dup3\n        /* \"#utility.yul\":3737:3751   */\n      add\n        /* \"#utility.yul\":3730:3771   */\n      mstore\n        /* \"#utility.yul\":3613:3778   */\n      pop\n      jump\t// out\n        /* \"#utility.yul\":3784:3902   */\n    tag_100:\n        /* \"#utility.yul\":3870:3871   */\n      0x06\n        /* \"#utility.yul\":3863:3868   */\n      dup2\n        /* \"#utility.yul\":3860:3872   */\n      lt\n        /* \"#utility.yul\":3850:3896   */\n      tag_112\n      jumpi\n        /* \"#utility.yul\":3876:3894   */\n      tag_113\n      tag_25\n      jump\t// in\n    tag_113:\n        /* \"#utility.yul\":3850:3896   */\n    tag_112:\n        /* \"#utility.yul\":3784:3902   */\n      pop\n      jump\t// out\n        /* \"#utility.yul\":3908:4020   */\n    tag_65:\n        /* \"#utility.yul\":3994:3995   */\n      0x06\n        /* \"#utility.yul\":3987:3992   */\n      dup2\n        /* \"#utility.yul\":3984:3996   */\n      lt\n        /* \"#utility.yul\":3974:4014   */\n      tag_115\n      jumpi\n        /* \"#utility.yul\":4010:4011   */\n      0x00\n        /* \"#utility.yul\":4007:4008   */\n      dup1\n        /* \"#utility.yul\":4000:4012   */\n      revert\n        /* \"#utility.yul\":3974:4014   */\n    tag_115:\n        /* \"#utility.yul\":3908:4020   */\n      pop\n      jump\t// out\n        /* \"#utility.yul\":4026:4148   */\n    tag_69:\n        /* \"#utility.yul\":4099:4123   */\n      tag_117\n        /* \"#utility.yul\":4117:4122   */\n      dup2\n        /* \"#utility.yul\":4099:4123   */\n      tag_101\n      jump\t// in\n    tag_117:\n        /* \"#utility.yul\":4092:4097   */\n      dup2\n        /* \"#utility.yul\":4089:4124   */\n      eq\n        /* \"#utility.yul\":4079:4142   */\n      tag_118\n      jumpi\n        /* \"#utility.yul\":4138:4139   */\n      0x00\n        /* \"#utility.yul\":4135:4136   */\n      dup1\n        /* \"#utility.yul\":4128:4140   */\n      revert\n        /* \"#utility.yul\":4079:4142   */\n    tag_118:\n        /* \"#utility.yul\":4026:4148   */\n      pop\n      jump\t// out\n\n    auxdata: 0xa26469706673582212200b6568eb154334be080a2c8958ca332de457853650ace93f4218a02ba3de924564736f6c63430008070033\n}\n",
				"bytecode": {
					"linkReferences": {},
					"object": "608060405234801561001057600080fd5b5061073c806100206000396000f3fe608060405234801561001057600080fd5b506004361061004c5760003560e01c80632035a2641461005157806345fa8aae1461005b578063992ad9f01461008b578063aab3196d146100a7575b600080fd5b6100596100c3565b005b61007560048036038101906100709190610525565b61036e565b60405161008291906105c4565b60405180910390f35b6100a560048036038101906100a09190610525565b6103ec565b005b6100c160048036038101906100bc9190610552565b610467565b005b60006040518060400160405280600173ffffffffffffffffffffffffffffffffffffffff168152602001600160058111156101015761010061063f565b5b815250905060006040518060400160405280600273ffffffffffffffffffffffffffffffffffffffff168152602001600260058111156101445761014361063f565b5b81525090506000829080600181540180825580915050600190039060005260206000200160009091909190915060008201518160000160006101000a81548173ffffffffffffffffffffffffffffffffffffffff021916908373ffffffffffffffffffffffffffffffffffffffff16021790555060208201518160000160146101000a81548160ff021916908360058111156101e3576101e261063f565b5b021790555050506000819080600181540180825580915050600190039060005260206000200160009091909190915060008201518160000160006101000a81548173ffffffffffffffffffffffffffffffffffffffff021916908373ffffffffffffffffffffffffffffffffffffffff16021790555060208201518160000160146101000a81548160ff021916908360058111156102845761028361063f565b5b0217905550505060006040518060400160405280600373ffffffffffffffffffffffffffffffffffffffff168152602001600360058111156102c9576102c861063f565b5b8152509080600181540180825580915050600190039060005260206000200160009091909190915060008201518160000160006101000a81548173ffffffffffffffffffffffffffffffffffffffff021916908373ffffffffffffffffffffffffffffffffffffffff16021790555060208201518160000160146101000a81548160ff021916908360058111156103635761036261063f565b5b021790555050505050565b6000808054905082106103b6576040517f08c379a00000000000000000000000000000000000000000000000000000000081526004016103ad906105df565b60405180910390fd5b600082815481106103ca576103c961066e565b5b9060005260206000200160000160149054906101000a900460ff169050919050565b6000805490508110610433576040517f08c379a000000000000000000000000000000000000000000000000000000000815260040161042a906105df565b60405180910390fd5b600081815481106104475761044661066e565b5b9060005260206000200160000160146101000a81549060ff021916905550565b60008054905082106104ae576040517f08c379a00000000000000000000000000000000000000000000000000000000081526004016104a5906105df565b60405180910390fd5b80600083815481106104c3576104c261066e565b5b9060005260206000200160000160146101000a81548160ff021916908360058111156104f2576104f161063f565b5b02179055505050565b60008135905061050a816106df565b92915050565b60008135905061051f816106ef565b92915050565b60006020828403121561053b5761053a61069d565b5b600061054984828501610510565b91505092915050565b600080604083850312156105695761056861069d565b5b600061057785828601610510565b9250506020610588858286016104fb565b9150509250929050565b61059b8161062d565b82525050565b60006105ae600f836105ff565b91506105b9826106a2565b602082019050919050565b60006020820190506105d96000830184610592565b92915050565b600060208201905081810360008301526105f8816105a1565b9050919050565b600082825260208201905092915050565b600081905061061e826106cb565b919050565b6000819050919050565b600061063882610610565b9050919050565b7f4e487b7100000000000000000000000000000000000000000000000000000000600052602160045260246000fd5b7f4e487b7100000000000000000000000000000000000000000000000000000000600052603260045260246000fd5b600080fd5b7f6f72646572206e6f742065786973740000000000000000000000000000000000600082015250565b600681106106dc576106db61063f565b5b50565b600681106106ec57600080fd5b50565b6106f881610623565b811461070357600080fd5b5056fea26469706673582212200b6568eb154334be080a2c8958ca332de457853650ace93f4218a02ba3de924564736f6c63430008070033",
					"opcodes": "PUSH1 0x80 PUSH1 0x40 MSTORE CALLVALUE DUP1 ISZERO PUSH2 0x10 JUMPI PUSH1 0x0 DUP1 REVERT JUMPDEST POP PUSH2 0x73C DUP1 PUSH2 0x20 PUSH1 0x0 CODECOPY PUSH1 0x0 RETURN INVALID PUSH1 0x80 PUSH1 0x40 MSTORE CALLVALUE DUP1 ISZERO PUSH2 0x10 JUMPI PUSH1 0x0 DUP1 REVERT JUMPDEST POP PUSH1 0x4 CALLDATASIZE LT PUSH2 0x4C JUMPI PUSH1 0x0 CALLDATALOAD PUSH1 0xE0 SHR DUP1 PUSH4 0x2035A264 EQ PUSH2 0x51 JUMPI DUP1 PUSH4 0x45FA8AAE EQ PUSH2 0x5B JUMPI DUP1 PUSH4 0x992AD9F0 EQ PUSH2 0x8B JUMPI DUP1 PUSH4 0xAAB3196D EQ PUSH2 0xA7 JUMPI JUMPDEST PUSH1 0x0 DUP1 REVERT JUMPDEST PUSH2 0x59 PUSH2 0xC3 JUMP JUMPDEST STOP JUMPDEST PUSH2 0x75 PUSH1 0x4 DUP1 CALLDATASIZE SUB DUP2 ADD SWAP1 PUSH2 0x70 SWAP2 SWAP1 PUSH2 0x525 JUMP JUMPDEST PUSH2 0x36E JUMP JUMPDEST PUSH1 0x40 MLOAD PUSH2 0x82 SWAP2 SWAP1 PUSH2 0x5C4 JUMP JUMPDEST PUSH1 0x40 MLOAD DUP1 SWAP2 SUB SWAP1 RETURN JUMPDEST PUSH2 0xA5 PUSH1 0x4 DUP1 CALLDATASIZE SUB DUP2 ADD SWAP1 PUSH2 0xA0 SWAP2 SWAP1 PUSH2 0x525 JUMP JUMPDEST PUSH2 0x3EC JUMP JUMPDEST STOP JUMPDEST PUSH2 0xC1 PUSH1 0x4 DUP1 CALLDATASIZE SUB DUP2 ADD SWAP1 PUSH2 0xBC SWAP2 SWAP1 PUSH2 0x552 JUMP JUMPDEST PUSH2 0x467 JUMP JUMPDEST STOP JUMPDEST PUSH1 0x0 PUSH1 0x40 MLOAD DUP1 PUSH1 0x40 ADD PUSH1 0x40 MSTORE DUP1 PUSH1 0x1 PUSH20 0xFFFFFFFFFFFFFFFFFFFFFFFFFFFFFFFFFFFFFFFF AND DUP2 MSTORE PUSH1 0x20 ADD PUSH1 0x1 PUSH1 0x5 DUP2 GT ISZERO PUSH2 0x101 JUMPI PUSH2 0x100 PUSH2 0x63F JUMP JUMPDEST JUMPDEST DUP2 MSTORE POP SWAP1 POP PUSH1 0x0 PUSH1 0x40 MLOAD DUP1 PUSH1 0x40 ADD PUSH1 0x40 MSTORE DUP1 PUSH1 0x2 PUSH20 0xFFFFFFFFFFFFFFFFFFFFFFFFFFFFFFFFFFFFFFFF AND DUP2 MSTORE PUSH1 0x20 ADD PUSH1 0x2 PUSH1 0x5 DUP2 GT ISZERO PUSH2 0x144 JUMPI PUSH2 0x143 PUSH2 0x63F JUMP JUMPDEST JUMPDEST DUP2 MSTORE POP SWAP1 POP PUSH1 0x0 DUP3 SWAP1 DUP1 PUSH1 0x1 DUP2 SLOAD ADD DUP1 DUP3 SSTORE DUP1 SWAP2 POP POP PUSH1 0x1 SWAP1 SUB SWAP1 PUSH1 0x0 MSTORE PUSH1 0x20 PUSH1 0x0 KECCAK256 ADD PUSH1 0x0 SWAP1 SWAP2 SWAP1 SWAP2 SWAP1 SWAP2 POP PUSH1 0x0 DUP3 ADD MLOAD DUP2 PUSH1 0x0 ADD PUSH1 0x0 PUSH2 0x100 EXP DUP2 SLOAD DUP2 PUSH20 0xFFFFFFFFFFFFFFFFFFFFFFFFFFFFFFFFFFFFFFFF MUL NOT AND SWAP1 DUP4 PUSH20 0xFFFFFFFFFFFFFFFFFFFFFFFFFFFFFFFFFFFFFFFF AND MUL OR SWAP1 SSTORE POP PUSH1 0x20 DUP3 ADD MLOAD DUP2 PUSH1 0x0 ADD PUSH1 0x14 PUSH2 0x100 EXP DUP2 SLOAD DUP2 PUSH1 0xFF MUL NOT AND SWAP1 DUP4 PUSH1 0x5 DUP2 GT ISZERO PUSH2 0x1E3 JUMPI PUSH2 0x1E2 PUSH2 0x63F JUMP JUMPDEST JUMPDEST MUL OR SWAP1 SSTORE POP POP POP PUSH1 0x0 DUP2 SWAP1 DUP1 PUSH1 0x1 DUP2 SLOAD ADD DUP1 DUP3 SSTORE DUP1 SWAP2 POP POP PUSH1 0x1 SWAP1 SUB SWAP1 PUSH1 0x0 MSTORE PUSH1 0x20 PUSH1 0x0 KECCAK256 ADD PUSH1 0x0 SWAP1 SWAP2 SWAP1 SWAP2 SWAP1 SWAP2 POP PUSH1 0x0 DUP3 ADD MLOAD DUP2 PUSH1 0x0 ADD PUSH1 0x0 PUSH2 0x100 EXP DUP2 SLOAD DUP2 PUSH20 0xFFFFFFFFFFFFFFFFFFFFFFFFFFFFFFFFFFFFFFFF MUL NOT AND SWAP1 DUP4 PUSH20 0xFFFFFFFFFFFFFFFFFFFFFFFFFFFFFFFFFFFFFFFF AND MUL OR SWAP1 SSTORE POP PUSH1 0x20 DUP3 ADD MLOAD DUP2 PUSH1 0x0 ADD PUSH1 0x14 PUSH2 0x100 EXP DUP2 SLOAD DUP2 PUSH1 0xFF MUL NOT AND SWAP1 DUP4 PUSH1 0x5 DUP2 GT ISZERO PUSH2 0x284 JUMPI PUSH2 0x283 PUSH2 0x63F JUMP JUMPDEST JUMPDEST MUL OR SWAP1 SSTORE POP POP POP PUSH1 0x0 PUSH1 0x40 MLOAD DUP1 PUSH1 0x40 ADD PUSH1 0x40 MSTORE DUP1 PUSH1 0x3 PUSH20 0xFFFFFFFFFFFFFFFFFFFFFFFFFFFFFFFFFFFFFFFF AND DUP2 MSTORE PUSH1 0x20 ADD PUSH1 0x3 PUSH1 0x5 DUP2 GT ISZERO PUSH2 0x2C9 JUMPI PUSH2 0x2C8 PUSH2 0x63F JUMP JUMPDEST JUMPDEST DUP2 MSTORE POP SWAP1 DUP1 PUSH1 0x1 DUP2 SLOAD ADD DUP1 DUP3 SSTORE DUP1 SWAP2 POP POP PUSH1 0x1 SWAP1 SUB SWAP1 PUSH1 0x0 MSTORE PUSH1 0x20 PUSH1 0x0 KECCAK256 ADD PUSH1 0x0 SWAP1 SWAP2 SWAP1 SWAP2 SWAP1 SWAP2 POP PUSH1 0x0 DUP3 ADD MLOAD DUP2 PUSH1 0x0 ADD PUSH1 0x0 PUSH2 0x100 EXP DUP2 SLOAD DUP2 PUSH20 0xFFFFFFFFFFFFFFFFFFFFFFFFFFFFFFFFFFFFFFFF MUL NOT AND SWAP1 DUP4 PUSH20 0xFFFFFFFFFFFFFFFFFFFFFFFFFFFFFFFFFFFFFFFF AND MUL OR SWAP1 SSTORE POP PUSH1 0x20 DUP3 ADD MLOAD DUP2 PUSH1 0x0 ADD PUSH1 0x14 PUSH2 0x100 EXP DUP2 SLOAD DUP2 PUSH1 0xFF MUL NOT AND SWAP1 DUP4 PUSH1 0x5 DUP2 GT ISZERO PUSH2 0x363 JUMPI PUSH2 0x362 PUSH2 0x63F JUMP JUMPDEST JUMPDEST MUL OR SWAP1 SSTORE POP POP POP POP POP JUMP JUMPDEST PUSH1 0x0 DUP1 DUP1 SLOAD SWAP1 POP DUP3 LT PUSH2 0x3B6 JUMPI PUSH1 0x40 MLOAD PUSH32 0x8C379A000000000000000000000000000000000000000000000000000000000 DUP2 MSTORE PUSH1 0x4 ADD PUSH2 0x3AD SWAP1 PUSH2 0x5DF JUMP JUMPDEST PUSH1 0x40 MLOAD DUP1 SWAP2 SUB SWAP1 REVERT JUMPDEST PUSH1 0x0 DUP3 DUP2 SLOAD DUP2 LT PUSH2 0x3CA JUMPI PUSH2 0x3C9 PUSH2 0x66E JUMP JUMPDEST JUMPDEST SWAP1 PUSH1 0x0 MSTORE PUSH1 0x20 PUSH1 0x0 KECCAK256 ADD PUSH1 0x0 ADD PUSH1 0x14 SWAP1 SLOAD SWAP1 PUSH2 0x100 EXP SWAP1 DIV PUSH1 0xFF AND SWAP1 POP SWAP2 SWAP1 POP JUMP JUMPDEST PUSH1 0x0 DUP1 SLOAD SWAP1 POP DUP2 LT PUSH2 0x433 JUMPI PUSH1 0x40 MLOAD PUSH32 0x8C379A000000000000000000000000000000000000000000000000000000000 DUP2 MSTORE PUSH1 0x4 ADD PUSH2 0x42A SWAP1 PUSH2 0x5DF JUMP JUMPDEST PUSH1 0x40 MLOAD DUP1 SWAP2 SUB SWAP1 REVERT JUMPDEST PUSH1 0x0 DUP2 DUP2 SLOAD DUP2 LT PUSH2 0x447 JUMPI PUSH2 0x446 PUSH2 0x66E JUMP JUMPDEST JUMPDEST SWAP1 PUSH1 0x0 MSTORE PUSH1 0x20 PUSH1 0x0 KECCAK256 ADD PUSH1 0x0 ADD PUSH1 0x14 PUSH2 0x100 EXP DUP2 SLOAD SWAP1 PUSH1 0xFF MUL NOT AND SWAP1 SSTORE POP JUMP JUMPDEST PUSH1 0x0 DUP1 SLOAD SWAP1 POP DUP3 LT PUSH2 0x4AE JUMPI PUSH1 0x40 MLOAD PUSH32 0x8C379A000000000000000000000000000000000000000000000000000000000 DUP2 MSTORE PUSH1 0x4 ADD PUSH2 0x4A5 SWAP1 PUSH2 0x5DF JUMP JUMPDEST PUSH1 0x40 MLOAD DUP1 SWAP2 SUB SWAP1 REVERT JUMPDEST DUP1 PUSH1 0x0 DUP4 DUP2 SLOAD DUP2 LT PUSH2 0x4C3 JUMPI PUSH2 0x4C2 PUSH2 0x66E JUMP JUMPDEST JUMPDEST SWAP1 PUSH1 0x0 MSTORE PUSH1 0x20 PUSH1 0x0 KECCAK256 ADD PUSH1 0x0 ADD PUSH1 0x14 PUSH2 0x100 EXP DUP2 SLOAD DUP2 PUSH1 0xFF MUL NOT AND SWAP1 DUP4 PUSH1 0x5 DUP2 GT ISZERO PUSH2 0x4F2 JUMPI PUSH2 0x4F1 PUSH2 0x63F JUMP JUMPDEST JUMPDEST MUL OR SWAP1 SSTORE POP POP POP JUMP JUMPDEST PUSH1 0x0 DUP2 CALLDATALOAD SWAP1 POP PUSH2 0x50A DUP2 PUSH2 0x6DF JUMP JUMPDEST SWAP3 SWAP2 POP POP JUMP JUMPDEST PUSH1 0x0 DUP2 CALLDATALOAD SWAP1 POP PUSH2 0x51F DUP2 PUSH2 0x6EF JUMP JUMPDEST SWAP3 SWAP2 POP POP JUMP JUMPDEST PUSH1 0x0 PUSH1 0x20 DUP3 DUP5 SUB SLT ISZERO PUSH2 0x53B JUMPI PUSH2 0x53A PUSH2 0x69D JUMP JUMPDEST JUMPDEST PUSH1 0x0 PUSH2 0x549 DUP5 DUP3 DUP6 ADD PUSH2 0x510 JUMP JUMPDEST SWAP2 POP POP SWAP3 SWAP2 POP POP JUMP JUMPDEST PUSH1 0x0 DUP1 PUSH1 0x40 DUP4 DUP6 SUB SLT ISZERO PUSH2 0x569 JUMPI PUSH2 0x568 PUSH2 0x69D JUMP JUMPDEST JUMPDEST PUSH1 0x0 PUSH2 0x577 DUP6 DUP3 DUP7 ADD PUSH2 0x510 JUMP JUMPDEST SWAP3 POP POP PUSH1 0x20 PUSH2 0x588 DUP6 DUP3 DUP7 ADD PUSH2 0x4FB JUMP JUMPDEST SWAP2 POP POP SWAP3 POP SWAP3 SWAP1 POP JUMP JUMPDEST PUSH2 0x59B DUP2 PUSH2 0x62D JUMP JUMPDEST DUP3 MSTORE POP POP JUMP JUMPDEST PUSH1 0x0 PUSH2 0x5AE PUSH1 0xF DUP4 PUSH2 0x5FF JUMP JUMPDEST SWAP2 POP PUSH2 0x5B9 DUP3 PUSH2 0x6A2 JUMP JUMPDEST PUSH1 0x20 DUP3 ADD SWAP1 POP SWAP2 SWAP1 POP JUMP JUMPDEST PUSH1 0x0 PUSH1 0x20 DUP3 ADD SWAP1 POP PUSH2 0x5D9 PUSH1 0x0 DUP4 ADD DUP5 PUSH2 0x592 JUMP JUMPDEST SWAP3 SWAP2 POP POP JUMP JUMPDEST PUSH1 0x0 PUSH1 0x20 DUP3 ADD SWAP1 POP DUP2 DUP2 SUB PUSH1 0x0 DUP4 ADD MSTORE PUSH2 0x5F8 DUP2 PUSH2 0x5A1 JUMP JUMPDEST SWAP1 POP SWAP2 SWAP1 POP JUMP JUMPDEST PUSH1 0x0 DUP3 DUP3 MSTORE PUSH1 0x20 DUP3 ADD SWAP1 POP SWAP3 SWAP2 POP POP JUMP JUMPDEST PUSH1 0x0 DUP2 SWAP1 POP PUSH2 0x61E DUP3 PUSH2 0x6CB JUMP JUMPDEST SWAP2 SWAP1 POP JUMP JUMPDEST PUSH1 0x0 DUP2 SWAP1 POP SWAP2 SWAP1 POP JUMP JUMPDEST PUSH1 0x0 PUSH2 0x638 DUP3 PUSH2 0x610 JUMP JUMPDEST SWAP1 POP SWAP2 SWAP1 POP JUMP JUMPDEST PUSH32 0x4E487B7100000000000000000000000000000000000000000000000000000000 PUSH1 0x0 MSTORE PUSH1 0x21 PUSH1 0x4 MSTORE PUSH1 0x24 PUSH1 0x0 REVERT JUMPDEST PUSH32 0x4E487B7100000000000000000000000000000000000000000000000000000000 PUSH1 0x0 MSTORE PUSH1 0x32 PUSH1 0x4 MSTORE PUSH1 0x24 PUSH1 0x0 REVERT JUMPDEST PUSH1 0x0 DUP1 REVERT JUMPDEST PUSH32 0x6F72646572206E6F742065786973740000000000000000000000000000000000 PUSH1 0x0 DUP3 ADD MSTORE POP JUMP JUMPDEST PUSH1 0x6 DUP2 LT PUSH2 0x6DC JUMPI PUSH2 0x6DB PUSH2 0x63F JUMP JUMPDEST JUMPDEST POP JUMP JUMPDEST PUSH1 0x6 DUP2 LT PUSH2 0x6EC JUMPI PUSH1 0x0 DUP1 REVERT JUMPDEST POP JUMP JUMPDEST PUSH2 0x6F8 DUP2 PUSH2 0x623 JUMP JUMPDEST DUP2 EQ PUSH2 0x703 JUMPI PUSH1 0x0 DUP1 REVERT JUMPDEST POP JUMP INVALID LOG2 PUSH5 0x6970667358 0x22 SLT KECCAK256 SIGNEXTEND PUSH6 0x68EB154334BE ADDMOD EXP 0x2C DUP10 PC 0xCA CALLER 0x2D 0xE4 JUMPI DUP6 CALLDATASIZE POP 0xAC 0xE9 EXTCODEHASH TIMESTAMP XOR LOG0 0x2B LOG3 0xDE SWAP3 GASLIMIT PUSH5 0x736F6C6343 STOP ADDMOD SMOD STOP CALLER "
				},
				"gasEstimates": {
					"creation": {
						"codeDepositCost": "370400",
						"executionCost": "405",
						"totalCost": "370805"
					},
					"external": {
						"addOrder()": "219289",
						"getOrderStatus(uint256)": "7200",
						"resetOrderStatus(uint256)": "29037",
						"updateOrderStatus(uint256,uint8)": "29234"
					}
				},
				"methodIdentifiers": {
					"addOrder()": "2035a264",
					"getOrderStatus(uint256)": "45fa8aae",
					"resetOrderStatus(uint256)": "992ad9f0",
					"updateOrderStatus(uint256,uint8)": "aab3196d"
				}
			},
			"storageLayout": {
				"storage": [
					{
						"astId": 18,
						"contract": "contracts/Enum.sol:Enum",
						"label": "orders",
						"offset": 0,
						"slot": "0",
						"type": "t_array(t_struct(Order)14_storage)dyn_storage"
					}
				],
				"types": {
					"t_address": {
						"encoding": "inplace",
						"label": "address",
						"numberOfBytes": "20"
					},
					"t_array(t_struct(Order)14_storage)dyn_storage": {
						"base": "t_struct(Order)14_storage",
						"encoding": "dynamic_array",
						"label": "struct Enum.Order[]",
						"numberOfBytes": "32"
					},
					"t_enum(OrderStatus)8": {
						"encoding": "inplace",
						"label": "enum Enum.OrderStatus",
						"numberOfBytes": "1"
					},
					"t_struct(Order)14_storage": {
						"encoding": "inplace",
						"label": "struct Enum.Order",
						"members": [
							{
								"astId": 10,
								"contract": "contracts/Enum.sol:Enum",
								"label": "buyer",
								"offset": 0,
								"slot": "0",
								"type": "t_address"
							},
							{
								"astId": 13,
								"contract": "contracts/Enum.sol:Enum",
								"label": "status",
								"offset": 20,
								"slot": "0",
								"type": "t_enum(OrderStatus)8"
							}
						],
						"numberOfBytes": "32"
					}
				}
			},
			"userdoc": {
				"kind": "user",
				"methods": {},
				"version": 1
			}
		}
	}
}