{
	"contracts/StructsTest.sol": {
		"StructTest": {
			"abi": [
				{
					"inputs": [
						{
							"internalType": "string",
							"name": "_make",
							"type": "string"
						},
						{
							"internalType": "uint256",
							"name": "_year",
							"type": "uint256"
						},
						{
							"internalType": "address",
							"name": "_owner",
							"type": "address"
						}
					],
					"name": "addToVehicle",
					"outputs": [],
					"stateMutability": "nonpayable",
					"type": "function"
				},
				{
					"inputs": [
						{
							"internalType": "uint256",
							"name": "_index",
							"type": "uint256"
						}
					],
					"name": "deleteVehicle",
					"outputs": [],
					"stateMutability": "nonpayable",
					"type": "function"
				},
				{
					"inputs": [],
					"name": "example",
					"outputs": [],
					"stateMutability": "nonpayable",
					"type": "function"
				},
				{
					"inputs": [
						{
							"internalType": "uint256",
							"name": "_index",
							"type": "uint256"
						}
					],
					"name": "getVehicle",
					"outputs": [
						{
							"components": [
								{
									"internalType": "string",
									"name": "make",
									"type": "string"
								},
								{
									"internalType": "uint256",
									"name": "year",
									"type": "uint256"
								},
								{
									"internalType": "address",
									"name": "owner",
									"type": "address"
								}
							],
							"internalType": "struct StructTest.Vehicle",
							"name": "",
							"type": "tuple"
						}
					],
					"stateMutability": "view",
					"type": "function"
				},
				{
					"inputs": [
						{
							"internalType": "uint256",
							"name": "_index",
							"type": "uint256"
						}
					],
					"name": "getYear",
					"outputs": [
						{
							"internalType": "uint256",
							"name": "",
							"type": "uint256"
						}
					],
					"stateMutability": "view",
					"type": "function"
				},
				{
					"inputs": [
						{
							"internalType": "uint256",
							"name": "_index",
							"type": "uint256"
						},
						{
							"internalType": "uint256",
							"name": "_year",
							"type": "uint256"
						}
					],
					"name": "setYear",
					"outputs": [],
					"stateMutability": "nonpayable",
					"type": "function"
				},
				{
					"inputs": [],
					"name": "vehicle",
					"outputs": [
						{
							"internalType": "string",
							"name": "make",
							"type": "string"
						},
						{
							"internalType": "uint256",
							"name": "year",
							"type": "uint256"
						},
						{
							"internalType": "address",
							"name": "owner",
							"type": "address"
						}
					],
					"stateMutability": "view",
					"type": "function"
				},
				{
					"inputs": [
						{
							"internalType": "uint256",
							"name": "",
							"type": "uint256"
						}
					],
					"name": "vehicleArr",
					"outputs": [
						{
							"internalType": "string",
							"name": "make",
							"type": "string"
						},
						{
							"internalType": "uint256",
							"name": "year",
							"type": "uint256"
						},
						{
							"internalType": "address",
							"name": "owner",
							"type": "address"
						}
					],
					"stateMutability": "view",
					"type": "function"
				}
			],
			"devdoc": {
				"kind": "dev",
				"methods": {},
				"version": 1
			},
			"evm": {
				"assembly": "    /* \"contracts/StructsTest.sol\":423:2788  contract StructTest {... */\n  mstore(0x40, 0x80)\n  callvalue\n  dup1\n  iszero\n  tag_1\n  jumpi\n  0x00\n  dup1\n  revert\ntag_1:\n  pop\n  dataSize(sub_0)\n  dup1\n  dataOffset(sub_0)\n  0x00\n  codecopy\n  0x00\n  return\nstop\n\nsub_0: assembly {\n        /* \"contracts/StructsTest.sol\":423:2788  contract StructTest {... */\n      mstore(0x40, 0x80)\n      callvalue\n      dup1\n      iszero\n      tag_1\n      jumpi\n      0x00\n      dup1\n      revert\n    tag_1:\n      pop\n      jumpi(tag_2, lt(calldatasize, 0x04))\n      shr(0xe0, calldataload(0x00))\n      dup1\n      0x92d66313\n      gt\n      tag_11\n      jumpi\n      dup1\n      0x92d66313\n      eq\n      tag_7\n      jumpi\n      dup1\n      0x9375d9a9\n      eq\n      tag_8\n      jumpi\n      dup1\n      0xa098abc5\n      eq\n      tag_9\n      jumpi\n      dup1\n      0xdf7ebb7b\n      eq\n      tag_10\n      jumpi\n      jump(tag_2)\n    tag_11:\n      dup1\n      0x132a339b\n      eq\n      tag_3\n      jumpi\n      dup1\n      0x3a4a2c0b\n      eq\n      tag_4\n      jumpi\n      dup1\n      0x54353f2f\n      eq\n      tag_5\n      jumpi\n      dup1\n      0x837c72bb\n      eq\n      tag_6\n      jumpi\n    tag_2:\n      0x00\n      dup1\n      revert\n        /* \"contracts/StructsTest.sol\":602:624  Vehicle public vehicle */\n    tag_3:\n      tag_12\n      tag_13\n      jump\t// in\n    tag_12:\n      mload(0x40)\n      tag_14\n      swap4\n      swap3\n      swap2\n      swap1\n      tag_15\n      jump\t// in\n    tag_14:\n      mload(0x40)\n      dup1\n      swap2\n      sub\n      swap1\n      return\n        /* \"contracts/StructsTest.sol\":1497:1650  function deleteVehicle(uint _index) public {... */\n    tag_4:\n      tag_16\n      0x04\n      dup1\n      calldatasize\n      sub\n      dup2\n      add\n      swap1\n      tag_17\n      swap2\n      swap1\n      tag_18\n      jump\t// in\n    tag_17:\n      tag_19\n      jump\t// in\n    tag_16:\n      stop\n        /* \"contracts/StructsTest.sol\":1682:2786  function example() external {... */\n    tag_5:\n      tag_20\n      tag_21\n      jump\t// in\n    tag_20:\n      stop\n        /* \"contracts/StructsTest.sol\":664:950  function addToVehicle(... */\n    tag_6:\n      tag_22\n      0x04\n      dup1\n      calldatasize\n      sub\n      dup2\n      add\n      swap1\n      tag_23\n      swap2\n      swap1\n      tag_24\n      jump\t// in\n    tag_23:\n      tag_25\n      jump\t// in\n    tag_22:\n      stop\n        /* \"contracts/StructsTest.sol\":956:1130  function getYear(uint _index) external view returns (uint) {... */\n    tag_7:\n      tag_26\n      0x04\n      dup1\n      calldatasize\n      sub\n      dup2\n      add\n      swap1\n      tag_27\n      swap2\n      swap1\n      tag_18\n      jump\t// in\n    tag_27:\n      tag_28\n      jump\t// in\n    tag_26:\n      mload(0x40)\n      tag_29\n      swap2\n      swap1\n      tag_30\n      jump\t// in\n    tag_29:\n      mload(0x40)\n      dup1\n      swap2\n      sub\n      swap1\n      return\n        /* \"contracts/StructsTest.sol\":630:657  Vehicle[] public vehicleArr */\n    tag_8:\n      tag_31\n      0x04\n      dup1\n      calldatasize\n      sub\n      dup2\n      add\n      swap1\n      tag_32\n      swap2\n      swap1\n      tag_18\n      jump\t// in\n    tag_32:\n      tag_33\n      jump\t// in\n    tag_31:\n      mload(0x40)\n      tag_34\n      swap4\n      swap3\n      swap2\n      swap1\n      tag_15\n      jump\t// in\n    tag_34:\n      mload(0x40)\n      dup1\n      swap2\n      sub\n      swap1\n      return\n        /* \"contracts/StructsTest.sol\":1136:1303  function setYear(uint _index, uint _year) external {... */\n    tag_9:\n      tag_35\n      0x04\n      dup1\n      calldatasize\n      sub\n      dup2\n      add\n      swap1\n      tag_36\n      swap2\n      swap1\n      tag_37\n      jump\t// in\n    tag_36:\n      tag_38\n      jump\t// in\n    tag_35:\n      stop\n        /* \"contracts/StructsTest.sol\":1309:1491  function getVehicle(uint _index) external view returns (Vehicle memory) {... */\n    tag_10:\n      tag_39\n      0x04\n      dup1\n      calldatasize\n      sub\n      dup2\n      add\n      swap1\n      tag_40\n      swap2\n      swap1\n      tag_18\n      jump\t// in\n    tag_40:\n      tag_41\n      jump\t// in\n    tag_39:\n      mload(0x40)\n      tag_42\n      swap2\n      swap1\n      tag_43\n      jump\t// in\n    tag_42:\n      mload(0x40)\n      dup1\n      swap2\n      sub\n      swap1\n      return\n        /* \"contracts/StructsTest.sol\":602:624  Vehicle public vehicle */\n    tag_13:\n      0x00\n      dup1\n      0x00\n      add\n      dup1\n      sload\n      tag_44\n      swap1\n      tag_45\n      jump\t// in\n    tag_44:\n      dup1\n      0x1f\n      add\n      0x20\n      dup1\n      swap2\n      div\n      mul\n      0x20\n      add\n      mload(0x40)\n      swap1\n      dup2\n      add\n      0x40\n      mstore\n      dup1\n      swap3\n      swap2\n      swap1\n      dup2\n      dup2\n      mstore\n      0x20\n      add\n      dup3\n      dup1\n      sload\n      tag_46\n      swap1\n      tag_45\n      jump\t// in\n    tag_46:\n      dup1\n      iszero\n      tag_47\n      jumpi\n      dup1\n      0x1f\n      lt\n      tag_48\n      jumpi\n      0x0100\n      dup1\n      dup4\n      sload\n      div\n      mul\n      dup4\n      mstore\n      swap2\n      0x20\n      add\n      swap2\n      jump(tag_47)\n    tag_48:\n      dup3\n      add\n      swap2\n      swap1\n      0x00\n      mstore\n      keccak256(0x00, 0x20)\n      swap1\n    tag_49:\n      dup2\n      sload\n      dup2\n      mstore\n      swap1\n      0x01\n      add\n      swap1\n      0x20\n      add\n      dup1\n      dup4\n      gt\n      tag_49\n      jumpi\n      dup3\n      swap1\n      sub\n      0x1f\n      and\n      dup3\n      add\n      swap2\n    tag_47:\n      pop\n      pop\n      pop\n      pop\n      pop\n      swap1\n      dup1\n      0x01\n      add\n      sload\n      swap1\n      dup1\n      0x02\n      add\n      0x00\n      swap1\n      sload\n      swap1\n      0x0100\n      exp\n      swap1\n      div\n      0xffffffffffffffffffffffffffffffffffffffff\n      and\n      swap1\n      pop\n      dup4\n      jump\t// out\n        /* \"contracts/StructsTest.sol\":1497:1650  function deleteVehicle(uint _index) public {... */\n    tag_19:\n        /* \"contracts/StructsTest.sol\":1567:1577  vehicleArr */\n      0x03\n        /* \"contracts/StructsTest.sol\":1567:1584  vehicleArr.length */\n      dup1\n      sload\n      swap1\n      pop\n        /* \"contracts/StructsTest.sol\":1558:1564  _index */\n      dup2\n        /* \"contracts/StructsTest.sol\":1558:1584  _index < vehicleArr.length */\n      lt\n        /* \"contracts/StructsTest.sol\":1550:1608  require(_index < vehicleArr.length, \"index out of bounds\") */\n      tag_51\n      jumpi\n      mload(0x40)\n      0x08c379a000000000000000000000000000000000000000000000000000000000\n      dup2\n      mstore\n      0x04\n      add\n      tag_52\n      swap1\n      tag_53\n      jump\t// in\n    tag_52:\n      mload(0x40)\n      dup1\n      swap2\n      sub\n      swap1\n      revert\n    tag_51:\n        /* \"contracts/StructsTest.sol\":1625:1635  vehicleArr */\n      0x03\n        /* \"contracts/StructsTest.sol\":1636:1642  _index */\n      dup2\n        /* \"contracts/StructsTest.sol\":1625:1643  vehicleArr[_index] */\n      dup2\n      sload\n      dup2\n      lt\n      tag_54\n      jumpi\n      tag_55\n      tag_56\n      jump\t// in\n    tag_55:\n    tag_54:\n      swap1\n      0x00\n      mstore\n      keccak256(0x00, 0x20)\n      swap1\n      0x03\n      mul\n      add\n      0x00\n        /* \"contracts/StructsTest.sol\":1618:1643  delete vehicleArr[_index] */\n      dup1\n      dup3\n      add\n      0x00\n      tag_58\n      swap2\n      swap1\n      tag_59\n      jump\t// in\n    tag_58:\n      0x01\n      dup3\n      add\n      0x00\n      swap1\n      sstore\n      0x02\n      dup3\n      add\n      exp(0x0100, 0x00)\n      dup2\n      sload\n      swap1\n      0xffffffffffffffffffffffffffffffffffffffff\n      mul\n      not\n      and\n      swap1\n      sstore\n      pop\n      pop\n        /* \"contracts/StructsTest.sol\":1497:1650  function deleteVehicle(uint _index) public {... */\n      pop\n      jump\t// out\n        /* \"contracts/StructsTest.sol\":1682:2786  function example() external {... */\n    tag_21:\n        /* \"contracts/StructsTest.sol\":1994:2004  vehicleArr */\n      0x03\n        /* \"contracts/StructsTest.sol\":2010:2043  Vehicle(\"bmw1\", 2001, address(1)) */\n      mload(0x40)\n      dup1\n      0x60\n      add\n      0x40\n      mstore\n      dup1\n      mload(0x40)\n      dup1\n      0x40\n      add\n      0x40\n      mstore\n      dup1\n      0x04\n      dup2\n      mstore\n      0x20\n      add\n      0x626d773100000000000000000000000000000000000000000000000000000000\n      dup2\n      mstore\n      pop\n      dup2\n      mstore\n      0x20\n      add\n        /* \"contracts/StructsTest.sol\":2026:2030  2001 */\n      0x07d1\n        /* \"contracts/StructsTest.sol\":2010:2043  Vehicle(\"bmw1\", 2001, address(1)) */\n      dup2\n      mstore\n      0x20\n      add\n        /* \"contracts/StructsTest.sol\":2040:2041  1 */\n      0x01\n        /* \"contracts/StructsTest.sol\":2010:2043  Vehicle(\"bmw1\", 2001, address(1)) */\n      0xffffffffffffffffffffffffffffffffffffffff\n      and\n      dup2\n      mstore\n      pop\n        /* \"contracts/StructsTest.sol\":1994:2044  vehicleArr.push(Vehicle(\"bmw1\", 2001, address(1))) */\n      swap1\n      dup1\n      0x01\n      dup2\n      sload\n      add\n      dup1\n      dup3\n      sstore\n      dup1\n      swap2\n      pop\n      pop\n      0x01\n      swap1\n      sub\n      swap1\n      0x00\n      mstore\n      keccak256(0x00, 0x20)\n      swap1\n      0x03\n      mul\n      add\n      0x00\n      swap1\n      swap2\n      swap1\n      swap2\n      swap1\n      swap2\n      pop\n      0x00\n      dup3\n      add\n      mload\n      dup2\n      0x00\n      add\n      swap1\n      dup1\n      mload\n      swap1\n      0x20\n      add\n      swap1\n      tag_62\n      swap3\n      swap2\n      swap1\n      tag_63\n      jump\t// in\n    tag_62:\n      pop\n      0x20\n      dup3\n      add\n      mload\n      dup2\n      0x01\n      add\n      sstore\n      0x40\n      dup3\n      add\n      mload\n      dup2\n      0x02\n      add\n      exp(0x0100, 0x00)\n      dup2\n      sload\n      dup2\n      0xffffffffffffffffffffffffffffffffffffffff\n      mul\n      not\n      and\n      swap1\n      dup4\n      0xffffffffffffffffffffffffffffffffffffffff\n      and\n      mul\n      or\n      swap1\n      sstore\n      pop\n      pop\n      pop\n        /* \"contracts/StructsTest.sol\":2054:2064  vehicleArr */\n      0x03\n        /* \"contracts/StructsTest.sol\":2070:2103  Vehicle(\"bmw2\", 2002, address(2)) */\n      mload(0x40)\n      dup1\n      0x60\n      add\n      0x40\n      mstore\n      dup1\n      mload(0x40)\n      dup1\n      0x40\n      add\n      0x40\n      mstore\n      dup1\n      0x04\n      dup2\n      mstore\n      0x20\n      add\n      0x626d773200000000000000000000000000000000000000000000000000000000\n      dup2\n      mstore\n      pop\n      dup2\n      mstore\n      0x20\n      add\n        /* \"contracts/StructsTest.sol\":2086:2090  2002 */\n      0x07d2\n        /* \"contracts/StructsTest.sol\":2070:2103  Vehicle(\"bmw2\", 2002, address(2)) */\n      dup2\n      mstore\n      0x20\n      add\n        /* \"contracts/StructsTest.sol\":2100:2101  2 */\n      0x02\n        /* \"contracts/StructsTest.sol\":2070:2103  Vehicle(\"bmw2\", 2002, address(2)) */\n      0xffffffffffffffffffffffffffffffffffffffff\n      and\n      dup2\n      mstore\n      pop\n        /* \"contracts/StructsTest.sol\":2054:2104  vehicleArr.push(Vehicle(\"bmw2\", 2002, address(2))) */\n      swap1\n      dup1\n      0x01\n      dup2\n      sload\n      add\n      dup1\n      dup3\n      sstore\n      dup1\n      swap2\n      pop\n      pop\n      0x01\n      swap1\n      sub\n      swap1\n      0x00\n      mstore\n      keccak256(0x00, 0x20)\n      swap1\n      0x03\n      mul\n      add\n      0x00\n      swap1\n      swap2\n      swap1\n      swap2\n      swap1\n      swap2\n      pop\n      0x00\n      dup3\n      add\n      mload\n      dup2\n      0x00\n      add\n      swap1\n      dup1\n      mload\n      swap1\n      0x20\n      add\n      swap1\n      tag_65\n      swap3\n      swap2\n      swap1\n      tag_63\n      jump\t// in\n    tag_65:\n      pop\n      0x20\n      dup3\n      add\n      mload\n      dup2\n      0x01\n      add\n      sstore\n      0x40\n      dup3\n      add\n      mload\n      dup2\n      0x02\n      add\n      exp(0x0100, 0x00)\n      dup2\n      sload\n      dup2\n      0xffffffffffffffffffffffffffffffffffffffff\n      mul\n      not\n      and\n      swap1\n      dup4\n      0xffffffffffffffffffffffffffffffffffffffff\n      and\n      mul\n      or\n      swap1\n      sstore\n      pop\n      pop\n      pop\n        /* \"contracts/StructsTest.sol\":2136:2155  Vehicle memory bmw3 */\n      0x00\n        /* \"contracts/StructsTest.sol\":2158:2191  Vehicle(\"bmw3\", 2003, address(3)) */\n      mload(0x40)\n      dup1\n      0x60\n      add\n      0x40\n      mstore\n      dup1\n      mload(0x40)\n      dup1\n      0x40\n      add\n      0x40\n      mstore\n      dup1\n      0x04\n      dup2\n      mstore\n      0x20\n      add\n      0x626d773300000000000000000000000000000000000000000000000000000000\n      dup2\n      mstore\n      pop\n      dup2\n      mstore\n      0x20\n      add\n        /* \"contracts/StructsTest.sol\":2174:2178  2003 */\n      0x07d3\n        /* \"contracts/StructsTest.sol\":2158:2191  Vehicle(\"bmw3\", 2003, address(3)) */\n      dup2\n      mstore\n      0x20\n      add\n        /* \"contracts/StructsTest.sol\":2188:2189  3 */\n      0x03\n        /* \"contracts/StructsTest.sol\":2158:2191  Vehicle(\"bmw3\", 2003, address(3)) */\n      0xffffffffffffffffffffffffffffffffffffffff\n      and\n      dup2\n      mstore\n      pop\n        /* \"contracts/StructsTest.sol\":2136:2191  Vehicle memory bmw3 = Vehicle(\"bmw3\", 2003, address(3)) */\n      swap1\n      pop\n        /* \"contracts/StructsTest.sol\":2222:2241  Vehicle memory bmw4 */\n      0x00\n        /* \"contracts/StructsTest.sol\":2244:2344  Vehicle({... */\n      mload(0x40)\n      dup1\n      0x60\n      add\n      0x40\n      mstore\n      dup1\n      mload(0x40)\n      dup1\n      0x40\n      add\n      0x40\n      mstore\n      dup1\n      0x04\n      dup2\n      mstore\n      0x20\n      add\n      0x626d773400000000000000000000000000000000000000000000000000000000\n      dup2\n      mstore\n      pop\n      dup2\n      mstore\n      0x20\n      add\n        /* \"contracts/StructsTest.sol\":2298:2302  2004 */\n      0x07d4\n        /* \"contracts/StructsTest.sol\":2244:2344  Vehicle({... */\n      dup2\n      mstore\n      0x20\n      add\n        /* \"contracts/StructsTest.sol\":2331:2332  4 */\n      0x04\n        /* \"contracts/StructsTest.sol\":2244:2344  Vehicle({... */\n      0xffffffffffffffffffffffffffffffffffffffff\n      and\n      dup2\n      mstore\n      pop\n        /* \"contracts/StructsTest.sol\":2222:2344  Vehicle memory bmw4 = Vehicle({... */\n      swap1\n      pop\n        /* \"contracts/StructsTest.sol\":2375:2394  Vehicle memory jeep */\n      tag_66\n      tag_67\n      jump\t// in\n    tag_66:\n        /* \"contracts/StructsTest.sol\":2404:2422  jeep.make = \"Jeep\" */\n      mload(0x40)\n      dup1\n      0x40\n      add\n      0x40\n      mstore\n      dup1\n      0x04\n      dup2\n      mstore\n      0x20\n      add\n      0x4a65657000000000000000000000000000000000000000000000000000000000\n      dup2\n      mstore\n      pop\n        /* \"contracts/StructsTest.sol\":2404:2408  jeep */\n      dup2\n        /* \"contracts/StructsTest.sol\":2404:2413  jeep.make */\n      0x00\n      add\n        /* \"contracts/StructsTest.sol\":2404:2422  jeep.make = \"Jeep\" */\n      dup2\n      swap1\n      mstore\n      pop\n        /* \"contracts/StructsTest.sol\":2444:2448  2005 */\n      0x07d5\n        /* \"contracts/StructsTest.sol\":2432:2436  jeep */\n      dup2\n        /* \"contracts/StructsTest.sol\":2432:2441  jeep.year */\n      0x20\n      add\n        /* \"contracts/StructsTest.sol\":2432:2448  jeep.year = 2005 */\n      dup2\n      dup2\n      mstore\n      pop\n      pop\n        /* \"contracts/StructsTest.sol\":2479:2480  5 */\n      0x05\n        /* \"contracts/StructsTest.sol\":2458:2462  jeep */\n      dup2\n        /* \"contracts/StructsTest.sol\":2458:2468  jeep.owner */\n      0x40\n      add\n        /* \"contracts/StructsTest.sol\":2458:2481  jeep.owner = address(5) */\n      swap1\n      0xffffffffffffffffffffffffffffffffffffffff\n      and\n      swap1\n      dup2\n      0xffffffffffffffffffffffffffffffffffffffff\n      and\n      dup2\n      mstore\n      pop\n      pop\n        /* \"contracts/StructsTest.sol\":2492:2502  vehicleArr */\n      0x03\n        /* \"contracts/StructsTest.sol\":2508:2512  bmw3 */\n      dup4\n        /* \"contracts/StructsTest.sol\":2492:2513  vehicleArr.push(bmw3) */\n      swap1\n      dup1\n      0x01\n      dup2\n      sload\n      add\n      dup1\n      dup3\n      sstore\n      dup1\n      swap2\n      pop\n      pop\n      0x01\n      swap1\n      sub\n      swap1\n      0x00\n      mstore\n      keccak256(0x00, 0x20)\n      swap1\n      0x03\n      mul\n      add\n      0x00\n      swap1\n      swap2\n      swap1\n      swap2\n      swap1\n      swap2\n      pop\n      0x00\n      dup3\n      add\n      mload\n      dup2\n      0x00\n      add\n      swap1\n      dup1\n      mload\n      swap1\n      0x20\n      add\n      swap1\n      tag_69\n      swap3\n      swap2\n      swap1\n      tag_63\n      jump\t// in\n    tag_69:\n      pop\n      0x20\n      dup3\n      add\n      mload\n      dup2\n      0x01\n      add\n      sstore\n      0x40\n      dup3\n      add\n      mload\n      dup2\n      0x02\n      add\n      exp(0x0100, 0x00)\n      dup2\n      sload\n      dup2\n      0xffffffffffffffffffffffffffffffffffffffff\n      mul\n      not\n      and\n      swap1\n      dup4\n      0xffffffffffffffffffffffffffffffffffffffff\n      and\n      mul\n      or\n      swap1\n      sstore\n      pop\n      pop\n      pop\n        /* \"contracts/StructsTest.sol\":2523:2533  vehicleArr */\n      0x03\n        /* \"contracts/StructsTest.sol\":2539:2543  bmw4 */\n      dup3\n        /* \"contracts/StructsTest.sol\":2523:2544  vehicleArr.push(bmw4) */\n      swap1\n      dup1\n      0x01\n      dup2\n      sload\n      add\n      dup1\n      dup3\n      sstore\n      dup1\n      swap2\n      pop\n      pop\n      0x01\n      swap1\n      sub\n      swap1\n      0x00\n      mstore\n      keccak256(0x00, 0x20)\n      swap1\n      0x03\n      mul\n      add\n      0x00\n      swap1\n      swap2\n      swap1\n      swap2\n      swap1\n      swap2\n      pop\n      0x00\n      dup3\n      add\n      mload\n      dup2\n      0x00\n      add\n      swap1\n      dup1\n      mload\n      swap1\n      0x20\n      add\n      swap1\n      tag_71\n      swap3\n      swap2\n      swap1\n      tag_63\n      jump\t// in\n    tag_71:\n      pop\n      0x20\n      dup3\n      add\n      mload\n      dup2\n      0x01\n      add\n      sstore\n      0x40\n      dup3\n      add\n      mload\n      dup2\n      0x02\n      add\n      exp(0x0100, 0x00)\n      dup2\n      sload\n      dup2\n      0xffffffffffffffffffffffffffffffffffffffff\n      mul\n      not\n      and\n      swap1\n      dup4\n      0xffffffffffffffffffffffffffffffffffffffff\n      and\n      mul\n      or\n      swap1\n      sstore\n      pop\n      pop\n      pop\n        /* \"contracts/StructsTest.sol\":2554:2564  vehicleArr */\n      0x03\n        /* \"contracts/StructsTest.sol\":2570:2574  jeep */\n      dup2\n        /* \"contracts/StructsTest.sol\":2554:2575  vehicleArr.push(jeep) */\n      swap1\n      dup1\n      0x01\n      dup2\n      sload\n      add\n      dup1\n      dup3\n      sstore\n      dup1\n      swap2\n      pop\n      pop\n      0x01\n      swap1\n      sub\n      swap1\n      0x00\n      mstore\n      keccak256(0x00, 0x20)\n      swap1\n      0x03\n      mul\n      add\n      0x00\n      swap1\n      swap2\n      swap1\n      swap2\n      swap1\n      swap2\n      pop\n      0x00\n      dup3\n      add\n      mload\n      dup2\n      0x00\n      add\n      swap1\n      dup1\n      mload\n      swap1\n      0x20\n      add\n      swap1\n      tag_73\n      swap3\n      swap2\n      swap1\n      tag_63\n      jump\t// in\n    tag_73:\n      pop\n      0x20\n      dup3\n      add\n      mload\n      dup2\n      0x01\n      add\n      sstore\n      0x40\n      dup3\n      add\n      mload\n      dup2\n      0x02\n      add\n      exp(0x0100, 0x00)\n      dup2\n      sload\n      dup2\n      0xffffffffffffffffffffffffffffffffffffffff\n      mul\n      not\n      and\n      swap1\n      dup4\n      0xffffffffffffffffffffffffffffffffffffffff\n      and\n      mul\n      or\n      swap1\n      sstore\n      pop\n      pop\n      pop\n        /* \"contracts/StructsTest.sol\":2585:2595  vehicleArr */\n      0x03\n        /* \"contracts/StructsTest.sol\":2601:2633  Vehicle(\"QIRUI\",2024,address(6)) */\n      mload(0x40)\n      dup1\n      0x60\n      add\n      0x40\n      mstore\n      dup1\n      mload(0x40)\n      dup1\n      0x40\n      add\n      0x40\n      mstore\n      dup1\n      0x05\n      dup2\n      mstore\n      0x20\n      add\n      0x5149525549000000000000000000000000000000000000000000000000000000\n      dup2\n      mstore\n      pop\n      dup2\n      mstore\n      0x20\n      add\n        /* \"contracts/StructsTest.sol\":2617:2621  2024 */\n      0x07e8\n        /* \"contracts/StructsTest.sol\":2601:2633  Vehicle(\"QIRUI\",2024,address(6)) */\n      dup2\n      mstore\n      0x20\n      add\n        /* \"contracts/StructsTest.sol\":2630:2631  6 */\n      0x06\n        /* \"contracts/StructsTest.sol\":2601:2633  Vehicle(\"QIRUI\",2024,address(6)) */\n      0xffffffffffffffffffffffffffffffffffffffff\n      and\n      dup2\n      mstore\n      pop\n        /* \"contracts/StructsTest.sol\":2585:2634  vehicleArr.push(Vehicle(\"QIRUI\",2024,address(6))) */\n      swap1\n      dup1\n      0x01\n      dup2\n      sload\n      add\n      dup1\n      dup3\n      sstore\n      dup1\n      swap2\n      pop\n      pop\n      0x01\n      swap1\n      sub\n      swap1\n      0x00\n      mstore\n      keccak256(0x00, 0x20)\n      swap1\n      0x03\n      mul\n      add\n      0x00\n      swap1\n      swap2\n      swap1\n      swap2\n      swap1\n      swap2\n      pop\n      0x00\n      dup3\n      add\n      mload\n      dup2\n      0x00\n      add\n      swap1\n      dup1\n      mload\n      swap1\n      0x20\n      add\n      swap1\n      tag_75\n      swap3\n      swap2\n      swap1\n      tag_63\n      jump\t// in\n    tag_75:\n      pop\n      0x20\n      dup3\n      add\n      mload\n      dup2\n      0x01\n      add\n      sstore\n      0x40\n      dup3\n      add\n      mload\n      dup2\n      0x02\n      add\n      exp(0x0100, 0x00)\n      dup2\n      sload\n      dup2\n      0xffffffffffffffffffffffffffffffffffffffff\n      mul\n      not\n      and\n      swap1\n      dup4\n      0xffffffffffffffffffffffffffffffffffffffff\n      and\n      mul\n      or\n      swap1\n      sstore\n      pop\n      pop\n      pop\n        /* \"contracts/StructsTest.sol\":2645:2664  Vehicle storage _ve */\n      0x00\n        /* \"contracts/StructsTest.sol\":2667:2677  vehicleArr */\n      0x03\n        /* \"contracts/StructsTest.sol\":2678:2679  4 */\n      0x04\n        /* \"contracts/StructsTest.sol\":2667:2680  vehicleArr[4] */\n      dup2\n      sload\n      dup2\n      lt\n      tag_76\n      jumpi\n      tag_77\n      tag_56\n      jump\t// in\n    tag_77:\n    tag_76:\n      swap1\n      0x00\n      mstore\n      keccak256(0x00, 0x20)\n      swap1\n      0x03\n      mul\n      add\n        /* \"contracts/StructsTest.sol\":2645:2680  Vehicle storage _ve = vehicleArr[4] */\n      swap1\n      pop\n        /* \"contracts/StructsTest.sol\":2701:2705  2026 */\n      0x07ea\n        /* \"contracts/StructsTest.sol\":2690:2693  _ve */\n      dup2\n        /* \"contracts/StructsTest.sol\":2690:2698  _ve.year */\n      0x01\n      add\n        /* \"contracts/StructsTest.sol\":2690:2705  _ve.year = 2026 */\n      dup2\n      swap1\n      sstore\n      pop\n        /* \"contracts/StructsTest.sol\":2740:2743  _ve */\n      dup1\n        /* \"contracts/StructsTest.sol\":2740:2749  _ve.owner */\n      0x02\n      add\n      0x00\n        /* \"contracts/StructsTest.sol\":2733:2749  delete _ve.owner */\n      0x0100\n      exp\n      dup2\n      sload\n      swap1\n      0xffffffffffffffffffffffffffffffffffffffff\n      mul\n      not\n      and\n      swap1\n      sstore\n        /* \"contracts/StructsTest.sol\":2766:2776  vehicleArr */\n      0x03\n        /* \"contracts/StructsTest.sol\":2777:2778  0 */\n      0x00\n        /* \"contracts/StructsTest.sol\":2766:2779  vehicleArr[0] */\n      dup2\n      sload\n      dup2\n      lt\n      tag_79\n      jumpi\n      tag_80\n      tag_56\n      jump\t// in\n    tag_80:\n    tag_79:\n      swap1\n      0x00\n      mstore\n      keccak256(0x00, 0x20)\n      swap1\n      0x03\n      mul\n      add\n      0x00\n        /* \"contracts/StructsTest.sol\":2759:2779  delete vehicleArr[0] */\n      dup1\n      dup3\n      add\n      0x00\n      tag_82\n      swap2\n      swap1\n      tag_59\n      jump\t// in\n    tag_82:\n      0x01\n      dup3\n      add\n      0x00\n      swap1\n      sstore\n      0x02\n      dup3\n      add\n      exp(0x0100, 0x00)\n      dup2\n      sload\n      swap1\n      0xffffffffffffffffffffffffffffffffffffffff\n      mul\n      not\n      and\n      swap1\n      sstore\n      pop\n      pop\n        /* \"contracts/StructsTest.sol\":1710:2786  {... */\n      pop\n      pop\n      pop\n      pop\n        /* \"contracts/StructsTest.sol\":1682:2786  function example() external {... */\n      jump\t// out\n        /* \"contracts/StructsTest.sol\":664:950  function addToVehicle(... */\n    tag_25:\n        /* \"contracts/StructsTest.sol\":820:837  Vehicle memory vs */\n      tag_84\n      tag_67\n      jump\t// in\n    tag_84:\n        /* \"contracts/StructsTest.sol\":857:862  _make */\n      dup4\n        /* \"contracts/StructsTest.sol\":847:849  vs */\n      dup2\n        /* \"contracts/StructsTest.sol\":847:854  vs.make */\n      0x00\n      add\n        /* \"contracts/StructsTest.sol\":847:862  vs.make = _make */\n      dup2\n      swap1\n      mstore\n      pop\n        /* \"contracts/StructsTest.sol\":882:887  _year */\n      dup3\n        /* \"contracts/StructsTest.sol\":872:874  vs */\n      dup2\n        /* \"contracts/StructsTest.sol\":872:879  vs.year */\n      0x20\n      add\n        /* \"contracts/StructsTest.sol\":872:887  vs.year = _year */\n      dup2\n      dup2\n      mstore\n      pop\n      pop\n        /* \"contracts/StructsTest.sol\":908:914  _owner */\n      dup2\n        /* \"contracts/StructsTest.sol\":897:899  vs */\n      dup2\n        /* \"contracts/StructsTest.sol\":897:905  vs.owner */\n      0x40\n      add\n        /* \"contracts/StructsTest.sol\":897:914  vs.owner = _owner */\n      swap1\n      0xffffffffffffffffffffffffffffffffffffffff\n      and\n      swap1\n      dup2\n      0xffffffffffffffffffffffffffffffffffffffff\n      and\n      dup2\n      mstore\n      pop\n      pop\n        /* \"contracts/StructsTest.sol\":924:934  vehicleArr */\n      0x03\n        /* \"contracts/StructsTest.sol\":940:942  vs */\n      dup2\n        /* \"contracts/StructsTest.sol\":924:943  vehicleArr.push(vs) */\n      swap1\n      dup1\n      0x01\n      dup2\n      sload\n      add\n      dup1\n      dup3\n      sstore\n      dup1\n      swap2\n      pop\n      pop\n      0x01\n      swap1\n      sub\n      swap1\n      0x00\n      mstore\n      keccak256(0x00, 0x20)\n      swap1\n      0x03\n      mul\n      add\n      0x00\n      swap1\n      swap2\n      swap1\n      swap2\n      swap1\n      swap2\n      pop\n      0x00\n      dup3\n      add\n      mload\n      dup2\n      0x00\n      add\n      swap1\n      dup1\n      mload\n      swap1\n      0x20\n      add\n      swap1\n      tag_86\n      swap3\n      swap2\n      swap1\n      tag_63\n      jump\t// in\n    tag_86:\n      pop\n      0x20\n      dup3\n      add\n      mload\n      dup2\n      0x01\n      add\n      sstore\n      0x40\n      dup3\n      add\n      mload\n      dup2\n      0x02\n      add\n      exp(0x0100, 0x00)\n      dup2\n      sload\n      dup2\n      0xffffffffffffffffffffffffffffffffffffffff\n      mul\n      not\n      and\n      swap1\n      dup4\n      0xffffffffffffffffffffffffffffffffffffffff\n      and\n      mul\n      or\n      swap1\n      sstore\n      pop\n      pop\n      pop\n        /* \"contracts/StructsTest.sol\":772:950  {... */\n      pop\n        /* \"contracts/StructsTest.sol\":664:950  function addToVehicle(... */\n      pop\n      pop\n      pop\n      jump\t// out\n        /* \"contracts/StructsTest.sol\":956:1130  function getYear(uint _index) external view returns (uint) {... */\n    tag_28:\n        /* \"contracts/StructsTest.sol\":1009:1013  uint */\n      0x00\n        /* \"contracts/StructsTest.sol\":1042:1052  vehicleArr */\n      0x03\n        /* \"contracts/StructsTest.sol\":1042:1059  vehicleArr.length */\n      dup1\n      sload\n      swap1\n      pop\n        /* \"contracts/StructsTest.sol\":1033:1039  _index */\n      dup3\n        /* \"contracts/StructsTest.sol\":1033:1059  _index < vehicleArr.length */\n      lt\n        /* \"contracts/StructsTest.sol\":1025:1083  require(_index < vehicleArr.length, \"index out of bounds\") */\n      tag_88\n      jumpi\n      mload(0x40)\n      0x08c379a000000000000000000000000000000000000000000000000000000000\n      dup2\n      mstore\n      0x04\n      add\n      tag_89\n      swap1\n      tag_53\n      jump\t// in\n    tag_89:\n      mload(0x40)\n      dup1\n      swap2\n      sub\n      swap1\n      revert\n    tag_88:\n        /* \"contracts/StructsTest.sol\":1100:1110  vehicleArr */\n      0x03\n        /* \"contracts/StructsTest.sol\":1111:1117  _index */\n      dup3\n        /* \"contracts/StructsTest.sol\":1100:1118  vehicleArr[_index] */\n      dup2\n      sload\n      dup2\n      lt\n      tag_90\n      jumpi\n      tag_91\n      tag_56\n      jump\t// in\n    tag_91:\n    tag_90:\n      swap1\n      0x00\n      mstore\n      keccak256(0x00, 0x20)\n      swap1\n      0x03\n      mul\n      add\n        /* \"contracts/StructsTest.sol\":1100:1123  vehicleArr[_index].year */\n      0x01\n      add\n      sload\n        /* \"contracts/StructsTest.sol\":1093:1123  return vehicleArr[_index].year */\n      swap1\n      pop\n        /* \"contracts/StructsTest.sol\":956:1130  function getYear(uint _index) external view returns (uint) {... */\n      swap2\n      swap1\n      pop\n      jump\t// out\n        /* \"contracts/StructsTest.sol\":630:657  Vehicle[] public vehicleArr */\n    tag_33:\n      0x03\n      dup2\n      dup2\n      sload\n      dup2\n      lt\n      tag_93\n      jumpi\n      0x00\n      dup1\n      revert\n    tag_93:\n      swap1\n      0x00\n      mstore\n      keccak256(0x00, 0x20)\n      swap1\n      0x03\n      mul\n      add\n      0x00\n      swap2\n      pop\n      swap1\n      pop\n      dup1\n      0x00\n      add\n      dup1\n      sload\n      tag_95\n      swap1\n      tag_45\n      jump\t// in\n    tag_95:\n      dup1\n      0x1f\n      add\n      0x20\n      dup1\n      swap2\n      div\n      mul\n      0x20\n      add\n      mload(0x40)\n      swap1\n      dup2\n      add\n      0x40\n      mstore\n      dup1\n      swap3\n      swap2\n      swap1\n      dup2\n      dup2\n      mstore\n      0x20\n      add\n      dup3\n      dup1\n      sload\n      tag_96\n      swap1\n      tag_45\n      jump\t// in\n    tag_96:\n      dup1\n      iszero\n      tag_97\n      jumpi\n      dup1\n      0x1f\n      lt\n      tag_98\n      jumpi\n      0x0100\n      dup1\n      dup4\n      sload\n      div\n      mul\n      dup4\n      mstore\n      swap2\n      0x20\n      add\n      swap2\n      jump(tag_97)\n    tag_98:\n      dup3\n      add\n      swap2\n      swap1\n      0x00\n      mstore\n      keccak256(0x00, 0x20)\n      swap1\n    tag_99:\n      dup2\n      sload\n      dup2\n      mstore\n      swap1\n      0x01\n      add\n      swap1\n      0x20\n      add\n      dup1\n      dup4\n      gt\n      tag_99\n      jumpi\n      dup3\n      swap1\n      sub\n      0x1f\n      and\n      dup3\n      add\n      swap2\n    tag_97:\n      pop\n      pop\n      pop\n      pop\n      pop\n      swap1\n      dup1\n      0x01\n      add\n      sload\n      swap1\n      dup1\n      0x02\n      add\n      0x00\n      swap1\n      sload\n      swap1\n      0x0100\n      exp\n      swap1\n      div\n      0xffffffffffffffffffffffffffffffffffffffff\n      and\n      swap1\n      pop\n      dup4\n      jump\t// out\n        /* \"contracts/StructsTest.sol\":1136:1303  function setYear(uint _index, uint _year) external {... */\n    tag_38:\n        /* \"contracts/StructsTest.sol\":1214:1224  vehicleArr */\n      0x03\n        /* \"contracts/StructsTest.sol\":1214:1231  vehicleArr.length */\n      dup1\n      sload\n      swap1\n      pop\n        /* \"contracts/StructsTest.sol\":1205:1211  _index */\n      dup3\n        /* \"contracts/StructsTest.sol\":1205:1231  _index < vehicleArr.length */\n      lt\n        /* \"contracts/StructsTest.sol\":1197:1255  require(_index < vehicleArr.length, \"index out of bounds\") */\n      tag_101\n      jumpi\n      mload(0x40)\n      0x08c379a000000000000000000000000000000000000000000000000000000000\n      dup2\n      mstore\n      0x04\n      add\n      tag_102\n      swap1\n      tag_53\n      jump\t// in\n    tag_102:\n      mload(0x40)\n      dup1\n      swap2\n      sub\n      swap1\n      revert\n    tag_101:\n        /* \"contracts/StructsTest.sol\":1291:1296  _year */\n      dup1\n        /* \"contracts/StructsTest.sol\":1265:1275  vehicleArr */\n      0x03\n        /* \"contracts/StructsTest.sol\":1276:1282  _index */\n      dup4\n        /* \"contracts/StructsTest.sol\":1265:1283  vehicleArr[_index] */\n      dup2\n      sload\n      dup2\n      lt\n      tag_103\n      jumpi\n      tag_104\n      tag_56\n      jump\t// in\n    tag_104:\n    tag_103:\n      swap1\n      0x00\n      mstore\n      keccak256(0x00, 0x20)\n      swap1\n      0x03\n      mul\n      add\n        /* \"contracts/StructsTest.sol\":1265:1288  vehicleArr[_index].year */\n      0x01\n      add\n        /* \"contracts/StructsTest.sol\":1265:1296  vehicleArr[_index].year = _year */\n      dup2\n      swap1\n      sstore\n      pop\n        /* \"contracts/StructsTest.sol\":1136:1303  function setYear(uint _index, uint _year) external {... */\n      pop\n      pop\n      jump\t// out\n        /* \"contracts/StructsTest.sol\":1309:1491  function getVehicle(uint _index) external view returns (Vehicle memory) {... */\n    tag_41:\n        /* \"contracts/StructsTest.sol\":1365:1379  Vehicle memory */\n      tag_106\n      tag_67\n      jump\t// in\n    tag_106:\n        /* \"contracts/StructsTest.sol\":1408:1418  vehicleArr */\n      0x03\n        /* \"contracts/StructsTest.sol\":1408:1425  vehicleArr.length */\n      dup1\n      sload\n      swap1\n      pop\n        /* \"contracts/StructsTest.sol\":1399:1405  _index */\n      dup3\n        /* \"contracts/StructsTest.sol\":1399:1425  _index < vehicleArr.length */\n      lt\n        /* \"contracts/StructsTest.sol\":1391:1449  require(_index < vehicleArr.length, \"index out of bounds\") */\n      tag_108\n      jumpi\n      mload(0x40)\n      0x08c379a000000000000000000000000000000000000000000000000000000000\n      dup2\n      mstore\n      0x04\n      add\n      tag_109\n      swap1\n      tag_53\n      jump\t// in\n    tag_109:\n      mload(0x40)\n      dup1\n      swap2\n      sub\n      swap1\n      revert\n    tag_108:\n        /* \"contracts/StructsTest.sol\":1466:1476  vehicleArr */\n      0x03\n        /* \"contracts/StructsTest.sol\":1477:1483  _index */\n      dup3\n        /* \"contracts/StructsTest.sol\":1466:1484  vehicleArr[_index] */\n      dup2\n      sload\n      dup2\n      lt\n      tag_110\n      jumpi\n      tag_111\n      tag_56\n      jump\t// in\n    tag_111:\n    tag_110:\n      swap1\n      0x00\n      mstore\n      keccak256(0x00, 0x20)\n      swap1\n      0x03\n      mul\n      add\n        /* \"contracts/StructsTest.sol\":1459:1484  return vehicleArr[_index] */\n      mload(0x40)\n      dup1\n      0x60\n      add\n      0x40\n      mstore\n      swap1\n      dup2\n      0x00\n      dup3\n      add\n      dup1\n      sload\n      tag_113\n      swap1\n      tag_45\n      jump\t// in\n    tag_113:\n      dup1\n      0x1f\n      add\n      0x20\n      dup1\n      swap2\n      div\n      mul\n      0x20\n      add\n      mload(0x40)\n      swap1\n      dup2\n      add\n      0x40\n      mstore\n      dup1\n      swap3\n      swap2\n      swap1\n      dup2\n      dup2\n      mstore\n      0x20\n      add\n      dup3\n      dup1\n      sload\n      tag_114\n      swap1\n      tag_45\n      jump\t// in\n    tag_114:\n      dup1\n      iszero\n      tag_115\n      jumpi\n      dup1\n      0x1f\n      lt\n      tag_116\n      jumpi\n      0x0100\n      dup1\n      dup4\n      sload\n      div\n      mul\n      dup4\n      mstore\n      swap2\n      0x20\n      add\n      swap2\n      jump(tag_115)\n    tag_116:\n      dup3\n      add\n      swap2\n      swap1\n      0x00\n      mstore\n      keccak256(0x00, 0x20)\n      swap1\n    tag_117:\n      dup2\n      sload\n      dup2\n      mstore\n      swap1\n      0x01\n      add\n      swap1\n      0x20\n      add\n      dup1\n      dup4\n      gt\n      tag_117\n      jumpi\n      dup3\n      swap1\n      sub\n      0x1f\n      and\n      dup3\n      add\n      swap2\n    tag_115:\n      pop\n      pop\n      pop\n      pop\n      pop\n      dup2\n      mstore\n      0x20\n      add\n      0x01\n      dup3\n      add\n      sload\n      dup2\n      mstore\n      0x20\n      add\n      0x02\n      dup3\n      add\n      0x00\n      swap1\n      sload\n      swap1\n      0x0100\n      exp\n      swap1\n      div\n      0xffffffffffffffffffffffffffffffffffffffff\n      and\n      0xffffffffffffffffffffffffffffffffffffffff\n      and\n      0xffffffffffffffffffffffffffffffffffffffff\n      and\n      dup2\n      mstore\n      pop\n      pop\n      swap1\n      pop\n        /* \"contracts/StructsTest.sol\":1309:1491  function getVehicle(uint _index) external view returns (Vehicle memory) {... */\n      swap2\n      swap1\n      pop\n      jump\t// out\n    tag_59:\n      pop\n      dup1\n      sload\n      tag_118\n      swap1\n      tag_45\n      jump\t// in\n    tag_118:\n      0x00\n      dup3\n      sstore\n      dup1\n      0x1f\n      lt\n      tag_120\n      jumpi\n      pop\n      jump(tag_119)\n    tag_120:\n      0x1f\n      add\n      0x20\n      swap1\n      div\n      swap1\n      0x00\n      mstore\n      keccak256(0x00, 0x20)\n      swap1\n      dup2\n      add\n      swap1\n      tag_121\n      swap2\n      swap1\n      tag_122\n      jump\t// in\n    tag_121:\n    tag_119:\n      pop\n      jump\t// out\n    tag_63:\n      dup3\n      dup1\n      sload\n      tag_123\n      swap1\n      tag_45\n      jump\t// in\n    tag_123:\n      swap1\n      0x00\n      mstore\n      keccak256(0x00, 0x20)\n      swap1\n      0x1f\n      add\n      0x20\n      swap1\n      div\n      dup2\n      add\n      swap3\n      dup3\n      tag_125\n      jumpi\n      0x00\n      dup6\n      sstore\n      jump(tag_124)\n    tag_125:\n      dup3\n      0x1f\n      lt\n      tag_126\n      jumpi\n      dup1\n      mload\n      not(0xff)\n      and\n      dup4\n      dup1\n      add\n      or\n      dup6\n      sstore\n      jump(tag_124)\n    tag_126:\n      dup3\n      dup1\n      add\n      0x01\n      add\n      dup6\n      sstore\n      dup3\n      iszero\n      tag_124\n      jumpi\n      swap2\n      dup3\n      add\n    tag_127:\n      dup3\n      dup2\n      gt\n      iszero\n      tag_128\n      jumpi\n      dup3\n      mload\n      dup3\n      sstore\n      swap2\n      0x20\n      add\n      swap2\n      swap1\n      0x01\n      add\n      swap1\n      jump(tag_127)\n    tag_128:\n    tag_124:\n      pop\n      swap1\n      pop\n      tag_129\n      swap2\n      swap1\n      tag_122\n      jump\t// in\n    tag_129:\n      pop\n      swap1\n      jump\t// out\n    tag_67:\n      mload(0x40)\n      dup1\n      0x60\n      add\n      0x40\n      mstore\n      dup1\n      0x60\n      dup2\n      mstore\n      0x20\n      add\n      0x00\n      dup2\n      mstore\n      0x20\n      add\n      and(0xffffffffffffffffffffffffffffffffffffffff, 0x00)\n      dup2\n      mstore\n      pop\n      swap1\n      jump\t// out\n    tag_122:\n    tag_130:\n      dup1\n      dup3\n      gt\n      iszero\n      tag_131\n      jumpi\n      0x00\n      dup2\n      0x00\n      swap1\n      sstore\n      pop\n      0x01\n      add\n      jump(tag_130)\n    tag_131:\n      pop\n      swap1\n      jump\t// out\n        /* \"#utility.yul\":7:419   */\n    tag_133:\n        /* \"#utility.yul\":85:90   */\n      0x00\n        /* \"#utility.yul\":110:176   */\n      tag_135\n        /* \"#utility.yul\":126:175   */\n      tag_136\n        /* \"#utility.yul\":168:174   */\n      dup5\n        /* \"#utility.yul\":126:175   */\n      tag_137\n      jump\t// in\n    tag_136:\n        /* \"#utility.yul\":110:176   */\n      tag_138\n      jump\t// in\n    tag_135:\n        /* \"#utility.yul\":101:176   */\n      swap1\n      pop\n        /* \"#utility.yul\":199:205   */\n      dup3\n        /* \"#utility.yul\":192:197   */\n      dup2\n        /* \"#utility.yul\":185:206   */\n      mstore\n        /* \"#utility.yul\":237:241   */\n      0x20\n        /* \"#utility.yul\":230:235   */\n      dup2\n        /* \"#utility.yul\":226:242   */\n      add\n        /* \"#utility.yul\":275:278   */\n      dup5\n        /* \"#utility.yul\":266:272   */\n      dup5\n        /* \"#utility.yul\":261:264   */\n      dup5\n        /* \"#utility.yul\":257:273   */\n      add\n        /* \"#utility.yul\":254:279   */\n      gt\n        /* \"#utility.yul\":251:363   */\n      iszero\n      tag_139\n      jumpi\n        /* \"#utility.yul\":282:361   */\n      tag_140\n      tag_141\n      jump\t// in\n    tag_140:\n        /* \"#utility.yul\":251:363   */\n    tag_139:\n        /* \"#utility.yul\":372:413   */\n      tag_142\n        /* \"#utility.yul\":406:412   */\n      dup5\n        /* \"#utility.yul\":401:404   */\n      dup3\n        /* \"#utility.yul\":396:399   */\n      dup6\n        /* \"#utility.yul\":372:413   */\n      tag_143\n      jump\t// in\n    tag_142:\n        /* \"#utility.yul\":91:419   */\n      pop\n        /* \"#utility.yul\":7:419   */\n      swap4\n      swap3\n      pop\n      pop\n      pop\n      jump\t// out\n        /* \"#utility.yul\":425:564   */\n    tag_144:\n        /* \"#utility.yul\":471:476   */\n      0x00\n        /* \"#utility.yul\":509:515   */\n      dup2\n        /* \"#utility.yul\":496:516   */\n      calldataload\n        /* \"#utility.yul\":487:516   */\n      swap1\n      pop\n        /* \"#utility.yul\":525:558   */\n      tag_146\n        /* \"#utility.yul\":552:557   */\n      dup2\n        /* \"#utility.yul\":525:558   */\n      tag_147\n      jump\t// in\n    tag_146:\n        /* \"#utility.yul\":425:564   */\n      swap3\n      swap2\n      pop\n      pop\n      jump\t// out\n        /* \"#utility.yul\":584:924   */\n    tag_148:\n        /* \"#utility.yul\":640:645   */\n      0x00\n        /* \"#utility.yul\":689:692   */\n      dup3\n        /* \"#utility.yul\":682:686   */\n      0x1f\n        /* \"#utility.yul\":674:680   */\n      dup4\n        /* \"#utility.yul\":670:687   */\n      add\n        /* \"#utility.yul\":666:693   */\n      slt\n        /* \"#utility.yul\":656:778   */\n      tag_150\n      jumpi\n        /* \"#utility.yul\":697:776   */\n      tag_151\n      tag_152\n      jump\t// in\n    tag_151:\n        /* \"#utility.yul\":656:778   */\n    tag_150:\n        /* \"#utility.yul\":814:820   */\n      dup2\n        /* \"#utility.yul\":801:821   */\n      calldataload\n        /* \"#utility.yul\":839:918   */\n      tag_153\n        /* \"#utility.yul\":914:917   */\n      dup5\n        /* \"#utility.yul\":906:912   */\n      dup3\n        /* \"#utility.yul\":899:903   */\n      0x20\n        /* \"#utility.yul\":891:897   */\n      dup7\n        /* \"#utility.yul\":887:904   */\n      add\n        /* \"#utility.yul\":839:918   */\n      tag_133\n      jump\t// in\n    tag_153:\n        /* \"#utility.yul\":830:918   */\n      swap2\n      pop\n        /* \"#utility.yul\":646:924   */\n      pop\n        /* \"#utility.yul\":584:924   */\n      swap3\n      swap2\n      pop\n      pop\n      jump\t// out\n        /* \"#utility.yul\":930:1069   */\n    tag_154:\n        /* \"#utility.yul\":976:981   */\n      0x00\n        /* \"#utility.yul\":1014:1020   */\n      dup2\n        /* \"#utility.yul\":1001:1021   */\n      calldataload\n        /* \"#utility.yul\":992:1021   */\n      swap1\n      pop\n        /* \"#utility.yul\":1030:1063   */\n      tag_156\n        /* \"#utility.yul\":1057:1062   */\n      dup2\n        /* \"#utility.yul\":1030:1063   */\n      tag_157\n      jump\t// in\n    tag_156:\n        /* \"#utility.yul\":930:1069   */\n      swap3\n      swap2\n      pop\n      pop\n      jump\t// out\n        /* \"#utility.yul\":1075:1874   */\n    tag_24:\n        /* \"#utility.yul\":1162:1168   */\n      0x00\n        /* \"#utility.yul\":1170:1176   */\n      dup1\n        /* \"#utility.yul\":1178:1184   */\n      0x00\n        /* \"#utility.yul\":1227:1229   */\n      0x60\n        /* \"#utility.yul\":1215:1224   */\n      dup5\n        /* \"#utility.yul\":1206:1213   */\n      dup7\n        /* \"#utility.yul\":1202:1225   */\n      sub\n        /* \"#utility.yul\":1198:1230   */\n      slt\n        /* \"#utility.yul\":1195:1314   */\n      iszero\n      tag_159\n      jumpi\n        /* \"#utility.yul\":1233:1312   */\n      tag_160\n      tag_161\n      jump\t// in\n    tag_160:\n        /* \"#utility.yul\":1195:1314   */\n    tag_159:\n        /* \"#utility.yul\":1381:1382   */\n      0x00\n        /* \"#utility.yul\":1370:1379   */\n      dup5\n        /* \"#utility.yul\":1366:1383   */\n      add\n        /* \"#utility.yul\":1353:1384   */\n      calldataload\n        /* \"#utility.yul\":1411:1429   */\n      0xffffffffffffffff\n        /* \"#utility.yul\":1403:1409   */\n      dup2\n        /* \"#utility.yul\":1400:1430   */\n      gt\n        /* \"#utility.yul\":1397:1514   */\n      iszero\n      tag_162\n      jumpi\n        /* \"#utility.yul\":1433:1512   */\n      tag_163\n      tag_164\n      jump\t// in\n    tag_163:\n        /* \"#utility.yul\":1397:1514   */\n    tag_162:\n        /* \"#utility.yul\":1538:1601   */\n      tag_165\n        /* \"#utility.yul\":1593:1600   */\n      dup7\n        /* \"#utility.yul\":1584:1590   */\n      dup3\n        /* \"#utility.yul\":1573:1582   */\n      dup8\n        /* \"#utility.yul\":1569:1591   */\n      add\n        /* \"#utility.yul\":1538:1601   */\n      tag_148\n      jump\t// in\n    tag_165:\n        /* \"#utility.yul\":1528:1601   */\n      swap4\n      pop\n        /* \"#utility.yul\":1324:1611   */\n      pop\n        /* \"#utility.yul\":1650:1652   */\n      0x20\n        /* \"#utility.yul\":1676:1729   */\n      tag_166\n        /* \"#utility.yul\":1721:1728   */\n      dup7\n        /* \"#utility.yul\":1712:1718   */\n      dup3\n        /* \"#utility.yul\":1701:1710   */\n      dup8\n        /* \"#utility.yul\":1697:1719   */\n      add\n        /* \"#utility.yul\":1676:1729   */\n      tag_154\n      jump\t// in\n    tag_166:\n        /* \"#utility.yul\":1666:1729   */\n      swap3\n      pop\n        /* \"#utility.yul\":1621:1739   */\n      pop\n        /* \"#utility.yul\":1778:1780   */\n      0x40\n        /* \"#utility.yul\":1804:1857   */\n      tag_167\n        /* \"#utility.yul\":1849:1856   */\n      dup7\n        /* \"#utility.yul\":1840:1846   */\n      dup3\n        /* \"#utility.yul\":1829:1838   */\n      dup8\n        /* \"#utility.yul\":1825:1847   */\n      add\n        /* \"#utility.yul\":1804:1857   */\n      tag_144\n      jump\t// in\n    tag_167:\n        /* \"#utility.yul\":1794:1857   */\n      swap2\n      pop\n        /* \"#utility.yul\":1749:1867   */\n      pop\n        /* \"#utility.yul\":1075:1874   */\n      swap3\n      pop\n      swap3\n      pop\n      swap3\n      jump\t// out\n        /* \"#utility.yul\":1880:2209   */\n    tag_18:\n        /* \"#utility.yul\":1939:1945   */\n      0x00\n        /* \"#utility.yul\":1988:1990   */\n      0x20\n        /* \"#utility.yul\":1976:1985   */\n      dup3\n        /* \"#utility.yul\":1967:1974   */\n      dup5\n        /* \"#utility.yul\":1963:1986   */\n      sub\n        /* \"#utility.yul\":1959:1991   */\n      slt\n        /* \"#utility.yul\":1956:2075   */\n      iszero\n      tag_169\n      jumpi\n        /* \"#utility.yul\":1994:2073   */\n      tag_170\n      tag_161\n      jump\t// in\n    tag_170:\n        /* \"#utility.yul\":1956:2075   */\n    tag_169:\n        /* \"#utility.yul\":2114:2115   */\n      0x00\n        /* \"#utility.yul\":2139:2192   */\n      tag_171\n        /* \"#utility.yul\":2184:2191   */\n      dup5\n        /* \"#utility.yul\":2175:2181   */\n      dup3\n        /* \"#utility.yul\":2164:2173   */\n      dup6\n        /* \"#utility.yul\":2160:2182   */\n      add\n        /* \"#utility.yul\":2139:2192   */\n      tag_154\n      jump\t// in\n    tag_171:\n        /* \"#utility.yul\":2129:2192   */\n      swap2\n      pop\n        /* \"#utility.yul\":2085:2202   */\n      pop\n        /* \"#utility.yul\":1880:2209   */\n      swap3\n      swap2\n      pop\n      pop\n      jump\t// out\n        /* \"#utility.yul\":2215:2689   */\n    tag_37:\n        /* \"#utility.yul\":2283:2289   */\n      0x00\n        /* \"#utility.yul\":2291:2297   */\n      dup1\n        /* \"#utility.yul\":2340:2342   */\n      0x40\n        /* \"#utility.yul\":2328:2337   */\n      dup4\n        /* \"#utility.yul\":2319:2326   */\n      dup6\n        /* \"#utility.yul\":2315:2338   */\n      sub\n        /* \"#utility.yul\":2311:2343   */\n      slt\n        /* \"#utility.yul\":2308:2427   */\n      iszero\n      tag_173\n      jumpi\n        /* \"#utility.yul\":2346:2425   */\n      tag_174\n      tag_161\n      jump\t// in\n    tag_174:\n        /* \"#utility.yul\":2308:2427   */\n    tag_173:\n        /* \"#utility.yul\":2466:2467   */\n      0x00\n        /* \"#utility.yul\":2491:2544   */\n      tag_175\n        /* \"#utility.yul\":2536:2543   */\n      dup6\n        /* \"#utility.yul\":2527:2533   */\n      dup3\n        /* \"#utility.yul\":2516:2525   */\n      dup7\n        /* \"#utility.yul\":2512:2534   */\n      add\n        /* \"#utility.yul\":2491:2544   */\n      tag_154\n      jump\t// in\n    tag_175:\n        /* \"#utility.yul\":2481:2544   */\n      swap3\n      pop\n        /* \"#utility.yul\":2437:2554   */\n      pop\n        /* \"#utility.yul\":2593:2595   */\n      0x20\n        /* \"#utility.yul\":2619:2672   */\n      tag_176\n        /* \"#utility.yul\":2664:2671   */\n      dup6\n        /* \"#utility.yul\":2655:2661   */\n      dup3\n        /* \"#utility.yul\":2644:2653   */\n      dup7\n        /* \"#utility.yul\":2640:2662   */\n      add\n        /* \"#utility.yul\":2619:2672   */\n      tag_154\n      jump\t// in\n    tag_176:\n        /* \"#utility.yul\":2609:2672   */\n      swap2\n      pop\n        /* \"#utility.yul\":2564:2682   */\n      pop\n        /* \"#utility.yul\":2215:2689   */\n      swap3\n      pop\n      swap3\n      swap1\n      pop\n      jump\t// out\n        /* \"#utility.yul\":2695:2803   */\n    tag_177:\n        /* \"#utility.yul\":2772:2796   */\n      tag_179\n        /* \"#utility.yul\":2790:2795   */\n      dup2\n        /* \"#utility.yul\":2772:2796   */\n      tag_180\n      jump\t// in\n    tag_179:\n        /* \"#utility.yul\":2767:2770   */\n      dup3\n        /* \"#utility.yul\":2760:2797   */\n      mstore\n        /* \"#utility.yul\":2695:2803   */\n      pop\n      pop\n      jump\t// out\n        /* \"#utility.yul\":2809:2927   */\n    tag_181:\n        /* \"#utility.yul\":2896:2920   */\n      tag_183\n        /* \"#utility.yul\":2914:2919   */\n      dup2\n        /* \"#utility.yul\":2896:2920   */\n      tag_180\n      jump\t// in\n    tag_183:\n        /* \"#utility.yul\":2891:2894   */\n      dup3\n        /* \"#utility.yul\":2884:2921   */\n      mstore\n        /* \"#utility.yul\":2809:2927   */\n      pop\n      pop\n      jump\t// out\n        /* \"#utility.yul\":2933:3277   */\n    tag_184:\n        /* \"#utility.yul\":3011:3014   */\n      0x00\n        /* \"#utility.yul\":3039:3078   */\n      tag_186\n        /* \"#utility.yul\":3072:3077   */\n      dup3\n        /* \"#utility.yul\":3039:3078   */\n      tag_187\n      jump\t// in\n    tag_186:\n        /* \"#utility.yul\":3094:3155   */\n      tag_188\n        /* \"#utility.yul\":3148:3154   */\n      dup2\n        /* \"#utility.yul\":3143:3146   */\n      dup6\n        /* \"#utility.yul\":3094:3155   */\n      tag_189\n      jump\t// in\n    tag_188:\n        /* \"#utility.yul\":3087:3155   */\n      swap4\n      pop\n        /* \"#utility.yul\":3164:3216   */\n      tag_190\n        /* \"#utility.yul\":3209:3215   */\n      dup2\n        /* \"#utility.yul\":3204:3207   */\n      dup6\n        /* \"#utility.yul\":3197:3201   */\n      0x20\n        /* \"#utility.yul\":3190:3195   */\n      dup7\n        /* \"#utility.yul\":3186:3202   */\n      add\n        /* \"#utility.yul\":3164:3216   */\n      tag_191\n      jump\t// in\n    tag_190:\n        /* \"#utility.yul\":3241:3270   */\n      tag_192\n        /* \"#utility.yul\":3263:3269   */\n      dup2\n        /* \"#utility.yul\":3241:3270   */\n      tag_193\n      jump\t// in\n    tag_192:\n        /* \"#utility.yul\":3236:3239   */\n      dup5\n        /* \"#utility.yul\":3232:3271   */\n      add\n        /* \"#utility.yul\":3225:3271   */\n      swap2\n      pop\n        /* \"#utility.yul\":3015:3277   */\n      pop\n        /* \"#utility.yul\":2933:3277   */\n      swap3\n      swap2\n      pop\n      pop\n      jump\t// out\n        /* \"#utility.yul\":3283:3647   */\n    tag_194:\n        /* \"#utility.yul\":3371:3374   */\n      0x00\n        /* \"#utility.yul\":3399:3438   */\n      tag_196\n        /* \"#utility.yul\":3432:3437   */\n      dup3\n        /* \"#utility.yul\":3399:3438   */\n      tag_187\n      jump\t// in\n    tag_196:\n        /* \"#utility.yul\":3454:3525   */\n      tag_197\n        /* \"#utility.yul\":3518:3524   */\n      dup2\n        /* \"#utility.yul\":3513:3516   */\n      dup6\n        /* \"#utility.yul\":3454:3525   */\n      tag_198\n      jump\t// in\n    tag_197:\n        /* \"#utility.yul\":3447:3525   */\n      swap4\n      pop\n        /* \"#utility.yul\":3534:3586   */\n      tag_199\n        /* \"#utility.yul\":3579:3585   */\n      dup2\n        /* \"#utility.yul\":3574:3577   */\n      dup6\n        /* \"#utility.yul\":3567:3571   */\n      0x20\n        /* \"#utility.yul\":3560:3565   */\n      dup7\n        /* \"#utility.yul\":3556:3572   */\n      add\n        /* \"#utility.yul\":3534:3586   */\n      tag_191\n      jump\t// in\n    tag_199:\n        /* \"#utility.yul\":3611:3640   */\n      tag_200\n        /* \"#utility.yul\":3633:3639   */\n      dup2\n        /* \"#utility.yul\":3611:3640   */\n      tag_193\n      jump\t// in\n    tag_200:\n        /* \"#utility.yul\":3606:3609   */\n      dup5\n        /* \"#utility.yul\":3602:3641   */\n      add\n        /* \"#utility.yul\":3595:3641   */\n      swap2\n      pop\n        /* \"#utility.yul\":3375:3647   */\n      pop\n        /* \"#utility.yul\":3283:3647   */\n      swap3\n      swap2\n      pop\n      pop\n      jump\t// out\n        /* \"#utility.yul\":3653:4019   */\n    tag_201:\n        /* \"#utility.yul\":3795:3798   */\n      0x00\n        /* \"#utility.yul\":3816:3883   */\n      tag_203\n        /* \"#utility.yul\":3880:3882   */\n      0x13\n        /* \"#utility.yul\":3875:3878   */\n      dup4\n        /* \"#utility.yul\":3816:3883   */\n      tag_198\n      jump\t// in\n    tag_203:\n        /* \"#utility.yul\":3809:3883   */\n      swap2\n      pop\n        /* \"#utility.yul\":3892:3985   */\n      tag_204\n        /* \"#utility.yul\":3981:3984   */\n      dup3\n        /* \"#utility.yul\":3892:3985   */\n      tag_205\n      jump\t// in\n    tag_204:\n        /* \"#utility.yul\":4010:4012   */\n      0x20\n        /* \"#utility.yul\":4005:4008   */\n      dup3\n        /* \"#utility.yul\":4001:4013   */\n      add\n        /* \"#utility.yul\":3994:4013   */\n      swap1\n      pop\n        /* \"#utility.yul\":3653:4019   */\n      swap2\n      swap1\n      pop\n      jump\t// out\n        /* \"#utility.yul\":4087:4862   */\n    tag_206:\n        /* \"#utility.yul\":4200:4203   */\n      0x00\n        /* \"#utility.yul\":4236:4240   */\n      0x60\n        /* \"#utility.yul\":4231:4234   */\n      dup4\n        /* \"#utility.yul\":4227:4241   */\n      add\n        /* \"#utility.yul\":4323:4327   */\n      0x00\n        /* \"#utility.yul\":4316:4321   */\n      dup4\n        /* \"#utility.yul\":4312:4328   */\n      add\n        /* \"#utility.yul\":4306:4329   */\n      mload\n        /* \"#utility.yul\":4376:4379   */\n      dup5\n        /* \"#utility.yul\":4370:4374   */\n      dup3\n        /* \"#utility.yul\":4366:4380   */\n      sub\n        /* \"#utility.yul\":4359:4363   */\n      0x00\n        /* \"#utility.yul\":4354:4357   */\n      dup7\n        /* \"#utility.yul\":4350:4364   */\n      add\n        /* \"#utility.yul\":4343:4381   */\n      mstore\n        /* \"#utility.yul\":4402:4475   */\n      tag_208\n        /* \"#utility.yul\":4470:4474   */\n      dup3\n        /* \"#utility.yul\":4456:4468   */\n      dup3\n        /* \"#utility.yul\":4402:4475   */\n      tag_184\n      jump\t// in\n    tag_208:\n        /* \"#utility.yul\":4394:4475   */\n      swap2\n      pop\n        /* \"#utility.yul\":4251:4486   */\n      pop\n        /* \"#utility.yul\":4568:4572   */\n      0x20\n        /* \"#utility.yul\":4561:4566   */\n      dup4\n        /* \"#utility.yul\":4557:4573   */\n      add\n        /* \"#utility.yul\":4551:4574   */\n      mload\n        /* \"#utility.yul\":4587:4650   */\n      tag_209\n        /* \"#utility.yul\":4644:4648   */\n      0x20\n        /* \"#utility.yul\":4639:4642   */\n      dup7\n        /* \"#utility.yul\":4635:4649   */\n      add\n        /* \"#utility.yul\":4621:4633   */\n      dup3\n        /* \"#utility.yul\":4587:4650   */\n      tag_210\n      jump\t// in\n    tag_209:\n        /* \"#utility.yul\":4496:4660   */\n      pop\n        /* \"#utility.yul\":4743:4747   */\n      0x40\n        /* \"#utility.yul\":4736:4741   */\n      dup4\n        /* \"#utility.yul\":4732:4748   */\n      add\n        /* \"#utility.yul\":4726:4749   */\n      mload\n        /* \"#utility.yul\":4762:4825   */\n      tag_211\n        /* \"#utility.yul\":4819:4823   */\n      0x40\n        /* \"#utility.yul\":4814:4817   */\n      dup7\n        /* \"#utility.yul\":4810:4824   */\n      add\n        /* \"#utility.yul\":4796:4808   */\n      dup3\n        /* \"#utility.yul\":4762:4825   */\n      tag_177\n      jump\t// in\n    tag_211:\n        /* \"#utility.yul\":4670:4835   */\n      pop\n        /* \"#utility.yul\":4852:4856   */\n      dup1\n        /* \"#utility.yul\":4845:4856   */\n      swap2\n      pop\n        /* \"#utility.yul\":4205:4862   */\n      pop\n        /* \"#utility.yul\":4087:4862   */\n      swap3\n      swap2\n      pop\n      pop\n      jump\t// out\n        /* \"#utility.yul\":4868:4976   */\n    tag_210:\n        /* \"#utility.yul\":4945:4969   */\n      tag_213\n        /* \"#utility.yul\":4963:4968   */\n      dup2\n        /* \"#utility.yul\":4945:4969   */\n      tag_214\n      jump\t// in\n    tag_213:\n        /* \"#utility.yul\":4940:4943   */\n      dup3\n        /* \"#utility.yul\":4933:4970   */\n      mstore\n        /* \"#utility.yul\":4868:4976   */\n      pop\n      pop\n      jump\t// out\n        /* \"#utility.yul\":4982:5100   */\n    tag_215:\n        /* \"#utility.yul\":5069:5093   */\n      tag_217\n        /* \"#utility.yul\":5087:5092   */\n      dup2\n        /* \"#utility.yul\":5069:5093   */\n      tag_214\n      jump\t// in\n    tag_217:\n        /* \"#utility.yul\":5064:5067   */\n      dup3\n        /* \"#utility.yul\":5057:5094   */\n      mstore\n        /* \"#utility.yul\":4982:5100   */\n      pop\n      pop\n      jump\t// out\n        /* \"#utility.yul\":5106:5639   */\n    tag_15:\n        /* \"#utility.yul\":5275:5279   */\n      0x00\n        /* \"#utility.yul\":5313:5315   */\n      0x60\n        /* \"#utility.yul\":5302:5311   */\n      dup3\n        /* \"#utility.yul\":5298:5316   */\n      add\n        /* \"#utility.yul\":5290:5316   */\n      swap1\n      pop\n        /* \"#utility.yul\":5362:5371   */\n      dup2\n        /* \"#utility.yul\":5356:5360   */\n      dup2\n        /* \"#utility.yul\":5352:5372   */\n      sub\n        /* \"#utility.yul\":5348:5349   */\n      0x00\n        /* \"#utility.yul\":5337:5346   */\n      dup4\n        /* \"#utility.yul\":5333:5350   */\n      add\n        /* \"#utility.yul\":5326:5373   */\n      mstore\n        /* \"#utility.yul\":5390:5468   */\n      tag_219\n        /* \"#utility.yul\":5463:5467   */\n      dup2\n        /* \"#utility.yul\":5454:5460   */\n      dup7\n        /* \"#utility.yul\":5390:5468   */\n      tag_194\n      jump\t// in\n    tag_219:\n        /* \"#utility.yul\":5382:5468   */\n      swap1\n      pop\n        /* \"#utility.yul\":5478:5550   */\n      tag_220\n        /* \"#utility.yul\":5546:5548   */\n      0x20\n        /* \"#utility.yul\":5535:5544   */\n      dup4\n        /* \"#utility.yul\":5531:5549   */\n      add\n        /* \"#utility.yul\":5522:5528   */\n      dup6\n        /* \"#utility.yul\":5478:5550   */\n      tag_215\n      jump\t// in\n    tag_220:\n        /* \"#utility.yul\":5560:5632   */\n      tag_221\n        /* \"#utility.yul\":5628:5630   */\n      0x40\n        /* \"#utility.yul\":5617:5626   */\n      dup4\n        /* \"#utility.yul\":5613:5631   */\n      add\n        /* \"#utility.yul\":5604:5610   */\n      dup5\n        /* \"#utility.yul\":5560:5632   */\n      tag_181\n      jump\t// in\n    tag_221:\n        /* \"#utility.yul\":5106:5639   */\n      swap5\n      swap4\n      pop\n      pop\n      pop\n      pop\n      jump\t// out\n        /* \"#utility.yul\":5645:6064   */\n    tag_53:\n        /* \"#utility.yul\":5811:5815   */\n      0x00\n        /* \"#utility.yul\":5849:5851   */\n      0x20\n        /* \"#utility.yul\":5838:5847   */\n      dup3\n        /* \"#utility.yul\":5834:5852   */\n      add\n        /* \"#utility.yul\":5826:5852   */\n      swap1\n      pop\n        /* \"#utility.yul\":5898:5907   */\n      dup2\n        /* \"#utility.yul\":5892:5896   */\n      dup2\n        /* \"#utility.yul\":5888:5908   */\n      sub\n        /* \"#utility.yul\":5884:5885   */\n      0x00\n        /* \"#utility.yul\":5873:5882   */\n      dup4\n        /* \"#utility.yul\":5869:5886   */\n      add\n        /* \"#utility.yul\":5862:5909   */\n      mstore\n        /* \"#utility.yul\":5926:6057   */\n      tag_223\n        /* \"#utility.yul\":6052:6056   */\n      dup2\n        /* \"#utility.yul\":5926:6057   */\n      tag_201\n      jump\t// in\n    tag_223:\n        /* \"#utility.yul\":5918:6057   */\n      swap1\n      pop\n        /* \"#utility.yul\":5645:6064   */\n      swap2\n      swap1\n      pop\n      jump\t// out\n        /* \"#utility.yul\":6070:6431   */\n    tag_43:\n        /* \"#utility.yul\":6207:6211   */\n      0x00\n        /* \"#utility.yul\":6245:6247   */\n      0x20\n        /* \"#utility.yul\":6234:6243   */\n      dup3\n        /* \"#utility.yul\":6230:6248   */\n      add\n        /* \"#utility.yul\":6222:6248   */\n      swap1\n      pop\n        /* \"#utility.yul\":6294:6303   */\n      dup2\n        /* \"#utility.yul\":6288:6292   */\n      dup2\n        /* \"#utility.yul\":6284:6304   */\n      sub\n        /* \"#utility.yul\":6280:6281   */\n      0x00\n        /* \"#utility.yul\":6269:6278   */\n      dup4\n        /* \"#utility.yul\":6265:6282   */\n      add\n        /* \"#utility.yul\":6258:6305   */\n      mstore\n        /* \"#utility.yul\":6322:6424   */\n      tag_225\n        /* \"#utility.yul\":6419:6423   */\n      dup2\n        /* \"#utility.yul\":6410:6416   */\n      dup5\n        /* \"#utility.yul\":6322:6424   */\n      tag_206\n      jump\t// in\n    tag_225:\n        /* \"#utility.yul\":6314:6424   */\n      swap1\n      pop\n        /* \"#utility.yul\":6070:6431   */\n      swap3\n      swap2\n      pop\n      pop\n      jump\t// out\n        /* \"#utility.yul\":6437:6659   */\n    tag_30:\n        /* \"#utility.yul\":6530:6534   */\n      0x00\n        /* \"#utility.yul\":6568:6570   */\n      0x20\n        /* \"#utility.yul\":6557:6566   */\n      dup3\n        /* \"#utility.yul\":6553:6571   */\n      add\n        /* \"#utility.yul\":6545:6571   */\n      swap1\n      pop\n        /* \"#utility.yul\":6581:6652   */\n      tag_227\n        /* \"#utility.yul\":6649:6650   */\n      0x00\n        /* \"#utility.yul\":6638:6647   */\n      dup4\n        /* \"#utility.yul\":6634:6651   */\n      add\n        /* \"#utility.yul\":6625:6631   */\n      dup5\n        /* \"#utility.yul\":6581:6652   */\n      tag_215\n      jump\t// in\n    tag_227:\n        /* \"#utility.yul\":6437:6659   */\n      swap3\n      swap2\n      pop\n      pop\n      jump\t// out\n        /* \"#utility.yul\":6665:6794   */\n    tag_138:\n        /* \"#utility.yul\":6699:6705   */\n      0x00\n        /* \"#utility.yul\":6726:6746   */\n      tag_229\n      tag_230\n      jump\t// in\n    tag_229:\n        /* \"#utility.yul\":6716:6746   */\n      swap1\n      pop\n        /* \"#utility.yul\":6755:6788   */\n      tag_231\n        /* \"#utility.yul\":6783:6787   */\n      dup3\n        /* \"#utility.yul\":6775:6781   */\n      dup3\n        /* \"#utility.yul\":6755:6788   */\n      tag_232\n      jump\t// in\n    tag_231:\n        /* \"#utility.yul\":6665:6794   */\n      swap2\n      swap1\n      pop\n      jump\t// out\n        /* \"#utility.yul\":6800:6875   */\n    tag_230:\n        /* \"#utility.yul\":6833:6839   */\n      0x00\n        /* \"#utility.yul\":6866:6868   */\n      0x40\n        /* \"#utility.yul\":6860:6869   */\n      mload\n        /* \"#utility.yul\":6850:6869   */\n      swap1\n      pop\n        /* \"#utility.yul\":6800:6875   */\n      swap1\n      jump\t// out\n        /* \"#utility.yul\":6881:7189   */\n    tag_137:\n        /* \"#utility.yul\":6943:6947   */\n      0x00\n        /* \"#utility.yul\":7033:7051   */\n      0xffffffffffffffff\n        /* \"#utility.yul\":7025:7031   */\n      dup3\n        /* \"#utility.yul\":7022:7052   */\n      gt\n        /* \"#utility.yul\":7019:7075   */\n      iszero\n      tag_235\n      jumpi\n        /* \"#utility.yul\":7055:7073   */\n      tag_236\n      tag_237\n      jump\t// in\n    tag_236:\n        /* \"#utility.yul\":7019:7075   */\n    tag_235:\n        /* \"#utility.yul\":7093:7122   */\n      tag_238\n        /* \"#utility.yul\":7115:7121   */\n      dup3\n        /* \"#utility.yul\":7093:7122   */\n      tag_193\n      jump\t// in\n    tag_238:\n        /* \"#utility.yul\":7085:7122   */\n      swap1\n      pop\n        /* \"#utility.yul\":7177:7181   */\n      0x20\n        /* \"#utility.yul\":7171:7175   */\n      dup2\n        /* \"#utility.yul\":7167:7182   */\n      add\n        /* \"#utility.yul\":7159:7182   */\n      swap1\n      pop\n        /* \"#utility.yul\":6881:7189   */\n      swap2\n      swap1\n      pop\n      jump\t// out\n        /* \"#utility.yul\":7195:7294   */\n    tag_187:\n        /* \"#utility.yul\":7247:7253   */\n      0x00\n        /* \"#utility.yul\":7281:7286   */\n      dup2\n        /* \"#utility.yul\":7275:7287   */\n      mload\n        /* \"#utility.yul\":7265:7287   */\n      swap1\n      pop\n        /* \"#utility.yul\":7195:7294   */\n      swap2\n      swap1\n      pop\n      jump\t// out\n        /* \"#utility.yul\":7300:7459   */\n    tag_189:\n        /* \"#utility.yul\":7374:7385   */\n      0x00\n        /* \"#utility.yul\":7408:7414   */\n      dup3\n        /* \"#utility.yul\":7403:7406   */\n      dup3\n        /* \"#utility.yul\":7396:7415   */\n      mstore\n        /* \"#utility.yul\":7448:7452   */\n      0x20\n        /* \"#utility.yul\":7443:7446   */\n      dup3\n        /* \"#utility.yul\":7439:7453   */\n      add\n        /* \"#utility.yul\":7424:7453   */\n      swap1\n      pop\n        /* \"#utility.yul\":7300:7459   */\n      swap3\n      swap2\n      pop\n      pop\n      jump\t// out\n        /* \"#utility.yul\":7465:7634   */\n    tag_198:\n        /* \"#utility.yul\":7549:7560   */\n      0x00\n        /* \"#utility.yul\":7583:7589   */\n      dup3\n        /* \"#utility.yul\":7578:7581   */\n      dup3\n        /* \"#utility.yul\":7571:7590   */\n      mstore\n        /* \"#utility.yul\":7623:7627   */\n      0x20\n        /* \"#utility.yul\":7618:7621   */\n      dup3\n        /* \"#utility.yul\":7614:7628   */\n      add\n        /* \"#utility.yul\":7599:7628   */\n      swap1\n      pop\n        /* \"#utility.yul\":7465:7634   */\n      swap3\n      swap2\n      pop\n      pop\n      jump\t// out\n        /* \"#utility.yul\":7640:7736   */\n    tag_180:\n        /* \"#utility.yul\":7677:7684   */\n      0x00\n        /* \"#utility.yul\":7706:7730   */\n      tag_243\n        /* \"#utility.yul\":7724:7729   */\n      dup3\n        /* \"#utility.yul\":7706:7730   */\n      tag_244\n      jump\t// in\n    tag_243:\n        /* \"#utility.yul\":7695:7730   */\n      swap1\n      pop\n        /* \"#utility.yul\":7640:7736   */\n      swap2\n      swap1\n      pop\n      jump\t// out\n        /* \"#utility.yul\":7742:7868   */\n    tag_244:\n        /* \"#utility.yul\":7779:7786   */\n      0x00\n        /* \"#utility.yul\":7819:7861   */\n      0xffffffffffffffffffffffffffffffffffffffff\n        /* \"#utility.yul\":7812:7817   */\n      dup3\n        /* \"#utility.yul\":7808:7862   */\n      and\n        /* \"#utility.yul\":7797:7862   */\n      swap1\n      pop\n        /* \"#utility.yul\":7742:7868   */\n      swap2\n      swap1\n      pop\n      jump\t// out\n        /* \"#utility.yul\":7874:7951   */\n    tag_214:\n        /* \"#utility.yul\":7911:7918   */\n      0x00\n        /* \"#utility.yul\":7940:7945   */\n      dup2\n        /* \"#utility.yul\":7929:7945   */\n      swap1\n      pop\n        /* \"#utility.yul\":7874:7951   */\n      swap2\n      swap1\n      pop\n      jump\t// out\n        /* \"#utility.yul\":7957:8111   */\n    tag_143:\n        /* \"#utility.yul\":8041:8047   */\n      dup3\n        /* \"#utility.yul\":8036:8039   */\n      dup2\n        /* \"#utility.yul\":8031:8034   */\n      dup4\n        /* \"#utility.yul\":8018:8048   */\n      calldatacopy\n        /* \"#utility.yul\":8103:8104   */\n      0x00\n        /* \"#utility.yul\":8094:8100   */\n      dup4\n        /* \"#utility.yul\":8089:8092   */\n      dup4\n        /* \"#utility.yul\":8085:8101   */\n      add\n        /* \"#utility.yul\":8078:8105   */\n      mstore\n        /* \"#utility.yul\":7957:8111   */\n      pop\n      pop\n      pop\n      jump\t// out\n        /* \"#utility.yul\":8117:8424   */\n    tag_191:\n        /* \"#utility.yul\":8185:8186   */\n      0x00\n        /* \"#utility.yul\":8195:8308   */\n    tag_249:\n        /* \"#utility.yul\":8209:8215   */\n      dup4\n        /* \"#utility.yul\":8206:8207   */\n      dup2\n        /* \"#utility.yul\":8203:8216   */\n      lt\n        /* \"#utility.yul\":8195:8308   */\n      iszero\n      tag_251\n      jumpi\n        /* \"#utility.yul\":8294:8295   */\n      dup1\n        /* \"#utility.yul\":8289:8292   */\n      dup3\n        /* \"#utility.yul\":8285:8296   */\n      add\n        /* \"#utility.yul\":8279:8297   */\n      mload\n        /* \"#utility.yul\":8275:8276   */\n      dup2\n        /* \"#utility.yul\":8270:8273   */\n      dup5\n        /* \"#utility.yul\":8266:8277   */\n      add\n        /* \"#utility.yul\":8259:8298   */\n      mstore\n        /* \"#utility.yul\":8231:8233   */\n      0x20\n        /* \"#utility.yul\":8228:8229   */\n      dup2\n        /* \"#utility.yul\":8224:8234   */\n      add\n        /* \"#utility.yul\":8219:8234   */\n      swap1\n      pop\n        /* \"#utility.yul\":8195:8308   */\n      jump(tag_249)\n    tag_251:\n        /* \"#utility.yul\":8326:8332   */\n      dup4\n        /* \"#utility.yul\":8323:8324   */\n      dup2\n        /* \"#utility.yul\":8320:8333   */\n      gt\n        /* \"#utility.yul\":8317:8418   */\n      iszero\n      tag_252\n      jumpi\n        /* \"#utility.yul\":8406:8407   */\n      0x00\n        /* \"#utility.yul\":8397:8403   */\n      dup5\n        /* \"#utility.yul\":8392:8395   */\n      dup5\n        /* \"#utility.yul\":8388:8404   */\n      add\n        /* \"#utility.yul\":8381:8408   */\n      mstore\n        /* \"#utility.yul\":8317:8418   */\n    tag_252:\n        /* \"#utility.yul\":8166:8424   */\n      pop\n        /* \"#utility.yul\":8117:8424   */\n      pop\n      pop\n      pop\n      jump\t// out\n        /* \"#utility.yul\":8430:8750   */\n    tag_45:\n        /* \"#utility.yul\":8474:8480   */\n      0x00\n        /* \"#utility.yul\":8511:8512   */\n      0x02\n        /* \"#utility.yul\":8505:8509   */\n      dup3\n        /* \"#utility.yul\":8501:8513   */\n      div\n        /* \"#utility.yul\":8491:8513   */\n      swap1\n      pop\n        /* \"#utility.yul\":8558:8559   */\n      0x01\n        /* \"#utility.yul\":8552:8556   */\n      dup3\n        /* \"#utility.yul\":8548:8560   */\n      and\n        /* \"#utility.yul\":8579:8597   */\n      dup1\n        /* \"#utility.yul\":8569:8650   */\n      tag_254\n      jumpi\n        /* \"#utility.yul\":8635:8639   */\n      0x7f\n        /* \"#utility.yul\":8627:8633   */\n      dup3\n        /* \"#utility.yul\":8623:8640   */\n      and\n        /* \"#utility.yul\":8613:8640   */\n      swap2\n      pop\n        /* \"#utility.yul\":8569:8650   */\n    tag_254:\n        /* \"#utility.yul\":8697:8699   */\n      0x20\n        /* \"#utility.yul\":8689:8695   */\n      dup3\n        /* \"#utility.yul\":8686:8700   */\n      lt\n        /* \"#utility.yul\":8666:8684   */\n      dup2\n        /* \"#utility.yul\":8663:8701   */\n      eq\n        /* \"#utility.yul\":8660:8744   */\n      iszero\n      tag_255\n      jumpi\n        /* \"#utility.yul\":8716:8734   */\n      tag_256\n      tag_257\n      jump\t// in\n    tag_256:\n        /* \"#utility.yul\":8660:8744   */\n    tag_255:\n        /* \"#utility.yul\":8481:8750   */\n      pop\n        /* \"#utility.yul\":8430:8750   */\n      swap2\n      swap1\n      pop\n      jump\t// out\n        /* \"#utility.yul\":8756:9037   */\n    tag_232:\n        /* \"#utility.yul\":8839:8866   */\n      tag_259\n        /* \"#utility.yul\":8861:8865   */\n      dup3\n        /* \"#utility.yul\":8839:8866   */\n      tag_193\n      jump\t// in\n    tag_259:\n        /* \"#utility.yul\":8831:8837   */\n      dup2\n        /* \"#utility.yul\":8827:8867   */\n      add\n        /* \"#utility.yul\":8969:8975   */\n      dup2\n        /* \"#utility.yul\":8957:8967   */\n      dup2\n        /* \"#utility.yul\":8954:8976   */\n      lt\n        /* \"#utility.yul\":8933:8951   */\n      0xffffffffffffffff\n        /* \"#utility.yul\":8921:8931   */\n      dup3\n        /* \"#utility.yul\":8918:8952   */\n      gt\n        /* \"#utility.yul\":8915:8977   */\n      or\n        /* \"#utility.yul\":8912:9000   */\n      iszero\n      tag_260\n      jumpi\n        /* \"#utility.yul\":8980:8998   */\n      tag_261\n      tag_237\n      jump\t// in\n    tag_261:\n        /* \"#utility.yul\":8912:9000   */\n    tag_260:\n        /* \"#utility.yul\":9020:9030   */\n      dup1\n        /* \"#utility.yul\":9016:9018   */\n      0x40\n        /* \"#utility.yul\":9009:9031   */\n      mstore\n        /* \"#utility.yul\":8799:9037   */\n      pop\n        /* \"#utility.yul\":8756:9037   */\n      pop\n      pop\n      jump\t// out\n        /* \"#utility.yul\":9043:9223   */\n    tag_257:\n        /* \"#utility.yul\":9091:9168   */\n      0x4e487b7100000000000000000000000000000000000000000000000000000000\n        /* \"#utility.yul\":9088:9089   */\n      0x00\n        /* \"#utility.yul\":9081:9169   */\n      mstore\n        /* \"#utility.yul\":9188:9192   */\n      0x22\n        /* \"#utility.yul\":9185:9186   */\n      0x04\n        /* \"#utility.yul\":9178:9193   */\n      mstore\n        /* \"#utility.yul\":9212:9216   */\n      0x24\n        /* \"#utility.yul\":9209:9210   */\n      0x00\n        /* \"#utility.yul\":9202:9217   */\n      revert\n        /* \"#utility.yul\":9229:9409   */\n    tag_56:\n        /* \"#utility.yul\":9277:9354   */\n      0x4e487b7100000000000000000000000000000000000000000000000000000000\n        /* \"#utility.yul\":9274:9275   */\n      0x00\n        /* \"#utility.yul\":9267:9355   */\n      mstore\n        /* \"#utility.yul\":9374:9378   */\n      0x32\n        /* \"#utility.yul\":9371:9372   */\n      0x04\n        /* \"#utility.yul\":9364:9379   */\n      mstore\n        /* \"#utility.yul\":9398:9402   */\n      0x24\n        /* \"#utility.yul\":9395:9396   */\n      0x00\n        /* \"#utility.yul\":9388:9403   */\n      revert\n        /* \"#utility.yul\":9415:9595   */\n    tag_237:\n        /* \"#utility.yul\":9463:9540   */\n      0x4e487b7100000000000000000000000000000000000000000000000000000000\n        /* \"#utility.yul\":9460:9461   */\n      0x00\n        /* \"#utility.yul\":9453:9541   */\n      mstore\n        /* \"#utility.yul\":9560:9564   */\n      0x41\n        /* \"#utility.yul\":9557:9558   */\n      0x04\n        /* \"#utility.yul\":9550:9565   */\n      mstore\n        /* \"#utility.yul\":9584:9588   */\n      0x24\n        /* \"#utility.yul\":9581:9582   */\n      0x00\n        /* \"#utility.yul\":9574:9589   */\n      revert\n        /* \"#utility.yul\":9601:9718   */\n    tag_152:\n        /* \"#utility.yul\":9710:9711   */\n      0x00\n        /* \"#utility.yul\":9707:9708   */\n      dup1\n        /* \"#utility.yul\":9700:9712   */\n      revert\n        /* \"#utility.yul\":9724:9841   */\n    tag_141:\n        /* \"#utility.yul\":9833:9834   */\n      0x00\n        /* \"#utility.yul\":9830:9831   */\n      dup1\n        /* \"#utility.yul\":9823:9835   */\n      revert\n        /* \"#utility.yul\":9847:9964   */\n    tag_164:\n        /* \"#utility.yul\":9956:9957   */\n      0x00\n        /* \"#utility.yul\":9953:9954   */\n      dup1\n        /* \"#utility.yul\":9946:9958   */\n      revert\n        /* \"#utility.yul\":9970:10087   */\n    tag_161:\n        /* \"#utility.yul\":10079:10080   */\n      0x00\n        /* \"#utility.yul\":10076:10077   */\n      dup1\n        /* \"#utility.yul\":10069:10081   */\n      revert\n        /* \"#utility.yul\":10093:10195   */\n    tag_193:\n        /* \"#utility.yul\":10134:10140   */\n      0x00\n        /* \"#utility.yul\":10185:10187   */\n      0x1f\n        /* \"#utility.yul\":10181:10188   */\n      not\n        /* \"#utility.yul\":10176:10178   */\n      0x1f\n        /* \"#utility.yul\":10169:10174   */\n      dup4\n        /* \"#utility.yul\":10165:10179   */\n      add\n        /* \"#utility.yul\":10161:10189   */\n      and\n        /* \"#utility.yul\":10151:10189   */\n      swap1\n      pop\n        /* \"#utility.yul\":10093:10195   */\n      swap2\n      swap1\n      pop\n      jump\t// out\n        /* \"#utility.yul\":10201:10370   */\n    tag_205:\n        /* \"#utility.yul\":10341:10362   */\n      0x696e646578206f7574206f6620626f756e647300000000000000000000000000\n        /* \"#utility.yul\":10337:10338   */\n      0x00\n        /* \"#utility.yul\":10329:10335   */\n      dup3\n        /* \"#utility.yul\":10325:10339   */\n      add\n        /* \"#utility.yul\":10318:10363   */\n      mstore\n        /* \"#utility.yul\":10201:10370   */\n      pop\n      jump\t// out\n        /* \"#utility.yul\":10376:10498   */\n    tag_147:\n        /* \"#utility.yul\":10449:10473   */\n      tag_272\n        /* \"#utility.yul\":10467:10472   */\n      dup2\n        /* \"#utility.yul\":10449:10473   */\n      tag_180\n      jump\t// in\n    tag_272:\n        /* \"#utility.yul\":10442:10447   */\n      dup2\n        /* \"#utility.yul\":10439:10474   */\n      eq\n        /* \"#utility.yul\":10429:10492   */\n      tag_273\n      jumpi\n        /* \"#utility.yul\":10488:10489   */\n      0x00\n        /* \"#utility.yul\":10485:10486   */\n      dup1\n        /* \"#utility.yul\":10478:10490   */\n      revert\n        /* \"#utility.yul\":10429:10492   */\n    tag_273:\n        /* \"#utility.yul\":10376:10498   */\n      pop\n      jump\t// out\n        /* \"#utility.yul\":10504:10626   */\n    tag_157:\n        /* \"#utility.yul\":10577:10601   */\n      tag_275\n        /* \"#utility.yul\":10595:10600   */\n      dup2\n        /* \"#utility.yul\":10577:10601   */\n      tag_214\n      jump\t// in\n    tag_275:\n        /* \"#utility.yul\":10570:10575   */\n      dup2\n        /* \"#utility.yul\":10567:10602   */\n      eq\n        /* \"#utility.yul\":10557:10620   */\n      tag_276\n      jumpi\n        /* \"#utility.yul\":10616:10617   */\n      0x00\n        /* \"#utility.yul\":10613:10614   */\n      dup1\n        /* \"#utility.yul\":10606:10618   */\n      revert\n        /* \"#utility.yul\":10557:10620   */\n    tag_276:\n        /* \"#utility.yul\":10504:10626   */\n      pop\n      jump\t// out\n\n    auxdata: 0xa26469706673582212201374aba6122d3ee3ae0b0e13b80a5c14c5dbb2586f2f19f0122c8e46f391e64664736f6c63430008070033\n}\n",
				"bytecode": {
					"linkReferences": {},
					"object": "608060405234801561001057600080fd5b5061153a806100206000396000f3fe608060405234801561001057600080fd5b50600436106100885760003560e01c806392d663131161005b57806392d66313146100ef5780639375d9a91461011f578063a098abc514610151578063df7ebb7b1461016d57610088565b8063132a339b1461008d5780633a4a2c0b146100ad57806354353f2f146100c9578063837c72bb146100d3575b600080fd5b61009561019d565b6040516100a4939291906111fc565b60405180910390f35b6100c760048036038101906100c2919061106e565b61025d565b005b6100d161030b565b005b6100ed60048036038101906100e89190610fff565b610a14565b005b6101096004803603810190610104919061106e565b610b09565b604051610116919061127c565b60405180910390f35b6101396004803603810190610134919061106e565b610b7f565b604051610148939291906111fc565b60405180910390f35b61016b6004803603810190610166919061109b565b610c61565b005b6101876004803603810190610182919061106e565b610cd6565b604051610194919061125a565b60405180910390f35b60008060000180546101ae90611398565b80601f01602080910402602001604051908101604052809291908181526020018280546101da90611398565b80156102275780601f106101fc57610100808354040283529160200191610227565b820191906000526020600020905b81548152906001019060200180831161020a57829003601f168201915b5050505050908060010154908060020160009054906101000a900473ffffffffffffffffffffffffffffffffffffffff16905083565b60038054905081106102a4576040517f08c379a000000000000000000000000000000000000000000000000000000000815260040161029b9061123a565b60405180910390fd5b600381815481106102b8576102b761142a565b5b9060005260206000209060030201600080820160006102d79190610e4b565b60018201600090556002820160006101000a81549073ffffffffffffffffffffffffffffffffffffffff0219169055505050565b600360405180606001604052806040518060400160405280600481526020017f626d77310000000000000000000000000000000000000000000000000000000081525081526020016107d18152602001600173ffffffffffffffffffffffffffffffffffffffff16815250908060018154018082558091505060019003906000526020600020906003020160009091909190915060008201518160000190805190602001906103bb929190610e8b565b506020820151816001015560408201518160020160006101000a81548173ffffffffffffffffffffffffffffffffffffffff021916908373ffffffffffffffffffffffffffffffffffffffff1602179055505050600360405180606001604052806040518060400160405280600481526020017f626d77320000000000000000000000000000000000000000000000000000000081525081526020016107d28152602001600273ffffffffffffffffffffffffffffffffffffffff16815250908060018154018082558091505060019003906000526020600020906003020160009091909190915060008201518160000190805190602001906104bf929190610e8b565b506020820151816001015560408201518160020160006101000a81548173ffffffffffffffffffffffffffffffffffffffff021916908373ffffffffffffffffffffffffffffffffffffffff1602179055505050600060405180606001604052806040518060400160405280600481526020017f626d77330000000000000000000000000000000000000000000000000000000081525081526020016107d38152602001600373ffffffffffffffffffffffffffffffffffffffff168152509050600060405180606001604052806040518060400160405280600481526020017f626d77340000000000000000000000000000000000000000000000000000000081525081526020016107d48152602001600473ffffffffffffffffffffffffffffffffffffffff1681525090506105f5610f11565b6040518060400160405280600481526020017f4a6565700000000000000000000000000000000000000000000000000000000081525081600001819052506107d58160200181815250506005816040019073ffffffffffffffffffffffffffffffffffffffff16908173ffffffffffffffffffffffffffffffffffffffff1681525050600383908060018154018082558091505060019003906000526020600020906003020160009091909190915060008201518160000190805190602001906106c0929190610e8b565b506020820151816001015560408201518160020160006101000a81548173ffffffffffffffffffffffffffffffffffffffff021916908373ffffffffffffffffffffffffffffffffffffffff16021790555050506003829080600181540180825580915050600190039060005260206000209060030201600090919091909150600082015181600001908051906020019061075c929190610e8b565b506020820151816001015560408201518160020160006101000a81548173ffffffffffffffffffffffffffffffffffffffff021916908373ffffffffffffffffffffffffffffffffffffffff1602179055505050600381908060018154018082558091505060019003906000526020600020906003020160009091909190915060008201518160000190805190602001906107f8929190610e8b565b506020820151816001015560408201518160020160006101000a81548173ffffffffffffffffffffffffffffffffffffffff021916908373ffffffffffffffffffffffffffffffffffffffff1602179055505050600360405180606001604052806040518060400160405280600581526020017f514952554900000000000000000000000000000000000000000000000000000081525081526020016107e88152602001600673ffffffffffffffffffffffffffffffffffffffff16815250908060018154018082558091505060019003906000526020600020906003020160009091909190915060008201518160000190805190602001906108fc929190610e8b565b506020820151816001015560408201518160020160006101000a81548173ffffffffffffffffffffffffffffffffffffffff021916908373ffffffffffffffffffffffffffffffffffffffff1602179055505050600060036004815481106109675761096661142a565b5b906000526020600020906003020190506107ea81600101819055508060020160006101000a81549073ffffffffffffffffffffffffffffffffffffffff021916905560036000815481106109be576109bd61142a565b5b9060005260206000209060030201600080820160006109dd9190610e4b565b60018201600090556002820160006101000a81549073ffffffffffffffffffffffffffffffffffffffff0219169055505050505050565b610a1c610f11565b8381600001819052508281602001818152505081816040019073ffffffffffffffffffffffffffffffffffffffff16908173ffffffffffffffffffffffffffffffffffffffff168152505060038190806001815401808255809150506001900390600052602060002090600302016000909190919091506000820151816000019080519060200190610aaf929190610e8b565b506020820151816001015560408201518160020160006101000a81548173ffffffffffffffffffffffffffffffffffffffff021916908373ffffffffffffffffffffffffffffffffffffffff160217905550505050505050565b60006003805490508210610b52576040517f08c379a0000000000000000000000000000000000000000000000000000000008152600401610b499061123a565b60405180910390fd5b60038281548110610b6657610b6561142a565b5b9060005260206000209060030201600101549050919050565b60038181548110610b8f57600080fd5b9060005260206000209060030201600091509050806000018054610bb290611398565b80601f0160208091040260200160405190810160405280929190818152602001828054610bde90611398565b8015610c2b5780601f10610c0057610100808354040283529160200191610c2b565b820191906000526020600020905b815481529060010190602001808311610c0e57829003601f168201915b5050505050908060010154908060020160009054906101000a900473ffffffffffffffffffffffffffffffffffffffff16905083565b6003805490508210610ca8576040517f08c379a0000000000000000000000000000000000000000000000000000000008152600401610c9f9061123a565b60405180910390fd5b8060038381548110610cbd57610cbc61142a565b5b9060005260206000209060030201600101819055505050565b610cde610f11565b6003805490508210610d25576040517f08c379a0000000000000000000000000000000000000000000000000000000008152600401610d1c9061123a565b60405180910390fd5b60038281548110610d3957610d3861142a565b5b9060005260206000209060030201604051806060016040529081600082018054610d6290611398565b80601f0160208091040260200160405190810160405280929190818152602001828054610d8e90611398565b8015610ddb5780601f10610db057610100808354040283529160200191610ddb565b820191906000526020600020905b815481529060010190602001808311610dbe57829003601f168201915b50505050508152602001600182015481526020016002820160009054906101000a900473ffffffffffffffffffffffffffffffffffffffff1673ffffffffffffffffffffffffffffffffffffffff1673ffffffffffffffffffffffffffffffffffffffff16815250509050919050565b508054610e5790611398565b6000825580601f10610e695750610e88565b601f016020900490600052602060002090810190610e879190610f48565b5b50565b828054610e9790611398565b90600052602060002090601f016020900481019282610eb95760008555610f00565b82601f10610ed257805160ff1916838001178555610f00565b82800160010185558215610f00579182015b82811115610eff578251825591602001919060010190610ee4565b5b509050610f0d9190610f48565b5090565b60405180606001604052806060815260200160008152602001600073ffffffffffffffffffffffffffffffffffffffff1681525090565b5b80821115610f61576000816000905550600101610f49565b5090565b6000610f78610f73846112bc565b611297565b905082815260208101848484011115610f9457610f9361148d565b5b610f9f848285611356565b509392505050565b600081359050610fb6816114d6565b92915050565b600082601f830112610fd157610fd0611488565b5b8135610fe1848260208601610f65565b91505092915050565b600081359050610ff9816114ed565b92915050565b60008060006060848603121561101857611017611497565b5b600084013567ffffffffffffffff81111561103657611035611492565b5b61104286828701610fbc565b935050602061105386828701610fea565b925050604061106486828701610fa7565b9150509250925092565b60006020828403121561108457611083611497565b5b600061109284828501610fea565b91505092915050565b600080604083850312156110b2576110b1611497565b5b60006110c085828601610fea565b92505060206110d185828601610fea565b9150509250929050565b6110e48161131a565b82525050565b6110f38161131a565b82525050565b6000611104826112ed565b61110e81856112f8565b935061111e818560208601611365565b6111278161149c565b840191505092915050565b600061113d826112ed565b6111478185611309565b9350611157818560208601611365565b6111608161149c565b840191505092915050565b6000611178601383611309565b9150611183826114ad565b602082019050919050565b600060608301600083015184820360008601526111ab82826110f9565b91505060208301516111c060208601826111de565b5060408301516111d360408601826110db565b508091505092915050565b6111e78161134c565b82525050565b6111f68161134c565b82525050565b600060608201905081810360008301526112168186611132565b905061122560208301856111ed565b61123260408301846110ea565b949350505050565b600060208201905081810360008301526112538161116b565b9050919050565b60006020820190508181036000830152611274818461118e565b905092915050565b600060208201905061129160008301846111ed565b92915050565b60006112a16112b2565b90506112ad82826113ca565b919050565b6000604051905090565b600067ffffffffffffffff8211156112d7576112d6611459565b5b6112e08261149c565b9050602081019050919050565b600081519050919050565b600082825260208201905092915050565b600082825260208201905092915050565b60006113258261132c565b9050919050565b600073ffffffffffffffffffffffffffffffffffffffff82169050919050565b6000819050919050565b82818337600083830152505050565b60005b83811015611383578082015181840152602081019050611368565b83811115611392576000848401525b50505050565b600060028204905060018216806113b057607f821691505b602082108114156113c4576113c36113fb565b5b50919050565b6113d38261149c565b810181811067ffffffffffffffff821117156113f2576113f1611459565b5b80604052505050565b7f4e487b7100000000000000000000000000000000000000000000000000000000600052602260045260246000fd5b7f4e487b7100000000000000000000000000000000000000000000000000000000600052603260045260246000fd5b7f4e487b7100000000000000000000000000000000000000000000000000000000600052604160045260246000fd5b600080fd5b600080fd5b600080fd5b600080fd5b6000601f19601f8301169050919050565b7f696e646578206f7574206f6620626f756e647300000000000000000000000000600082015250565b6114df8161131a565b81146114ea57600080fd5b50565b6114f68161134c565b811461150157600080fd5b5056fea26469706673582212201374aba6122d3ee3ae0b0e13b80a5c14c5dbb2586f2f19f0122c8e46f391e64664736f6c63430008070033",
					"opcodes": "PUSH1 0x80 PUSH1 0x40 MSTORE CALLVALUE DUP1 ISZERO PUSH2 0x10 JUMPI PUSH1 0x0 DUP1 REVERT JUMPDEST POP PUSH2 0x153A DUP1 PUSH2 0x20 PUSH1 0x0 CODECOPY PUSH1 0x0 RETURN INVALID PUSH1 0x80 PUSH1 0x40 MSTORE CALLVALUE DUP1 ISZERO PUSH2 0x10 JUMPI PUSH1 0x0 DUP1 REVERT JUMPDEST POP PUSH1 0x4 CALLDATASIZE LT PUSH2 0x88 JUMPI PUSH1 0x0 CALLDATALOAD PUSH1 0xE0 SHR DUP1 PUSH4 0x92D66313 GT PUSH2 0x5B JUMPI DUP1 PUSH4 0x92D66313 EQ PUSH2 0xEF JUMPI DUP1 PUSH4 0x9375D9A9 EQ PUSH2 0x11F JUMPI DUP1 PUSH4 0xA098ABC5 EQ PUSH2 0x151 JUMPI DUP1 PUSH4 0xDF7EBB7B EQ PUSH2 0x16D JUMPI PUSH2 0x88 JUMP JUMPDEST DUP1 PUSH4 0x132A339B EQ PUSH2 0x8D JUMPI DUP1 PUSH4 0x3A4A2C0B EQ PUSH2 0xAD JUMPI DUP1 PUSH4 0x54353F2F EQ PUSH2 0xC9 JUMPI DUP1 PUSH4 0x837C72BB EQ PUSH2 0xD3 JUMPI JUMPDEST PUSH1 0x0 DUP1 REVERT JUMPDEST PUSH2 0x95 PUSH2 0x19D JUMP JUMPDEST PUSH1 0x40 MLOAD PUSH2 0xA4 SWAP4 SWAP3 SWAP2 SWAP1 PUSH2 0x11FC JUMP JUMPDEST PUSH1 0x40 MLOAD DUP1 SWAP2 SUB SWAP1 RETURN JUMPDEST PUSH2 0xC7 PUSH1 0x4 DUP1 CALLDATASIZE SUB DUP2 ADD SWAP1 PUSH2 0xC2 SWAP2 SWAP1 PUSH2 0x106E JUMP JUMPDEST PUSH2 0x25D JUMP JUMPDEST STOP JUMPDEST PUSH2 0xD1 PUSH2 0x30B JUMP JUMPDEST STOP JUMPDEST PUSH2 0xED PUSH1 0x4 DUP1 CALLDATASIZE SUB DUP2 ADD SWAP1 PUSH2 0xE8 SWAP2 SWAP1 PUSH2 0xFFF JUMP JUMPDEST PUSH2 0xA14 JUMP JUMPDEST STOP JUMPDEST PUSH2 0x109 PUSH1 0x4 DUP1 CALLDATASIZE SUB DUP2 ADD SWAP1 PUSH2 0x104 SWAP2 SWAP1 PUSH2 0x106E JUMP JUMPDEST PUSH2 0xB09 JUMP JUMPDEST PUSH1 0x40 MLOAD PUSH2 0x116 SWAP2 SWAP1 PUSH2 0x127C JUMP JUMPDEST PUSH1 0x40 MLOAD DUP1 SWAP2 SUB SWAP1 RETURN JUMPDEST PUSH2 0x139 PUSH1 0x4 DUP1 CALLDATASIZE SUB DUP2 ADD SWAP1 PUSH2 0x134 SWAP2 SWAP1 PUSH2 0x106E JUMP JUMPDEST PUSH2 0xB7F JUMP JUMPDEST PUSH1 0x40 MLOAD PUSH2 0x148 SWAP4 SWAP3 SWAP2 SWAP1 PUSH2 0x11FC JUMP JUMPDEST PUSH1 0x40 MLOAD DUP1 SWAP2 SUB SWAP1 RETURN JUMPDEST PUSH2 0x16B PUSH1 0x4 DUP1 CALLDATASIZE SUB DUP2 ADD SWAP1 PUSH2 0x166 SWAP2 SWAP1 PUSH2 0x109B JUMP JUMPDEST PUSH2 0xC61 JUMP JUMPDEST STOP JUMPDEST PUSH2 0x187 PUSH1 0x4 DUP1 CALLDATASIZE SUB DUP2 ADD SWAP1 PUSH2 0x182 SWAP2 SWAP1 PUSH2 0x106E JUMP JUMPDEST PUSH2 0xCD6 JUMP JUMPDEST PUSH1 0x40 MLOAD PUSH2 0x194 SWAP2 SWAP1 PUSH2 0x125A JUMP JUMPDEST PUSH1 0x40 MLOAD DUP1 SWAP2 SUB SWAP1 RETURN JUMPDEST PUSH1 0x0 DUP1 PUSH1 0x0 ADD DUP1 SLOAD PUSH2 0x1AE SWAP1 PUSH2 0x1398 JUMP JUMPDEST DUP1 PUSH1 0x1F ADD PUSH1 0x20 DUP1 SWAP2 DIV MUL PUSH1 0x20 ADD PUSH1 0x40 MLOAD SWAP1 DUP2 ADD PUSH1 0x40 MSTORE DUP1 SWAP3 SWAP2 SWAP1 DUP2 DUP2 MSTORE PUSH1 0x20 ADD DUP3 DUP1 SLOAD PUSH2 0x1DA SWAP1 PUSH2 0x1398 JUMP JUMPDEST DUP1 ISZERO PUSH2 0x227 JUMPI DUP1 PUSH1 0x1F LT PUSH2 0x1FC JUMPI PUSH2 0x100 DUP1 DUP4 SLOAD DIV MUL DUP4 MSTORE SWAP2 PUSH1 0x20 ADD SWAP2 PUSH2 0x227 JUMP JUMPDEST DUP3 ADD SWAP2 SWAP1 PUSH1 0x0 MSTORE PUSH1 0x20 PUSH1 0x0 KECCAK256 SWAP1 JUMPDEST DUP2 SLOAD DUP2 MSTORE SWAP1 PUSH1 0x1 ADD SWAP1 PUSH1 0x20 ADD DUP1 DUP4 GT PUSH2 0x20A JUMPI DUP3 SWAP1 SUB PUSH1 0x1F AND DUP3 ADD SWAP2 JUMPDEST POP POP POP POP POP SWAP1 DUP1 PUSH1 0x1 ADD SLOAD SWAP1 DUP1 PUSH1 0x2 ADD PUSH1 0x0 SWAP1 SLOAD SWAP1 PUSH2 0x100 EXP SWAP1 DIV PUSH20 0xFFFFFFFFFFFFFFFFFFFFFFFFFFFFFFFFFFFFFFFF AND SWAP1 POP DUP4 JUMP JUMPDEST PUSH1 0x3 DUP1 SLOAD SWAP1 POP DUP2 LT PUSH2 0x2A4 JUMPI PUSH1 0x40 MLOAD PUSH32 0x8C379A000000000000000000000000000000000000000000000000000000000 DUP2 MSTORE PUSH1 0x4 ADD PUSH2 0x29B SWAP1 PUSH2 0x123A JUMP JUMPDEST PUSH1 0x40 MLOAD DUP1 SWAP2 SUB SWAP1 REVERT JUMPDEST PUSH1 0x3 DUP2 DUP2 SLOAD DUP2 LT PUSH2 0x2B8 JUMPI PUSH2 0x2B7 PUSH2 0x142A JUMP JUMPDEST JUMPDEST SWAP1 PUSH1 0x0 MSTORE PUSH1 0x20 PUSH1 0x0 KECCAK256 SWAP1 PUSH1 0x3 MUL ADD PUSH1 0x0 DUP1 DUP3 ADD PUSH1 0x0 PUSH2 0x2D7 SWAP2 SWAP1 PUSH2 0xE4B JUMP JUMPDEST PUSH1 0x1 DUP3 ADD PUSH1 0x0 SWAP1 SSTORE PUSH1 0x2 DUP3 ADD PUSH1 0x0 PUSH2 0x100 EXP DUP2 SLOAD SWAP1 PUSH20 0xFFFFFFFFFFFFFFFFFFFFFFFFFFFFFFFFFFFFFFFF MUL NOT AND SWAP1 SSTORE POP POP POP JUMP JUMPDEST PUSH1 0x3 PUSH1 0x40 MLOAD DUP1 PUSH1 0x60 ADD PUSH1 0x40 MSTORE DUP1 PUSH1 0x40 MLOAD DUP1 PUSH1 0x40 ADD PUSH1 0x40 MSTORE DUP1 PUSH1 0x4 DUP2 MSTORE PUSH1 0x20 ADD PUSH32 0x626D773100000000000000000000000000000000000000000000000000000000 DUP2 MSTORE POP DUP2 MSTORE PUSH1 0x20 ADD PUSH2 0x7D1 DUP2 MSTORE PUSH1 0x20 ADD PUSH1 0x1 PUSH20 0xFFFFFFFFFFFFFFFFFFFFFFFFFFFFFFFFFFFFFFFF AND DUP2 MSTORE POP SWAP1 DUP1 PUSH1 0x1 DUP2 SLOAD ADD DUP1 DUP3 SSTORE DUP1 SWAP2 POP POP PUSH1 0x1 SWAP1 SUB SWAP1 PUSH1 0x0 MSTORE PUSH1 0x20 PUSH1 0x0 KECCAK256 SWAP1 PUSH1 0x3 MUL ADD PUSH1 0x0 SWAP1 SWAP2 SWAP1 SWAP2 SWAP1 SWAP2 POP PUSH1 0x0 DUP3 ADD MLOAD DUP2 PUSH1 0x0 ADD SWAP1 DUP1 MLOAD SWAP1 PUSH1 0x20 ADD SWAP1 PUSH2 0x3BB SWAP3 SWAP2 SWAP1 PUSH2 0xE8B JUMP JUMPDEST POP PUSH1 0x20 DUP3 ADD MLOAD DUP2 PUSH1 0x1 ADD SSTORE PUSH1 0x40 DUP3 ADD MLOAD DUP2 PUSH1 0x2 ADD PUSH1 0x0 PUSH2 0x100 EXP DUP2 SLOAD DUP2 PUSH20 0xFFFFFFFFFFFFFFFFFFFFFFFFFFFFFFFFFFFFFFFF MUL NOT AND SWAP1 DUP4 PUSH20 0xFFFFFFFFFFFFFFFFFFFFFFFFFFFFFFFFFFFFFFFF AND MUL OR SWAP1 SSTORE POP POP POP PUSH1 0x3 PUSH1 0x40 MLOAD DUP1 PUSH1 0x60 ADD PUSH1 0x40 MSTORE DUP1 PUSH1 0x40 MLOAD DUP1 PUSH1 0x40 ADD PUSH1 0x40 MSTORE DUP1 PUSH1 0x4 DUP2 MSTORE PUSH1 0x20 ADD PUSH32 0x626D773200000000000000000000000000000000000000000000000000000000 DUP2 MSTORE POP DUP2 MSTORE PUSH1 0x20 ADD PUSH2 0x7D2 DUP2 MSTORE PUSH1 0x20 ADD PUSH1 0x2 PUSH20 0xFFFFFFFFFFFFFFFFFFFFFFFFFFFFFFFFFFFFFFFF AND DUP2 MSTORE POP SWAP1 DUP1 PUSH1 0x1 DUP2 SLOAD ADD DUP1 DUP3 SSTORE DUP1 SWAP2 POP POP PUSH1 0x1 SWAP1 SUB SWAP1 PUSH1 0x0 MSTORE PUSH1 0x20 PUSH1 0x0 KECCAK256 SWAP1 PUSH1 0x3 MUL ADD PUSH1 0x0 SWAP1 SWAP2 SWAP1 SWAP2 SWAP1 SWAP2 POP PUSH1 0x0 DUP3 ADD MLOAD DUP2 PUSH1 0x0 ADD SWAP1 DUP1 MLOAD SWAP1 PUSH1 0x20 ADD SWAP1 PUSH2 0x4BF SWAP3 SWAP2 SWAP1 PUSH2 0xE8B JUMP JUMPDEST POP PUSH1 0x20 DUP3 ADD MLOAD DUP2 PUSH1 0x1 ADD SSTORE PUSH1 0x40 DUP3 ADD MLOAD DUP2 PUSH1 0x2 ADD PUSH1 0x0 PUSH2 0x100 EXP DUP2 SLOAD DUP2 PUSH20 0xFFFFFFFFFFFFFFFFFFFFFFFFFFFFFFFFFFFFFFFF MUL NOT AND SWAP1 DUP4 PUSH20 0xFFFFFFFFFFFFFFFFFFFFFFFFFFFFFFFFFFFFFFFF AND MUL OR SWAP1 SSTORE POP POP POP PUSH1 0x0 PUSH1 0x40 MLOAD DUP1 PUSH1 0x60 ADD PUSH1 0x40 MSTORE DUP1 PUSH1 0x40 MLOAD DUP1 PUSH1 0x40 ADD PUSH1 0x40 MSTORE DUP1 PUSH1 0x4 DUP2 MSTORE PUSH1 0x20 ADD PUSH32 0x626D773300000000000000000000000000000000000000000000000000000000 DUP2 MSTORE POP DUP2 MSTORE PUSH1 0x20 ADD PUSH2 0x7D3 DUP2 MSTORE PUSH1 0x20 ADD PUSH1 0x3 PUSH20 0xFFFFFFFFFFFFFFFFFFFFFFFFFFFFFFFFFFFFFFFF AND DUP2 MSTORE POP SWAP1 POP PUSH1 0x0 PUSH1 0x40 MLOAD DUP1 PUSH1 0x60 ADD PUSH1 0x40 MSTORE DUP1 PUSH1 0x40 MLOAD DUP1 PUSH1 0x40 ADD PUSH1 0x40 MSTORE DUP1 PUSH1 0x4 DUP2 MSTORE PUSH1 0x20 ADD PUSH32 0x626D773400000000000000000000000000000000000000000000000000000000 DUP2 MSTORE POP DUP2 MSTORE PUSH1 0x20 ADD PUSH2 0x7D4 DUP2 MSTORE PUSH1 0x20 ADD PUSH1 0x4 PUSH20 0xFFFFFFFFFFFFFFFFFFFFFFFFFFFFFFFFFFFFFFFF AND DUP2 MSTORE POP SWAP1 POP PUSH2 0x5F5 PUSH2 0xF11 JUMP JUMPDEST PUSH1 0x40 MLOAD DUP1 PUSH1 0x40 ADD PUSH1 0x40 MSTORE DUP1 PUSH1 0x4 DUP2 MSTORE PUSH1 0x20 ADD PUSH32 0x4A65657000000000000000000000000000000000000000000000000000000000 DUP2 MSTORE POP DUP2 PUSH1 0x0 ADD DUP2 SWAP1 MSTORE POP PUSH2 0x7D5 DUP2 PUSH1 0x20 ADD DUP2 DUP2 MSTORE POP POP PUSH1 0x5 DUP2 PUSH1 0x40 ADD SWAP1 PUSH20 0xFFFFFFFFFFFFFFFFFFFFFFFFFFFFFFFFFFFFFFFF AND SWAP1 DUP2 PUSH20 0xFFFFFFFFFFFFFFFFFFFFFFFFFFFFFFFFFFFFFFFF AND DUP2 MSTORE POP POP PUSH1 0x3 DUP4 SWAP1 DUP1 PUSH1 0x1 DUP2 SLOAD ADD DUP1 DUP3 SSTORE DUP1 SWAP2 POP POP PUSH1 0x1 SWAP1 SUB SWAP1 PUSH1 0x0 MSTORE PUSH1 0x20 PUSH1 0x0 KECCAK256 SWAP1 PUSH1 0x3 MUL ADD PUSH1 0x0 SWAP1 SWAP2 SWAP1 SWAP2 SWAP1 SWAP2 POP PUSH1 0x0 DUP3 ADD MLOAD DUP2 PUSH1 0x0 ADD SWAP1 DUP1 MLOAD SWAP1 PUSH1 0x20 ADD SWAP1 PUSH2 0x6C0 SWAP3 SWAP2 SWAP1 PUSH2 0xE8B JUMP JUMPDEST POP PUSH1 0x20 DUP3 ADD MLOAD DUP2 PUSH1 0x1 ADD SSTORE PUSH1 0x40 DUP3 ADD MLOAD DUP2 PUSH1 0x2 ADD PUSH1 0x0 PUSH2 0x100 EXP DUP2 SLOAD DUP2 PUSH20 0xFFFFFFFFFFFFFFFFFFFFFFFFFFFFFFFFFFFFFFFF MUL NOT AND SWAP1 DUP4 PUSH20 0xFFFFFFFFFFFFFFFFFFFFFFFFFFFFFFFFFFFFFFFF AND MUL OR SWAP1 SSTORE POP POP POP PUSH1 0x3 DUP3 SWAP1 DUP1 PUSH1 0x1 DUP2 SLOAD ADD DUP1 DUP3 SSTORE DUP1 SWAP2 POP POP PUSH1 0x1 SWAP1 SUB SWAP1 PUSH1 0x0 MSTORE PUSH1 0x20 PUSH1 0x0 KECCAK256 SWAP1 PUSH1 0x3 MUL ADD PUSH1 0x0 SWAP1 SWAP2 SWAP1 SWAP2 SWAP1 SWAP2 POP PUSH1 0x0 DUP3 ADD MLOAD DUP2 PUSH1 0x0 ADD SWAP1 DUP1 MLOAD SWAP1 PUSH1 0x20 ADD SWAP1 PUSH2 0x75C SWAP3 SWAP2 SWAP1 PUSH2 0xE8B JUMP JUMPDEST POP PUSH1 0x20 DUP3 ADD MLOAD DUP2 PUSH1 0x1 ADD SSTORE PUSH1 0x40 DUP3 ADD MLOAD DUP2 PUSH1 0x2 ADD PUSH1 0x0 PUSH2 0x100 EXP DUP2 SLOAD DUP2 PUSH20 0xFFFFFFFFFFFFFFFFFFFFFFFFFFFFFFFFFFFFFFFF MUL NOT AND SWAP1 DUP4 PUSH20 0xFFFFFFFFFFFFFFFFFFFFFFFFFFFFFFFFFFFFFFFF AND MUL OR SWAP1 SSTORE POP POP POP PUSH1 0x3 DUP2 SWAP1 DUP1 PUSH1 0x1 DUP2 SLOAD ADD DUP1 DUP3 SSTORE DUP1 SWAP2 POP POP PUSH1 0x1 SWAP1 SUB SWAP1 PUSH1 0x0 MSTORE PUSH1 0x20 PUSH1 0x0 KECCAK256 SWAP1 PUSH1 0x3 MUL ADD PUSH1 0x0 SWAP1 SWAP2 SWAP1 SWAP2 SWAP1 SWAP2 POP PUSH1 0x0 DUP3 ADD MLOAD DUP2 PUSH1 0x0 ADD SWAP1 DUP1 MLOAD SWAP1 PUSH1 0x20 ADD SWAP1 PUSH2 0x7F8 SWAP3 SWAP2 SWAP1 PUSH2 0xE8B JUMP JUMPDEST POP PUSH1 0x20 DUP3 ADD MLOAD DUP2 PUSH1 0x1 ADD SSTORE PUSH1 0x40 DUP3 ADD MLOAD DUP2 PUSH1 0x2 ADD PUSH1 0x0 PUSH2 0x100 EXP DUP2 SLOAD DUP2 PUSH20 0xFFFFFFFFFFFFFFFFFFFFFFFFFFFFFFFFFFFFFFFF MUL NOT AND SWAP1 DUP4 PUSH20 0xFFFFFFFFFFFFFFFFFFFFFFFFFFFFFFFFFFFFFFFF AND MUL OR SWAP1 SSTORE POP POP POP PUSH1 0x3 PUSH1 0x40 MLOAD DUP1 PUSH1 0x60 ADD PUSH1 0x40 MSTORE DUP1 PUSH1 0x40 MLOAD DUP1 PUSH1 0x40 ADD PUSH1 0x40 MSTORE DUP1 PUSH1 0x5 DUP2 MSTORE PUSH1 0x20 ADD PUSH32 0x5149525549000000000000000000000000000000000000000000000000000000 DUP2 MSTORE POP DUP2 MSTORE PUSH1 0x20 ADD PUSH2 0x7E8 DUP2 MSTORE PUSH1 0x20 ADD PUSH1 0x6 PUSH20 0xFFFFFFFFFFFFFFFFFFFFFFFFFFFFFFFFFFFFFFFF AND DUP2 MSTORE POP SWAP1 DUP1 PUSH1 0x1 DUP2 SLOAD ADD DUP1 DUP3 SSTORE DUP1 SWAP2 POP POP PUSH1 0x1 SWAP1 SUB SWAP1 PUSH1 0x0 MSTORE PUSH1 0x20 PUSH1 0x0 KECCAK256 SWAP1 PUSH1 0x3 MUL ADD PUSH1 0x0 SWAP1 SWAP2 SWAP1 SWAP2 SWAP1 SWAP2 POP PUSH1 0x0 DUP3 ADD MLOAD DUP2 PUSH1 0x0 ADD SWAP1 DUP1 MLOAD SWAP1 PUSH1 0x20 ADD SWAP1 PUSH2 0x8FC SWAP3 SWAP2 SWAP1 PUSH2 0xE8B JUMP JUMPDEST POP PUSH1 0x20 DUP3 ADD MLOAD DUP2 PUSH1 0x1 ADD SSTORE PUSH1 0x40 DUP3 ADD MLOAD DUP2 PUSH1 0x2 ADD PUSH1 0x0 PUSH2 0x100 EXP DUP2 SLOAD DUP2 PUSH20 0xFFFFFFFFFFFFFFFFFFFFFFFFFFFFFFFFFFFFFFFF MUL NOT AND SWAP1 DUP4 PUSH20 0xFFFFFFFFFFFFFFFFFFFFFFFFFFFFFFFFFFFFFFFF AND MUL OR SWAP1 SSTORE POP POP POP PUSH1 0x0 PUSH1 0x3 PUSH1 0x4 DUP2 SLOAD DUP2 LT PUSH2 0x967 JUMPI PUSH2 0x966 PUSH2 0x142A JUMP JUMPDEST JUMPDEST SWAP1 PUSH1 0x0 MSTORE PUSH1 0x20 PUSH1 0x0 KECCAK256 SWAP1 PUSH1 0x3 MUL ADD SWAP1 POP PUSH2 0x7EA DUP2 PUSH1 0x1 ADD DUP2 SWAP1 SSTORE POP DUP1 PUSH1 0x2 ADD PUSH1 0x0 PUSH2 0x100 EXP DUP2 SLOAD SWAP1 PUSH20 0xFFFFFFFFFFFFFFFFFFFFFFFFFFFFFFFFFFFFFFFF MUL NOT AND SWAP1 SSTORE PUSH1 0x3 PUSH1 0x0 DUP2 SLOAD DUP2 LT PUSH2 0x9BE JUMPI PUSH2 0x9BD PUSH2 0x142A JUMP JUMPDEST JUMPDEST SWAP1 PUSH1 0x0 MSTORE PUSH1 0x20 PUSH1 0x0 KECCAK256 SWAP1 PUSH1 0x3 MUL ADD PUSH1 0x0 DUP1 DUP3 ADD PUSH1 0x0 PUSH2 0x9DD SWAP2 SWAP1 PUSH2 0xE4B JUMP JUMPDEST PUSH1 0x1 DUP3 ADD PUSH1 0x0 SWAP1 SSTORE PUSH1 0x2 DUP3 ADD PUSH1 0x0 PUSH2 0x100 EXP DUP2 SLOAD SWAP1 PUSH20 0xFFFFFFFFFFFFFFFFFFFFFFFFFFFFFFFFFFFFFFFF MUL NOT AND SWAP1 SSTORE POP POP POP POP POP POP JUMP JUMPDEST PUSH2 0xA1C PUSH2 0xF11 JUMP JUMPDEST DUP4 DUP2 PUSH1 0x0 ADD DUP2 SWAP1 MSTORE POP DUP3 DUP2 PUSH1 0x20 ADD DUP2 DUP2 MSTORE POP POP DUP2 DUP2 PUSH1 0x40 ADD SWAP1 PUSH20 0xFFFFFFFFFFFFFFFFFFFFFFFFFFFFFFFFFFFFFFFF AND SWAP1 DUP2 PUSH20 0xFFFFFFFFFFFFFFFFFFFFFFFFFFFFFFFFFFFFFFFF AND DUP2 MSTORE POP POP PUSH1 0x3 DUP2 SWAP1 DUP1 PUSH1 0x1 DUP2 SLOAD ADD DUP1 DUP3 SSTORE DUP1 SWAP2 POP POP PUSH1 0x1 SWAP1 SUB SWAP1 PUSH1 0x0 MSTORE PUSH1 0x20 PUSH1 0x0 KECCAK256 SWAP1 PUSH1 0x3 MUL ADD PUSH1 0x0 SWAP1 SWAP2 SWAP1 SWAP2 SWAP1 SWAP2 POP PUSH1 0x0 DUP3 ADD MLOAD DUP2 PUSH1 0x0 ADD SWAP1 DUP1 MLOAD SWAP1 PUSH1 0x20 ADD SWAP1 PUSH2 0xAAF SWAP3 SWAP2 SWAP1 PUSH2 0xE8B JUMP JUMPDEST POP PUSH1 0x20 DUP3 ADD MLOAD DUP2 PUSH1 0x1 ADD SSTORE PUSH1 0x40 DUP3 ADD MLOAD DUP2 PUSH1 0x2 ADD PUSH1 0x0 PUSH2 0x100 EXP DUP2 SLOAD DUP2 PUSH20 0xFFFFFFFFFFFFFFFFFFFFFFFFFFFFFFFFFFFFFFFF MUL NOT AND SWAP1 DUP4 PUSH20 0xFFFFFFFFFFFFFFFFFFFFFFFFFFFFFFFFFFFFFFFF AND MUL OR SWAP1 SSTORE POP POP POP POP POP POP POP JUMP JUMPDEST PUSH1 0x0 PUSH1 0x3 DUP1 SLOAD SWAP1 POP DUP3 LT PUSH2 0xB52 JUMPI PUSH1 0x40 MLOAD PUSH32 0x8C379A000000000000000000000000000000000000000000000000000000000 DUP2 MSTORE PUSH1 0x4 ADD PUSH2 0xB49 SWAP1 PUSH2 0x123A JUMP JUMPDEST PUSH1 0x40 MLOAD DUP1 SWAP2 SUB SWAP1 REVERT JUMPDEST PUSH1 0x3 DUP3 DUP2 SLOAD DUP2 LT PUSH2 0xB66 JUMPI PUSH2 0xB65 PUSH2 0x142A JUMP JUMPDEST JUMPDEST SWAP1 PUSH1 0x0 MSTORE PUSH1 0x20 PUSH1 0x0 KECCAK256 SWAP1 PUSH1 0x3 MUL ADD PUSH1 0x1 ADD SLOAD SWAP1 POP SWAP2 SWAP1 POP JUMP JUMPDEST PUSH1 0x3 DUP2 DUP2 SLOAD DUP2 LT PUSH2 0xB8F JUMPI PUSH1 0x0 DUP1 REVERT JUMPDEST SWAP1 PUSH1 0x0 MSTORE PUSH1 0x20 PUSH1 0x0 KECCAK256 SWAP1 PUSH1 0x3 MUL ADD PUSH1 0x0 SWAP2 POP SWAP1 POP DUP1 PUSH1 0x0 ADD DUP1 SLOAD PUSH2 0xBB2 SWAP1 PUSH2 0x1398 JUMP JUMPDEST DUP1 PUSH1 0x1F ADD PUSH1 0x20 DUP1 SWAP2 DIV MUL PUSH1 0x20 ADD PUSH1 0x40 MLOAD SWAP1 DUP2 ADD PUSH1 0x40 MSTORE DUP1 SWAP3 SWAP2 SWAP1 DUP2 DUP2 MSTORE PUSH1 0x20 ADD DUP3 DUP1 SLOAD PUSH2 0xBDE SWAP1 PUSH2 0x1398 JUMP JUMPDEST DUP1 ISZERO PUSH2 0xC2B JUMPI DUP1 PUSH1 0x1F LT PUSH2 0xC00 JUMPI PUSH2 0x100 DUP1 DUP4 SLOAD DIV MUL DUP4 MSTORE SWAP2 PUSH1 0x20 ADD SWAP2 PUSH2 0xC2B JUMP JUMPDEST DUP3 ADD SWAP2 SWAP1 PUSH1 0x0 MSTORE PUSH1 0x20 PUSH1 0x0 KECCAK256 SWAP1 JUMPDEST DUP2 SLOAD DUP2 MSTORE SWAP1 PUSH1 0x1 ADD SWAP1 PUSH1 0x20 ADD DUP1 DUP4 GT PUSH2 0xC0E JUMPI DUP3 SWAP1 SUB PUSH1 0x1F AND DUP3 ADD SWAP2 JUMPDEST POP POP POP POP POP SWAP1 DUP1 PUSH1 0x1 ADD SLOAD SWAP1 DUP1 PUSH1 0x2 ADD PUSH1 0x0 SWAP1 SLOAD SWAP1 PUSH2 0x100 EXP SWAP1 DIV PUSH20 0xFFFFFFFFFFFFFFFFFFFFFFFFFFFFFFFFFFFFFFFF AND SWAP1 POP DUP4 JUMP JUMPDEST PUSH1 0x3 DUP1 SLOAD SWAP1 POP DUP3 LT PUSH2 0xCA8 JUMPI PUSH1 0x40 MLOAD PUSH32 0x8C379A000000000000000000000000000000000000000000000000000000000 DUP2 MSTORE PUSH1 0x4 ADD PUSH2 0xC9F SWAP1 PUSH2 0x123A JUMP JUMPDEST PUSH1 0x40 MLOAD DUP1 SWAP2 SUB SWAP1 REVERT JUMPDEST DUP1 PUSH1 0x3 DUP4 DUP2 SLOAD DUP2 LT PUSH2 0xCBD JUMPI PUSH2 0xCBC PUSH2 0x142A JUMP JUMPDEST JUMPDEST SWAP1 PUSH1 0x0 MSTORE PUSH1 0x20 PUSH1 0x0 KECCAK256 SWAP1 PUSH1 0x3 MUL ADD PUSH1 0x1 ADD DUP2 SWAP1 SSTORE POP POP POP JUMP JUMPDEST PUSH2 0xCDE PUSH2 0xF11 JUMP JUMPDEST PUSH1 0x3 DUP1 SLOAD SWAP1 POP DUP3 LT PUSH2 0xD25 JUMPI PUSH1 0x40 MLOAD PUSH32 0x8C379A000000000000000000000000000000000000000000000000000000000 DUP2 MSTORE PUSH1 0x4 ADD PUSH2 0xD1C SWAP1 PUSH2 0x123A JUMP JUMPDEST PUSH1 0x40 MLOAD DUP1 SWAP2 SUB SWAP1 REVERT JUMPDEST PUSH1 0x3 DUP3 DUP2 SLOAD DUP2 LT PUSH2 0xD39 JUMPI PUSH2 0xD38 PUSH2 0x142A JUMP JUMPDEST JUMPDEST SWAP1 PUSH1 0x0 MSTORE PUSH1 0x20 PUSH1 0x0 KECCAK256 SWAP1 PUSH1 0x3 MUL ADD PUSH1 0x40 MLOAD DUP1 PUSH1 0x60 ADD PUSH1 0x40 MSTORE SWAP1 DUP2 PUSH1 0x0 DUP3 ADD DUP1 SLOAD PUSH2 0xD62 SWAP1 PUSH2 0x1398 JUMP JUMPDEST DUP1 PUSH1 0x1F ADD PUSH1 0x20 DUP1 SWAP2 DIV MUL PUSH1 0x20 ADD PUSH1 0x40 MLOAD SWAP1 DUP2 ADD PUSH1 0x40 MSTORE DUP1 SWAP3 SWAP2 SWAP1 DUP2 DUP2 MSTORE PUSH1 0x20 ADD DUP3 DUP1 SLOAD PUSH2 0xD8E SWAP1 PUSH2 0x1398 JUMP JUMPDEST DUP1 ISZERO PUSH2 0xDDB JUMPI DUP1 PUSH1 0x1F LT PUSH2 0xDB0 JUMPI PUSH2 0x100 DUP1 DUP4 SLOAD DIV MUL DUP4 MSTORE SWAP2 PUSH1 0x20 ADD SWAP2 PUSH2 0xDDB JUMP JUMPDEST DUP3 ADD SWAP2 SWAP1 PUSH1 0x0 MSTORE PUSH1 0x20 PUSH1 0x0 KECCAK256 SWAP1 JUMPDEST DUP2 SLOAD DUP2 MSTORE SWAP1 PUSH1 0x1 ADD SWAP1 PUSH1 0x20 ADD DUP1 DUP4 GT PUSH2 0xDBE JUMPI DUP3 SWAP1 SUB PUSH1 0x1F AND DUP3 ADD SWAP2 JUMPDEST POP POP POP POP POP DUP2 MSTORE PUSH1 0x20 ADD PUSH1 0x1 DUP3 ADD SLOAD DUP2 MSTORE PUSH1 0x20 ADD PUSH1 0x2 DUP3 ADD PUSH1 0x0 SWAP1 SLOAD SWAP1 PUSH2 0x100 EXP SWAP1 DIV PUSH20 0xFFFFFFFFFFFFFFFFFFFFFFFFFFFFFFFFFFFFFFFF AND PUSH20 0xFFFFFFFFFFFFFFFFFFFFFFFFFFFFFFFFFFFFFFFF AND PUSH20 0xFFFFFFFFFFFFFFFFFFFFFFFFFFFFFFFFFFFFFFFF AND DUP2 MSTORE POP POP SWAP1 POP SWAP2 SWAP1 POP JUMP JUMPDEST POP DUP1 SLOAD PUSH2 0xE57 SWAP1 PUSH2 0x1398 JUMP JUMPDEST PUSH1 0x0 DUP3 SSTORE DUP1 PUSH1 0x1F LT PUSH2 0xE69 JUMPI POP PUSH2 0xE88 JUMP JUMPDEST PUSH1 0x1F ADD PUSH1 0x20 SWAP1 DIV SWAP1 PUSH1 0x0 MSTORE PUSH1 0x20 PUSH1 0x0 KECCAK256 SWAP1 DUP2 ADD SWAP1 PUSH2 0xE87 SWAP2 SWAP1 PUSH2 0xF48 JUMP JUMPDEST JUMPDEST POP JUMP JUMPDEST DUP3 DUP1 SLOAD PUSH2 0xE97 SWAP1 PUSH2 0x1398 JUMP JUMPDEST SWAP1 PUSH1 0x0 MSTORE PUSH1 0x20 PUSH1 0x0 KECCAK256 SWAP1 PUSH1 0x1F ADD PUSH1 0x20 SWAP1 DIV DUP2 ADD SWAP3 DUP3 PUSH2 0xEB9 JUMPI PUSH1 0x0 DUP6 SSTORE PUSH2 0xF00 JUMP JUMPDEST DUP3 PUSH1 0x1F LT PUSH2 0xED2 JUMPI DUP1 MLOAD PUSH1 0xFF NOT AND DUP4 DUP1 ADD OR DUP6 SSTORE PUSH2 0xF00 JUMP JUMPDEST DUP3 DUP1 ADD PUSH1 0x1 ADD DUP6 SSTORE DUP3 ISZERO PUSH2 0xF00 JUMPI SWAP2 DUP3 ADD JUMPDEST DUP3 DUP2 GT ISZERO PUSH2 0xEFF JUMPI DUP3 MLOAD DUP3 SSTORE SWAP2 PUSH1 0x20 ADD SWAP2 SWAP1 PUSH1 0x1 ADD SWAP1 PUSH2 0xEE4 JUMP JUMPDEST JUMPDEST POP SWAP1 POP PUSH2 0xF0D SWAP2 SWAP1 PUSH2 0xF48 JUMP JUMPDEST POP SWAP1 JUMP JUMPDEST PUSH1 0x40 MLOAD DUP1 PUSH1 0x60 ADD PUSH1 0x40 MSTORE DUP1 PUSH1 0x60 DUP2 MSTORE PUSH1 0x20 ADD PUSH1 0x0 DUP2 MSTORE PUSH1 0x20 ADD PUSH1 0x0 PUSH20 0xFFFFFFFFFFFFFFFFFFFFFFFFFFFFFFFFFFFFFFFF AND DUP2 MSTORE POP SWAP1 JUMP JUMPDEST JUMPDEST DUP1 DUP3 GT ISZERO PUSH2 0xF61 JUMPI PUSH1 0x0 DUP2 PUSH1 0x0 SWAP1 SSTORE POP PUSH1 0x1 ADD PUSH2 0xF49 JUMP JUMPDEST POP SWAP1 JUMP JUMPDEST PUSH1 0x0 PUSH2 0xF78 PUSH2 0xF73 DUP5 PUSH2 0x12BC JUMP JUMPDEST PUSH2 0x1297 JUMP JUMPDEST SWAP1 POP DUP3 DUP2 MSTORE PUSH1 0x20 DUP2 ADD DUP5 DUP5 DUP5 ADD GT ISZERO PUSH2 0xF94 JUMPI PUSH2 0xF93 PUSH2 0x148D JUMP JUMPDEST JUMPDEST PUSH2 0xF9F DUP5 DUP3 DUP6 PUSH2 0x1356 JUMP JUMPDEST POP SWAP4 SWAP3 POP POP POP JUMP JUMPDEST PUSH1 0x0 DUP2 CALLDATALOAD SWAP1 POP PUSH2 0xFB6 DUP2 PUSH2 0x14D6 JUMP JUMPDEST SWAP3 SWAP2 POP POP JUMP JUMPDEST PUSH1 0x0 DUP3 PUSH1 0x1F DUP4 ADD SLT PUSH2 0xFD1 JUMPI PUSH2 0xFD0 PUSH2 0x1488 JUMP JUMPDEST JUMPDEST DUP2 CALLDATALOAD PUSH2 0xFE1 DUP5 DUP3 PUSH1 0x20 DUP7 ADD PUSH2 0xF65 JUMP JUMPDEST SWAP2 POP POP SWAP3 SWAP2 POP POP JUMP JUMPDEST PUSH1 0x0 DUP2 CALLDATALOAD SWAP1 POP PUSH2 0xFF9 DUP2 PUSH2 0x14ED JUMP JUMPDEST SWAP3 SWAP2 POP POP JUMP JUMPDEST PUSH1 0x0 DUP1 PUSH1 0x0 PUSH1 0x60 DUP5 DUP7 SUB SLT ISZERO PUSH2 0x1018 JUMPI PUSH2 0x1017 PUSH2 0x1497 JUMP JUMPDEST JUMPDEST PUSH1 0x0 DUP5 ADD CALLDATALOAD PUSH8 0xFFFFFFFFFFFFFFFF DUP2 GT ISZERO PUSH2 0x1036 JUMPI PUSH2 0x1035 PUSH2 0x1492 JUMP JUMPDEST JUMPDEST PUSH2 0x1042 DUP7 DUP3 DUP8 ADD PUSH2 0xFBC JUMP JUMPDEST SWAP4 POP POP PUSH1 0x20 PUSH2 0x1053 DUP7 DUP3 DUP8 ADD PUSH2 0xFEA JUMP JUMPDEST SWAP3 POP POP PUSH1 0x40 PUSH2 0x1064 DUP7 DUP3 DUP8 ADD PUSH2 0xFA7 JUMP JUMPDEST SWAP2 POP POP SWAP3 POP SWAP3 POP SWAP3 JUMP JUMPDEST PUSH1 0x0 PUSH1 0x20 DUP3 DUP5 SUB SLT ISZERO PUSH2 0x1084 JUMPI PUSH2 0x1083 PUSH2 0x1497 JUMP JUMPDEST JUMPDEST PUSH1 0x0 PUSH2 0x1092 DUP5 DUP3 DUP6 ADD PUSH2 0xFEA JUMP JUMPDEST SWAP2 POP POP SWAP3 SWAP2 POP POP JUMP JUMPDEST PUSH1 0x0 DUP1 PUSH1 0x40 DUP4 DUP6 SUB SLT ISZERO PUSH2 0x10B2 JUMPI PUSH2 0x10B1 PUSH2 0x1497 JUMP JUMPDEST JUMPDEST PUSH1 0x0 PUSH2 0x10C0 DUP6 DUP3 DUP7 ADD PUSH2 0xFEA JUMP JUMPDEST SWAP3 POP POP PUSH1 0x20 PUSH2 0x10D1 DUP6 DUP3 DUP7 ADD PUSH2 0xFEA JUMP JUMPDEST SWAP2 POP POP SWAP3 POP SWAP3 SWAP1 POP JUMP JUMPDEST PUSH2 0x10E4 DUP2 PUSH2 0x131A JUMP JUMPDEST DUP3 MSTORE POP POP JUMP JUMPDEST PUSH2 0x10F3 DUP2 PUSH2 0x131A JUMP JUMPDEST DUP3 MSTORE POP POP JUMP JUMPDEST PUSH1 0x0 PUSH2 0x1104 DUP3 PUSH2 0x12ED JUMP JUMPDEST PUSH2 0x110E DUP2 DUP6 PUSH2 0x12F8 JUMP JUMPDEST SWAP4 POP PUSH2 0x111E DUP2 DUP6 PUSH1 0x20 DUP7 ADD PUSH2 0x1365 JUMP JUMPDEST PUSH2 0x1127 DUP2 PUSH2 0x149C JUMP JUMPDEST DUP5 ADD SWAP2 POP POP SWAP3 SWAP2 POP POP JUMP JUMPDEST PUSH1 0x0 PUSH2 0x113D DUP3 PUSH2 0x12ED JUMP JUMPDEST PUSH2 0x1147 DUP2 DUP6 PUSH2 0x1309 JUMP JUMPDEST SWAP4 POP PUSH2 0x1157 DUP2 DUP6 PUSH1 0x20 DUP7 ADD PUSH2 0x1365 JUMP JUMPDEST PUSH2 0x1160 DUP2 PUSH2 0x149C JUMP JUMPDEST DUP5 ADD SWAP2 POP POP SWAP3 SWAP2 POP POP JUMP JUMPDEST PUSH1 0x0 PUSH2 0x1178 PUSH1 0x13 DUP4 PUSH2 0x1309 JUMP JUMPDEST SWAP2 POP PUSH2 0x1183 DUP3 PUSH2 0x14AD JUMP JUMPDEST PUSH1 0x20 DUP3 ADD SWAP1 POP SWAP2 SWAP1 POP JUMP JUMPDEST PUSH1 0x0 PUSH1 0x60 DUP4 ADD PUSH1 0x0 DUP4 ADD MLOAD DUP5 DUP3 SUB PUSH1 0x0 DUP7 ADD MSTORE PUSH2 0x11AB DUP3 DUP3 PUSH2 0x10F9 JUMP JUMPDEST SWAP2 POP POP PUSH1 0x20 DUP4 ADD MLOAD PUSH2 0x11C0 PUSH1 0x20 DUP7 ADD DUP3 PUSH2 0x11DE JUMP JUMPDEST POP PUSH1 0x40 DUP4 ADD MLOAD PUSH2 0x11D3 PUSH1 0x40 DUP7 ADD DUP3 PUSH2 0x10DB JUMP JUMPDEST POP DUP1 SWAP2 POP POP SWAP3 SWAP2 POP POP JUMP JUMPDEST PUSH2 0x11E7 DUP2 PUSH2 0x134C JUMP JUMPDEST DUP3 MSTORE POP POP JUMP JUMPDEST PUSH2 0x11F6 DUP2 PUSH2 0x134C JUMP JUMPDEST DUP3 MSTORE POP POP JUMP JUMPDEST PUSH1 0x0 PUSH1 0x60 DUP3 ADD SWAP1 POP DUP2 DUP2 SUB PUSH1 0x0 DUP4 ADD MSTORE PUSH2 0x1216 DUP2 DUP7 PUSH2 0x1132 JUMP JUMPDEST SWAP1 POP PUSH2 0x1225 PUSH1 0x20 DUP4 ADD DUP6 PUSH2 0x11ED JUMP JUMPDEST PUSH2 0x1232 PUSH1 0x40 DUP4 ADD DUP5 PUSH2 0x10EA JUMP JUMPDEST SWAP5 SWAP4 POP POP POP POP JUMP JUMPDEST PUSH1 0x0 PUSH1 0x20 DUP3 ADD SWAP1 POP DUP2 DUP2 SUB PUSH1 0x0 DUP4 ADD MSTORE PUSH2 0x1253 DUP2 PUSH2 0x116B JUMP JUMPDEST SWAP1 POP SWAP2 SWAP1 POP JUMP JUMPDEST PUSH1 0x0 PUSH1 0x20 DUP3 ADD SWAP1 POP DUP2 DUP2 SUB PUSH1 0x0 DUP4 ADD MSTORE PUSH2 0x1274 DUP2 DUP5 PUSH2 0x118E JUMP JUMPDEST SWAP1 POP SWAP3 SWAP2 POP POP JUMP JUMPDEST PUSH1 0x0 PUSH1 0x20 DUP3 ADD SWAP1 POP PUSH2 0x1291 PUSH1 0x0 DUP4 ADD DUP5 PUSH2 0x11ED JUMP JUMPDEST SWAP3 SWAP2 POP POP JUMP JUMPDEST PUSH1 0x0 PUSH2 0x12A1 PUSH2 0x12B2 JUMP JUMPDEST SWAP1 POP PUSH2 0x12AD DUP3 DUP3 PUSH2 0x13CA JUMP JUMPDEST SWAP2 SWAP1 POP JUMP JUMPDEST PUSH1 0x0 PUSH1 0x40 MLOAD SWAP1 POP SWAP1 JUMP JUMPDEST PUSH1 0x0 PUSH8 0xFFFFFFFFFFFFFFFF DUP3 GT ISZERO PUSH2 0x12D7 JUMPI PUSH2 0x12D6 PUSH2 0x1459 JUMP JUMPDEST JUMPDEST PUSH2 0x12E0 DUP3 PUSH2 0x149C JUMP JUMPDEST SWAP1 POP PUSH1 0x20 DUP2 ADD SWAP1 POP SWAP2 SWAP1 POP JUMP JUMPDEST PUSH1 0x0 DUP2 MLOAD SWAP1 POP SWAP2 SWAP1 POP JUMP JUMPDEST PUSH1 0x0 DUP3 DUP3 MSTORE PUSH1 0x20 DUP3 ADD SWAP1 POP SWAP3 SWAP2 POP POP JUMP JUMPDEST PUSH1 0x0 DUP3 DUP3 MSTORE PUSH1 0x20 DUP3 ADD SWAP1 POP SWAP3 SWAP2 POP POP JUMP JUMPDEST PUSH1 0x0 PUSH2 0x1325 DUP3 PUSH2 0x132C JUMP JUMPDEST SWAP1 POP SWAP2 SWAP1 POP JUMP JUMPDEST PUSH1 0x0 PUSH20 0xFFFFFFFFFFFFFFFFFFFFFFFFFFFFFFFFFFFFFFFF DUP3 AND SWAP1 POP SWAP2 SWAP1 POP JUMP JUMPDEST PUSH1 0x0 DUP2 SWAP1 POP SWAP2 SWAP1 POP JUMP JUMPDEST DUP3 DUP2 DUP4 CALLDATACOPY PUSH1 0x0 DUP4 DUP4 ADD MSTORE POP POP POP JUMP JUMPDEST PUSH1 0x0 JUMPDEST DUP4 DUP2 LT ISZERO PUSH2 0x1383 JUMPI DUP1 DUP3 ADD MLOAD DUP2 DUP5 ADD MSTORE PUSH1 0x20 DUP2 ADD SWAP1 POP PUSH2 0x1368 JUMP JUMPDEST DUP4 DUP2 GT ISZERO PUSH2 0x1392 JUMPI PUSH1 0x0 DUP5 DUP5 ADD MSTORE JUMPDEST POP POP POP POP JUMP JUMPDEST PUSH1 0x0 PUSH1 0x2 DUP3 DIV SWAP1 POP PUSH1 0x1 DUP3 AND DUP1 PUSH2 0x13B0 JUMPI PUSH1 0x7F DUP3 AND SWAP2 POP JUMPDEST PUSH1 0x20 DUP3 LT DUP2 EQ ISZERO PUSH2 0x13C4 JUMPI PUSH2 0x13C3 PUSH2 0x13FB JUMP JUMPDEST JUMPDEST POP SWAP2 SWAP1 POP JUMP JUMPDEST PUSH2 0x13D3 DUP3 PUSH2 0x149C JUMP JUMPDEST DUP2 ADD DUP2 DUP2 LT PUSH8 0xFFFFFFFFFFFFFFFF DUP3 GT OR ISZERO PUSH2 0x13F2 JUMPI PUSH2 0x13F1 PUSH2 0x1459 JUMP JUMPDEST JUMPDEST DUP1 PUSH1 0x40 MSTORE POP POP POP JUMP JUMPDEST PUSH32 0x4E487B7100000000000000000000000000000000000000000000000000000000 PUSH1 0x0 MSTORE PUSH1 0x22 PUSH1 0x4 MSTORE PUSH1 0x24 PUSH1 0x0 REVERT JUMPDEST PUSH32 0x4E487B7100000000000000000000000000000000000000000000000000000000 PUSH1 0x0 MSTORE PUSH1 0x32 PUSH1 0x4 MSTORE PUSH1 0x24 PUSH1 0x0 REVERT JUMPDEST PUSH32 0x4E487B7100000000000000000000000000000000000000000000000000000000 PUSH1 0x0 MSTORE PUSH1 0x41 PUSH1 0x4 MSTORE PUSH1 0x24 PUSH1 0x0 REVERT JUMPDEST PUSH1 0x0 DUP1 REVERT JUMPDEST PUSH1 0x0 DUP1 REVERT JUMPDEST PUSH1 0x0 DUP1 REVERT JUMPDEST PUSH1 0x0 DUP1 REVERT JUMPDEST PUSH1 0x0 PUSH1 0x1F NOT PUSH1 0x1F DUP4 ADD AND SWAP1 POP SWAP2 SWAP1 POP JUMP JUMPDEST PUSH32 0x696E646578206F7574206F6620626F756E647300000000000000000000000000 PUSH1 0x0 DUP3 ADD MSTORE POP JUMP JUMPDEST PUSH2 0x14DF DUP2 PUSH2 0x131A JUMP JUMPDEST DUP2 EQ PUSH2 0x14EA JUMPI PUSH1 0x0 DUP1 REVERT JUMPDEST POP JUMP JUMPDEST PUSH2 0x14F6 DUP2 PUSH2 0x134C JUMP JUMPDEST DUP2 EQ PUSH2 0x1501 JUMPI PUSH1 0x0 DUP1 REVERT JUMPDEST POP JUMP INVALID LOG2 PUSH5 0x6970667358 0x22 SLT KECCAK256 SGT PUSH21 0xABA6122D3EE3AE0B0E13B80A5C14C5DBB2586F2F19 CREATE SLT 0x2C DUP15 CHAINID RETURN SWAP2 0xE6 CHAINID PUSH5 0x736F6C6343 STOP ADDMOD SMOD STOP CALLER "
				},
				"gasEstimates": {
					"creation": {
						"codeDepositCost": "1086800",
						"executionCost": "1127",
						"totalCost": "1087927"
					},
					"external": {
						"addToVehicle(string,uint256,address)": "infinite",
						"deleteVehicle(uint256)": "infinite",
						"example()": "infinite",
						"getVehicle(uint256)": "infinite",
						"getYear(uint256)": "infinite",
						"setYear(uint256,uint256)": "infinite",
						"vehicle()": "infinite",
						"vehicleArr(uint256)": "infinite"
					}
				},
				"methodIdentifiers": {
					"addToVehicle(string,uint256,address)": "837c72bb",
					"deleteVehicle(uint256)": "3a4a2c0b",
					"example()": "54353f2f",
					"getVehicle(uint256)": "df7ebb7b",
					"getYear(uint256)": "92d66313",
					"setYear(uint256,uint256)": "a098abc5",
					"vehicle()": "132a339b",
					"vehicleArr(uint256)": "9375d9a9"
				}
			},
			"storageLayout": {
				"storage": [
					{
						"astId": 11,
						"contract": "contracts/StructsTest.sol:StructTest",
						"label": "vehicle",
						"offset": 0,
						"slot": "0",
						"type": "t_struct(Vehicle)8_storage"
					},
					{
						"astId": 15,
						"contract": "contracts/StructsTest.sol:StructTest",
						"label": "vehicleArr",
						"offset": 0,
						"slot": "3",
						"type": "t_array(t_struct(Vehicle)8_storage)dyn_storage"
					}
				],
				"types": {
					"t_address": {
						"encoding": "inplace",
						"label": "address",
						"numberOfBytes": "20"
					},
					"t_array(t_struct(Vehicle)8_storage)dyn_storage": {
						"base": "t_struct(Vehicle)8_storage",
						"encoding": "dynamic_array",
						"label": "struct StructTest.Vehicle[]",
						"numberOfBytes": "32"
					},
					"t_string_storage": {
						"encoding": "bytes",
						"label": "string",
						"numberOfBytes": "32"
					},
					"t_struct(Vehicle)8_storage": {
						"encoding": "inplace",
						"label": "struct StructTest.Vehicle",
						"members": [
							{
								"astId": 3,
								"contract": "contracts/StructsTest.sol:StructTest",
								"label": "make",
								"offset": 0,
								"slot": "0",
								"type": "t_string_storage"
							},
							{
								"astId": 5,
								"contract": "contracts/StructsTest.sol:StructTest",
								"label": "year",
								"offset": 0,
								"slot": "1",
								"type": "t_uint256"
							},
							{
								"astId": 7,
								"contract": "contracts/StructsTest.sol:StructTest",
								"label": "owner",
								"offset": 0,
								"slot": "2",
								"type": "t_address"
							}
						],
						"numberOfBytes": "96"
					},
					"t_uint256": {
						"encoding": "inplace",
						"label": "uint256",
						"numberOfBytes": "32"
					}
				}
			},
			"userdoc": {
				"kind": "user",
				"methods": {},
				"version": 1
			}
		}
	}
}