{
	"contracts/DelegateCall.sol": {
		"Caller": {
			"abi": [
				{
					"inputs": [],
					"name": "num",
					"outputs": [
						{
							"internalType": "uint256",
							"name": "",
							"type": "uint256"
						}
					],
					"stateMutability": "view",
					"type": "function"
				},
				{
					"inputs": [
						{
							"internalType": "address",
							"name": "_addr",
							"type": "address"
						},
						{
							"internalType": "uint256",
							"name": "_num",
							"type": "uint256"
						}
					],
					"name": "setNum",
					"outputs": [],
					"stateMutability": "payable",
					"type": "function"
				}
			],
			"devdoc": {
				"kind": "dev",
				"methods": {},
				"version": 1
			},
			"evm": {
				"assembly": "    /* \"contracts/DelegateCall.sol\":704:986  contract Caller {... */\n  mstore(0x40, 0x80)\n  callvalue\n  dup1\n  iszero\n  tag_1\n  jumpi\n  0x00\n  dup1\n  revert\ntag_1:\n  pop\n  dataSize(sub_0)\n  dup1\n  dataOffset(sub_0)\n  0x00\n  codecopy\n  0x00\n  return\nstop\n\nsub_0: assembly {\n        /* \"contracts/DelegateCall.sol\":704:986  contract Caller {... */\n      mstore(0x40, 0x80)\n      jumpi(tag_1, lt(calldatasize, 0x04))\n      shr(0xe0, calldataload(0x00))\n      dup1\n      0x4e70b1dc\n      eq\n      tag_2\n      jumpi\n      dup1\n      0xd84076e6\n      eq\n      tag_3\n      jumpi\n    tag_1:\n      0x00\n      dup1\n      revert\n        /* \"contracts/DelegateCall.sol\":726:741  uint public num */\n    tag_2:\n      callvalue\n      dup1\n      iszero\n      tag_4\n      jumpi\n      0x00\n      dup1\n      revert\n    tag_4:\n      pop\n      tag_5\n      tag_6\n      jump\t// in\n    tag_5:\n      mload(0x40)\n      tag_7\n      swap2\n      swap1\n      tag_8\n      jump\t// in\n    tag_7:\n      mload(0x40)\n      dup1\n      swap2\n      sub\n      swap1\n      return\n        /* \"contracts/DelegateCall.sol\":747:984  function setNum(address _addr, uint _num) external payable {... */\n    tag_3:\n      tag_9\n      0x04\n      dup1\n      calldatasize\n      sub\n      dup2\n      add\n      swap1\n      tag_10\n      swap2\n      swap1\n      tag_11\n      jump\t// in\n    tag_10:\n      tag_12\n      jump\t// in\n    tag_9:\n      stop\n        /* \"contracts/DelegateCall.sol\":726:741  uint public num */\n    tag_6:\n      sload(0x00)\n      dup2\n      jump\t// out\n        /* \"contracts/DelegateCall.sol\":747:984  function setNum(address _addr, uint _num) external payable {... */\n    tag_12:\n        /* \"contracts/DelegateCall.sol\":817:829  bool success */\n      0x00\n        /* \"contracts/DelegateCall.sol\":834:839  _addr */\n      dup3\n        /* \"contracts/DelegateCall.sol\":834:852  _addr.delegatecall */\n      0xffffffffffffffffffffffffffffffffffffffff\n      and\n        /* \"contracts/DelegateCall.sol\":889:911  Callee.setNum.selector */\n      shl(0xe0, 0xcd16ecbf)\n        /* \"contracts/DelegateCall.sol\":913:917  _num */\n      dup4\n        /* \"contracts/DelegateCall.sol\":866:918  abi.encodeWithSelector(Callee.setNum.selector, _num) */\n      add(0x24, mload(0x40))\n      tag_14\n      swap2\n      swap1\n      tag_8\n      jump\t// in\n    tag_14:\n      mload(0x40)\n      0x20\n      dup2\n      dup4\n      sub\n      sub\n      dup2\n      mstore\n      swap1\n      0x40\n      mstore\n      swap1\n      not(0xffffffffffffffffffffffffffffffffffffffffffffffffffffffff)\n      and\n      0x20\n      dup3\n      add\n      dup1\n      mload\n      0xffffffffffffffffffffffffffffffffffffffffffffffffffffffff\n      dup4\n      dup2\n      dup4\n      and\n      or\n      dup4\n      mstore\n      pop\n      pop\n      pop\n      pop\n        /* \"contracts/DelegateCall.sol\":834:928  _addr.delegatecall(... */\n      mload(0x40)\n      tag_15\n      swap2\n      swap1\n      tag_16\n      jump\t// in\n    tag_15:\n      0x00\n      mload(0x40)\n      dup1\n      dup4\n      sub\n      dup2\n      dup6\n      gas\n      delegatecall\n      swap2\n      pop\n      pop\n      returndatasize\n      dup1\n      0x00\n      dup2\n      eq\n      tag_19\n      jumpi\n      mload(0x40)\n      swap2\n      pop\n      and(add(returndatasize, 0x3f), not(0x1f))\n      dup3\n      add\n      0x40\n      mstore\n      returndatasize\n      dup3\n      mstore\n      returndatasize\n      0x00\n      0x20\n      dup5\n      add\n      returndatacopy\n      jump(tag_18)\n    tag_19:\n      0x60\n      swap2\n      pop\n    tag_18:\n      pop\n        /* \"contracts/DelegateCall.sol\":816:928  (bool success,) = _addr.delegatecall(... */\n      pop\n      swap1\n      pop\n        /* \"contracts/DelegateCall.sol\":946:953  success */\n      dup1\n        /* \"contracts/DelegateCall.sol\":938:977  require(success, \"DelegateCall failed\") */\n      tag_20\n      jumpi\n      mload(0x40)\n      0x08c379a000000000000000000000000000000000000000000000000000000000\n      dup2\n      mstore\n      0x04\n      add\n      tag_21\n      swap1\n      tag_22\n      jump\t// in\n    tag_21:\n      mload(0x40)\n      dup1\n      swap2\n      sub\n      swap1\n      revert\n    tag_20:\n        /* \"contracts/DelegateCall.sol\":806:984  {... */\n      pop\n        /* \"contracts/DelegateCall.sol\":747:984  function setNum(address _addr, uint _num) external payable {... */\n      pop\n      pop\n      jump\t// out\n        /* \"#utility.yul\":7:146   */\n    tag_24:\n        /* \"#utility.yul\":53:58   */\n      0x00\n        /* \"#utility.yul\":91:97   */\n      dup2\n        /* \"#utility.yul\":78:98   */\n      calldataload\n        /* \"#utility.yul\":69:98   */\n      swap1\n      pop\n        /* \"#utility.yul\":107:140   */\n      tag_26\n        /* \"#utility.yul\":134:139   */\n      dup2\n        /* \"#utility.yul\":107:140   */\n      tag_27\n      jump\t// in\n    tag_26:\n        /* \"#utility.yul\":7:146   */\n      swap3\n      swap2\n      pop\n      pop\n      jump\t// out\n        /* \"#utility.yul\":152:291   */\n    tag_28:\n        /* \"#utility.yul\":198:203   */\n      0x00\n        /* \"#utility.yul\":236:242   */\n      dup2\n        /* \"#utility.yul\":223:243   */\n      calldataload\n        /* \"#utility.yul\":214:243   */\n      swap1\n      pop\n        /* \"#utility.yul\":252:285   */\n      tag_30\n        /* \"#utility.yul\":279:284   */\n      dup2\n        /* \"#utility.yul\":252:285   */\n      tag_31\n      jump\t// in\n    tag_30:\n        /* \"#utility.yul\":152:291   */\n      swap3\n      swap2\n      pop\n      pop\n      jump\t// out\n        /* \"#utility.yul\":297:771   */\n    tag_11:\n        /* \"#utility.yul\":365:371   */\n      0x00\n        /* \"#utility.yul\":373:379   */\n      dup1\n        /* \"#utility.yul\":422:424   */\n      0x40\n        /* \"#utility.yul\":410:419   */\n      dup4\n        /* \"#utility.yul\":401:408   */\n      dup6\n        /* \"#utility.yul\":397:420   */\n      sub\n        /* \"#utility.yul\":393:425   */\n      slt\n        /* \"#utility.yul\":390:509   */\n      iszero\n      tag_33\n      jumpi\n        /* \"#utility.yul\":428:507   */\n      tag_34\n      tag_35\n      jump\t// in\n    tag_34:\n        /* \"#utility.yul\":390:509   */\n    tag_33:\n        /* \"#utility.yul\":548:549   */\n      0x00\n        /* \"#utility.yul\":573:626   */\n      tag_36\n        /* \"#utility.yul\":618:625   */\n      dup6\n        /* \"#utility.yul\":609:615   */\n      dup3\n        /* \"#utility.yul\":598:607   */\n      dup7\n        /* \"#utility.yul\":594:616   */\n      add\n        /* \"#utility.yul\":573:626   */\n      tag_24\n      jump\t// in\n    tag_36:\n        /* \"#utility.yul\":563:626   */\n      swap3\n      pop\n        /* \"#utility.yul\":519:636   */\n      pop\n        /* \"#utility.yul\":675:677   */\n      0x20\n        /* \"#utility.yul\":701:754   */\n      tag_37\n        /* \"#utility.yul\":746:753   */\n      dup6\n        /* \"#utility.yul\":737:743   */\n      dup3\n        /* \"#utility.yul\":726:735   */\n      dup7\n        /* \"#utility.yul\":722:744   */\n      add\n        /* \"#utility.yul\":701:754   */\n      tag_28\n      jump\t// in\n    tag_37:\n        /* \"#utility.yul\":691:754   */\n      swap2\n      pop\n        /* \"#utility.yul\":646:764   */\n      pop\n        /* \"#utility.yul\":297:771   */\n      swap3\n      pop\n      swap3\n      swap1\n      pop\n      jump\t// out\n        /* \"#utility.yul\":777:1150   */\n    tag_38:\n        /* \"#utility.yul\":881:884   */\n      0x00\n        /* \"#utility.yul\":909:947   */\n      tag_40\n        /* \"#utility.yul\":941:946   */\n      dup3\n        /* \"#utility.yul\":909:947   */\n      tag_41\n      jump\t// in\n    tag_40:\n        /* \"#utility.yul\":963:1051   */\n      tag_42\n        /* \"#utility.yul\":1044:1050   */\n      dup2\n        /* \"#utility.yul\":1039:1042   */\n      dup6\n        /* \"#utility.yul\":963:1051   */\n      tag_43\n      jump\t// in\n    tag_42:\n        /* \"#utility.yul\":956:1051   */\n      swap4\n      pop\n        /* \"#utility.yul\":1060:1112   */\n      tag_44\n        /* \"#utility.yul\":1105:1111   */\n      dup2\n        /* \"#utility.yul\":1100:1103   */\n      dup6\n        /* \"#utility.yul\":1093:1097   */\n      0x20\n        /* \"#utility.yul\":1086:1091   */\n      dup7\n        /* \"#utility.yul\":1082:1098   */\n      add\n        /* \"#utility.yul\":1060:1112   */\n      tag_45\n      jump\t// in\n    tag_44:\n        /* \"#utility.yul\":1137:1143   */\n      dup1\n        /* \"#utility.yul\":1132:1135   */\n      dup5\n        /* \"#utility.yul\":1128:1144   */\n      add\n        /* \"#utility.yul\":1121:1144   */\n      swap2\n      pop\n        /* \"#utility.yul\":885:1150   */\n      pop\n        /* \"#utility.yul\":777:1150   */\n      swap3\n      swap2\n      pop\n      pop\n      jump\t// out\n        /* \"#utility.yul\":1156:1522   */\n    tag_46:\n        /* \"#utility.yul\":1298:1301   */\n      0x00\n        /* \"#utility.yul\":1319:1386   */\n      tag_48\n        /* \"#utility.yul\":1383:1385   */\n      0x13\n        /* \"#utility.yul\":1378:1381   */\n      dup4\n        /* \"#utility.yul\":1319:1386   */\n      tag_49\n      jump\t// in\n    tag_48:\n        /* \"#utility.yul\":1312:1386   */\n      swap2\n      pop\n        /* \"#utility.yul\":1395:1488   */\n      tag_50\n        /* \"#utility.yul\":1484:1487   */\n      dup3\n        /* \"#utility.yul\":1395:1488   */\n      tag_51\n      jump\t// in\n    tag_50:\n        /* \"#utility.yul\":1513:1515   */\n      0x20\n        /* \"#utility.yul\":1508:1511   */\n      dup3\n        /* \"#utility.yul\":1504:1516   */\n      add\n        /* \"#utility.yul\":1497:1516   */\n      swap1\n      pop\n        /* \"#utility.yul\":1156:1522   */\n      swap2\n      swap1\n      pop\n      jump\t// out\n        /* \"#utility.yul\":1528:1646   */\n    tag_52:\n        /* \"#utility.yul\":1615:1639   */\n      tag_54\n        /* \"#utility.yul\":1633:1638   */\n      dup2\n        /* \"#utility.yul\":1615:1639   */\n      tag_55\n      jump\t// in\n    tag_54:\n        /* \"#utility.yul\":1610:1613   */\n      dup3\n        /* \"#utility.yul\":1603:1640   */\n      mstore\n        /* \"#utility.yul\":1528:1646   */\n      pop\n      pop\n      jump\t// out\n        /* \"#utility.yul\":1652:1923   */\n    tag_16:\n        /* \"#utility.yul\":1782:1785   */\n      0x00\n        /* \"#utility.yul\":1804:1897   */\n      tag_57\n        /* \"#utility.yul\":1893:1896   */\n      dup3\n        /* \"#utility.yul\":1884:1890   */\n      dup5\n        /* \"#utility.yul\":1804:1897   */\n      tag_38\n      jump\t// in\n    tag_57:\n        /* \"#utility.yul\":1797:1897   */\n      swap2\n      pop\n        /* \"#utility.yul\":1914:1917   */\n      dup2\n        /* \"#utility.yul\":1907:1917   */\n      swap1\n      pop\n        /* \"#utility.yul\":1652:1923   */\n      swap3\n      swap2\n      pop\n      pop\n      jump\t// out\n        /* \"#utility.yul\":1929:2348   */\n    tag_22:\n        /* \"#utility.yul\":2095:2099   */\n      0x00\n        /* \"#utility.yul\":2133:2135   */\n      0x20\n        /* \"#utility.yul\":2122:2131   */\n      dup3\n        /* \"#utility.yul\":2118:2136   */\n      add\n        /* \"#utility.yul\":2110:2136   */\n      swap1\n      pop\n        /* \"#utility.yul\":2182:2191   */\n      dup2\n        /* \"#utility.yul\":2176:2180   */\n      dup2\n        /* \"#utility.yul\":2172:2192   */\n      sub\n        /* \"#utility.yul\":2168:2169   */\n      0x00\n        /* \"#utility.yul\":2157:2166   */\n      dup4\n        /* \"#utility.yul\":2153:2170   */\n      add\n        /* \"#utility.yul\":2146:2193   */\n      mstore\n        /* \"#utility.yul\":2210:2341   */\n      tag_59\n        /* \"#utility.yul\":2336:2340   */\n      dup2\n        /* \"#utility.yul\":2210:2341   */\n      tag_46\n      jump\t// in\n    tag_59:\n        /* \"#utility.yul\":2202:2341   */\n      swap1\n      pop\n        /* \"#utility.yul\":1929:2348   */\n      swap2\n      swap1\n      pop\n      jump\t// out\n        /* \"#utility.yul\":2354:2576   */\n    tag_8:\n        /* \"#utility.yul\":2447:2451   */\n      0x00\n        /* \"#utility.yul\":2485:2487   */\n      0x20\n        /* \"#utility.yul\":2474:2483   */\n      dup3\n        /* \"#utility.yul\":2470:2488   */\n      add\n        /* \"#utility.yul\":2462:2488   */\n      swap1\n      pop\n        /* \"#utility.yul\":2498:2569   */\n      tag_61\n        /* \"#utility.yul\":2566:2567   */\n      0x00\n        /* \"#utility.yul\":2555:2564   */\n      dup4\n        /* \"#utility.yul\":2551:2568   */\n      add\n        /* \"#utility.yul\":2542:2548   */\n      dup5\n        /* \"#utility.yul\":2498:2569   */\n      tag_52\n      jump\t// in\n    tag_61:\n        /* \"#utility.yul\":2354:2576   */\n      swap3\n      swap2\n      pop\n      pop\n      jump\t// out\n        /* \"#utility.yul\":2663:2761   */\n    tag_41:\n        /* \"#utility.yul\":2714:2720   */\n      0x00\n        /* \"#utility.yul\":2748:2753   */\n      dup2\n        /* \"#utility.yul\":2742:2754   */\n      mload\n        /* \"#utility.yul\":2732:2754   */\n      swap1\n      pop\n        /* \"#utility.yul\":2663:2761   */\n      swap2\n      swap1\n      pop\n      jump\t// out\n        /* \"#utility.yul\":2767:2914   */\n    tag_43:\n        /* \"#utility.yul\":2868:2879   */\n      0x00\n        /* \"#utility.yul\":2905:2908   */\n      dup2\n        /* \"#utility.yul\":2890:2908   */\n      swap1\n      pop\n        /* \"#utility.yul\":2767:2914   */\n      swap3\n      swap2\n      pop\n      pop\n      jump\t// out\n        /* \"#utility.yul\":2920:3089   */\n    tag_49:\n        /* \"#utility.yul\":3004:3015   */\n      0x00\n        /* \"#utility.yul\":3038:3044   */\n      dup3\n        /* \"#utility.yul\":3033:3036   */\n      dup3\n        /* \"#utility.yul\":3026:3045   */\n      mstore\n        /* \"#utility.yul\":3078:3082   */\n      0x20\n        /* \"#utility.yul\":3073:3076   */\n      dup3\n        /* \"#utility.yul\":3069:3083   */\n      add\n        /* \"#utility.yul\":3054:3083   */\n      swap1\n      pop\n        /* \"#utility.yul\":2920:3089   */\n      swap3\n      swap2\n      pop\n      pop\n      jump\t// out\n        /* \"#utility.yul\":3095:3191   */\n    tag_67:\n        /* \"#utility.yul\":3132:3139   */\n      0x00\n        /* \"#utility.yul\":3161:3185   */\n      tag_69\n        /* \"#utility.yul\":3179:3184   */\n      dup3\n        /* \"#utility.yul\":3161:3185   */\n      tag_70\n      jump\t// in\n    tag_69:\n        /* \"#utility.yul\":3150:3185   */\n      swap1\n      pop\n        /* \"#utility.yul\":3095:3191   */\n      swap2\n      swap1\n      pop\n      jump\t// out\n        /* \"#utility.yul\":3197:3323   */\n    tag_70:\n        /* \"#utility.yul\":3234:3241   */\n      0x00\n        /* \"#utility.yul\":3274:3316   */\n      0xffffffffffffffffffffffffffffffffffffffff\n        /* \"#utility.yul\":3267:3272   */\n      dup3\n        /* \"#utility.yul\":3263:3317   */\n      and\n        /* \"#utility.yul\":3252:3317   */\n      swap1\n      pop\n        /* \"#utility.yul\":3197:3323   */\n      swap2\n      swap1\n      pop\n      jump\t// out\n        /* \"#utility.yul\":3329:3406   */\n    tag_55:\n        /* \"#utility.yul\":3366:3373   */\n      0x00\n        /* \"#utility.yul\":3395:3400   */\n      dup2\n        /* \"#utility.yul\":3384:3400   */\n      swap1\n      pop\n        /* \"#utility.yul\":3329:3406   */\n      swap2\n      swap1\n      pop\n      jump\t// out\n        /* \"#utility.yul\":3412:3719   */\n    tag_45:\n        /* \"#utility.yul\":3480:3481   */\n      0x00\n        /* \"#utility.yul\":3490:3603   */\n    tag_74:\n        /* \"#utility.yul\":3504:3510   */\n      dup4\n        /* \"#utility.yul\":3501:3502   */\n      dup2\n        /* \"#utility.yul\":3498:3511   */\n      lt\n        /* \"#utility.yul\":3490:3603   */\n      iszero\n      tag_76\n      jumpi\n        /* \"#utility.yul\":3589:3590   */\n      dup1\n        /* \"#utility.yul\":3584:3587   */\n      dup3\n        /* \"#utility.yul\":3580:3591   */\n      add\n        /* \"#utility.yul\":3574:3592   */\n      mload\n        /* \"#utility.yul\":3570:3571   */\n      dup2\n        /* \"#utility.yul\":3565:3568   */\n      dup5\n        /* \"#utility.yul\":3561:3572   */\n      add\n        /* \"#utility.yul\":3554:3593   */\n      mstore\n        /* \"#utility.yul\":3526:3528   */\n      0x20\n        /* \"#utility.yul\":3523:3524   */\n      dup2\n        /* \"#utility.yul\":3519:3529   */\n      add\n        /* \"#utility.yul\":3514:3529   */\n      swap1\n      pop\n        /* \"#utility.yul\":3490:3603   */\n      jump(tag_74)\n    tag_76:\n        /* \"#utility.yul\":3621:3627   */\n      dup4\n        /* \"#utility.yul\":3618:3619   */\n      dup2\n        /* \"#utility.yul\":3615:3628   */\n      gt\n        /* \"#utility.yul\":3612:3713   */\n      iszero\n      tag_77\n      jumpi\n        /* \"#utility.yul\":3701:3702   */\n      0x00\n        /* \"#utility.yul\":3692:3698   */\n      dup5\n        /* \"#utility.yul\":3687:3690   */\n      dup5\n        /* \"#utility.yul\":3683:3699   */\n      add\n        /* \"#utility.yul\":3676:3703   */\n      mstore\n        /* \"#utility.yul\":3612:3713   */\n    tag_77:\n        /* \"#utility.yul\":3461:3719   */\n      pop\n        /* \"#utility.yul\":3412:3719   */\n      pop\n      pop\n      pop\n      jump\t// out\n        /* \"#utility.yul\":3848:3965   */\n    tag_35:\n        /* \"#utility.yul\":3957:3958   */\n      0x00\n        /* \"#utility.yul\":3954:3955   */\n      dup1\n        /* \"#utility.yul\":3947:3959   */\n      revert\n        /* \"#utility.yul\":3971:4140   */\n    tag_51:\n        /* \"#utility.yul\":4111:4132   */\n      0x44656c656761746543616c6c206661696c656400000000000000000000000000\n        /* \"#utility.yul\":4107:4108   */\n      0x00\n        /* \"#utility.yul\":4099:4105   */\n      dup3\n        /* \"#utility.yul\":4095:4109   */\n      add\n        /* \"#utility.yul\":4088:4133   */\n      mstore\n        /* \"#utility.yul\":3971:4140   */\n      pop\n      jump\t// out\n        /* \"#utility.yul\":4146:4268   */\n    tag_27:\n        /* \"#utility.yul\":4219:4243   */\n      tag_83\n        /* \"#utility.yul\":4237:4242   */\n      dup2\n        /* \"#utility.yul\":4219:4243   */\n      tag_67\n      jump\t// in\n    tag_83:\n        /* \"#utility.yul\":4212:4217   */\n      dup2\n        /* \"#utility.yul\":4209:4244   */\n      eq\n        /* \"#utility.yul\":4199:4262   */\n      tag_84\n      jumpi\n        /* \"#utility.yul\":4258:4259   */\n      0x00\n        /* \"#utility.yul\":4255:4256   */\n      dup1\n        /* \"#utility.yul\":4248:4260   */\n      revert\n        /* \"#utility.yul\":4199:4262   */\n    tag_84:\n        /* \"#utility.yul\":4146:4268   */\n      pop\n      jump\t// out\n        /* \"#utility.yul\":4274:4396   */\n    tag_31:\n        /* \"#utility.yul\":4347:4371   */\n      tag_86\n        /* \"#utility.yul\":4365:4370   */\n      dup2\n        /* \"#utility.yul\":4347:4371   */\n      tag_55\n      jump\t// in\n    tag_86:\n        /* \"#utility.yul\":4340:4345   */\n      dup2\n        /* \"#utility.yul\":4337:4372   */\n      eq\n        /* \"#utility.yul\":4327:4390   */\n      tag_87\n      jumpi\n        /* \"#utility.yul\":4386:4387   */\n      0x00\n        /* \"#utility.yul\":4383:4384   */\n      dup1\n        /* \"#utility.yul\":4376:4388   */\n      revert\n        /* \"#utility.yul\":4327:4390   */\n    tag_87:\n        /* \"#utility.yul\":4274:4396   */\n      pop\n      jump\t// out\n\n    auxdata: 0xa2646970667358221220608eae93c0ad688cf45e0e2f2d7b5ec50cdad7c450efa7c47fe19017d2e973a164736f6c63430008070033\n}\n",
				"bytecode": {
					"linkReferences": {},
					"object": "608060405234801561001057600080fd5b506103e7806100206000396000f3fe6080604052600436106100295760003560e01c80634e70b1dc1461002e578063d84076e614610059575b600080fd5b34801561003a57600080fd5b50610043610075565b60405161005091906102a4565b60405180910390f35b610073600480360381019061006e91906101ca565b61007b565b005b60005481565b60008273ffffffffffffffffffffffffffffffffffffffff1663cd16ecbf60e01b836040516024016100ad91906102a4565b604051602081830303815290604052907bffffffffffffffffffffffffffffffffffffffffffffffffffffffff19166020820180517bffffffffffffffffffffffffffffffffffffffffffffffffffffffff8381831617835250505050604051610117919061026d565b600060405180830381855af49150503d8060008114610152576040519150601f19603f3d011682016040523d82523d6000602084013e610157565b606091505b505090508061019b576040517f08c379a000000000000000000000000000000000000000000000000000000000815260040161019290610284565b60405180910390fd5b505050565b6000813590506101af81610383565b92915050565b6000813590506101c48161039a565b92915050565b600080604083850312156101e1576101e0610355565b5b60006101ef858286016101a0565b9250506020610200858286016101b5565b9150509250929050565b6000610215826102bf565b61021f81856102ca565b935061022f818560208601610322565b80840191505092915050565b60006102486013836102d5565b91506102538261035a565b602082019050919050565b61026781610318565b82525050565b6000610279828461020a565b915081905092915050565b6000602082019050818103600083015261029d8161023b565b9050919050565b60006020820190506102b9600083018461025e565b92915050565b600081519050919050565b600081905092915050565b600082825260208201905092915050565b60006102f1826102f8565b9050919050565b600073ffffffffffffffffffffffffffffffffffffffff82169050919050565b6000819050919050565b60005b83811015610340578082015181840152602081019050610325565b8381111561034f576000848401525b50505050565b600080fd5b7f44656c656761746543616c6c206661696c656400000000000000000000000000600082015250565b61038c816102e6565b811461039757600080fd5b50565b6103a381610318565b81146103ae57600080fd5b5056fea2646970667358221220608eae93c0ad688cf45e0e2f2d7b5ec50cdad7c450efa7c47fe19017d2e973a164736f6c63430008070033",
					"opcodes": "PUSH1 0x80 PUSH1 0x40 MSTORE CALLVALUE DUP1 ISZERO PUSH2 0x10 JUMPI PUSH1 0x0 DUP1 REVERT JUMPDEST POP PUSH2 0x3E7 DUP1 PUSH2 0x20 PUSH1 0x0 CODECOPY PUSH1 0x0 RETURN INVALID PUSH1 0x80 PUSH1 0x40 MSTORE PUSH1 0x4 CALLDATASIZE LT PUSH2 0x29 JUMPI PUSH1 0x0 CALLDATALOAD PUSH1 0xE0 SHR DUP1 PUSH4 0x4E70B1DC EQ PUSH2 0x2E JUMPI DUP1 PUSH4 0xD84076E6 EQ PUSH2 0x59 JUMPI JUMPDEST PUSH1 0x0 DUP1 REVERT JUMPDEST CALLVALUE DUP1 ISZERO PUSH2 0x3A JUMPI PUSH1 0x0 DUP1 REVERT JUMPDEST POP PUSH2 0x43 PUSH2 0x75 JUMP JUMPDEST PUSH1 0x40 MLOAD PUSH2 0x50 SWAP2 SWAP1 PUSH2 0x2A4 JUMP JUMPDEST PUSH1 0x40 MLOAD DUP1 SWAP2 SUB SWAP1 RETURN JUMPDEST PUSH2 0x73 PUSH1 0x4 DUP1 CALLDATASIZE SUB DUP2 ADD SWAP1 PUSH2 0x6E SWAP2 SWAP1 PUSH2 0x1CA JUMP JUMPDEST PUSH2 0x7B JUMP JUMPDEST STOP JUMPDEST PUSH1 0x0 SLOAD DUP2 JUMP JUMPDEST PUSH1 0x0 DUP3 PUSH20 0xFFFFFFFFFFFFFFFFFFFFFFFFFFFFFFFFFFFFFFFF AND PUSH4 0xCD16ECBF PUSH1 0xE0 SHL DUP4 PUSH1 0x40 MLOAD PUSH1 0x24 ADD PUSH2 0xAD SWAP2 SWAP1 PUSH2 0x2A4 JUMP JUMPDEST PUSH1 0x40 MLOAD PUSH1 0x20 DUP2 DUP4 SUB SUB DUP2 MSTORE SWAP1 PUSH1 0x40 MSTORE SWAP1 PUSH28 0xFFFFFFFFFFFFFFFFFFFFFFFFFFFFFFFFFFFFFFFFFFFFFFFFFFFFFFFF NOT AND PUSH1 0x20 DUP3 ADD DUP1 MLOAD PUSH28 0xFFFFFFFFFFFFFFFFFFFFFFFFFFFFFFFFFFFFFFFFFFFFFFFFFFFFFFFF DUP4 DUP2 DUP4 AND OR DUP4 MSTORE POP POP POP POP PUSH1 0x40 MLOAD PUSH2 0x117 SWAP2 SWAP1 PUSH2 0x26D JUMP JUMPDEST PUSH1 0x0 PUSH1 0x40 MLOAD DUP1 DUP4 SUB DUP2 DUP6 GAS DELEGATECALL SWAP2 POP POP RETURNDATASIZE DUP1 PUSH1 0x0 DUP2 EQ PUSH2 0x152 JUMPI PUSH1 0x40 MLOAD SWAP2 POP PUSH1 0x1F NOT PUSH1 0x3F RETURNDATASIZE ADD AND DUP3 ADD PUSH1 0x40 MSTORE RETURNDATASIZE DUP3 MSTORE RETURNDATASIZE PUSH1 0x0 PUSH1 0x20 DUP5 ADD RETURNDATACOPY PUSH2 0x157 JUMP JUMPDEST PUSH1 0x60 SWAP2 POP JUMPDEST POP POP SWAP1 POP DUP1 PUSH2 0x19B JUMPI PUSH1 0x40 MLOAD PUSH32 0x8C379A000000000000000000000000000000000000000000000000000000000 DUP2 MSTORE PUSH1 0x4 ADD PUSH2 0x192 SWAP1 PUSH2 0x284 JUMP JUMPDEST PUSH1 0x40 MLOAD DUP1 SWAP2 SUB SWAP1 REVERT JUMPDEST POP POP POP JUMP JUMPDEST PUSH1 0x0 DUP2 CALLDATALOAD SWAP1 POP PUSH2 0x1AF DUP2 PUSH2 0x383 JUMP JUMPDEST SWAP3 SWAP2 POP POP JUMP JUMPDEST PUSH1 0x0 DUP2 CALLDATALOAD SWAP1 POP PUSH2 0x1C4 DUP2 PUSH2 0x39A JUMP JUMPDEST SWAP3 SWAP2 POP POP JUMP JUMPDEST PUSH1 0x0 DUP1 PUSH1 0x40 DUP4 DUP6 SUB SLT ISZERO PUSH2 0x1E1 JUMPI PUSH2 0x1E0 PUSH2 0x355 JUMP JUMPDEST JUMPDEST PUSH1 0x0 PUSH2 0x1EF DUP6 DUP3 DUP7 ADD PUSH2 0x1A0 JUMP JUMPDEST SWAP3 POP POP PUSH1 0x20 PUSH2 0x200 DUP6 DUP3 DUP7 ADD PUSH2 0x1B5 JUMP JUMPDEST SWAP2 POP POP SWAP3 POP SWAP3 SWAP1 POP JUMP JUMPDEST PUSH1 0x0 PUSH2 0x215 DUP3 PUSH2 0x2BF JUMP JUMPDEST PUSH2 0x21F DUP2 DUP6 PUSH2 0x2CA JUMP JUMPDEST SWAP4 POP PUSH2 0x22F DUP2 DUP6 PUSH1 0x20 DUP7 ADD PUSH2 0x322 JUMP JUMPDEST DUP1 DUP5 ADD SWAP2 POP POP SWAP3 SWAP2 POP POP JUMP JUMPDEST PUSH1 0x0 PUSH2 0x248 PUSH1 0x13 DUP4 PUSH2 0x2D5 JUMP JUMPDEST SWAP2 POP PUSH2 0x253 DUP3 PUSH2 0x35A JUMP JUMPDEST PUSH1 0x20 DUP3 ADD SWAP1 POP SWAP2 SWAP1 POP JUMP JUMPDEST PUSH2 0x267 DUP2 PUSH2 0x318 JUMP JUMPDEST DUP3 MSTORE POP POP JUMP JUMPDEST PUSH1 0x0 PUSH2 0x279 DUP3 DUP5 PUSH2 0x20A JUMP JUMPDEST SWAP2 POP DUP2 SWAP1 POP SWAP3 SWAP2 POP POP JUMP JUMPDEST PUSH1 0x0 PUSH1 0x20 DUP3 ADD SWAP1 POP DUP2 DUP2 SUB PUSH1 0x0 DUP4 ADD MSTORE PUSH2 0x29D DUP2 PUSH2 0x23B JUMP JUMPDEST SWAP1 POP SWAP2 SWAP1 POP JUMP JUMPDEST PUSH1 0x0 PUSH1 0x20 DUP3 ADD SWAP1 POP PUSH2 0x2B9 PUSH1 0x0 DUP4 ADD DUP5 PUSH2 0x25E JUMP JUMPDEST SWAP3 SWAP2 POP POP JUMP JUMPDEST PUSH1 0x0 DUP2 MLOAD SWAP1 POP SWAP2 SWAP1 POP JUMP JUMPDEST PUSH1 0x0 DUP2 SWAP1 POP SWAP3 SWAP2 POP POP JUMP JUMPDEST PUSH1 0x0 DUP3 DUP3 MSTORE PUSH1 0x20 DUP3 ADD SWAP1 POP SWAP3 SWAP2 POP POP JUMP JUMPDEST PUSH1 0x0 PUSH2 0x2F1 DUP3 PUSH2 0x2F8 JUMP JUMPDEST SWAP1 POP SWAP2 SWAP1 POP JUMP JUMPDEST PUSH1 0x0 PUSH20 0xFFFFFFFFFFFFFFFFFFFFFFFFFFFFFFFFFFFFFFFF DUP3 AND SWAP1 POP SWAP2 SWAP1 POP JUMP JUMPDEST PUSH1 0x0 DUP2 SWAP1 POP SWAP2 SWAP1 POP JUMP JUMPDEST PUSH1 0x0 JUMPDEST DUP4 DUP2 LT ISZERO PUSH2 0x340 JUMPI DUP1 DUP3 ADD MLOAD DUP2 DUP5 ADD MSTORE PUSH1 0x20 DUP2 ADD SWAP1 POP PUSH2 0x325 JUMP JUMPDEST DUP4 DUP2 GT ISZERO PUSH2 0x34F JUMPI PUSH1 0x0 DUP5 DUP5 ADD MSTORE JUMPDEST POP POP POP POP JUMP JUMPDEST PUSH1 0x0 DUP1 REVERT JUMPDEST PUSH32 0x44656C656761746543616C6C206661696C656400000000000000000000000000 PUSH1 0x0 DUP3 ADD MSTORE POP JUMP JUMPDEST PUSH2 0x38C DUP2 PUSH2 0x2E6 JUMP JUMPDEST DUP2 EQ PUSH2 0x397 JUMPI PUSH1 0x0 DUP1 REVERT JUMPDEST POP JUMP JUMPDEST PUSH2 0x3A3 DUP2 PUSH2 0x318 JUMP JUMPDEST DUP2 EQ PUSH2 0x3AE JUMPI PUSH1 0x0 DUP1 REVERT JUMPDEST POP JUMP INVALID LOG2 PUSH5 0x6970667358 0x22 SLT KECCAK256 PUSH1 0x8E 0xAE SWAP4 0xC0 0xAD PUSH9 0x8CF45E0E2F2D7B5EC5 0xC 0xDA 0xD7 0xC4 POP 0xEF 0xA7 0xC4 PUSH32 0xE19017D2E973A164736F6C634300080700330000000000000000000000000000 "
				},
				"gasEstimates": {
					"creation": {
						"codeDepositCost": "199800",
						"executionCost": "245",
						"totalCost": "200045"
					},
					"external": {
						"num()": "2407",
						"setNum(address,uint256)": "infinite"
					}
				},
				"methodIdentifiers": {
					"num()": "4e70b1dc",
					"setNum(address,uint256)": "d84076e6"
				}
			},
			"storageLayout": {
				"storage": [
					{
						"astId": 16,
						"contract": "contracts/DelegateCall.sol:Caller",
						"label": "num",
						"offset": 0,
						"slot": "0",
						"type": "t_uint256"
					}
				],
				"types": {
					"t_uint256": {
						"encoding": "inplace",
						"label": "uint256",
						"numberOfBytes": "32"
					}
				}
			},
			"userdoc": {
				"kind": "user",
				"methods": {},
				"version": 1
			}
		}
	}
}