{
	"contracts/TestContract.sol": {
		"TestContract": {
			"abi": [
				{
					"anonymous": false,
					"inputs": [
						{
							"indexed": false,
							"internalType": "address",
							"name": "addr",
							"type": "address"
						},
						{
							"indexed": false,
							"internalType": "uint256",
							"name": "amount",
							"type": "uint256"
						},
						{
							"indexed": false,
							"internalType": "string",
							"name": "msg",
							"type": "string"
						}
					],
					"name": "Log",
					"type": "event"
				},
				{
					"stateMutability": "payable",
					"type": "fallback"
				},
				{
					"inputs": [
						{
							"internalType": "string",
							"name": "_msg",
							"type": "string"
						},
						{
							"internalType": "uint256",
							"name": "_num",
							"type": "uint256"
						}
					],
					"name": "foo",
					"outputs": [
						{
							"internalType": "bool",
							"name": "",
							"type": "bool"
						},
						{
							"internalType": "uint256",
							"name": "",
							"type": "uint256"
						}
					],
					"stateMutability": "payable",
					"type": "function"
				},
				{
					"inputs": [],
					"name": "message",
					"outputs": [
						{
							"internalType": "string",
							"name": "",
							"type": "string"
						}
					],
					"stateMutability": "view",
					"type": "function"
				},
				{
					"inputs": [],
					"name": "number",
					"outputs": [
						{
							"internalType": "uint256",
							"name": "",
							"type": "uint256"
						}
					],
					"stateMutability": "view",
					"type": "function"
				},
				{
					"stateMutability": "payable",
					"type": "receive"
				}
			],
			"devdoc": {
				"kind": "dev",
				"methods": {},
				"version": 1
			},
			"evm": {
				"assembly": "    /* \"contracts/TestContract.sol\":878:1341  contract TestContract {... */\n  mstore(0x40, 0x80)\n  callvalue\n  dup1\n  iszero\n  tag_1\n  jumpi\n  0x00\n  dup1\n  revert\ntag_1:\n  pop\n  dataSize(sub_0)\n  dup1\n  dataOffset(sub_0)\n  0x00\n  codecopy\n  0x00\n  return\nstop\n\nsub_0: assembly {\n        /* \"contracts/TestContract.sol\":878:1341  contract TestContract {... */\n      mstore(0x40, 0x80)\n      jumpi(tag_1, lt(calldatasize, 0x04))\n      shr(0xe0, calldataload(0x00))\n      dup1\n      0x24ccab8f\n      eq\n      tag_3\n      jumpi\n      dup1\n      0x8381f58a\n      eq\n      tag_4\n      jumpi\n      dup1\n      0xe21f37ce\n      eq\n      tag_5\n      jumpi\n      jump(tag_2)\n    tag_1:\n      jumpi(tag_2, calldatasize)\n      stop\n    tag_2:\n        /* \"contracts/TestContract.sol\":1283:1332  Log(msg.sender, msg.value, \"Fallback was called\") */\n      0x4e3358e5bdb38f499a83fbcd33d16343569f3b6fe53021022dede6364017b4a8\n        /* \"contracts/TestContract.sol\":1287:1297  msg.sender */\n      caller\n        /* \"contracts/TestContract.sol\":1299:1308  msg.value */\n      callvalue\n        /* \"contracts/TestContract.sol\":1283:1332  Log(msg.sender, msg.value, \"Fallback was called\") */\n      mload(0x40)\n      tag_10\n      swap3\n      swap2\n      swap1\n      tag_11\n      jump\t// in\n    tag_10:\n      mload(0x40)\n      dup1\n      swap2\n      sub\n      swap1\n      log1\n        /* \"contracts/TestContract.sol\":878:1341  contract TestContract {... */\n      stop\n        /* \"contracts/TestContract.sol\":957:1119  function foo(string memory _msg, uint256 _num) public  payable returns(bool,uint){... */\n    tag_3:\n      tag_12\n      0x04\n      dup1\n      calldatasize\n      sub\n      dup2\n      add\n      swap1\n      tag_13\n      swap2\n      swap1\n      tag_14\n      jump\t// in\n    tag_13:\n      tag_15\n      jump\t// in\n    tag_12:\n      mload(0x40)\n      tag_16\n      swap3\n      swap2\n      swap1\n      tag_17\n      jump\t// in\n    tag_16:\n      mload(0x40)\n      dup1\n      swap2\n      sub\n      swap1\n      return\n        /* \"contracts/TestContract.sol\":933:951  uint public number */\n    tag_4:\n      callvalue\n      dup1\n      iszero\n      tag_18\n      jumpi\n      0x00\n      dup1\n      revert\n    tag_18:\n      pop\n      tag_19\n      tag_20\n      jump\t// in\n    tag_19:\n      mload(0x40)\n      tag_21\n      swap2\n      swap1\n      tag_22\n      jump\t// in\n    tag_21:\n      mload(0x40)\n      dup1\n      swap2\n      sub\n      swap1\n      return\n        /* \"contracts/TestContract.sol\":906:927  string public message */\n    tag_5:\n      callvalue\n      dup1\n      iszero\n      tag_23\n      jumpi\n      0x00\n      dup1\n      revert\n    tag_23:\n      pop\n      tag_24\n      tag_25\n      jump\t// in\n    tag_24:\n      mload(0x40)\n      tag_26\n      swap2\n      swap1\n      tag_27\n      jump\t// in\n    tag_26:\n      mload(0x40)\n      dup1\n      swap2\n      sub\n      swap1\n      return\n        /* \"contracts/TestContract.sol\":957:1119  function foo(string memory _msg, uint256 _num) public  payable returns(bool,uint){... */\n    tag_15:\n        /* \"contracts/TestContract.sol\":1028:1032  bool */\n      0x00\n        /* \"contracts/TestContract.sol\":1033:1037  uint */\n      dup1\n        /* \"contracts/TestContract.sol\":1058:1062  _msg */\n      dup4\n        /* \"contracts/TestContract.sol\":1048:1055  message */\n      0x00\n        /* \"contracts/TestContract.sol\":1048:1062  message = _msg */\n      swap1\n      dup1\n      mload\n      swap1\n      0x20\n      add\n      swap1\n      tag_29\n      swap3\n      swap2\n      swap1\n      tag_30\n      jump\t// in\n    tag_29:\n      pop\n        /* \"contracts/TestContract.sol\":1081:1085  _num */\n      dup3\n        /* \"contracts/TestContract.sol\":1072:1078  number */\n      0x01\n        /* \"contracts/TestContract.sol\":1072:1085  number = _num */\n      dup2\n      swap1\n      sstore\n      pop\n        /* \"contracts/TestContract.sol\":1103:1107  true */\n      0x01\n        /* \"contracts/TestContract.sol\":1108:1111  999 */\n      0x03e7\n        /* \"contracts/TestContract.sol\":1095:1112  return (true,999) */\n      swap2\n      pop\n      swap2\n      pop\n        /* \"contracts/TestContract.sol\":957:1119  function foo(string memory _msg, uint256 _num) public  payable returns(bool,uint){... */\n      swap3\n      pop\n      swap3\n      swap1\n      pop\n      jump\t// out\n        /* \"contracts/TestContract.sol\":933:951  uint public number */\n    tag_20:\n      sload(0x01)\n      dup2\n      jump\t// out\n        /* \"contracts/TestContract.sol\":906:927  string public message */\n    tag_25:\n      0x00\n      dup1\n      sload\n      tag_31\n      swap1\n      tag_32\n      jump\t// in\n    tag_31:\n      dup1\n      0x1f\n      add\n      0x20\n      dup1\n      swap2\n      div\n      mul\n      0x20\n      add\n      mload(0x40)\n      swap1\n      dup2\n      add\n      0x40\n      mstore\n      dup1\n      swap3\n      swap2\n      swap1\n      dup2\n      dup2\n      mstore\n      0x20\n      add\n      dup3\n      dup1\n      sload\n      tag_33\n      swap1\n      tag_32\n      jump\t// in\n    tag_33:\n      dup1\n      iszero\n      tag_34\n      jumpi\n      dup1\n      0x1f\n      lt\n      tag_35\n      jumpi\n      0x0100\n      dup1\n      dup4\n      sload\n      div\n      mul\n      dup4\n      mstore\n      swap2\n      0x20\n      add\n      swap2\n      jump(tag_34)\n    tag_35:\n      dup3\n      add\n      swap2\n      swap1\n      0x00\n      mstore\n      keccak256(0x00, 0x20)\n      swap1\n    tag_36:\n      dup2\n      sload\n      dup2\n      mstore\n      swap1\n      0x01\n      add\n      swap1\n      0x20\n      add\n      dup1\n      dup4\n      gt\n      tag_36\n      jumpi\n      dup3\n      swap1\n      sub\n      0x1f\n      and\n      dup3\n      add\n      swap2\n    tag_34:\n      pop\n      pop\n      pop\n      pop\n      pop\n      dup2\n      jump\t// out\n    tag_30:\n      dup3\n      dup1\n      sload\n      tag_37\n      swap1\n      tag_32\n      jump\t// in\n    tag_37:\n      swap1\n      0x00\n      mstore\n      keccak256(0x00, 0x20)\n      swap1\n      0x1f\n      add\n      0x20\n      swap1\n      div\n      dup2\n      add\n      swap3\n      dup3\n      tag_39\n      jumpi\n      0x00\n      dup6\n      sstore\n      jump(tag_38)\n    tag_39:\n      dup3\n      0x1f\n      lt\n      tag_40\n      jumpi\n      dup1\n      mload\n      not(0xff)\n      and\n      dup4\n      dup1\n      add\n      or\n      dup6\n      sstore\n      jump(tag_38)\n    tag_40:\n      dup3\n      dup1\n      add\n      0x01\n      add\n      dup6\n      sstore\n      dup3\n      iszero\n      tag_38\n      jumpi\n      swap2\n      dup3\n      add\n    tag_41:\n      dup3\n      dup2\n      gt\n      iszero\n      tag_42\n      jumpi\n      dup3\n      mload\n      dup3\n      sstore\n      swap2\n      0x20\n      add\n      swap2\n      swap1\n      0x01\n      add\n      swap1\n      jump(tag_41)\n    tag_42:\n    tag_38:\n      pop\n      swap1\n      pop\n      tag_43\n      swap2\n      swap1\n      tag_44\n      jump\t// in\n    tag_43:\n      pop\n      swap1\n      jump\t// out\n    tag_44:\n    tag_45:\n      dup1\n      dup3\n      gt\n      iszero\n      tag_46\n      jumpi\n      0x00\n      dup2\n      0x00\n      swap1\n      sstore\n      pop\n      0x01\n      add\n      jump(tag_45)\n    tag_46:\n      pop\n      swap1\n      jump\t// out\n        /* \"#utility.yul\":7:419   */\n    tag_48:\n        /* \"#utility.yul\":85:90   */\n      0x00\n        /* \"#utility.yul\":110:176   */\n      tag_50\n        /* \"#utility.yul\":126:175   */\n      tag_51\n        /* \"#utility.yul\":168:174   */\n      dup5\n        /* \"#utility.yul\":126:175   */\n      tag_52\n      jump\t// in\n    tag_51:\n        /* \"#utility.yul\":110:176   */\n      tag_53\n      jump\t// in\n    tag_50:\n        /* \"#utility.yul\":101:176   */\n      swap1\n      pop\n        /* \"#utility.yul\":199:205   */\n      dup3\n        /* \"#utility.yul\":192:197   */\n      dup2\n        /* \"#utility.yul\":185:206   */\n      mstore\n        /* \"#utility.yul\":237:241   */\n      0x20\n        /* \"#utility.yul\":230:235   */\n      dup2\n        /* \"#utility.yul\":226:242   */\n      add\n        /* \"#utility.yul\":275:278   */\n      dup5\n        /* \"#utility.yul\":266:272   */\n      dup5\n        /* \"#utility.yul\":261:264   */\n      dup5\n        /* \"#utility.yul\":257:273   */\n      add\n        /* \"#utility.yul\":254:279   */\n      gt\n        /* \"#utility.yul\":251:363   */\n      iszero\n      tag_54\n      jumpi\n        /* \"#utility.yul\":282:361   */\n      tag_55\n      tag_56\n      jump\t// in\n    tag_55:\n        /* \"#utility.yul\":251:363   */\n    tag_54:\n        /* \"#utility.yul\":372:413   */\n      tag_57\n        /* \"#utility.yul\":406:412   */\n      dup5\n        /* \"#utility.yul\":401:404   */\n      dup3\n        /* \"#utility.yul\":396:399   */\n      dup6\n        /* \"#utility.yul\":372:413   */\n      tag_58\n      jump\t// in\n    tag_57:\n        /* \"#utility.yul\":91:419   */\n      pop\n        /* \"#utility.yul\":7:419   */\n      swap4\n      swap3\n      pop\n      pop\n      pop\n      jump\t// out\n        /* \"#utility.yul\":439:779   */\n    tag_59:\n        /* \"#utility.yul\":495:500   */\n      0x00\n        /* \"#utility.yul\":544:547   */\n      dup3\n        /* \"#utility.yul\":537:541   */\n      0x1f\n        /* \"#utility.yul\":529:535   */\n      dup4\n        /* \"#utility.yul\":525:542   */\n      add\n        /* \"#utility.yul\":521:548   */\n      slt\n        /* \"#utility.yul\":511:633   */\n      tag_61\n      jumpi\n        /* \"#utility.yul\":552:631   */\n      tag_62\n      tag_63\n      jump\t// in\n    tag_62:\n        /* \"#utility.yul\":511:633   */\n    tag_61:\n        /* \"#utility.yul\":669:675   */\n      dup2\n        /* \"#utility.yul\":656:676   */\n      calldataload\n        /* \"#utility.yul\":694:773   */\n      tag_64\n        /* \"#utility.yul\":769:772   */\n      dup5\n        /* \"#utility.yul\":761:767   */\n      dup3\n        /* \"#utility.yul\":754:758   */\n      0x20\n        /* \"#utility.yul\":746:752   */\n      dup7\n        /* \"#utility.yul\":742:759   */\n      add\n        /* \"#utility.yul\":694:773   */\n      tag_48\n      jump\t// in\n    tag_64:\n        /* \"#utility.yul\":685:773   */\n      swap2\n      pop\n        /* \"#utility.yul\":501:779   */\n      pop\n        /* \"#utility.yul\":439:779   */\n      swap3\n      swap2\n      pop\n      pop\n      jump\t// out\n        /* \"#utility.yul\":785:924   */\n    tag_65:\n        /* \"#utility.yul\":831:836   */\n      0x00\n        /* \"#utility.yul\":869:875   */\n      dup2\n        /* \"#utility.yul\":856:876   */\n      calldataload\n        /* \"#utility.yul\":847:876   */\n      swap1\n      pop\n        /* \"#utility.yul\":885:918   */\n      tag_67\n        /* \"#utility.yul\":912:917   */\n      dup2\n        /* \"#utility.yul\":885:918   */\n      tag_68\n      jump\t// in\n    tag_67:\n        /* \"#utility.yul\":785:924   */\n      swap3\n      swap2\n      pop\n      pop\n      jump\t// out\n        /* \"#utility.yul\":930:1584   */\n    tag_14:\n        /* \"#utility.yul\":1008:1014   */\n      0x00\n        /* \"#utility.yul\":1016:1022   */\n      dup1\n        /* \"#utility.yul\":1065:1067   */\n      0x40\n        /* \"#utility.yul\":1053:1062   */\n      dup4\n        /* \"#utility.yul\":1044:1051   */\n      dup6\n        /* \"#utility.yul\":1040:1063   */\n      sub\n        /* \"#utility.yul\":1036:1068   */\n      slt\n        /* \"#utility.yul\":1033:1152   */\n      iszero\n      tag_70\n      jumpi\n        /* \"#utility.yul\":1071:1150   */\n      tag_71\n      tag_72\n      jump\t// in\n    tag_71:\n        /* \"#utility.yul\":1033:1152   */\n    tag_70:\n        /* \"#utility.yul\":1219:1220   */\n      0x00\n        /* \"#utility.yul\":1208:1217   */\n      dup4\n        /* \"#utility.yul\":1204:1221   */\n      add\n        /* \"#utility.yul\":1191:1222   */\n      calldataload\n        /* \"#utility.yul\":1249:1267   */\n      0xffffffffffffffff\n        /* \"#utility.yul\":1241:1247   */\n      dup2\n        /* \"#utility.yul\":1238:1268   */\n      gt\n        /* \"#utility.yul\":1235:1352   */\n      iszero\n      tag_73\n      jumpi\n        /* \"#utility.yul\":1271:1350   */\n      tag_74\n      tag_75\n      jump\t// in\n    tag_74:\n        /* \"#utility.yul\":1235:1352   */\n    tag_73:\n        /* \"#utility.yul\":1376:1439   */\n      tag_76\n        /* \"#utility.yul\":1431:1438   */\n      dup6\n        /* \"#utility.yul\":1422:1428   */\n      dup3\n        /* \"#utility.yul\":1411:1420   */\n      dup7\n        /* \"#utility.yul\":1407:1429   */\n      add\n        /* \"#utility.yul\":1376:1439   */\n      tag_59\n      jump\t// in\n    tag_76:\n        /* \"#utility.yul\":1366:1439   */\n      swap3\n      pop\n        /* \"#utility.yul\":1162:1449   */\n      pop\n        /* \"#utility.yul\":1488:1490   */\n      0x20\n        /* \"#utility.yul\":1514:1567   */\n      tag_77\n        /* \"#utility.yul\":1559:1566   */\n      dup6\n        /* \"#utility.yul\":1550:1556   */\n      dup3\n        /* \"#utility.yul\":1539:1548   */\n      dup7\n        /* \"#utility.yul\":1535:1557   */\n      add\n        /* \"#utility.yul\":1514:1567   */\n      tag_65\n      jump\t// in\n    tag_77:\n        /* \"#utility.yul\":1504:1567   */\n      swap2\n      pop\n        /* \"#utility.yul\":1459:1577   */\n      pop\n        /* \"#utility.yul\":930:1584   */\n      swap3\n      pop\n      swap3\n      swap1\n      pop\n      jump\t// out\n        /* \"#utility.yul\":1590:1708   */\n    tag_78:\n        /* \"#utility.yul\":1677:1701   */\n      tag_80\n        /* \"#utility.yul\":1695:1700   */\n      dup2\n        /* \"#utility.yul\":1677:1701   */\n      tag_81\n      jump\t// in\n    tag_80:\n        /* \"#utility.yul\":1672:1675   */\n      dup3\n        /* \"#utility.yul\":1665:1702   */\n      mstore\n        /* \"#utility.yul\":1590:1708   */\n      pop\n      pop\n      jump\t// out\n        /* \"#utility.yul\":1714:1823   */\n    tag_82:\n        /* \"#utility.yul\":1795:1816   */\n      tag_84\n        /* \"#utility.yul\":1810:1815   */\n      dup2\n        /* \"#utility.yul\":1795:1816   */\n      tag_85\n      jump\t// in\n    tag_84:\n        /* \"#utility.yul\":1790:1793   */\n      dup3\n        /* \"#utility.yul\":1783:1817   */\n      mstore\n        /* \"#utility.yul\":1714:1823   */\n      pop\n      pop\n      jump\t// out\n        /* \"#utility.yul\":1829:2193   */\n    tag_86:\n        /* \"#utility.yul\":1917:1920   */\n      0x00\n        /* \"#utility.yul\":1945:1984   */\n      tag_88\n        /* \"#utility.yul\":1978:1983   */\n      dup3\n        /* \"#utility.yul\":1945:1984   */\n      tag_89\n      jump\t// in\n    tag_88:\n        /* \"#utility.yul\":2000:2071   */\n      tag_90\n        /* \"#utility.yul\":2064:2070   */\n      dup2\n        /* \"#utility.yul\":2059:2062   */\n      dup6\n        /* \"#utility.yul\":2000:2071   */\n      tag_91\n      jump\t// in\n    tag_90:\n        /* \"#utility.yul\":1993:2071   */\n      swap4\n      pop\n        /* \"#utility.yul\":2080:2132   */\n      tag_92\n        /* \"#utility.yul\":2125:2131   */\n      dup2\n        /* \"#utility.yul\":2120:2123   */\n      dup6\n        /* \"#utility.yul\":2113:2117   */\n      0x20\n        /* \"#utility.yul\":2106:2111   */\n      dup7\n        /* \"#utility.yul\":2102:2118   */\n      add\n        /* \"#utility.yul\":2080:2132   */\n      tag_93\n      jump\t// in\n    tag_92:\n        /* \"#utility.yul\":2157:2186   */\n      tag_94\n        /* \"#utility.yul\":2179:2185   */\n      dup2\n        /* \"#utility.yul\":2157:2186   */\n      tag_95\n      jump\t// in\n    tag_94:\n        /* \"#utility.yul\":2152:2155   */\n      dup5\n        /* \"#utility.yul\":2148:2187   */\n      add\n        /* \"#utility.yul\":2141:2187   */\n      swap2\n      pop\n        /* \"#utility.yul\":1921:2193   */\n      pop\n        /* \"#utility.yul\":1829:2193   */\n      swap3\n      swap2\n      pop\n      pop\n      jump\t// out\n        /* \"#utility.yul\":2199:2565   */\n    tag_96:\n        /* \"#utility.yul\":2341:2344   */\n      0x00\n        /* \"#utility.yul\":2362:2429   */\n      tag_98\n        /* \"#utility.yul\":2426:2428   */\n      0x13\n        /* \"#utility.yul\":2421:2424   */\n      dup4\n        /* \"#utility.yul\":2362:2429   */\n      tag_91\n      jump\t// in\n    tag_98:\n        /* \"#utility.yul\":2355:2429   */\n      swap2\n      pop\n        /* \"#utility.yul\":2438:2531   */\n      tag_99\n        /* \"#utility.yul\":2527:2530   */\n      dup3\n        /* \"#utility.yul\":2438:2531   */\n      tag_100\n      jump\t// in\n    tag_99:\n        /* \"#utility.yul\":2556:2558   */\n      0x20\n        /* \"#utility.yul\":2551:2554   */\n      dup3\n        /* \"#utility.yul\":2547:2559   */\n      add\n        /* \"#utility.yul\":2540:2559   */\n      swap1\n      pop\n        /* \"#utility.yul\":2199:2565   */\n      swap2\n      swap1\n      pop\n      jump\t// out\n        /* \"#utility.yul\":2571:2689   */\n    tag_101:\n        /* \"#utility.yul\":2658:2682   */\n      tag_103\n        /* \"#utility.yul\":2676:2681   */\n      dup2\n        /* \"#utility.yul\":2658:2682   */\n      tag_104\n      jump\t// in\n    tag_103:\n        /* \"#utility.yul\":2653:2656   */\n      dup3\n        /* \"#utility.yul\":2646:2683   */\n      mstore\n        /* \"#utility.yul\":2571:2689   */\n      pop\n      pop\n      jump\t// out\n        /* \"#utility.yul\":2695:3334   */\n    tag_11:\n        /* \"#utility.yul\":2917:2921   */\n      0x00\n        /* \"#utility.yul\":2955:2957   */\n      0x60\n        /* \"#utility.yul\":2944:2953   */\n      dup3\n        /* \"#utility.yul\":2940:2958   */\n      add\n        /* \"#utility.yul\":2932:2958   */\n      swap1\n      pop\n        /* \"#utility.yul\":2968:3039   */\n      tag_106\n        /* \"#utility.yul\":3036:3037   */\n      0x00\n        /* \"#utility.yul\":3025:3034   */\n      dup4\n        /* \"#utility.yul\":3021:3038   */\n      add\n        /* \"#utility.yul\":3012:3018   */\n      dup6\n        /* \"#utility.yul\":2968:3039   */\n      tag_78\n      jump\t// in\n    tag_106:\n        /* \"#utility.yul\":3049:3121   */\n      tag_107\n        /* \"#utility.yul\":3117:3119   */\n      0x20\n        /* \"#utility.yul\":3106:3115   */\n      dup4\n        /* \"#utility.yul\":3102:3120   */\n      add\n        /* \"#utility.yul\":3093:3099   */\n      dup5\n        /* \"#utility.yul\":3049:3121   */\n      tag_101\n      jump\t// in\n    tag_107:\n        /* \"#utility.yul\":3168:3177   */\n      dup2\n        /* \"#utility.yul\":3162:3166   */\n      dup2\n        /* \"#utility.yul\":3158:3178   */\n      sub\n        /* \"#utility.yul\":3153:3155   */\n      0x40\n        /* \"#utility.yul\":3142:3151   */\n      dup4\n        /* \"#utility.yul\":3138:3156   */\n      add\n        /* \"#utility.yul\":3131:3179   */\n      mstore\n        /* \"#utility.yul\":3196:3327   */\n      tag_108\n        /* \"#utility.yul\":3322:3326   */\n      dup2\n        /* \"#utility.yul\":3196:3327   */\n      tag_96\n      jump\t// in\n    tag_108:\n        /* \"#utility.yul\":3188:3327   */\n      swap1\n      pop\n        /* \"#utility.yul\":2695:3334   */\n      swap4\n      swap3\n      pop\n      pop\n      pop\n      jump\t// out\n        /* \"#utility.yul\":3340:3660   */\n    tag_17:\n        /* \"#utility.yul\":3455:3459   */\n      0x00\n        /* \"#utility.yul\":3493:3495   */\n      0x40\n        /* \"#utility.yul\":3482:3491   */\n      dup3\n        /* \"#utility.yul\":3478:3496   */\n      add\n        /* \"#utility.yul\":3470:3496   */\n      swap1\n      pop\n        /* \"#utility.yul\":3506:3571   */\n      tag_110\n        /* \"#utility.yul\":3568:3569   */\n      0x00\n        /* \"#utility.yul\":3557:3566   */\n      dup4\n        /* \"#utility.yul\":3553:3570   */\n      add\n        /* \"#utility.yul\":3544:3550   */\n      dup6\n        /* \"#utility.yul\":3506:3571   */\n      tag_82\n      jump\t// in\n    tag_110:\n        /* \"#utility.yul\":3581:3653   */\n      tag_111\n        /* \"#utility.yul\":3649:3651   */\n      0x20\n        /* \"#utility.yul\":3638:3647   */\n      dup4\n        /* \"#utility.yul\":3634:3652   */\n      add\n        /* \"#utility.yul\":3625:3631   */\n      dup5\n        /* \"#utility.yul\":3581:3653   */\n      tag_101\n      jump\t// in\n    tag_111:\n        /* \"#utility.yul\":3340:3660   */\n      swap4\n      swap3\n      pop\n      pop\n      pop\n      jump\t// out\n        /* \"#utility.yul\":3666:3979   */\n    tag_27:\n        /* \"#utility.yul\":3779:3783   */\n      0x00\n        /* \"#utility.yul\":3817:3819   */\n      0x20\n        /* \"#utility.yul\":3806:3815   */\n      dup3\n        /* \"#utility.yul\":3802:3820   */\n      add\n        /* \"#utility.yul\":3794:3820   */\n      swap1\n      pop\n        /* \"#utility.yul\":3866:3875   */\n      dup2\n        /* \"#utility.yul\":3860:3864   */\n      dup2\n        /* \"#utility.yul\":3856:3876   */\n      sub\n        /* \"#utility.yul\":3852:3853   */\n      0x00\n        /* \"#utility.yul\":3841:3850   */\n      dup4\n        /* \"#utility.yul\":3837:3854   */\n      add\n        /* \"#utility.yul\":3830:3877   */\n      mstore\n        /* \"#utility.yul\":3894:3972   */\n      tag_113\n        /* \"#utility.yul\":3967:3971   */\n      dup2\n        /* \"#utility.yul\":3958:3964   */\n      dup5\n        /* \"#utility.yul\":3894:3972   */\n      tag_86\n      jump\t// in\n    tag_113:\n        /* \"#utility.yul\":3886:3972   */\n      swap1\n      pop\n        /* \"#utility.yul\":3666:3979   */\n      swap3\n      swap2\n      pop\n      pop\n      jump\t// out\n        /* \"#utility.yul\":3985:4207   */\n    tag_22:\n        /* \"#utility.yul\":4078:4082   */\n      0x00\n        /* \"#utility.yul\":4116:4118   */\n      0x20\n        /* \"#utility.yul\":4105:4114   */\n      dup3\n        /* \"#utility.yul\":4101:4119   */\n      add\n        /* \"#utility.yul\":4093:4119   */\n      swap1\n      pop\n        /* \"#utility.yul\":4129:4200   */\n      tag_115\n        /* \"#utility.yul\":4197:4198   */\n      0x00\n        /* \"#utility.yul\":4186:4195   */\n      dup4\n        /* \"#utility.yul\":4182:4199   */\n      add\n        /* \"#utility.yul\":4173:4179   */\n      dup5\n        /* \"#utility.yul\":4129:4200   */\n      tag_101\n      jump\t// in\n    tag_115:\n        /* \"#utility.yul\":3985:4207   */\n      swap3\n      swap2\n      pop\n      pop\n      jump\t// out\n        /* \"#utility.yul\":4213:4342   */\n    tag_53:\n        /* \"#utility.yul\":4247:4253   */\n      0x00\n        /* \"#utility.yul\":4274:4294   */\n      tag_117\n      tag_118\n      jump\t// in\n    tag_117:\n        /* \"#utility.yul\":4264:4294   */\n      swap1\n      pop\n        /* \"#utility.yul\":4303:4336   */\n      tag_119\n        /* \"#utility.yul\":4331:4335   */\n      dup3\n        /* \"#utility.yul\":4323:4329   */\n      dup3\n        /* \"#utility.yul\":4303:4336   */\n      tag_120\n      jump\t// in\n    tag_119:\n        /* \"#utility.yul\":4213:4342   */\n      swap2\n      swap1\n      pop\n      jump\t// out\n        /* \"#utility.yul\":4348:4423   */\n    tag_118:\n        /* \"#utility.yul\":4381:4387   */\n      0x00\n        /* \"#utility.yul\":4414:4416   */\n      0x40\n        /* \"#utility.yul\":4408:4417   */\n      mload\n        /* \"#utility.yul\":4398:4417   */\n      swap1\n      pop\n        /* \"#utility.yul\":4348:4423   */\n      swap1\n      jump\t// out\n        /* \"#utility.yul\":4429:4737   */\n    tag_52:\n        /* \"#utility.yul\":4491:4495   */\n      0x00\n        /* \"#utility.yul\":4581:4599   */\n      0xffffffffffffffff\n        /* \"#utility.yul\":4573:4579   */\n      dup3\n        /* \"#utility.yul\":4570:4600   */\n      gt\n        /* \"#utility.yul\":4567:4623   */\n      iszero\n      tag_123\n      jumpi\n        /* \"#utility.yul\":4603:4621   */\n      tag_124\n      tag_125\n      jump\t// in\n    tag_124:\n        /* \"#utility.yul\":4567:4623   */\n    tag_123:\n        /* \"#utility.yul\":4641:4670   */\n      tag_126\n        /* \"#utility.yul\":4663:4669   */\n      dup3\n        /* \"#utility.yul\":4641:4670   */\n      tag_95\n      jump\t// in\n    tag_126:\n        /* \"#utility.yul\":4633:4670   */\n      swap1\n      pop\n        /* \"#utility.yul\":4725:4729   */\n      0x20\n        /* \"#utility.yul\":4719:4723   */\n      dup2\n        /* \"#utility.yul\":4715:4730   */\n      add\n        /* \"#utility.yul\":4707:4730   */\n      swap1\n      pop\n        /* \"#utility.yul\":4429:4737   */\n      swap2\n      swap1\n      pop\n      jump\t// out\n        /* \"#utility.yul\":4743:4842   */\n    tag_89:\n        /* \"#utility.yul\":4795:4801   */\n      0x00\n        /* \"#utility.yul\":4829:4834   */\n      dup2\n        /* \"#utility.yul\":4823:4835   */\n      mload\n        /* \"#utility.yul\":4813:4835   */\n      swap1\n      pop\n        /* \"#utility.yul\":4743:4842   */\n      swap2\n      swap1\n      pop\n      jump\t// out\n        /* \"#utility.yul\":4848:5017   */\n    tag_91:\n        /* \"#utility.yul\":4932:4943   */\n      0x00\n        /* \"#utility.yul\":4966:4972   */\n      dup3\n        /* \"#utility.yul\":4961:4964   */\n      dup3\n        /* \"#utility.yul\":4954:4973   */\n      mstore\n        /* \"#utility.yul\":5006:5010   */\n      0x20\n        /* \"#utility.yul\":5001:5004   */\n      dup3\n        /* \"#utility.yul\":4997:5011   */\n      add\n        /* \"#utility.yul\":4982:5011   */\n      swap1\n      pop\n        /* \"#utility.yul\":4848:5017   */\n      swap3\n      swap2\n      pop\n      pop\n      jump\t// out\n        /* \"#utility.yul\":5023:5119   */\n    tag_81:\n        /* \"#utility.yul\":5060:5067   */\n      0x00\n        /* \"#utility.yul\":5089:5113   */\n      tag_130\n        /* \"#utility.yul\":5107:5112   */\n      dup3\n        /* \"#utility.yul\":5089:5113   */\n      tag_131\n      jump\t// in\n    tag_130:\n        /* \"#utility.yul\":5078:5113   */\n      swap1\n      pop\n        /* \"#utility.yul\":5023:5119   */\n      swap2\n      swap1\n      pop\n      jump\t// out\n        /* \"#utility.yul\":5125:5215   */\n    tag_85:\n        /* \"#utility.yul\":5159:5166   */\n      0x00\n        /* \"#utility.yul\":5202:5207   */\n      dup2\n        /* \"#utility.yul\":5195:5208   */\n      iszero\n        /* \"#utility.yul\":5188:5209   */\n      iszero\n        /* \"#utility.yul\":5177:5209   */\n      swap1\n      pop\n        /* \"#utility.yul\":5125:5215   */\n      swap2\n      swap1\n      pop\n      jump\t// out\n        /* \"#utility.yul\":5221:5347   */\n    tag_131:\n        /* \"#utility.yul\":5258:5265   */\n      0x00\n        /* \"#utility.yul\":5298:5340   */\n      0xffffffffffffffffffffffffffffffffffffffff\n        /* \"#utility.yul\":5291:5296   */\n      dup3\n        /* \"#utility.yul\":5287:5341   */\n      and\n        /* \"#utility.yul\":5276:5341   */\n      swap1\n      pop\n        /* \"#utility.yul\":5221:5347   */\n      swap2\n      swap1\n      pop\n      jump\t// out\n        /* \"#utility.yul\":5353:5430   */\n    tag_104:\n        /* \"#utility.yul\":5390:5397   */\n      0x00\n        /* \"#utility.yul\":5419:5424   */\n      dup2\n        /* \"#utility.yul\":5408:5424   */\n      swap1\n      pop\n        /* \"#utility.yul\":5353:5430   */\n      swap2\n      swap1\n      pop\n      jump\t// out\n        /* \"#utility.yul\":5436:5590   */\n    tag_58:\n        /* \"#utility.yul\":5520:5526   */\n      dup3\n        /* \"#utility.yul\":5515:5518   */\n      dup2\n        /* \"#utility.yul\":5510:5513   */\n      dup4\n        /* \"#utility.yul\":5497:5527   */\n      calldatacopy\n        /* \"#utility.yul\":5582:5583   */\n      0x00\n        /* \"#utility.yul\":5573:5579   */\n      dup4\n        /* \"#utility.yul\":5568:5571   */\n      dup4\n        /* \"#utility.yul\":5564:5580   */\n      add\n        /* \"#utility.yul\":5557:5584   */\n      mstore\n        /* \"#utility.yul\":5436:5590   */\n      pop\n      pop\n      pop\n      jump\t// out\n        /* \"#utility.yul\":5596:5903   */\n    tag_93:\n        /* \"#utility.yul\":5664:5665   */\n      0x00\n        /* \"#utility.yul\":5674:5787   */\n    tag_137:\n        /* \"#utility.yul\":5688:5694   */\n      dup4\n        /* \"#utility.yul\":5685:5686   */\n      dup2\n        /* \"#utility.yul\":5682:5695   */\n      lt\n        /* \"#utility.yul\":5674:5787   */\n      iszero\n      tag_139\n      jumpi\n        /* \"#utility.yul\":5773:5774   */\n      dup1\n        /* \"#utility.yul\":5768:5771   */\n      dup3\n        /* \"#utility.yul\":5764:5775   */\n      add\n        /* \"#utility.yul\":5758:5776   */\n      mload\n        /* \"#utility.yul\":5754:5755   */\n      dup2\n        /* \"#utility.yul\":5749:5752   */\n      dup5\n        /* \"#utility.yul\":5745:5756   */\n      add\n        /* \"#utility.yul\":5738:5777   */\n      mstore\n        /* \"#utility.yul\":5710:5712   */\n      0x20\n        /* \"#utility.yul\":5707:5708   */\n      dup2\n        /* \"#utility.yul\":5703:5713   */\n      add\n        /* \"#utility.yul\":5698:5713   */\n      swap1\n      pop\n        /* \"#utility.yul\":5674:5787   */\n      jump(tag_137)\n    tag_139:\n        /* \"#utility.yul\":5805:5811   */\n      dup4\n        /* \"#utility.yul\":5802:5803   */\n      dup2\n        /* \"#utility.yul\":5799:5812   */\n      gt\n        /* \"#utility.yul\":5796:5897   */\n      iszero\n      tag_140\n      jumpi\n        /* \"#utility.yul\":5885:5886   */\n      0x00\n        /* \"#utility.yul\":5876:5882   */\n      dup5\n        /* \"#utility.yul\":5871:5874   */\n      dup5\n        /* \"#utility.yul\":5867:5883   */\n      add\n        /* \"#utility.yul\":5860:5887   */\n      mstore\n        /* \"#utility.yul\":5796:5897   */\n    tag_140:\n        /* \"#utility.yul\":5645:5903   */\n      pop\n        /* \"#utility.yul\":5596:5903   */\n      pop\n      pop\n      pop\n      jump\t// out\n        /* \"#utility.yul\":5909:6229   */\n    tag_32:\n        /* \"#utility.yul\":5953:5959   */\n      0x00\n        /* \"#utility.yul\":5990:5991   */\n      0x02\n        /* \"#utility.yul\":5984:5988   */\n      dup3\n        /* \"#utility.yul\":5980:5992   */\n      div\n        /* \"#utility.yul\":5970:5992   */\n      swap1\n      pop\n        /* \"#utility.yul\":6037:6038   */\n      0x01\n        /* \"#utility.yul\":6031:6035   */\n      dup3\n        /* \"#utility.yul\":6027:6039   */\n      and\n        /* \"#utility.yul\":6058:6076   */\n      dup1\n        /* \"#utility.yul\":6048:6129   */\n      tag_142\n      jumpi\n        /* \"#utility.yul\":6114:6118   */\n      0x7f\n        /* \"#utility.yul\":6106:6112   */\n      dup3\n        /* \"#utility.yul\":6102:6119   */\n      and\n        /* \"#utility.yul\":6092:6119   */\n      swap2\n      pop\n        /* \"#utility.yul\":6048:6129   */\n    tag_142:\n        /* \"#utility.yul\":6176:6178   */\n      0x20\n        /* \"#utility.yul\":6168:6174   */\n      dup3\n        /* \"#utility.yul\":6165:6179   */\n      lt\n        /* \"#utility.yul\":6145:6163   */\n      dup2\n        /* \"#utility.yul\":6142:6180   */\n      eq\n        /* \"#utility.yul\":6139:6223   */\n      iszero\n      tag_143\n      jumpi\n        /* \"#utility.yul\":6195:6213   */\n      tag_144\n      tag_145\n      jump\t// in\n    tag_144:\n        /* \"#utility.yul\":6139:6223   */\n    tag_143:\n        /* \"#utility.yul\":5960:6229   */\n      pop\n        /* \"#utility.yul\":5909:6229   */\n      swap2\n      swap1\n      pop\n      jump\t// out\n        /* \"#utility.yul\":6235:6516   */\n    tag_120:\n        /* \"#utility.yul\":6318:6345   */\n      tag_147\n        /* \"#utility.yul\":6340:6344   */\n      dup3\n        /* \"#utility.yul\":6318:6345   */\n      tag_95\n      jump\t// in\n    tag_147:\n        /* \"#utility.yul\":6310:6316   */\n      dup2\n        /* \"#utility.yul\":6306:6346   */\n      add\n        /* \"#utility.yul\":6448:6454   */\n      dup2\n        /* \"#utility.yul\":6436:6446   */\n      dup2\n        /* \"#utility.yul\":6433:6455   */\n      lt\n        /* \"#utility.yul\":6412:6430   */\n      0xffffffffffffffff\n        /* \"#utility.yul\":6400:6410   */\n      dup3\n        /* \"#utility.yul\":6397:6431   */\n      gt\n        /* \"#utility.yul\":6394:6456   */\n      or\n        /* \"#utility.yul\":6391:6479   */\n      iszero\n      tag_148\n      jumpi\n        /* \"#utility.yul\":6459:6477   */\n      tag_149\n      tag_125\n      jump\t// in\n    tag_149:\n        /* \"#utility.yul\":6391:6479   */\n    tag_148:\n        /* \"#utility.yul\":6499:6509   */\n      dup1\n        /* \"#utility.yul\":6495:6497   */\n      0x40\n        /* \"#utility.yul\":6488:6510   */\n      mstore\n        /* \"#utility.yul\":6278:6516   */\n      pop\n        /* \"#utility.yul\":6235:6516   */\n      pop\n      pop\n      jump\t// out\n        /* \"#utility.yul\":6522:6702   */\n    tag_145:\n        /* \"#utility.yul\":6570:6647   */\n      0x4e487b7100000000000000000000000000000000000000000000000000000000\n        /* \"#utility.yul\":6567:6568   */\n      0x00\n        /* \"#utility.yul\":6560:6648   */\n      mstore\n        /* \"#utility.yul\":6667:6671   */\n      0x22\n        /* \"#utility.yul\":6664:6665   */\n      0x04\n        /* \"#utility.yul\":6657:6672   */\n      mstore\n        /* \"#utility.yul\":6691:6695   */\n      0x24\n        /* \"#utility.yul\":6688:6689   */\n      0x00\n        /* \"#utility.yul\":6681:6696   */\n      revert\n        /* \"#utility.yul\":6708:6888   */\n    tag_125:\n        /* \"#utility.yul\":6756:6833   */\n      0x4e487b7100000000000000000000000000000000000000000000000000000000\n        /* \"#utility.yul\":6753:6754   */\n      0x00\n        /* \"#utility.yul\":6746:6834   */\n      mstore\n        /* \"#utility.yul\":6853:6857   */\n      0x41\n        /* \"#utility.yul\":6850:6851   */\n      0x04\n        /* \"#utility.yul\":6843:6858   */\n      mstore\n        /* \"#utility.yul\":6877:6881   */\n      0x24\n        /* \"#utility.yul\":6874:6875   */\n      0x00\n        /* \"#utility.yul\":6867:6882   */\n      revert\n        /* \"#utility.yul\":6894:7011   */\n    tag_63:\n        /* \"#utility.yul\":7003:7004   */\n      0x00\n        /* \"#utility.yul\":7000:7001   */\n      dup1\n        /* \"#utility.yul\":6993:7005   */\n      revert\n        /* \"#utility.yul\":7017:7134   */\n    tag_56:\n        /* \"#utility.yul\":7126:7127   */\n      0x00\n        /* \"#utility.yul\":7123:7124   */\n      dup1\n        /* \"#utility.yul\":7116:7128   */\n      revert\n        /* \"#utility.yul\":7140:7257   */\n    tag_75:\n        /* \"#utility.yul\":7249:7250   */\n      0x00\n        /* \"#utility.yul\":7246:7247   */\n      dup1\n        /* \"#utility.yul\":7239:7251   */\n      revert\n        /* \"#utility.yul\":7263:7380   */\n    tag_72:\n        /* \"#utility.yul\":7372:7373   */\n      0x00\n        /* \"#utility.yul\":7369:7370   */\n      dup1\n        /* \"#utility.yul\":7362:7374   */\n      revert\n        /* \"#utility.yul\":7386:7488   */\n    tag_95:\n        /* \"#utility.yul\":7427:7433   */\n      0x00\n        /* \"#utility.yul\":7478:7480   */\n      0x1f\n        /* \"#utility.yul\":7474:7481   */\n      not\n        /* \"#utility.yul\":7469:7471   */\n      0x1f\n        /* \"#utility.yul\":7462:7467   */\n      dup4\n        /* \"#utility.yul\":7458:7472   */\n      add\n        /* \"#utility.yul\":7454:7482   */\n      and\n        /* \"#utility.yul\":7444:7482   */\n      swap1\n      pop\n        /* \"#utility.yul\":7386:7488   */\n      swap2\n      swap1\n      pop\n      jump\t// out\n        /* \"#utility.yul\":7494:7663   */\n    tag_100:\n        /* \"#utility.yul\":7634:7655   */\n      0x46616c6c6261636b207761732063616c6c656400000000000000000000000000\n        /* \"#utility.yul\":7630:7631   */\n      0x00\n        /* \"#utility.yul\":7622:7628   */\n      dup3\n        /* \"#utility.yul\":7618:7632   */\n      add\n        /* \"#utility.yul\":7611:7656   */\n      mstore\n        /* \"#utility.yul\":7494:7663   */\n      pop\n      jump\t// out\n        /* \"#utility.yul\":7669:7791   */\n    tag_68:\n        /* \"#utility.yul\":7742:7766   */\n      tag_159\n        /* \"#utility.yul\":7760:7765   */\n      dup2\n        /* \"#utility.yul\":7742:7766   */\n      tag_104\n      jump\t// in\n    tag_159:\n        /* \"#utility.yul\":7735:7740   */\n      dup2\n        /* \"#utility.yul\":7732:7767   */\n      eq\n        /* \"#utility.yul\":7722:7785   */\n      tag_160\n      jumpi\n        /* \"#utility.yul\":7781:7782   */\n      0x00\n        /* \"#utility.yul\":7778:7779   */\n      dup1\n        /* \"#utility.yul\":7771:7783   */\n      revert\n        /* \"#utility.yul\":7722:7785   */\n    tag_160:\n        /* \"#utility.yul\":7669:7791   */\n      pop\n      jump\t// out\n\n    auxdata: 0xa26469706673582212204b8c04f99822dce71ccfeeff59c8cd1348908fda2ff5c703be46bd5ef47f514e64736f6c63430008070033\n}\n",
				"bytecode": {
					"linkReferences": {},
					"object": "608060405234801561001057600080fd5b506106cd806100206000396000f3fe6080604052600436106100385760003560e01c806324ccab8f1461007a5780638381f58a146100ab578063e21f37ce146100d65761003f565b3661003f57005b7f4e3358e5bdb38f499a83fbcd33d16343569f3b6fe53021022dede6364017b4a833346040516100709291906103d3565b60405180910390a1005b610094600480360381019061008f91906102ee565b610101565b6040516100a292919061040f565b60405180910390f35b3480156100b757600080fd5b506100c0610132565b6040516100cd919061045a565b60405180910390f35b3480156100e257600080fd5b506100eb610138565b6040516100f89190610438565b60405180910390f35b600080836000908051906020019061011a9291906101c6565b508260018190555060016103e7915091509250929050565b60015481565b6000805461014590610571565b80601f016020809104026020016040519081016040528092919081815260200182805461017190610571565b80156101be5780601f10610193576101008083540402835291602001916101be565b820191906000526020600020905b8154815290600101906020018083116101a157829003601f168201915b505050505081565b8280546101d290610571565b90600052602060002090601f0160209004810192826101f4576000855561023b565b82601f1061020d57805160ff191683800117855561023b565b8280016001018555821561023b579182015b8281111561023a57825182559160200191906001019061021f565b5b509050610248919061024c565b5090565b5b8082111561026557600081600090555060010161024d565b5090565b600061027c6102778461049a565b610475565b90508281526020810184848401111561029857610297610637565b5b6102a384828561052f565b509392505050565b600082601f8301126102c0576102bf610632565b5b81356102d0848260208601610269565b91505092915050565b6000813590506102e881610680565b92915050565b6000806040838503121561030557610304610641565b5b600083013567ffffffffffffffff8111156103235761032261063c565b5b61032f858286016102ab565b9250506020610340858286016102d9565b9150509250929050565b610353816104e7565b82525050565b610362816104f9565b82525050565b6000610373826104cb565b61037d81856104d6565b935061038d81856020860161053e565b61039681610646565b840191505092915050565b60006103ae6013836104d6565b91506103b982610657565b602082019050919050565b6103cd81610525565b82525050565b60006060820190506103e8600083018561034a565b6103f560208301846103c4565b8181036040830152610406816103a1565b90509392505050565b60006040820190506104246000830185610359565b61043160208301846103c4565b9392505050565b600060208201905081810360008301526104528184610368565b905092915050565b600060208201905061046f60008301846103c4565b92915050565b600061047f610490565b905061048b82826105a3565b919050565b6000604051905090565b600067ffffffffffffffff8211156104b5576104b4610603565b5b6104be82610646565b9050602081019050919050565b600081519050919050565b600082825260208201905092915050565b60006104f282610505565b9050919050565b60008115159050919050565b600073ffffffffffffffffffffffffffffffffffffffff82169050919050565b6000819050919050565b82818337600083830152505050565b60005b8381101561055c578082015181840152602081019050610541565b8381111561056b576000848401525b50505050565b6000600282049050600182168061058957607f821691505b6020821081141561059d5761059c6105d4565b5b50919050565b6105ac82610646565b810181811067ffffffffffffffff821117156105cb576105ca610603565b5b80604052505050565b7f4e487b7100000000000000000000000000000000000000000000000000000000600052602260045260246000fd5b7f4e487b7100000000000000000000000000000000000000000000000000000000600052604160045260246000fd5b600080fd5b600080fd5b600080fd5b600080fd5b6000601f19601f8301169050919050565b7f46616c6c6261636b207761732063616c6c656400000000000000000000000000600082015250565b61068981610525565b811461069457600080fd5b5056fea26469706673582212204b8c04f99822dce71ccfeeff59c8cd1348908fda2ff5c703be46bd5ef47f514e64736f6c63430008070033",
					"opcodes": "PUSH1 0x80 PUSH1 0x40 MSTORE CALLVALUE DUP1 ISZERO PUSH2 0x10 JUMPI PUSH1 0x0 DUP1 REVERT JUMPDEST POP PUSH2 0x6CD DUP1 PUSH2 0x20 PUSH1 0x0 CODECOPY PUSH1 0x0 RETURN INVALID PUSH1 0x80 PUSH1 0x40 MSTORE PUSH1 0x4 CALLDATASIZE LT PUSH2 0x38 JUMPI PUSH1 0x0 CALLDATALOAD PUSH1 0xE0 SHR DUP1 PUSH4 0x24CCAB8F EQ PUSH2 0x7A JUMPI DUP1 PUSH4 0x8381F58A EQ PUSH2 0xAB JUMPI DUP1 PUSH4 0xE21F37CE EQ PUSH2 0xD6 JUMPI PUSH2 0x3F JUMP JUMPDEST CALLDATASIZE PUSH2 0x3F JUMPI STOP JUMPDEST PUSH32 0x4E3358E5BDB38F499A83FBCD33D16343569F3B6FE53021022DEDE6364017B4A8 CALLER CALLVALUE PUSH1 0x40 MLOAD PUSH2 0x70 SWAP3 SWAP2 SWAP1 PUSH2 0x3D3 JUMP JUMPDEST PUSH1 0x40 MLOAD DUP1 SWAP2 SUB SWAP1 LOG1 STOP JUMPDEST PUSH2 0x94 PUSH1 0x4 DUP1 CALLDATASIZE SUB DUP2 ADD SWAP1 PUSH2 0x8F SWAP2 SWAP1 PUSH2 0x2EE JUMP JUMPDEST PUSH2 0x101 JUMP JUMPDEST PUSH1 0x40 MLOAD PUSH2 0xA2 SWAP3 SWAP2 SWAP1 PUSH2 0x40F JUMP JUMPDEST PUSH1 0x40 MLOAD DUP1 SWAP2 SUB SWAP1 RETURN JUMPDEST CALLVALUE DUP1 ISZERO PUSH2 0xB7 JUMPI PUSH1 0x0 DUP1 REVERT JUMPDEST POP PUSH2 0xC0 PUSH2 0x132 JUMP JUMPDEST PUSH1 0x40 MLOAD PUSH2 0xCD SWAP2 SWAP1 PUSH2 0x45A JUMP JUMPDEST PUSH1 0x40 MLOAD DUP1 SWAP2 SUB SWAP1 RETURN JUMPDEST CALLVALUE DUP1 ISZERO PUSH2 0xE2 JUMPI PUSH1 0x0 DUP1 REVERT JUMPDEST POP PUSH2 0xEB PUSH2 0x138 JUMP JUMPDEST PUSH1 0x40 MLOAD PUSH2 0xF8 SWAP2 SWAP1 PUSH2 0x438 JUMP JUMPDEST PUSH1 0x40 MLOAD DUP1 SWAP2 SUB SWAP1 RETURN JUMPDEST PUSH1 0x0 DUP1 DUP4 PUSH1 0x0 SWAP1 DUP1 MLOAD SWAP1 PUSH1 0x20 ADD SWAP1 PUSH2 0x11A SWAP3 SWAP2 SWAP1 PUSH2 0x1C6 JUMP JUMPDEST POP DUP3 PUSH1 0x1 DUP2 SWAP1 SSTORE POP PUSH1 0x1 PUSH2 0x3E7 SWAP2 POP SWAP2 POP SWAP3 POP SWAP3 SWAP1 POP JUMP JUMPDEST PUSH1 0x1 SLOAD DUP2 JUMP JUMPDEST PUSH1 0x0 DUP1 SLOAD PUSH2 0x145 SWAP1 PUSH2 0x571 JUMP JUMPDEST DUP1 PUSH1 0x1F ADD PUSH1 0x20 DUP1 SWAP2 DIV MUL PUSH1 0x20 ADD PUSH1 0x40 MLOAD SWAP1 DUP2 ADD PUSH1 0x40 MSTORE DUP1 SWAP3 SWAP2 SWAP1 DUP2 DUP2 MSTORE PUSH1 0x20 ADD DUP3 DUP1 SLOAD PUSH2 0x171 SWAP1 PUSH2 0x571 JUMP JUMPDEST DUP1 ISZERO PUSH2 0x1BE JUMPI DUP1 PUSH1 0x1F LT PUSH2 0x193 JUMPI PUSH2 0x100 DUP1 DUP4 SLOAD DIV MUL DUP4 MSTORE SWAP2 PUSH1 0x20 ADD SWAP2 PUSH2 0x1BE JUMP JUMPDEST DUP3 ADD SWAP2 SWAP1 PUSH1 0x0 MSTORE PUSH1 0x20 PUSH1 0x0 KECCAK256 SWAP1 JUMPDEST DUP2 SLOAD DUP2 MSTORE SWAP1 PUSH1 0x1 ADD SWAP1 PUSH1 0x20 ADD DUP1 DUP4 GT PUSH2 0x1A1 JUMPI DUP3 SWAP1 SUB PUSH1 0x1F AND DUP3 ADD SWAP2 JUMPDEST POP POP POP POP POP DUP2 JUMP JUMPDEST DUP3 DUP1 SLOAD PUSH2 0x1D2 SWAP1 PUSH2 0x571 JUMP JUMPDEST SWAP1 PUSH1 0x0 MSTORE PUSH1 0x20 PUSH1 0x0 KECCAK256 SWAP1 PUSH1 0x1F ADD PUSH1 0x20 SWAP1 DIV DUP2 ADD SWAP3 DUP3 PUSH2 0x1F4 JUMPI PUSH1 0x0 DUP6 SSTORE PUSH2 0x23B JUMP JUMPDEST DUP3 PUSH1 0x1F LT PUSH2 0x20D JUMPI DUP1 MLOAD PUSH1 0xFF NOT AND DUP4 DUP1 ADD OR DUP6 SSTORE PUSH2 0x23B JUMP JUMPDEST DUP3 DUP1 ADD PUSH1 0x1 ADD DUP6 SSTORE DUP3 ISZERO PUSH2 0x23B JUMPI SWAP2 DUP3 ADD JUMPDEST DUP3 DUP2 GT ISZERO PUSH2 0x23A JUMPI DUP3 MLOAD DUP3 SSTORE SWAP2 PUSH1 0x20 ADD SWAP2 SWAP1 PUSH1 0x1 ADD SWAP1 PUSH2 0x21F JUMP JUMPDEST JUMPDEST POP SWAP1 POP PUSH2 0x248 SWAP2 SWAP1 PUSH2 0x24C JUMP JUMPDEST POP SWAP1 JUMP JUMPDEST JUMPDEST DUP1 DUP3 GT ISZERO PUSH2 0x265 JUMPI PUSH1 0x0 DUP2 PUSH1 0x0 SWAP1 SSTORE POP PUSH1 0x1 ADD PUSH2 0x24D JUMP JUMPDEST POP SWAP1 JUMP JUMPDEST PUSH1 0x0 PUSH2 0x27C PUSH2 0x277 DUP5 PUSH2 0x49A JUMP JUMPDEST PUSH2 0x475 JUMP JUMPDEST SWAP1 POP DUP3 DUP2 MSTORE PUSH1 0x20 DUP2 ADD DUP5 DUP5 DUP5 ADD GT ISZERO PUSH2 0x298 JUMPI PUSH2 0x297 PUSH2 0x637 JUMP JUMPDEST JUMPDEST PUSH2 0x2A3 DUP5 DUP3 DUP6 PUSH2 0x52F JUMP JUMPDEST POP SWAP4 SWAP3 POP POP POP JUMP JUMPDEST PUSH1 0x0 DUP3 PUSH1 0x1F DUP4 ADD SLT PUSH2 0x2C0 JUMPI PUSH2 0x2BF PUSH2 0x632 JUMP JUMPDEST JUMPDEST DUP2 CALLDATALOAD PUSH2 0x2D0 DUP5 DUP3 PUSH1 0x20 DUP7 ADD PUSH2 0x269 JUMP JUMPDEST SWAP2 POP POP SWAP3 SWAP2 POP POP JUMP JUMPDEST PUSH1 0x0 DUP2 CALLDATALOAD SWAP1 POP PUSH2 0x2E8 DUP2 PUSH2 0x680 JUMP JUMPDEST SWAP3 SWAP2 POP POP JUMP JUMPDEST PUSH1 0x0 DUP1 PUSH1 0x40 DUP4 DUP6 SUB SLT ISZERO PUSH2 0x305 JUMPI PUSH2 0x304 PUSH2 0x641 JUMP JUMPDEST JUMPDEST PUSH1 0x0 DUP4 ADD CALLDATALOAD PUSH8 0xFFFFFFFFFFFFFFFF DUP2 GT ISZERO PUSH2 0x323 JUMPI PUSH2 0x322 PUSH2 0x63C JUMP JUMPDEST JUMPDEST PUSH2 0x32F DUP6 DUP3 DUP7 ADD PUSH2 0x2AB JUMP JUMPDEST SWAP3 POP POP PUSH1 0x20 PUSH2 0x340 DUP6 DUP3 DUP7 ADD PUSH2 0x2D9 JUMP JUMPDEST SWAP2 POP POP SWAP3 POP SWAP3 SWAP1 POP JUMP JUMPDEST PUSH2 0x353 DUP2 PUSH2 0x4E7 JUMP JUMPDEST DUP3 MSTORE POP POP JUMP JUMPDEST PUSH2 0x362 DUP2 PUSH2 0x4F9 JUMP JUMPDEST DUP3 MSTORE POP POP JUMP JUMPDEST PUSH1 0x0 PUSH2 0x373 DUP3 PUSH2 0x4CB JUMP JUMPDEST PUSH2 0x37D DUP2 DUP6 PUSH2 0x4D6 JUMP JUMPDEST SWAP4 POP PUSH2 0x38D DUP2 DUP6 PUSH1 0x20 DUP7 ADD PUSH2 0x53E JUMP JUMPDEST PUSH2 0x396 DUP2 PUSH2 0x646 JUMP JUMPDEST DUP5 ADD SWAP2 POP POP SWAP3 SWAP2 POP POP JUMP JUMPDEST PUSH1 0x0 PUSH2 0x3AE PUSH1 0x13 DUP4 PUSH2 0x4D6 JUMP JUMPDEST SWAP2 POP PUSH2 0x3B9 DUP3 PUSH2 0x657 JUMP JUMPDEST PUSH1 0x20 DUP3 ADD SWAP1 POP SWAP2 SWAP1 POP JUMP JUMPDEST PUSH2 0x3CD DUP2 PUSH2 0x525 JUMP JUMPDEST DUP3 MSTORE POP POP JUMP JUMPDEST PUSH1 0x0 PUSH1 0x60 DUP3 ADD SWAP1 POP PUSH2 0x3E8 PUSH1 0x0 DUP4 ADD DUP6 PUSH2 0x34A JUMP JUMPDEST PUSH2 0x3F5 PUSH1 0x20 DUP4 ADD DUP5 PUSH2 0x3C4 JUMP JUMPDEST DUP2 DUP2 SUB PUSH1 0x40 DUP4 ADD MSTORE PUSH2 0x406 DUP2 PUSH2 0x3A1 JUMP JUMPDEST SWAP1 POP SWAP4 SWAP3 POP POP POP JUMP JUMPDEST PUSH1 0x0 PUSH1 0x40 DUP3 ADD SWAP1 POP PUSH2 0x424 PUSH1 0x0 DUP4 ADD DUP6 PUSH2 0x359 JUMP JUMPDEST PUSH2 0x431 PUSH1 0x20 DUP4 ADD DUP5 PUSH2 0x3C4 JUMP JUMPDEST SWAP4 SWAP3 POP POP POP JUMP JUMPDEST PUSH1 0x0 PUSH1 0x20 DUP3 ADD SWAP1 POP DUP2 DUP2 SUB PUSH1 0x0 DUP4 ADD MSTORE PUSH2 0x452 DUP2 DUP5 PUSH2 0x368 JUMP JUMPDEST SWAP1 POP SWAP3 SWAP2 POP POP JUMP JUMPDEST PUSH1 0x0 PUSH1 0x20 DUP3 ADD SWAP1 POP PUSH2 0x46F PUSH1 0x0 DUP4 ADD DUP5 PUSH2 0x3C4 JUMP JUMPDEST SWAP3 SWAP2 POP POP JUMP JUMPDEST PUSH1 0x0 PUSH2 0x47F PUSH2 0x490 JUMP JUMPDEST SWAP1 POP PUSH2 0x48B DUP3 DUP3 PUSH2 0x5A3 JUMP JUMPDEST SWAP2 SWAP1 POP JUMP JUMPDEST PUSH1 0x0 PUSH1 0x40 MLOAD SWAP1 POP SWAP1 JUMP JUMPDEST PUSH1 0x0 PUSH8 0xFFFFFFFFFFFFFFFF DUP3 GT ISZERO PUSH2 0x4B5 JUMPI PUSH2 0x4B4 PUSH2 0x603 JUMP JUMPDEST JUMPDEST PUSH2 0x4BE DUP3 PUSH2 0x646 JUMP JUMPDEST SWAP1 POP PUSH1 0x20 DUP2 ADD SWAP1 POP SWAP2 SWAP1 POP JUMP JUMPDEST PUSH1 0x0 DUP2 MLOAD SWAP1 POP SWAP2 SWAP1 POP JUMP JUMPDEST PUSH1 0x0 DUP3 DUP3 MSTORE PUSH1 0x20 DUP3 ADD SWAP1 POP SWAP3 SWAP2 POP POP JUMP JUMPDEST PUSH1 0x0 PUSH2 0x4F2 DUP3 PUSH2 0x505 JUMP JUMPDEST SWAP1 POP SWAP2 SWAP1 POP JUMP JUMPDEST PUSH1 0x0 DUP2 ISZERO ISZERO SWAP1 POP SWAP2 SWAP1 POP JUMP JUMPDEST PUSH1 0x0 PUSH20 0xFFFFFFFFFFFFFFFFFFFFFFFFFFFFFFFFFFFFFFFF DUP3 AND SWAP1 POP SWAP2 SWAP1 POP JUMP JUMPDEST PUSH1 0x0 DUP2 SWAP1 POP SWAP2 SWAP1 POP JUMP JUMPDEST DUP3 DUP2 DUP4 CALLDATACOPY PUSH1 0x0 DUP4 DUP4 ADD MSTORE POP POP POP JUMP JUMPDEST PUSH1 0x0 JUMPDEST DUP4 DUP2 LT ISZERO PUSH2 0x55C JUMPI DUP1 DUP3 ADD MLOAD DUP2 DUP5 ADD MSTORE PUSH1 0x20 DUP2 ADD SWAP1 POP PUSH2 0x541 JUMP JUMPDEST DUP4 DUP2 GT ISZERO PUSH2 0x56B JUMPI PUSH1 0x0 DUP5 DUP5 ADD MSTORE JUMPDEST POP POP POP POP JUMP JUMPDEST PUSH1 0x0 PUSH1 0x2 DUP3 DIV SWAP1 POP PUSH1 0x1 DUP3 AND DUP1 PUSH2 0x589 JUMPI PUSH1 0x7F DUP3 AND SWAP2 POP JUMPDEST PUSH1 0x20 DUP3 LT DUP2 EQ ISZERO PUSH2 0x59D JUMPI PUSH2 0x59C PUSH2 0x5D4 JUMP JUMPDEST JUMPDEST POP SWAP2 SWAP1 POP JUMP JUMPDEST PUSH2 0x5AC DUP3 PUSH2 0x646 JUMP JUMPDEST DUP2 ADD DUP2 DUP2 LT PUSH8 0xFFFFFFFFFFFFFFFF DUP3 GT OR ISZERO PUSH2 0x5CB JUMPI PUSH2 0x5CA PUSH2 0x603 JUMP JUMPDEST JUMPDEST DUP1 PUSH1 0x40 MSTORE POP POP POP JUMP JUMPDEST PUSH32 0x4E487B7100000000000000000000000000000000000000000000000000000000 PUSH1 0x0 MSTORE PUSH1 0x22 PUSH1 0x4 MSTORE PUSH1 0x24 PUSH1 0x0 REVERT JUMPDEST PUSH32 0x4E487B7100000000000000000000000000000000000000000000000000000000 PUSH1 0x0 MSTORE PUSH1 0x41 PUSH1 0x4 MSTORE PUSH1 0x24 PUSH1 0x0 REVERT JUMPDEST PUSH1 0x0 DUP1 REVERT JUMPDEST PUSH1 0x0 DUP1 REVERT JUMPDEST PUSH1 0x0 DUP1 REVERT JUMPDEST PUSH1 0x0 DUP1 REVERT JUMPDEST PUSH1 0x0 PUSH1 0x1F NOT PUSH1 0x1F DUP4 ADD AND SWAP1 POP SWAP2 SWAP1 POP JUMP JUMPDEST PUSH32 0x46616C6C6261636B207761732063616C6C656400000000000000000000000000 PUSH1 0x0 DUP3 ADD MSTORE POP JUMP JUMPDEST PUSH2 0x689 DUP2 PUSH2 0x525 JUMP JUMPDEST DUP2 EQ PUSH2 0x694 JUMPI PUSH1 0x0 DUP1 REVERT JUMPDEST POP JUMP INVALID LOG2 PUSH5 0x6970667358 0x22 SLT KECCAK256 0x4B DUP13 DIV 0xF9 SWAP9 0x22 0xDC 0xE7 SHR 0xCF 0xEE SELFDESTRUCT MSIZE 0xC8 0xCD SGT BASEFEE SWAP1 DUP16 0xDA 0x2F CREATE2 0xC7 SUB 0xBE CHAINID 0xBD 0x5E DELEGATECALL PUSH32 0x514E64736F6C6343000807003300000000000000000000000000000000000000 "
				},
				"gasEstimates": {
					"creation": {
						"codeDepositCost": "348200",
						"executionCost": "386",
						"totalCost": "348586"
					},
					"external": {
						"": "2696",
						"foo(string,uint256)": "infinite",
						"message()": "infinite",
						"number()": "2429"
					}
				},
				"methodIdentifiers": {
					"foo(string,uint256)": "24ccab8f",
					"message()": "e21f37ce",
					"number()": "8381f58a"
				}
			},
			"storageLayout": {
				"storage": [
					{
						"astId": 3,
						"contract": "contracts/TestContract.sol:TestContract",
						"label": "message",
						"offset": 0,
						"slot": "0",
						"type": "t_string_storage"
					},
					{
						"astId": 5,
						"contract": "contracts/TestContract.sol:TestContract",
						"label": "number",
						"offset": 0,
						"slot": "1",
						"type": "t_uint256"
					}
				],
				"types": {
					"t_string_storage": {
						"encoding": "bytes",
						"label": "string",
						"numberOfBytes": "32"
					},
					"t_uint256": {
						"encoding": "inplace",
						"label": "uint256",
						"numberOfBytes": "32"
					}
				}
			},
			"userdoc": {
				"kind": "user",
				"methods": {},
				"version": 1
			}
		}
	}
}