{
	"data": {
		"bytecode": {
			"linkReferences": {},
			"object": "608060405234801561001057600080fd5b50610517806100206000396000f3fe608060405234801561001057600080fd5b506004361061002b5760003560e01c8063ef4093fe14610030575b600080fd5b61004a600480360381019061004591906101c9565b610060565b6040516100579190610314565b60405180910390f35b61006861013f565b6000600367ffffffffffffffff8111156100855761008461048d565b5b6040519080825280602002602001820160405280156100b35781602001602082028036833780820191505090505b5090506001816000815181106100cc576100cb61045e565b5b6020026020010181815250506002816001815181106100ee576100ed61045e565b5b6020026020010181815250506003816002815181106101105761010f61045e565b5b602002602001018181525050600060405180604001604052808581526020018381525090508092505050919050565b604051806040016040528060608152602001606081525090565b600061016c6101678461035b565b610336565b905082815260208101848484011115610188576101876104c1565b5b6101938482856103eb565b509392505050565b600082601f8301126101b0576101af6104bc565b5b81356101c0848260208601610159565b91505092915050565b6000602082840312156101df576101de6104cb565b5b600082013567ffffffffffffffff8111156101fd576101fc6104c6565b5b6102098482850161019b565b91505092915050565b600061021e8383610305565b60208301905092915050565b60006102358261039c565b61023f81856103bf565b935061024a8361038c565b8060005b8381101561027b5781516102628882610212565b975061026d836103b2565b92505060018101905061024e565b5085935050505092915050565b6000610293826103a7565b61029d81856103d0565b93506102ad8185602086016103fa565b6102b6816104d0565b840191505092915050565b600060408301600083015184820360008601526102de8282610288565b915050602083015184820360208601526102f8828261022a565b9150508091505092915050565b61030e816103e1565b82525050565b6000602082019050818103600083015261032e81846102c1565b905092915050565b6000610340610351565b905061034c828261042d565b919050565b6000604051905090565b600067ffffffffffffffff8211156103765761037561048d565b5b61037f826104d0565b9050602081019050919050565b6000819050602082019050919050565b600081519050919050565b600081519050919050565b6000602082019050919050565b600082825260208201905092915050565b600082825260208201905092915050565b6000819050919050565b82818337600083830152505050565b60005b838110156104185780820151818401526020810190506103fd565b83811115610427576000848401525b50505050565b610436826104d0565b810181811067ffffffffffffffff821117156104555761045461048d565b5b80604052505050565b7f4e487b7100000000000000000000000000000000000000000000000000000000600052603260045260246000fd5b7f4e487b7100000000000000000000000000000000000000000000000000000000600052604160045260246000fd5b600080fd5b600080fd5b600080fd5b600080fd5b6000601f19601f830116905091905056fea2646970667358221220c9a3ae906baf1483dabd65cb390b932b9569582fb45aa01abdfa744105f71c9864736f6c63430008070033",
			"opcodes": "PUSH1 0x80 PUSH1 0x40 MSTORE CALLVALUE DUP1 ISZERO PUSH2 0x10 JUMPI PUSH1 0x0 DUP1 REVERT JUMPDEST POP PUSH2 0x517 DUP1 PUSH2 0x20 PUSH1 0x0 CODECOPY PUSH1 0x0 RETURN INVALID PUSH1 0x80 PUSH1 0x40 MSTORE CALLVALUE DUP1 ISZERO PUSH2 0x10 JUMPI PUSH1 0x0 DUP1 REVERT JUMPDEST POP PUSH1 0x4 CALLDATASIZE LT PUSH2 0x2B JUMPI PUSH1 0x0 CALLDATALOAD PUSH1 0xE0 SHR DUP1 PUSH4 0xEF4093FE EQ PUSH2 0x30 JUMPI JUMPDEST PUSH1 0x0 DUP1 REVERT JUMPDEST PUSH2 0x4A PUSH1 0x4 DUP1 CALLDATASIZE SUB DUP2 ADD SWAP1 PUSH2 0x45 SWAP2 SWAP1 PUSH2 0x1C9 JUMP JUMPDEST PUSH2 0x60 JUMP JUMPDEST PUSH1 0x40 MLOAD PUSH2 0x57 SWAP2 SWAP1 PUSH2 0x314 JUMP JUMPDEST PUSH1 0x40 MLOAD DUP1 SWAP2 SUB SWAP1 RETURN JUMPDEST PUSH2 0x68 PUSH2 0x13F JUMP JUMPDEST PUSH1 0x0 PUSH1 0x3 PUSH8 0xFFFFFFFFFFFFFFFF DUP2 GT ISZERO PUSH2 0x85 JUMPI PUSH2 0x84 PUSH2 0x48D JUMP JUMPDEST JUMPDEST PUSH1 0x40 MLOAD SWAP1 DUP1 DUP3 MSTORE DUP1 PUSH1 0x20 MUL PUSH1 0x20 ADD DUP3 ADD PUSH1 0x40 MSTORE DUP1 ISZERO PUSH2 0xB3 JUMPI DUP2 PUSH1 0x20 ADD PUSH1 0x20 DUP3 MUL DUP1 CALLDATASIZE DUP4 CALLDATACOPY DUP1 DUP3 ADD SWAP2 POP POP SWAP1 POP JUMPDEST POP SWAP1 POP PUSH1 0x1 DUP2 PUSH1 0x0 DUP2 MLOAD DUP2 LT PUSH2 0xCC JUMPI PUSH2 0xCB PUSH2 0x45E JUMP JUMPDEST JUMPDEST PUSH1 0x20 MUL PUSH1 0x20 ADD ADD DUP2 DUP2 MSTORE POP POP PUSH1 0x2 DUP2 PUSH1 0x1 DUP2 MLOAD DUP2 LT PUSH2 0xEE JUMPI PUSH2 0xED PUSH2 0x45E JUMP JUMPDEST JUMPDEST PUSH1 0x20 MUL PUSH1 0x20 ADD ADD DUP2 DUP2 MSTORE POP POP PUSH1 0x3 DUP2 PUSH1 0x2 DUP2 MLOAD DUP2 LT PUSH2 0x110 JUMPI PUSH2 0x10F PUSH2 0x45E JUMP JUMPDEST JUMPDEST PUSH1 0x20 MUL PUSH1 0x20 ADD ADD DUP2 DUP2 MSTORE POP POP PUSH1 0x0 PUSH1 0x40 MLOAD DUP1 PUSH1 0x40 ADD PUSH1 0x40 MSTORE DUP1 DUP6 DUP2 MSTORE PUSH1 0x20 ADD DUP4 DUP2 MSTORE POP SWAP1 POP DUP1 SWAP3 POP POP POP SWAP2 SWAP1 POP JUMP JUMPDEST PUSH1 0x40 MLOAD DUP1 PUSH1 0x40 ADD PUSH1 0x40 MSTORE DUP1 PUSH1 0x60 DUP2 MSTORE PUSH1 0x20 ADD PUSH1 0x60 DUP2 MSTORE POP SWAP1 JUMP JUMPDEST PUSH1 0x0 PUSH2 0x16C PUSH2 0x167 DUP5 PUSH2 0x35B JUMP JUMPDEST PUSH2 0x336 JUMP JUMPDEST SWAP1 POP DUP3 DUP2 MSTORE PUSH1 0x20 DUP2 ADD DUP5 DUP5 DUP5 ADD GT ISZERO PUSH2 0x188 JUMPI PUSH2 0x187 PUSH2 0x4C1 JUMP JUMPDEST JUMPDEST PUSH2 0x193 DUP5 DUP3 DUP6 PUSH2 0x3EB JUMP JUMPDEST POP SWAP4 SWAP3 POP POP POP JUMP JUMPDEST PUSH1 0x0 DUP3 PUSH1 0x1F DUP4 ADD SLT PUSH2 0x1B0 JUMPI PUSH2 0x1AF PUSH2 0x4BC JUMP JUMPDEST JUMPDEST DUP2 CALLDATALOAD PUSH2 0x1C0 DUP5 DUP3 PUSH1 0x20 DUP7 ADD PUSH2 0x159 JUMP JUMPDEST SWAP2 POP POP SWAP3 SWAP2 POP POP JUMP JUMPDEST PUSH1 0x0 PUSH1 0x20 DUP3 DUP5 SUB SLT ISZERO PUSH2 0x1DF JUMPI PUSH2 0x1DE PUSH2 0x4CB JUMP JUMPDEST JUMPDEST PUSH1 0x0 DUP3 ADD CALLDATALOAD PUSH8 0xFFFFFFFFFFFFFFFF DUP2 GT ISZERO PUSH2 0x1FD JUMPI PUSH2 0x1FC PUSH2 0x4C6 JUMP JUMPDEST JUMPDEST PUSH2 0x209 DUP5 DUP3 DUP6 ADD PUSH2 0x19B JUMP JUMPDEST SWAP2 POP POP SWAP3 SWAP2 POP POP JUMP JUMPDEST PUSH1 0x0 PUSH2 0x21E DUP4 DUP4 PUSH2 0x305 JUMP JUMPDEST PUSH1 0x20 DUP4 ADD SWAP1 POP SWAP3 SWAP2 POP POP JUMP JUMPDEST PUSH1 0x0 PUSH2 0x235 DUP3 PUSH2 0x39C JUMP JUMPDEST PUSH2 0x23F DUP2 DUP6 PUSH2 0x3BF JUMP JUMPDEST SWAP4 POP PUSH2 0x24A DUP4 PUSH2 0x38C JUMP JUMPDEST DUP1 PUSH1 0x0 JUMPDEST DUP4 DUP2 LT ISZERO PUSH2 0x27B JUMPI DUP2 MLOAD PUSH2 0x262 DUP9 DUP3 PUSH2 0x212 JUMP JUMPDEST SWAP8 POP PUSH2 0x26D DUP4 PUSH2 0x3B2 JUMP JUMPDEST SWAP3 POP POP PUSH1 0x1 DUP2 ADD SWAP1 POP PUSH2 0x24E JUMP JUMPDEST POP DUP6 SWAP4 POP POP POP POP SWAP3 SWAP2 POP POP JUMP JUMPDEST PUSH1 0x0 PUSH2 0x293 DUP3 PUSH2 0x3A7 JUMP JUMPDEST PUSH2 0x29D DUP2 DUP6 PUSH2 0x3D0 JUMP JUMPDEST SWAP4 POP PUSH2 0x2AD DUP2 DUP6 PUSH1 0x20 DUP7 ADD PUSH2 0x3FA JUMP JUMPDEST PUSH2 0x2B6 DUP2 PUSH2 0x4D0 JUMP JUMPDEST DUP5 ADD SWAP2 POP POP SWAP3 SWAP2 POP POP JUMP JUMPDEST PUSH1 0x0 PUSH1 0x40 DUP4 ADD PUSH1 0x0 DUP4 ADD MLOAD DUP5 DUP3 SUB PUSH1 0x0 DUP7 ADD MSTORE PUSH2 0x2DE DUP3 DUP3 PUSH2 0x288 JUMP JUMPDEST SWAP2 POP POP PUSH1 0x20 DUP4 ADD MLOAD DUP5 DUP3 SUB PUSH1 0x20 DUP7 ADD MSTORE PUSH2 0x2F8 DUP3 DUP3 PUSH2 0x22A JUMP JUMPDEST SWAP2 POP POP DUP1 SWAP2 POP POP SWAP3 SWAP2 POP POP JUMP JUMPDEST PUSH2 0x30E DUP2 PUSH2 0x3E1 JUMP JUMPDEST DUP3 MSTORE POP POP JUMP JUMPDEST PUSH1 0x0 PUSH1 0x20 DUP3 ADD SWAP1 POP DUP2 DUP2 SUB PUSH1 0x0 DUP4 ADD MSTORE PUSH2 0x32E DUP2 DUP5 PUSH2 0x2C1 JUMP JUMPDEST SWAP1 POP SWAP3 SWAP2 POP POP JUMP JUMPDEST PUSH1 0x0 PUSH2 0x340 PUSH2 0x351 JUMP JUMPDEST SWAP1 POP PUSH2 0x34C DUP3 DUP3 PUSH2 0x42D JUMP JUMPDEST SWAP2 SWAP1 POP JUMP JUMPDEST PUSH1 0x0 PUSH1 0x40 MLOAD SWAP1 POP SWAP1 JUMP JUMPDEST PUSH1 0x0 PUSH8 0xFFFFFFFFFFFFFFFF DUP3 GT ISZERO PUSH2 0x376 JUMPI PUSH2 0x375 PUSH2 0x48D JUMP JUMPDEST JUMPDEST PUSH2 0x37F DUP3 PUSH2 0x4D0 JUMP JUMPDEST SWAP1 POP PUSH1 0x20 DUP2 ADD SWAP1 POP SWAP2 SWAP1 POP JUMP JUMPDEST PUSH1 0x0 DUP2 SWAP1 POP PUSH1 0x20 DUP3 ADD SWAP1 POP SWAP2 SWAP1 POP JUMP JUMPDEST PUSH1 0x0 DUP2 MLOAD SWAP1 POP SWAP2 SWAP1 POP JUMP JUMPDEST PUSH1 0x0 DUP2 MLOAD SWAP1 POP SWAP2 SWAP1 POP JUMP JUMPDEST PUSH1 0x0 PUSH1 0x20 DUP3 ADD SWAP1 POP SWAP2 SWAP1 POP JUMP JUMPDEST PUSH1 0x0 DUP3 DUP3 MSTORE PUSH1 0x20 DUP3 ADD SWAP1 POP SWAP3 SWAP2 POP POP JUMP JUMPDEST PUSH1 0x0 DUP3 DUP3 MSTORE PUSH1 0x20 DUP3 ADD SWAP1 POP SWAP3 SWAP2 POP POP JUMP JUMPDEST PUSH1 0x0 DUP2 SWAP1 POP SWAP2 SWAP1 POP JUMP JUMPDEST DUP3 DUP2 DUP4 CALLDATACOPY PUSH1 0x0 DUP4 DUP4 ADD MSTORE POP POP POP JUMP JUMPDEST PUSH1 0x0 JUMPDEST DUP4 DUP2 LT ISZERO PUSH2 0x418 JUMPI DUP1 DUP3 ADD MLOAD DUP2 DUP5 ADD MSTORE PUSH1 0x20 DUP2 ADD SWAP1 POP PUSH2 0x3FD JUMP JUMPDEST DUP4 DUP2 GT ISZERO PUSH2 0x427 JUMPI PUSH1 0x0 DUP5 DUP5 ADD MSTORE JUMPDEST POP POP POP POP JUMP JUMPDEST PUSH2 0x436 DUP3 PUSH2 0x4D0 JUMP JUMPDEST DUP2 ADD DUP2 DUP2 LT PUSH8 0xFFFFFFFFFFFFFFFF DUP3 GT OR ISZERO PUSH2 0x455 JUMPI PUSH2 0x454 PUSH2 0x48D JUMP JUMPDEST JUMPDEST DUP1 PUSH1 0x40 MSTORE POP POP POP JUMP JUMPDEST PUSH32 0x4E487B7100000000000000000000000000000000000000000000000000000000 PUSH1 0x0 MSTORE PUSH1 0x32 PUSH1 0x4 MSTORE PUSH1 0x24 PUSH1 0x0 REVERT JUMPDEST PUSH32 0x4E487B7100000000000000000000000000000000000000000000000000000000 PUSH1 0x0 MSTORE PUSH1 0x41 PUSH1 0x4 MSTORE PUSH1 0x24 PUSH1 0x0 REVERT JUMPDEST PUSH1 0x0 DUP1 REVERT JUMPDEST PUSH1 0x0 DUP1 REVERT JUMPDEST PUSH1 0x0 DUP1 REVERT JUMPDEST PUSH1 0x0 DUP1 REVERT JUMPDEST PUSH1 0x0 PUSH1 0x1F NOT PUSH1 0x1F DUP4 ADD AND SWAP1 POP SWAP2 SWAP1 POP JUMP INVALID LOG2 PUSH5 0x6970667358 0x22 SLT KECCAK256 0xC9 LOG3 0xAE SWAP1 PUSH12 0xAF1483DABD65CB390B932B95 PUSH10 0x582FB45AA01ABDFA7441 SDIV 0xF7 SHR SWAP9 PUSH5 0x736F6C6343 STOP ADDMOD SMOD STOP CALLER "
		},
		"gasEstimates": {
			"creation": {
				"codeDepositCost": "260600",
				"executionCost": "300",
				"totalCost": "260900"
			},
			"external": {
				"updateStruct(string)": "infinite"
			}
		},
		"methodIdentifiers": {
			"updateStruct(string)": "ef4093fe"
		}
	},
	"abi": [
		{
			"inputs": [
				{
					"internalType": "string",
					"name": "_str",
					"type": "string"
				}
			],
			"name": "updateStruct",
			"outputs": [
				{
					"components": [
						{
							"internalType": "string",
							"name": "str",
							"type": "string"
						},
						{
							"internalType": "uint256[]",
							"name": "arr",
							"type": "uint256[]"
						}
					],
					"internalType": "struct DataLocation.MyStruct",
					"name": "",
					"type": "tuple"
				}
			],
			"stateMutability": "pure",
			"type": "function"
		}
	]
}